{
  "_format": "hh3-artifact-1",
  "contractName": "InterestPool",
  "sourceName": "contracts/InterestPool.sol",
  "abi": [
    {
      "inputs": [
        {
          "internalType": "address",
          "name": "initialOwner",
          "type": "address"
        },
        {
          "internalType": "address",
          "name": "_core",
          "type": "address"
        },
        {
          "internalType": "address",
          "name": "_gov",
          "type": "address"
        },
        {
          "internalType": "address",
          "name": "_rateOracle",
          "type": "address"
        }
      ],
      "stateMutability": "nonpayable",
      "type": "constructor"
    },
    {
      "inputs": [
        {
          "internalType": "address",
          "name": "owner",
          "type": "address"
        }
      ],
      "name": "OwnableInvalidOwner",
      "type": "error"
    },
    {
      "inputs": [
        {
          "internalType": "address",
          "name": "account",
          "type": "address"
        }
      ],
      "name": "OwnableUnauthorizedAccount",
      "type": "error"
    },
    {
      "inputs": [],
      "name": "ReentrancyGuardReentrantCall",
      "type": "error"
    },
    {
      "inputs": [
        {
          "internalType": "address",
          "name": "token",
          "type": "address"
        }
      ],
      "name": "SafeERC20FailedOperation",
      "type": "error"
    },
    {
      "anonymous": false,
      "inputs": [
        {
          "indexed": false,
          "internalType": "uint256",
          "name": "oldRateBps",
          "type": "uint256"
        },
        {
          "indexed": false,
          "internalType": "uint256",
          "name": "newRateBps",
          "type": "uint256"
        },
        {
          "indexed": false,
          "internalType": "uint256",
          "name": "price",
          "type": "uint256"
        },
        {
          "indexed": false,
          "internalType": "int256",
          "name": "dailyChangeBps",
          "type": "int256"
        }
      ],
      "name": "BTBAnnualRateUpdated",
      "type": "event"
    },
    {
      "anonymous": false,
      "inputs": [
        {
          "indexed": false,
          "internalType": "uint256",
          "name": "oldRateBps",
          "type": "uint256"
        },
        {
          "indexed": false,
          "internalType": "uint256",
          "name": "newRateBps",
          "type": "uint256"
        }
      ],
      "name": "BTDAnnualRateUpdated",
      "type": "event"
    },
    {
      "anonymous": false,
      "inputs": [
        {
          "indexed": true,
          "internalType": "address",
          "name": "user",
          "type": "address"
        },
        {
          "indexed": true,
          "internalType": "address",
          "name": "token",
          "type": "address"
        },
        {
          "indexed": false,
          "internalType": "uint256",
          "name": "amount",
          "type": "uint256"
        }
      ],
      "name": "InterestClaimed",
      "type": "event"
    },
    {
      "anonymous": false,
      "inputs": [
        {
          "indexed": true,
          "internalType": "address",
          "name": "previousOwner",
          "type": "address"
        },
        {
          "indexed": true,
          "internalType": "address",
          "name": "newOwner",
          "type": "address"
        }
      ],
      "name": "OwnershipTransferred",
      "type": "event"
    },
    {
      "anonymous": false,
      "inputs": [
        {
          "indexed": true,
          "internalType": "address",
          "name": "newOracle",
          "type": "address"
        }
      ],
      "name": "RateOracleUpdated",
      "type": "event"
    },
    {
      "anonymous": false,
      "inputs": [
        {
          "indexed": true,
          "internalType": "address",
          "name": "user",
          "type": "address"
        },
        {
          "indexed": true,
          "internalType": "address",
          "name": "token",
          "type": "address"
        },
        {
          "indexed": false,
          "internalType": "uint256",
          "name": "amount",
          "type": "uint256"
        }
      ],
      "name": "Staked",
      "type": "event"
    },
    {
      "anonymous": false,
      "inputs": [
        {
          "indexed": true,
          "internalType": "address",
          "name": "token",
          "type": "address"
        },
        {
          "indexed": false,
          "internalType": "uint256",
          "name": "amount",
          "type": "uint256"
        }
      ],
      "name": "TreasuryFeeMinted",
      "type": "event"
    },
    {
      "anonymous": false,
      "inputs": [
        {
          "indexed": true,
          "internalType": "address",
          "name": "user",
          "type": "address"
        },
        {
          "indexed": true,
          "internalType": "address",
          "name": "token",
          "type": "address"
        },
        {
          "indexed": false,
          "internalType": "uint256",
          "name": "amount",
          "type": "uint256"
        }
      ],
      "name": "Withdrawn",
      "type": "event"
    },
    {
      "inputs": [],
      "name": "btbLastPrice",
      "outputs": [
        {
          "internalType": "uint256",
          "name": "",
          "type": "uint256"
        }
      ],
      "stateMutability": "view",
      "type": "function"
    },
    {
      "inputs": [],
      "name": "btbLastRateUpdate",
      "outputs": [
        {
          "internalType": "uint256",
          "name": "",
          "type": "uint256"
        }
      ],
      "stateMutability": "view",
      "type": "function"
    },
    {
      "inputs": [],
      "name": "btbPool",
      "outputs": [
        {
          "internalType": "contract IMintableERC20",
          "name": "token",
          "type": "address"
        },
        {
          "internalType": "uint256",
          "name": "totalStaked",
          "type": "uint256"
        },
        {
          "internalType": "uint256",
          "name": "accInterestPerShare",
          "type": "uint256"
        },
        {
          "internalType": "uint256",
          "name": "lastAccrual",
          "type": "uint256"
        },
        {
          "internalType": "uint256",
          "name": "annualRateBps",
          "type": "uint256"
        }
      ],
      "stateMutability": "view",
      "type": "function"
    },
    {
      "inputs": [],
      "name": "btdLastPrice",
      "outputs": [
        {
          "internalType": "uint256",
          "name": "",
          "type": "uint256"
        }
      ],
      "stateMutability": "view",
      "type": "function"
    },
    {
      "inputs": [],
      "name": "btdLastRateUpdate",
      "outputs": [
        {
          "internalType": "uint256",
          "name": "",
          "type": "uint256"
        }
      ],
      "stateMutability": "view",
      "type": "function"
    },
    {
      "inputs": [],
      "name": "btdPool",
      "outputs": [
        {
          "internalType": "contract IMintableERC20",
          "name": "token",
          "type": "address"
        },
        {
          "internalType": "uint256",
          "name": "totalStaked",
          "type": "uint256"
        },
        {
          "internalType": "uint256",
          "name": "accInterestPerShare",
          "type": "uint256"
        },
        {
          "internalType": "uint256",
          "name": "lastAccrual",
          "type": "uint256"
        },
        {
          "internalType": "uint256",
          "name": "annualRateBps",
          "type": "uint256"
        }
      ],
      "stateMutability": "view",
      "type": "function"
    },
    {
      "inputs": [],
      "name": "core",
      "outputs": [
        {
          "internalType": "contract ConfigCore",
          "name": "",
          "type": "address"
        }
      ],
      "stateMutability": "view",
      "type": "function"
    },
    {
      "inputs": [],
      "name": "getBTBPrice",
      "outputs": [
        {
          "internalType": "uint256",
          "name": "",
          "type": "uint256"
        }
      ],
      "stateMutability": "view",
      "type": "function"
    },
    {
      "inputs": [],
      "name": "gov",
      "outputs": [
        {
          "internalType": "contract ConfigGov",
          "name": "",
          "type": "address"
        }
      ],
      "stateMutability": "view",
      "type": "function"
    },
    {
      "inputs": [],
      "name": "owner",
      "outputs": [
        {
          "internalType": "address",
          "name": "",
          "type": "address"
        }
      ],
      "stateMutability": "view",
      "type": "function"
    },
    {
      "inputs": [],
      "name": "rateOracle",
      "outputs": [
        {
          "internalType": "address",
          "name": "",
          "type": "address"
        }
      ],
      "stateMutability": "view",
      "type": "function"
    },
    {
      "inputs": [],
      "name": "renounceOwnership",
      "outputs": [],
      "stateMutability": "nonpayable",
      "type": "function"
    },
    {
      "inputs": [
        {
          "internalType": "address",
          "name": "newOracle",
          "type": "address"
        }
      ],
      "name": "setRateOracle",
      "outputs": [],
      "stateMutability": "nonpayable",
      "type": "function"
    },
    {
      "inputs": [
        {
          "internalType": "uint256",
          "name": "amount",
          "type": "uint256"
        }
      ],
      "name": "stakeBTB",
      "outputs": [],
      "stateMutability": "nonpayable",
      "type": "function"
    },
    {
      "inputs": [
        {
          "internalType": "uint256",
          "name": "amount",
          "type": "uint256"
        }
      ],
      "name": "stakeBTD",
      "outputs": [],
      "stateMutability": "nonpayable",
      "type": "function"
    },
    {
      "inputs": [
        {
          "internalType": "address",
          "name": "token",
          "type": "address"
        }
      ],
      "name": "totalStaked",
      "outputs": [
        {
          "internalType": "uint256",
          "name": "",
          "type": "uint256"
        }
      ],
      "stateMutability": "view",
      "type": "function"
    },
    {
      "inputs": [
        {
          "internalType": "address",
          "name": "newOwner",
          "type": "address"
        }
      ],
      "name": "transferOwnership",
      "outputs": [],
      "stateMutability": "nonpayable",
      "type": "function"
    },
    {
      "inputs": [
        {
          "internalType": "uint256",
          "name": "amount",
          "type": "uint256"
        }
      ],
      "name": "unstakeBTB",
      "outputs": [],
      "stateMutability": "nonpayable",
      "type": "function"
    },
    {
      "inputs": [
        {
          "internalType": "uint256",
          "name": "amount",
          "type": "uint256"
        }
      ],
      "name": "unstakeBTD",
      "outputs": [],
      "stateMutability": "nonpayable",
      "type": "function"
    },
    {
      "inputs": [],
      "name": "updateBTBAnnualRate",
      "outputs": [],
      "stateMutability": "nonpayable",
      "type": "function"
    },
    {
      "inputs": [],
      "name": "updateBTDAnnualRate",
      "outputs": [],
      "stateMutability": "nonpayable",
      "type": "function"
    },
    {
      "inputs": [
        {
          "internalType": "address",
          "name": "newGov",
          "type": "address"
        }
      ],
      "name": "upgradeGov",
      "outputs": [],
      "stateMutability": "nonpayable",
      "type": "function"
    },
    {
      "inputs": [
        {
          "internalType": "address",
          "name": "token",
          "type": "address"
        },
        {
          "internalType": "address",
          "name": "user",
          "type": "address"
        }
      ],
      "name": "userStaked",
      "outputs": [
        {
          "internalType": "uint256",
          "name": "",
          "type": "uint256"
        }
      ],
      "stateMutability": "view",
      "type": "function"
    }
  ],
  "bytecode": "0x60a080604052346102b1576080816122eb803803809161001f82856103ce565b8339810103126102b157610032816103f1565b61003e602083016103f1565b906100576060610050604086016103f1565b94016103f1565b506001600160a01b0316801561038c575f80546001600160a01b03198116831782556001600160a01b0316907f8be0079c531659141344cd1fd0a4f28419497f9722a3daafe3b4186f6b6457e09080a3600180556001600160a01b0316908115610347576001600160a01b03168015610302576080829052600280546001600160a01b0319169091179055604051634574047760e01b815290602090829060049082905afa80156102bd575f906102c8575b6080516040516308d95ebd60e31b81529250602090839060049082906001600160a01b03165afa9182156102bd575f9261027d575b506001600160a01b03168015158061026b575b156102265761019060806040516101678161039f565b8381525f60208201525f6040820152426060820152015260018060a01b031960045416176004555f6005555f6006554260075561019060085560018060a01b031661019060806040516101b98161039f565b8381525f60208201525f6040820152426060820152015260018060a01b031960095416176009555f600a555f600b5542600c55610190600d55604051611ee5908161040682396080518181816102ec015281816112aa0152818161150e0152818161170901526118b30152f35b60405162461bcd60e51b815260206004820152601760248201527f546f6b656e20616464726573736573206e6f74207365740000000000000000006044820152606490fd5b506001600160a01b0382161515610151565b9091506020813d6020116102b5575b81610299602093836103ce565b810103126102b1576102aa906103f1565b905f61013e565b5f80fd5b3d915061028c565b6040513d5f823e3d90fd5b506020813d6020116102fa575b816102e2602093836103ce565b810103126102b1576102f56004916103f1565b610109565b3d91506102d5565b60405162461bcd60e51b815260206004820152601660248201527f496e746572657374506f6f6c3a20676f76207a65726f000000000000000000006044820152606490fd5b60405162461bcd60e51b815260206004820152601760248201527f496e746572657374506f6f6c3a20636f7265207a65726f0000000000000000006044820152606490fd5b631e4fbdf760e01b5f525f60045260245ffd5b60a081019081106001600160401b038211176103ba57604052565b634e487b7160e01b5f52604160045260245ffd5b601f909101601f19168101906001600160401b038211908210176103ba57604052565b51906001600160a01b03821682036102b15756fe6080806040526004361015610012575f80fd5b5f3560e01c90816312d43a5114610e97575080631b4f9ea614610c8e5780633eabfb7514610b4b5780634cd301e614610b2e578063582d6976146108fa5780636fe1e80c146108dd578063715018a614610886578063776f8a5a1461074e5780637771dad51461071557806377badb1d146106f857806380d58bd3146106db5780638da5cb5b146106b45780639546ed711461066657806398f4b1b21461063e5780639bfd8d611461061b578063a0e8d356146105f9578063afdfe22c1461057a578063b8e380f814610416578063c19da1ae146103c8578063cf3c99bd1461031b578063f2f4eb26146102d7578063f2fde38b146102525763f94cc96e14610119575f80fd5b3461024e57602036600319011261024e57600435610135611413565b61014866038d7ea4c6800082101561107e565b6101606b033b2e3c9fd0803ce80000008211156110c3565b61016861120e565b335f52600f60205260405f2080546101cc61018d600b54926001850193845491611a8b565b926101a68560018060a01b0360095416309033906119d3565b6101b1858254610f1c565b81556101bf85600a54610f1c565b600a5554600b5490611879565b905580610216575b506009546040519182526001600160a01b03169033907f5dac0c1b1112564a045ba943c9d50270893e8e826c49be8e7073adc713ab7bd790602090a360018055005b6102208133611486565b6009546040519182526001600160a01b03169033905f516020611e905f395f51905f5290602090a35f6101d4565b5f80fd5b3461024e57602036600319011261024e5761026b610eba565b6102736119ad565b6001600160a01b031680156102c4575f80546001600160a01b03198116831782556001600160a01b0316907f8be0079c531659141344cd1fd0a4f28419497f9722a3daafe3b4186f6b6457e09080a3005b631e4fbdf760e01b5f525f60045260245ffd5b3461024e575f36600319011261024e576040517f00000000000000000000000000000000000000000000000000000000000000006001600160a01b03168152602090f35b3461024e57602036600319011261024e57610334610eba565b61033c6119ad565b6001600160a01b0316801561038357600380546001600160a01b031916821790557f2fdc9a614911eb083a1bf7a4fcc09658aa41d3bb8ffca5846a50dcc21827c9645f80a2005b60405162461bcd60e51b815260206004820152601960248201527f496e746572657374506f6f6c3a207a65726f206f7261636c65000000000000006044820152606490fd5b3461024e575f36600319011261024e57600954600a54600b54600c54600d54604080516001600160a01b0390961686526020860194909452928401919091526060830152608082015260a090f35b3461024e57602036600319011261024e57600435610432611413565b61044566038d7ea4c68000821015610f9a565b61045d6b033b2e3c9fd0803ce8000000821115610fe6565b6104656111a1565b335f52600e6020526104c460405f206104ab81549360065494610499610492600186019788549084611a8b565b8092610f1c565b916104a681841015611032565b611433565b9080610542575b50806104cc575b505460065490611879565b905560018055005b6104d7818354610f47565b82556104e581600554610f47565b60055560045461050190829033906001600160a01b0316611838565b6004546040519182526001600160a01b03169033907fd1c19fbcd4551a5edfb66d43d2e337c04837afda3482b42bdf569a8fccdae5fb90602090a3836104b9565b61054c8133611693565b6004546040519182526001600160a01b03169033905f516020611e905f395f51905f5290602090a3846104b2565b3461024e57602036600319011261024e57610593610eba565b61059b6119ad565b6001600160a01b031680156105c6576bffffffffffffffffffffffff60a01b60025416176002555f80f35b60405162461bcd60e51b815260206004820152600b60248201526a24b73b30b634b21033b7bb60a91b6044820152606490fd5b3461024e575f36600319011261024e57602061061361189e565b604051908152f35b3461024e57602036600319011261024e576020610613610639610eba565b611169565b3461024e575f36600319011261024e576003546040516001600160a01b039091168152602090f35b3461024e575f36600319011261024e57600454600554600654600754600854604080516001600160a01b0390961686526020860194909452928401919091526060830152608082015260a090f35b3461024e575f36600319011261024e575f546040516001600160a01b039091168152602090f35b3461024e575f36600319011261024e576020601154604051908152f35b3461024e575f36600319011261024e576020601254604051908152f35b3461024e57604036600319011261024e5761072e610eba565b602435906001600160a01b038216820361024e5760209161061391611108565b3461024e57602036600319011261024e5760043561076a611413565b61077d66038d7ea4c6800082101561107e565b6107956b033b2e3c9fd0803ce80000008211156110c3565b61079d6111a1565b335f52600e60205260405f2061080b8154916107c3600654936001830194855491611a8b565b8061084e575b506004546107e5908590309033906001600160a01b03166119d3565b6107f0848254610f1c565b81556107fe84600554610f1c565b6005555460065490611879565b90556004546040519182526001600160a01b03169033907f5dac0c1b1112564a045ba943c9d50270893e8e826c49be8e7073adc713ab7bd790602090a360018055005b6108588133611693565b6004546040519182526001600160a01b03169033905f516020611e905f395f51905f5290602090a3846107c9565b3461024e575f36600319011261024e5761089e6119ad565b5f80546001600160a01b0319811682556001600160a01b03167f8be0079c531659141344cd1fd0a4f28419497f9722a3daafe3b4186f6b6457e08280a3005b3461024e575f36600319011261024e576020601354604051908152f35b3461024e575f36600319011261024e5761091f60018060a01b03600354163314610ed0565b60135480610abc575b5061093161120e565b61093961189e565b6012546109468282611a46565b600d54928392610a48575b600254604051635b1dd53360e01b815290602090829060049082906001600160a01b03165afa908115610a3d575f916109e3575b5090848260809594937fbbfe72c2052fa04992a0a35b724247054c2f1834da975dd9660e72d44932190d97116109db575b5080600d558160125542601355604051938452602084015260408301526060820152a1005b9050866109b6565b93929190506020843d602011610a35575b81610a0160209383610f64565b8101031261024e579251919290917fbbfe72c2052fa04992a0a35b724247054c2f1834da975dd9660e72d44932190d610985565b3d91506109f4565b6040513d5f823e3d90fd5b92670dbd2fc137a30000841080610ab3575b15610a7857610a7290610a6c83610f54565b90610f1c565b92610951565b92670e043da617250000811180610aaa575b15610951579281818110610aa15750505f92610951565b610a7291610f47565b505f8213610a8a565b505f8212610a5a565b620151808101809111610b1a574210610ad55780610928565b60405162461bcd60e51b815260206004820152601e60248201527f425442207261746520616c7265616479207570646174656420746f64617900006044820152606490fd5b634e487b7160e01b5f52601160045260245ffd5b3461024e575f36600319011261024e576020601054604051908152f35b3461024e57602036600319011261024e57600435610b67611413565b610b7a66038d7ea4c68000821015610f9a565b610b926b033b2e3c9fd0803ce8000000821115610fe6565b610b9a61120e565b335f52600f6020526104c460405f20610bc7815493600b5494610499610492600186019788549084611a8b565b9080610c56575b5080610be0575b5054600b5490611879565b610beb818354610f47565b8255610bf981600a54610f47565b600a55600954610c1590829033906001600160a01b0316611838565b6009546040519182526001600160a01b03169033907fd1c19fbcd4551a5edfb66d43d2e337c04837afda3482b42bdf569a8fccdae5fb90602090a383610bd5565b610c608133611486565b6009546040519182526001600160a01b03169033905f516020611e905f395f51905f5290602090a384610bce565b3461024e575f36600319011261024e57610cb360018060a01b03600354163314610ed0565b60115480610e39575b50610cc56111a1565b610ccd611295565b601054610cda8282611a46565b600854908192610dc3575b50600254604051630c90852b60e31b815290602090829060049082906001600160a01b03165afa908115610a3d575f91610d6b575b50907f973c7d0d2ed53931e2bf2dbca70381aea00d0ab42d00e9dffce83537368c98909382604094938311610d63575b50816008556010554260115582519182526020820152a1005b915085610d4a565b929190506020833d602011610dbb575b81610d8860209383610f64565b8101031261024e5791519091907f973c7d0d2ed53931e2bf2dbca70381aea00d0ab42d00e9dffce83537368c9890610d1a565b3d9150610d7b565b670dbd2fc137a30000841080610e30575b15610dec5790610a6c610de692610f54565b83610ce5565b670e043da617250000841180610e27575b610e08575b50610de6565b818110610e195750505f5b83610e02565b610e2291610f47565b610e13565b505f8113610dfd565b505f8112610dd4565b620151808101809111610b1a574210610e525780610cbc565b60405162461bcd60e51b815260206004820152601e60248201527f425444207261746520616c7265616479207570646174656420746f64617900006044820152606490fd5b3461024e575f36600319011261024e576002546001600160a01b03168152602090f35b600435906001600160a01b038216820361024e57565b15610ed757565b60405162461bcd60e51b815260206004820152601e60248201527f496e746572657374506f6f6c3a206f6e6c792072617465206f7261636c6500006044820152606490fd5b91908201809211610b1a57565b8115610f33570490565b634e487b7160e01b5f52601260045260245ffd5b91908203918211610b1a57565b600160ff1b8114610b1a575f0390565b90601f8019910116810190811067ffffffffffffffff821117610f8657604052565b634e487b7160e01b5f52604160045260245ffd5b15610fa157565b60405162461bcd60e51b815260206004820152601860248201527f556e7374616b6520616d6f756e7420746f6f20736d616c6c00000000000000006044820152606490fd5b15610fed57565b60405162461bcd60e51b815260206004820152601860248201527f556e7374616b6520616d6f756e7420746f6f206c6172676500000000000000006044820152606490fd5b1561103957565b60405162461bcd60e51b815260206004820152601760248201527f556e7374616b6520657863656564732062616c616e63650000000000000000006044820152606490fd5b1561108557565b60405162461bcd60e51b815260206004820152601660248201527514dd185ad948185b5bdd5b9d081d1bdbc81cdb585b1b60521b6044820152606490fd5b156110ca57565b60405162461bcd60e51b81526020600482015260166024820152755374616b6520616d6f756e7420746f6f206c6172676560501b6044820152606490fd5b6004546001600160a01b039182169116810361113957506001600160a01b03165f908152600e602052604090205490565b6009546001600160a01b03161461114f57505f90565b6001600160a01b03165f908152600f602052604090205490565b6004546001600160a01b0391821691168103611186575060055490565b6009546001600160a01b03161461119b575f90565b600a5490565b600754421461120c57600554158015611202575b6111fc576111c560075442610f47565b80156111f9576111d790600854611a17565b806111e4575b5042600755565b6111f090600654610f1c565b6006555f6111dd565b50565b42600755565b50600854156111b5565b565b600c54421461120c57600a5415801561126c575b61126657611232600c5442610f47565b80156111f95761124490600d54611a17565b80611251575b5042600c55565b61125d90600b54610f1c565b600b555f61124a565b42600c55565b50600d5415611222565b9081602091031261024e57516001600160a01b038116810361024e5790565b60405163050c9ccd60e11b81526020816004817f00000000000000000000000000000000000000000000000000000000000000006001600160a01b03165afa908115610a3d575f916113e4575b506040516001627cc90160e01b03198152906001600160a01b0316602082600481845afa918215610a3d575f926113af575b5060206004916040519283809263ae8ba67960e01b82525afa908115610a3d575f9161137d575b50801561136f57670de0b6b3a7640000820291808304670de0b6b3a76400001490151715610b1a5761136c91610f29565b90565b5050670de0b6b3a764000090565b90506020813d6020116113a7575b8161139860209383610f64565b8101031261024e57515f61133b565b3d915061138b565b9091506020813d6020116113dc575b816113cb60209383610f64565b8101031261024e5751906020611314565b3d91506113be565b611406915060203d60201161140c575b6113fe8183610f64565b810190611276565b5f6112e2565b503d6113f4565b600260015414611424576002600155565b633ee5aeb560e01b5f5260045ffd5b9291831561147c5780158015611474575b61146d576114529184611d74565b91808311611465575b8261136c91610f47565b91508161145b565b50505f9190565b508115611444565b505090505f905f90565b6009545f91906001600160a01b0316803b1561024e576040516340c10f1960e01b81526001600160a01b03929092166004830152602482018490525f908290604490829084905af18015610a3d57611680575b506009546004546001600160a01b03918216911681146114f857505050565b604051632d2c556560e01b8152926020846004817f00000000000000000000000000000000000000000000000000000000000000006001600160a01b03165afa938415611675578394611654575b506001600160a01b0384161561161c5761155f90611e12565b928361156c575b50505050565b813b15611618576040516340c10f1960e01b81526001600160a01b03919091166004820152602481018490529082908290604490829084905af1801561160d576115f5575b50506009546040519182526001600160a01b0316907f851bbbb7772d1b73589565502484a41b75a658c4b5cd68238eb206cdc4da161d90602090a25f808080611566565b611600828092610f64565b61160a57806115b1565b80fd5b6040513d84823e3d90fd5b8280fd5b60405162461bcd60e51b815260206004820152601060248201526f151c99585cdd5c9e481b9bdd081cd95d60821b6044820152606490fd5b61166e91945060203d60201161140c576113fe8183610f64565b925f611546565b6040513d85823e3d90fd5b61168c91505f90610f64565b5f5f6114d9565b6004545f91906001600160a01b0316803b1561024e576040516340c10f1960e01b81526001600160a01b03929092166004830152602482018490525f908290604490829084905af18015610a3d57611825575b506004546001600160a01b0316604051632d2c556560e01b8152926020846004817f00000000000000000000000000000000000000000000000000000000000000006001600160a01b03165afa938415611675578394611804575b506001600160a01b0384161561161c5761175a90611e12565b92836117665750505050565b813b15611618576040516340c10f1960e01b81526001600160a01b03919091166004820152602481018490529082908290604490829084905af1801561160d576117ef575b50506004546040519182526001600160a01b0316907f851bbbb7772d1b73589565502484a41b75a658c4b5cd68238eb206cdc4da161d90602090a25f808080611566565b6117fa828092610f64565b61160a57806117ab565b61181e91945060203d60201161140c576113fe8183610f64565b925f611741565b61183191505f90610f64565b5f5f6116e6565b60405163a9059cbb60e01b60208201526001600160a01b0392909216602483015260448083019390935291815261120c91611874606483610f64565b611e37565b9081158015611896575b6118905761136c91611ac3565b50505f90565b508015611883565b60405163050c9ccd60e11b81526020816004817f00000000000000000000000000000000000000000000000000000000000000006001600160a01b03165afa908115610a3d575f9161198e575b506001600160a01b031680156119535760206004916040519283809263507469ab60e11b82525afa908115610a3d575f91611924575090565b90506020813d60201161194b575b8161193f60209383610f64565b8101031261024e575190565b3d9150611932565b60405162461bcd60e51b8152602060048201526013602482015272141c9a58d953dc9858db19481b9bdd081cd95d606a1b6044820152606490fd5b6119a7915060203d60201161140c576113fe8183610f64565b5f6118eb565b5f546001600160a01b031633036119c057565b63118cdaa760e01b5f523360045260245ffd5b6040516323b872dd60e01b60208201526001600160a01b03928316602482015292909116604483015260648083019390935291815261120c91611874608483610f64565b80158015611a3e575b6118905761136c91611a34611a3992611b59565b611ba5565b611bdb565b508115611a20565b80158015611a82575b61189057808211611a755780611a6b61136c93611a7093610f47565b611c61565b610f54565b611a6b8161136c93610f47565b50808214611a4f565b9081158015611abb575b611ab457611aa291611ac3565b90808211156118905761136c91610f47565b5050505f90565b508015611a95565b9091905f905f198482099084810292838084109303928084039314611b465782670de0b6b3a76400001115611b3457507faccb18165bd6fe31ae1cf318dc5b51eee0e1ba569b88cd74c1773b91fac106699394670de0b6b3a7640000910990828211900360ee1b910360121c170290565b634e487b71905260116020526024601cfd5b505050670de0b6b3a76400009192500490565b5f905f19670de0b6b3a7640000820991670de0b6b3a7640000820292838082109103818114611b9e570360011115611b345750670de0b6b3a764000060019109900390565b5050505090565b5f91905f198282099282820293848082109103818114611bd3570360011115611b3457509060019109900390565b505050505090565b5f91905f1960018209818082109103908082039114611c54578064496cebb8001115611c42577fd18ce2d033892ab6710afe1da5f26d00b43f019695d75c72580c14ab81b64c4792935064496cebb8006001830990828211900360f51b9103600b1c170290565b634e487b71845260116020526024601cfd5b5064496cebb80090049150565b5f19612710820991612710820291828085109403938085039414611cf65783821115611cde57612710829109815f0382168092046002816003021880820260020302808202600203028082026002030280820260020302808202600203028091026002030293600183805f03040190848311900302920304170290565b50634e487b715f52156003026011186020526024601cfd5b509061136c9250610f29565b9091905f905f198482099084810292838084109303928084039314611d6757826127101115611b3457507fbc01a36e2eb1c432ca57a786c226809d495182a9930be0ded288ce703afb7e919394612710910990828211900360fc1b910360041c170290565b5050506127109192500490565b90915f198383099280830292838086109503948086039514611e055784831115611ded5790829109815f0382168092046002816003021880820260020302808202600203028082026002030280820260020302808202600203028091026002030293600183805f03040190848311900302920304170290565b82634e487b715f52156003026011186020526024601cfd5b50509061136c9250610f29565b80158015611e30575b611e2b576103e861136c91611d02565b505f90565b505f611e1b565b905f602091828151910182855af115610a3d575f513d611e8657506001600160a01b0381163b155b611e665750565b635274afe760e01b5f9081526001600160a01b0391909116600452602490fd5b60011415611e5f56fec7edf5cfe443c04a10a60ff6084c847114348c55b257a01d62700326219adbbaa2646970667358221220c570e9ebfe02193e81d05de53f07a4797d885c9bea120e0de2d83cd6089a54c564736f6c634300081e0033",
  "linkReferences": {},
  "deployedLinkReferences": {},
  "immutableReferences": {
    "25484": [
      {
        "length": 32,
        "start": 748
      },
      {
        "length": 32,
        "start": 4778
      },
      {
        "length": 32,
        "start": 5390
      },
      {
        "length": 32,
        "start": 5897
      },
      {
        "length": 32,
        "start": 6323
      }
    ]
  },
  "inputSourceName": "project/contracts/InterestPool.sol",
  "buildInfoId": "solc-0_8_30-53912771f68c89d1d8ffad4452b66ac349641e0c"
}