{
  "_format": "hh3-artifact-1",
  "contractName": "UniswapV2TWAPOracle",
  "sourceName": "contracts/UniswapV2TWAPOracle.sol",
  "abi": [
    {
      "anonymous": false,
      "inputs": [
        {
          "indexed": true,
          "internalType": "address",
          "name": "pair",
          "type": "address"
        },
        {
          "indexed": false,
          "internalType": "uint256",
          "name": "price0Cumulative",
          "type": "uint256"
        },
        {
          "indexed": false,
          "internalType": "uint256",
          "name": "price1Cumulative",
          "type": "uint256"
        },
        {
          "indexed": false,
          "internalType": "uint32",
          "name": "timestamp",
          "type": "uint32"
        }
      ],
      "name": "ObservationUpdated",
      "type": "event"
    },
    {
      "inputs": [],
      "name": "PERIOD",
      "outputs": [
        {
          "internalType": "uint256",
          "name": "",
          "type": "uint256"
        }
      ],
      "stateMutability": "view",
      "type": "function"
    },
    {
      "inputs": [
        {
          "internalType": "address",
          "name": "pair",
          "type": "address"
        }
      ],
      "name": "getObservationInfo",
      "outputs": [
        {
          "internalType": "uint32",
          "name": "olderTimestamp",
          "type": "uint32"
        },
        {
          "internalType": "uint32",
          "name": "newerTimestamp",
          "type": "uint32"
        },
        {
          "internalType": "uint32",
          "name": "timeElapsed",
          "type": "uint32"
        }
      ],
      "stateMutability": "view",
      "type": "function"
    },
    {
      "inputs": [
        {
          "internalType": "address",
          "name": "pair",
          "type": "address"
        }
      ],
      "name": "getTWAP",
      "outputs": [
        {
          "internalType": "uint256",
          "name": "",
          "type": "uint256"
        }
      ],
      "stateMutability": "view",
      "type": "function"
    },
    {
      "inputs": [
        {
          "internalType": "address",
          "name": "pair",
          "type": "address"
        },
        {
          "internalType": "uint8",
          "name": "token0Decimals",
          "type": "uint8"
        },
        {
          "internalType": "uint8",
          "name": "token1Decimals",
          "type": "uint8"
        }
      ],
      "name": "getTWAPPrice",
      "outputs": [
        {
          "internalType": "uint256",
          "name": "",
          "type": "uint256"
        }
      ],
      "stateMutability": "view",
      "type": "function"
    },
    {
      "inputs": [
        {
          "internalType": "address",
          "name": "pair",
          "type": "address"
        }
      ],
      "name": "isTWAPReady",
      "outputs": [
        {
          "internalType": "bool",
          "name": "",
          "type": "bool"
        }
      ],
      "stateMutability": "view",
      "type": "function"
    },
    {
      "inputs": [
        {
          "internalType": "address",
          "name": "pair",
          "type": "address"
        }
      ],
      "name": "needsUpdate",
      "outputs": [
        {
          "internalType": "bool",
          "name": "",
          "type": "bool"
        }
      ],
      "stateMutability": "view",
      "type": "function"
    },
    {
      "inputs": [
        {
          "internalType": "address",
          "name": "",
          "type": "address"
        },
        {
          "internalType": "uint256",
          "name": "",
          "type": "uint256"
        }
      ],
      "name": "pairObservations",
      "outputs": [
        {
          "internalType": "uint32",
          "name": "timestamp",
          "type": "uint32"
        },
        {
          "internalType": "uint256",
          "name": "price0Cumulative",
          "type": "uint256"
        },
        {
          "internalType": "uint256",
          "name": "price1Cumulative",
          "type": "uint256"
        }
      ],
      "stateMutability": "view",
      "type": "function"
    },
    {
      "inputs": [
        {
          "internalType": "address",
          "name": "pair",
          "type": "address"
        }
      ],
      "name": "update",
      "outputs": [],
      "stateMutability": "nonpayable",
      "type": "function"
    },
    {
      "inputs": [
        {
          "internalType": "address",
          "name": "pair",
          "type": "address"
        }
      ],
      "name": "updateIfNeeded",
      "outputs": [
        {
          "internalType": "bool",
          "name": "updated",
          "type": "bool"
        }
      ],
      "stateMutability": "nonpayable",
      "type": "function"
    }
  ],
  "bytecode": "0x6080604052348015600e575f5ffd5b50610cf98061001c5f395ff3fe608060405234801561000f575f5ffd5b5060043610610090575f3560e01c80635508488311610063578063550848831461018e57806364dca9c7146101a1578063b4d1d795146101c2578063b724d010146101cb578063bfcc8e42146101de575f5ffd5b8063023d95291461009457806309d41cb8146100bc578063136a0e33146100cf5780631c1b877214610179575b5f5ffd5b6100a76100a2366004610a38565b610213565b60405190151581526020015b60405180910390f35b6100a76100ca366004610a38565b610282565b6101526100dd366004610a38565b6001600160a01b03165f81815260208181526040808320815160608082018452825463ffffffff90811683526001840154838701526002840154838601529686529484528251948501835260038201549095168085526004820154938501939093526005015492019190915290519182820390565b6040805163ffffffff948516815292841660208401529216918101919091526060016100b3565b61018c610187366004610a38565b61032c565b005b6100a761019c366004610a38565b610472565b6101b46101af366004610a61565b6105d3565b6040519081526020016100b3565b6101b461070881565b6101b46101d9366004610a38565b610673565b6101f16101ec366004610aa1565b6107f7565b6040805163ffffffff90941684526020840192909252908201526060016100b3565b6001600160a01b0381165f908152602081815260408083208151606081018352600382015463ffffffff168082526004830154948201949094526005909101549181019190915290158061027b57508051610277906107089063ffffffff16610add565b4210155b9392505050565b6001600160a01b0381165f81815260208181526040808320815160608082018452825463ffffffff90811683526001840154838701526002840154838601529686528585528351908101845260038301549096168087526004830154948701949094526005909101549185019190915291929015806103065750815163ffffffff16155b1561031457505f9392505050565b9051905161070891900363ffffffff16101592915050565b5f5f5f61033884610830565b6001600160a01b0387165f908152602081905260409020929550909350915060016001600160a01b0386165f9081526020819052604081206003929092029290920191825460039190910291909101805463ffffffff191663ffffffff92831617815560018084015481830155600293840154939091019290925560408051606081018252918416825260208083018790528282018690526001600160a01b0388165f90815290819052209091825160039190910291909101805463ffffffff191663ffffffff92831617815560208084015160018301556040938401516002909201919091558251868152908101859052908316918101919091526001600160a01b038516907f8c65b5cef7be4417296e3570bac50029e7ff1a1f0d68ded2170f9808d5bb02809060600160405180910390a250505050565b5f61047c82610213565b156105cc575f5f5f61048d85610830565b6001600160a01b0388165f908152602081905260409020929550909350915060016001600160a01b0387165f9081526020819052604081206003929092029290920191825460039190910291909101805463ffffffff191663ffffffff92831617815560018084015481830155600293840154939091019290925560408051606081018252918416825260208083018790528282018690526001600160a01b0389165f90815290819052209091825160039190910291909101805463ffffffff191663ffffffff92831617815560208084015160018301556040938401516002909201919091558251868152908101859052908316918101919091526001600160a01b038616907f8c65b5cef7be4417296e3570bac50029e7ff1a1f0d68ded2170f9808d5bb02809060600160405180910390a2506001949350505050565b505f919050565b5f5f6105de85610673565b90505f8360ff168560ff161061062e575f6105f98587610af6565b61060490600a610bf2565b905060706106128285610c00565b61062490670de0b6b3a7640000610c00565b901c91505061066a565b5f6106398686610af6565b61064490600a610bf2565b905080607061065b85670de0b6b3a7640000610c00565b61066692911c610c2b565b9150505b95945050505050565b6001600160a01b0381165f81815260208181526040808320815160608082018452825463ffffffff9081168352600184015483870152600284015483860152968652858552835190810184526003830154909616808752600483015494870194909452600590910154918501919091529192906107295760405162461bcd60e51b815260206004820152600f60248201526e4e6f206f62736572766174696f6e7360881b60448201526064015b60405180910390fd5b815163ffffffff166107755760405162461bcd60e51b81526020600482015260156024820152744e6565642074776f206f62736572766174696f6e7360581b6044820152606401610720565b815181510361070863ffffffff821610156107d25760405162461bcd60e51b815260206004820152601c60248201527f4f62736572766174696f6e20706572696f6420746f6f2073686f7274000000006044820152606401610720565b60208084015190830151036107ed63ffffffff831682610c2b565b9695505050505050565b5f602052815f5260405f20816002811061080f575f80fd5b600302018054600182015460029092015463ffffffff909116935090915083565b5f5f5f429050836001600160a01b0316635909c0d56040518163ffffffff1660e01b8152600401602060405180830381865afa158015610872573d5f5f3e3d5ffd5b505050506040513d601f19601f820116820180604052508101906108969190610c4a565b9250836001600160a01b0316635a3d54936040518163ffffffff1660e01b8152600401602060405180830381865afa1580156108d4573d5f5f3e3d5ffd5b505050506040513d601f19601f820116820180604052508101906108f89190610c4a565b91505f5f5f866001600160a01b0316630902f1ac6040518163ffffffff1660e01b8152600401606060405180830381865afa158015610939573d5f5f3e3d5ffd5b505050506040513d601f19601f8201168201806040525081019061095d9190610c77565b9250925092508363ffffffff168163ffffffff161415801561098757506001600160701b03831615155b801561099b57506001600160701b03821615155b15610a135780840363ffffffff81166001600160701b0385166dffffffffffffffffffffffffffff60701b607086901b16816109d9576109d9610c17565b0402870196508063ffffffff16836001600160701b03166070866001600160701b0316901b81610a0b57610a0b610c17565b040286019550505b5050509193909250565b80356001600160a01b0381168114610a33575f5ffd5b919050565b5f60208284031215610a48575f5ffd5b61027b82610a1d565b803560ff81168114610a33575f5ffd5b5f5f5f60608486031215610a73575f5ffd5b610a7c84610a1d565b9250610a8a60208501610a51565b9150610a9860408501610a51565b90509250925092565b5f5f60408385031215610ab2575f5ffd5b610abb83610a1d565b946020939093013593505050565b634e487b7160e01b5f52601160045260245ffd5b80820180821115610af057610af0610ac9565b92915050565b60ff8281168282160390811115610af057610af0610ac9565b6001815b6001841115610b4a57808504811115610b2e57610b2e610ac9565b6001841615610b3c57908102905b60019390931c928002610b13565b935093915050565b5f82610b6057506001610af0565b81610b6c57505f610af0565b8160018114610b825760028114610b8c57610ba8565b6001915050610af0565b60ff841115610b9d57610b9d610ac9565b50506001821b610af0565b5060208310610133831016604e8410600b8410161715610bcb575081810a610af0565b610bd75f198484610b0f565b805f1904821115610bea57610bea610ac9565b029392505050565b5f61027b60ff841683610b52565b8082028115828204841417610af057610af0610ac9565b634e487b7160e01b5f52601260045260245ffd5b5f82610c4557634e487b7160e01b5f52601260045260245ffd5b500490565b5f60208284031215610c5a575f5ffd5b5051919050565b80516001600160701b0381168114610a33575f5ffd5b5f5f5f60608486031215610c89575f5ffd5b610c9284610c61565b9250610ca060208501610c61565b9150604084015163ffffffff81168114610cb8575f5ffd5b80915050925092509256fea2646970667358221220a52f3fccd0f10f0385179c68b820d84e8ee722129f84297b419ec435d5a8b06164736f6c634300081e0033",
  "linkReferences": {},
  "deployedLinkReferences": {},
  "immutableReferences": {},
  "inputSourceName": "project/contracts/UniswapV2TWAPOracle.sol",
  "buildInfoId": "solc-0_8_30-0db1de6dc8639ec6d8cff3643a8f9eed17f646f6"
}