{
  "_format": "hh3-artifact-1",
  "contractName": "Treasury",
  "sourceName": "contracts/Treasury.sol",
  "abi": [
    {
      "inputs": [
        {
          "internalType": "address",
          "name": "initialOwner",
          "type": "address"
        },
        {
          "internalType": "address",
          "name": "_core",
          "type": "address"
        },
        {
          "internalType": "address",
          "name": "routerAddr",
          "type": "address"
        }
      ],
      "stateMutability": "nonpayable",
      "type": "constructor"
    },
    {
      "inputs": [
        {
          "internalType": "address",
          "name": "owner",
          "type": "address"
        }
      ],
      "name": "OwnableInvalidOwner",
      "type": "error"
    },
    {
      "inputs": [
        {
          "internalType": "address",
          "name": "account",
          "type": "address"
        }
      ],
      "name": "OwnableUnauthorizedAccount",
      "type": "error"
    },
    {
      "inputs": [],
      "name": "ReentrancyGuardReentrantCall",
      "type": "error"
    },
    {
      "inputs": [
        {
          "internalType": "address",
          "name": "token",
          "type": "address"
        }
      ],
      "name": "SafeERC20FailedOperation",
      "type": "error"
    },
    {
      "anonymous": false,
      "inputs": [
        {
          "indexed": false,
          "internalType": "uint256",
          "name": "btdAmount",
          "type": "uint256"
        },
        {
          "indexed": false,
          "internalType": "uint256",
          "name": "brsReceived",
          "type": "uint256"
        }
      ],
      "name": "BRSBuyback",
      "type": "event"
    },
    {
      "anonymous": false,
      "inputs": [
        {
          "indexed": true,
          "internalType": "address",
          "name": "to",
          "type": "address"
        },
        {
          "indexed": false,
          "internalType": "uint256",
          "name": "amount",
          "type": "uint256"
        }
      ],
      "name": "BRSCompensated",
      "type": "event"
    },
    {
      "anonymous": false,
      "inputs": [
        {
          "indexed": true,
          "internalType": "address",
          "name": "previousOwner",
          "type": "address"
        },
        {
          "indexed": true,
          "internalType": "address",
          "name": "newOwner",
          "type": "address"
        }
      ],
      "name": "OwnershipTransferred",
      "type": "event"
    },
    {
      "anonymous": false,
      "inputs": [
        {
          "indexed": true,
          "internalType": "address",
          "name": "oldRouter",
          "type": "address"
        },
        {
          "indexed": true,
          "internalType": "address",
          "name": "newRouter",
          "type": "address"
        }
      ],
      "name": "RouterUpdated",
      "type": "event"
    },
    {
      "anonymous": false,
      "inputs": [
        {
          "indexed": true,
          "internalType": "address",
          "name": "from",
          "type": "address"
        },
        {
          "indexed": false,
          "internalType": "uint256",
          "name": "amount",
          "type": "uint256"
        }
      ],
      "name": "WBTCDeposited",
      "type": "event"
    },
    {
      "anonymous": false,
      "inputs": [
        {
          "indexed": true,
          "internalType": "address",
          "name": "to",
          "type": "address"
        },
        {
          "indexed": false,
          "internalType": "uint256",
          "name": "amount",
          "type": "uint256"
        }
      ],
      "name": "WBTCWithdrawn",
      "type": "event"
    },
    {
      "inputs": [
        {
          "internalType": "uint256",
          "name": "btdAmount",
          "type": "uint256"
        },
        {
          "internalType": "uint256",
          "name": "minBRSOut",
          "type": "uint256"
        }
      ],
      "name": "buybackBRS",
      "outputs": [],
      "stateMutability": "nonpayable",
      "type": "function"
    },
    {
      "inputs": [
        {
          "internalType": "address",
          "name": "to",
          "type": "address"
        },
        {
          "internalType": "uint256",
          "name": "amt",
          "type": "uint256"
        }
      ],
      "name": "compensate",
      "outputs": [],
      "stateMutability": "nonpayable",
      "type": "function"
    },
    {
      "inputs": [],
      "name": "configCore",
      "outputs": [
        {
          "internalType": "address",
          "name": "",
          "type": "address"
        }
      ],
      "stateMutability": "view",
      "type": "function"
    },
    {
      "inputs": [],
      "name": "core",
      "outputs": [
        {
          "internalType": "contract ConfigCore",
          "name": "",
          "type": "address"
        }
      ],
      "stateMutability": "view",
      "type": "function"
    },
    {
      "inputs": [
        {
          "internalType": "uint256",
          "name": "amt",
          "type": "uint256"
        }
      ],
      "name": "depositWBTC",
      "outputs": [],
      "stateMutability": "nonpayable",
      "type": "function"
    },
    {
      "inputs": [],
      "name": "getBalances",
      "outputs": [
        {
          "internalType": "uint256",
          "name": "wbtcBalance",
          "type": "uint256"
        },
        {
          "internalType": "uint256",
          "name": "brsBalance",
          "type": "uint256"
        },
        {
          "internalType": "uint256",
          "name": "btdBalance",
          "type": "uint256"
        }
      ],
      "stateMutability": "view",
      "type": "function"
    },
    {
      "inputs": [],
      "name": "owner",
      "outputs": [
        {
          "internalType": "address",
          "name": "",
          "type": "address"
        }
      ],
      "stateMutability": "view",
      "type": "function"
    },
    {
      "inputs": [],
      "name": "renounceOwnership",
      "outputs": [],
      "stateMutability": "nonpayable",
      "type": "function"
    },
    {
      "inputs": [],
      "name": "router",
      "outputs": [
        {
          "internalType": "address",
          "name": "",
          "type": "address"
        }
      ],
      "stateMutability": "view",
      "type": "function"
    },
    {
      "inputs": [
        {
          "internalType": "address",
          "name": "newRouter",
          "type": "address"
        }
      ],
      "name": "setRouter",
      "outputs": [],
      "stateMutability": "nonpayable",
      "type": "function"
    },
    {
      "inputs": [
        {
          "internalType": "address",
          "name": "newOwner",
          "type": "address"
        }
      ],
      "name": "transferOwnership",
      "outputs": [],
      "stateMutability": "nonpayable",
      "type": "function"
    },
    {
      "inputs": [
        {
          "internalType": "uint256",
          "name": "amt",
          "type": "uint256"
        }
      ],
      "name": "withdrawWBTC",
      "outputs": [],
      "stateMutability": "nonpayable",
      "type": "function"
    }
  ],
  "bytecode": "0x60a060405234801561000f575f5ffd5b5060405161197c38038061197c83398101604081905261002e91610200565b826001600160a01b03811661005d57604051631e4fbdf760e01b81525f60048201526024015b60405180910390fd5b61006681610196565b50600180556001600160a01b0383166100c15760405162461bcd60e51b815260206004820152601760248201527f54726561737572793a20696e76616c6964206f776e65720000000000000000006044820152606401610054565b6001600160a01b0382166101175760405162461bcd60e51b815260206004820152601660248201527f54726561737572793a20696e76616c696420636f7265000000000000000000006044820152606401610054565b6001600160a01b03811661016d5760405162461bcd60e51b815260206004820152601860248201527f54726561737572793a20696e76616c696420726f7574657200000000000000006044820152606401610054565b6001600160a01b03918216608052600280546001600160a01b0319169190921617905550610240565b5f80546001600160a01b038381166001600160a01b0319831681178455604051919092169283917f8be0079c531659141344cd1fd0a4f28419497f9722a3daafe3b4186f6b6457e09190a35050565b80516001600160a01b03811681146101fb575f5ffd5b919050565b5f5f5f60608486031215610212575f5ffd5b61021b846101e5565b9250610229602085016101e5565b9150610237604085016101e5565b90509250925092565b6080516116e66102965f395f818160dd015281816101930152818161033b015281816105a30152818161072201528181610c1501528181610cc701528181611020015281816110a6015261110301526116e65ff3fe608060405234801561000f575f5ffd5b50600436106100af575f3560e01c80638da5cb5b1161006e5780638da5cb5b14610158578063b6b4a46d14610168578063c0d786551461017b578063f2f4eb261461018e578063f2fde38b146101b5578063f887ea40146101c8575f5ffd5b8062113e08146100b357806285ffc8146100db57806320ce0c8c14610115578063715018a61461012a578063737ec20f146101325780638a1bd7c014610145575b5f5ffd5b6100bb6101db565b604080519384526020840192909252908201526060015b60405180910390f35b7f00000000000000000000000000000000000000000000000000000000000000005b6040516001600160a01b0390911681526020016100d2565b6101286101233660046113e7565b610339565b005b61012861058e565b6101286101403660046113e7565b6105a1565b610128610153366004611412565b610720565b5f546001600160a01b03166100fd565b61012861017636600461143c565b610995565b61012861018936600461145c565b610f34565b6100fd7f000000000000000000000000000000000000000000000000000000000000000081565b6101286101c336600461145c565b610fe3565b6002546100fd906001600160a01b031681565b5f5f5f6101e661101d565b6040516370a0823160e01b81523060048201526001600160a01b0391909116906370a0823190602401602060405180830381865afa15801561022a573d5f5f3e3d5ffd5b505050506040513d601f19601f8201168201806040525081019061024e919061147e565b92506102586110a3565b6040516370a0823160e01b81523060048201526001600160a01b0391909116906370a0823190602401602060405180830381865afa15801561029c573d5f5f3e3d5ffd5b505050506040513d601f19601f820116820180604052508101906102c0919061147e565b91506102ca611100565b6040516370a0823160e01b81523060048201526001600160a01b0391909116906370a0823190602401602060405180830381865afa15801561030e573d5f5f3e3d5ffd5b505050506040513d601f19601f82011682018060405250810190610332919061147e565b9050909192565b7f00000000000000000000000000000000000000000000000000000000000000006001600160a01b031663fe6d81246040518163ffffffff1660e01b8152600401602060405180830381865afa158015610395573d5f5f3e3d5ffd5b505050506040513d601f19601f820116820180604052508101906103b99190611495565b6001600160a01b0316336001600160a01b0316146103f25760405162461bcd60e51b81526004016103e9906114b0565b60405180910390fd5b6103fa61115d565b600181101561041b5760405162461bcd60e51b81526004016103e9906114df565b64e8d4a510008111156104705760405162461bcd60e51b815260206004820152601a60248201527f54726561737572793a2065786365656473206d6178205742544300000000000060448201526064016103e9565b8061047961101d565b6040516370a0823160e01b81523060048201526001600160a01b0391909116906370a0823190602401602060405180830381865afa1580156104bd573d5f5f3e3d5ffd5b505050506040513d601f19601f820116820180604052508101906104e1919061147e565b101561052f5760405162461bcd60e51b815260206004820152601b60248201527f54726561737572793a20696e73756666696369656e742057425443000000000060448201526064016103e9565b61054c338261053c61101d565b6001600160a01b03169190611187565b60405181815233907f932acef96c5a9b9fc3e9f7f370b2a990427948796975a8f8551ec461e0024469906020015b60405180910390a261058b60018055565b50565b6105966111eb565b61059f5f611217565b565b7f00000000000000000000000000000000000000000000000000000000000000006001600160a01b031663fe6d81246040518163ffffffff1660e01b8152600401602060405180830381865afa1580156105fd573d5f5f3e3d5ffd5b505050506040513d601f19601f820116820180604052508101906106219190611495565b6001600160a01b0316336001600160a01b0316146106515760405162461bcd60e51b81526004016103e9906114b0565b61065961115d565b600181101561067a5760405162461bcd60e51b81526004016103e9906114df565b64e8d4a510008111156106cf5760405162461bcd60e51b815260206004820152601a60248201527f54726561737572793a2065786365656473206d6178205742544300000000000060448201526064016103e9565b6106ee3330836106dd61101d565b6001600160a01b0316929190611266565b60405181815233907f70643c3965cf5651f0e637bfa8f51f484f21af206691d8ac833d3ab2439f62d79060200161057a565b7f00000000000000000000000000000000000000000000000000000000000000006001600160a01b031663fe6d81246040518163ffffffff1660e01b8152600401602060405180830381865afa15801561077c573d5f5f3e3d5ffd5b505050506040513d601f19601f820116820180604052508101906107a09190611495565b6001600160a01b0316336001600160a01b0316146107d05760405162461bcd60e51b81526004016103e9906114b0565b6107d861115d565b6001600160a01b0382166108275760405162461bcd60e51b815260206004820152601660248201527554726561737572793a207a65726f206164647265737360501b60448201526064016103e9565b66038d7ea4c6800081101561084e5760405162461bcd60e51b81526004016103e9906114df565b6b033b2e3c9fd0803ce80000008111156108aa5760405162461bcd60e51b815260206004820152601960248201527f54726561737572793a2065786365656473206d6178204252530000000000000060448201526064016103e9565b5f6108b36110a3565b6040516370a0823160e01b81523060048201526001600160a01b0391909116906370a0823190602401602060405180830381865afa1580156108f7573d5f5f3e3d5ffd5b505050506040513d601f19601f8201168201806040525081019061091b919061147e565b90505f81831161092b578261092d565b815b9050801561098657610942848261053c6110a3565b836001600160a01b03167fbe65a9a39e5339c6267dd0bba7ad1ed6463705b569a8559a2b055ea09fc1add78260405161097d91815260200190565b60405180910390a25b505061099160018055565b5050565b61099d6111eb565b6109a561115d565b66038d7ea4c680008210156109fc5760405162461bcd60e51b815260206004820152601e60248201527f54726561737572793a2042544420616d6f756e7420746f6f20736d616c6c000060448201526064016103e9565b6b033b2e3c9fd0803ce8000000821115610a585760405162461bcd60e51b815260206004820152601e60248201527f54726561737572793a2042544420616d6f756e7420746f6f206c61726765000060448201526064016103e9565b66038d7ea4c68000811015610aaf5760405162461bcd60e51b815260206004820152601d60248201527f54726561737572793a206d696e4252534f757420746f6f20736d616c6c00000060448201526064016103e9565b6b033b2e3c9fd0803ce8000000811115610b0b5760405162461bcd60e51b815260206004820152601d60248201527f54726561737572793a206d696e4252534f757420746f6f206c6172676500000060448201526064016103e9565b81610b14611100565b6040516370a0823160e01b81523060048201526001600160a01b0391909116906370a0823190602401602060405180830381865afa158015610b58573d5f5f3e3d5ffd5b505050506040513d601f19601f82011682018060405250810190610b7c919061147e565b1015610bca5760405162461bcd60e51b815260206004820152601a60248201527f54726561737572793a20696e73756666696369656e742042544400000000000060448201526064016103e9565b600254610bf3906001600160a01b031683610be3611100565b6001600160a01b031691906112a5565b6040805160028082526060820183525f926020830190803683370190505090507f00000000000000000000000000000000000000000000000000000000000000006001600160a01b031663457404776040518163ffffffff1660e01b8152600401602060405180830381865afa158015610c6f573d5f5f3e3d5ffd5b505050506040513d601f19601f82011682018060405250810190610c939190611495565b815f81518110610ca557610ca561152a565b60200260200101906001600160a01b031690816001600160a01b0316815250507f00000000000000000000000000000000000000000000000000000000000000006001600160a01b03166316a3d9fd6040518163ffffffff1660e01b8152600401602060405180830381865afa158015610d21573d5f5f3e3d5ffd5b505050506040513d601f19601f82011682018060405250810190610d459190611495565b81600181518110610d5857610d5861152a565b60200260200101906001600160a01b031690816001600160a01b0316815250505f610d816110a3565b6040516370a0823160e01b81523060048201526001600160a01b0391909116906370a0823190602401602060405180830381865afa158015610dc5573d5f5f3e3d5ffd5b505050506040513d601f19601f82011682018060405250810190610de9919061147e565b6002549091506001600160a01b03166338ed173985858530610e0d42610258611552565b6040518663ffffffff1660e01b8152600401610e2d959493929190611565565b5f604051808303815f875af1158015610e48573d5f5f3e3d5ffd5b505050506040513d5f823e601f3d908101601f19168201604052610e6f91908101906115d5565b505f81610e7a6110a3565b6040516370a0823160e01b81523060048201526001600160a01b0391909116906370a0823190602401602060405180830381865afa158015610ebe573d5f5f3e3d5ffd5b505050506040513d601f19601f82011682018060405250810190610ee2919061147e565b610eec919061169d565b60408051878152602081018390529192507f46c88d5127a845c1c5bf6671a03328e4b47802a42fe851fc14ef4ea464d3214c910160405180910390a150505061099160018055565b610f3c6111eb565b6001600160a01b038116610f925760405162461bcd60e51b815260206004820152601860248201527f54726561737572793a20696e76616c696420726f75746572000000000000000060448201526064016103e9565b600280546001600160a01b038381166001600160a01b0319831681179093556040519116919082907f02dc5c233404867c793b749c6d644beb2277536d18a7e7974d3f238e4c6f1684905f90a35050565b610feb6111eb565b6001600160a01b03811661101457604051631e4fbdf760e01b81525f60048201526024016103e9565b61058b81611217565b5f7f00000000000000000000000000000000000000000000000000000000000000006001600160a01b0316634dede3de6040518163ffffffff1660e01b8152600401602060405180830381865afa15801561107a573d5f5f3e3d5ffd5b505050506040513d601f19601f8201168201806040525081019061109e9190611495565b905090565b5f7f00000000000000000000000000000000000000000000000000000000000000006001600160a01b03166316a3d9fd6040518163ffffffff1660e01b8152600401602060405180830381865afa15801561107a573d5f5f3e3d5ffd5b5f7f00000000000000000000000000000000000000000000000000000000000000006001600160a01b031663457404776040518163ffffffff1660e01b8152600401602060405180830381865afa15801561107a573d5f5f3e3d5ffd5b60026001540361118057604051633ee5aeb560e01b815260040160405180910390fd5b6002600155565b6040516001600160a01b038381166024830152604482018390526111e691859182169063a9059cbb906064015b604051602081830303815290604052915060e01b6020820180516001600160e01b038381831617835250505050611330565b505050565b5f546001600160a01b0316331461059f5760405163118cdaa760e01b81523360048201526024016103e9565b5f80546001600160a01b038381166001600160a01b0319831681178455604051919092169283917f8be0079c531659141344cd1fd0a4f28419497f9722a3daafe3b4186f6b6457e09190a35050565b6040516001600160a01b03848116602483015283811660448301526064820183905261129f9186918216906323b872dd906084016111b4565b50505050565b604080516001600160a01b038416602482015260448082018490528251808303909101815260649091019091526020810180516001600160e01b031663095ea7b360e01b1790526112f6848261139c565b61129f576040516001600160a01b0384811660248301525f604483015261132a91869182169063095ea7b3906064016111b4565b61129f84825b5f5f60205f8451602086015f885af18061134f576040513d5f823e3d81fd5b50505f513d91508115611366578060011415611373565b6001600160a01b0384163b155b1561129f57604051635274afe760e01b81526001600160a01b03851660048201526024016103e9565b5f5f5f5f60205f8651602088015f8a5af192503d91505f5190508280156113db575081156113cd57806001146113db565b5f866001600160a01b03163b115b93505050505b92915050565b5f602082840312156113f7575f5ffd5b5035919050565b6001600160a01b038116811461058b575f5ffd5b5f5f60408385031215611423575f5ffd5b823561142e816113fe565b946020939093013593505050565b5f5f6040838503121561144d575f5ffd5b50508035926020909101359150565b5f6020828403121561146c575f5ffd5b8135611477816113fe565b9392505050565b5f6020828403121561148e575f5ffd5b5051919050565b5f602082840312156114a5575f5ffd5b8151611477816113fe565b6020808252601590820152742a3932b0b9bab93c9d1037b7363c9026b4b73a32b960591b604082015260600190565b6020808252601a908201527f54726561737572793a20616d6f756e7420746f6f20736d616c6c000000000000604082015260600190565b634e487b7160e01b5f52604160045260245ffd5b634e487b7160e01b5f52603260045260245ffd5b634e487b7160e01b5f52601160045260245ffd5b808201808211156113e1576113e161153e565b5f60a0820187835286602084015260a0604084015280865180835260c0850191506020880192505f5b818110156115b55783516001600160a01b031683526020938401939092019160010161158e565b50506001600160a01b039590951660608401525050608001529392505050565b5f602082840312156115e5575f5ffd5b815167ffffffffffffffff8111156115fb575f5ffd5b8201601f8101841361160b575f5ffd5b805167ffffffffffffffff81111561162557611625611516565b8060051b604051601f19603f830116810181811067ffffffffffffffff8211171561165257611652611516565b60405291825260208184018101929081018784111561166f575f5ffd5b6020850194505b8385101561169257845180825260209586019590935001611676565b509695505050505050565b818103818111156113e1576113e161153e56fea26469706673582212209be6a195d236aba85879d0a859261c4097e00bb48349b165ed31f3275dd50dc664736f6c634300081e0033",
  "linkReferences": {},
  "deployedLinkReferences": {},
  "immutableReferences": {
    "1470": [
      {
        "length": 32,
        "start": 221
      },
      {
        "length": 32,
        "start": 403
      },
      {
        "length": 32,
        "start": 827
      },
      {
        "length": 32,
        "start": 1443
      },
      {
        "length": 32,
        "start": 1826
      },
      {
        "length": 32,
        "start": 3093
      },
      {
        "length": 32,
        "start": 3271
      },
      {
        "length": 32,
        "start": 4128
      },
      {
        "length": 32,
        "start": 4262
      },
      {
        "length": 32,
        "start": 4355
      }
    ]
  },
  "inputSourceName": "project/contracts/Treasury.sol",
  "buildInfoId": "solc-0_8_30-ead8c1463bca623b29f7b06c70ff5fc6b9f7618f"
}