{
  "_format": "hh3-artifact-1",
  "contractName": "InterestPool",
  "sourceName": "contracts/InterestPool.sol",
  "abi": [
    {
      "inputs": [
        {
          "internalType": "address",
          "name": "initialOwner",
          "type": "address"
        },
        {
          "internalType": "address",
          "name": "_core",
          "type": "address"
        },
        {
          "internalType": "address",
          "name": "_gov",
          "type": "address"
        },
        {
          "internalType": "address",
          "name": "_rateOracle",
          "type": "address"
        }
      ],
      "stateMutability": "nonpayable",
      "type": "constructor"
    },
    {
      "inputs": [
        {
          "internalType": "address",
          "name": "owner",
          "type": "address"
        }
      ],
      "name": "OwnableInvalidOwner",
      "type": "error"
    },
    {
      "inputs": [
        {
          "internalType": "address",
          "name": "account",
          "type": "address"
        }
      ],
      "name": "OwnableUnauthorizedAccount",
      "type": "error"
    },
    {
      "inputs": [],
      "name": "ReentrancyGuardReentrantCall",
      "type": "error"
    },
    {
      "inputs": [
        {
          "internalType": "address",
          "name": "token",
          "type": "address"
        }
      ],
      "name": "SafeERC20FailedOperation",
      "type": "error"
    },
    {
      "anonymous": false,
      "inputs": [
        {
          "indexed": false,
          "internalType": "uint256",
          "name": "oldRateBps",
          "type": "uint256"
        },
        {
          "indexed": false,
          "internalType": "uint256",
          "name": "newRateBps",
          "type": "uint256"
        },
        {
          "indexed": false,
          "internalType": "uint256",
          "name": "price",
          "type": "uint256"
        },
        {
          "indexed": false,
          "internalType": "int256",
          "name": "dailyChangeBps",
          "type": "int256"
        }
      ],
      "name": "BTBAnnualRateUpdated",
      "type": "event"
    },
    {
      "anonymous": false,
      "inputs": [
        {
          "indexed": false,
          "internalType": "uint256",
          "name": "oldRateBps",
          "type": "uint256"
        },
        {
          "indexed": false,
          "internalType": "uint256",
          "name": "newRateBps",
          "type": "uint256"
        }
      ],
      "name": "BTDAnnualRateUpdated",
      "type": "event"
    },
    {
      "anonymous": false,
      "inputs": [
        {
          "indexed": true,
          "internalType": "address",
          "name": "user",
          "type": "address"
        },
        {
          "indexed": true,
          "internalType": "address",
          "name": "token",
          "type": "address"
        },
        {
          "indexed": false,
          "internalType": "uint256",
          "name": "amount",
          "type": "uint256"
        }
      ],
      "name": "InterestClaimed",
      "type": "event"
    },
    {
      "anonymous": false,
      "inputs": [
        {
          "indexed": true,
          "internalType": "address",
          "name": "previousOwner",
          "type": "address"
        },
        {
          "indexed": true,
          "internalType": "address",
          "name": "newOwner",
          "type": "address"
        }
      ],
      "name": "OwnershipTransferred",
      "type": "event"
    },
    {
      "anonymous": false,
      "inputs": [
        {
          "indexed": true,
          "internalType": "address",
          "name": "newOracle",
          "type": "address"
        }
      ],
      "name": "RateOracleUpdated",
      "type": "event"
    },
    {
      "anonymous": false,
      "inputs": [
        {
          "indexed": true,
          "internalType": "address",
          "name": "user",
          "type": "address"
        },
        {
          "indexed": true,
          "internalType": "address",
          "name": "token",
          "type": "address"
        },
        {
          "indexed": false,
          "internalType": "uint256",
          "name": "amount",
          "type": "uint256"
        }
      ],
      "name": "Staked",
      "type": "event"
    },
    {
      "anonymous": false,
      "inputs": [
        {
          "indexed": true,
          "internalType": "address",
          "name": "token",
          "type": "address"
        },
        {
          "indexed": false,
          "internalType": "uint256",
          "name": "amount",
          "type": "uint256"
        }
      ],
      "name": "TreasuryFeeMinted",
      "type": "event"
    },
    {
      "anonymous": false,
      "inputs": [
        {
          "indexed": true,
          "internalType": "address",
          "name": "user",
          "type": "address"
        },
        {
          "indexed": true,
          "internalType": "address",
          "name": "token",
          "type": "address"
        },
        {
          "indexed": false,
          "internalType": "uint256",
          "name": "amount",
          "type": "uint256"
        }
      ],
      "name": "Withdrawn",
      "type": "event"
    },
    {
      "inputs": [],
      "name": "btbLastPrice",
      "outputs": [
        {
          "internalType": "uint256",
          "name": "",
          "type": "uint256"
        }
      ],
      "stateMutability": "view",
      "type": "function"
    },
    {
      "inputs": [],
      "name": "btbLastRateUpdate",
      "outputs": [
        {
          "internalType": "uint256",
          "name": "",
          "type": "uint256"
        }
      ],
      "stateMutability": "view",
      "type": "function"
    },
    {
      "inputs": [],
      "name": "btbPool",
      "outputs": [
        {
          "internalType": "contract IMintableERC20",
          "name": "token",
          "type": "address"
        },
        {
          "internalType": "uint256",
          "name": "totalStaked",
          "type": "uint256"
        },
        {
          "internalType": "uint256",
          "name": "accInterestPerShare",
          "type": "uint256"
        },
        {
          "internalType": "uint256",
          "name": "lastAccrual",
          "type": "uint256"
        },
        {
          "internalType": "uint256",
          "name": "annualRateBps",
          "type": "uint256"
        }
      ],
      "stateMutability": "view",
      "type": "function"
    },
    {
      "inputs": [],
      "name": "btdLastPrice",
      "outputs": [
        {
          "internalType": "uint256",
          "name": "",
          "type": "uint256"
        }
      ],
      "stateMutability": "view",
      "type": "function"
    },
    {
      "inputs": [],
      "name": "btdLastRateUpdate",
      "outputs": [
        {
          "internalType": "uint256",
          "name": "",
          "type": "uint256"
        }
      ],
      "stateMutability": "view",
      "type": "function"
    },
    {
      "inputs": [],
      "name": "btdPool",
      "outputs": [
        {
          "internalType": "contract IMintableERC20",
          "name": "token",
          "type": "address"
        },
        {
          "internalType": "uint256",
          "name": "totalStaked",
          "type": "uint256"
        },
        {
          "internalType": "uint256",
          "name": "accInterestPerShare",
          "type": "uint256"
        },
        {
          "internalType": "uint256",
          "name": "lastAccrual",
          "type": "uint256"
        },
        {
          "internalType": "uint256",
          "name": "annualRateBps",
          "type": "uint256"
        }
      ],
      "stateMutability": "view",
      "type": "function"
    },
    {
      "inputs": [],
      "name": "core",
      "outputs": [
        {
          "internalType": "contract ConfigCore",
          "name": "",
          "type": "address"
        }
      ],
      "stateMutability": "view",
      "type": "function"
    },
    {
      "inputs": [],
      "name": "getBTBPrice",
      "outputs": [
        {
          "internalType": "uint256",
          "name": "",
          "type": "uint256"
        }
      ],
      "stateMutability": "view",
      "type": "function"
    },
    {
      "inputs": [],
      "name": "gov",
      "outputs": [
        {
          "internalType": "contract ConfigGov",
          "name": "",
          "type": "address"
        }
      ],
      "stateMutability": "view",
      "type": "function"
    },
    {
      "inputs": [],
      "name": "owner",
      "outputs": [
        {
          "internalType": "address",
          "name": "",
          "type": "address"
        }
      ],
      "stateMutability": "view",
      "type": "function"
    },
    {
      "inputs": [],
      "name": "rateOracle",
      "outputs": [
        {
          "internalType": "address",
          "name": "",
          "type": "address"
        }
      ],
      "stateMutability": "view",
      "type": "function"
    },
    {
      "inputs": [],
      "name": "renounceOwnership",
      "outputs": [],
      "stateMutability": "nonpayable",
      "type": "function"
    },
    {
      "inputs": [
        {
          "internalType": "address",
          "name": "newOracle",
          "type": "address"
        }
      ],
      "name": "setRateOracle",
      "outputs": [],
      "stateMutability": "nonpayable",
      "type": "function"
    },
    {
      "inputs": [
        {
          "internalType": "uint256",
          "name": "amount",
          "type": "uint256"
        }
      ],
      "name": "stakeBTB",
      "outputs": [],
      "stateMutability": "nonpayable",
      "type": "function"
    },
    {
      "inputs": [
        {
          "internalType": "uint256",
          "name": "amount",
          "type": "uint256"
        }
      ],
      "name": "stakeBTD",
      "outputs": [],
      "stateMutability": "nonpayable",
      "type": "function"
    },
    {
      "inputs": [
        {
          "internalType": "address",
          "name": "token",
          "type": "address"
        }
      ],
      "name": "totalStaked",
      "outputs": [
        {
          "internalType": "uint256",
          "name": "",
          "type": "uint256"
        }
      ],
      "stateMutability": "view",
      "type": "function"
    },
    {
      "inputs": [
        {
          "internalType": "address",
          "name": "newOwner",
          "type": "address"
        }
      ],
      "name": "transferOwnership",
      "outputs": [],
      "stateMutability": "nonpayable",
      "type": "function"
    },
    {
      "inputs": [
        {
          "internalType": "uint256",
          "name": "amount",
          "type": "uint256"
        }
      ],
      "name": "unstakeBTB",
      "outputs": [],
      "stateMutability": "nonpayable",
      "type": "function"
    },
    {
      "inputs": [
        {
          "internalType": "uint256",
          "name": "amount",
          "type": "uint256"
        }
      ],
      "name": "unstakeBTD",
      "outputs": [],
      "stateMutability": "nonpayable",
      "type": "function"
    },
    {
      "inputs": [],
      "name": "updateBTBAnnualRate",
      "outputs": [],
      "stateMutability": "nonpayable",
      "type": "function"
    },
    {
      "inputs": [],
      "name": "updateBTDAnnualRate",
      "outputs": [],
      "stateMutability": "nonpayable",
      "type": "function"
    },
    {
      "inputs": [
        {
          "internalType": "address",
          "name": "newGov",
          "type": "address"
        }
      ],
      "name": "upgradeGov",
      "outputs": [],
      "stateMutability": "nonpayable",
      "type": "function"
    },
    {
      "inputs": [
        {
          "internalType": "address",
          "name": "token",
          "type": "address"
        },
        {
          "internalType": "address",
          "name": "user",
          "type": "address"
        }
      ],
      "name": "userStaked",
      "outputs": [
        {
          "internalType": "uint256",
          "name": "",
          "type": "uint256"
        }
      ],
      "stateMutability": "view",
      "type": "function"
    }
  ],
  "bytecode": "0x60a060405234801561000f575f5ffd5b506040516121dd3803806121dd83398101604081905261002e916103e7565b836001600160a01b03811661005d57604051631e4fbdf760e01b81525f60048201526024015b60405180910390fd5b6100668161037d565b50600180556001600160a01b0384166100c15760405162461bcd60e51b815260206004820152601b60248201527f496e746572657374506f6f6c3a20696e76616c6964206f776e657200000000006044820152606401610054565b6001600160a01b0383166101175760405162461bcd60e51b815260206004820152601760248201527f496e746572657374506f6f6c3a20636f7265207a65726f0000000000000000006044820152606401610054565b6001600160a01b03821661016d5760405162461bcd60e51b815260206004820152601660248201527f496e746572657374506f6f6c3a20676f76207a65726f000000000000000000006044820152606401610054565b6001600160a01b038381166080819052600280546001600160a01b0319169285169290921790915560408051634574047760e01b815290515f929163457404779160048083019260209291908290030181865afa1580156101d0573d5f5f3e3d5ffd5b505050506040513d601f19601f820116820180604052508101906101f49190610438565b90505f6080516001600160a01b03166346caf5e86040518163ffffffff1660e01b8152600401602060405180830381865afa158015610235573d5f5f3e3d5ffd5b505050506040513d601f19601f820116820180604052508101906102599190610438565b90506001600160a01b0382161580159061027b57506001600160a01b03811615155b6102c75760405162461bcd60e51b815260206004820152601760248201527f546f6b656e20616464726573736573206e6f74207365740000000000000000006044820152606401610054565b6040805160a080820183526001600160a01b039485168083525f60208085018290528486018290524260608087018290526101906080978801819052600480546001600160a01b031990811690971790556005859055600685905560078390556008819055885196870189529890991680865291850183905295840182905296830185905291909201849052600980549092169094179055600a839055600b92909255600c91909155600d555061045892505050565b5f80546001600160a01b038381166001600160a01b0319831681178455604051919092169283917f8be0079c531659141344cd1fd0a4f28419497f9722a3daafe3b4186f6b6457e09190a35050565b80516001600160a01b03811681146103e2575f5ffd5b919050565b5f5f5f5f608085870312156103fa575f5ffd5b610403856103cc565b9350610411602086016103cc565b925061041f604086016103cc565b915061042d606086016103cc565b905092959194509250565b5f60208284031215610448575f5ffd5b610451826103cc565b9392505050565b608051611d586104855f395f81816102f5015281816112910152818161153e01526117540152611d585ff3fe608060405234801561000f575f5ffd5b5060043610610148575f3560e01c80638da5cb5b116100bf578063b8e380f811610079578063b8e380f8146102a7578063c19da1ae146102ba578063cf3c99bd146102dd578063f2f4eb26146102f0578063f2fde38b14610317578063f94cc96e1461032a575f5ffd5b80638da5cb5b146102015780639546ed711461021157806398f4b1b2146102665780639bfd8d6114610279578063a0e8d3561461028c578063afdfe22c14610294575f5ffd5b80636fe1e80c116101105780636fe1e80c146101b8578063715018a6146101c1578063776f8a5a146101c95780637771dad5146101dc57806377badb1d146101ef57806380d58bd3146101f8575f5ffd5b806312d43a511461014c5780631b4f9ea61461017c5780633eabfb75146101865780634cd301e614610199578063582d6976146101b0575b5f5ffd5b60025461015f906001600160a01b031681565b6040516001600160a01b0390911681526020015b60405180910390f35b61018461033d565b005b610184610194366004611bb5565b61059e565b6101a260105481565b604051908152602001610173565b6101846107db565b6101a260135481565b610184610a3b565b6101846101d7366004611bb5565b610a4e565b6101a26101ea366004611be0565b610c11565b6101a260125481565b6101a260115481565b5f546001600160a01b031661015f565b600454600554600654600754600854610234946001600160a01b03169392919085565b604080516001600160a01b0390961686526020860194909452928401919091526060830152608082015260a001610173565b60035461015f906001600160a01b031681565b6101a2610287366004611c17565b610c84565b6101a2610cc9565b6101846102a2366004611c17565b610cd7565b6101846102b5366004611bb5565b610d45565b600954600a54600b54600c54600d54610234946001600160a01b03169392919085565b6101846102eb366004611c17565b610f6f565b61015f7f000000000000000000000000000000000000000000000000000000000000000081565b610184610325366004611c17565b611016565b610184610338366004611bb5565b611050565b6003546001600160a01b0316331461039c5760405162461bcd60e51b815260206004820152601e60248201527f496e746572657374506f6f6c3a206f6e6c792072617465206f7261636c65000060448201526064015b60405180910390fd5b6011541561040457620151806011546103b59190611c46565b4210156104045760405162461bcd60e51b815260206004820152601e60248201527f425444207261746520616c7265616479207570646174656420746f64617900006044820152606401610393565b61040e6004611205565b5f61041761128d565b90505f61042660105483611414565b600854601054919250908190156104d657606461044c670de0b6b3a76400006063611c59565b6104569190611c84565b8410801561046357505f83125b15610486575f61047284611ca3565b905061047e8183611c46565b9150506104d6565b606461049b670de0b6b3a76400006065611c59565b6104a59190611c84565b841180156104b257505f83135b156104d657828181106104c7575f91506104d4565b6104d18183611cbd565b91505b505b60025460408051630c90852b60e31b815290515f926001600160a01b03169163648429589160048083019260209291908290030181865afa15801561051d573d5f5f3e3d5ffd5b505050506040513d601f19601f820116820180604052508101906105419190611cd0565b90508082111561054f578091505b600882905560108590554260115560408051848152602081018490527f973c7d0d2ed53931e2bf2dbca70381aea00d0ab42d00e9dffce83537368c989091015b60405180910390a15050505050565b6105a6611426565b66038d7ea4c680008110156105f85760405162461bcd60e51b8152602060048201526018602482015277155b9cdd185ad948185b5bdd5b9d081d1bdbc81cdb585b1b60421b6044820152606401610393565b6b033b2e3c9fd0803ce800000081111561064f5760405162461bcd60e51b8152602060048201526018602482015277556e7374616b6520616d6f756e7420746f6f206c6172676560401b6044820152606401610393565b6106596009611205565b335f908152600f6020526040812090610673600983611450565b90505f81835f01546106859190611c46565b9050838110156106d15760405162461bcd60e51b8152602060048201526017602482015276556e7374616b6520657863656564732062616c616e636560481b6044820152606401610393565b5f5f6106de868585611467565b90925090508115610727576106f5600933846114c2565b6009546040518381526001600160a01b039091169033905f516020611d035f395f51905f529060200160405180910390a35b80156107b95780855f015f82825461073f9190611cbd565b9091555050600a80548291905f90610758908490611cbd565b9091555050600954610774906001600160a01b031633836116c6565b6009546040518281526001600160a01b039091169033907fd1c19fbcd4551a5edfb66d43d2e337c04837afda3482b42bdf569a8fccdae5fb9060200160405180910390a35b8454600b546107c89190611725565b6001958601555050509080555050565b50565b6003546001600160a01b031633146108355760405162461bcd60e51b815260206004820152601e60248201527f496e746572657374506f6f6c3a206f6e6c792072617465206f7261636c6500006044820152606401610393565b6013541561089d576201518060135461084e9190611c46565b42101561089d5760405162461bcd60e51b815260206004820152601e60248201527f425442207261746520616c7265616479207570646174656420746f64617900006044820152606401610393565b6108a76009611205565b5f6108b0611750565b90505f6108bf60125483611414565b600d546012549192509081901561096f5760646108e5670de0b6b3a76400006063611c59565b6108ef9190611c84565b841080156108fc57505f83125b1561091f575f61090b84611ca3565b90506109178183611c46565b91505061096f565b6064610934670de0b6b3a76400006065611c59565b61093e9190611c84565b8411801561094b57505f83135b1561096f5782818110610960575f915061096d565b61096a8183611cbd565b91505b505b60025460408051635b1dd53360e01b815290515f926001600160a01b031691635b1dd5339160048083019260209291908290030181865afa1580156109b6573d5f5f3e3d5ffd5b505050506040513d601f19601f820116820180604052508101906109da9190611cd0565b9050808211156109e8578091505b600d8290556012859055426013556040805184815260208101849052908101869052606081018590527fbbfe72c2052fa04992a0a35b724247054c2f1834da975dd9660e72d44932190d9060800161058f565b610a43611881565b610a4c5f6118ad565b565b610a56611426565b66038d7ea4c68000811015610aa65760405162461bcd60e51b815260206004820152601660248201527514dd185ad948185b5bdd5b9d081d1bdbc81cdb585b1b60521b6044820152606401610393565b6b033b2e3c9fd0803ce8000000811115610afb5760405162461bcd60e51b81526020600482015260166024820152755374616b6520616d6f756e7420746f6f206c6172676560501b6044820152606401610393565b610b056004611205565b335f908152600e6020526040812090610b1f600483611450565b90508015610b6557610b33600433836114c2565b6004546040518281526001600160a01b039091169033905f516020611d035f395f51905f529060200160405180910390a35b600454610b7d906001600160a01b03163330866118fc565b82825f015f828254610b8f9190611c46565b9091555050600580548491905f90610ba8908490611c46565b90915550508154600654610bbc9190611725565b60018301556004546040518481526001600160a01b039091169033907f5dac0c1b1112564a045ba943c9d50270893e8e826c49be8e7073adc713ab7bd7906020015b60405180910390a350506107d860018055565b6004545f906001600160a01b0390811690841603610c4757506001600160a01b0381165f908152600e6020526040902054610c7e565b6009546001600160a01b0390811690841603610c7b57506001600160a01b0381165f908152600f6020526040902054610c7e565b505f5b92915050565b6004545f906001600160a01b0390811690831603610ca457505060055490565b6009546001600160a01b0390811690831603610cc2575050600a5490565b505f919050565b5f610cd2611750565b905090565b610cdf611881565b6001600160a01b038116610d235760405162461bcd60e51b815260206004820152600b60248201526a24b73b30b634b21033b7bb60a91b6044820152606401610393565b600280546001600160a01b0319166001600160a01b0392909216919091179055565b610d4d611426565b66038d7ea4c68000811015610d9f5760405162461bcd60e51b8152602060048201526018602482015277155b9cdd185ad948185b5bdd5b9d081d1bdbc81cdb585b1b60421b6044820152606401610393565b6b033b2e3c9fd0803ce8000000811115610df65760405162461bcd60e51b8152602060048201526018602482015277556e7374616b6520616d6f756e7420746f6f206c6172676560401b6044820152606401610393565b610e006004611205565b335f908152600e6020526040812090610e1a600483611450565b90505f81835f0154610e2c9190611c46565b905083811015610e785760405162461bcd60e51b8152602060048201526017602482015276556e7374616b6520657863656564732062616c616e636560481b6044820152606401610393565b5f5f610e85868585611467565b90925090508115610ece57610e9c600433846114c2565b6004546040518381526001600160a01b039091169033905f516020611d035f395f51905f529060200160405180910390a35b8015610f605780855f015f828254610ee69190611cbd565b9091555050600580548291905f90610eff908490611cbd565b9091555050600454610f1b906001600160a01b031633836116c6565b6004546040518281526001600160a01b039091169033907fd1c19fbcd4551a5edfb66d43d2e337c04837afda3482b42bdf569a8fccdae5fb9060200160405180910390a35b84546006546107c89190611725565b610f77611881565b6001600160a01b038116610fcd5760405162461bcd60e51b815260206004820152601960248201527f496e746572657374506f6f6c3a207a65726f206f7261636c65000000000000006044820152606401610393565b600380546001600160a01b0319166001600160a01b0383169081179091556040517f2fdc9a614911eb083a1bf7a4fcc09658aa41d3bb8ffca5846a50dcc21827c964905f90a250565b61101e611881565b6001600160a01b03811661104757604051631e4fbdf760e01b81525f6004820152602401610393565b6107d8816118ad565b611058611426565b66038d7ea4c680008110156110a85760405162461bcd60e51b815260206004820152601660248201527514dd185ad948185b5bdd5b9d081d1bdbc81cdb585b1b60521b6044820152606401610393565b6b033b2e3c9fd0803ce80000008111156110fd5760405162461bcd60e51b81526020600482015260166024820152755374616b6520616d6f756e7420746f6f206c6172676560501b6044820152606401610393565b6111076009611205565b335f908152600f6020526040812090611121600983611450565b60095490915061113c906001600160a01b03163330866118fc565b82825f015f82825461114e9190611c46565b9091555050600a80548491905f90611167908490611c46565b90915550508154600b5461117b9190611725565b600183015580156111c457611192600933836114c2565b6009546040518281526001600160a01b039091169033905f516020611d035f395f51905f529060200160405180910390a35b6009546040518481526001600160a01b039091169033907f5dac0c1b1112564a045ba943c9d50270893e8e826c49be8e7073adc713ab7bd790602001610bfe565b428160030154036112135750565b6001810154158061122657506004810154155b156112345742600390910155565b5f8160030154426112459190611cbd565b9050805f03611252575050565b5f61126183600401548361193b565b905080156112825780836002015f82825461127c9190611c46565b90915550505b505042600390910155565b5f5f7f00000000000000000000000000000000000000000000000000000000000000006001600160a01b0316630a19399a6040518163ffffffff1660e01b8152600401602060405180830381865afa1580156112eb573d5f5f3e3d5ffd5b505050506040513d601f19601f8201168201806040525081019061130f9190611ce7565b90505f816001600160a01b031663ff8336ff6040518163ffffffff1660e01b8152600401602060405180830381865afa15801561134e573d5f5f3e3d5ffd5b505050506040513d601f19601f820116820180604052508101906113729190611cd0565b90505f826001600160a01b031663ae8ba6796040518163ffffffff1660e01b8152600401602060405180830381865afa1580156113b1573d5f5f3e3d5ffd5b505050506040513d601f19601f820116820180604052508101906113d59190611cd0565b9050805f036113ef57670de0b6b3a7640000935050505090565b80611402670de0b6b3a764000084611c59565b61140c9190611c84565b935050505090565b5f61141f83836119a0565b9392505050565b60026001540361144957604051633ee5aeb560e01b815260040160405180910390fd5b6002600155565b5f61141f825f015484600201548460010154611a02565b5f5f845f0361147a57505f9050806114ba565b821580611485575083155b1561149457505f9050836114ba565b61149f858585611a47565b9150848211156114ad578491505b6114b78286611cbd565b90505b935093915050565b82546040516340c10f1960e01b81526001600160a01b03848116600483015260248201849052909116906340c10f19906044015f604051808303815f87803b15801561150c575f5ffd5b505af115801561151e573d5f5f3e3d5ffd5b505060045485546001600160a01b0391821691160391506116c19050575f7f00000000000000000000000000000000000000000000000000000000000000006001600160a01b0316632d2c55656040518163ffffffff1660e01b8152600401602060405180830381865afa158015611598573d5f5f3e3d5ffd5b505050506040513d601f19601f820116820180604052508101906115bc9190611ce7565b90506001600160a01b0381166116075760405162461bcd60e51b815260206004820152601060248201526f151c99585cdd5c9e481b9bdd081cd95d60821b6044820152606401610393565b5f611614836103e8611af7565b905080156116be5784546040516340c10f1960e01b81526001600160a01b03848116600483015260248201849052909116906340c10f19906044015f604051808303815f87803b158015611666575f5ffd5b505af1158015611678573d5f5f3e3d5ffd5b505086546040518481526001600160a01b0390911692507f851bbbb7772d1b73589565502484a41b75a658c4b5cd68238eb206cdc4da161d915060200160405180910390a25b50505b505050565b6040516001600160a01b038381166024830152604482018390526116c191859182169063a9059cbb906064015b604051602081830303815290604052915060e01b6020820180516001600160e01b038381831617835250505050611b1c565b5f821580611731575081155b1561173d57505f610c7e565b61141f8383670de0b6b3a7640000611a47565b5f5f7f00000000000000000000000000000000000000000000000000000000000000006001600160a01b0316630a19399a6040518163ffffffff1660e01b8152600401602060405180830381865afa1580156117ae573d5f5f3e3d5ffd5b505050506040513d601f19601f820116820180604052508101906117d29190611ce7565b90506001600160a01b0381166118205760405162461bcd60e51b8152602060048201526013602482015272141c9a58d953dc9858db19481b9bdd081cd95d606a1b6044820152606401610393565b5f816001600160a01b031663a0e8d3566040518163ffffffff1660e01b8152600401602060405180830381865afa15801561185d573d5f5f3e3d5ffd5b505050506040513d601f19601f8201168201806040525081019061141f9190611cd0565b5f546001600160a01b03163314610a4c5760405163118cdaa760e01b8152336004820152602401610393565b5f80546001600160a01b038381166001600160a01b0319831681178455604051919092169283917f8be0079c531659141344cd1fd0a4f28419497f9722a3daafe3b4186f6b6457e09190a35050565b6040516001600160a01b0384811660248301528381166044830152606482018390526119359186918216906323b872dd906084016116f3565b50505050565b5f821580611947575081155b1561195357505f610c7e565b5f61196884670de0b6b3a76400006001611a47565b905061197681846001611a47565b90505f6119896301e13380612710611c59565b905061199782600183611a47565b95945050505050565b5f8215806119ad57508282145b156119b957505f610c7e565b828211156119e1575f6119d86119cf8585611cbd565b61271086611a47565b9150610c7e9050565b5f6119ef6119cf8486611cbd565b90506119fa81611ca3565b949350505050565b5f831580611a0e575082155b15611a1a57505f61141f565b5f611a2e8585670de0b6b3a7640000611a47565b9050828111611a3d575f611997565b6119978382611cbd565b5f5f5f611a548686611b88565b91509150815f03611a7857838181611a6e57611a6e611c70565b049250505061141f565b818411611a8f57611a8f6003851502601118611ba4565b5f848688095f868103871696879004966002600389028118808a02820302808a02820302808a02820302808a02820302808a02820302808a02909103029181900381900460010185841190960395909502919093039390930492909217029150509392505050565b5f821580611b03575081155b15611b0f57505f610c7e565b61141f8383612710611a47565b5f5f60205f8451602086015f885af180611b3b576040513d5f823e3d81fd5b50505f513d91508115611b52578060011415611b5f565b6001600160a01b0384163b155b1561193557604051635274afe760e01b81526001600160a01b0385166004820152602401610393565b5f805f1983850993909202808410938190039390930393915050565b634e487b715f52806020526024601cfd5b5f60208284031215611bc5575f5ffd5b5035919050565b6001600160a01b03811681146107d8575f5ffd5b5f5f60408385031215611bf1575f5ffd5b8235611bfc81611bcc565b91506020830135611c0c81611bcc565b809150509250929050565b5f60208284031215611c27575f5ffd5b813561141f81611bcc565b634e487b7160e01b5f52601160045260245ffd5b80820180821115610c7e57610c7e611c32565b8082028115828204841417610c7e57610c7e611c32565b634e487b7160e01b5f52601260045260245ffd5b5f82611c9e57634e487b7160e01b5f52601260045260245ffd5b500490565b5f600160ff1b8201611cb757611cb7611c32565b505f0390565b81810381811115610c7e57610c7e611c32565b5f60208284031215611ce0575f5ffd5b5051919050565b5f60208284031215611cf7575f5ffd5b815161141f81611bcc56fec7edf5cfe443c04a10a60ff6084c847114348c55b257a01d62700326219adbbaa264697066735822122026ff27b8063e4d2ce46224953f097243062bf4eaeb33e1c7852e5b0fb1fe9e5c64736f6c634300081e0033",
  "linkReferences": {},
  "deployedLinkReferences": {},
  "immutableReferences": {
    "5652": [
      {
        "length": 32,
        "start": 757
      },
      {
        "length": 32,
        "start": 4753
      },
      {
        "length": 32,
        "start": 5438
      },
      {
        "length": 32,
        "start": 5972
      }
    ]
  },
  "inputSourceName": "project/contracts/InterestPool.sol",
  "buildInfoId": "solc-0_8_30-b53a780fec17d21c9b2e24817fd9678041aa4cea"
}