{
  "_format": "hh3-artifact-1",
  "contractName": "StakingRouter",
  "sourceName": "contracts/StakingRouter.sol",
  "abi": [
    {
      "inputs": [
        {
          "internalType": "address",
          "name": "_farmingPool",
          "type": "address"
        },
        {
          "internalType": "address",
          "name": "_stBTD",
          "type": "address"
        },
        {
          "internalType": "address",
          "name": "_stBTB",
          "type": "address"
        },
        {
          "internalType": "uint256",
          "name": "_stBTDPoolId",
          "type": "uint256"
        },
        {
          "internalType": "uint256",
          "name": "_stBTBPoolId",
          "type": "uint256"
        }
      ],
      "stateMutability": "nonpayable",
      "type": "constructor"
    },
    {
      "inputs": [
        {
          "internalType": "address",
          "name": "owner",
          "type": "address"
        }
      ],
      "name": "OwnableInvalidOwner",
      "type": "error"
    },
    {
      "inputs": [
        {
          "internalType": "address",
          "name": "account",
          "type": "address"
        }
      ],
      "name": "OwnableUnauthorizedAccount",
      "type": "error"
    },
    {
      "inputs": [],
      "name": "ReentrancyGuardReentrantCall",
      "type": "error"
    },
    {
      "inputs": [
        {
          "internalType": "address",
          "name": "token",
          "type": "address"
        }
      ],
      "name": "SafeERC20FailedOperation",
      "type": "error"
    },
    {
      "anonymous": false,
      "inputs": [
        {
          "indexed": true,
          "internalType": "address",
          "name": "previousOwner",
          "type": "address"
        },
        {
          "indexed": true,
          "internalType": "address",
          "name": "newOwner",
          "type": "address"
        }
      ],
      "name": "OwnershipTransferred",
      "type": "event"
    },
    {
      "anonymous": false,
      "inputs": [
        {
          "indexed": true,
          "internalType": "address",
          "name": "user",
          "type": "address"
        },
        {
          "indexed": false,
          "internalType": "uint256",
          "name": "btdInterest",
          "type": "uint256"
        },
        {
          "indexed": false,
          "internalType": "uint256",
          "name": "btbInterest",
          "type": "uint256"
        },
        {
          "indexed": false,
          "internalType": "uint256",
          "name": "brsReward",
          "type": "uint256"
        }
      ],
      "name": "RewardsClaimed",
      "type": "event"
    },
    {
      "anonymous": false,
      "inputs": [
        {
          "indexed": true,
          "internalType": "address",
          "name": "user",
          "type": "address"
        },
        {
          "indexed": true,
          "internalType": "address",
          "name": "token",
          "type": "address"
        },
        {
          "indexed": false,
          "internalType": "uint256",
          "name": "amount",
          "type": "uint256"
        }
      ],
      "name": "Staked",
      "type": "event"
    },
    {
      "anonymous": false,
      "inputs": [
        {
          "indexed": true,
          "internalType": "address",
          "name": "user",
          "type": "address"
        },
        {
          "indexed": true,
          "internalType": "address",
          "name": "token",
          "type": "address"
        },
        {
          "indexed": false,
          "internalType": "uint256",
          "name": "amount",
          "type": "uint256"
        }
      ],
      "name": "Withdrawn",
      "type": "event"
    },
    {
      "inputs": [],
      "name": "claimAll",
      "outputs": [],
      "stateMutability": "nonpayable",
      "type": "function"
    },
    {
      "inputs": [
        {
          "internalType": "uint256",
          "name": "poolId",
          "type": "uint256"
        }
      ],
      "name": "claimBRSFromPool",
      "outputs": [],
      "stateMutability": "nonpayable",
      "type": "function"
    },
    {
      "inputs": [],
      "name": "claimBRSFromStTokenPools",
      "outputs": [],
      "stateMutability": "nonpayable",
      "type": "function"
    },
    {
      "inputs": [],
      "name": "farmingPool",
      "outputs": [
        {
          "internalType": "contract IFarmingPool",
          "name": "",
          "type": "address"
        }
      ],
      "stateMutability": "view",
      "type": "function"
    },
    {
      "inputs": [],
      "name": "owner",
      "outputs": [
        {
          "internalType": "address",
          "name": "",
          "type": "address"
        }
      ],
      "stateMutability": "view",
      "type": "function"
    },
    {
      "inputs": [
        {
          "internalType": "address",
          "name": "user",
          "type": "address"
        }
      ],
      "name": "pendingRewards",
      "outputs": [
        {
          "internalType": "uint256",
          "name": "pendingBRS",
          "type": "uint256"
        }
      ],
      "stateMutability": "view",
      "type": "function"
    },
    {
      "inputs": [],
      "name": "renounceOwnership",
      "outputs": [],
      "stateMutability": "nonpayable",
      "type": "function"
    },
    {
      "inputs": [],
      "name": "stBTB",
      "outputs": [
        {
          "internalType": "contract IERC4626",
          "name": "",
          "type": "address"
        }
      ],
      "stateMutability": "view",
      "type": "function"
    },
    {
      "inputs": [],
      "name": "stBTBPoolId",
      "outputs": [
        {
          "internalType": "uint256",
          "name": "",
          "type": "uint256"
        }
      ],
      "stateMutability": "view",
      "type": "function"
    },
    {
      "inputs": [],
      "name": "stBTD",
      "outputs": [
        {
          "internalType": "contract IERC4626",
          "name": "",
          "type": "address"
        }
      ],
      "stateMutability": "view",
      "type": "function"
    },
    {
      "inputs": [],
      "name": "stBTDPoolId",
      "outputs": [
        {
          "internalType": "uint256",
          "name": "",
          "type": "uint256"
        }
      ],
      "stateMutability": "view",
      "type": "function"
    },
    {
      "inputs": [
        {
          "internalType": "uint256",
          "name": "amount",
          "type": "uint256"
        }
      ],
      "name": "stakeBTB",
      "outputs": [],
      "stateMutability": "nonpayable",
      "type": "function"
    },
    {
      "inputs": [
        {
          "internalType": "uint256",
          "name": "amount",
          "type": "uint256"
        }
      ],
      "name": "stakeBTD",
      "outputs": [],
      "stateMutability": "nonpayable",
      "type": "function"
    },
    {
      "inputs": [
        {
          "internalType": "uint256",
          "name": "poolId",
          "type": "uint256"
        },
        {
          "internalType": "uint256",
          "name": "amount",
          "type": "uint256"
        }
      ],
      "name": "stakeToken",
      "outputs": [],
      "stateMutability": "nonpayable",
      "type": "function"
    },
    {
      "inputs": [
        {
          "internalType": "address",
          "name": "user",
          "type": "address"
        }
      ],
      "name": "stakedAmounts",
      "outputs": [
        {
          "internalType": "uint256",
          "name": "stakedBTD",
          "type": "uint256"
        },
        {
          "internalType": "uint256",
          "name": "stakedBTB",
          "type": "uint256"
        }
      ],
      "stateMutability": "view",
      "type": "function"
    },
    {
      "inputs": [
        {
          "internalType": "address",
          "name": "user",
          "type": "address"
        },
        {
          "internalType": "uint256",
          "name": "poolId",
          "type": "uint256"
        }
      ],
      "name": "stakedInPool",
      "outputs": [
        {
          "internalType": "uint256",
          "name": "",
          "type": "uint256"
        }
      ],
      "stateMutability": "view",
      "type": "function"
    },
    {
      "inputs": [
        {
          "internalType": "address",
          "name": "newOwner",
          "type": "address"
        }
      ],
      "name": "transferOwnership",
      "outputs": [],
      "stateMutability": "nonpayable",
      "type": "function"
    },
    {
      "inputs": [
        {
          "internalType": "uint256",
          "name": "amount",
          "type": "uint256"
        }
      ],
      "name": "withdrawBTB",
      "outputs": [],
      "stateMutability": "nonpayable",
      "type": "function"
    },
    {
      "inputs": [
        {
          "internalType": "uint256",
          "name": "amount",
          "type": "uint256"
        }
      ],
      "name": "withdrawBTD",
      "outputs": [],
      "stateMutability": "nonpayable",
      "type": "function"
    },
    {
      "inputs": [
        {
          "internalType": "uint256",
          "name": "poolId",
          "type": "uint256"
        },
        {
          "internalType": "uint256",
          "name": "amount",
          "type": "uint256"
        }
      ],
      "name": "withdrawToken",
      "outputs": [],
      "stateMutability": "nonpayable",
      "type": "function"
    }
  ],
  "bytecode": "0x60e060405234801561000f575f5ffd5b50604051611e51380380611e5183398101604081905261002e916101f5565b338061005457604051631e4fbdf760e01b81525f60048201526024015b60405180910390fd5b61005d8161018b565b50600180556001600160a01b0385166100b85760405162461bcd60e51b815260206004820152601b60248201527f496e76616c6964204661726d696e67506f6f6c20616464726573730000000000604482015260640161004b565b6001600160a01b03841661010e5760405162461bcd60e51b815260206004820152601560248201527f496e76616c696420737442544420616464726573730000000000000000000000604482015260640161004b565b6001600160a01b0383166101645760405162461bcd60e51b815260206004820152601560248201527f496e76616c696420737442544220616464726573730000000000000000000000604482015260640161004b565b6001600160a01b0394851660805292841660a052921660c052600291909155600355610247565b5f80546001600160a01b038381166001600160a01b0319831681178455604051919092169283917f8be0079c531659141344cd1fd0a4f28419497f9722a3daafe3b4186f6b6457e09190a35050565b80516001600160a01b03811681146101f0575f5ffd5b919050565b5f5f5f5f5f60a08688031215610209575f5ffd5b610212866101da565b9450610220602087016101da565b935061022e604087016101da565b6060870151608090970151959894975095949392505050565b60805160a05160c051611b2a6103275f395f818161024f015281816104cc0152818161065a0152610d1c01525f81816101ae015281816103aa015281816109210152610a0401525f8181610276015281816102f20152818161044a0152818161056d015281816105e7015281816106aa0152818161075a015281816108430152818161097301528181610a4f01528181610ade01528181610b5801528181610c1d01528181610d8301528181610e2401528181610f3101528181610fdb01528181611023015281816111fe015281816115d101526116190152611b2a5ff3fe608060405234801561000f575f5ffd5b5060043610610127575f3560e01c80638da5cb5b116100a9578063f2fde38b1161006e578063f2fde38b14610298578063f94cc96e146102ab578063fcd8c5e1146102be578063fdb483c7146102c7578063ffab4bd9146102da575f5ffd5b80638da5cb5b1461021f57806397fa84961461022f578063d1058e5914610242578063d6a6a4e01461024a578063d75aca1914610271575f5ffd5b806362472959116100ef57806362472959146101a9578063640bf370146101e8578063715018a6146101fb578063776f8a5a146102035780637b44e4e414610216575f5ffd5b806310c1c1031461012b5780631b8d53fb146101585780632275b0381461016257806331d7a2621461017557806335ca145c14610196575b5f5ffd5b61013e61013936600461192d565b6102ed565b604080519283526020830191909152015b60405180910390f35b610160610546565b005b61016061017036600461194f565b61064d565b61018861018336600461192d565b61068e565b60405190815260200161014f565b6101606101a436600461194f565b610914565b6101d07f000000000000000000000000000000000000000000000000000000000000000081565b6040516001600160a01b03909116815260200161014f565b6101886101f6366004611966565b610949565b6101606109e6565b61016061021136600461194f565b6109f7565b61018860035481565b5f546001600160a01b03166101d0565b61016061023d36600461194f565b610a2c565b610160610ab7565b6101d07f000000000000000000000000000000000000000000000000000000000000000081565b6101d07f000000000000000000000000000000000000000000000000000000000000000081565b6101606102a636600461192d565b610cd0565b6101606102b936600461194f565b610d0f565b61018860025481565b6101606102d5366004611990565b610d44565b6101606102e8366004611990565b610ef2565b5f5f5f7f00000000000000000000000000000000000000000000000000000000000000006001600160a01b03166393f1a40b600254866040518363ffffffff1660e01b81526004016103529291909182526001600160a01b0316602082015260400190565b6040805180830381865afa15801561036c573d5f5f3e3d5ffd5b505050506040513d601f19601f8201168201806040525081019061039091906119b0565b506040516303d1689d60e11b8152600481018290529091507f00000000000000000000000000000000000000000000000000000000000000006001600160a01b0316906307a2d13a90602401602060405180830381865afa1580156103f7573d5f5f3e3d5ffd5b505050506040513d601f19601f8201168201806040525081019061041b91906119d2565b6003546040516393f1a40b60e01b815260048101919091526001600160a01b0386811660248301529194505f917f000000000000000000000000000000000000000000000000000000000000000016906393f1a40b906044016040805180830381865afa15801561048e573d5f5f3e3d5ffd5b505050506040513d601f19601f820116820180604052508101906104b291906119b0565b506040516303d1689d60e11b8152600481018290529091507f00000000000000000000000000000000000000000000000000000000000000006001600160a01b0316906307a2d13a90602401602060405180830381865afa158015610519573d5f5f3e3d5ffd5b505050506040513d601f19601f8201168201806040525081019061053d91906119d2565b92505050915091565b61054e6110c9565b6002546040516210ee3f60e81b815260048101919091523360248201527f00000000000000000000000000000000000000000000000000000000000000006001600160a01b0316906310ee3f00906044015f604051808303815f87803b1580156105b6575f5ffd5b505af19250505080156105c7575060015b506003546040516210ee3f60e81b815260048101919091523360248201527f00000000000000000000000000000000000000000000000000000000000000006001600160a01b0316906310ee3f00906044015f604051808303815f87803b158015610630575f5ffd5b505af1925050508015610641575060015b5061064b60018055565b565b6106556110c9565b6106827f0000000000000000000000000000000000000000000000000000000000000000600354836110f3565b61068b60018055565b50565b600354604051634c4b4f4160e11b81525f916001600160a01b037f000000000000000000000000000000000000000000000000000000000000000016916398969e82916106f19186906004019182526001600160a01b0316602082015260400190565b602060405180830381865afa15801561070c573d5f5f3e3d5ffd5b505050506040513d601f19601f8201168201806040525081019061073091906119d2565b600254604051634c4b4f4160e11b815260048101919091526001600160a01b0384811660248301527f000000000000000000000000000000000000000000000000000000000000000016906398969e8290604401602060405180830381865afa15801561079f573d5f5f3e3d5ffd5b505050506040513d601f19601f820116820180604052508101906107c391906119d2565b6107cd91906119e9565b6001600160a01b0383165f9081526004602090815260408083208054825181850281018501909352808352949550929390929183018282801561082d57602002820191905f5260205f20905b815481526020019060010190808311610819575b509394505f93505050505b815181101561090d577f00000000000000000000000000000000000000000000000000000000000000006001600160a01b03166398969e8283838151811061088257610882611a08565b6020026020010151866040518363ffffffff1660e01b81526004016108ba9291909182526001600160a01b0316602082015260400190565b602060405180830381865afa1580156108d5573d5f5f3e3d5ffd5b505050506040513d601f19601f820116820180604052508101906108f991906119d2565b61090390846119e9565b9250600101610838565b5050919050565b61091c6110c9565b6106827f0000000000000000000000000000000000000000000000000000000000000000600254836110f3565b6040516393f1a40b60e01b8152600481018290526001600160a01b0383811660248301525f9182917f000000000000000000000000000000000000000000000000000000000000000016906393f1a40b906044016040805180830381865afa1580156109b7573d5f5f3e3d5ffd5b505050506040513d601f19601f820116820180604052508101906109db91906119b0565b509150505b92915050565b6109ee611384565b61064b5f6113b0565b6109ff6110c9565b6106827f0000000000000000000000000000000000000000000000000000000000000000600254836113ff565b610a346110c9565b6040516210ee3f60e81b8152600481018290523360248201527f00000000000000000000000000000000000000000000000000000000000000006001600160a01b0316906310ee3f00906044015f604051808303815f87803b158015610a98575f5ffd5b505af1158015610aaa573d5f5f3e3d5ffd5b5050505061068b60018055565b610abf6110c9565b6002546040516210ee3f60e81b815260048101919091523360248201527f00000000000000000000000000000000000000000000000000000000000000006001600160a01b0316906310ee3f00906044015f604051808303815f87803b158015610b27575f5ffd5b505af1925050508015610b38575060015b506003546040516210ee3f60e81b815260048101919091523360248201527f00000000000000000000000000000000000000000000000000000000000000006001600160a01b0316906310ee3f00906044015f604051808303815f87803b158015610ba1575f5ffd5b505af1925050508015610bb2575060015b50335f90815260046020908152604080832080548251818502810185019093528083529192909190830182828015610c0757602002820191905f5260205f20905b815481526020019060010190808311610bf3575b509394505f93505050505b8151811015610cc5577f00000000000000000000000000000000000000000000000000000000000000006001600160a01b03166310ee3f00838381518110610c5c57610c5c611a08565b6020026020010151336040518363ffffffff1660e01b8152600401610c949291909182526001600160a01b0316602082015260400190565b5f604051808303815f87803b158015610cab575f5ffd5b505af1925050508015610cbc575060015b50600101610c12565b505061064b60018055565b610cd8611384565b6001600160a01b038116610d0657604051631e4fbdf760e01b81525f60048201526024015b60405180910390fd5b61068b816113b0565b610d176110c9565b6106827f0000000000000000000000000000000000000000000000000000000000000000600354836113ff565b610d4c6110c9565b5f8111610d6b5760405162461bcd60e51b8152600401610cfd90611a1c565b604051631526fe2760e01b8152600481018390525f907f00000000000000000000000000000000000000000000000000000000000000006001600160a01b031690631526fe279060240161010060405180830381865afa158015610dd1573d5f5f3e3d5ffd5b505050506040513d601f19601f82011682018060405250810190610df59190611a48565b50506040516383278b0160e01b8152600481018a905260248101899052336044820152306064820152959650507f00000000000000000000000000000000000000000000000000000000000000006001600160a01b0316946383278b0194506084019250610e61915050565b5f604051808303815f87803b158015610e78575f5ffd5b505af1158015610e8a573d5f5f3e3d5ffd5b50610ea3925050506001600160a01b03821633846116ca565b6040518281526001600160a01b0382169033907fd1c19fbcd4551a5edfb66d43d2e337c04837afda3482b42bdf569a8fccdae5fb906020015b60405180910390a350610eee60018055565b5050565b610efa6110c9565b5f8111610f195760405162461bcd60e51b8152600401610cfd90611a1c565b604051631526fe2760e01b8152600481018390525f907f00000000000000000000000000000000000000000000000000000000000000006001600160a01b031690631526fe279060240161010060405180830381865afa158015610f7f573d5f5f3e3d5ffd5b505050506040513d601f19601f82011682018060405250810190610fa39190611a48565b505050505050509050610fcc333084846001600160a01b031661172e909392919063ffffffff16565b6110006001600160a01b0382167f00000000000000000000000000000000000000000000000000000000000000008461176d565b60405163481086bf60e11b815260048101849052602481018390523360448201527f00000000000000000000000000000000000000000000000000000000000000006001600160a01b0316906390210d7e906064015f604051808303815f87803b15801561106c575f5ffd5b505af115801561107e573d5f5f3e3d5ffd5b5050505061108c33846117fc565b6040518281526001600160a01b0382169033907f5dac0c1b1112564a045ba943c9d50270893e8e826c49be8e7073adc713ab7bd790602001610edc565b6002600154036110ec57604051633ee5aeb560e01b815260040160405180910390fd5b6002600155565b5f81116111125760405162461bcd60e51b8152600401610cfd90611a1c565b66038d7ea4c680008110156111695760405162461bcd60e51b815260206004820152601960248201527f576974686472617720616d6f756e7420746f6f20736d616c6c000000000000006044820152606401610cfd565b604051630a28a47760e01b8152600481018290525f906001600160a01b03851690630a28a47790602401602060405180830381865afa1580156111ae573d5f5f3e3d5ffd5b505050506040513d601f19601f820116820180604052508101906111d291906119d2565b6040516383278b0160e01b815260048101859052602481018290523360448201523060648201529091507f00000000000000000000000000000000000000000000000000000000000000006001600160a01b0316906383278b01906084015f604051808303815f87803b158015611247575f5ffd5b505af1158015611259573d5f5f3e3d5ffd5b5050604051635d043b2960e11b8152600481018490523360248201523060448201526001600160a01b038716925063ba08765291506064016020604051808303815f875af11580156112ad573d5f5f3e3d5ffd5b505050506040513d601f19601f820116820180604052508101906112d191906119d2565b50836001600160a01b03166338d52e0f6040518163ffffffff1660e01b8152600401602060405180830381865afa15801561130e573d5f5f3e3d5ffd5b505050506040513d601f19601f820116820180604052508101906113329190611ad9565b6001600160a01b0316336001600160a01b03167fd1c19fbcd4551a5edfb66d43d2e337c04837afda3482b42bdf569a8fccdae5fb8460405161137691815260200190565b60405180910390a350505050565b5f546001600160a01b0316331461064b5760405163118cdaa760e01b8152336004820152602401610cfd565b5f80546001600160a01b038381166001600160a01b0319831681178455604051919092169283917f8be0079c531659141344cd1fd0a4f28419497f9722a3daafe3b4186f6b6457e09190a35050565b5f811161141e5760405162461bcd60e51b8152600401610cfd90611a1c565b66038d7ea4c6800081101561146e5760405162461bcd60e51b815260206004820152601660248201527514dd185ad948185b5bdd5b9d081d1bdbc81cdb585b1b60521b6044820152606401610cfd565b6b033b2e3c9fd0803ce80000008111156114c35760405162461bcd60e51b81526020600482015260166024820152755374616b6520616d6f756e7420746f6f206c6172676560501b6044820152606401610cfd565b5f836001600160a01b03166338d52e0f6040518163ffffffff1660e01b8152600401602060405180830381865afa158015611500573d5f5f3e3d5ffd5b505050506040513d601f19601f820116820180604052508101906115249190611ad9565b90508061153c6001600160a01b03821633308661172e565b6115506001600160a01b038216868561176d565b604051636e553f6560e01b8152600481018490523060248201525f906001600160a01b03871690636e553f65906044016020604051808303815f875af115801561159c573d5f5f3e3d5ffd5b505050506040513d601f19601f820116820180604052508101906115c091906119d2565b90506115f66001600160a01b0387167f00000000000000000000000000000000000000000000000000000000000000008361176d565b60405163481086bf60e11b815260048101869052602481018290523360448201527f00000000000000000000000000000000000000000000000000000000000000006001600160a01b0316906390210d7e906064015f604051808303815f87803b158015611662575f5ffd5b505af1158015611674573d5f5f3e3d5ffd5b5050505061168233866117fc565b6040518481526001600160a01b0384169033907f5dac0c1b1112564a045ba943c9d50270893e8e826c49be8e7073adc713ab7bd79060200160405180910390a3505050505050565b6040516001600160a01b0383811660248301526044820183905261172991859182169063a9059cbb906064015b604051602081830303815290604052915060e01b6020820180516001600160e01b038381831617835250505050611864565b505050565b6040516001600160a01b0384811660248301528381166044830152606482018390526117679186918216906323b872dd906084016116f7565b50505050565b604080516001600160a01b038416602482015260448082018490528251808303909101815260649091019091526020810180516001600160e01b031663095ea7b360e01b1790526117be84826118d0565b611767576040516001600160a01b0384811660248301525f60448301526117f291869182169063095ea7b3906064016116f7565b6117678482611864565b6001600160a01b0382165f908152600460205260408120905b815481101561184d578282828154811061183157611831611a08565b905f5260205f200154036118455750505050565b600101611815565b5080546001810182555f9182526020909120015550565b5f5f60205f8451602086015f885af180611883576040513d5f823e3d81fd5b50505f513d9150811561189a5780600114156118a7565b6001600160a01b0384163b155b1561176757604051635274afe760e01b81526001600160a01b0385166004820152602401610cfd565b5f5f5f5f60205f8651602088015f8a5af192503d91505f51905082801561190f57508115611901578060011461190f565b5f866001600160a01b03163b115b9695505050505050565b6001600160a01b038116811461068b575f5ffd5b5f6020828403121561193d575f5ffd5b813561194881611919565b9392505050565b5f6020828403121561195f575f5ffd5b5035919050565b5f5f60408385031215611977575f5ffd5b823561198281611919565b946020939093013593505050565b5f5f604083850312156119a1575f5ffd5b50508035926020909101359150565b5f5f604083850312156119c1575f5ffd5b505080516020909101519092909150565b5f602082840312156119e2575f5ffd5b5051919050565b808201808211156109e057634e487b7160e01b5f52601160045260245ffd5b634e487b7160e01b5f52603260045260245ffd5b6020808252601290820152710416d6f756e74206d757374206265203e20360741b604082015260600190565b5f5f5f5f5f5f5f5f610100898b031215611a60575f5ffd5b8851611a6b81611919565b809850505f60208a01519050809750505f60408a01519050809650505f60608a01519050809550505f60808a01519050809450505f60a08a01519050809350505f60c08a015190508092505060e089015160028110611ac8575f5ffd5b809150509295985092959890939650565b5f60208284031215611ae9575f5ffd5b81516119488161191956fea2646970667358221220fe00a552cf2f0f88b23b77baa848c5bc3def36c49591f2344fc8cdb242cb721664736f6c634300081e0033",
  "linkReferences": {},
  "deployedLinkReferences": {},
  "immutableReferences": {
    "1107": [
      {
        "length": 32,
        "start": 630
      },
      {
        "length": 32,
        "start": 754
      },
      {
        "length": 32,
        "start": 1098
      },
      {
        "length": 32,
        "start": 1389
      },
      {
        "length": 32,
        "start": 1511
      },
      {
        "length": 32,
        "start": 1706
      },
      {
        "length": 32,
        "start": 1882
      },
      {
        "length": 32,
        "start": 2115
      },
      {
        "length": 32,
        "start": 2419
      },
      {
        "length": 32,
        "start": 2639
      },
      {
        "length": 32,
        "start": 2782
      },
      {
        "length": 32,
        "start": 2904
      },
      {
        "length": 32,
        "start": 3101
      },
      {
        "length": 32,
        "start": 3459
      },
      {
        "length": 32,
        "start": 3620
      },
      {
        "length": 32,
        "start": 3889
      },
      {
        "length": 32,
        "start": 4059
      },
      {
        "length": 32,
        "start": 4131
      },
      {
        "length": 32,
        "start": 4606
      },
      {
        "length": 32,
        "start": 5585
      },
      {
        "length": 32,
        "start": 5657
      }
    ],
    "1110": [
      {
        "length": 32,
        "start": 430
      },
      {
        "length": 32,
        "start": 938
      },
      {
        "length": 32,
        "start": 2337
      },
      {
        "length": 32,
        "start": 2564
      }
    ],
    "1113": [
      {
        "length": 32,
        "start": 591
      },
      {
        "length": 32,
        "start": 1228
      },
      {
        "length": 32,
        "start": 1626
      },
      {
        "length": 32,
        "start": 3356
      }
    ]
  },
  "inputSourceName": "project/contracts/StakingRouter.sol",
  "buildInfoId": "solc-0_8_30-9e56002fd35b7e06b9a6b9ec27a0512cb4bfdb36"
}