{
  "_format": "hh3-artifact-1",
  "contractName": "stBTD",
  "sourceName": "contracts/stBTD.sol",
  "abi": [
    {
      "inputs": [
        {
          "internalType": "contract IERC20",
          "name": "btd",
          "type": "address"
        }
      ],
      "stateMutability": "nonpayable",
      "type": "constructor"
    },
    {
      "inputs": [],
      "name": "ECDSAInvalidSignature",
      "type": "error"
    },
    {
      "inputs": [
        {
          "internalType": "uint256",
          "name": "length",
          "type": "uint256"
        }
      ],
      "name": "ECDSAInvalidSignatureLength",
      "type": "error"
    },
    {
      "inputs": [
        {
          "internalType": "bytes32",
          "name": "s",
          "type": "bytes32"
        }
      ],
      "name": "ECDSAInvalidSignatureS",
      "type": "error"
    },
    {
      "inputs": [
        {
          "internalType": "address",
          "name": "spender",
          "type": "address"
        },
        {
          "internalType": "uint256",
          "name": "allowance",
          "type": "uint256"
        },
        {
          "internalType": "uint256",
          "name": "needed",
          "type": "uint256"
        }
      ],
      "name": "ERC20InsufficientAllowance",
      "type": "error"
    },
    {
      "inputs": [
        {
          "internalType": "address",
          "name": "sender",
          "type": "address"
        },
        {
          "internalType": "uint256",
          "name": "balance",
          "type": "uint256"
        },
        {
          "internalType": "uint256",
          "name": "needed",
          "type": "uint256"
        }
      ],
      "name": "ERC20InsufficientBalance",
      "type": "error"
    },
    {
      "inputs": [
        {
          "internalType": "address",
          "name": "approver",
          "type": "address"
        }
      ],
      "name": "ERC20InvalidApprover",
      "type": "error"
    },
    {
      "inputs": [
        {
          "internalType": "address",
          "name": "receiver",
          "type": "address"
        }
      ],
      "name": "ERC20InvalidReceiver",
      "type": "error"
    },
    {
      "inputs": [
        {
          "internalType": "address",
          "name": "sender",
          "type": "address"
        }
      ],
      "name": "ERC20InvalidSender",
      "type": "error"
    },
    {
      "inputs": [
        {
          "internalType": "address",
          "name": "spender",
          "type": "address"
        }
      ],
      "name": "ERC20InvalidSpender",
      "type": "error"
    },
    {
      "inputs": [
        {
          "internalType": "uint256",
          "name": "deadline",
          "type": "uint256"
        }
      ],
      "name": "ERC2612ExpiredSignature",
      "type": "error"
    },
    {
      "inputs": [
        {
          "internalType": "address",
          "name": "signer",
          "type": "address"
        },
        {
          "internalType": "address",
          "name": "owner",
          "type": "address"
        }
      ],
      "name": "ERC2612InvalidSigner",
      "type": "error"
    },
    {
      "inputs": [
        {
          "internalType": "address",
          "name": "receiver",
          "type": "address"
        },
        {
          "internalType": "uint256",
          "name": "assets",
          "type": "uint256"
        },
        {
          "internalType": "uint256",
          "name": "max",
          "type": "uint256"
        }
      ],
      "name": "ERC4626ExceededMaxDeposit",
      "type": "error"
    },
    {
      "inputs": [
        {
          "internalType": "address",
          "name": "receiver",
          "type": "address"
        },
        {
          "internalType": "uint256",
          "name": "shares",
          "type": "uint256"
        },
        {
          "internalType": "uint256",
          "name": "max",
          "type": "uint256"
        }
      ],
      "name": "ERC4626ExceededMaxMint",
      "type": "error"
    },
    {
      "inputs": [
        {
          "internalType": "address",
          "name": "owner",
          "type": "address"
        },
        {
          "internalType": "uint256",
          "name": "shares",
          "type": "uint256"
        },
        {
          "internalType": "uint256",
          "name": "max",
          "type": "uint256"
        }
      ],
      "name": "ERC4626ExceededMaxRedeem",
      "type": "error"
    },
    {
      "inputs": [
        {
          "internalType": "address",
          "name": "owner",
          "type": "address"
        },
        {
          "internalType": "uint256",
          "name": "assets",
          "type": "uint256"
        },
        {
          "internalType": "uint256",
          "name": "max",
          "type": "uint256"
        }
      ],
      "name": "ERC4626ExceededMaxWithdraw",
      "type": "error"
    },
    {
      "inputs": [
        {
          "internalType": "address",
          "name": "account",
          "type": "address"
        },
        {
          "internalType": "uint256",
          "name": "currentNonce",
          "type": "uint256"
        }
      ],
      "name": "InvalidAccountNonce",
      "type": "error"
    },
    {
      "inputs": [],
      "name": "InvalidShortString",
      "type": "error"
    },
    {
      "inputs": [
        {
          "internalType": "address",
          "name": "token",
          "type": "address"
        }
      ],
      "name": "SafeERC20FailedOperation",
      "type": "error"
    },
    {
      "inputs": [
        {
          "internalType": "string",
          "name": "str",
          "type": "string"
        }
      ],
      "name": "StringTooLong",
      "type": "error"
    },
    {
      "anonymous": false,
      "inputs": [
        {
          "indexed": true,
          "internalType": "address",
          "name": "owner",
          "type": "address"
        },
        {
          "indexed": true,
          "internalType": "address",
          "name": "spender",
          "type": "address"
        },
        {
          "indexed": false,
          "internalType": "uint256",
          "name": "value",
          "type": "uint256"
        }
      ],
      "name": "Approval",
      "type": "event"
    },
    {
      "anonymous": false,
      "inputs": [
        {
          "indexed": true,
          "internalType": "address",
          "name": "sender",
          "type": "address"
        },
        {
          "indexed": true,
          "internalType": "address",
          "name": "owner",
          "type": "address"
        },
        {
          "indexed": false,
          "internalType": "uint256",
          "name": "assets",
          "type": "uint256"
        },
        {
          "indexed": false,
          "internalType": "uint256",
          "name": "shares",
          "type": "uint256"
        }
      ],
      "name": "Deposit",
      "type": "event"
    },
    {
      "anonymous": false,
      "inputs": [],
      "name": "EIP712DomainChanged",
      "type": "event"
    },
    {
      "anonymous": false,
      "inputs": [
        {
          "indexed": true,
          "internalType": "address",
          "name": "from",
          "type": "address"
        },
        {
          "indexed": true,
          "internalType": "address",
          "name": "to",
          "type": "address"
        },
        {
          "indexed": false,
          "internalType": "uint256",
          "name": "value",
          "type": "uint256"
        }
      ],
      "name": "Transfer",
      "type": "event"
    },
    {
      "anonymous": false,
      "inputs": [
        {
          "indexed": true,
          "internalType": "address",
          "name": "sender",
          "type": "address"
        },
        {
          "indexed": true,
          "internalType": "address",
          "name": "receiver",
          "type": "address"
        },
        {
          "indexed": true,
          "internalType": "address",
          "name": "owner",
          "type": "address"
        },
        {
          "indexed": false,
          "internalType": "uint256",
          "name": "assets",
          "type": "uint256"
        },
        {
          "indexed": false,
          "internalType": "uint256",
          "name": "shares",
          "type": "uint256"
        }
      ],
      "name": "Withdraw",
      "type": "event"
    },
    {
      "inputs": [],
      "name": "DOMAIN_SEPARATOR",
      "outputs": [
        {
          "internalType": "bytes32",
          "name": "",
          "type": "bytes32"
        }
      ],
      "stateMutability": "view",
      "type": "function"
    },
    {
      "inputs": [
        {
          "internalType": "address",
          "name": "owner",
          "type": "address"
        },
        {
          "internalType": "address",
          "name": "spender",
          "type": "address"
        }
      ],
      "name": "allowance",
      "outputs": [
        {
          "internalType": "uint256",
          "name": "",
          "type": "uint256"
        }
      ],
      "stateMutability": "view",
      "type": "function"
    },
    {
      "inputs": [
        {
          "internalType": "address",
          "name": "spender",
          "type": "address"
        },
        {
          "internalType": "uint256",
          "name": "value",
          "type": "uint256"
        }
      ],
      "name": "approve",
      "outputs": [
        {
          "internalType": "bool",
          "name": "",
          "type": "bool"
        }
      ],
      "stateMutability": "nonpayable",
      "type": "function"
    },
    {
      "inputs": [],
      "name": "asset",
      "outputs": [
        {
          "internalType": "address",
          "name": "",
          "type": "address"
        }
      ],
      "stateMutability": "view",
      "type": "function"
    },
    {
      "inputs": [
        {
          "internalType": "address",
          "name": "account",
          "type": "address"
        }
      ],
      "name": "balanceOf",
      "outputs": [
        {
          "internalType": "uint256",
          "name": "",
          "type": "uint256"
        }
      ],
      "stateMutability": "view",
      "type": "function"
    },
    {
      "inputs": [
        {
          "internalType": "uint256",
          "name": "shares",
          "type": "uint256"
        }
      ],
      "name": "convertToAssets",
      "outputs": [
        {
          "internalType": "uint256",
          "name": "",
          "type": "uint256"
        }
      ],
      "stateMutability": "view",
      "type": "function"
    },
    {
      "inputs": [
        {
          "internalType": "uint256",
          "name": "assets",
          "type": "uint256"
        }
      ],
      "name": "convertToShares",
      "outputs": [
        {
          "internalType": "uint256",
          "name": "",
          "type": "uint256"
        }
      ],
      "stateMutability": "view",
      "type": "function"
    },
    {
      "inputs": [],
      "name": "decimals",
      "outputs": [
        {
          "internalType": "uint8",
          "name": "",
          "type": "uint8"
        }
      ],
      "stateMutability": "view",
      "type": "function"
    },
    {
      "inputs": [
        {
          "internalType": "uint256",
          "name": "assets",
          "type": "uint256"
        },
        {
          "internalType": "address",
          "name": "receiver",
          "type": "address"
        }
      ],
      "name": "deposit",
      "outputs": [
        {
          "internalType": "uint256",
          "name": "",
          "type": "uint256"
        }
      ],
      "stateMutability": "nonpayable",
      "type": "function"
    },
    {
      "inputs": [],
      "name": "eip712Domain",
      "outputs": [
        {
          "internalType": "bytes1",
          "name": "fields",
          "type": "bytes1"
        },
        {
          "internalType": "string",
          "name": "name",
          "type": "string"
        },
        {
          "internalType": "string",
          "name": "version",
          "type": "string"
        },
        {
          "internalType": "uint256",
          "name": "chainId",
          "type": "uint256"
        },
        {
          "internalType": "address",
          "name": "verifyingContract",
          "type": "address"
        },
        {
          "internalType": "bytes32",
          "name": "salt",
          "type": "bytes32"
        },
        {
          "internalType": "uint256[]",
          "name": "extensions",
          "type": "uint256[]"
        }
      ],
      "stateMutability": "view",
      "type": "function"
    },
    {
      "inputs": [
        {
          "internalType": "address",
          "name": "",
          "type": "address"
        }
      ],
      "name": "maxDeposit",
      "outputs": [
        {
          "internalType": "uint256",
          "name": "",
          "type": "uint256"
        }
      ],
      "stateMutability": "view",
      "type": "function"
    },
    {
      "inputs": [
        {
          "internalType": "address",
          "name": "",
          "type": "address"
        }
      ],
      "name": "maxMint",
      "outputs": [
        {
          "internalType": "uint256",
          "name": "",
          "type": "uint256"
        }
      ],
      "stateMutability": "view",
      "type": "function"
    },
    {
      "inputs": [
        {
          "internalType": "address",
          "name": "owner",
          "type": "address"
        }
      ],
      "name": "maxRedeem",
      "outputs": [
        {
          "internalType": "uint256",
          "name": "",
          "type": "uint256"
        }
      ],
      "stateMutability": "view",
      "type": "function"
    },
    {
      "inputs": [
        {
          "internalType": "address",
          "name": "owner",
          "type": "address"
        }
      ],
      "name": "maxWithdraw",
      "outputs": [
        {
          "internalType": "uint256",
          "name": "",
          "type": "uint256"
        }
      ],
      "stateMutability": "view",
      "type": "function"
    },
    {
      "inputs": [
        {
          "internalType": "uint256",
          "name": "shares",
          "type": "uint256"
        },
        {
          "internalType": "address",
          "name": "receiver",
          "type": "address"
        }
      ],
      "name": "mint",
      "outputs": [
        {
          "internalType": "uint256",
          "name": "",
          "type": "uint256"
        }
      ],
      "stateMutability": "nonpayable",
      "type": "function"
    },
    {
      "inputs": [],
      "name": "name",
      "outputs": [
        {
          "internalType": "string",
          "name": "",
          "type": "string"
        }
      ],
      "stateMutability": "view",
      "type": "function"
    },
    {
      "inputs": [
        {
          "internalType": "address",
          "name": "owner",
          "type": "address"
        }
      ],
      "name": "nonces",
      "outputs": [
        {
          "internalType": "uint256",
          "name": "",
          "type": "uint256"
        }
      ],
      "stateMutability": "view",
      "type": "function"
    },
    {
      "inputs": [
        {
          "internalType": "address",
          "name": "owner",
          "type": "address"
        },
        {
          "internalType": "address",
          "name": "spender",
          "type": "address"
        },
        {
          "internalType": "uint256",
          "name": "value",
          "type": "uint256"
        },
        {
          "internalType": "uint256",
          "name": "deadline",
          "type": "uint256"
        },
        {
          "internalType": "uint8",
          "name": "v",
          "type": "uint8"
        },
        {
          "internalType": "bytes32",
          "name": "r",
          "type": "bytes32"
        },
        {
          "internalType": "bytes32",
          "name": "s",
          "type": "bytes32"
        }
      ],
      "name": "permit",
      "outputs": [],
      "stateMutability": "nonpayable",
      "type": "function"
    },
    {
      "inputs": [
        {
          "internalType": "uint256",
          "name": "assets",
          "type": "uint256"
        }
      ],
      "name": "previewDeposit",
      "outputs": [
        {
          "internalType": "uint256",
          "name": "",
          "type": "uint256"
        }
      ],
      "stateMutability": "view",
      "type": "function"
    },
    {
      "inputs": [
        {
          "internalType": "uint256",
          "name": "shares",
          "type": "uint256"
        }
      ],
      "name": "previewMint",
      "outputs": [
        {
          "internalType": "uint256",
          "name": "",
          "type": "uint256"
        }
      ],
      "stateMutability": "view",
      "type": "function"
    },
    {
      "inputs": [
        {
          "internalType": "uint256",
          "name": "shares",
          "type": "uint256"
        }
      ],
      "name": "previewRedeem",
      "outputs": [
        {
          "internalType": "uint256",
          "name": "",
          "type": "uint256"
        }
      ],
      "stateMutability": "view",
      "type": "function"
    },
    {
      "inputs": [
        {
          "internalType": "uint256",
          "name": "assets",
          "type": "uint256"
        }
      ],
      "name": "previewWithdraw",
      "outputs": [
        {
          "internalType": "uint256",
          "name": "",
          "type": "uint256"
        }
      ],
      "stateMutability": "view",
      "type": "function"
    },
    {
      "inputs": [
        {
          "internalType": "uint256",
          "name": "shares",
          "type": "uint256"
        },
        {
          "internalType": "address",
          "name": "receiver",
          "type": "address"
        },
        {
          "internalType": "address",
          "name": "owner",
          "type": "address"
        }
      ],
      "name": "redeem",
      "outputs": [
        {
          "internalType": "uint256",
          "name": "",
          "type": "uint256"
        }
      ],
      "stateMutability": "nonpayable",
      "type": "function"
    },
    {
      "inputs": [],
      "name": "symbol",
      "outputs": [
        {
          "internalType": "string",
          "name": "",
          "type": "string"
        }
      ],
      "stateMutability": "view",
      "type": "function"
    },
    {
      "inputs": [],
      "name": "totalAssets",
      "outputs": [
        {
          "internalType": "uint256",
          "name": "",
          "type": "uint256"
        }
      ],
      "stateMutability": "view",
      "type": "function"
    },
    {
      "inputs": [],
      "name": "totalSupply",
      "outputs": [
        {
          "internalType": "uint256",
          "name": "",
          "type": "uint256"
        }
      ],
      "stateMutability": "view",
      "type": "function"
    },
    {
      "inputs": [
        {
          "internalType": "address",
          "name": "to",
          "type": "address"
        },
        {
          "internalType": "uint256",
          "name": "value",
          "type": "uint256"
        }
      ],
      "name": "transfer",
      "outputs": [
        {
          "internalType": "bool",
          "name": "",
          "type": "bool"
        }
      ],
      "stateMutability": "nonpayable",
      "type": "function"
    },
    {
      "inputs": [
        {
          "internalType": "address",
          "name": "from",
          "type": "address"
        },
        {
          "internalType": "address",
          "name": "to",
          "type": "address"
        },
        {
          "internalType": "uint256",
          "name": "value",
          "type": "uint256"
        }
      ],
      "name": "transferFrom",
      "outputs": [
        {
          "internalType": "bool",
          "name": "",
          "type": "bool"
        }
      ],
      "stateMutability": "nonpayable",
      "type": "function"
    },
    {
      "inputs": [
        {
          "internalType": "uint256",
          "name": "assets",
          "type": "uint256"
        },
        {
          "internalType": "address",
          "name": "receiver",
          "type": "address"
        },
        {
          "internalType": "address",
          "name": "owner",
          "type": "address"
        }
      ],
      "name": "withdraw",
      "outputs": [
        {
          "internalType": "uint256",
          "name": "",
          "type": "uint256"
        }
      ],
      "stateMutability": "nonpayable",
      "type": "function"
    }
  ],
  "bytecode": "0x6101a0806040523461046657602081611cdb8038038091610020828561046a565b83398101031261046657516001600160a01b03811681036104665761004361048d565b9061004c61048d565b60409283519261005c858561046a565b60058452641cdd10951160da1b602085015284519361007b868661046a565b60018552603160f81b60208601908152845190946001600160401b0382116103695760035490600182811c9216801561045c575b602083101461034b5781601f8493116103ee575b50602090601f8311600114610388575f9261037d575b50508160011b915f199060031b1c1916176003555b8051906001600160401b0382116103695760045490600182811c9216801561035f575b602083101461034b5781601f8493116102dd575b50602090601f8311600114610277575f9261026c575b50508160011b915f199060031b1c1916176004555b61015981610787565b9015610264575b60a05260805261016f816104c8565b6101605261017c8361064f565b610180526020815191012091826101205251902080610140524660e05282519060208201927f8b73c3c69bb8fe3d512ecc4cf759cc79239f7b179b0ffacaa9a75d522b39400f84528483015260608201524660808201523060a082015260a081526101e860c08261046a565b51902060c0523061010052516114a1908161083a823960805181818161070601528181610a3e0152610f35015260a05181610763015260c05181610e0c015260e05181610ec901526101005181610dd601526101205181610e5b01526101405181610e81015261016051816105a1015261018051816105ca0152f35b506012610160565b015190505f8061013b565b60045f9081528281209350601f198516905b8181106102c557509084600195949392106102ad575b505050811b01600455610150565b01515f1960f88460031b161c191690555f808061029f565b92936020600181928786015181550195019301610289565b60045f529091507f8a35acfbc15ff81a39ae7d344fd709f28e8600b4aa8c65c6b64bfe7fe36bd19b601f840160051c81019160208510610341575b90601f859493920160051c01905b8181106103335750610125565b5f8155849350600101610326565b9091508190610318565b634e487b7160e01b5f52602260045260245ffd5b91607f1691610111565b634e487b7160e01b5f52604160045260245ffd5b015190505f806100d9565b60035f9081528281209350601f198516905b8181106103d657509084600195949392106103be575b505050811b016003556100ee565b01515f1960f88460031b161c191690555f80806103b0565b9293602060018192878601518155019501930161039a565b60035f529091507fc2575a0e9e593c00f959f8c92f12db2869c3395a3b0502d05e2516446f71f85b601f840160051c81019160208510610452575b90601f859493920160051c01905b81811061044457506100c3565b5f8155849350600101610437565b9091508190610429565b91607f16916100af565b5f80fd5b601f909101601f19168101906001600160401b0382119082101761036957604052565b6040519061049c60408361046a565b601582527f5374616b656420426974636f696e20446f6c6c617200000000000000000000006020830152565b908151602081105f14610542575090601f8151116105025760208151910151602082106104f3571790565b5f198260200360031b1b161790565b604460209160405192839163305a27a960e01b83528160048401528051918291826024860152018484015e5f828201840152601f01601f19168101030190fd5b6001600160401b03811161036957600554600181811c91168015610645575b602082101461034b57601f8111610612575b50602092601f82116001146105b157928192935f926105a6575b50508160011b915f199060031b1c19161760055560ff90565b015190505f8061058d565b601f1982169360055f52805f20915f5b8681106105fa57508360019596106105e2575b505050811b0160055560ff90565b01515f1960f88460031b161c191690555f80806105d4565b919260206001819286850151815501940192016105c1565b60055f52601f60205f20910160051c810190601f830160051c015b81811061063a5750610573565b5f815560010161062d565b90607f1690610561565b908151602081105f1461067a575090601f8151116105025760208151910151602082106104f3571790565b6001600160401b03811161036957600654600181811c9116801561077d575b602082101461034b57601f811161074a575b50602092601f82116001146106e957928192935f926106de575b50508160011b915f199060031b1c19161760065560ff90565b015190505f806106c5565b601f1982169360065f52805f20915f5b868110610732575083600195961061071a575b505050811b0160065560ff90565b01515f1960f88460031b161c191690555f808061070c565b919260206001819286850151815501940192016106f9565b60065f52601f60205f20910160051c810190601f830160051c015b81811061077257506106ab565b5f8155600101610765565b90607f1690610699565b5f8091604051602081019063313ce56760e01b8252600481526107ab60248261046a565b51916001600160a01b03165afa3d15610831573d906001600160401b03821161036957604051916107e6601f8201601f19166020018461046a565b82523d5f602084013e5b80610825575b610802575b505f905f90565b602081805181010312610466576020015160ff81116107fb579060ff6001921690565b506020815110156107f6565b6060906107f056fe60806040526004361015610011575f80fd5b5f3560e01c806301e1d114146108e857806306fdde031461084357806307a2d13a146106ec578063095ea7b31461081d5780630a28a477146107ff57806318160ddd146107e257806323b872dd146107aa578063313ce5671461074f5780633644e5151461073557806338d52e0f146106f1578063402d267d146103595780634cdad506146106ec5780636e553f65146106b957806370a08231146101b15780637ecebe001461068157806384b0196e1461058957806394bf804d1461055657806395d89b4114610474578063a9059cbb14610443578063b3d7f6b914610425578063b460af94146103ca578063ba0876521461035e578063c63d75b614610359578063c6e6f59214610158578063ce96cb7714610336578063d505accf146101f1578063d905777e146101b1578063dd62ed3e1461015d5763ef8b30f714610158575f80fd5b6109cf565b346101ad5760403660031901126101ad57610176610944565b61017e61095a565b6001600160a01b039182165f908152600160209081526040808320949093168252928352819020549051908152f35b5f80fd5b346101ad5760203660031901126101ad5760206101e96101cf610944565b6001600160a01b03165f9081526020819052604090205490565b604051908152f35b346101ad5760e03660031901126101ad5761020a610944565b61021261095a565b604435906064359260843560ff811681036101ad57844211610323576102e66102ef9160018060a01b03841696875f52600760205260405f20908154916001830190556040519060208201927f6e71edae12b1b97f4d1f60370fef10105fa2faae0126114a169c64845d6126c984528a604084015260018060a01b038916606084015289608084015260a083015260c082015260c081526102b460e0826109ed565b5190206102bf610dd3565b906040519161190160f01b83526002830152602282015260c43591604260a4359220611258565b909291926112f8565b6001600160a01b031684810361030c575061030a935061115e565b005b84906325c0072360e11b5f5260045260245260445ffd5b8463313c898160e11b5f5260045260245ffd5b346101ad5760203660031901126101ad5760206101e9610354610944565b610b6c565b610970565b346101ad5761036c36610995565b90916103888260018060a01b03165f525f60205260405f205490565b8082116103a95750806020936103a06101e993610bc5565b93849133610fee565b91632e52afbb60e21b5f5260018060a01b031660045260245260445260645ffd5b346101ad576103d836610995565b90916103e382610b6c565b8082116104045750602092816103fb6101e993610bf2565b93849233610fee565b91633fa733bb60e21b5f5260018060a01b031660045260245260445260645ffd5b346101ad5760203660031901126101ad5760206101e9600435610b97565b346101ad5760403660031901126101ad5761046961045f610944565b6024359033610d16565b602060405160018152f35b346101ad575f3660031901126101ad576040515f60045461049481610ab3565b808452906001811690811561053257506001146104d4575b6104d0836104bc818503826109ed565b604051918291602083526020830190610902565b0390f35b60045f9081527f8a35acfbc15ff81a39ae7d344fd709f28e8600b4aa8c65c6b64bfe7fe36bd19b939250905b808210610518575090915081016020016104bc6104ac565b919260018160209254838588010152019101909291610500565b60ff191660208086019190915291151560051b840190910191506104bc90506104ac565b346101ad5760403660031901126101ad5760206004356101e961057761095a565b9161058181610b97565b809333610eef565b346101ad575f3660031901126101ad576106256105c57f00000000000000000000000000000000000000000000000000000000000000006111c1565b6105ee7f0000000000000000000000000000000000000000000000000000000000000000611221565b60206106336040519261060183856109ed565b5f84525f368137604051958695600f60f81b875260e08588015260e0870190610902565b908582036040870152610902565b4660608501523060808501525f60a085015283810360c08501528180845192838152019301915f5b82811061066a57505050500390f35b83518552869550938101939281019260010161065b565b346101ad5760203660031901126101ad576001600160a01b036106a2610944565b165f526007602052602060405f2054604051908152f35b346101ad5760403660031901126101ad5760206004356101e96106da61095a565b6106e383610c20565b92839133610eef565b610926565b346101ad575f3660031901126101ad576040517f00000000000000000000000000000000000000000000000000000000000000006001600160a01b03168152602090f35b346101ad575f3660031901126101ad5760206101e9610dd3565b346101ad575f3660031901126101ad5760ff7f00000000000000000000000000000000000000000000000000000000000000001660ff811161079657602090604051908152f35b634e487b7160e01b5f52601160045260245ffd5b346101ad5760603660031901126101ad576104696107c6610944565b6107ce61095a565b604435916107dd833383610c4d565b610d16565b346101ad575f3660031901126101ad576020600254604051908152f35b346101ad5760203660031901126101ad5760206101e9600435610bf2565b346101ad5760403660031901126101ad57610469610839610944565b602435903361115e565b346101ad575f3660031901126101ad576040515f60035461086381610ab3565b8084529060018116908115610532575060011461088a576104d0836104bc818503826109ed565b60035f9081527fc2575a0e9e593c00f959f8c92f12db2869c3395a3b0502d05e2516446f71f85b939250905b8082106108ce575090915081016020016104bc6104ac565b9192600181602092548385880101520191019092916108b6565b346101ad575f3660031901126101ad5760206101e9610a23565b805180835260209291819084018484015e5f828201840152601f01601f1916010190565b346101ad5760203660031901126101ad5760206101e9600435610bc5565b600435906001600160a01b03821682036101ad57565b602435906001600160a01b03821682036101ad57565b346101ad5760203660031901126101ad57610989610944565b5060206040515f198152f35b60609060031901126101ad57600435906024356001600160a01b03811681036101ad57906044356001600160a01b03811681036101ad5790565b346101ad5760203660031901126101ad5760206101e9600435610c20565b90601f8019910116810190811067ffffffffffffffff821117610a0f57604052565b634e487b7160e01b5f52604160045260245ffd5b6040516370a0823160e01b81523060048201526020816024817f00000000000000000000000000000000000000000000000000000000000000006001600160a01b03165afa908115610aa8575f91610a79575090565b90506020813d602011610aa0575b81610a94602093836109ed565b810103126101ad575190565b3d9150610a87565b6040513d5f823e3d90fd5b90600182811c92168015610ae1575b6020831014610acd57565b634e487b7160e01b5f52602260045260245ffd5b91607f1691610ac2565b5f9291815491610afa83610ab3565b8083529260018116908115610b4f5750600114610b1657505050565b5f9081526020812093945091925b838310610b35575060209250010190565b600181602092949394548385870101520191019190610b24565b915050602093945060ff929192191683830152151560051b010190565b60018060a01b03165f525f602052610b8760405f2054610bc5565b90565b9190820180921161079657565b610b9f610a23565b9060018201809211610796576002546001810180911161079657610b8792600192611101565b610bcd610a23565b9060018201809211610796576002546001810180911161079657610b87925f92611101565b600254906001820180921161079657610c09610a23565b6001810180911161079657610b8792600192611101565b600254906001820180921161079657610c37610a23565b6001810180911161079657610b87925f92611101565b6001600160a01b039081165f818152600160209081526040808320948616835293905291909120549291905f198410610c87575b50505050565b828410610cf3578015610ce0576001600160a01b03821615610ccd575f52600160205260405f209060018060a01b03165f5260205260405f20910390555f808080610c81565b634a1406b160e11b5f525f60045260245ffd5b63e602df0560e01b5f525f60045260245ffd5b508290637dc7a0d960e11b5f5260018060a01b031660045260245260445260645ffd5b6001600160a01b0316908115610dc0576001600160a01b0316918215610dad57815f525f60205260405f2054818110610d9457817fddf252ad1be2c89b69c2b068fc378daa952ba7f163c4a11628f55a4df523b3ef92602092855f525f84520360405f2055845f525f825260405f20818154019055604051908152a3565b8263391434e360e21b5f5260045260245260445260645ffd5b63ec442f0560e01b5f525f60045260245ffd5b634b637e8f60e11b5f525f60045260245ffd5b307f00000000000000000000000000000000000000000000000000000000000000006001600160a01b03161480610ec6575b15610e2e577f000000000000000000000000000000000000000000000000000000000000000090565b60405160208101907f8b73c3c69bb8fe3d512ecc4cf759cc79239f7b179b0ffacaa9a75d522b39400f82527f000000000000000000000000000000000000000000000000000000000000000060408201527f000000000000000000000000000000000000000000000000000000000000000060608201524660808201523060a082015260a08152610ec060c0826109ed565b51902090565b507f00000000000000000000000000000000000000000000000000000000000000004614610e05565b6040516323b872dd60e01b60208201526001600160a01b039091166024820181905230604483015260648083018590528252929190610f6290610f336084826109ed565b7f00000000000000000000000000000000000000000000000000000000000000006001600160a01b0316611413565b6001600160a01b0316928315610dad577fdcbc1c05240f31ff3ad067ef1ee35ce4997762752e3a095284754544f4c709d79181610fa3604093600254610b8a565b600255855f525f602052825f20818154019055855f7fddf252ad1be2c89b69c2b068fc378daa952ba7f163c4a11628f55a4df523b3ef60208651858152a382519182526020820152a3565b6001600160a01b038084169592949082169390929182908786036110f0575b5050508415610dc057845f525f60205260405f20548181106110d75791816040927ffbde797d201c681b91056529119e0b02407c7bb96a4a2c75c01fc9667232c8db94885f525f60205203835f205580600254036002555f877fddf252ad1be2c89b69c2b068fc378daa952ba7f163c4a11628f55a4df523b3ef60208651858152a3825163a9059cbb60e01b60208201526001600160a01b039096166024870181905260448088018490528752956110ca90610f336064826109ed565b82519182526020820152a4565b8563391434e360e21b5f5260045260245260445260645ffd5b6110f992610c4d565b5f818161100d565b9291600180611111838588611374565b9461111b816112da565b16149182611133575b5050610b879250151590610b8a565b908092501561114a57610b87930915155f80611124565b634e487b7160e01b5f52601260045260245ffd5b6001600160a01b0316908115610ce0576001600160a01b0316918215610ccd5760207f8c5be1e5ebec7d5bd14f71427d1e84f3dd0314c0f7b2291e5b200ac8c7c3b92591835f526001825260405f20855f5282528060405f2055604051908152a3565b60ff81146112075760ff811690601f82116111f857604051916111e56040846109ed565b6020808452838101919036833783525290565b632cd44ac360e21b5f5260045ffd5b50604051610b878161121a816005610aeb565b03826109ed565b60ff81146112455760ff811690601f82116111f857604051916111e56040846109ed565b50604051610b878161121a816006610aeb565b91907f7fffffffffffffffffffffffffffffff5d576e7357a4501ddfe92f46681b20a084116112cf579160209360809260ff5f9560405194855216868401526040830152606082015282805260015afa15610aa8575f516001600160a01b038116156112c557905f905f90565b505f906001905f90565b5050505f9160039190565b600411156112e457565b634e487b7160e01b5f52602160045260245ffd5b611301816112da565b8061130a575050565b611313816112da565b6001810361132a5763f645eedf60e01b5f5260045ffd5b611333816112da565b6002810361134e575063fce698f760e01b5f5260045260245ffd5b60039061135a816112da565b146113625750565b6335e2f38360e21b5f5260045260245ffd5b90915f19838309928083029283808610950394808603951461140557848311156113ed5790829109815f0382168092046002816003021880820260020302808202600203028082026002030280820260020302808202600203028091026002030293600183805f03040190848311900302920304170290565b82634e487b715f52156003026011186020526024601cfd5b50508092501561114a570490565b905f602091828151910182855af115610aa8575f513d61146257506001600160a01b0381163b155b6114425750565b635274afe760e01b5f9081526001600160a01b0391909116600452602490fd5b6001141561143b56fea2646970667358221220c826010e79aa0f0290de1d5da2d00253127466cdc0787987f9499361e614b58d64736f6c634300081e0033",
  "linkReferences": {},
  "deployedLinkReferences": {},
  "immutableReferences": {
    "10140": [
      {
        "length": 32,
        "start": 1798
      },
      {
        "length": 32,
        "start": 2622
      },
      {
        "length": 32,
        "start": 3893
      }
    ],
    "10142": [
      {
        "length": 32,
        "start": 1891
      }
    ],
    "14307": [
      {
        "length": 32,
        "start": 3596
      }
    ],
    "14309": [
      {
        "length": 32,
        "start": 3785
      }
    ],
    "14311": [
      {
        "length": 32,
        "start": 3542
      }
    ],
    "14313": [
      {
        "length": 32,
        "start": 3675
      }
    ],
    "14315": [
      {
        "length": 32,
        "start": 3713
      }
    ],
    "14318": [
      {
        "length": 32,
        "start": 1441
      }
    ],
    "14321": [
      {
        "length": 32,
        "start": 1482
      }
    ]
  },
  "inputSourceName": "project/contracts/stBTD.sol",
  "buildInfoId": "solc-0_8_30-53912771f68c89d1d8ffad4452b66ac349641e0c"
}