{
  "_format": "hh3-artifact-1",
  "contractName": "FarmingPool",
  "sourceName": "contracts/FarmingPool.sol",
  "abi": [
    {
      "inputs": [
        {
          "internalType": "address",
          "name": "owner_",
          "type": "address"
        },
        {
          "internalType": "address",
          "name": "rewardToken_",
          "type": "address"
        },
        {
          "internalType": "address",
          "name": "_core",
          "type": "address"
        },
        {
          "internalType": "address[]",
          "name": "initialFunds",
          "type": "address[]"
        },
        {
          "internalType": "uint256[]",
          "name": "initialShares",
          "type": "uint256[]"
        }
      ],
      "stateMutability": "nonpayable",
      "type": "constructor"
    },
    {
      "inputs": [
        {
          "internalType": "address",
          "name": "owner",
          "type": "address"
        }
      ],
      "name": "OwnableInvalidOwner",
      "type": "error"
    },
    {
      "inputs": [
        {
          "internalType": "address",
          "name": "account",
          "type": "address"
        }
      ],
      "name": "OwnableUnauthorizedAccount",
      "type": "error"
    },
    {
      "inputs": [],
      "name": "ReentrancyGuardReentrantCall",
      "type": "error"
    },
    {
      "inputs": [
        {
          "internalType": "address",
          "name": "token",
          "type": "address"
        }
      ],
      "name": "SafeERC20FailedOperation",
      "type": "error"
    },
    {
      "anonymous": false,
      "inputs": [
        {
          "indexed": true,
          "internalType": "address",
          "name": "user",
          "type": "address"
        },
        {
          "indexed": true,
          "internalType": "uint256",
          "name": "pid",
          "type": "uint256"
        },
        {
          "indexed": false,
          "internalType": "uint256",
          "name": "amount",
          "type": "uint256"
        }
      ],
      "name": "Claim",
      "type": "event"
    },
    {
      "anonymous": false,
      "inputs": [
        {
          "indexed": true,
          "internalType": "address",
          "name": "user",
          "type": "address"
        },
        {
          "indexed": true,
          "internalType": "uint256",
          "name": "pid",
          "type": "uint256"
        },
        {
          "indexed": false,
          "internalType": "uint256",
          "name": "amount",
          "type": "uint256"
        }
      ],
      "name": "Deposit",
      "type": "event"
    },
    {
      "anonymous": false,
      "inputs": [
        {
          "indexed": true,
          "internalType": "address",
          "name": "user",
          "type": "address"
        },
        {
          "indexed": true,
          "internalType": "uint256",
          "name": "pid",
          "type": "uint256"
        },
        {
          "indexed": false,
          "internalType": "uint256",
          "name": "amount",
          "type": "uint256"
        }
      ],
      "name": "EmergencyWithdraw",
      "type": "event"
    },
    {
      "anonymous": false,
      "inputs": [
        {
          "indexed": true,
          "internalType": "uint256",
          "name": "pid",
          "type": "uint256"
        },
        {
          "indexed": false,
          "internalType": "uint256",
          "name": "newValuePerToken",
          "type": "uint256"
        },
        {
          "indexed": false,
          "internalType": "uint256",
          "name": "timestamp",
          "type": "uint256"
        }
      ],
      "name": "LPValueUpdated",
      "type": "event"
    },
    {
      "anonymous": false,
      "inputs": [
        {
          "indexed": true,
          "internalType": "address",
          "name": "previousOwner",
          "type": "address"
        },
        {
          "indexed": true,
          "internalType": "address",
          "name": "newOwner",
          "type": "address"
        }
      ],
      "name": "OwnershipTransferred",
      "type": "event"
    },
    {
      "anonymous": false,
      "inputs": [
        {
          "indexed": true,
          "internalType": "address",
          "name": "from",
          "type": "address"
        },
        {
          "indexed": false,
          "internalType": "uint256",
          "name": "amount",
          "type": "uint256"
        }
      ],
      "name": "RewardsFunded",
      "type": "event"
    },
    {
      "anonymous": false,
      "inputs": [
        {
          "indexed": true,
          "internalType": "address",
          "name": "user",
          "type": "address"
        },
        {
          "indexed": true,
          "internalType": "uint256",
          "name": "pid",
          "type": "uint256"
        },
        {
          "indexed": false,
          "internalType": "uint256",
          "name": "amount",
          "type": "uint256"
        }
      ],
      "name": "Withdraw",
      "type": "event"
    },
    {
      "inputs": [],
      "name": "PRICE_UPDATE_INTERVAL",
      "outputs": [
        {
          "internalType": "uint256",
          "name": "",
          "type": "uint256"
        }
      ],
      "stateMutability": "view",
      "type": "function"
    },
    {
      "inputs": [],
      "name": "SHARE_BASE",
      "outputs": [
        {
          "internalType": "uint256",
          "name": "",
          "type": "uint256"
        }
      ],
      "stateMutability": "view",
      "type": "function"
    },
    {
      "inputs": [
        {
          "internalType": "contract IERC20",
          "name": "token",
          "type": "address"
        },
        {
          "internalType": "uint256",
          "name": "allocPoint",
          "type": "uint256"
        },
        {
          "internalType": "enum IFarmingPool.PoolKind",
          "name": "kind",
          "type": "uint8"
        }
      ],
      "name": "addPool",
      "outputs": [],
      "stateMutability": "nonpayable",
      "type": "function"
    },
    {
      "inputs": [
        {
          "internalType": "contract IERC20",
          "name": "token",
          "type": "address"
        },
        {
          "internalType": "uint256",
          "name": "allocPoint",
          "type": "uint256"
        },
        {
          "internalType": "enum IFarmingPool.PoolKind",
          "name": "kind",
          "type": "uint8"
        },
        {
          "internalType": "bool",
          "name": "withUpdate",
          "type": "bool"
        }
      ],
      "name": "addPool",
      "outputs": [],
      "stateMutability": "nonpayable",
      "type": "function"
    },
    {
      "inputs": [
        {
          "internalType": "contract IERC20[]",
          "name": "tokens",
          "type": "address[]"
        },
        {
          "internalType": "uint256[]",
          "name": "allocPoints",
          "type": "uint256[]"
        },
        {
          "internalType": "enum IFarmingPool.PoolKind[]",
          "name": "kinds",
          "type": "uint8[]"
        }
      ],
      "name": "addPools",
      "outputs": [],
      "stateMutability": "nonpayable",
      "type": "function"
    },
    {
      "inputs": [],
      "name": "brs",
      "outputs": [
        {
          "internalType": "address",
          "name": "",
          "type": "address"
        }
      ],
      "stateMutability": "view",
      "type": "function"
    },
    {
      "inputs": [
        {
          "internalType": "uint256",
          "name": "pid",
          "type": "uint256"
        }
      ],
      "name": "claim",
      "outputs": [],
      "stateMutability": "nonpayable",
      "type": "function"
    },
    {
      "inputs": [
        {
          "internalType": "uint256",
          "name": "pid",
          "type": "uint256"
        },
        {
          "internalType": "address",
          "name": "account",
          "type": "address"
        }
      ],
      "name": "claimFor",
      "outputs": [],
      "stateMutability": "nonpayable",
      "type": "function"
    },
    {
      "inputs": [],
      "name": "core",
      "outputs": [
        {
          "internalType": "contract ConfigCore",
          "name": "",
          "type": "address"
        }
      ],
      "stateMutability": "view",
      "type": "function"
    },
    {
      "inputs": [],
      "name": "currentRewardPerSecond",
      "outputs": [
        {
          "internalType": "uint256",
          "name": "",
          "type": "uint256"
        }
      ],
      "stateMutability": "view",
      "type": "function"
    },
    {
      "inputs": [
        {
          "internalType": "uint256",
          "name": "pid",
          "type": "uint256"
        },
        {
          "internalType": "uint256",
          "name": "amount",
          "type": "uint256"
        }
      ],
      "name": "deposit",
      "outputs": [],
      "stateMutability": "nonpayable",
      "type": "function"
    },
    {
      "inputs": [
        {
          "internalType": "uint256",
          "name": "pid",
          "type": "uint256"
        },
        {
          "internalType": "uint256",
          "name": "amount",
          "type": "uint256"
        },
        {
          "internalType": "address",
          "name": "onBehalfOf",
          "type": "address"
        }
      ],
      "name": "depositFor",
      "outputs": [],
      "stateMutability": "nonpayable",
      "type": "function"
    },
    {
      "inputs": [
        {
          "internalType": "uint256",
          "name": "pid",
          "type": "uint256"
        }
      ],
      "name": "emergencyWithdraw",
      "outputs": [],
      "stateMutability": "nonpayable",
      "type": "function"
    },
    {
      "inputs": [
        {
          "internalType": "uint256",
          "name": "",
          "type": "uint256"
        }
      ],
      "name": "fundAddrs",
      "outputs": [
        {
          "internalType": "address",
          "name": "",
          "type": "address"
        }
      ],
      "stateMutability": "view",
      "type": "function"
    },
    {
      "inputs": [
        {
          "internalType": "uint256",
          "name": "amount",
          "type": "uint256"
        }
      ],
      "name": "fundRewards",
      "outputs": [],
      "stateMutability": "nonpayable",
      "type": "function"
    },
    {
      "inputs": [
        {
          "internalType": "uint256",
          "name": "",
          "type": "uint256"
        }
      ],
      "name": "fundShares",
      "outputs": [
        {
          "internalType": "uint256",
          "name": "",
          "type": "uint256"
        }
      ],
      "stateMutability": "view",
      "type": "function"
    },
    {
      "inputs": [],
      "name": "massUpdatePools",
      "outputs": [],
      "stateMutability": "nonpayable",
      "type": "function"
    },
    {
      "inputs": [],
      "name": "minted",
      "outputs": [
        {
          "internalType": "uint256",
          "name": "",
          "type": "uint256"
        }
      ],
      "stateMutability": "view",
      "type": "function"
    },
    {
      "inputs": [
        {
          "internalType": "uint256",
          "name": "pid",
          "type": "uint256"
        }
      ],
      "name": "needsUpdate",
      "outputs": [
        {
          "internalType": "bool",
          "name": "needs",
          "type": "bool"
        },
        {
          "internalType": "uint256",
          "name": "timeSince",
          "type": "uint256"
        }
      ],
      "stateMutability": "view",
      "type": "function"
    },
    {
      "inputs": [],
      "name": "owner",
      "outputs": [
        {
          "internalType": "address",
          "name": "",
          "type": "address"
        }
      ],
      "stateMutability": "view",
      "type": "function"
    },
    {
      "inputs": [
        {
          "internalType": "uint256",
          "name": "pid",
          "type": "uint256"
        },
        {
          "internalType": "address",
          "name": "account",
          "type": "address"
        }
      ],
      "name": "pendingReward",
      "outputs": [
        {
          "internalType": "uint256",
          "name": "",
          "type": "uint256"
        }
      ],
      "stateMutability": "view",
      "type": "function"
    },
    {
      "inputs": [
        {
          "internalType": "uint256",
          "name": "pid",
          "type": "uint256"
        }
      ],
      "name": "poolInfo",
      "outputs": [
        {
          "internalType": "contract IERC20",
          "name": "lpToken",
          "type": "address"
        },
        {
          "internalType": "uint256",
          "name": "allocPoint",
          "type": "uint256"
        },
        {
          "internalType": "uint256",
          "name": "lastRewardTime",
          "type": "uint256"
        },
        {
          "internalType": "uint256",
          "name": "accRewardPerShare",
          "type": "uint256"
        },
        {
          "internalType": "uint256",
          "name": "totalStaked",
          "type": "uint256"
        },
        {
          "internalType": "uint256",
          "name": "cachedLPValuePerToken",
          "type": "uint256"
        },
        {
          "internalType": "uint256",
          "name": "lastPriceUpdate",
          "type": "uint256"
        },
        {
          "internalType": "enum IFarmingPool.PoolKind",
          "name": "kind",
          "type": "uint8"
        }
      ],
      "stateMutability": "view",
      "type": "function"
    },
    {
      "inputs": [
        {
          "internalType": "uint256",
          "name": "pid",
          "type": "uint256"
        }
      ],
      "name": "poolKind",
      "outputs": [
        {
          "internalType": "enum IFarmingPool.PoolKind",
          "name": "",
          "type": "uint8"
        }
      ],
      "stateMutability": "view",
      "type": "function"
    },
    {
      "inputs": [],
      "name": "poolLength",
      "outputs": [
        {
          "internalType": "uint256",
          "name": "",
          "type": "uint256"
        }
      ],
      "stateMutability": "view",
      "type": "function"
    },
    {
      "inputs": [],
      "name": "renounceOwnership",
      "outputs": [],
      "stateMutability": "nonpayable",
      "type": "function"
    },
    {
      "inputs": [],
      "name": "rewardToken",
      "outputs": [
        {
          "internalType": "contract IERC20",
          "name": "",
          "type": "address"
        }
      ],
      "stateMutability": "view",
      "type": "function"
    },
    {
      "inputs": [
        {
          "internalType": "address[]",
          "name": "addrs",
          "type": "address[]"
        },
        {
          "internalType": "uint256[]",
          "name": "shares",
          "type": "uint256[]"
        }
      ],
      "name": "setFunds",
      "outputs": [],
      "stateMutability": "nonpayable",
      "type": "function"
    },
    {
      "inputs": [
        {
          "internalType": "uint256",
          "name": "pid",
          "type": "uint256"
        },
        {
          "internalType": "uint256",
          "name": "allocPoint",
          "type": "uint256"
        },
        {
          "internalType": "bool",
          "name": "withUpdate",
          "type": "bool"
        }
      ],
      "name": "setPool",
      "outputs": [],
      "stateMutability": "nonpayable",
      "type": "function"
    },
    {
      "inputs": [],
      "name": "startTime",
      "outputs": [
        {
          "internalType": "uint256",
          "name": "",
          "type": "uint256"
        }
      ],
      "stateMutability": "view",
      "type": "function"
    },
    {
      "inputs": [],
      "name": "totalAllocPoint",
      "outputs": [
        {
          "internalType": "uint256",
          "name": "",
          "type": "uint256"
        }
      ],
      "stateMutability": "view",
      "type": "function"
    },
    {
      "inputs": [
        {
          "internalType": "address",
          "name": "newOwner",
          "type": "address"
        }
      ],
      "name": "transferOwnership",
      "outputs": [],
      "stateMutability": "nonpayable",
      "type": "function"
    },
    {
      "inputs": [
        {
          "internalType": "uint256",
          "name": "pid",
          "type": "uint256"
        }
      ],
      "name": "updateLPValue",
      "outputs": [],
      "stateMutability": "nonpayable",
      "type": "function"
    },
    {
      "inputs": [
        {
          "internalType": "uint256",
          "name": "pid",
          "type": "uint256"
        }
      ],
      "name": "updatePool",
      "outputs": [],
      "stateMutability": "nonpayable",
      "type": "function"
    },
    {
      "inputs": [
        {
          "internalType": "uint256",
          "name": "pid",
          "type": "uint256"
        },
        {
          "internalType": "address",
          "name": "user",
          "type": "address"
        }
      ],
      "name": "userInfo",
      "outputs": [
        {
          "internalType": "uint256",
          "name": "amount",
          "type": "uint256"
        },
        {
          "internalType": "uint256",
          "name": "rewardDebt",
          "type": "uint256"
        }
      ],
      "stateMutability": "view",
      "type": "function"
    },
    {
      "inputs": [
        {
          "internalType": "uint256",
          "name": "pid",
          "type": "uint256"
        },
        {
          "internalType": "uint256",
          "name": "amount",
          "type": "uint256"
        }
      ],
      "name": "withdraw",
      "outputs": [],
      "stateMutability": "nonpayable",
      "type": "function"
    },
    {
      "inputs": [
        {
          "internalType": "uint256",
          "name": "pid",
          "type": "uint256"
        },
        {
          "internalType": "uint256",
          "name": "amount",
          "type": "uint256"
        },
        {
          "internalType": "address",
          "name": "onBehalfOf",
          "type": "address"
        },
        {
          "internalType": "address",
          "name": "to",
          "type": "address"
        }
      ],
      "name": "withdrawFor",
      "outputs": [],
      "stateMutability": "nonpayable",
      "type": "function"
    }
  ],
  "bytecode": "0x60e060405234801561000f575f5ffd5b5060405161384a38038061384a83398101604081905261002e9161048d565b846001600160a01b03811661005d57604051631e4fbdf760e01b81525f60048201526024015b60405180910390fd5b61006681610198565b50600180556001600160a01b0385166100c15760405162461bcd60e51b815260206004820152601a60248201527f4661726d696e67506f6f6c3a20696e76616c6964206f776e65720000000000006044820152606401610054565b6001600160a01b0384166101175760405162461bcd60e51b815260206004820152601860248201527f4661726d696e67506f6f6c3a207a65726f2072657761726400000000000000006044820152606401610054565b6001600160a01b03831661016d5760405162461bcd60e51b815260206004820152601660248201527f4661726d696e67506f6f6c3a207a65726f20636f7265000000000000000000006044820152606401610054565b6001600160a01b03808516608052831660a0524260c05261018e82826101e7565b50505050506105ba565b5f80546001600160a01b038381166001600160a01b0319831681178455604051919092169283917f8be0079c531659141344cd1fd0a4f28419497f9722a3daafe3b4186f6b6457e09190a35050565b80518251146102385760405162461bcd60e51b815260206004820152601c60248201527f4661726d696e67506f6f6c3a206c656e677468206d69736d61746368000000006044820152606401610054565b5f805b82518110156102735782818151811061025657610256610581565b6020026020010151826102699190610595565b915060010161023b565b5060648111156102c55760405162461bcd60e51b815260206004820152601f60248201527f4661726d696e67506f6f6c3a20736861726573206578636565642031303025006044820152606401610054565b82516102d89060069060208601906102f2565b5081516102ec906007906020850190610355565b50505050565b828054828255905f5260205f20908101928215610345579160200282015b8281111561034557825182546001600160a01b0319166001600160a01b03909116178255602090920191600190910190610310565b5061035192915061038e565b5090565b828054828255905f5260205f20908101928215610345579160200282015b82811115610345578251825591602001919060010190610373565b5b80821115610351575f815560010161038f565b80516001600160a01b03811681146103b8575f5ffd5b919050565b634e487b7160e01b5f52604160045260245ffd5b604051601f8201601f191681016001600160401b03811182821017156103f9576103f96103bd565b604052919050565b5f6001600160401b03821115610419576104196103bd565b5060051b60200190565b5f82601f830112610432575f5ffd5b815161044561044082610401565b6103d1565b8082825260208201915060208360051b860101925085831115610466575f5ffd5b602085015b8381101561048357805183526020928301920161046b565b5095945050505050565b5f5f5f5f5f60a086880312156104a1575f5ffd5b6104aa866103a2565b94506104b8602087016103a2565b93506104c6604087016103a2565b60608701519093506001600160401b038111156104e1575f5ffd5b8601601f810188136104f1575f5ffd5b80516104ff61044082610401565b8082825260208201915060208360051b85010192508a831115610520575f5ffd5b6020840193505b8284101561054957610538846103a2565b825260209384019390910190610527565b60808a0151909550925050506001600160401b03811115610568575f5ffd5b61057488828901610423565b9150509295509295909350565b634e487b7160e01b5f52603260045260245ffd5b808201808211156105b457634e487b7160e01b5f52601160045260245ffd5b92915050565b60805160a05160c0516131ef61065b5f395f818161039e015261177b01525f81816104d0015281816121b90152818161223b0152818161233301528181612407015281816124db015281816125af015281816127390152818161280e015281816128a8015261295201525f81816102c10152818161050a01528181610ac801528181610ea7015281816112dd015281816116490152611d5401526131ef5ff3fe608060405234801561000f575f5ffd5b5060043610610213575f3560e01c8063715018a61161011f57806398969e82116100a9578063ee937e8211610079578063ee937e82146104ba578063ef0e0d3a146104c3578063f2f4eb26146104cb578063f2fde38b146104f2578063f7c618c114610505575f5ffd5b806398969e8214610457578063be0bcfed1461046a578063d7ba206214610494578063e2bbb158146104a7575f5ffd5b8063867cbb5e116100ef578063867cbb5e146103e65780638da5cb5b146103f957806390210d7e1461040957806393707a191461041c57806393f1a40b1461042f575f5ffd5b8063715018a61461039157806378e97925146103995780638249f7bf146103c057806383278b01146103d3575f5ffd5b8063441a3e70116101a057806351eb05a61161017057806351eb05a6146103485780635312ea8e1461035b578063546634111461036e578063630b5ba1146103815780636bac976c14610389575f5ffd5b8063441a3e70146102f957806346ca6bea1461030c5780634835dd4a1461031f5780634f02c4201461033f575f5ffd5b806317caf6f1116101e657806317caf6f11461027d57806330478415146102865780633685be5c14610299578063379607f5146102ac5780633b47ef56146102bf575f5ffd5b8063081e3eda146102175780630b56cecf1461022e57806310ee3f00146102435780631526fe2714610256575b5f5ffd5b6003545b6040519081526020015b60405180910390f35b61024161023c366004612bb2565b61052c565b005b610241610251366004612c32565b6105a5565b610269610264366004612c60565b6105f3565b604051610225989796959493929190612cab565b61021b60055481565b610241610294366004612d00565b610671565b6102416102a7366004612db2565b6107a2565b6102416102ba366004612c60565b6107bb565b7f00000000000000000000000000000000000000000000000000000000000000005b6040516001600160a01b039091168152602001610225565b610241610307366004612ded565b6107d9565b61024161031a366004612e1c565b6107ed565b61033261032d366004612c60565b610850565b6040516102259190612e45565b61021b60025481565b610241610356366004612c60565b610880565b610241610369366004612c60565b610b3e565b6102e161037c366004612c60565b610c4d565b610241610c75565b61021b606481565b610241610c93565b61021b7f000000000000000000000000000000000000000000000000000000000000000081565b6102416103ce366004612c60565b610ca6565b6102416103e1366004612e53565b610d9b565b6102416103f4366004612e9a565b610df4565b5f546001600160a01b03166102e1565b610241610417366004612ee6565b610e08565b61024161042a366004612c60565b610e4b565b61044261043d366004612c32565b610f07565b60408051928352602083019190915201610225565b61021b610465366004612c32565b610f38565b61047d610478366004612c60565b61101d565b604080519215158352602083019190915201610225565b61021b6104a2366004612c60565b61108e565b6102416104b5366004612ded565b6110ad565b61021b610e1081565b61021b6110c1565b6102e17f000000000000000000000000000000000000000000000000000000000000000081565b610241610500366004612f1c565b6110cf565b6102e17f000000000000000000000000000000000000000000000000000000000000000081565b610534611109565b61059f8484808060200260200160405190810160405280939291908181526020018383602002808284375f92019190915250506040805160208088028281018201909352878252909350879250869182918501908490808284375f9201919091525061113592505050565b50505050565b6105ad61123a565b6001600160a01b0381166105dc5760405162461bcd60e51b81526004016105d390612f37565b60405180910390fd5b6105e68282611264565b6105ef60018055565b5050565b5f5f5f5f5f5f5f5f5f60038a8154811061060f5761060f612f6e565b5f918252602090912060089091020180546001820154600283015460038401546004850154600586015460068701546007909701546001600160a01b039096169f50939d50919b5099509750955090935060ff16915050919395975091939597565b610679611109565b8483146106c85760405162461bcd60e51b815260206004820152601c60248201527f4661726d696e67506f6f6c3a206c656e677468206d69736d617463680000000060448201526064016105d3565b8481146107175760405162461bcd60e51b815260206004820152601a60248201527f4661726d696e67506f6f6c3a206b696e64206d69736d6174636800000000000060448201526064016105d3565b5f5b858110156107995761079185858381811061073657610736612f6e565b9050602002013588888481811061074f5761074f612f6e565b90506020020160208101906107649190612f1c565b85858581811061077657610776612f6e565b905060200201602081019061078b9190612f82565b5f611369565b600101610719565b50505050505050565b6107aa611109565b6107b68284835f611369565b505050565b6107c361123a565b6107cd8133611264565b6107d660018055565b50565b6107e161123a565b6105e68282333361148c565b6107f5611109565b801561080357610803610c75565b5f6003848154811061081757610817612f6e565b905f5260205f20906008020190508281600101546005546108389190612faf565b6108429190612fc2565b600555600101919091555050565b5f6003828154811061086457610864612f6e565b5f91825260209091206007600890920201015460ff1692915050565b5f6003828154811061089457610894612f6e565b905f5260205f2090600802019050806002015442116108b1575050565b60048101548015806108c35750600554155b156108d357504260029091015550565b5f8260020154426108e49190612faf565b90505f610900826108f3611761565b86600101546005546117d0565b905061091b600254826b06c9144c1c690d4cb4000000611815565b9050805f03610934574284600201819055505050505050565b8060025f8282546109459190612fc2565b909155505f9050805f19815b6006548110156109fb575f6001600160a01b03166006828154811061097857610978612f6e565b5f918252602090912001546001600160a01b03161480159061099b575060075481105b80156109c157505f600782815481106109b6576109b6612f6e565b905f5260205f200154115b156109f357600781815481106109d9576109d9612f6e565b905f5260205f200154836109ed9190612fc2565b92508091505b600101610951565b505f5b600654811015610b08575f60068281548110610a1c57610a1c612f6e565b5f9182526020822001546007546001600160a01b0390911692508310610a42575f610a5f565b60078381548110610a5557610a55612f6e565b905f5260205f2001545b90506001600160a01b03821615801590610a7857505f81115b15610afe575f848403610aa6575f610a9289886064611856565b9050610a9e8882612faf565b915050610ab5565b610ab288836064611856565b90505b8015610afc57610aef6001600160a01b037f0000000000000000000000000000000000000000000000000000000000000000168483611906565b610af98188612fc2565b96505b505b50506001016109fe565b505f610b148486612faf565b9050610b2588600301548289611965565b6003890155505042600290960195909555505050505050565b610b4661123a565b5f60038281548110610b5a57610b5a612f6e565b5f9182526020808320858452600482526040808520338652909252922080546008909202909201925080610bd05760405162461bcd60e51b815260206004820181905260248201527f4661726d696e67506f6f6c3a206e6f7468696e6720746f20776974686472617760448201526064016105d3565b5f80835560018301819055600484018054839290610bef908490612faf565b90915550508254610c0a906001600160a01b03163383611906565b604051818152849033907fbb757047c2b5f3974fe26b7c10f732e7bce710b0952a71082702781e62ae05959060200160405180910390a35050506107d660018055565b60068181548110610c5c575f80fd5b5f918252602090912001546001600160a01b0316905081565b6003545f5b818110156105ef57610c8b81610880565b600101610c7a565b610c9b611109565b610ca45f611997565b565b5f60038281548110610cba57610cba612f6e565b5f918252602090912060089091020190506001600782015460ff166001811115610ce657610ce6612c77565b14610d295760405162461bcd60e51b815260206004820152601360248201527204661726d696e67506f6f6c3a206e6f74204c5606c1b60448201526064016105d3565b80545f90610d48906001600160a01b0316670de0b6b3a76400006119e6565b60058301819055426006840181905560408051838152602081019290925291925084917fa56b1a875186c55b67169d8896a02376ad70d29b36a16493cff36d2f2795b6d1910160405180910390a2505050565b610da361123a565b6001600160a01b03821615801590610dc357506001600160a01b03811615155b610ddf5760405162461bcd60e51b81526004016105d390612f37565b610deb8484848461148c565b61059f60018055565b610dfc611109565b61059f83858484611369565b610e1061123a565b6001600160a01b038116610e365760405162461bcd60e51b81526004016105d390612f37565b610e4283833384611cd4565b6107b660018055565b5f8111610e9a5760405162461bcd60e51b815260206004820152601860248201527f4661726d696e67506f6f6c3a20616d6f756e74207a65726f000000000000000060448201526064016105d3565b610ecf6001600160a01b037f000000000000000000000000000000000000000000000000000000000000000016333084611f4f565b60405181815233907fd53214ca07be5520e229c395f05a3e5c0697ec6279184ffbe2758d304fd322cc9060200160405180910390a250565b5f8281526004602090815260408083206001600160a01b0385168452909152902080546001909101545b9250929050565b5f5f60038481548110610f4d57610f4d612f6e565b5f9182526020808320878452600480835260408086206001600160a01b038a168752909352919093206003600890930290930191820154908201546002830154929450909142118015610f9f57505f81115b15610ffe575f846002015442610fb59190612faf565b90505f610fd182610fc4611761565b88600101546005546117d0565b9050610fec600254826b06c9144c1c690d4cb4000000611815565b9050610ff9848285611965565b935050505b611010835f0154838560010154611f88565b9450505050505b92915050565b5f5f5f6003848154811061103357611033612f6e565b5f918252602090912060089091020190506001600782015460ff16600181111561105f5761105f612c77565b1461106f57505f93849350915050565b600681015461107e9042612faf565b9150610e10821015925050915091565b6007818154811061109d575f80fd5b5f91825260209091200154905081565b6110b561123a565b6105e682823333611cd4565b5f6110ca611761565b905090565b6110d7611109565b6001600160a01b03811661110057604051631e4fbdf760e01b81525f60048201526024016105d3565b6107d681611997565b5f546001600160a01b03163314610ca45760405163118cdaa760e01b81523360048201526024016105d3565b80518251146111865760405162461bcd60e51b815260206004820152601c60248201527f4661726d696e67506f6f6c3a206c656e677468206d69736d617463680000000060448201526064016105d3565b5f805b82518110156111c1578281815181106111a4576111a4612f6e565b6020026020010151826111b79190612fc2565b9150600101611189565b5060648111156112135760405162461bcd60e51b815260206004820152601f60248201527f4661726d696e67506f6f6c3a207368617265732065786365656420313030250060448201526064016105d3565b8251611226906006906020860190612ac1565b50815161059f906007906020850190612b24565b60026001540361125d57604051633ee5aeb560e01b815260040160405180910390fd5b6002600155565b5f6003838154811061127857611278612f6e565b5f91825260208083208684526004825260408085206001600160a01b03881686529092529220600890910290910191506112b184610880565b5f6112c8825f015484600301548460010154611f88565b90508015611349576113046001600160a01b037f0000000000000000000000000000000000000000000000000000000000000000168583611906565b84846001600160a01b03167f34fcbac0073d7c3d388e51312faf357774904998eeb8fca628b9e6f65ee1cbf78360405161134091815260200190565b60405180910390a35b61135a825f01548460030154611fb3565b82600101819055505050505050565b801561137757611377610c75565b8360055f8282546113889190612fc2565b925050819055506003604051806101000160405280856001600160a01b031681526020018681526020014281526020015f81526020015f81526020015f81526020015f81526020018460018111156113e2576113e2612c77565b90528154600180820184555f938452602093849020835160089093020180546001600160a01b0319166001600160a01b03909316929092178255928201518184015560408201516002820155606082015160038201556080820151600482015560a0820151600582015560c0820151600682015560e0820151600782018054939492939192909160ff191690838181111561147f5761147f612c77565b0217905550505050505050565b5f600385815481106114a0576114a0612f6e565b5f91825260208083208884526004825260408085206001600160a01b0389168652909252922080546008909202909201925085111561152d5760405162461bcd60e51b8152602060048201526024808201527f4661726d696e67506f6f6c3a2077697468647261772065786365656473207374604482015263185ad95960e21b60648201526084016105d3565b841561161457600782015461154690879060ff16611fdb565b60078201545f9061155d908490889060ff166120a5565b905066038d7ea4c680008110156115b65760405162461bcd60e51b815260206004820152601f60248201527f4661726d696e67506f6f6c3a20776974686472617720746f6f20736d616c6c0060448201526064016105d3565b6b033b2e3c9fd0803ce80000008111156116125760405162461bcd60e51b815260206004820152601f60248201527f4661726d696e67506f6f6c3a20776974686472617720746f6f206c617267650060448201526064016105d3565b505b61161d86610880565b5f611634825f015484600301548460010154611f88565b905080156116b5576116706001600160a01b037f0000000000000000000000000000000000000000000000000000000000000000168683611906565b86856001600160a01b03167f34fcbac0073d7c3d388e51312faf357774904998eeb8fca628b9e6f65ee1cbf7836040516116ac91815260200190565b60405180910390a35b85156117025785825f015f8282546116cd9190612faf565b9250508190555085836004015f8282546116e79190612faf565b90915550508254611702906001600160a01b03168588611906565b611713825f01548460030154611fb3565b600183015560405186815287906001600160a01b038716907ff279e6a1f5e320cca91135676d9cb6e44ca8a08c0b88342bcdb1144f6511b5689060200160405180910390a350505050505050565b5f6005545f0361177057505f90565b5f630784ce006117a07f000000000000000000000000000000000000000000000000000000000000000042612faf565b6117aa9190612fe9565b90505f6117c7630784ce006b03648a260e3486a65a000000612fe9565b90911c92915050565b5f8415806117dc575083155b806117e5575081155b156117f157505f61180d565b5f6117fd858585611856565b90506118098682613008565b9150505b949350505050565b5f8215806118235750818410155b1561182f57505f61184f565b5f61183a8584612faf565b9050808411611849578361184b565b805b9150505b9392505050565b5f5f5f611863868661211c565b91509150815f036118875783818161187d5761187d612fd5565b049250505061184f565b81841161189e5761189e6003851502601118612138565b5f848688095f868103871696879004966002600389028118808a02820302808a02820302808a02820302808a02820302808a02820302808a02909103029181900381900460010185841190960395909502919093039390930492909217029150509392505050565b6040516001600160a01b038381166024830152604482018390526107b691859182169063a9059cbb906064015b604051602081830303815290604052915060e01b6020820180516001600160e01b038381831617835250505050612149565b5f821580611971575081155b1561197d57508261184f565b61198d8364e8d4a5100084611856565b61180d9085612fc2565b5f80546001600160a01b038381166001600160a01b0319831681178455604051919092169283917f8be0079c531659141344cd1fd0a4f28419497f9722a3daafe3b4186f6b6457e09190a35050565b5f5f8390505f816001600160a01b03166318160ddd6040518163ffffffff1660e01b8152600401602060405180830381865afa158015611a28573d5f5f3e3d5ffd5b505050506040513d601f19601f82011682018060405250810190611a4c919061301f565b9050805f03611a5f575f92505050611017565b5f5f836001600160a01b0316630902f1ac6040518163ffffffff1660e01b8152600401606060405180830381865afa158015611a9d573d5f5f3e3d5ffd5b505050506040513d601f19601f82011682018060405250810190611ac1919061304c565b50915091505f846001600160a01b0316630dfe16816040518163ffffffff1660e01b8152600401602060405180830381865afa158015611b03573d5f5f3e3d5ffd5b505050506040513d601f19601f82011682018060405250810190611b27919061308d565b90505f856001600160a01b031663d21220a76040518163ffffffff1660e01b8152600401602060405180830381865afa158015611b66573d5f5f3e3d5ffd5b505050506040513d601f19601f82011682018060405250810190611b8a919061308d565b90505f611b96836121b5565b90505f611ba2836121b5565b90505f846001600160a01b031663313ce5676040518163ffffffff1660e01b8152600401602060405180830381865afa158015611be1573d5f5f3e3d5ffd5b505050506040513d601f19601f82011682018060405250810190611c0591906130a8565b90505f846001600160a01b031663313ce5676040518163ffffffff1660e01b8152600401602060405180830381865afa158015611c44573d5f5f3e3d5ffd5b505050506040513d601f19601f82011682018060405250810190611c6891906130a8565b90505f611c896001600160701b038a1686611c8486600a6131ab565b611856565b90505f611ca56001600160701b038a1686611c8486600a6131ab565b90505f611cb28284612fc2565b9050611cbf8f828e611856565b9d505050505050505050505050505092915050565b5f60038581548110611ce857611ce8612f6e565b5f91825260208083208884526004825260408085206001600160a01b0388168652909252922060089091029091019150611d2186610880565b805415611dc2575f611d3f825f015484600301548460010154611f88565b90508015611dc057611d7b6001600160a01b037f0000000000000000000000000000000000000000000000000000000000000000168583611906565b86846001600160a01b03167f34fcbac0073d7c3d388e51312faf357774904998eeb8fca628b9e6f65ee1cbf783604051611db791815260200190565b60405180910390a35b505b8415611ef1576007820154611ddb90879060ff16611fdb565b60078201545f90611df2908490889060ff166120a5565b905066038d7ea4c68000811015611e4b5760405162461bcd60e51b815260206004820152601c60248201527f4661726d696e67506f6f6c3a207374616b6520746f6f20736d616c6c0000000060448201526064016105d3565b6b033b2e3c9fd0803ce8000000811115611ea75760405162461bcd60e51b815260206004820152601c60248201527f4661726d696e67506f6f6c3a207374616b6520746f6f206c617267650000000060448201526064016105d3565b8254611ebe906001600160a01b0316863089611f4f565b85825f015f828254611ed09190612fc2565b9250508190555085836004015f828254611eea9190612fc2565b9091555050505b611f02815f01548360030154611fb3565b600182015560405185815286906001600160a01b038516907f90890809c654f11d6e72a28fa60149770a0d11ec6c92319d6ceb2bb0a4ea1a159060200160405180910390a3505050505050565b6040516001600160a01b03848116602483015283811660448301526064820183905261059f9186918216906323b872dd90608401611933565b5f5f611f9a858564e8d4a51000611856565b9050828111611fa9575f61184b565b61184b8382612faf565b5f821580611fbf575081155b15611fcb57505f611017565b61184f838364e8d4a51000611856565b6001816001811115611fef57611fef612c77565b14611ff8575050565b5f6003838154811061200c5761200c612f6e565b905f5260205f2090600802019050610e10816006015461202c9190612fc2565b42106107b65780545f90612051906001600160a01b0316670de0b6b3a76400006119e6565b60058301819055426006840181905560408051838152602081019290925291925085917fa56b1a875186c55b67169d8896a02376ad70d29b36a16493cff36d2f2795b6d1910160405180910390a250505050565b5f60018260018111156120ba576120ba612c77565b036121075760058401545f8190036120ec5784546120e9906001600160a01b0316670de0b6b3a76400006119e6565b90505b6120ff8482670de0b6b3a7640000611856565b91505061184f565b835461180d906001600160a01b031684612a41565b5f805f1983850993909202808410938190039390930393915050565b634e487b715f52806020526024601cfd5b5f5f60205f8451602086015f885af180612168576040513d5f823e3d81fd5b50505f513d9150811561217f57806001141561218c565b6001600160a01b0384163b155b1561059f57604051635274afe760e01b81526001600160a01b03851660048201526024016105d3565b5f5f7f00000000000000000000000000000000000000000000000000000000000000006001600160a01b0316630a19399a6040518163ffffffff1660e01b8152600401602060405180830381865afa158015612213573d5f5f3e3d5ffd5b505050506040513d601f19601f82011682018060405250810190612237919061308d565b90507f00000000000000000000000000000000000000000000000000000000000000006001600160a01b031663457404776040518163ffffffff1660e01b8152600401602060405180830381865afa158015612295573d5f5f3e3d5ffd5b505050506040513d601f19601f820116820180604052508101906122b9919061308d565b6001600160a01b0316836001600160a01b03160361233157806001600160a01b031663ff8336ff6040518163ffffffff1660e01b8152600401602060405180830381865afa15801561230d573d5f5f3e3d5ffd5b505050506040513d601f19601f8201168201806040525081019061184f919061301f565b7f00000000000000000000000000000000000000000000000000000000000000006001600160a01b03166346caf5e86040518163ffffffff1660e01b8152600401602060405180830381865afa15801561238d573d5f5f3e3d5ffd5b505050506040513d601f19601f820116820180604052508101906123b1919061308d565b6001600160a01b0316836001600160a01b03160361240557806001600160a01b031663a0e8d3566040518163ffffffff1660e01b8152600401602060405180830381865afa15801561230d573d5f5f3e3d5ffd5b7f00000000000000000000000000000000000000000000000000000000000000006001600160a01b03166316a3d9fd6040518163ffffffff1660e01b8152600401602060405180830381865afa158015612461573d5f5f3e3d5ffd5b505050506040513d601f19601f82011682018060405250810190612485919061308d565b6001600160a01b0316836001600160a01b0316036124d957806001600160a01b03166322f9f2276040518163ffffffff1660e01b8152600401602060405180830381865afa15801561230d573d5f5f3e3d5ffd5b7f00000000000000000000000000000000000000000000000000000000000000006001600160a01b0316634dede3de6040518163ffffffff1660e01b8152600401602060405180830381865afa158015612535573d5f5f3e3d5ffd5b505050506040513d601f19601f82011682018060405250810190612559919061308d565b6001600160a01b0316836001600160a01b0316036125ad57806001600160a01b031663fa7d826a6040518163ffffffff1660e01b8152600401602060405180830381865afa15801561230d573d5f5f3e3d5ffd5b7f00000000000000000000000000000000000000000000000000000000000000006001600160a01b0316633c9ac7226040518163ffffffff1660e01b8152600401602060405180830381865afa158015612609573d5f5f3e3d5ffd5b505050506040513d601f19601f8201168201806040525081019061262d919061308d565b6001600160a01b0316836001600160a01b031603612737575f816001600160a01b031663ff8336ff6040518163ffffffff1660e01b8152600401602060405180830381865afa158015612682573d5f5f3e3d5ffd5b505050506040513d601f19601f820116820180604052508101906126a6919061301f565b6040516303d1689d60e11b8152670de0b6b3a764000060048201529091505f906001600160a01b038616906307a2d13a90602401602060405180830381865afa1580156126f5573d5f5f3e3d5ffd5b505050506040513d601f19601f82011682018060405250810190612719919061301f565b905061272e8282670de0b6b3a7640000611856565b95945050505050565b7f00000000000000000000000000000000000000000000000000000000000000006001600160a01b03166348a954946040518163ffffffff1660e01b8152600401602060405180830381865afa158015612793573d5f5f3e3d5ffd5b505050506040513d601f19601f820116820180604052508101906127b7919061308d565b6001600160a01b0316836001600160a01b03160361280c575f816001600160a01b031663a0e8d3566040518163ffffffff1660e01b8152600401602060405180830381865afa158015612682573d5f5f3e3d5ffd5b7f00000000000000000000000000000000000000000000000000000000000000006001600160a01b03166389a302716040518163ffffffff1660e01b8152600401602060405180830381865afa158015612868573d5f5f3e3d5ffd5b505050506040513d601f19601f8201168201806040525081019061288c919061308d565b6001600160a01b0316836001600160a01b0316148061293b57507f00000000000000000000000000000000000000000000000000000000000000006001600160a01b031663c54e44eb6040518163ffffffff1660e01b8152600401602060405180830381865afa158015612902573d5f5f3e3d5ffd5b505050506040513d601f19601f82011682018060405250810190612926919061308d565b6001600160a01b0316836001600160a01b0316145b156129505750670de0b6b3a764000092915050565b7f00000000000000000000000000000000000000000000000000000000000000006001600160a01b031663ad5c46486040518163ffffffff1660e01b8152600401602060405180830381865afa1580156129ac573d5f5f3e3d5ffd5b505050506040513d601f19601f820116820180604052508101906129d0919061308d565b6001600160a01b0316836001600160a01b0316036129f9575068a2a15d09519be0000092915050565b60405162461bcd60e51b815260206004820152601e60248201527f4661726d696e67506f6f6c3a20756e737570706f7274656420746f6b656e000060448201526064016105d3565b5f5f836001600160a01b031663313ce5676040518163ffffffff1660e01b8152600401602060405180830381865afa158015612a7f573d5f5f3e3d5ffd5b505050506040513d601f19601f82011682018060405250810190612aa391906130a8565b90505f612aaf856121b5565b905061272e8482611c8485600a6131ab565b828054828255905f5260205f20908101928215612b14579160200282015b82811115612b1457825182546001600160a01b0319166001600160a01b03909116178255602090920191600190910190612adf565b50612b20929150612b5d565b5090565b828054828255905f5260205f20908101928215612b14579160200282015b82811115612b14578251825591602001919060010190612b42565b5b80821115612b20575f8155600101612b5e565b5f5f83601f840112612b81575f5ffd5b50813567ffffffffffffffff811115612b98575f5ffd5b6020830191508360208260051b8501011115610f31575f5ffd5b5f5f5f5f60408587031215612bc5575f5ffd5b843567ffffffffffffffff811115612bdb575f5ffd5b612be787828801612b71565b909550935050602085013567ffffffffffffffff811115612c06575f5ffd5b612c1287828801612b71565b95989497509550505050565b6001600160a01b03811681146107d6575f5ffd5b5f5f60408385031215612c43575f5ffd5b823591506020830135612c5581612c1e565b809150509250929050565b5f60208284031215612c70575f5ffd5b5035919050565b634e487b7160e01b5f52602160045260245ffd5b60028110612ca757634e487b7160e01b5f52602160045260245ffd5b9052565b6001600160a01b03891681526020810188905260408101879052606081018690526080810185905260a0810184905260c081018390526101008101612cf360e0830184612c8b565b9998505050505050505050565b5f5f5f5f5f5f60608789031215612d15575f5ffd5b863567ffffffffffffffff811115612d2b575f5ffd5b612d3789828a01612b71565b909750955050602087013567ffffffffffffffff811115612d56575f5ffd5b612d6289828a01612b71565b909550935050604087013567ffffffffffffffff811115612d81575f5ffd5b612d8d89828a01612b71565b979a9699509497509295939492505050565b803560028110612dad575f5ffd5b919050565b5f5f5f60608486031215612dc4575f5ffd5b8335612dcf81612c1e565b925060208401359150612de460408501612d9f565b90509250925092565b5f5f60408385031215612dfe575f5ffd5b50508035926020909101359150565b80358015158114612dad575f5ffd5b5f5f5f60608486031215612e2e575f5ffd5b8335925060208401359150612de460408501612e0d565b602081016110178284612c8b565b5f5f5f5f60808587031215612e66575f5ffd5b84359350602085013592506040850135612e7f81612c1e565b91506060850135612e8f81612c1e565b939692955090935050565b5f5f5f5f60808587031215612ead575f5ffd5b8435612eb881612c1e565b935060208501359250612ecd60408601612d9f565b9150612edb60608601612e0d565b905092959194509250565b5f5f5f60608486031215612ef8575f5ffd5b83359250602084013591506040840135612f1181612c1e565b809150509250925092565b5f60208284031215612f2c575f5ffd5b813561184f81612c1e565b60208082526019908201527f4661726d696e67506f6f6c3a207a65726f206164647265737300000000000000604082015260600190565b634e487b7160e01b5f52603260045260245ffd5b5f60208284031215612f92575f5ffd5b61184f82612d9f565b634e487b7160e01b5f52601160045260245ffd5b8181038181111561101757611017612f9b565b8082018082111561101757611017612f9b565b634e487b7160e01b5f52601260045260245ffd5b5f8261300357634e487b7160e01b5f52601260045260245ffd5b500490565b808202811582820484141761101757611017612f9b565b5f6020828403121561302f575f5ffd5b5051919050565b80516001600160701b0381168114612dad575f5ffd5b5f5f5f6060848603121561305e575f5ffd5b61306784613036565b925061307560208501613036565b9150604084015163ffffffff81168114612f11575f5ffd5b5f6020828403121561309d575f5ffd5b815161184f81612c1e565b5f602082840312156130b8575f5ffd5b815160ff8116811461184f575f5ffd5b6001815b6001841115613103578085048111156130e7576130e7612f9b565b60018416156130f557908102905b60019390931c9280026130cc565b935093915050565b5f8261311957506001611017565b8161312557505f611017565b816001811461313b576002811461314557613161565b6001915050611017565b60ff84111561315657613156612f9b565b50506001821b611017565b5060208310610133831016604e8410600b8410161715613184575081810a611017565b6131905f1984846130c8565b805f19048211156131a3576131a3612f9b565b029392505050565b5f61184f60ff84168361310b56fea2646970667358221220eb803ad78b08b7202e7648688c4bc0afb972326d78895dfec83c518b29d47b8a64736f6c634300081e0033",
  "linkReferences": {},
  "deployedLinkReferences": {},
  "immutableReferences": {
    "5334": [
      {
        "length": 32,
        "start": 705
      },
      {
        "length": 32,
        "start": 1290
      },
      {
        "length": 32,
        "start": 2760
      },
      {
        "length": 32,
        "start": 3751
      },
      {
        "length": 32,
        "start": 4829
      },
      {
        "length": 32,
        "start": 5705
      },
      {
        "length": 32,
        "start": 7508
      }
    ],
    "5337": [
      {
        "length": 32,
        "start": 1232
      },
      {
        "length": 32,
        "start": 8633
      },
      {
        "length": 32,
        "start": 8763
      },
      {
        "length": 32,
        "start": 9011
      },
      {
        "length": 32,
        "start": 9223
      },
      {
        "length": 32,
        "start": 9435
      },
      {
        "length": 32,
        "start": 9647
      },
      {
        "length": 32,
        "start": 10041
      },
      {
        "length": 32,
        "start": 10254
      },
      {
        "length": 32,
        "start": 10408
      },
      {
        "length": 32,
        "start": 10578
      }
    ],
    "5340": [
      {
        "length": 32,
        "start": 926
      },
      {
        "length": 32,
        "start": 6011
      }
    ]
  },
  "inputSourceName": "project/contracts/FarmingPool.sol",
  "buildInfoId": "solc-0_8_30-41f6f8f701553b684c78905f1c511dd876bfc6c4"
}