{
  "_format": "hh3-artifact-1",
  "contractName": "Minter",
  "sourceName": "contracts/Minter.sol",
  "abi": [
    {
      "inputs": [
        {
          "internalType": "address",
          "name": "initialOwner",
          "type": "address"
        },
        {
          "internalType": "address",
          "name": "_core",
          "type": "address"
        },
        {
          "internalType": "address",
          "name": "_gov",
          "type": "address"
        }
      ],
      "stateMutability": "nonpayable",
      "type": "constructor"
    },
    {
      "inputs": [],
      "name": "EnforcedPause",
      "type": "error"
    },
    {
      "inputs": [],
      "name": "ExpectedPause",
      "type": "error"
    },
    {
      "inputs": [
        {
          "internalType": "address",
          "name": "owner",
          "type": "address"
        }
      ],
      "name": "OwnableInvalidOwner",
      "type": "error"
    },
    {
      "inputs": [
        {
          "internalType": "address",
          "name": "account",
          "type": "address"
        }
      ],
      "name": "OwnableUnauthorizedAccount",
      "type": "error"
    },
    {
      "inputs": [],
      "name": "ReentrancyGuardReentrantCall",
      "type": "error"
    },
    {
      "inputs": [
        {
          "internalType": "address",
          "name": "token",
          "type": "address"
        }
      ],
      "name": "SafeERC20FailedOperation",
      "type": "error"
    },
    {
      "anonymous": false,
      "inputs": [
        {
          "indexed": true,
          "internalType": "address",
          "name": "user",
          "type": "address"
        },
        {
          "indexed": false,
          "internalType": "uint256",
          "name": "btbAmount",
          "type": "uint256"
        },
        {
          "indexed": false,
          "internalType": "uint256",
          "name": "btdAmount",
          "type": "uint256"
        }
      ],
      "name": "BTBRedeemed",
      "type": "event"
    },
    {
      "anonymous": false,
      "inputs": [
        {
          "indexed": true,
          "internalType": "address",
          "name": "user",
          "type": "address"
        },
        {
          "indexed": false,
          "internalType": "uint256",
          "name": "wbtcAmount",
          "type": "uint256"
        },
        {
          "indexed": false,
          "internalType": "uint256",
          "name": "btdAmount",
          "type": "uint256"
        },
        {
          "indexed": false,
          "internalType": "uint256",
          "name": "fee",
          "type": "uint256"
        }
      ],
      "name": "BTDMinted",
      "type": "event"
    },
    {
      "anonymous": false,
      "inputs": [
        {
          "indexed": true,
          "internalType": "address",
          "name": "user",
          "type": "address"
        },
        {
          "indexed": false,
          "internalType": "uint256",
          "name": "btdAmount",
          "type": "uint256"
        },
        {
          "indexed": false,
          "internalType": "uint256",
          "name": "wbtcAmount",
          "type": "uint256"
        },
        {
          "indexed": false,
          "internalType": "uint256",
          "name": "btbAmount",
          "type": "uint256"
        },
        {
          "indexed": false,
          "internalType": "uint256",
          "name": "brsAmount",
          "type": "uint256"
        }
      ],
      "name": "BTDRedeemed",
      "type": "event"
    },
    {
      "anonymous": false,
      "inputs": [
        {
          "indexed": true,
          "internalType": "address",
          "name": "oldConfigGov",
          "type": "address"
        },
        {
          "indexed": true,
          "internalType": "address",
          "name": "newConfigGov",
          "type": "address"
        }
      ],
      "name": "ConfigGovUpdated",
      "type": "event"
    },
    {
      "anonymous": false,
      "inputs": [
        {
          "indexed": true,
          "internalType": "address",
          "name": "previousOwner",
          "type": "address"
        },
        {
          "indexed": true,
          "internalType": "address",
          "name": "newOwner",
          "type": "address"
        }
      ],
      "name": "OwnershipTransferred",
      "type": "event"
    },
    {
      "anonymous": false,
      "inputs": [
        {
          "indexed": false,
          "internalType": "address",
          "name": "account",
          "type": "address"
        }
      ],
      "name": "Paused",
      "type": "event"
    },
    {
      "anonymous": false,
      "inputs": [
        {
          "indexed": false,
          "internalType": "address",
          "name": "account",
          "type": "address"
        }
      ],
      "name": "Unpaused",
      "type": "event"
    },
    {
      "inputs": [
        {
          "internalType": "uint256",
          "name": "btdAmount",
          "type": "uint256"
        }
      ],
      "name": "calculateBurnAmount",
      "outputs": [
        {
          "internalType": "uint256",
          "name": "wbtcAmount",
          "type": "uint256"
        },
        {
          "internalType": "uint256",
          "name": "fee",
          "type": "uint256"
        }
      ],
      "stateMutability": "view",
      "type": "function"
    },
    {
      "inputs": [
        {
          "internalType": "uint256",
          "name": "wbtcAmount",
          "type": "uint256"
        }
      ],
      "name": "calculateMintAmount",
      "outputs": [
        {
          "internalType": "uint256",
          "name": "btdAmount",
          "type": "uint256"
        },
        {
          "internalType": "uint256",
          "name": "fee",
          "type": "uint256"
        }
      ],
      "stateMutability": "view",
      "type": "function"
    },
    {
      "inputs": [],
      "name": "configCore",
      "outputs": [
        {
          "internalType": "address",
          "name": "",
          "type": "address"
        }
      ],
      "stateMutability": "view",
      "type": "function"
    },
    {
      "inputs": [],
      "name": "configGov",
      "outputs": [
        {
          "internalType": "address",
          "name": "",
          "type": "address"
        }
      ],
      "stateMutability": "view",
      "type": "function"
    },
    {
      "inputs": [],
      "name": "core",
      "outputs": [
        {
          "internalType": "contract ConfigCore",
          "name": "",
          "type": "address"
        }
      ],
      "stateMutability": "view",
      "type": "function"
    },
    {
      "inputs": [],
      "name": "getCollateralRatio",
      "outputs": [
        {
          "internalType": "uint256",
          "name": "",
          "type": "uint256"
        }
      ],
      "stateMutability": "view",
      "type": "function"
    },
    {
      "inputs": [],
      "name": "getSystemInfo",
      "outputs": [
        {
          "internalType": "uint256",
          "name": "_totalBTD",
          "type": "uint256"
        },
        {
          "internalType": "uint256",
          "name": "_totalWBTC",
          "type": "uint256"
        },
        {
          "internalType": "uint256",
          "name": "_collateralRatio",
          "type": "uint256"
        },
        {
          "internalType": "uint256",
          "name": "_wbtcPrice",
          "type": "uint256"
        },
        {
          "internalType": "uint256",
          "name": "_btbPrice",
          "type": "uint256"
        },
        {
          "internalType": "uint256",
          "name": "_brsPrice",
          "type": "uint256"
        }
      ],
      "stateMutability": "view",
      "type": "function"
    },
    {
      "inputs": [],
      "name": "gov",
      "outputs": [
        {
          "internalType": "contract ConfigGov",
          "name": "",
          "type": "address"
        }
      ],
      "stateMutability": "view",
      "type": "function"
    },
    {
      "inputs": [
        {
          "internalType": "uint256",
          "name": "wbtcAmount",
          "type": "uint256"
        }
      ],
      "name": "mintBTD",
      "outputs": [],
      "stateMutability": "nonpayable",
      "type": "function"
    },
    {
      "inputs": [],
      "name": "owner",
      "outputs": [
        {
          "internalType": "address",
          "name": "",
          "type": "address"
        }
      ],
      "stateMutability": "view",
      "type": "function"
    },
    {
      "inputs": [],
      "name": "pause",
      "outputs": [],
      "stateMutability": "nonpayable",
      "type": "function"
    },
    {
      "inputs": [],
      "name": "paused",
      "outputs": [
        {
          "internalType": "bool",
          "name": "",
          "type": "bool"
        }
      ],
      "stateMutability": "view",
      "type": "function"
    },
    {
      "inputs": [
        {
          "internalType": "uint256",
          "name": "btbAmount",
          "type": "uint256"
        }
      ],
      "name": "redeemBTB",
      "outputs": [],
      "stateMutability": "nonpayable",
      "type": "function"
    },
    {
      "inputs": [
        {
          "internalType": "uint256",
          "name": "btbAmount",
          "type": "uint256"
        },
        {
          "internalType": "uint256",
          "name": "deadline",
          "type": "uint256"
        },
        {
          "internalType": "uint8",
          "name": "v",
          "type": "uint8"
        },
        {
          "internalType": "bytes32",
          "name": "r",
          "type": "bytes32"
        },
        {
          "internalType": "bytes32",
          "name": "s",
          "type": "bytes32"
        }
      ],
      "name": "redeemBTBWithPermit",
      "outputs": [],
      "stateMutability": "nonpayable",
      "type": "function"
    },
    {
      "inputs": [
        {
          "internalType": "uint256",
          "name": "btdAmount",
          "type": "uint256"
        }
      ],
      "name": "redeemBTD",
      "outputs": [],
      "stateMutability": "nonpayable",
      "type": "function"
    },
    {
      "inputs": [
        {
          "internalType": "uint256",
          "name": "btdAmount",
          "type": "uint256"
        },
        {
          "internalType": "uint256",
          "name": "deadline",
          "type": "uint256"
        },
        {
          "internalType": "uint8",
          "name": "v",
          "type": "uint8"
        },
        {
          "internalType": "bytes32",
          "name": "r",
          "type": "bytes32"
        },
        {
          "internalType": "bytes32",
          "name": "s",
          "type": "bytes32"
        }
      ],
      "name": "redeemBTDWithPermit",
      "outputs": [],
      "stateMutability": "nonpayable",
      "type": "function"
    },
    {
      "inputs": [],
      "name": "renounceOwnership",
      "outputs": [],
      "stateMutability": "nonpayable",
      "type": "function"
    },
    {
      "inputs": [],
      "name": "totalBTD",
      "outputs": [
        {
          "internalType": "uint256",
          "name": "",
          "type": "uint256"
        }
      ],
      "stateMutability": "view",
      "type": "function"
    },
    {
      "inputs": [],
      "name": "totalStBTDEquivalent",
      "outputs": [
        {
          "internalType": "uint256",
          "name": "",
          "type": "uint256"
        }
      ],
      "stateMutability": "view",
      "type": "function"
    },
    {
      "inputs": [],
      "name": "totalWBTC",
      "outputs": [
        {
          "internalType": "uint256",
          "name": "",
          "type": "uint256"
        }
      ],
      "stateMutability": "view",
      "type": "function"
    },
    {
      "inputs": [
        {
          "internalType": "address",
          "name": "newOwner",
          "type": "address"
        }
      ],
      "name": "transferOwnership",
      "outputs": [],
      "stateMutability": "nonpayable",
      "type": "function"
    },
    {
      "inputs": [],
      "name": "unpause",
      "outputs": [],
      "stateMutability": "nonpayable",
      "type": "function"
    },
    {
      "inputs": [
        {
          "internalType": "address",
          "name": "newGov",
          "type": "address"
        }
      ],
      "name": "upgradeGov",
      "outputs": [],
      "stateMutability": "nonpayable",
      "type": "function"
    }
  ],
  "bytecode": "0x60a060405234801561000f575f5ffd5b5060405161339238038061339283398101604081905261002e916101cf565b60015f55826001600160a01b03811661006157604051631e4fbdf760e01b81525f60048201526024015b60405180910390fd5b61006a81610163565b506001600160a01b0383166100b15760405162461bcd60e51b815260206004820152600d60248201526c24b73b30b634b21037bbb732b960991b6044820152606401610058565b6001600160a01b0382166100f65760405162461bcd60e51b815260206004820152600c60248201526b496e76616c696420636f726560a01b6044820152606401610058565b6001600160a01b03811661013a5760405162461bcd60e51b815260206004820152600b60248201526a24b73b30b634b21033b7bb60a91b6044820152606401610058565b6001600160a01b03918216608052600280546001600160a01b031916919092161790555061020f565b600180546001600160a01b038381166001600160a01b0319831681179093556040519116919082907f8be0079c531659141344cd1fd0a4f28419497f9722a3daafe3b4186f6b6457e0905f90a35050565b80516001600160a01b03811681146101ca575f5ffd5b919050565b5f5f5f606084860312156101e1575f5ffd5b6101ea846101b4565b92506101f8602085016101b4565b9150610206604085016101b4565b90509250925092565b6080516130d16102c15f395f818161014d015281816102f8015281816103640152818161047c015281816105ed015281816107c4015281816108d201528181610d4301528181610dd501528181610e5801528181610fbc0152818161125401528181611513015281816115f7015281816116850152818161177301528181611852015281816118ec015281816119d501528181611b2301528181611e0d01528181611ee70152612cdd01526130d15ff3fe608060405234801561000f575f5ffd5b5060043610610147575f3560e01c80637d30c3e5116100bf578063afdfe22c11610079578063afdfe22c146102c5578063cd377c53146102d8578063d013c45c146102e0578063f2f4eb26146102f3578063f2fde38b1461031a578063f5ead5001461032d575f5ffd5b80637d30c3e5146102615780637e3a0e4914610289578063839643521461029c5780638456cb59146102a45780638da5cb5b146102ac5780639f8aaf2e146102bd575f5ffd5b80636465eb1b116101105780636465eb1b146101d75780636cb1f108146101e85780636cb69f42146101fb578063715018a61461023057806373c395f0146102385780637cdf4e201461024b575f5ffd5b806285ffc81461014b57806312d43a511461018a5780633f4ba83a1461019d5780634afb19c7146101a75780635c975abb146101ba575b5f5ffd5b7f00000000000000000000000000000000000000000000000000000000000000005b6040516001600160a01b0390911681526020015b60405180910390f35b60025461016d906001600160a01b031681565b6101a5610340565b005b6101a56101b5366004612ea8565b610352565b600154600160a01b900460ff166040519015158152602001610181565b6002546001600160a01b031661016d565b6101a56101f6366004612ea8565b610460565b610203610568565b604080519687526020870195909552938501929092526060840152608083015260a082015260c001610181565b6101a56105b2565b6101a5610246366004612ef2565b6105c3565b6102536105e9565b604051908152602001610181565b61027461026f366004612ef2565b6106d2565b60408051928352602083019190915201610181565b6101a5610297366004612ef2565b61079c565b6102536107c0565b6101a56108bf565b6001546001600160a01b031661016d565b6102536108cf565b6101a56102d3366004612f1d565b6109b4565b610253610a56565b6102746102ee366004612ef2565b610a87565b61016d7f000000000000000000000000000000000000000000000000000000000000000081565b6101a5610328366004612f1d565b610c35565b6101a561033b366004612ef2565b610c6f565b61034861115d565b61035061118a565b565b61035a6111df565b610362611207565b7f00000000000000000000000000000000000000000000000000000000000000006001600160a01b031663457404776040518163ffffffff1660e01b8152600401602060405180830381865afa1580156103be573d5f5f3e3d5ffd5b505050506040513d601f19601f820116820180604052508101906103e29190612f38565b6001600160a01b031663d505accf333088888888886040518863ffffffff1660e01b81526004016104199796959493929190612f53565b5f604051808303815f87803b158015610430575f5ffd5b505af1158015610442573d5f5f3e3d5ffd5b505050506104503386611232565b61045960015f55565b5050505050565b6104686111df565b610470611207565b61047a3386611b17565b7f00000000000000000000000000000000000000000000000000000000000000006001600160a01b03166346caf5e86040518163ffffffff1660e01b8152600401602060405180830381865afa1580156104d6573d5f5f3e3d5ffd5b505050506040513d601f19601f820116820180604052508101906104fa9190612f38565b6001600160a01b031663d505accf333088888888886040518863ffffffff1660e01b81526004016105319796959493929190612f53565b5f604051808303815f87803b158015610548575f5ffd5b505af115801561055a573d5f5f3e3d5ffd5b505050506104503386611c4e565b5f5f5f5f5f5f6105766108cf565b95506105806105e9565b945061058a610a56565b935061059461200e565b925061059e612052565b91506105a8612096565b9050909192939495565b6105ba61115d565b6103505f6120da565b6105cb6111df565b6105d3611207565b6105dd3382611232565b6105e660015f55565b50565b5f5f7f00000000000000000000000000000000000000000000000000000000000000006001600160a01b0316632d2c55656040518163ffffffff1660e01b8152600401602060405180830381865afa158015610647573d5f5f3e3d5ffd5b505050506040513d601f19601f8201168201806040525081019061066b9190612f38565b6001600160a01b031662113e086040518163ffffffff1660e01b8152600401606060405180830381865afa1580156106a5573d5f5f3e3d5ffd5b505050506040513d601f19601f820116820180604052508101906106c99190612f94565b50909392505050565b5f5f5f6040518060a001604052808581526020016106ee61200e565b81526020016106fb61212b565b81526020016107086108cf565b81526002546040805163faa24f0760e01b815290516020938401936001600160a01b039093169263faa24f0792600480820193918290030181865afa158015610753573d5f5f3e3d5ffd5b505050506040513d601f19601f820116820180604052508101906107779190612fbf565b905290505f6107858261216f565b905080602001518160400151935093505050915091565b6107a46111df565b6107ac611207565b6107b63382611b17565b6105dd3382611c4e565b5f5f7f00000000000000000000000000000000000000000000000000000000000000006001600160a01b0316633c9ac7226040518163ffffffff1660e01b8152600401602060405180830381865afa15801561081e573d5f5f3e3d5ffd5b505050506040513d601f19601f820116820180604052508101906108429190612f38565b90506001600160a01b038116610859575f91505090565b806001600160a01b03166301e1d1146040518163ffffffff1660e01b8152600401602060405180830381865afa158015610895573d5f5f3e3d5ffd5b505050506040513d601f19601f820116820180604052508101906108b99190612fbf565b91505090565b6108c761115d565b6103506123ff565b5f7f00000000000000000000000000000000000000000000000000000000000000006001600160a01b031663457404776040518163ffffffff1660e01b8152600401602060405180830381865afa15801561092c573d5f5f3e3d5ffd5b505050506040513d601f19601f820116820180604052508101906109509190612f38565b6001600160a01b03166318160ddd6040518163ffffffff1660e01b8152600401602060405180830381865afa15801561098b573d5f5f3e3d5ffd5b505050506040513d601f19601f820116820180604052508101906109af9190612fbf565b905090565b6109bc61115d565b6001600160a01b038116610a055760405162461bcd60e51b815260206004820152600b60248201526a24b73b30b634b21033b7bb60a91b60448201526064015b60405180910390fd5b600280546001600160a01b038381166001600160a01b0319831681179093556040519116919082907f0870bbd72fb4f68eb9594677170b39d662b8e8fdbea303ad31cf5e092a309d37905f90a35050565b5f6109af610a626105e9565b610a6a61200e565b610a726108cf565b610a7a6107c0565b610a8261212b565b612442565b5f5f5f610a9261200e565b90505f610a9d61212b565b90505f610aaa838361255c565b90505f6040518061012001604052808881526020018581526020018481526020018381526020015f81526020015f81526020015f81526020015f815260200160025f9054906101000a90046001600160a01b03166001600160a01b03166340bb8a016040518163ffffffff1660e01b8152600401602060405180830381865afa158015610b39573d5f5f3e3d5ffd5b505050506040513d601f19601f82011682018060405250810190610b5d9190612fbf565b90529050670de0b6b3a7640000821015610c0a57610b79612588565b6080820152610b86612052565b60a0820152610b93612096565b60c08201526002546040805163b646b3ed60e01b815290516001600160a01b039092169163b646b3ed916004808201926020929091908290030181865afa158015610be0573d5f5f3e3d5ffd5b505050506040513d601f19601f82011682018060405250810190610c049190612fbf565b60e08201525b5f610c14826125cc565b9050610c22815f01516128e6565b9650806060015195505050505050915091565b610c3d61115d565b6001600160a01b038116610c6657604051631e4fbdf760e01b81525f60048201526024016109fc565b6105e6816120da565b610c776111df565b610c7f611207565b610c88816128f6565b5f6040518060a00160405280838152602001610ca261200e565b8152602001610caf61212b565b8152602001610cbc6108cf565b81526002546040805163faa24f0760e01b815290516020938401936001600160a01b039093169263faa24f0792600480820193918290030181865afa158015610d07573d5f5f3e3d5ffd5b505050506040513d601f19601f82011682018060405250810190610d2b9190612fbf565b905290505f610d398261216f565b9050610dd23330857f00000000000000000000000000000000000000000000000000000000000000006001600160a01b0316634dede3de6040518163ffffffff1660e01b8152600401602060405180830381865afa158015610d9d573d5f5f3e3d5ffd5b505050506040513d601f19601f82011682018060405250810190610dc19190612f38565b6001600160a01b031692919061299c565b5f7f00000000000000000000000000000000000000000000000000000000000000006001600160a01b0316634dede3de6040518163ffffffff1660e01b8152600401602060405180830381865afa158015610e2f573d5f5f3e3d5ffd5b505050506040513d601f19601f82011682018060405250810190610e539190612f38565b90505f7f00000000000000000000000000000000000000000000000000000000000000006001600160a01b0316632d2c55656040518163ffffffff1660e01b8152600401602060405180830381865afa158015610eb2573d5f5f3e3d5ffd5b505050506040513d601f19601f82011682018060405250810190610ed69190612f38565b604051636eb1769f60e11b81523060048201526001600160a01b038083166024830152919250869184169063dd62ed3e90604401602060405180830381865afa158015610f25573d5f5f3e3d5ffd5b505050506040513d601f19601f82011682018060405250810190610f499190612fbf565b1015610f6457610f646001600160a01b038316825f19612a09565b60405163737ec20f60e01b8152600481018690526001600160a01b0382169063737ec20f906024015f604051808303815f87803b158015610fa3575f5ffd5b505af1158015610fb5573d5f5f3e3d5ffd5b505050505f7f00000000000000000000000000000000000000000000000000000000000000006001600160a01b031663457404776040518163ffffffff1660e01b8152600401602060405180830381865afa158015611016573d5f5f3e3d5ffd5b505050506040513d601f19601f8201168201806040525081019061103a9190612f38565b60208501516040516340c10f1960e01b81529192506001600160a01b038316916340c10f199161106f91339190600401612fd6565b5f604051808303815f87803b158015611086575f5ffd5b505af1158015611098573d5f5f3e3d5ffd5b505050506040840151156111055760408085015190516340c10f1960e01b81526001600160a01b038316916340c10f19916110d7918691600401612fd6565b5f604051808303815f87803b1580156110ee575f5ffd5b505af1158015611100573d5f5f3e3d5ffd5b505050505b60208085015160408087015181518a81529384019290925282015233907f5f712ba89a0d3487fa5ceb1f89f3c3b293086cf7ca27a9e0a00eaf7e918bc7429060600160405180910390a250505050506105e660015f55565b6001546001600160a01b031633146103505760405163118cdaa760e01b81523360048201526024016109fc565b611192612a99565b6001805460ff60a01b191690557f5db9ee0a495bf2e6ff9c91a7834c1ba4fdd244a5e8aa4e537bd38aeae4b073aa335b6040516001600160a01b03909116815260200160405180910390a1565b60025f540361120157604051633ee5aeb560e01b815260040160405180910390fd5b60025f55565b600154600160a01b900460ff16156103505760405163d93c066560e01b815260040160405180910390fd5b5f81116112515760405162461bcd60e51b81526004016109fc90612fef565b807f00000000000000000000000000000000000000000000000000000000000000006001600160a01b031663457404776040518163ffffffff1660e01b8152600401602060405180830381865afa1580156112ae573d5f5f3e3d5ffd5b505050506040513d601f19601f820116820180604052508101906112d29190612f38565b6040516370a0823160e01b81526001600160a01b03858116600483015291909116906370a0823190602401602060405180830381865afa158015611318573d5f5f3e3d5ffd5b505050506040513d601f19601f8201168201806040525081019061133c9190612fbf565b101561137b5760405162461bcd60e51b815260206004820152600e60248201526d139bdd08195b9bdd59da0810951160921b60448201526064016109fc565b61138481612ac3565b5f61138d61200e565b90505f61139861212b565b90505f6113a5838361255c565b90505f6040518061012001604052808681526020018581526020018481526020018381526020015f81526020015f81526020015f81526020015f815260200160025f9054906101000a90046001600160a01b03166001600160a01b03166340bb8a016040518163ffffffff1660e01b8152600401602060405180830381865afa158015611434573d5f5f3e3d5ffd5b505050506040513d601f19601f820116820180604052508101906114589190612fbf565b90529050670de0b6b3a764000082101561150557611474612588565b6080820152611481612052565b60a082015261148e612096565b60c08201526002546040805163b646b3ed60e01b815290516001600160a01b039092169163b646b3ed916004808201926020929091908290030181865afa1580156114db573d5f5f3e3d5ffd5b505050506040513d601f19601f820116820180604052508101906114ff9190612fbf565b60e08201525b5f61150f826125cc565b90507f00000000000000000000000000000000000000000000000000000000000000006001600160a01b031663457404776040518163ffffffff1660e01b8152600401602060405180830381865afa15801561156d573d5f5f3e3d5ffd5b505050506040513d601f19601f820116820180604052508101906115919190612f38565b6001600160a01b03166379cc679088886040518363ffffffff1660e01b81526004016115be929190612fd6565b5f604051808303815f87803b1580156115d5575f5ffd5b505af11580156115e7573d5f5f3e3d5ffd5b50505050606081015115611753577f00000000000000000000000000000000000000000000000000000000000000006001600160a01b031663457404776040518163ffffffff1660e01b8152600401602060405180830381865afa158015611651573d5f5f3e3d5ffd5b505050506040513d601f19601f820116820180604052508101906116759190612f38565b6001600160a01b03166340c10f197f00000000000000000000000000000000000000000000000000000000000000006001600160a01b0316632d2c55656040518163ffffffff1660e01b8152600401602060405180830381865afa1580156116df573d5f5f3e3d5ffd5b505050506040513d601f19601f820116820180604052508101906117039190612f38565b83606001516040518363ffffffff1660e01b8152600401611725929190612fd6565b5f604051808303815f87803b15801561173c575f5ffd5b505af115801561174e573d5f5f3e3d5ffd5b505050505b5f611760825f01516128e6565b905080156118e057611771816128f6565b7f00000000000000000000000000000000000000000000000000000000000000006001600160a01b0316632d2c55656040518163ffffffff1660e01b8152600401602060405180830381865afa1580156117cd573d5f5f3e3d5ffd5b505050506040513d601f19601f820116820180604052508101906117f19190612f38565b6001600160a01b03166320ce0c8c826040518263ffffffff1660e01b815260040161181e91815260200190565b5f604051808303815f87803b158015611835575f5ffd5b505af1158015611847573d5f5f3e3d5ffd5b505050506118e088827f00000000000000000000000000000000000000000000000000000000000000006001600160a01b0316634dede3de6040518163ffffffff1660e01b8152600401602060405180830381865afa1580156118ac573d5f5f3e3d5ffd5b505050506040513d601f19601f820116820180604052508101906118d09190612f38565b6001600160a01b03169190612b62565b6040820151156119c9577f00000000000000000000000000000000000000000000000000000000000000006001600160a01b0316632d2c55656040518163ffffffff1660e01b8152600401602060405180830381865afa158015611946573d5f5f3e3d5ffd5b505050506040513d601f19601f8201168201806040525081019061196a9190612f38565b6001600160a01b0316638a1bd7c08984604001516040518363ffffffff1660e01b815260040161199b929190612fd6565b5f604051808303815f87803b1580156119b2575f5ffd5b505af11580156119c4573d5f5f3e3d5ffd5b505050505b602082015115611ab2577f00000000000000000000000000000000000000000000000000000000000000006001600160a01b03166346caf5e86040518163ffffffff1660e01b8152600401602060405180830381865afa158015611a2f573d5f5f3e3d5ffd5b505050506040513d601f19601f82011682018060405250810190611a539190612f38565b6001600160a01b03166340c10f198984602001516040518363ffffffff1660e01b8152600401611a84929190612fd6565b5f604051808303815f87803b158015611a9b575f5ffd5b505af1158015611aad573d5f5f3e3d5ffd5b505050505b60208083015160408085015181518b81529384018590529083019190915260608201526001600160a01b038916907ff76df2f7b054a57fbdfc47eb1ad33bc2c9026822f76b262e40d8fccdcf838abf9060800160405180910390a25050505050505050565b611b2081612ac3565b807f00000000000000000000000000000000000000000000000000000000000000006001600160a01b03166346caf5e86040518163ffffffff1660e01b8152600401602060405180830381865afa158015611b7d573d5f5f3e3d5ffd5b505050506040513d601f19601f82011682018060405250810190611ba19190612f38565b6040516370a0823160e01b81526001600160a01b03858116600483015291909116906370a0823190602401602060405180830381865afa158015611be7573d5f5f3e3d5ffd5b505050506040513d601f19601f82011682018060405250810190611c0b9190612fbf565b1015611c4a5760405162461bcd60e51b815260206004820152600e60248201526d2737ba1032b737bab3b410212a2160911b60448201526064016109fc565b5050565b5f611c5761200e565b90505f611c6261212b565b90505f611c6f838361255c565b9050670de0b6b3a7640000811015611cc95760405162461bcd60e51b815260206004820152601b60248201527f43523c313030252c20425442206e6f742072656465656d61626c65000000000060448201526064016109fc565b5f611cdd8584670de0b6b3a7640000612b8d565b905066038d7ea4c68000811015611d2f5760405162461bcd60e51b815260206004820152601660248201527514995919595b481d985b1d59481d1bdbc81cdb585b1b60521b60448201526064016109fc565b6b033b2e3c9fd0803ce8000000811115611d845760405162461bcd60e51b815260206004820152601660248201527552656465656d2076616c756520746f6f206c6172676560501b60448201526064016109fc565b5f611d96611d906105e9565b86612c3e565b90505f611db2611da46108cf565b611dac6107c0565b87612c65565b90505f611dc0838388612c9f565b905080881115611e0b5760405162461bcd60e51b815260206004820152601660248201527545786365656473206d61782072656465656d61626c6560501b60448201526064016109fc565b7f00000000000000000000000000000000000000000000000000000000000000006001600160a01b03166346caf5e86040518163ffffffff1660e01b8152600401602060405180830381865afa158015611e67573d5f5f3e3d5ffd5b505050506040513d601f19601f82011682018060405250810190611e8b9190612f38565b6001600160a01b03166379cc67908a8a6040518363ffffffff1660e01b8152600401611eb8929190612fd6565b5f604051808303815f87803b158015611ecf575f5ffd5b505af1158015611ee1573d5f5f3e3d5ffd5b505050507f00000000000000000000000000000000000000000000000000000000000000006001600160a01b031663457404776040518163ffffffff1660e01b8152600401602060405180830381865afa158015611f41573d5f5f3e3d5ffd5b505050506040513d601f19601f82011682018060405250810190611f659190612f38565b6001600160a01b03166340c10f198a8a6040518363ffffffff1660e01b8152600401611f92929190612fd6565b5f604051808303815f87803b158015611fa9575f5ffd5b505af1158015611fbb573d5f5f3e3d5ffd5b5050604080518b8152602081018c90526001600160a01b038d1693507f1aabf03ade694c7ca13898e320a6f9e6559172d4d78235f3bf03e549ce77012e92500160405180910390a2505050505050505050565b5f612017612cd9565b6001600160a01b031663fa7d826a6040518163ffffffff1660e01b8152600401602060405180830381865afa15801561098b573d5f5f3e3d5ffd5b5f61205b612cd9565b6001600160a01b031663a0e8d3566040518163ffffffff1660e01b8152600401602060405180830381865afa15801561098b573d5f5f3e3d5ffd5b5f61209f612cd9565b6001600160a01b03166322f9f2276040518163ffffffff1660e01b8152600401602060405180830381865afa15801561098b573d5f5f3e3d5ffd5b600180546001600160a01b038381166001600160a01b0319831681179093556040519116919082907f8be0079c531659141344cd1fd0a4f28419497f9722a3daafe3b4186f6b6457e0905f90a35050565b5f612134612cd9565b6001600160a01b031663ae8ba6796040518163ffffffff1660e01b8152600401602060405180830381865afa15801561098b573d5f5f3e3d5ffd5b6121a26040518060c001604052805f81526020015f81526020015f81526020015f81526020015f81526020015f81525090565b81516121c05760405162461bcd60e51b81526004016109fc90612fef565b5f8260200151116122085760405162461bcd60e51b8152602060048201526012602482015271496e76616c6964205742544320707269636560701b60448201526064016109fc565b5f8260400151116122505760405162461bcd60e51b8152602060048201526012602482015271496e76616c6964204955534420707269636560701b60448201526064016109fc565b8151612262906402540be4009061302b565b60a0820181905260208301516122819190670de0b6b3a7640000612b8d565b80825266038d7ea4c6800011156122d15760405162461bcd60e51b8152602060048201526014602482015273135a5b9d081d985b1d59481d1bdbc81cdb585b1b60621b60448201526064016109fc565b6122eb815f0151670de0b6b3a76400008460400151612b8d565b60608201819052655af3107a40001061233e5760405162461bcd60e51b8152602060048201526015602482015274135a5b9d08185b5bdd5b9d081d1bdbc81cdb585b1b605a1b60448201526064016109fc565b61235381606001518360800151612710612b8d565b6040820181905260608201516123699190613042565b6020820152606080820151908301515f9161238391613055565b905061239c818460400151670de0b6b3a7640000612b8d565b6080830181905266038d7ea4c6800011156123f95760405162461bcd60e51b815260206004820152601d60248201527f526573756c74696e67206c696162696c69747920746f6f20736d616c6c00000060448201526064016109fc565b50919050565b612407611207565b6001805460ff60a01b1916600160a01b1790557f62e78cea01bee320cd4e420270b5ea74000d11b0c9f74754ebdbfc544b05a2586111c23390565b5f8061244e8486613055565b905086158061245b575080155b1561247157670de0b6b3a7640000915050612553565b5f61247c8888612c3e565b90505f61248a878787612c65565b905066038d7ea4c680008210156124e35760405162461bcd60e51b815260206004820152601a60248201527f436f6c6c61746572616c2076616c756520746f6f20736d616c6c00000000000060448201526064016109fc565b66038d7ea4c6800081101561253a5760405162461bcd60e51b815260206004820152601960248201527f4c696162696c6974792076616c756520746f6f20736d616c6c0000000000000060448201526064016109fc565b61254d82670de0b6b3a764000083612b8d565b93505050505b95945050505050565b5f61257f6125686105e9565b846125716108cf565b6125796107c0565b86612442565b90505b92915050565b5f612591612cd9565b6001600160a01b031663ff8336ff6040518163ffffffff1660e01b8152600401602060405180830381865afa15801561098b573d5f5f3e3d5ffd5b6125f360405180608001604052805f81526020015f81526020015f81526020015f81525090565b81516126115760405162461bcd60e51b81526004016109fc90612fef565b5f826020015111801561262757505f8260400151115b6126635760405162461bcd60e51b815260206004820152600d60248201526c496e76616c696420707269636560981b60448201526064016109fc565b612678825f0151836101000151612710612b8d565b6060820181905282515f9161268c91613042565b90505f6126a6828560400151670de0b6b3a7640000612b8d565b905066038d7ea4c680008110156126f85760405162461bcd60e51b815260206004820152601660248201527514995919595b481d985b1d59481d1bdbc81cdb585b1b60521b60448201526064016109fc565b670de0b6b3a764000084606001511061272c5761272281670de0b6b3a76400008660200151612b8d565b8352509092915050565b5f8460e0015111801561274257505f8460800151115b801561275157505f8460a00151115b61279d5760405162461bcd60e51b815260206004820152601760248201527f496e76616c6964207365636f6e6461727920707269636500000000000000000060448201526064016109fc565b5f6127b5828660600151670de0b6b3a7640000612b8d565b90506127ce81670de0b6b3a76400008760200151612b8d565b84525f8183116127de575f6127e8565b6127e88284613042565b9050805f036127fa5750505050919050565b5f6128168760e001518860800151670de0b6b3a7640000612b8d565b9050808760a00151106128445761283a82670de0b6b3a76400008960a00151612b8d565b60208701526128dc565b61285782670de0b6b3a764000083612b8d565b602087015260c08701516128a15760405162461bcd60e51b8152602060048201526011602482015270496e76616c69642042525320707269636560781b60448201526064016109fc565b5f6128bc838960a00151846128b69190613042565b84612b8d565b90506128d581670de0b6b3a76400008a60c00151612b8d565b6040880152505b5050505050919050565b5f6125826402540be4008361307c565b60018110156129475760405162461bcd60e51b815260206004820152601860248201527f416d6f756e742062656c6f77206d696e696d756d20425443000000000000000060448201526064016109fc565b64e8d4a510008111156105e65760405162461bcd60e51b815260206004820152601760248201527f416d6f756e742065786365656473206d6178205742544300000000000000000060448201526064016109fc565b6040516001600160a01b038481166024830152838116604483015260648201839052612a039186918216906323b872dd906084015b604051602081830303815290604052915060e01b6020820180516001600160e01b038381831617835250505050612dae565b50505050565b5f836001600160a01b031663095ea7b38484604051602401612a2c929190612fd6565b604051602081830303815290604052915060e01b6020820180516001600160e01b0383818316178352505050509050612a658482612e1a565b612a0357612a8f84856001600160a01b031663095ea7b3865f6040516024016129d1929190612fd6565b612a038482612dae565b600154600160a01b900460ff1661035057604051638dfc202b60e01b815260040160405180910390fd5b66038d7ea4c68000811015612b115760405162461bcd60e51b8152602060048201526014602482015273416d6f756e742062656c6f77206d696e696d756d60601b60448201526064016109fc565b6b033b2e3c9fd0803ce80000008111156105e65760405162461bcd60e51b8152602060048201526012602482015271082dadeeadce840caf0c6cacac8e640dac2f60731b60448201526064016109fc565b612b8883846001600160a01b031663a9059cbb85856040516024016129d1929190612fd6565b505050565b5f5f5f612b9a8686612e63565b91509150815f03612bbe57838181612bb457612bb4613068565b0492505050612c37565b818411612bd557612bd56003851502601118612e7f565b5f848688095f868103871696879004966002600389028118808a02820302808a02820302808a02820302808a02820302808a02820302808a02909103029181900381900460010185841190960395909502919093039390930492909217029150505b9392505050565b5f821580612c4a575081155b15612c5657505f612582565b61257f83836305f5e100612b8d565b5f80612c718486613055565b9050801580612c7e575082155b15612c8c575f915050612c37565b6125538184670de0b6b3a7640000612b8d565b5f5f612cab8585612e90565b9050801580612cb8575082155b15612cc6575f915050612c37565b61255381670de0b6b3a764000085612b8d565b5f5f7f00000000000000000000000000000000000000000000000000000000000000006001600160a01b0316630a19399a6040518163ffffffff1660e01b8152600401602060405180830381865afa158015612d37573d5f5f3e3d5ffd5b505050506040513d601f19601f82011682018060405250810190612d5b9190612f38565b90506001600160a01b038116612da95760405162461bcd60e51b8152602060048201526013602482015272141c9a58d953dc9858db19481b9bdd081cd95d606a1b60448201526064016109fc565b919050565b5f5f60205f8451602086015f885af180612dcd576040513d5f823e3d81fd5b50505f513d91508115612de4578060011415612df1565b6001600160a01b0384163b155b15612a0357604051635274afe760e01b81526001600160a01b03851660048201526024016109fc565b5f5f5f5f60205f8651602088015f8a5af192503d91505f519050828015612e5957508115612e4b5780600114612e59565b5f866001600160a01b03163b115b9695505050505050565b5f805f1983850993909202808410938190039390930393915050565b634e487b715f52806020526024601cfd5b5f818311612e9e575f61257f565b61257f8284613042565b5f5f5f5f5f60a08688031215612ebc575f5ffd5b8535945060208601359350604086013560ff81168114612eda575f5ffd5b94979396509394606081013594506080013592915050565b5f60208284031215612f02575f5ffd5b5035919050565b6001600160a01b03811681146105e6575f5ffd5b5f60208284031215612f2d575f5ffd5b8135612c3781612f09565b5f60208284031215612f48575f5ffd5b8151612c3781612f09565b6001600160a01b0397881681529590961660208601526040850193909352606084019190915260ff16608083015260a082015260c081019190915260e00190565b5f5f5f60608486031215612fa6575f5ffd5b5050815160208301516040909301519094929350919050565b5f60208284031215612fcf575f5ffd5b5051919050565b6001600160a01b03929092168252602082015260400190565b6020808252600e908201526d125b9d985b1a5908185b5bdd5b9d60921b604082015260600190565b634e487b7160e01b5f52601160045260245ffd5b808202811582820484141761258257612582613017565b8181038181111561258257612582613017565b8082018082111561258257612582613017565b634e487b7160e01b5f52601260045260245ffd5b5f8261309657634e487b7160e01b5f52601260045260245ffd5b50049056fea26469706673582212202ef143d66a15926a16683515431d8af8f6fdd13cef36bd5b35f59096632174f364736f6c634300081e0033",
  "linkReferences": {},
  "deployedLinkReferences": {},
  "immutableReferences": {
    "5744": [
      {
        "length": 32,
        "start": 333
      },
      {
        "length": 32,
        "start": 760
      },
      {
        "length": 32,
        "start": 868
      },
      {
        "length": 32,
        "start": 1148
      },
      {
        "length": 32,
        "start": 1517
      },
      {
        "length": 32,
        "start": 1988
      },
      {
        "length": 32,
        "start": 2258
      },
      {
        "length": 32,
        "start": 3395
      },
      {
        "length": 32,
        "start": 3541
      },
      {
        "length": 32,
        "start": 3672
      },
      {
        "length": 32,
        "start": 4028
      },
      {
        "length": 32,
        "start": 4692
      },
      {
        "length": 32,
        "start": 5395
      },
      {
        "length": 32,
        "start": 5623
      },
      {
        "length": 32,
        "start": 5765
      },
      {
        "length": 32,
        "start": 6003
      },
      {
        "length": 32,
        "start": 6226
      },
      {
        "length": 32,
        "start": 6380
      },
      {
        "length": 32,
        "start": 6613
      },
      {
        "length": 32,
        "start": 6947
      },
      {
        "length": 32,
        "start": 7693
      },
      {
        "length": 32,
        "start": 7911
      },
      {
        "length": 32,
        "start": 11485
      }
    ]
  },
  "inputSourceName": "project/contracts/Minter.sol",
  "buildInfoId": "solc-0_8_30-a70a83185932bad1cc8f0b7faca55392b589bc27"
}