{
  "_format": "hh3-artifact-1",
  "contractName": "ConfigGov",
  "sourceName": "contracts/ConfigGov.sol",
  "abi": [
    {
      "inputs": [
        {
          "internalType": "address",
          "name": "initialOwner",
          "type": "address"
        }
      ],
      "stateMutability": "nonpayable",
      "type": "constructor"
    },
    {
      "inputs": [
        {
          "internalType": "address",
          "name": "owner",
          "type": "address"
        }
      ],
      "name": "OwnableInvalidOwner",
      "type": "error"
    },
    {
      "inputs": [
        {
          "internalType": "address",
          "name": "account",
          "type": "address"
        }
      ],
      "name": "OwnableUnauthorizedAccount",
      "type": "error"
    },
    {
      "anonymous": false,
      "inputs": [
        {
          "indexed": true,
          "internalType": "enum ConfigGov.AddressParamType",
          "name": "paramType",
          "type": "uint8"
        },
        {
          "indexed": false,
          "internalType": "address",
          "name": "newValue",
          "type": "address"
        }
      ],
      "name": "AddressParamUpdated",
      "type": "event"
    },
    {
      "anonymous": false,
      "inputs": [
        {
          "indexed": true,
          "internalType": "address",
          "name": "previousOwner",
          "type": "address"
        },
        {
          "indexed": true,
          "internalType": "address",
          "name": "newOwner",
          "type": "address"
        }
      ],
      "name": "OwnershipTransferred",
      "type": "event"
    },
    {
      "anonymous": false,
      "inputs": [
        {
          "indexed": true,
          "internalType": "enum ConfigGov.ParamType",
          "name": "paramType",
          "type": "uint8"
        },
        {
          "indexed": false,
          "internalType": "uint256",
          "name": "newValue",
          "type": "uint256"
        }
      ],
      "name": "ParamUpdated",
      "type": "event"
    },
    {
      "inputs": [
        {
          "internalType": "enum ConfigGov.AddressParamType",
          "name": "paramType",
          "type": "uint8"
        }
      ],
      "name": "getAddressParam",
      "outputs": [
        {
          "internalType": "address",
          "name": "",
          "type": "address"
        }
      ],
      "stateMutability": "view",
      "type": "function"
    },
    {
      "inputs": [
        {
          "internalType": "enum ConfigGov.ParamType",
          "name": "paramType",
          "type": "uint8"
        }
      ],
      "name": "getParam",
      "outputs": [
        {
          "internalType": "uint256",
          "name": "",
          "type": "uint256"
        }
      ],
      "stateMutability": "view",
      "type": "function"
    },
    {
      "inputs": [],
      "name": "interestFeeBP",
      "outputs": [
        {
          "internalType": "uint256",
          "name": "",
          "type": "uint256"
        }
      ],
      "stateMutability": "view",
      "type": "function"
    },
    {
      "inputs": [],
      "name": "maxBTBRate",
      "outputs": [
        {
          "internalType": "uint256",
          "name": "",
          "type": "uint256"
        }
      ],
      "stateMutability": "view",
      "type": "function"
    },
    {
      "inputs": [],
      "name": "minBTBPrice",
      "outputs": [
        {
          "internalType": "uint256",
          "name": "",
          "type": "uint256"
        }
      ],
      "stateMutability": "view",
      "type": "function"
    },
    {
      "inputs": [],
      "name": "mintFeeBP",
      "outputs": [
        {
          "internalType": "uint256",
          "name": "",
          "type": "uint256"
        }
      ],
      "stateMutability": "view",
      "type": "function"
    },
    {
      "inputs": [],
      "name": "owner",
      "outputs": [
        {
          "internalType": "address",
          "name": "",
          "type": "address"
        }
      ],
      "stateMutability": "view",
      "type": "function"
    },
    {
      "inputs": [],
      "name": "pceFeed",
      "outputs": [
        {
          "internalType": "address",
          "name": "",
          "type": "address"
        }
      ],
      "stateMutability": "view",
      "type": "function"
    },
    {
      "inputs": [],
      "name": "pceMaxDeviation",
      "outputs": [
        {
          "internalType": "uint256",
          "name": "",
          "type": "uint256"
        }
      ],
      "stateMutability": "view",
      "type": "function"
    },
    {
      "inputs": [],
      "name": "redeemFeeBP",
      "outputs": [
        {
          "internalType": "uint256",
          "name": "",
          "type": "uint256"
        }
      ],
      "stateMutability": "view",
      "type": "function"
    },
    {
      "inputs": [],
      "name": "renounceOwnership",
      "outputs": [],
      "stateMutability": "nonpayable",
      "type": "function"
    },
    {
      "inputs": [
        {
          "internalType": "enum ConfigGov.AddressParamType",
          "name": "paramType",
          "type": "uint8"
        },
        {
          "internalType": "address",
          "name": "value",
          "type": "address"
        }
      ],
      "name": "setAddressParam",
      "outputs": [],
      "stateMutability": "nonpayable",
      "type": "function"
    },
    {
      "inputs": [
        {
          "internalType": "enum ConfigGov.AddressParamType[]",
          "name": "paramTypes",
          "type": "uint8[]"
        },
        {
          "internalType": "address[]",
          "name": "values",
          "type": "address[]"
        }
      ],
      "name": "setAddressParamsBatch",
      "outputs": [],
      "stateMutability": "nonpayable",
      "type": "function"
    },
    {
      "inputs": [
        {
          "internalType": "enum ConfigGov.ParamType",
          "name": "paramType",
          "type": "uint8"
        },
        {
          "internalType": "uint256",
          "name": "value",
          "type": "uint256"
        }
      ],
      "name": "setParam",
      "outputs": [],
      "stateMutability": "nonpayable",
      "type": "function"
    },
    {
      "inputs": [
        {
          "internalType": "enum ConfigGov.ParamType[]",
          "name": "paramTypes",
          "type": "uint8[]"
        },
        {
          "internalType": "uint256[]",
          "name": "values",
          "type": "uint256[]"
        }
      ],
      "name": "setParamsBatch",
      "outputs": [],
      "stateMutability": "nonpayable",
      "type": "function"
    },
    {
      "inputs": [
        {
          "internalType": "address",
          "name": "newOwner",
          "type": "address"
        }
      ],
      "name": "transferOwnership",
      "outputs": [],
      "stateMutability": "nonpayable",
      "type": "function"
    }
  ],
  "bytecode": "0x608060405234801561000f575f5ffd5b5060405161110e38038061110e83398101604081905261002e91610112565b806001600160a01b03811661005d57604051631e4fbdf760e01b81525f60048201526024015b60405180910390fd5b610066816100c3565b506001600160a01b0381166100bd5760405162461bcd60e51b815260206004820152601560248201527f436f6e666967476f763a207a65726f206f776e657200000000000000000000006044820152606401610054565b5061013f565b5f80546001600160a01b038381166001600160a01b0319831681178455604051919092169283917f8be0079c531659141344cd1fd0a4f28419497f9722a3daafe3b4186f6b6457e09190a35050565b5f60208284031215610122575f5ffd5b81516001600160a01b0381168114610138575f5ffd5b9392505050565b610fc28061014c5f395ff3fe608060405234801561000f575f5ffd5b50600436106100fb575f3560e01c8063a822bc3911610093578063c1cca2b311610063578063c1cca2b3146101fb578063d8a1b89e1461020e578063f2fde38b14610216578063faa24f0714610229575f5ffd5b8063a822bc39146101a0578063a9a2a715146101d8578063b646b3ed146101eb578063b7910385146101f3575f5ffd5b806355c9fa7e116100ce57806355c9fa7e1461016d5780635b1dd53314610180578063715018a6146101885780638da5cb5b14610190575f5ffd5b806303a2216d146100ff5780632313d26d146101255780632b1cb4de1461015057806340bb8a0114610165575b5f5ffd5b61011261010d366004610de1565b610231565b6040519081526020015b60405180910390f35b610138610133366004610e0f565b61026d565b6040516001600160a01b03909116815260200161011c565b61016361015e366004610e70565b6102ad565b005b610112610468565b61016361017b366004610ef2565b610493565b610112610589565b610163610594565b5f546001600160a01b0316610138565b5f805260026020527fac33ff75c19e70fe83507db0d683fd3465c996598dc972688b7ace676c89077b546001600160a01b0316610138565b6101636101e6366004610e70565b6105a7565b6101126107bd565b6101126107c8565b610163610209366004610f23565b6107d2565b61011261085d565b610163610224366004610f4b565b610868565b6101126108a5565b5f60015f83600581111561024757610247610f64565b600581111561025857610258610f64565b81526020019081526020015f20549050919050565b5f60028183801561028057610280610f64565b801561028e5761028e610f64565b815260208101919091526040015f20546001600160a01b031692915050565b6102b56108af565b8281146103095760405162461bcd60e51b815260206004820152601a60248201527f436f6e666967476f763a206c656e677468206d69736d6174636800000000000060448201526064015b60405180910390fd5b5f5b838110156104615761035b85858381811061032857610328610f78565b905060200201602081019061033d9190610de1565b84848481811061034f5761034f610f78565b905060200201356108db565b82828281811061036d5761036d610f78565b9050602002013560015f87878581811061038957610389610f78565b905060200201602081019061039e9190610de1565b60058111156103af576103af610f64565b60058111156103c0576103c0610f64565b815260208101919091526040015f20558484828181106103e2576103e2610f78565b90506020020160208101906103f79190610de1565b600581111561040857610408610f64565b7ff0500fa4f8da99d70bd1ca878887729d3a62a8623b27b910ec6bb799dd89591884848481811061043b5761043b610f78565b9050602002013560405161045191815260200190565b60405180910390a260010161030b565b5050505050565b5f60018160055b600581111561048057610480610f64565b81526020019081526020015f2054905090565b61049b6108af565b6001600160a01b0381166104eb5760405162461bcd60e51b8152602060048201526017602482015276436f6e666967476f763a207a65726f206164647265737360481b6044820152606401610300565b8060025f8480156104fe576104fe610f64565b801561050c5761050c610f64565b815260208101919091526040015f2080546001600160a01b0319166001600160a01b039290921691909117905581801561054857610548610f64565b6040516001600160a01b03831681527f8731777fb974867ae7f066a92ece1999df6293d483d6afed8efce7ba371acf0e906020015b60405180910390a25050565b5f600181600361046f565b61059c6108af565b6105a55f610d7f565b565b6105af6108af565b8281146105fe5760405162461bcd60e51b815260206004820152601a60248201527f436f6e666967476f763a206c656e677468206d69736d617463680000000000006044820152606401610300565b5f5b83811015610461575f83838381811061061b5761061b610f78565b90506020020160208101906106309190610f4b565b6001600160a01b0316036106805760405162461bcd60e51b8152602060048201526017602482015276436f6e666967476f763a207a65726f206164647265737360481b6044820152606401610300565b82828281811061069257610692610f78565b90506020020160208101906106a79190610f4b565b60025f8787858181106106bc576106bc610f78565b90506020020160208101906106d19190610e0f565b80156106df576106df610f64565b80156106ed576106ed610f64565b81526020019081526020015f205f6101000a8154816001600160a01b0302191690836001600160a01b0316021790555084848281811061072f5761072f610f78565b90506020020160208101906107449190610e0f565b801561075257610752610f64565b7f8731777fb974867ae7f066a92ece1999df6293d483d6afed8efce7ba371acf0e84848481811061078557610785610f78565b905060200201602081019061079a9190610f4b565b6040516001600160a01b03909116815260200160405180910390a2600101610600565b5f600181600261046f565b5f6001818161046f565b6107da6108af565b6107e482826108db565b8060015f8460058111156107fa576107fa610f64565b600581111561080b5761080b610f64565b815260208101919091526040015f205581600581111561082d5761082d610f64565b6040518281527ff0500fa4f8da99d70bd1ca878887729d3a62a8623b27b910ec6bb799dd8959189060200161057d565b5f600181600461046f565b6108706108af565b6001600160a01b03811661089957604051631e4fbdf760e01b81525f6004820152602401610300565b6108a281610d7f565b50565b5f6001818061046f565b5f546001600160a01b031633146105a55760405163118cdaa760e01b8152336004820152602401610300565b5f8260058111156108ee576108ee610f64565b0361099a5760018110156109445760405162461bcd60e51b815260206004820152601b60248201527f436f6e666967476f763a206d696e742066656520746f6f206c6f7700000000006044820152606401610300565b6103e88111156109965760405162461bcd60e51b815260206004820152601c60248201527f436f6e666967476f763a206d696e742066656520746f6f2068696768000000006044820152606401610300565b5050565b60018260058111156109ae576109ae610f64565b03610a56576001811015610a045760405162461bcd60e51b815260206004820152601f60248201527f436f6e666967476f763a20696e7465726573742066656520746f6f206c6f77006044820152606401610300565b6103e88111156109965760405162461bcd60e51b815260206004820181905260248201527f436f6e666967476f763a20696e7465726573742066656520746f6f20686967686044820152606401610300565b6005826005811115610a6a57610a6a610f64565b03610b12576001811015610ac05760405162461bcd60e51b815260206004820152601d60248201527f436f6e666967476f763a2072656465656d2066656520746f6f206c6f770000006044820152606401610300565b6103e88111156109965760405162461bcd60e51b815260206004820152601e60248201527f436f6e666967476f763a2072656465656d2066656520746f6f206869676800006044820152606401610300565b6002826005811115610b2657610b26610f64565b03610be55767016345785d8a0000811015610b835760405162461bcd60e51b815260206004820181905260248201527f436f6e666967476f763a206d696e2042544220707269636520746f6f206c6f776044820152606401610300565b671bc16d674ec800008111156109965760405162461bcd60e51b815260206004820152602160248201527f436f6e666967476f763a206d696e2042544220707269636520746f6f206869676044820152600d60fb1b6064820152608401610300565b6003826005811115610bf957610bf9610f64565b03610cad57662386f26fc10000811015610c555760405162461bcd60e51b815260206004820152601f60248201527f436f6e666967476f763a206d617820425442207261746520746f6f206c6f77006044820152606401610300565b6702c68af0bb1400008111156109965760405162461bcd60e51b815260206004820181905260248201527f436f6e666967476f763a206d617820425442207261746520746f6f20686967686044820152606401610300565b6004826005811115610cc157610cc1610f64565b036109965766038d7ea4c68000811015610d1d5760405162461bcd60e51b815260206004820181905260248201527f436f6e666967476f763a2050434520646576696174696f6e20746f6f206c6f776044820152606401610300565b67016345785d8a00008111156109965760405162461bcd60e51b815260206004820152602160248201527f436f6e666967476f763a2050434520646576696174696f6e20746f6f206869676044820152600d60fb1b6064820152608401610300565b5f80546001600160a01b038381166001600160a01b0319831681178455604051919092169283917f8be0079c531659141344cd1fd0a4f28419497f9722a3daafe3b4186f6b6457e09190a35050565b803560068110610ddc575f5ffd5b919050565b5f60208284031215610df1575f5ffd5b610dfa82610dce565b9392505050565b803560018110610ddc575f5ffd5b5f60208284031215610e1f575f5ffd5b610dfa82610e01565b5f5f83601f840112610e38575f5ffd5b50813567ffffffffffffffff811115610e4f575f5ffd5b6020830191508360208260051b8501011115610e69575f5ffd5b9250929050565b5f5f5f5f60408587031215610e83575f5ffd5b843567ffffffffffffffff811115610e99575f5ffd5b610ea587828801610e28565b909550935050602085013567ffffffffffffffff811115610ec4575f5ffd5b610ed087828801610e28565b95989497509550505050565b80356001600160a01b0381168114610ddc575f5ffd5b5f5f60408385031215610f03575f5ffd5b610f0c83610e01565b9150610f1a60208401610edc565b90509250929050565b5f5f60408385031215610f34575f5ffd5b610f3d83610dce565b946020939093013593505050565b5f60208284031215610f5b575f5ffd5b610dfa82610edc565b634e487b7160e01b5f52602160045260245ffd5b634e487b7160e01b5f52603260045260245ffdfea2646970667358221220a961c9a62b4efe8423a656b7d154dcbe8c37f8b152d20b6d3c5bb68de1dff21a64736f6c634300081e0033",
  "linkReferences": {},
  "deployedLinkReferences": {},
  "immutableReferences": {},
  "inputSourceName": "project/contracts/ConfigGov.sol",
  "buildInfoId": "solc-0_8_30-81e783c350efeacae2813cdd4b1841c792e97ea6"
}