{
  "_format": "hh3-artifact-1",
  "contractName": "UniswapV2Pair",
  "sourceName": "contracts/local/UniswapV2Pair.sol",
  "abi": [
    {
      "inputs": [],
      "stateMutability": "nonpayable",
      "type": "constructor"
    },
    {
      "inputs": [
        {
          "internalType": "address",
          "name": "spender",
          "type": "address"
        },
        {
          "internalType": "uint256",
          "name": "allowance",
          "type": "uint256"
        },
        {
          "internalType": "uint256",
          "name": "needed",
          "type": "uint256"
        }
      ],
      "name": "ERC20InsufficientAllowance",
      "type": "error"
    },
    {
      "inputs": [
        {
          "internalType": "address",
          "name": "sender",
          "type": "address"
        },
        {
          "internalType": "uint256",
          "name": "balance",
          "type": "uint256"
        },
        {
          "internalType": "uint256",
          "name": "needed",
          "type": "uint256"
        }
      ],
      "name": "ERC20InsufficientBalance",
      "type": "error"
    },
    {
      "inputs": [
        {
          "internalType": "address",
          "name": "approver",
          "type": "address"
        }
      ],
      "name": "ERC20InvalidApprover",
      "type": "error"
    },
    {
      "inputs": [
        {
          "internalType": "address",
          "name": "receiver",
          "type": "address"
        }
      ],
      "name": "ERC20InvalidReceiver",
      "type": "error"
    },
    {
      "inputs": [
        {
          "internalType": "address",
          "name": "sender",
          "type": "address"
        }
      ],
      "name": "ERC20InvalidSender",
      "type": "error"
    },
    {
      "inputs": [
        {
          "internalType": "address",
          "name": "spender",
          "type": "address"
        }
      ],
      "name": "ERC20InvalidSpender",
      "type": "error"
    },
    {
      "anonymous": false,
      "inputs": [
        {
          "indexed": true,
          "internalType": "address",
          "name": "owner",
          "type": "address"
        },
        {
          "indexed": true,
          "internalType": "address",
          "name": "spender",
          "type": "address"
        },
        {
          "indexed": false,
          "internalType": "uint256",
          "name": "value",
          "type": "uint256"
        }
      ],
      "name": "Approval",
      "type": "event"
    },
    {
      "anonymous": false,
      "inputs": [
        {
          "indexed": true,
          "internalType": "address",
          "name": "sender",
          "type": "address"
        },
        {
          "indexed": false,
          "internalType": "uint256",
          "name": "amount0",
          "type": "uint256"
        },
        {
          "indexed": false,
          "internalType": "uint256",
          "name": "amount1",
          "type": "uint256"
        },
        {
          "indexed": true,
          "internalType": "address",
          "name": "to",
          "type": "address"
        }
      ],
      "name": "Burn",
      "type": "event"
    },
    {
      "anonymous": false,
      "inputs": [
        {
          "indexed": true,
          "internalType": "address",
          "name": "sender",
          "type": "address"
        },
        {
          "indexed": false,
          "internalType": "uint256",
          "name": "amount0",
          "type": "uint256"
        },
        {
          "indexed": false,
          "internalType": "uint256",
          "name": "amount1",
          "type": "uint256"
        }
      ],
      "name": "Mint",
      "type": "event"
    },
    {
      "anonymous": false,
      "inputs": [
        {
          "indexed": true,
          "internalType": "address",
          "name": "sender",
          "type": "address"
        },
        {
          "indexed": false,
          "internalType": "uint256",
          "name": "amount0In",
          "type": "uint256"
        },
        {
          "indexed": false,
          "internalType": "uint256",
          "name": "amount1In",
          "type": "uint256"
        },
        {
          "indexed": false,
          "internalType": "uint256",
          "name": "amount0Out",
          "type": "uint256"
        },
        {
          "indexed": false,
          "internalType": "uint256",
          "name": "amount1Out",
          "type": "uint256"
        },
        {
          "indexed": true,
          "internalType": "address",
          "name": "to",
          "type": "address"
        }
      ],
      "name": "Swap",
      "type": "event"
    },
    {
      "anonymous": false,
      "inputs": [
        {
          "indexed": false,
          "internalType": "uint112",
          "name": "reserve0",
          "type": "uint112"
        },
        {
          "indexed": false,
          "internalType": "uint112",
          "name": "reserve1",
          "type": "uint112"
        }
      ],
      "name": "Sync",
      "type": "event"
    },
    {
      "anonymous": false,
      "inputs": [
        {
          "indexed": true,
          "internalType": "address",
          "name": "from",
          "type": "address"
        },
        {
          "indexed": true,
          "internalType": "address",
          "name": "to",
          "type": "address"
        },
        {
          "indexed": false,
          "internalType": "uint256",
          "name": "value",
          "type": "uint256"
        }
      ],
      "name": "Transfer",
      "type": "event"
    },
    {
      "inputs": [],
      "name": "MINIMUM_LIQUIDITY",
      "outputs": [
        {
          "internalType": "uint256",
          "name": "",
          "type": "uint256"
        }
      ],
      "stateMutability": "view",
      "type": "function"
    },
    {
      "inputs": [
        {
          "internalType": "uint112",
          "name": "_reserve0",
          "type": "uint112"
        },
        {
          "internalType": "uint112",
          "name": "_reserve1",
          "type": "uint112"
        }
      ],
      "name": "__setReservesForTest",
      "outputs": [],
      "stateMutability": "nonpayable",
      "type": "function"
    },
    {
      "inputs": [
        {
          "internalType": "address",
          "name": "owner",
          "type": "address"
        },
        {
          "internalType": "address",
          "name": "spender",
          "type": "address"
        }
      ],
      "name": "allowance",
      "outputs": [
        {
          "internalType": "uint256",
          "name": "",
          "type": "uint256"
        }
      ],
      "stateMutability": "view",
      "type": "function"
    },
    {
      "inputs": [
        {
          "internalType": "address",
          "name": "spender",
          "type": "address"
        },
        {
          "internalType": "uint256",
          "name": "value",
          "type": "uint256"
        }
      ],
      "name": "approve",
      "outputs": [
        {
          "internalType": "bool",
          "name": "",
          "type": "bool"
        }
      ],
      "stateMutability": "nonpayable",
      "type": "function"
    },
    {
      "inputs": [
        {
          "internalType": "address",
          "name": "account",
          "type": "address"
        }
      ],
      "name": "balanceOf",
      "outputs": [
        {
          "internalType": "uint256",
          "name": "",
          "type": "uint256"
        }
      ],
      "stateMutability": "view",
      "type": "function"
    },
    {
      "inputs": [
        {
          "internalType": "address",
          "name": "to",
          "type": "address"
        }
      ],
      "name": "burn",
      "outputs": [
        {
          "internalType": "uint256",
          "name": "amount0",
          "type": "uint256"
        },
        {
          "internalType": "uint256",
          "name": "amount1",
          "type": "uint256"
        }
      ],
      "stateMutability": "nonpayable",
      "type": "function"
    },
    {
      "inputs": [],
      "name": "decimals",
      "outputs": [
        {
          "internalType": "uint8",
          "name": "",
          "type": "uint8"
        }
      ],
      "stateMutability": "view",
      "type": "function"
    },
    {
      "inputs": [],
      "name": "getReserves",
      "outputs": [
        {
          "internalType": "uint112",
          "name": "_reserve0",
          "type": "uint112"
        },
        {
          "internalType": "uint112",
          "name": "_reserve1",
          "type": "uint112"
        },
        {
          "internalType": "uint32",
          "name": "_blockTimestampLast",
          "type": "uint32"
        }
      ],
      "stateMutability": "view",
      "type": "function"
    },
    {
      "inputs": [
        {
          "internalType": "address",
          "name": "_token0",
          "type": "address"
        },
        {
          "internalType": "address",
          "name": "_token1",
          "type": "address"
        }
      ],
      "name": "initialize",
      "outputs": [],
      "stateMutability": "nonpayable",
      "type": "function"
    },
    {
      "inputs": [
        {
          "internalType": "address",
          "name": "to",
          "type": "address"
        }
      ],
      "name": "mint",
      "outputs": [
        {
          "internalType": "uint256",
          "name": "liquidity",
          "type": "uint256"
        }
      ],
      "stateMutability": "nonpayable",
      "type": "function"
    },
    {
      "inputs": [],
      "name": "name",
      "outputs": [
        {
          "internalType": "string",
          "name": "",
          "type": "string"
        }
      ],
      "stateMutability": "view",
      "type": "function"
    },
    {
      "inputs": [
        {
          "internalType": "uint112",
          "name": "_reserve0",
          "type": "uint112"
        },
        {
          "internalType": "uint112",
          "name": "_reserve1",
          "type": "uint112"
        }
      ],
      "name": "setReserves",
      "outputs": [],
      "stateMutability": "nonpayable",
      "type": "function"
    },
    {
      "inputs": [
        {
          "internalType": "address",
          "name": "_token0",
          "type": "address"
        },
        {
          "internalType": "address",
          "name": "_token1",
          "type": "address"
        }
      ],
      "name": "setTokens",
      "outputs": [],
      "stateMutability": "nonpayable",
      "type": "function"
    },
    {
      "inputs": [
        {
          "internalType": "address",
          "name": "to",
          "type": "address"
        }
      ],
      "name": "skim",
      "outputs": [],
      "stateMutability": "nonpayable",
      "type": "function"
    },
    {
      "inputs": [
        {
          "internalType": "uint256",
          "name": "amount0Out",
          "type": "uint256"
        },
        {
          "internalType": "uint256",
          "name": "amount1Out",
          "type": "uint256"
        },
        {
          "internalType": "address",
          "name": "to",
          "type": "address"
        },
        {
          "internalType": "bytes",
          "name": "",
          "type": "bytes"
        }
      ],
      "name": "swap",
      "outputs": [],
      "stateMutability": "nonpayable",
      "type": "function"
    },
    {
      "inputs": [],
      "name": "symbol",
      "outputs": [
        {
          "internalType": "string",
          "name": "",
          "type": "string"
        }
      ],
      "stateMutability": "view",
      "type": "function"
    },
    {
      "inputs": [],
      "name": "sync",
      "outputs": [],
      "stateMutability": "nonpayable",
      "type": "function"
    },
    {
      "inputs": [],
      "name": "token0",
      "outputs": [
        {
          "internalType": "address",
          "name": "",
          "type": "address"
        }
      ],
      "stateMutability": "view",
      "type": "function"
    },
    {
      "inputs": [],
      "name": "token1",
      "outputs": [
        {
          "internalType": "address",
          "name": "",
          "type": "address"
        }
      ],
      "stateMutability": "view",
      "type": "function"
    },
    {
      "inputs": [],
      "name": "totalSupply",
      "outputs": [
        {
          "internalType": "uint256",
          "name": "",
          "type": "uint256"
        }
      ],
      "stateMutability": "view",
      "type": "function"
    },
    {
      "inputs": [
        {
          "internalType": "address",
          "name": "to",
          "type": "address"
        },
        {
          "internalType": "uint256",
          "name": "value",
          "type": "uint256"
        }
      ],
      "name": "transfer",
      "outputs": [
        {
          "internalType": "bool",
          "name": "",
          "type": "bool"
        }
      ],
      "stateMutability": "nonpayable",
      "type": "function"
    },
    {
      "inputs": [
        {
          "internalType": "address",
          "name": "from",
          "type": "address"
        },
        {
          "internalType": "address",
          "name": "to",
          "type": "address"
        },
        {
          "internalType": "uint256",
          "name": "value",
          "type": "uint256"
        }
      ],
      "name": "transferFrom",
      "outputs": [
        {
          "internalType": "bool",
          "name": "",
          "type": "bool"
        }
      ],
      "stateMutability": "nonpayable",
      "type": "function"
    }
  ],
  "bytecode": "0x60806040526001600855348015610014575f5ffd5b506040518060400160405280600d81526020016c0556e6973776170205632204c5609c1b815250604051806040016040528060068152602001652aa72496ab1960d11b81525081600390816100699190610116565b5060046100768282610116565b5050506101d0565b634e487b7160e01b5f52604160045260245ffd5b600181811c908216806100a657607f821691505b6020821081036100c457634e487b7160e01b5f52602260045260245ffd5b50919050565b601f82111561011157805f5260205f20601f840160051c810160208510156100ef5750805b601f840160051c820191505b8181101561010e575f81556001016100fb565b50505b505050565b81516001600160401b0381111561012f5761012f61007e565b6101438161013d8454610092565b846100ca565b6020601f821160018114610175575f831561015e5750848201515b5f19600385901b1c1916600184901b17845561010e565b5f84815260208120601f198516915b828110156101a45787850151825560209485019460019092019101610184565b50848210156101c157868401515f19600387901b60f8161c191681555b50505050600190811b01905550565b611b74806101dd5f395ff3fe608060405234801561000f575f5ffd5b506004361061013d575f3560e01c806375ea5f2e116100b4578063ba9a7a5611610079578063ba9a7a561461030d578063bc25cf7714610316578063cbc7854e14610329578063d21220a71461033c578063dd62ed3e1461034f578063fff6cae914610387575f5ffd5b806375ea5f2e146102785780637a3017a91461028b57806389afcb44146102ca57806395d89b41146102f2578063a9059cbb146102fa575f5ffd5b806318160ddd1161010557806318160ddd146101f657806323b872dd14610208578063313ce5671461021b578063485cc9551461022a5780636a6278421461023d57806370a0823114610250575f5ffd5b8063022c0d9f1461014157806306fdde03146101565780630902f1ac14610174578063095ea7b3146101a85780630dfe1681146101cb575b5f5ffd5b61015461014f36600461185d565b61038f565b005b61015e61082c565b60405161016b91906118eb565b60405180910390f35b61017c6108bc565b604080516001600160701b03948516815293909216602084015263ffffffff169082015260600161016b565b6101bb6101b6366004611920565b6108e6565b604051901515815260200161016b565b6006546101de906001600160a01b031681565b6040516001600160a01b03909116815260200161016b565b6002545b60405190815260200161016b565b6101bb610216366004611948565b6108ff565b6040516012815260200161016b565b610154610238366004611982565b610922565b6101fa61024b3660046119b3565b6109a9565b6101fa61025e3660046119b3565b6001600160a01b03165f9081526020819052604090205490565b6101546102863660046119e2565b610c3b565b6101546102993660046119e2565b600580546001600160701b03928316600160701b026001600160e01b03199091169290931691909117919091179055565b6102dd6102d83660046119b3565b610c96565b6040805192835260208301919091520161016b565b61015e610fb6565b6101bb610308366004611920565b610fc5565b6101fa6103e881565b6101546103243660046119b3565b610fd2565b610154610337366004611982565b6110e2565b6007546101de906001600160a01b031681565b6101fa61035d366004611982565b6001600160a01b039182165f90815260016020908152604080832093909416825291909152205490565b610154611134565b6008546001146103ba5760405162461bcd60e51b81526004016103b190611a0a565b60405180910390fd5b5f600855841515806103cb57505f84115b6104255760405162461bcd60e51b815260206004820152602560248201527f556e697377617056323a20494e53554646494349454e545f4f55545055545f416044820152641353d5539560da1b60648201526084016103b1565b5f5f61042f6108bc565b5091509150816001600160701b0316871080156104545750806001600160701b031686105b6104aa5760405162461bcd60e51b815260206004820152602160248201527f556e697377617056323a20494e53554646494349454e545f4c495155494449546044820152605960f81b60648201526084016103b1565b6006546007545f9182916001600160a01b039182169190811690891682148015906104e75750806001600160a01b0316896001600160a01b031614155b61052b5760405162461bcd60e51b8152602060048201526015602482015274556e697377617056323a20494e56414c49445f544f60581b60448201526064016103b1565b8a1561053c5761053c828a8d611253565b891561054d5761054d818a8c611253565b6040516370a0823160e01b81523060048201526001600160a01b038316906370a0823190602401602060405180830381865afa15801561058f573d5f5f3e3d5ffd5b505050506040513d601f19601f820116820180604052508101906105b39190611a35565b6040516370a0823160e01b81523060048201529094506001600160a01b038216906370a0823190602401602060405180830381865afa1580156105f8573d5f5f3e3d5ffd5b505050506040513d601f19601f8201168201806040525081019061061c9190611a35565b925050505f89856001600160701b03166106369190611a60565b8311610642575f61065f565b6106558a6001600160701b038716611a60565b61065f9084611a60565b90505f6106758a6001600160701b038716611a60565b8311610681575f61069e565b6106948a6001600160701b038716611a60565b61069e9084611a60565b90505f8211806106ad57505f81115b6107055760405162461bcd60e51b8152602060048201526024808201527f556e697377617056323a20494e53554646494349454e545f494e5055545f414d60448201526313d5539560e21b60648201526084016103b1565b5f610711836003611a73565b61071d866103e8611a73565b6107279190611a60565b90505f610735836003611a73565b610741866103e8611a73565b61074b9190611a60565b90506107636001600160701b03808916908a16611a73565b61077090620f4240611a73565b61077a8284611a73565b10156107b75760405162461bcd60e51b815260206004820152600c60248201526b556e697377617056323a204b60a01b60448201526064016103b1565b50506107c584848888611369565b60408051838152602081018390529081018c9052606081018b90526001600160a01b038a169033907fd78ad95fa46c994b6551d0da85fc275fe613ce37657fb8d5e3d130840159d8229060800160405180910390a350506001600855505050505050505050565b60606003805461083b90611a8a565b80601f016020809104026020016040519081016040528092919081815260200182805461086790611a8a565b80156108b25780601f10610889576101008083540402835291602001916108b2565b820191905f5260205f20905b81548152906001019060200180831161089557829003601f168201915b5050505050905090565b6005546001600160701b0380821692600160701b830490911691600160e01b900463ffffffff1690565b5f336108f3818585611473565b60019150505b92915050565b5f3361090c858285611485565b610917858585611501565b506001949350505050565b6006546001600160a01b03161561097b5760405162461bcd60e51b815260206004820152601e60248201527f556e697377617056323a20414c52454144595f494e495449414c495a4544000060448201526064016103b1565b600680546001600160a01b039384166001600160a01b03199182161790915560078054929093169116179055565b5f6008546001146109cc5760405162461bcd60e51b81526004016103b190611a0a565b5f6008819055806109db6108bc565b506006546040516370a0823160e01b81523060048201529294509092505f916001600160a01b03909116906370a0823190602401602060405180830381865afa158015610a2a573d5f5f3e3d5ffd5b505050506040513d601f19601f82011682018060405250810190610a4e9190611a35565b6007546040516370a0823160e01b81523060048201529192505f916001600160a01b03909116906370a0823190602401602060405180830381865afa158015610a99573d5f5f3e3d5ffd5b505050506040513d601f19601f82011682018060405250810190610abd9190611a35565b90505f610ad36001600160701b03861684611a60565b90505f610ae96001600160701b03861684611a60565b90505f610af560025490565b9050805f03610b31576103e8610b13610b0e8486611a73565b61155e565b610b1d9190611a60565b9750610b2c60016103e86115cc565b610b78565b610b756001600160701b038816610b488386611a73565b610b529190611ad0565b6001600160701b038816610b668486611a73565b610b709190611ad0565b611604565b97505b5f8811610bd85760405162461bcd60e51b815260206004820152602860248201527f556e697377617056323a20494e53554646494349454e545f4c495155494449546044820152671657d3525395115160c21b60648201526084016103b1565b610be289896115cc565b610bee85858989611369565b604080518481526020810184905233917f4c209b5fc8ad50758f13e2e1088ba56a560dff690a1c6fef26394f4c03821c4f910160405180910390a250506001600855509395945050505050565b600580546001600160701b03838116600160701b026001600160e01b031990921690851617179055610c7264010000000042611ae3565b6005601c6101000a81548163ffffffff021916908363ffffffff1602179055505050565b5f5f600854600114610cba5760405162461bcd60e51b81526004016103b190611a0a565b5f600881905580610cc96108bc565b506006546007546040516370a0823160e01b81523060048201529395509193506001600160a01b03908116929116905f9083906370a0823190602401602060405180830381865afa158015610d20573d5f5f3e3d5ffd5b505050506040513d601f19601f82011682018060405250810190610d449190611a35565b6040516370a0823160e01b81523060048201529091505f906001600160a01b038416906370a0823190602401602060405180830381865afa158015610d8b573d5f5f3e3d5ffd5b505050506040513d601f19601f82011682018060405250810190610daf9190611a35565b305f908152602081905260409020546002549192509080610dd08584611a73565b610dda9190611ad0565b995080610de78484611a73565b610df19190611ad0565b98505f8a118015610e0157505f89115b610e5e5760405162461bcd60e51b815260206004820152602860248201527f556e697377617056323a20494e53554646494349454e545f4c495155494449546044820152671657d0955493915160c21b60648201526084016103b1565b610e68308361161b565b610e73868c8c611253565b610e7e858c8b611253565b6040516370a0823160e01b81523060048201526001600160a01b038716906370a0823190602401602060405180830381865afa158015610ec0573d5f5f3e3d5ffd5b505050506040513d601f19601f82011682018060405250810190610ee49190611a35565b6040516370a0823160e01b81523060048201529094506001600160a01b038616906370a0823190602401602060405180830381865afa158015610f29573d5f5f3e3d5ffd5b505050506040513d601f19601f82011682018060405250810190610f4d9190611a35565b9250610f5b84848a8a611369565b604080518b8152602081018b90526001600160a01b038d169133917fdccd412f0b1252819cb1fd330b93224ca42612892bb3f4f789976e6d81936496910160405180910390a350505050505050506001600881905550915091565b60606004805461083b90611a8a565b5f336108f3818585611501565b600854600114610ff45760405162461bcd60e51b81526004016103b190611a0a565b5f6008556006546007546005546040516370a0823160e01b81523060048201526001600160a01b03938416939092169161109091849186916001600160701b03169083906370a08231906024015b602060405180830381865afa15801561105d573d5f5f3e3d5ffd5b505050506040513d601f19601f820116820180604052508101906110819190611a35565b61108b9190611a60565b611253565b6005546040516370a0823160e01b81523060048201526110d89183918691600160701b90046001600160701b0316906001600160a01b038416906370a0823190602401611042565b5050600160085550565b6006546001600160a01b03161561097b5760405162461bcd60e51b8152602060048201526016602482015275155b9a5cddd85c158c8e881053149150511657d4d15560521b60448201526064016103b1565b6008546001146111565760405162461bcd60e51b81526004016103b190611a0a565b5f6008556006546040516370a0823160e01b815230600482015261124c916001600160a01b0316906370a0823190602401602060405180830381865afa1580156111a2573d5f5f3e3d5ffd5b505050506040513d601f19601f820116820180604052508101906111c69190611a35565b6007546040516370a0823160e01b81523060048201526001600160a01b03909116906370a0823190602401602060405180830381865afa15801561120c573d5f5f3e3d5ffd5b505050506040513d601f19601f820116820180604052508101906112309190611a35565b6005546001600160701b0380821691600160701b900416611369565b6001600855565b604080516001600160a01b038481166024830152604480830185905283518084039091018152606490920183526020820180516001600160e01b031663a9059cbb60e01b17905291515f928392908716916112ae9190611af6565b5f604051808303815f865af19150503d805f81146112e7576040519150601f19603f3d011682016040523d82523d5f602084013e6112ec565b606091505b50915091508180156113165750805115806113165750808060200190518101906113169190611b0c565b6113625760405162461bcd60e51b815260206004820152601a60248201527f556e697377617056323a205452414e534645525f4641494c454400000000000060448201526064016103b1565b5050505050565b6001600160701b03841180159061138757506001600160701b038311155b6113c95760405162461bcd60e51b8152602060048201526013602482015272556e697377617056323a204f564552464c4f5760681b60448201526064016103b1565b5f6113d964010000000042611ae3565b6005805463ffffffff8316600160e01b026001600160e01b036001600160701b03898116600160701b9081026001600160e01b03199095168c83161794909417918216831794859055604080519382169282169290921783529290930490911660208201529192507f1c411e9a96e071241c2f21f7726b17ae89e3cab4c78be50e062b03a9fffbbad1910160405180910390a15050505050565b611480838383600161164f565b505050565b6001600160a01b038381165f908152600160209081526040808320938616835292905220545f198110156114fb57818110156114ed57604051637dc7a0d960e11b81526001600160a01b038416600482015260248101829052604481018390526064016103b1565b6114fb84848484035f61164f565b50505050565b6001600160a01b03831661152a57604051634b637e8f60e11b81525f60048201526024016103b1565b6001600160a01b0382166115535760405163ec442f0560e01b81525f60048201526024016103b1565b611480838383611721565b5f60038211156115bd5750805f611576600283611ad0565b611581906001611b2b565b90505b818110156115b75790508060028161159c8186611ad0565b6115a69190611b2b565b6115b09190611ad0565b9050611584565b50919050565b81156115c7575060015b919050565b6001600160a01b0382166115f55760405163ec442f0560e01b81525f60048201526024016103b1565b6116005f8383611721565b5050565b5f8183106116125781611614565b825b9392505050565b6001600160a01b03821661164457604051634b637e8f60e11b81525f60048201526024016103b1565b611600825f83611721565b6001600160a01b0384166116785760405163e602df0560e01b81525f60048201526024016103b1565b6001600160a01b0383166116a157604051634a1406b160e11b81525f60048201526024016103b1565b6001600160a01b038085165f90815260016020908152604080832093871683529290522082905580156114fb57826001600160a01b0316846001600160a01b03167f8c5be1e5ebec7d5bd14f71427d1e84f3dd0314c0f7b2291e5b200ac8c7c3b9258460405161171391815260200190565b60405180910390a350505050565b6001600160a01b03831661174b578060025f8282546117409190611b2b565b909155506117bb9050565b6001600160a01b0383165f908152602081905260409020548181101561179d5760405163391434e360e21b81526001600160a01b038516600482015260248101829052604481018390526064016103b1565b6001600160a01b0384165f9081526020819052604090209082900390555b6001600160a01b0382166117d7576002805482900390556117f5565b6001600160a01b0382165f9081526020819052604090208054820190555b816001600160a01b0316836001600160a01b03167fddf252ad1be2c89b69c2b068fc378daa952ba7f163c4a11628f55a4df523b3ef8360405161183a91815260200190565b60405180910390a3505050565b80356001600160a01b03811681146115c7575f5ffd5b5f5f5f5f5f60808688031215611871575f5ffd5b853594506020860135935061188860408701611847565b9250606086013567ffffffffffffffff8111156118a3575f5ffd5b8601601f810188136118b3575f5ffd5b803567ffffffffffffffff8111156118c9575f5ffd5b8860208284010111156118da575f5ffd5b959894975092955050506020019190565b602081525f82518060208401528060208501604085015e5f604082850101526040601f19601f83011684010191505092915050565b5f5f60408385031215611931575f5ffd5b61193a83611847565b946020939093013593505050565b5f5f5f6060848603121561195a575f5ffd5b61196384611847565b925061197160208501611847565b929592945050506040919091013590565b5f5f60408385031215611993575f5ffd5b61199c83611847565b91506119aa60208401611847565b90509250929050565b5f602082840312156119c3575f5ffd5b61161482611847565b80356001600160701b03811681146115c7575f5ffd5b5f5f604083850312156119f3575f5ffd5b6119fc836119cc565b91506119aa602084016119cc565b602080825260119082015270155b9a5cddd85c158c8e881313d0d2d151607a1b604082015260600190565b5f60208284031215611a45575f5ffd5b5051919050565b634e487b7160e01b5f52601160045260245ffd5b818103818111156108f9576108f9611a4c565b80820281158282048414176108f9576108f9611a4c565b600181811c90821680611a9e57607f821691505b6020821081036115b757634e487b7160e01b5f52602260045260245ffd5b634e487b7160e01b5f52601260045260245ffd5b5f82611ade57611ade611abc565b500490565b5f82611af157611af1611abc565b500690565b5f82518060208501845e5f920191825250919050565b5f60208284031215611b1c575f5ffd5b81518015158114611614575f5ffd5b808201808211156108f9576108f9611a4c56fea2646970667358221220076d65f992838b1925c163eeba26139810b512c00172b84f3eb5f169f6582ea664736f6c634300081e0033",
  "linkReferences": {},
  "deployedLinkReferences": {},
  "immutableReferences": {},
  "inputSourceName": "project/contracts/local/UniswapV2Pair.sol",
  "buildInfoId": "solc-0_8_30-a06006f6e008896f64bc9c487e8254b79a114745"
}