{
  "_format": "hh3-artifact-1",
  "contractName": "stBTD",
  "sourceName": "contracts/stBTD.sol",
  "abi": [
    {
      "inputs": [
        {
          "internalType": "contract IERC20",
          "name": "btd",
          "type": "address"
        }
      ],
      "stateMutability": "nonpayable",
      "type": "constructor"
    },
    {
      "inputs": [],
      "name": "ECDSAInvalidSignature",
      "type": "error"
    },
    {
      "inputs": [
        {
          "internalType": "uint256",
          "name": "length",
          "type": "uint256"
        }
      ],
      "name": "ECDSAInvalidSignatureLength",
      "type": "error"
    },
    {
      "inputs": [
        {
          "internalType": "bytes32",
          "name": "s",
          "type": "bytes32"
        }
      ],
      "name": "ECDSAInvalidSignatureS",
      "type": "error"
    },
    {
      "inputs": [
        {
          "internalType": "address",
          "name": "spender",
          "type": "address"
        },
        {
          "internalType": "uint256",
          "name": "allowance",
          "type": "uint256"
        },
        {
          "internalType": "uint256",
          "name": "needed",
          "type": "uint256"
        }
      ],
      "name": "ERC20InsufficientAllowance",
      "type": "error"
    },
    {
      "inputs": [
        {
          "internalType": "address",
          "name": "sender",
          "type": "address"
        },
        {
          "internalType": "uint256",
          "name": "balance",
          "type": "uint256"
        },
        {
          "internalType": "uint256",
          "name": "needed",
          "type": "uint256"
        }
      ],
      "name": "ERC20InsufficientBalance",
      "type": "error"
    },
    {
      "inputs": [
        {
          "internalType": "address",
          "name": "approver",
          "type": "address"
        }
      ],
      "name": "ERC20InvalidApprover",
      "type": "error"
    },
    {
      "inputs": [
        {
          "internalType": "address",
          "name": "receiver",
          "type": "address"
        }
      ],
      "name": "ERC20InvalidReceiver",
      "type": "error"
    },
    {
      "inputs": [
        {
          "internalType": "address",
          "name": "sender",
          "type": "address"
        }
      ],
      "name": "ERC20InvalidSender",
      "type": "error"
    },
    {
      "inputs": [
        {
          "internalType": "address",
          "name": "spender",
          "type": "address"
        }
      ],
      "name": "ERC20InvalidSpender",
      "type": "error"
    },
    {
      "inputs": [
        {
          "internalType": "uint256",
          "name": "deadline",
          "type": "uint256"
        }
      ],
      "name": "ERC2612ExpiredSignature",
      "type": "error"
    },
    {
      "inputs": [
        {
          "internalType": "address",
          "name": "signer",
          "type": "address"
        },
        {
          "internalType": "address",
          "name": "owner",
          "type": "address"
        }
      ],
      "name": "ERC2612InvalidSigner",
      "type": "error"
    },
    {
      "inputs": [
        {
          "internalType": "address",
          "name": "receiver",
          "type": "address"
        },
        {
          "internalType": "uint256",
          "name": "assets",
          "type": "uint256"
        },
        {
          "internalType": "uint256",
          "name": "max",
          "type": "uint256"
        }
      ],
      "name": "ERC4626ExceededMaxDeposit",
      "type": "error"
    },
    {
      "inputs": [
        {
          "internalType": "address",
          "name": "receiver",
          "type": "address"
        },
        {
          "internalType": "uint256",
          "name": "shares",
          "type": "uint256"
        },
        {
          "internalType": "uint256",
          "name": "max",
          "type": "uint256"
        }
      ],
      "name": "ERC4626ExceededMaxMint",
      "type": "error"
    },
    {
      "inputs": [
        {
          "internalType": "address",
          "name": "owner",
          "type": "address"
        },
        {
          "internalType": "uint256",
          "name": "shares",
          "type": "uint256"
        },
        {
          "internalType": "uint256",
          "name": "max",
          "type": "uint256"
        }
      ],
      "name": "ERC4626ExceededMaxRedeem",
      "type": "error"
    },
    {
      "inputs": [
        {
          "internalType": "address",
          "name": "owner",
          "type": "address"
        },
        {
          "internalType": "uint256",
          "name": "assets",
          "type": "uint256"
        },
        {
          "internalType": "uint256",
          "name": "max",
          "type": "uint256"
        }
      ],
      "name": "ERC4626ExceededMaxWithdraw",
      "type": "error"
    },
    {
      "inputs": [
        {
          "internalType": "address",
          "name": "account",
          "type": "address"
        },
        {
          "internalType": "uint256",
          "name": "currentNonce",
          "type": "uint256"
        }
      ],
      "name": "InvalidAccountNonce",
      "type": "error"
    },
    {
      "inputs": [],
      "name": "InvalidShortString",
      "type": "error"
    },
    {
      "inputs": [
        {
          "internalType": "address",
          "name": "token",
          "type": "address"
        }
      ],
      "name": "SafeERC20FailedOperation",
      "type": "error"
    },
    {
      "inputs": [
        {
          "internalType": "string",
          "name": "str",
          "type": "string"
        }
      ],
      "name": "StringTooLong",
      "type": "error"
    },
    {
      "anonymous": false,
      "inputs": [
        {
          "indexed": true,
          "internalType": "address",
          "name": "owner",
          "type": "address"
        },
        {
          "indexed": true,
          "internalType": "address",
          "name": "spender",
          "type": "address"
        },
        {
          "indexed": false,
          "internalType": "uint256",
          "name": "value",
          "type": "uint256"
        }
      ],
      "name": "Approval",
      "type": "event"
    },
    {
      "anonymous": false,
      "inputs": [
        {
          "indexed": true,
          "internalType": "address",
          "name": "sender",
          "type": "address"
        },
        {
          "indexed": true,
          "internalType": "address",
          "name": "owner",
          "type": "address"
        },
        {
          "indexed": false,
          "internalType": "uint256",
          "name": "assets",
          "type": "uint256"
        },
        {
          "indexed": false,
          "internalType": "uint256",
          "name": "shares",
          "type": "uint256"
        }
      ],
      "name": "Deposit",
      "type": "event"
    },
    {
      "anonymous": false,
      "inputs": [],
      "name": "EIP712DomainChanged",
      "type": "event"
    },
    {
      "anonymous": false,
      "inputs": [
        {
          "indexed": true,
          "internalType": "address",
          "name": "from",
          "type": "address"
        },
        {
          "indexed": true,
          "internalType": "address",
          "name": "to",
          "type": "address"
        },
        {
          "indexed": false,
          "internalType": "uint256",
          "name": "value",
          "type": "uint256"
        }
      ],
      "name": "Transfer",
      "type": "event"
    },
    {
      "anonymous": false,
      "inputs": [
        {
          "indexed": true,
          "internalType": "address",
          "name": "sender",
          "type": "address"
        },
        {
          "indexed": true,
          "internalType": "address",
          "name": "receiver",
          "type": "address"
        },
        {
          "indexed": true,
          "internalType": "address",
          "name": "owner",
          "type": "address"
        },
        {
          "indexed": false,
          "internalType": "uint256",
          "name": "assets",
          "type": "uint256"
        },
        {
          "indexed": false,
          "internalType": "uint256",
          "name": "shares",
          "type": "uint256"
        }
      ],
      "name": "Withdraw",
      "type": "event"
    },
    {
      "inputs": [],
      "name": "DOMAIN_SEPARATOR",
      "outputs": [
        {
          "internalType": "bytes32",
          "name": "",
          "type": "bytes32"
        }
      ],
      "stateMutability": "view",
      "type": "function"
    },
    {
      "inputs": [
        {
          "internalType": "address",
          "name": "owner",
          "type": "address"
        },
        {
          "internalType": "address",
          "name": "spender",
          "type": "address"
        }
      ],
      "name": "allowance",
      "outputs": [
        {
          "internalType": "uint256",
          "name": "",
          "type": "uint256"
        }
      ],
      "stateMutability": "view",
      "type": "function"
    },
    {
      "inputs": [
        {
          "internalType": "address",
          "name": "spender",
          "type": "address"
        },
        {
          "internalType": "uint256",
          "name": "value",
          "type": "uint256"
        }
      ],
      "name": "approve",
      "outputs": [
        {
          "internalType": "bool",
          "name": "",
          "type": "bool"
        }
      ],
      "stateMutability": "nonpayable",
      "type": "function"
    },
    {
      "inputs": [],
      "name": "asset",
      "outputs": [
        {
          "internalType": "address",
          "name": "",
          "type": "address"
        }
      ],
      "stateMutability": "view",
      "type": "function"
    },
    {
      "inputs": [
        {
          "internalType": "address",
          "name": "account",
          "type": "address"
        }
      ],
      "name": "balanceOf",
      "outputs": [
        {
          "internalType": "uint256",
          "name": "",
          "type": "uint256"
        }
      ],
      "stateMutability": "view",
      "type": "function"
    },
    {
      "inputs": [
        {
          "internalType": "uint256",
          "name": "shares",
          "type": "uint256"
        }
      ],
      "name": "convertToAssets",
      "outputs": [
        {
          "internalType": "uint256",
          "name": "",
          "type": "uint256"
        }
      ],
      "stateMutability": "view",
      "type": "function"
    },
    {
      "inputs": [
        {
          "internalType": "uint256",
          "name": "assets",
          "type": "uint256"
        }
      ],
      "name": "convertToShares",
      "outputs": [
        {
          "internalType": "uint256",
          "name": "",
          "type": "uint256"
        }
      ],
      "stateMutability": "view",
      "type": "function"
    },
    {
      "inputs": [],
      "name": "decimals",
      "outputs": [
        {
          "internalType": "uint8",
          "name": "",
          "type": "uint8"
        }
      ],
      "stateMutability": "view",
      "type": "function"
    },
    {
      "inputs": [
        {
          "internalType": "uint256",
          "name": "assets",
          "type": "uint256"
        },
        {
          "internalType": "address",
          "name": "receiver",
          "type": "address"
        }
      ],
      "name": "deposit",
      "outputs": [
        {
          "internalType": "uint256",
          "name": "",
          "type": "uint256"
        }
      ],
      "stateMutability": "nonpayable",
      "type": "function"
    },
    {
      "inputs": [],
      "name": "eip712Domain",
      "outputs": [
        {
          "internalType": "bytes1",
          "name": "fields",
          "type": "bytes1"
        },
        {
          "internalType": "string",
          "name": "name",
          "type": "string"
        },
        {
          "internalType": "string",
          "name": "version",
          "type": "string"
        },
        {
          "internalType": "uint256",
          "name": "chainId",
          "type": "uint256"
        },
        {
          "internalType": "address",
          "name": "verifyingContract",
          "type": "address"
        },
        {
          "internalType": "bytes32",
          "name": "salt",
          "type": "bytes32"
        },
        {
          "internalType": "uint256[]",
          "name": "extensions",
          "type": "uint256[]"
        }
      ],
      "stateMutability": "view",
      "type": "function"
    },
    {
      "inputs": [
        {
          "internalType": "address",
          "name": "",
          "type": "address"
        }
      ],
      "name": "maxDeposit",
      "outputs": [
        {
          "internalType": "uint256",
          "name": "",
          "type": "uint256"
        }
      ],
      "stateMutability": "view",
      "type": "function"
    },
    {
      "inputs": [
        {
          "internalType": "address",
          "name": "",
          "type": "address"
        }
      ],
      "name": "maxMint",
      "outputs": [
        {
          "internalType": "uint256",
          "name": "",
          "type": "uint256"
        }
      ],
      "stateMutability": "view",
      "type": "function"
    },
    {
      "inputs": [
        {
          "internalType": "address",
          "name": "owner",
          "type": "address"
        }
      ],
      "name": "maxRedeem",
      "outputs": [
        {
          "internalType": "uint256",
          "name": "",
          "type": "uint256"
        }
      ],
      "stateMutability": "view",
      "type": "function"
    },
    {
      "inputs": [
        {
          "internalType": "address",
          "name": "owner",
          "type": "address"
        }
      ],
      "name": "maxWithdraw",
      "outputs": [
        {
          "internalType": "uint256",
          "name": "",
          "type": "uint256"
        }
      ],
      "stateMutability": "view",
      "type": "function"
    },
    {
      "inputs": [
        {
          "internalType": "uint256",
          "name": "shares",
          "type": "uint256"
        },
        {
          "internalType": "address",
          "name": "receiver",
          "type": "address"
        }
      ],
      "name": "mint",
      "outputs": [
        {
          "internalType": "uint256",
          "name": "",
          "type": "uint256"
        }
      ],
      "stateMutability": "nonpayable",
      "type": "function"
    },
    {
      "inputs": [],
      "name": "name",
      "outputs": [
        {
          "internalType": "string",
          "name": "",
          "type": "string"
        }
      ],
      "stateMutability": "view",
      "type": "function"
    },
    {
      "inputs": [
        {
          "internalType": "address",
          "name": "owner",
          "type": "address"
        }
      ],
      "name": "nonces",
      "outputs": [
        {
          "internalType": "uint256",
          "name": "",
          "type": "uint256"
        }
      ],
      "stateMutability": "view",
      "type": "function"
    },
    {
      "inputs": [
        {
          "internalType": "address",
          "name": "owner",
          "type": "address"
        },
        {
          "internalType": "address",
          "name": "spender",
          "type": "address"
        },
        {
          "internalType": "uint256",
          "name": "value",
          "type": "uint256"
        },
        {
          "internalType": "uint256",
          "name": "deadline",
          "type": "uint256"
        },
        {
          "internalType": "uint8",
          "name": "v",
          "type": "uint8"
        },
        {
          "internalType": "bytes32",
          "name": "r",
          "type": "bytes32"
        },
        {
          "internalType": "bytes32",
          "name": "s",
          "type": "bytes32"
        }
      ],
      "name": "permit",
      "outputs": [],
      "stateMutability": "nonpayable",
      "type": "function"
    },
    {
      "inputs": [
        {
          "internalType": "uint256",
          "name": "assets",
          "type": "uint256"
        }
      ],
      "name": "previewDeposit",
      "outputs": [
        {
          "internalType": "uint256",
          "name": "",
          "type": "uint256"
        }
      ],
      "stateMutability": "view",
      "type": "function"
    },
    {
      "inputs": [
        {
          "internalType": "uint256",
          "name": "shares",
          "type": "uint256"
        }
      ],
      "name": "previewMint",
      "outputs": [
        {
          "internalType": "uint256",
          "name": "",
          "type": "uint256"
        }
      ],
      "stateMutability": "view",
      "type": "function"
    },
    {
      "inputs": [
        {
          "internalType": "uint256",
          "name": "shares",
          "type": "uint256"
        }
      ],
      "name": "previewRedeem",
      "outputs": [
        {
          "internalType": "uint256",
          "name": "",
          "type": "uint256"
        }
      ],
      "stateMutability": "view",
      "type": "function"
    },
    {
      "inputs": [
        {
          "internalType": "uint256",
          "name": "assets",
          "type": "uint256"
        }
      ],
      "name": "previewWithdraw",
      "outputs": [
        {
          "internalType": "uint256",
          "name": "",
          "type": "uint256"
        }
      ],
      "stateMutability": "view",
      "type": "function"
    },
    {
      "inputs": [
        {
          "internalType": "uint256",
          "name": "shares",
          "type": "uint256"
        },
        {
          "internalType": "address",
          "name": "receiver",
          "type": "address"
        },
        {
          "internalType": "address",
          "name": "owner",
          "type": "address"
        }
      ],
      "name": "redeem",
      "outputs": [
        {
          "internalType": "uint256",
          "name": "",
          "type": "uint256"
        }
      ],
      "stateMutability": "nonpayable",
      "type": "function"
    },
    {
      "inputs": [],
      "name": "symbol",
      "outputs": [
        {
          "internalType": "string",
          "name": "",
          "type": "string"
        }
      ],
      "stateMutability": "view",
      "type": "function"
    },
    {
      "inputs": [],
      "name": "totalAssets",
      "outputs": [
        {
          "internalType": "uint256",
          "name": "",
          "type": "uint256"
        }
      ],
      "stateMutability": "view",
      "type": "function"
    },
    {
      "inputs": [],
      "name": "totalSupply",
      "outputs": [
        {
          "internalType": "uint256",
          "name": "",
          "type": "uint256"
        }
      ],
      "stateMutability": "view",
      "type": "function"
    },
    {
      "inputs": [
        {
          "internalType": "address",
          "name": "to",
          "type": "address"
        },
        {
          "internalType": "uint256",
          "name": "value",
          "type": "uint256"
        }
      ],
      "name": "transfer",
      "outputs": [
        {
          "internalType": "bool",
          "name": "",
          "type": "bool"
        }
      ],
      "stateMutability": "nonpayable",
      "type": "function"
    },
    {
      "inputs": [
        {
          "internalType": "address",
          "name": "from",
          "type": "address"
        },
        {
          "internalType": "address",
          "name": "to",
          "type": "address"
        },
        {
          "internalType": "uint256",
          "name": "value",
          "type": "uint256"
        }
      ],
      "name": "transferFrom",
      "outputs": [
        {
          "internalType": "bool",
          "name": "",
          "type": "bool"
        }
      ],
      "stateMutability": "nonpayable",
      "type": "function"
    },
    {
      "inputs": [
        {
          "internalType": "uint256",
          "name": "assets",
          "type": "uint256"
        },
        {
          "internalType": "address",
          "name": "receiver",
          "type": "address"
        },
        {
          "internalType": "address",
          "name": "owner",
          "type": "address"
        }
      ],
      "name": "withdraw",
      "outputs": [
        {
          "internalType": "uint256",
          "name": "",
          "type": "uint256"
        }
      ],
      "stateMutability": "nonpayable",
      "type": "function"
    }
  ],
  "bytecode": "0x6101a0604052348015610010575f5ffd5b50604051611eaf380380611eaf83398101604081905261002f91610333565b6040518060400160405280601581526020017f5374616b656420426974636f696e20446f6c6c6172000000000000000000000081525080604051806040016040528060018152602001603160f81b815250836040518060400160405280601581526020017f5374616b656420426974636f696e20446f6c6c61720000000000000000000000815250604051806040016040528060058152602001641cdd10951160da1b81525081600390816100e491906103f8565b5060046100f182826103f8565b5050505f5f610105836101e560201b60201c565b9150915081610115576012610117565b805b60ff1660a05250506001600160a01b03166080526101368260056102bb565b610160526101458160066102bb565b61018052815160208084019190912061012052815190820120610140524660e0526101d36101205161014051604080517f8b73c3c69bb8fe3d512ecc4cf759cc79239f7b179b0ffacaa9a75d522b39400f60208201529081019290925260608201524660808201523060a08201525f9060c00160405160208183030381529060405280519060200120905090565b60c05250503061010052506105379050565b60408051600481526024810182526020810180516001600160e01b031663313ce56760e01b17905290515f918291829182916001600160a01b0387169161022b916104b2565b5f60405180830381855afa9150503d805f8114610263576040519150601f19603f3d011682016040523d82523d5f602084013e610268565b606091505b509150915081801561027c57506020815110155b156102af575f8180602001905181019061029691906104c8565b905060ff81116102ad576001969095509350505050565b505b505f9485945092505050565b5f6020835110156102d6576102cf836102ed565b90506102e7565b816102e184826103f8565b5060ff90505b92915050565b5f5f829050601f81511115610320578260405163305a27a960e01b815260040161031791906104df565b60405180910390fd5b805161032b82610514565b179392505050565b5f60208284031215610343575f5ffd5b81516001600160a01b0381168114610359575f5ffd5b9392505050565b634e487b7160e01b5f52604160045260245ffd5b600181811c9082168061038857607f821691505b6020821081036103a657634e487b7160e01b5f52602260045260245ffd5b50919050565b601f8211156103f357805f5260205f20601f840160051c810160208510156103d15750805b601f840160051c820191505b818110156103f0575f81556001016103dd565b50505b505050565b81516001600160401b0381111561041157610411610360565b6104258161041f8454610374565b846103ac565b6020601f821160018114610457575f83156104405750848201515b5f19600385901b1c1916600184901b1784556103f0565b5f84815260208120601f198516915b828110156104865787850151825560209485019460019092019101610466565b50848210156104a357868401515f19600387901b60f8161c191681555b50505050600190811b01905550565b5f82518060208501845e5f920191825250919050565b5f602082840312156104d8575f5ffd5b5051919050565b602081525f82518060208401528060208501604085015e5f604082850101526040601f19601f83011684010191505092915050565b805160208083015191908110156103a6575f1960209190910360031b1b16919050565b60805160a05160c05160e05161010051610120516101405161016051610180516118fe6105b15f395f610bfa01525f610bcd01525f610ae401525f610abc01525f610a1701525f610a4101525f610a6b01525f6109e701525f818161028d0152818161042401528181610b390152610c5301526118fe5ff3fe608060405234801561000f575f5ffd5b50600436106101c6575f3560e01c80637ecebe00116100fe578063ba0876521161009e578063d505accf1161006e578063d505accf146103c1578063d905777e146103d6578063dd62ed3e146103e9578063ef8b30f71461039b575f5ffd5b8063ba08765214610388578063c63d75b6146102b7578063c6e6f5921461039b578063ce96cb77146103ae575f5ffd5b806395d89b41116100d957806395d89b4114610347578063a9059cbb1461034f578063b3d7f6b914610362578063b460af9414610375575f5ffd5b80637ecebe001461030657806384b0196e1461031957806394bf804d14610334575f5ffd5b8063313ce56711610169578063402d267d11610144578063402d267d146102b75780634cdad506146101fa5780636e553f65146102cb57806370a08231146102de575f5ffd5b8063313ce5671461025e5780633644e5151461027857806338d52e0f14610280575f5ffd5b8063095ea7b3116101a4578063095ea7b31461020d5780630a28a4771461023057806318160ddd1461024357806323b872dd1461024b575f5ffd5b806301e1d114146101ca57806306fdde03146101e557806307a2d13a146101fa575b5f5ffd5b6101d2610421565b6040519081526020015b60405180910390f35b6101ed6104b0565b6040516101dc9190611485565b6101d2610208366004611497565b610540565b61022061021b3660046114c9565b610551565b60405190151581526020016101dc565b6101d261023e366004611497565b610568565b6002546101d2565b6102206102593660046114f1565b610574565b610266610599565b60405160ff90911681526020016101dc565b6101d26105a2565b6040516001600160a01b037f00000000000000000000000000000000000000000000000000000000000000001681526020016101dc565b6101d26102c536600461152b565b505f1990565b6101d26102d9366004611544565b6105ab565b6101d26102ec36600461152b565b6001600160a01b03165f9081526020819052604090205490565b6101d261031436600461152b565b6105dc565b6103216105f9565b6040516101dc979695949392919061156e565b6101d2610342366004611544565b61063b565b6101ed610656565b61022061035d3660046114c9565b610665565b6101d2610370366004611497565b610672565b6101d2610383366004611604565b61067e565b6101d2610396366004611604565b6106d4565b6101d26103a9366004611497565b610721565b6101d26103bc36600461152b565b61072c565b6103d46103cf36600461163d565b61074e565b005b6101d26103e436600461152b565b610884565b6101d26103f73660046116aa565b6001600160a01b039182165f90815260016020908152604080832093909416825291909152205490565b5f7f00000000000000000000000000000000000000000000000000000000000000006040516370a0823160e01b81523060048201526001600160a01b0391909116906370a0823190602401602060405180830381865afa158015610487573d5f5f3e3d5ffd5b505050506040513d601f19601f820116820180604052508101906104ab91906116d2565b905090565b6060600380546104bf906116e9565b80601f01602080910402602001604051908101604052809291908181526020018280546104eb906116e9565b80156105365780601f1061050d57610100808354040283529160200191610536565b820191905f5260205f20905b81548152906001019060200180831161051957829003601f168201915b5050505050905090565b5f61054b825f6108a1565b92915050565b5f3361055e8185856108d9565b5060019392505050565b5f61054b8260016108eb565b5f3361058185828561091a565b61058c858585610983565b60019150505b9392505050565b5f6104ab6109e0565b5f6104ab610a0b565b5f5f196105bc565b60405180910390fd5b5f6105c685610721565b90506105d433858784610b34565b949350505050565b6001600160a01b0381165f9081526007602052604081205461054b565b5f6060805f5f5f606061060a610bc6565b610612610bf3565b604080515f80825260208201909252600f60f81b9b939a50919850469750309650945092509050565b5f5f195f61064885610672565b90506105d433858388610b34565b6060600480546104bf906116e9565b5f3361055e818585610983565b5f61054b8260016108a1565b5f5f6106898361072c565b9050808511156106b257828582604051633fa733bb60e21b81526004016105b393929190611721565b5f6106bc86610568565b90506106cb3386868985610c20565b95945050505050565b5f5f6106df83610884565b90508085111561070857828582604051632e52afbb60e21b81526004016105b393929190611721565b5f61071286610540565b90506106cb338686848a610c20565b5f61054b825f6108eb565b6001600160a01b0381165f9081526020819052604081205461054b905f6108a1565b834211156107725760405163313c898160e11b8152600481018590526024016105b3565b5f7f6e71edae12b1b97f4d1f60370fef10105fa2faae0126114a169c64845d6126c98888886107bd8c6001600160a01b03165f90815260076020526040902080546001810190915590565b6040805160208101969096526001600160a01b0394851690860152929091166060840152608083015260a082015260c0810186905260e0016040516020818303038152906040528051906020012090505f61081782610ce0565b90505f61082682878787610d0c565b9050896001600160a01b0316816001600160a01b03161461086d576040516325c0072360e11b81526001600160a01b0380831660048301528b1660248201526044016105b3565b6108788a8a8a6108d9565b50505050505050505050565b6001600160a01b0381165f9081526020819052604081205461054b565b5f6105926108ad610421565b6108b8906001611756565b6108c35f600a61184c565b6002546108d09190611756565b85919085610d38565b6108e68383836001610d7a565b505050565b5f6105926108fa82600a61184c565b6002546109079190611756565b61090f610421565b6108d0906001611756565b6001600160a01b038381165f908152600160209081526040808320938616835292905220545f1981101561097d578181101561096f57828183604051637dc7a0d960e11b81526004016105b393929190611721565b61097d84848484035f610d7a565b50505050565b6001600160a01b0383166109ac57604051634b637e8f60e11b81525f60048201526024016105b3565b6001600160a01b0382166109d55760405163ec442f0560e01b81525f60048201526024016105b3565b6108e6838383610e3e565b5f6104ab817f000000000000000000000000000000000000000000000000000000000000000061185a565b5f306001600160a01b037f000000000000000000000000000000000000000000000000000000000000000016148015610a6357507f000000000000000000000000000000000000000000000000000000000000000046145b15610a8d57507f000000000000000000000000000000000000000000000000000000000000000090565b6104ab604080517f8b73c3c69bb8fe3d512ecc4cf759cc79239f7b179b0ffacaa9a75d522b39400f60208201527f0000000000000000000000000000000000000000000000000000000000000000918101919091527f000000000000000000000000000000000000000000000000000000000000000060608201524660808201523060a08201525f9060c00160405160208183030381529060405280519060200120905090565b610b607f0000000000000000000000000000000000000000000000000000000000000000853085610f51565b610b6a8382610fb8565b826001600160a01b0316846001600160a01b03167fdcbc1c05240f31ff3ad067ef1ee35ce4997762752e3a095284754544f4c709d78484604051610bb8929190918252602082015260400190565b60405180910390a350505050565b60606104ab7f00000000000000000000000000000000000000000000000000000000000000006005610ff0565b60606104ab7f00000000000000000000000000000000000000000000000000000000000000006006610ff0565b826001600160a01b0316856001600160a01b031614610c4457610c4483868361091a565b610c4e8382611099565b610c797f000000000000000000000000000000000000000000000000000000000000000085846110cd565b826001600160a01b0316846001600160a01b0316866001600160a01b03167ffbde797d201c681b91056529119e0b02407c7bb96a4a2c75c01fc9667232c8db8585604051610cd1929190918252602082015260400190565b60405180910390a45050505050565b5f61054b610cec610a0b565b8360405161190160f01b8152600281019290925260228201526042902090565b5f5f5f5f610d1c888888886110fe565b925092509250610d2c82826111c6565b50909695505050505050565b5f610d65610d458361127e565b8015610d6057505f8480610d5b57610d5b611873565b868809115b151590565b610d708686866112aa565b6106cb9190611756565b6001600160a01b038416610da35760405163e602df0560e01b81525f60048201526024016105b3565b6001600160a01b038316610dcc57604051634a1406b160e11b81525f60048201526024016105b3565b6001600160a01b038085165f908152600160209081526040808320938716835292905220829055801561097d57826001600160a01b0316846001600160a01b03167f8c5be1e5ebec7d5bd14f71427d1e84f3dd0314c0f7b2291e5b200ac8c7c3b92584604051610bb891815260200190565b6001600160a01b038316610e68578060025f828254610e5d9190611756565b90915550610ec59050565b6001600160a01b0383165f9081526020819052604090205481811015610ea75783818360405163391434e360e21b81526004016105b393929190611721565b6001600160a01b0384165f9081526020819052604090209082900390555b6001600160a01b038216610ee157600280548290039055610eff565b6001600160a01b0382165f9081526020819052604090208054820190555b816001600160a01b0316836001600160a01b03167fddf252ad1be2c89b69c2b068fc378daa952ba7f163c4a11628f55a4df523b3ef83604051610f4491815260200190565b60405180910390a3505050565b6040516001600160a01b03848116602483015283811660448301526064820183905261097d9186918216906323b872dd906084015b604051602081830303815290604052915060e01b6020820180516001600160e01b03838183161783525050505061135a565b6001600160a01b038216610fe15760405163ec442f0560e01b81525f60048201526024016105b3565b610fec5f8383610e3e565b5050565b606060ff831461100a57611003836113c6565b905061054b565b818054611016906116e9565b80601f0160208091040260200160405190810160405280929190818152602001828054611042906116e9565b801561108d5780601f106110645761010080835404028352916020019161108d565b820191905f5260205f20905b81548152906001019060200180831161107057829003601f168201915b5050505050905061054b565b6001600160a01b0382166110c257604051634b637e8f60e11b81525f60048201526024016105b3565b610fec825f83610e3e565b6040516001600160a01b038381166024830152604482018390526108e691859182169063a9059cbb90606401610f86565b5f80807f7fffffffffffffffffffffffffffffff5d576e7357a4501ddfe92f46681b20a084111561113757505f915060039050826111bc565b604080515f808252602082018084528a905260ff891692820192909252606081018790526080810186905260019060a0016020604051602081039080840390855afa158015611188573d5f5f3e3d5ffd5b5050604051601f1901519150506001600160a01b0381166111b357505f9250600191508290506111bc565b92505f91508190505b9450945094915050565b5f8260038111156111d9576111d9611887565b036111e2575050565b60018260038111156111f6576111f6611887565b036112145760405163f645eedf60e01b815260040160405180910390fd5b600282600381111561122857611228611887565b036112495760405163fce698f760e01b8152600481018290526024016105b3565b600382600381111561125d5761125d611887565b03610fec576040516335e2f38360e21b8152600481018290526024016105b3565b5f600282600381111561129357611293611887565b61129d919061189b565b60ff166001149050919050565b5f5f5f6112b78686611403565b91509150815f036112db578381816112d1576112d1611873565b0492505050610592565b8184116112f2576112f2600385150260111861141f565b5f848688095f868103871696879004966002600389028118808a02820302808a02820302808a02820302808a02820302808a02820302808a02909103029181900381900460010185841190960395909502919093039390930492909217029150509392505050565b5f5f60205f8451602086015f885af180611379576040513d5f823e3d81fd5b50505f513d9150811561139057806001141561139d565b6001600160a01b0384163b155b1561097d57604051635274afe760e01b81526001600160a01b03851660048201526024016105b3565b60605f6113d283611430565b6040805160208082528183019092529192505f91906020820181803683375050509182525060208101929092525090565b5f805f1983850993909202808410938190039390930393915050565b634e487b715f52806020526024601cfd5b5f60ff8216601f81111561054b57604051632cd44ac360e21b815260040160405180910390fd5b5f81518084528060208401602086015e5f602082860101526020601f19601f83011685010191505092915050565b602081525f6105926020830184611457565b5f602082840312156114a7575f5ffd5b5035919050565b80356001600160a01b03811681146114c4575f5ffd5b919050565b5f5f604083850312156114da575f5ffd5b6114e3836114ae565b946020939093013593505050565b5f5f5f60608486031215611503575f5ffd5b61150c846114ae565b925061151a602085016114ae565b929592945050506040919091013590565b5f6020828403121561153b575f5ffd5b610592826114ae565b5f5f60408385031215611555575f5ffd5b82359150611565602084016114ae565b90509250929050565b60ff60f81b8816815260e060208201525f61158c60e0830189611457565b828103604084015261159e8189611457565b606084018890526001600160a01b038716608085015260a0840186905283810360c0850152845180825260208087019350909101905f5b818110156115f35783518352602093840193909201916001016115d5565b50909b9a5050505050505050505050565b5f5f5f60608486031215611616575f5ffd5b83359250611626602085016114ae565b9150611634604085016114ae565b90509250925092565b5f5f5f5f5f5f5f60e0888a031215611653575f5ffd5b61165c886114ae565b965061166a602089016114ae565b95506040880135945060608801359350608088013560ff8116811461168d575f5ffd5b9699959850939692959460a0840135945060c09093013592915050565b5f5f604083850312156116bb575f5ffd5b6116c4836114ae565b9150611565602084016114ae565b5f602082840312156116e2575f5ffd5b5051919050565b600181811c908216806116fd57607f821691505b60208210810361171b57634e487b7160e01b5f52602260045260245ffd5b50919050565b6001600160a01b039390931683526020830191909152604082015260600190565b634e487b7160e01b5f52601160045260245ffd5b8082018082111561054b5761054b611742565b6001815b60018411156117a45780850481111561178857611788611742565b600184161561179657908102905b60019390931c92800261176d565b935093915050565b5f826117ba5750600161054b565b816117c657505f61054b565b81600181146117dc57600281146117e657611802565b600191505061054b565b60ff8411156117f7576117f7611742565b50506001821b61054b565b5060208310610133831016604e8410600b8410161715611825575081810a61054b565b6118315f198484611769565b805f190482111561184457611844611742565b029392505050565b5f61059260ff8416836117ac565b60ff818116838216019081111561054b5761054b611742565b634e487b7160e01b5f52601260045260245ffd5b634e487b7160e01b5f52602160045260245ffd5b5f60ff8316806118b957634e487b7160e01b5f52601260045260245ffd5b8060ff8416069150509291505056fea26469706673582212209733d195e02253c05ec68daf8165f2a43983e89613915d0b96a095b9995a0bfd64736f6c634300081e0033",
  "linkReferences": {},
  "deployedLinkReferences": {},
  "immutableReferences": {
    "1191": [
      {
        "length": 32,
        "start": 653
      },
      {
        "length": 32,
        "start": 1060
      },
      {
        "length": 32,
        "start": 2873
      },
      {
        "length": 32,
        "start": 3155
      }
    ],
    "1193": [
      {
        "length": 32,
        "start": 2535
      }
    ],
    "4650": [
      {
        "length": 32,
        "start": 2667
      }
    ],
    "4652": [
      {
        "length": 32,
        "start": 2625
      }
    ],
    "4654": [
      {
        "length": 32,
        "start": 2583
      }
    ],
    "4656": [
      {
        "length": 32,
        "start": 2748
      }
    ],
    "4658": [
      {
        "length": 32,
        "start": 2788
      }
    ],
    "4661": [
      {
        "length": 32,
        "start": 3021
      }
    ],
    "4664": [
      {
        "length": 32,
        "start": 3066
      }
    ]
  },
  "inputSourceName": "project/contracts/stBTD.sol",
  "buildInfoId": "solc-0_8_30-91a08e5ae61d64b35b6e027c0dee8bf0545b8cd3"
}