{
  "_format": "hh3-artifact-1",
  "contractName": "UniswapV2TWAPOracle",
  "sourceName": "contracts/UniswapV2TWAPOracle.sol",
  "abi": [
    {
      "anonymous": false,
      "inputs": [
        {
          "indexed": true,
          "internalType": "address",
          "name": "pair",
          "type": "address"
        },
        {
          "indexed": false,
          "internalType": "uint256",
          "name": "price0Cumulative",
          "type": "uint256"
        },
        {
          "indexed": false,
          "internalType": "uint256",
          "name": "price1Cumulative",
          "type": "uint256"
        },
        {
          "indexed": false,
          "internalType": "uint32",
          "name": "timestamp",
          "type": "uint32"
        }
      ],
      "name": "ObservationUpdated",
      "type": "event"
    },
    {
      "inputs": [],
      "name": "PERIOD",
      "outputs": [
        {
          "internalType": "uint256",
          "name": "",
          "type": "uint256"
        }
      ],
      "stateMutability": "view",
      "type": "function"
    },
    {
      "inputs": [
        {
          "internalType": "address",
          "name": "pair",
          "type": "address"
        }
      ],
      "name": "getObservationInfo",
      "outputs": [
        {
          "internalType": "uint32",
          "name": "olderTimestamp",
          "type": "uint32"
        },
        {
          "internalType": "uint32",
          "name": "newerTimestamp",
          "type": "uint32"
        },
        {
          "internalType": "uint32",
          "name": "timeElapsed",
          "type": "uint32"
        }
      ],
      "stateMutability": "view",
      "type": "function"
    },
    {
      "inputs": [
        {
          "internalType": "address",
          "name": "pair",
          "type": "address"
        }
      ],
      "name": "getTWAP",
      "outputs": [
        {
          "internalType": "uint256",
          "name": "",
          "type": "uint256"
        }
      ],
      "stateMutability": "view",
      "type": "function"
    },
    {
      "inputs": [
        {
          "internalType": "address",
          "name": "pair",
          "type": "address"
        },
        {
          "internalType": "uint8",
          "name": "token0Decimals",
          "type": "uint8"
        },
        {
          "internalType": "uint8",
          "name": "token1Decimals",
          "type": "uint8"
        }
      ],
      "name": "getTWAPPrice",
      "outputs": [
        {
          "internalType": "uint256",
          "name": "",
          "type": "uint256"
        }
      ],
      "stateMutability": "view",
      "type": "function"
    },
    {
      "inputs": [
        {
          "internalType": "address",
          "name": "pair",
          "type": "address"
        }
      ],
      "name": "isTWAPReady",
      "outputs": [
        {
          "internalType": "bool",
          "name": "",
          "type": "bool"
        }
      ],
      "stateMutability": "view",
      "type": "function"
    },
    {
      "inputs": [
        {
          "internalType": "address",
          "name": "",
          "type": "address"
        },
        {
          "internalType": "uint256",
          "name": "",
          "type": "uint256"
        }
      ],
      "name": "pairObservations",
      "outputs": [
        {
          "internalType": "uint32",
          "name": "timestamp",
          "type": "uint32"
        },
        {
          "internalType": "uint256",
          "name": "price0Cumulative",
          "type": "uint256"
        },
        {
          "internalType": "uint256",
          "name": "price1Cumulative",
          "type": "uint256"
        }
      ],
      "stateMutability": "view",
      "type": "function"
    },
    {
      "inputs": [
        {
          "internalType": "address",
          "name": "pair",
          "type": "address"
        }
      ],
      "name": "update",
      "outputs": [],
      "stateMutability": "nonpayable",
      "type": "function"
    }
  ],
  "bytecode": "0x6080604052348015600e575f5ffd5b50610af68061001c5f395ff3fe608060405234801561000f575f5ffd5b506004361061007a575f3560e01c806364dca9c71161005857806364dca9c7146100f5578063b4d1d79514610116578063b724d0101461011f578063bfcc8e4214610132575f5ffd5b806309d41cb81461007e578063136a0e33146100a65780631c1b8772146100e0575b5f5ffd5b61009161008c366004610825565b610167565b60405190151581526020015b60405180910390f35b6100b96100b4366004610825565b61020e565b6040805163ffffffff9485168152928416602084015292169181019190915260600161009d565b6100f36100ee366004610825565b610298565b005b610108610103366004610855565b6105e6565b60405190815260200161009d565b61010861070881565b61010861012d366004610825565b610687565b610145610140366004610895565b6107d1565b6040805163ffffffff909416845260208401929092529082015260600161009d565b6001600160a01b0381165f81815260208181526040808320815160608082018452825463ffffffff90811683526001840154838701526002840154838601529686528585528351908101845260038301549096168087526004830154948701949094526005909101549185019190915291929083036101e957505f9392505050565b815181515f916101f8916108d1565b61070863ffffffff909116101595945050505050565b6001600160a01b0381165f81815260208181526040808320815160608082018452825463ffffffff90811683526001840154838701526002840154838601529686528585528351908101845260038301549096168087526004830154948701949094526005909101549185019190915280519391929161028e85856108d1565b9496939550505050565b5f8190505f5f5f836001600160a01b0316630902f1ac6040518163ffffffff1660e01b8152600401606060405180830381865afa1580156102db573d5f5f3e3d5ffd5b505050506040513d601f19601f820116820180604052508101906102ff9190610909565b9250925092505f846001600160a01b0316635909c0d56040518163ffffffff1660e01b8152600401602060405180830381865afa158015610342573d5f5f3e3d5ffd5b505050506040513d601f19601f820116820180604052508101906103669190610955565b90505f856001600160a01b0316635a3d54936040518163ffffffff1660e01b8152600401602060405180830381865afa1580156103a5573d5f5f3e3d5ffd5b505050506040513d601f19601f820116820180604052508101906103c99190610955565b6001600160a01b0388165f90815260208190526040812060030154919250906103f89063ffffffff16856108d1565b90505f8163ffffffff1611801561041757506001600160701b03861615155b801561042b57506001600160701b03851615155b156104ae5763ffffffff81166001600160701b038716600160701b600160e01b03607088901b168161045f5761045f61096c565b046001600160e01b031602929092019163ffffffff81166001600160701b038616607088901b600160701b600160e01b03168161049e5761049e61096c565b046001600160e01b031602820191505b6001600160a01b0388165f90815260208190526040902060016001600160a01b038a165f9081526020819052604081206003929092029290920191825460039190910291909101805463ffffffff191663ffffffff9283161781556001808401548183015560029384015493909101929092556040805160608101825242909216825260208083018790528282018690526001600160a01b038c165f90815290819052209091825160039190910291909101805463ffffffff191663ffffffff9283161781556020808401516001830155604093840151600290920191909155825186815290810185905242909116918101919091526001600160a01b038916907f8c65b5cef7be4417296e3570bac50029e7ff1a1f0d68ded2170f9808d5bb02809060600160405180910390a25050505050505050565b5f5f6105f185610687565b90505f8460ff168460ff1610610641575f61060c8686610980565b61061790600a610a7c565b905060706106258285610a8a565b61063790670de0b6b3a7640000610a8a565b901c91505061067e565b5f61064c8587610980565b61065790600a610a7c565b905060708161066e85670de0b6b3a7640000610a8a565b6106789190610aa1565b901c9150505b95945050505050565b6001600160a01b0381165f81815260208181526040808320815160608082018452825463ffffffff90811683526001840154838701526002840154838601529686528585528351908101845260038301549096168087526004830154948701949094526005909101549185019190915291929061073d5760405162461bcd60e51b815260206004820152600f60248201526e4e6f206f62736572766174696f6e7360881b60448201526064015b60405180910390fd5b815181515f9161074c916108d1565b90506107088163ffffffff1610156107a65760405162461bcd60e51b815260206004820152601c60248201527f4f62736572766174696f6e20706572696f6420746f6f2073686f7274000000006044820152606401610734565b602080840151908301510363ffffffff821681816107c6576107c661096c565b049695505050505050565b5f602052815f5260405f2081600281106107e9575f80fd5b600302018054600182015460029092015463ffffffff909116935090915083565b80356001600160a01b0381168114610820575f5ffd5b919050565b5f60208284031215610835575f5ffd5b61083e8261080a565b9392505050565b803560ff81168114610820575f5ffd5b5f5f5f60608486031215610867575f5ffd5b6108708461080a565b925061087e60208501610845565b915061088c60408501610845565b90509250925092565b5f5f604083850312156108a6575f5ffd5b6108af8361080a565b946020939093013593505050565b634e487b7160e01b5f52601160045260245ffd5b63ffffffff82811682821603908111156108ed576108ed6108bd565b92915050565b80516001600160701b0381168114610820575f5ffd5b5f5f5f6060848603121561091b575f5ffd5b610924846108f3565b9250610932602085016108f3565b9150604084015163ffffffff8116811461094a575f5ffd5b809150509250925092565b5f60208284031215610965575f5ffd5b5051919050565b634e487b7160e01b5f52601260045260245ffd5b60ff82811682821603908111156108ed576108ed6108bd565b6001815b60018411156109d4578085048111156109b8576109b86108bd565b60018416156109c657908102905b60019390931c92800261099d565b935093915050565b5f826109ea575060016108ed565b816109f657505f6108ed565b8160018114610a0c5760028114610a1657610a32565b60019150506108ed565b60ff841115610a2757610a276108bd565b50506001821b6108ed565b5060208310610133831016604e8410600b8410161715610a55575081810a6108ed565b610a615f198484610999565b805f1904821115610a7457610a746108bd565b029392505050565b5f61083e60ff8416836109dc565b80820281158282048414176108ed576108ed6108bd565b5f82610abb57634e487b7160e01b5f52601260045260245ffd5b50049056fea2646970667358221220e94ccf2187de4e1bce95471101f998c5ee9a62c1d5b97c692fa4dc9848c9f22464736f6c634300081e0033",
  "linkReferences": {},
  "deployedLinkReferences": {},
  "immutableReferences": {},
  "inputSourceName": "project/contracts/UniswapV2TWAPOracle.sol",
  "buildInfoId": "solc-0_8_30-c0bffaac0bb6ccfa655d823fefa8700d22de90f6"
}