{
  "_format": "hh3-artifact-1",
  "contractName": "PriceOracle",
  "sourceName": "contracts/PriceOracle.sol",
  "abi": [
    {
      "inputs": [
        {
          "internalType": "address",
          "name": "initialOwner",
          "type": "address"
        },
        {
          "internalType": "address",
          "name": "_core",
          "type": "address"
        },
        {
          "internalType": "address",
          "name": "_twapOracle",
          "type": "address"
        },
        {
          "internalType": "bytes32",
          "name": "_pythWbtcPriceId",
          "type": "bytes32"
        },
        {
          "internalType": "bytes32",
          "name": "_redstoneWbtcDataFeedId",
          "type": "bytes32"
        },
        {
          "internalType": "uint8",
          "name": "_redstoneWbtcDecimals",
          "type": "uint8"
        }
      ],
      "stateMutability": "nonpayable",
      "type": "constructor"
    },
    {
      "inputs": [
        {
          "internalType": "address",
          "name": "owner",
          "type": "address"
        }
      ],
      "name": "OwnableInvalidOwner",
      "type": "error"
    },
    {
      "inputs": [
        {
          "internalType": "address",
          "name": "account",
          "type": "address"
        }
      ],
      "name": "OwnableUnauthorizedAccount",
      "type": "error"
    },
    {
      "anonymous": false,
      "inputs": [
        {
          "indexed": false,
          "internalType": "uint256",
          "name": "oldBps",
          "type": "uint256"
        },
        {
          "indexed": false,
          "internalType": "uint256",
          "name": "newBps",
          "type": "uint256"
        }
      ],
      "name": "MaxDeviationUpdated",
      "type": "event"
    },
    {
      "anonymous": false,
      "inputs": [
        {
          "indexed": true,
          "internalType": "address",
          "name": "previousOwner",
          "type": "address"
        },
        {
          "indexed": true,
          "internalType": "address",
          "name": "newOwner",
          "type": "address"
        }
      ],
      "name": "OwnershipTransferred",
      "type": "event"
    },
    {
      "anonymous": false,
      "inputs": [
        {
          "indexed": true,
          "internalType": "address",
          "name": "token",
          "type": "address"
        },
        {
          "indexed": false,
          "internalType": "uint256",
          "name": "price",
          "type": "uint256"
        },
        {
          "indexed": false,
          "internalType": "uint256",
          "name": "timestamp",
          "type": "uint256"
        }
      ],
      "name": "PriceQueried",
      "type": "event"
    },
    {
      "anonymous": false,
      "inputs": [
        {
          "indexed": false,
          "internalType": "bytes32",
          "name": "oldId",
          "type": "bytes32"
        },
        {
          "indexed": false,
          "internalType": "bytes32",
          "name": "newId",
          "type": "bytes32"
        }
      ],
      "name": "PythPriceIdUpdated",
      "type": "event"
    },
    {
      "anonymous": false,
      "inputs": [
        {
          "indexed": false,
          "internalType": "bytes32",
          "name": "oldId",
          "type": "bytes32"
        },
        {
          "indexed": false,
          "internalType": "uint8",
          "name": "oldDecimals",
          "type": "uint8"
        },
        {
          "indexed": false,
          "internalType": "bytes32",
          "name": "newId",
          "type": "bytes32"
        },
        {
          "indexed": false,
          "internalType": "uint8",
          "name": "newDecimals",
          "type": "uint8"
        }
      ],
      "name": "RedstoneConfigUpdated",
      "type": "event"
    },
    {
      "anonymous": false,
      "inputs": [
        {
          "indexed": false,
          "internalType": "bool",
          "name": "enabled",
          "type": "bool"
        }
      ],
      "name": "TWAPModeChanged",
      "type": "event"
    },
    {
      "anonymous": false,
      "inputs": [
        {
          "indexed": true,
          "internalType": "address",
          "name": "oldOracle",
          "type": "address"
        },
        {
          "indexed": true,
          "internalType": "address",
          "name": "newOracle",
          "type": "address"
        }
      ],
      "name": "TWAPOracleUpdated",
      "type": "event"
    },
    {
      "inputs": [],
      "name": "DEVIATION_UPDATE_COOLDOWN",
      "outputs": [
        {
          "internalType": "uint256",
          "name": "",
          "type": "uint256"
        }
      ],
      "stateMutability": "view",
      "type": "function"
    },
    {
      "inputs": [],
      "name": "GOV_COOLDOWN",
      "outputs": [
        {
          "internalType": "uint256",
          "name": "",
          "type": "uint256"
        }
      ],
      "stateMutability": "view",
      "type": "function"
    },
    {
      "inputs": [],
      "name": "MAX_DEVIATION_CEILING",
      "outputs": [
        {
          "internalType": "uint256",
          "name": "",
          "type": "uint256"
        }
      ],
      "stateMutability": "view",
      "type": "function"
    },
    {
      "inputs": [],
      "name": "MIN_DEVIATION_FLOOR",
      "outputs": [
        {
          "internalType": "uint256",
          "name": "",
          "type": "uint256"
        }
      ],
      "stateMutability": "view",
      "type": "function"
    },
    {
      "inputs": [],
      "name": "PYTH_MAX_CONF_RATIO",
      "outputs": [
        {
          "internalType": "uint64",
          "name": "",
          "type": "uint64"
        }
      ],
      "stateMutability": "view",
      "type": "function"
    },
    {
      "inputs": [],
      "name": "PYTH_MAX_STALENESS",
      "outputs": [
        {
          "internalType": "uint256",
          "name": "",
          "type": "uint256"
        }
      ],
      "stateMutability": "view",
      "type": "function"
    },
    {
      "inputs": [],
      "name": "core",
      "outputs": [
        {
          "internalType": "contract ConfigCore",
          "name": "",
          "type": "address"
        }
      ],
      "stateMutability": "view",
      "type": "function"
    },
    {
      "inputs": [],
      "name": "getBRSPrice",
      "outputs": [
        {
          "internalType": "uint256",
          "name": "",
          "type": "uint256"
        }
      ],
      "stateMutability": "view",
      "type": "function"
    },
    {
      "inputs": [],
      "name": "getBTBPrice",
      "outputs": [
        {
          "internalType": "uint256",
          "name": "",
          "type": "uint256"
        }
      ],
      "stateMutability": "view",
      "type": "function"
    },
    {
      "inputs": [],
      "name": "getBTDPrice",
      "outputs": [
        {
          "internalType": "uint256",
          "name": "",
          "type": "uint256"
        }
      ],
      "stateMutability": "view",
      "type": "function"
    },
    {
      "inputs": [],
      "name": "getChainlinkBTCUSD",
      "outputs": [
        {
          "internalType": "uint256",
          "name": "",
          "type": "uint256"
        }
      ],
      "stateMutability": "view",
      "type": "function"
    },
    {
      "inputs": [],
      "name": "getIUSDPrice",
      "outputs": [
        {
          "internalType": "uint256",
          "name": "",
          "type": "uint256"
        }
      ],
      "stateMutability": "view",
      "type": "function"
    },
    {
      "inputs": [
        {
          "internalType": "address",
          "name": "token",
          "type": "address"
        }
      ],
      "name": "getPrice",
      "outputs": [
        {
          "internalType": "uint256",
          "name": "",
          "type": "uint256"
        }
      ],
      "stateMutability": "view",
      "type": "function"
    },
    {
      "inputs": [
        {
          "internalType": "address",
          "name": "pool",
          "type": "address"
        },
        {
          "internalType": "address",
          "name": "base",
          "type": "address"
        },
        {
          "internalType": "address",
          "name": "quote",
          "type": "address"
        }
      ],
      "name": "getPrice",
      "outputs": [
        {
          "internalType": "uint256",
          "name": "",
          "type": "uint256"
        }
      ],
      "stateMutability": "view",
      "type": "function"
    },
    {
      "inputs": [],
      "name": "getStBTBPrice",
      "outputs": [
        {
          "internalType": "uint256",
          "name": "",
          "type": "uint256"
        }
      ],
      "stateMutability": "view",
      "type": "function"
    },
    {
      "inputs": [],
      "name": "getStBTDPrice",
      "outputs": [
        {
          "internalType": "uint256",
          "name": "",
          "type": "uint256"
        }
      ],
      "stateMutability": "view",
      "type": "function"
    },
    {
      "inputs": [],
      "name": "getTWAPOracle",
      "outputs": [
        {
          "internalType": "address",
          "name": "",
          "type": "address"
        }
      ],
      "stateMutability": "view",
      "type": "function"
    },
    {
      "inputs": [],
      "name": "getWBTCPrice",
      "outputs": [
        {
          "internalType": "uint256",
          "name": "",
          "type": "uint256"
        }
      ],
      "stateMutability": "view",
      "type": "function"
    },
    {
      "inputs": [],
      "name": "getWETHPrice",
      "outputs": [
        {
          "internalType": "uint256",
          "name": "",
          "type": "uint256"
        }
      ],
      "stateMutability": "pure",
      "type": "function"
    },
    {
      "inputs": [],
      "name": "isTWAPEnabled",
      "outputs": [
        {
          "internalType": "bool",
          "name": "",
          "type": "bool"
        }
      ],
      "stateMutability": "view",
      "type": "function"
    },
    {
      "inputs": [],
      "name": "lastDeviationUpdate",
      "outputs": [
        {
          "internalType": "uint256",
          "name": "",
          "type": "uint256"
        }
      ],
      "stateMutability": "view",
      "type": "function"
    },
    {
      "inputs": [],
      "name": "maxDeviationBps",
      "outputs": [
        {
          "internalType": "uint256",
          "name": "",
          "type": "uint256"
        }
      ],
      "stateMutability": "view",
      "type": "function"
    },
    {
      "inputs": [],
      "name": "owner",
      "outputs": [
        {
          "internalType": "address",
          "name": "",
          "type": "address"
        }
      ],
      "stateMutability": "view",
      "type": "function"
    },
    {
      "inputs": [],
      "name": "pythWbtcPriceId",
      "outputs": [
        {
          "internalType": "bytes32",
          "name": "",
          "type": "bytes32"
        }
      ],
      "stateMutability": "view",
      "type": "function"
    },
    {
      "inputs": [],
      "name": "redstoneWbtcDataFeedId",
      "outputs": [
        {
          "internalType": "bytes32",
          "name": "",
          "type": "bytes32"
        }
      ],
      "stateMutability": "view",
      "type": "function"
    },
    {
      "inputs": [],
      "name": "redstoneWbtcDecimals",
      "outputs": [
        {
          "internalType": "uint8",
          "name": "",
          "type": "uint8"
        }
      ],
      "stateMutability": "view",
      "type": "function"
    },
    {
      "inputs": [],
      "name": "renounceOwnership",
      "outputs": [],
      "stateMutability": "nonpayable",
      "type": "function"
    },
    {
      "inputs": [
        {
          "internalType": "uint256",
          "name": "newBps",
          "type": "uint256"
        }
      ],
      "name": "setMaxDeviationBps",
      "outputs": [],
      "stateMutability": "nonpayable",
      "type": "function"
    },
    {
      "inputs": [
        {
          "internalType": "address",
          "name": "_twapOracle",
          "type": "address"
        }
      ],
      "name": "setTWAPOracle",
      "outputs": [],
      "stateMutability": "nonpayable",
      "type": "function"
    },
    {
      "inputs": [
        {
          "internalType": "bool",
          "name": "_useTWAP",
          "type": "bool"
        }
      ],
      "name": "setUseTWAP",
      "outputs": [],
      "stateMutability": "nonpayable",
      "type": "function"
    },
    {
      "inputs": [
        {
          "internalType": "address",
          "name": "newOwner",
          "type": "address"
        }
      ],
      "name": "transferOwnership",
      "outputs": [],
      "stateMutability": "nonpayable",
      "type": "function"
    },
    {
      "inputs": [],
      "name": "twapOracle",
      "outputs": [
        {
          "internalType": "contract IUniswapV2TWAPOracle",
          "name": "",
          "type": "address"
        }
      ],
      "stateMutability": "view",
      "type": "function"
    },
    {
      "inputs": [],
      "name": "useTWAP",
      "outputs": [
        {
          "internalType": "bool",
          "name": "",
          "type": "bool"
        }
      ],
      "stateMutability": "view",
      "type": "function"
    },
    {
      "inputs": [],
      "name": "useTWAPDefault",
      "outputs": [
        {
          "internalType": "bool",
          "name": "",
          "type": "bool"
        }
      ],
      "stateMutability": "view",
      "type": "function"
    }
  ],
  "bytecode": "0x6101206040526064600255348015610015575f5ffd5b5060405161354c38038061354c833981016040819052610034916102c5565b856001600160a01b03811661006357604051631e4fbdf760e01b81525f60048201526024015b60405180910390fd5b61006c8161025b565b506001600160a01b0386166100b35760405162461bcd60e51b815260206004820152600d60248201526c24b73b30b634b21037bbb732b960991b604482015260640161005a565b6001600160a01b0385166101095760405162461bcd60e51b815260206004820152601460248201527f496e76616c696420636f72652061646472657373000000000000000000000000604482015260640161005a565b826101565760405162461bcd60e51b815260206004820152601560248201527f496e76616c696420507974682070726963652069640000000000000000000000604482015260640161005a565b816101a35760405162461bcd60e51b815260206004820152601860248201527f496e76616c69642052656473746f6e6520666565642069640000000000000000604482015260640161005a565b5f8160ff16116101f55760405162461bcd60e51b815260206004820152601960248201527f496e76616c69642052656473746f6e6520646563696d616c7300000000000000604482015260640161005a565b6001600160a01b0380861660805260a084905260c083905260ff821660e0526001610100819052805460ff60a01b1916600160a01b17905584161561025057600180546001600160a01b0319166001600160a01b0386161790555b505050505050610332565b5f80546001600160a01b038381166001600160a01b0319831681178455604051919092169283917f8be0079c531659141344cd1fd0a4f28419497f9722a3daafe3b4186f6b6457e09190a35050565b80516001600160a01b03811681146102c0575f5ffd5b919050565b5f5f5f5f5f5f60c087890312156102da575f5ffd5b6102e3876102aa565b95506102f1602088016102aa565b94506102ff604088016102aa565b6060880151608089015160a08a0151929650909450925060ff81168114610324575f5ffd5b809150509295509295509295565b60805160a05160c05160e051610100516130ef61045d5f395f61026c01525f81816102ff015281816124e5015261262c01525f818161035d01528181612481015261256301525f81816102b40152818161219b015261220d01525f8181610428015281816104820152818161067b015281816106fb0152818161077b015281816108a80152818161094e015281816109ee01528181610a8e01528181610b2e01528181610bd501528181610c7501528181610d1501528181610dbc0152818161110801528181611188015281816111e601528181611360015281816114240152818161161f0152818161169f0152818161171f015281816117e3015281816118630152818161204a015281816120cf015281816123b10152818161270901526127a901526130ef5ff3fe608060405234801561000f575f5ffd5b50600436106101fd575f3560e01c80638068e42c11610114578063b14ea759116100a9578063f2fde38b11610079578063f2fde38b1461044a578063f42d73011461045d578063f8ff84d314610466578063fa7d826a1461046e578063ff8336ff14610476575f5ffd5b8063b14ea7591461040a578063c1709bc214610412578063c89f4b981461041b578063f2f4eb2614610423575f5ffd5b80639e9d68b6116100e45780639e9d68b6146103f2578063a0e8d356146103fa578063a645b54314610201578063ae8ba67914610402575f5ffd5b80638068e42c146103a95780638c4039c5146103bc5780638da5cb5b146103cf5780639043292a146103df575f5ffd5b80633e3147a0116101955780635954a86f116101655780635954a86f146103335780636328c11a146103585780637100d05c1461037f578063715018a614610392578063738dc8fa1461039a575f5ffd5b80633e3147a0146102d65780633ee7a701146102de57806341976e09146102e757806346abc3cb146102fa575f5ffd5b80632536dbfb116101d05780632536dbfb14610252578063273441a21461026757806328fc75021461028e578063310b94b0146102af575f5ffd5b80630f68bb631461020157806316df7ea11461021e5780631c1716641461024257806322f9f2271461024a575b5f5ffd5b61020b6201518081565b6040519081526020015b60405180910390f35b60015461023290600160a01b900460ff1681565b6040519015158152602001610215565b61020b61047e565b61020b610674565b610265610260366004612c27565b610822565b005b6102327f000000000000000000000000000000000000000000000000000000000000000081565b610296606481565b60405167ffffffffffffffff9091168152602001610215565b61020b7f000000000000000000000000000000000000000000000000000000000000000081565b61023261087b565b61020b60025481565b61020b6102f5366004612c27565b6108a5565b6103217f000000000000000000000000000000000000000000000000000000000000000081565b60405160ff9091168152602001610215565b6001546001600160a01b03165b6040516001600160a01b039091168152602001610215565b61020b7f000000000000000000000000000000000000000000000000000000000000000081565b61020b61038d366004612c42565b610eb4565b610265610f05565b68a2a15d09519be0000061020b565b6102656103b7366004612c8a565b610f18565b6102656103ca366004612cae565b6110a1565b5f546001600160a01b0316610340565b600154610340906001600160a01b031681565b61020b603281565b61020b611101565b61020b6111e2565b61020b61135a565b61020b6101f481565b61020b603c81565b6103407f000000000000000000000000000000000000000000000000000000000000000081565b610265610458366004612c27565b6113e3565b61020b60035481565b61020b611420565b61020b6115e9565b61020b6117dd565b5f5f7f00000000000000000000000000000000000000000000000000000000000000006001600160a01b03166348a954946040518163ffffffff1660e01b8152600401602060405180830381865afa1580156104dc573d5f5f3e3d5ffd5b505050506040513d601f19601f820116820180604052508101906105009190612cc9565b90506001600160a01b0381166105545760405162461bcd60e51b81526020600482015260146024820152731cdd109510881b9bdd0818dbdb999a59dd5c995960621b60448201526064015b60405180910390fd5b5f8190505f816001600160a01b03166318160ddd6040518163ffffffff1660e01b8152600401602060405180830381865afa158015610595573d5f5f3e3d5ffd5b505050506040513d601f19601f820116820180604052508101906105b99190612ce4565b9050805f036105d2576105ca611101565b935050505090565b5f826001600160a01b03166301e1d1146040518163ffffffff1660e01b8152600401602060405180830381865afa15801561060f573d5f5f3e3d5ffd5b505050506040513d601f19601f820116820180604052508101906106339190612ce4565b90505f61064982670de0b6b3a7640000856118bd565b90505f610654611101565b90506106698282670de0b6b3a76400006118bd565b965050505050505090565b5f5f6107f97f00000000000000000000000000000000000000000000000000000000000000006001600160a01b03166340cbbcc36040518163ffffffff1660e01b8152600401602060405180830381865afa1580156106d5573d5f5f3e3d5ffd5b505050506040513d601f19601f820116820180604052508101906106f99190612cc9565b7f00000000000000000000000000000000000000000000000000000000000000006001600160a01b03166316a3d9fd6040518163ffffffff1660e01b8152600401602060405180830381865afa158015610755573d5f5f3e3d5ffd5b505050506040513d601f19601f820116820180604052508101906107799190612cc9565b7f00000000000000000000000000000000000000000000000000000000000000006001600160a01b031663457404776040518163ffffffff1660e01b8152600401602060405180830381865afa1580156107d5573d5f5f3e3d5ffd5b505050506040513d601f19601f8201168201806040525081019061038d9190612cc9565b90505f6108046117dd565b90505f61081a8383670de0b6b3a76400006118bd565b949350505050565b61082a61196d565b600180546001600160a01b038381166001600160a01b0319831681179093556040519116919082907fbd88378c1310b1e36e9a14008ea9fb3ec76db83d1ebdbf4ea1f57e11090cd8be905f90a35050565b6001545f90600160a01b900460ff1680156108a057506001546001600160a01b031615155b905090565b5f7f00000000000000000000000000000000000000000000000000000000000000006001600160a01b0316634dede3de6040518163ffffffff1660e01b8152600401602060405180830381865afa158015610902573d5f5f3e3d5ffd5b505050506040513d601f19601f820116820180604052508101906109269190612cc9565b6001600160a01b0316826001600160a01b03160361094c576109466115e9565b92915050565b7f00000000000000000000000000000000000000000000000000000000000000006001600160a01b031663457404776040518163ffffffff1660e01b8152600401602060405180830381865afa1580156109a8573d5f5f3e3d5ffd5b505050506040513d601f19601f820116820180604052508101906109cc9190612cc9565b6001600160a01b0316826001600160a01b0316036109ec576109466117dd565b7f00000000000000000000000000000000000000000000000000000000000000006001600160a01b03166346caf5e86040518163ffffffff1660e01b8152600401602060405180830381865afa158015610a48573d5f5f3e3d5ffd5b505050506040513d601f19601f82011682018060405250810190610a6c9190612cc9565b6001600160a01b0316826001600160a01b031603610a8c57610946611101565b7f00000000000000000000000000000000000000000000000000000000000000006001600160a01b03166316a3d9fd6040518163ffffffff1660e01b8152600401602060405180830381865afa158015610ae8573d5f5f3e3d5ffd5b505050506040513d601f19601f82011682018060405250810190610b0c9190612cc9565b6001600160a01b0316826001600160a01b031603610b2c57610946610674565b7f00000000000000000000000000000000000000000000000000000000000000006001600160a01b031663ad5c46486040518163ffffffff1660e01b8152600401602060405180830381865afa158015610b88573d5f5f3e3d5ffd5b505050506040513d601f19601f82011682018060405250810190610bac9190612cc9565b6001600160a01b0316826001600160a01b031603610bd35768a2a15d09519be00000610946565b7f00000000000000000000000000000000000000000000000000000000000000006001600160a01b0316633c9ac7226040518163ffffffff1660e01b8152600401602060405180830381865afa158015610c2f573d5f5f3e3d5ffd5b505050506040513d601f19601f82011682018060405250810190610c539190612cc9565b6001600160a01b0316826001600160a01b031603610c7357610946611420565b7f00000000000000000000000000000000000000000000000000000000000000006001600160a01b03166348a954946040518163ffffffff1660e01b8152600401602060405180830381865afa158015610ccf573d5f5f3e3d5ffd5b505050506040513d601f19601f82011682018060405250810190610cf39190612cc9565b6001600160a01b0316826001600160a01b031603610d135761094661047e565b7f00000000000000000000000000000000000000000000000000000000000000006001600160a01b03166389a302716040518163ffffffff1660e01b8152600401602060405180830381865afa158015610d6f573d5f5f3e3d5ffd5b505050506040513d601f19601f82011682018060405250810190610d939190612cc9565b6001600160a01b0316826001600160a01b031603610dba5750670de0b6b3a7640000919050565b7f00000000000000000000000000000000000000000000000000000000000000006001600160a01b031663c54e44eb6040518163ffffffff1660e01b8152600401602060405180830381865afa158015610e16573d5f5f3e3d5ffd5b505050506040513d601f19601f82011682018060405250810190610e3a9190612cc9565b6001600160a01b0316826001600160a01b031603610e615750670de0b6b3a7640000919050565b60405162461bcd60e51b815260206004820152602260248201527f5072696365206e6f7420617661696c61626c6520666f72207468697320746f6b60448201526132b760f11b606482015260840161054b565b6001545f90600160a01b900460ff168015610ed957506001546001600160a01b031615155b15610ef057610ee9848484611999565b9050610efe565b610efb848484611d61565b90505b9392505050565b610f0d61196d565b610f165f611fea565b565b610f2061196d565b6032811015610f655760405162461bcd60e51b8152602060048201526011602482015270446576696174696f6e20746f6f206c6f7760781b604482015260640161054b565b6101f4811115610fac5760405162461bcd60e51b8152602060048201526012602482015271088caecd2c2e8d2dedc40e8dede40d0d2ced60731b604482015260640161054b565b6002548110610ffd5760405162461bcd60e51b815260206004820152601a60248201527f446576696174696f6e2063616e206f6e6c79207469676874656e000000000000604482015260640161054b565b6003541561105857620151806003546110169190612d0f565b4210156110585760405162461bcd60e51b815260206004820152601060248201526f10dbdbdb191bdddb881b9bdd081b595d60821b604482015260640161054b565b60028054908290554260035560408051828152602081018490527fea7b0359048504e79474eaaa05294b49265fc4e7b0a0c3737aaa22412e90f16e910160405180910390a15050565b6110a961196d565b60018054821515600160a01b0260ff60a01b199091161790556040517f0163568d3185bb7679fb2660bf0c56cc98855d55082f9f0b2df4811f02f1d351906110f690831515815260200190565b60405180910390a150565b5f5f6107f97f00000000000000000000000000000000000000000000000000000000000000006001600160a01b03166356f760db6040518163ffffffff1660e01b8152600401602060405180830381865afa158015611162573d5f5f3e3d5ffd5b505050506040513d601f19601f820116820180604052508101906111869190612cc9565b7f00000000000000000000000000000000000000000000000000000000000000006001600160a01b03166346caf5e86040518163ffffffff1660e01b8152600401602060405180830381865afa158015610755573d5f5f3e3d5ffd5b5f5f7f00000000000000000000000000000000000000000000000000000000000000006001600160a01b031663b85b92096040518163ffffffff1660e01b8152600401602060405180830381865afa158015611240573d5f5f3e3d5ffd5b505050506040513d601f19601f820116820180604052508101906112649190612cc9565b90506001600160a01b0381166112b35760405162461bcd60e51b8152602060048201526014602482015273125554d1081b585b9859d95c881b9bdd081cd95d60621b604482015260640161054b565b5f816001600160a01b031663ce0e5b126040518163ffffffff1660e01b8152600401602060405180830381865afa1580156112f0573d5f5f3e3d5ffd5b505050506040513d601f19601f820116820180604052508101906113149190612ce4565b90505f81116109465760405162461bcd60e51b8152602060048201526012602482015271496e76616c6964204955534420707269636560701b604482015260640161054b565b5f6108a07f00000000000000000000000000000000000000000000000000000000000000006001600160a01b031663be2aaaed6040518163ffffffff1660e01b8152600401602060405180830381865afa1580156113ba573d5f5f3e3d5ffd5b505050506040513d601f19601f820116820180604052508101906113de9190612cc9565b612039565b6113eb61196d565b6001600160a01b03811661141457604051631e4fbdf760e01b81525f600482015260240161054b565b61141d81611fea565b50565b5f5f7f00000000000000000000000000000000000000000000000000000000000000006001600160a01b0316633c9ac7226040518163ffffffff1660e01b8152600401602060405180830381865afa15801561147e573d5f5f3e3d5ffd5b505050506040513d601f19601f820116820180604052508101906114a29190612cc9565b90506001600160a01b0381166114f15760405162461bcd60e51b81526020600482015260146024820152731cdd109511081b9bdd0818dbdb999a59dd5c995960621b604482015260640161054b565b5f8190505f816001600160a01b03166318160ddd6040518163ffffffff1660e01b8152600401602060405180830381865afa158015611532573d5f5f3e3d5ffd5b505050506040513d601f19601f820116820180604052508101906115569190612ce4565b9050805f03611567576105ca6117dd565b5f826001600160a01b03166301e1d1146040518163ffffffff1660e01b8152600401602060405180830381865afa1580156115a4573d5f5f3e3d5ffd5b505050506040513d601f19601f820116820180604052508101906115c89190612ce4565b90505f6115de82670de0b6b3a7640000856118bd565b90505f6106546117dd565b5f5f6115f3612043565b90505f6115fe6120cb565b90505f6116096123ad565b90505f611617848484612650565b90505f6117797f00000000000000000000000000000000000000000000000000000000000000006001600160a01b03166304f88f4d6040518163ffffffff1660e01b8152600401602060405180830381865afa158015611679573d5f5f3e3d5ffd5b505050506040513d601f19601f8201168201806040525081019061169d9190612cc9565b7f00000000000000000000000000000000000000000000000000000000000000006001600160a01b0316634dede3de6040518163ffffffff1660e01b8152600401602060405180830381865afa1580156116f9573d5f5f3e3d5ffd5b505050506040513d601f19601f8201168201806040525081019061171d9190612cc9565b7f00000000000000000000000000000000000000000000000000000000000000006001600160a01b03166389a302716040518163ffffffff1660e01b8152600401602060405180830381865afa1580156107d5573d5f5f3e3d5ffd5b9050611788818360025461267d565b6117d45760405162461bcd60e51b815260206004820152601760248201527f57425443207072696365206d69736d61746368203e3125000000000000000000604482015260640161054b565b95945050505050565b5f6108a07f00000000000000000000000000000000000000000000000000000000000000006001600160a01b03166389f9109d6040518163ffffffff1660e01b8152600401602060405180830381865afa15801561183d573d5f5f3e3d5ffd5b505050506040513d601f19601f820116820180604052508101906118619190612cc9565b7f00000000000000000000000000000000000000000000000000000000000000006001600160a01b031663457404776040518163ffffffff1660e01b8152600401602060405180830381865afa1580156116f9573d5f5f3e3d5ffd5b5f5f5f6118ca86866126d9565b91509150815f036118ee578381816118e4576118e4612d22565b0492505050610efe565b8184116119055761190560038515026011186126f5565b5f848688095f868103871696879004966002600389028118808a02820302808a02820302808a02820302808a02820302808a02820302808a02909103029181900381900460010185841190960395909502919093039390930492909217029150509392505050565b5f546001600160a01b03163314610f165760405163118cdaa760e01b815233600482015260240161054b565b6001545f906001600160a01b03166119e95760405162461bcd60e51b81526020600482015260136024820152721515d054081bdc9858db19481b9bdd081cd95d606a1b604482015260640161054b565b60015460405163013a839760e31b81526001600160a01b038681166004830152909116906309d41cb890602401602060405180830381865afa158015611a31573d5f5f3e3d5ffd5b505050506040513d601f19601f82011682018060405250810190611a559190612d36565b611a925760405162461bcd60e51b815260206004820152600e60248201526d54574150206e6f7420726561647960901b604482015260640161054b565b5f8490505f816001600160a01b0316630dfe16816040518163ffffffff1660e01b8152600401602060405180830381865afa158015611ad3573d5f5f3e3d5ffd5b505050506040513d601f19601f82011682018060405250810190611af79190612cc9565b90505f826001600160a01b031663d21220a76040518163ffffffff1660e01b8152600401602060405180830381865afa158015611b36573d5f5f3e3d5ffd5b505050506040513d601f19601f82011682018060405250810190611b5a9190612cc9565b9050856001600160a01b0316826001600160a01b0316148015611b8e5750846001600160a01b0316816001600160a01b0316145b80611bc65750846001600160a01b0316826001600160a01b0316148015611bc65750856001600160a01b0316816001600160a01b0316145b611c125760405162461bcd60e51b815260206004820152601b60248201527f496e76616c696420626173652f71756f746520666f7220706f6f6c0000000000604482015260640161054b565b5f611c1c87612706565b90505f611c2887612706565b9050876001600160a01b0316846001600160a01b031603611cd8576001546040516364dca9c760e01b81526001600160a01b038b8116600483015260ff8086166024840152841660448301525f9216906364dca9c790606401602060405180830381865afa158015611c9c573d5f5f3e3d5ffd5b505050506040513d601f19601f82011682018060405250810190611cc09190612ce4565b9050611ccb81612854565b9650505050505050610efe565b6001546040516364dca9c760e01b81526001600160a01b038b8116600483015260ff808516602484015285166044830152909116906364dca9c790606401602060405180830381865afa158015611d31573d5f5f3e3d5ffd5b505050506040513d601f19601f82011682018060405250810190611d559190612ce4565b95505050505050610efe565b5f5f8490505f5f826001600160a01b0316630902f1ac6040518163ffffffff1660e01b8152600401606060405180830381865afa158015611da4573d5f5f3e3d5ffd5b505050506040513d601f19601f82011682018060405250810190611dc89190612d67565b50915091505f836001600160a01b0316630dfe16816040518163ffffffff1660e01b8152600401602060405180830381865afa158015611e0a573d5f5f3e3d5ffd5b505050506040513d601f19601f82011682018060405250810190611e2e9190612cc9565b90505f846001600160a01b031663d21220a76040518163ffffffff1660e01b8152600401602060405180830381865afa158015611e6d573d5f5f3e3d5ffd5b505050506040513d601f19601f82011682018060405250810190611e919190612cc9565b9050876001600160a01b0316826001600160a01b0316148015611ec55750866001600160a01b0316816001600160a01b0316145b80611efd5750866001600160a01b0316826001600160a01b0316148015611efd5750876001600160a01b0316816001600160a01b0316145b611f495760405162461bcd60e51b815260206004820152601b60248201527f496e76616c696420626173652f71756f746520666f7220706f6f6c0000000000604482015260640161054b565b5f886001600160a01b0316836001600160a01b031614611f7257836001600160701b0316611f7d565b846001600160701b03165b90505f896001600160a01b0316846001600160a01b031614611fa857856001600160701b0316611fb3565b846001600160701b03165b90505f611fbf8b612706565b90505f611fcb8b612706565b9050611fd9848484846128b4565b9d9c50505050505050505050505050565b5f80546001600160a01b038381166001600160a01b0319831681178455604051919092169283917f8be0079c531659141344cd1fd0a4f28419497f9722a3daafe3b4186f6b6457e09190a35050565b5f61094682612933565b5f5f6120a47f00000000000000000000000000000000000000000000000000000000000000006001600160a01b031663b06d543c6040518163ffffffff1660e01b8152600401602060405180830381865afa1580156113ba573d5f5f3e3d5ffd5b90505f6120af61135a565b90506120c48282670de0b6b3a76400006118bd565b9250505090565b5f5f7f00000000000000000000000000000000000000000000000000000000000000006001600160a01b03166310a420c16040518163ffffffff1660e01b8152600401602060405180830381865afa158015612129573d5f5f3e3d5ffd5b505050506040513d601f19601f8201168201806040525081019061214d9190612cc9565b90506001600160a01b0381166121995760405162461bcd60e51b8152602060048201526011602482015270141e5d1a0819995959081b9bdd081cd95d607a1b604482015260640161054b565b7f00000000000000000000000000000000000000000000000000000000000000006121fe5760405162461bcd60e51b8152602060048201526015602482015274141e5d1a081c1c9a58d9481a59081b9bdd081cd95d605a1b604482015260640161054b565b6040516396834ad360e01b81527f000000000000000000000000000000000000000000000000000000000000000060048201525f906001600160a01b038316906396834ad390602401608060405180830381865afa158015612262573d5f5f3e3d5ffd5b505050506040513d601f19601f820116820180604052508101906122869190612dd0565b90505f815f015160070b136122d25760405162461bcd60e51b8152602060048201526012602482015271496e76616c6964205079746820707269636560701b604482015260640161054b565b603c8160600151426122e49190612e5c565b11156123255760405162461bcd60e51b815260206004820152601060248201526f50797468207072696365207374616c6560801b604482015260640161054b565b805f015167ffffffffffffffff16816020015160646123449190612e6f565b67ffffffffffffffff16111561239c5760405162461bcd60e51b815260206004820152601860248201527f5079746820636f6e666964656e636520746f6f20776964650000000000000000604482015260640161054b565b6120c4815f01518260400151612a95565b5f5f7f00000000000000000000000000000000000000000000000000000000000000006001600160a01b03166395d1741d6040518163ffffffff1660e01b8152600401602060405180830381865afa15801561240b573d5f5f3e3d5ffd5b505050506040513d601f19601f8201168201806040525081019061242f9190612cc9565b90506001600160a01b03811661247f5760405162461bcd60e51b81526020600482015260156024820152741499591cdd1bdb994819995959081b9bdd081cd95d605a1b604482015260640161054b565b7f00000000000000000000000000000000000000000000000000000000000000006124e25760405162461bcd60e51b81526020600482015260136024820152721499591cdd1bdb99481a59081b9bdd081cd95d606a1b604482015260640161054b565b5f7f000000000000000000000000000000000000000000000000000000000000000060ff16116125545760405162461bcd60e51b815260206004820152601960248201527f52656473746f6e6520646563696d616c73206e6f742073657400000000000000604482015260640161054b565b604051630f42405960e31b81527f000000000000000000000000000000000000000000000000000000000000000060048201525f906001600160a01b03831690637a1202c890602401602060405180830381865afa1580156125b8573d5f5f3e3d5ffd5b505050506040513d601f19601f820116820180604052508101906125dc9190612ce4565b90505f81116126265760405162461bcd60e51b8152602060048201526016602482015275496e76616c69642052656473746f6e6520707269636560501b604482015260640161054b565b6120c4817f0000000000000000000000000000000000000000000000000000000000000000612bad565b5f8284111561265d579192915b81831115612669579091905b82841115612675579192915b509092915050565b5f831580612689575082155b1561269557505f610efe565b5f8385116126ac576126a78585612e5c565b6126b6565b6126b68486612e5c565b90506126c28386612e99565b6126ce61271083612e99565b111595945050505050565b5f805f1983850993909202808410938190039390930393915050565b634e487b715f52806020526024601cfd5b5f7f00000000000000000000000000000000000000000000000000000000000000006001600160a01b0316634dede3de6040518163ffffffff1660e01b8152600401602060405180830381865afa158015612763573d5f5f3e3d5ffd5b505050506040513d601f19601f820116820180604052508101906127879190612cc9565b6001600160a01b0316826001600160a01b0316036127a757506008919050565b7f00000000000000000000000000000000000000000000000000000000000000006001600160a01b03166389a302716040518163ffffffff1660e01b8152600401602060405180830381865afa158015612803573d5f5f3e3d5ffd5b505050506040513d601f19601f820116820180604052508101906128279190612cc9565b6001600160a01b0316826001600160a01b03160361284757506006919050565b506012919050565b919050565b5f5f82116128995760405162461bcd60e51b81526020600482015260126024820152714f7261636c653a207a65726f20707269636560701b604482015260640161054b565b6109466ec097ce7bc90715b34b9f10000000006001846118bd565b5f5f85116128fb5760405162461bcd60e51b81526020600482015260146024820152734f7261636c653a207a65726f207265736572766560601b604482015260640161054b565b5f6129068685612bad565b90505f6129138685612bad565b905061292881670de0b6b3a7640000846118bd565b979650505050505050565b5f6001600160a01b0382166129795760405162461bcd60e51b815260206004820152600c60248201526b11995959081b9bdd081cd95d60a21b604482015260640161054b565b5f8290505f816001600160a01b031663313ce5676040518163ffffffff1660e01b8152600401602060405180830381865afa1580156129ba573d5f5f3e3d5ffd5b505050506040513d601f19601f820116820180604052508101906129de9190612eb0565b90505f826001600160a01b031663feaf968c6040518163ffffffff1660e01b815260040160a060405180830381865afa158015612a1d573d5f5f3e3d5ffd5b505050506040513d601f19601f82011682018060405250810190612a419190612ee9565b5050509150505f8113612a8b5760405162461bcd60e51b8152602060048201526012602482015271496e76616c6964206665656420707269636560701b604482015260640161054b565b6117d48183612bad565b5f5f8360070b13612add5760405162461bcd60e51b8152602060048201526012602482015271496e76616c696420507974682076616c756560701b604482015260640161054b565b5f612ae9836012612f37565b9050604f198160030b138015612b02575060508160030b125b612b4e5760405162461bcd60e51b815260206004820152601b60248201527f50797468206578706f6e656e74206f7574206f6620626f756e64730000000000604482015260640161054b565b67ffffffffffffffff84165f600383900b12612b8257612b6f82600a613041565b612b799082612e99565b92505050610946565b5f612b8c83613052565b9050612b9981600a613041565b612ba39083613073565b9695505050505050565b5f8160ff16601203612bc0575081610946565b60128260ff161115612bf357612bd7601283613092565b612be290600a6130ab565b612bec9084613073565b9050610946565b612bfe826012613092565b612c0990600a6130ab565b610efe9084612e99565b6001600160a01b038116811461141d575f5ffd5b5f60208284031215612c37575f5ffd5b8135610efe81612c13565b5f5f5f60608486031215612c54575f5ffd5b8335612c5f81612c13565b92506020840135612c6f81612c13565b91506040840135612c7f81612c13565b809150509250925092565b5f60208284031215612c9a575f5ffd5b5035919050565b801515811461141d575f5ffd5b5f60208284031215612cbe575f5ffd5b8135610efe81612ca1565b5f60208284031215612cd9575f5ffd5b8151610efe81612c13565b5f60208284031215612cf4575f5ffd5b5051919050565b634e487b7160e01b5f52601160045260245ffd5b8082018082111561094657610946612cfb565b634e487b7160e01b5f52601260045260245ffd5b5f60208284031215612d46575f5ffd5b8151610efe81612ca1565b80516001600160701b038116811461284f575f5ffd5b5f5f5f60608486031215612d79575f5ffd5b612d8284612d51565b9250612d9060208501612d51565b9150604084015163ffffffff81168114612c7f575f5ffd5b805167ffffffffffffffff8116811461284f575f5ffd5b8051600381900b811461284f575f5ffd5b5f6080828403128015612de1575f5ffd5b506040516080810167ffffffffffffffff81118282101715612e1157634e487b7160e01b5f52604160045260245ffd5b6040528251600781900b8114612e25575f5ffd5b8152612e3360208401612da8565b6020820152612e4460408401612dbf565b60408201526060928301519281019290925250919050565b8181038181111561094657610946612cfb565b67ffffffffffffffff8181168382160290811690818114612e9257612e92612cfb565b5092915050565b808202811582820484141761094657610946612cfb565b5f60208284031215612ec0575f5ffd5b815160ff81168114610efe575f5ffd5b805169ffffffffffffffffffff8116811461284f575f5ffd5b5f5f5f5f5f60a08688031215612efd575f5ffd5b612f0686612ed0565b60208701516040880151606089015192975090955093509150612f2b60808701612ed0565b90509295509295909350565b600381810b9083900b01637fffffff8113637fffffff198212171561094657610946612cfb565b6001815b6001841115612f9957808504811115612f7d57612f7d612cfb565b6001841615612f8b57908102905b60019390931c928002612f62565b935093915050565b5f82612faf57506001610946565b81612fbb57505f610946565b8160018114612fd15760028114612fdb57612ff7565b6001915050610946565b60ff841115612fec57612fec612cfb565b50506001821b610946565b5060208310610133831016604e8410600b841016171561301a575081810a610946565b6130265f198484612f5e565b805f190482111561303957613039612cfb565b029392505050565b5f610efe63ffffffff841683612fa1565b5f8160030b637fffffff19810361306b5761306b612cfb565b5f0392915050565b5f8261308d57634e487b7160e01b5f52601260045260245ffd5b500490565b60ff828116828216039081111561094657610946612cfb565b5f610efe60ff841683612fa156fea2646970667358221220c5ad015b52f24d4ecfc6758e17dca92c129c88d74dbeba001da727f8cc5bc19364736f6c634300081e0033",
  "linkReferences": {},
  "deployedLinkReferences": {},
  "immutableReferences": {
    "4499": [
      {
        "length": 32,
        "start": 1064
      },
      {
        "length": 32,
        "start": 1154
      },
      {
        "length": 32,
        "start": 1659
      },
      {
        "length": 32,
        "start": 1787
      },
      {
        "length": 32,
        "start": 1915
      },
      {
        "length": 32,
        "start": 2216
      },
      {
        "length": 32,
        "start": 2382
      },
      {
        "length": 32,
        "start": 2542
      },
      {
        "length": 32,
        "start": 2702
      },
      {
        "length": 32,
        "start": 2862
      },
      {
        "length": 32,
        "start": 3029
      },
      {
        "length": 32,
        "start": 3189
      },
      {
        "length": 32,
        "start": 3349
      },
      {
        "length": 32,
        "start": 3516
      },
      {
        "length": 32,
        "start": 4360
      },
      {
        "length": 32,
        "start": 4488
      },
      {
        "length": 32,
        "start": 4582
      },
      {
        "length": 32,
        "start": 4960
      },
      {
        "length": 32,
        "start": 5156
      },
      {
        "length": 32,
        "start": 5663
      },
      {
        "length": 32,
        "start": 5791
      },
      {
        "length": 32,
        "start": 5919
      },
      {
        "length": 32,
        "start": 6115
      },
      {
        "length": 32,
        "start": 6243
      },
      {
        "length": 32,
        "start": 8266
      },
      {
        "length": 32,
        "start": 8399
      },
      {
        "length": 32,
        "start": 9137
      },
      {
        "length": 32,
        "start": 9993
      },
      {
        "length": 32,
        "start": 10153
      }
    ],
    "4501": [
      {
        "length": 32,
        "start": 692
      },
      {
        "length": 32,
        "start": 8603
      },
      {
        "length": 32,
        "start": 8717
      }
    ],
    "4503": [
      {
        "length": 32,
        "start": 861
      },
      {
        "length": 32,
        "start": 9345
      },
      {
        "length": 32,
        "start": 9571
      }
    ],
    "4505": [
      {
        "length": 32,
        "start": 767
      },
      {
        "length": 32,
        "start": 9445
      },
      {
        "length": 32,
        "start": 9772
      }
    ],
    "4507": [
      {
        "length": 32,
        "start": 620
      }
    ]
  },
  "inputSourceName": "project/contracts/PriceOracle.sol",
  "buildInfoId": "solc-0_8_30-7c6090ec320e6304886600822894499e997a3d25"
}