{
  "_format": "hh3-artifact-1",
  "contractName": "InterestPool",
  "sourceName": "contracts/InterestPool.sol",
  "abi": [
    {
      "inputs": [
        {
          "internalType": "address",
          "name": "initialOwner",
          "type": "address"
        },
        {
          "internalType": "address",
          "name": "_core",
          "type": "address"
        },
        {
          "internalType": "address",
          "name": "_gov",
          "type": "address"
        },
        {
          "internalType": "address",
          "name": "_rateOracle",
          "type": "address"
        }
      ],
      "stateMutability": "nonpayable",
      "type": "constructor"
    },
    {
      "inputs": [
        {
          "internalType": "address",
          "name": "owner",
          "type": "address"
        }
      ],
      "name": "OwnableInvalidOwner",
      "type": "error"
    },
    {
      "inputs": [
        {
          "internalType": "address",
          "name": "account",
          "type": "address"
        }
      ],
      "name": "OwnableUnauthorizedAccount",
      "type": "error"
    },
    {
      "inputs": [],
      "name": "ReentrancyGuardReentrantCall",
      "type": "error"
    },
    {
      "inputs": [
        {
          "internalType": "address",
          "name": "token",
          "type": "address"
        }
      ],
      "name": "SafeERC20FailedOperation",
      "type": "error"
    },
    {
      "anonymous": false,
      "inputs": [
        {
          "indexed": false,
          "internalType": "uint256",
          "name": "oldRateBps",
          "type": "uint256"
        },
        {
          "indexed": false,
          "internalType": "uint256",
          "name": "newRateBps",
          "type": "uint256"
        },
        {
          "indexed": false,
          "internalType": "uint256",
          "name": "price",
          "type": "uint256"
        },
        {
          "indexed": false,
          "internalType": "int256",
          "name": "dailyChangeBps",
          "type": "int256"
        }
      ],
      "name": "BTBAnnualRateUpdated",
      "type": "event"
    },
    {
      "anonymous": false,
      "inputs": [
        {
          "indexed": false,
          "internalType": "uint256",
          "name": "oldRateBps",
          "type": "uint256"
        },
        {
          "indexed": false,
          "internalType": "uint256",
          "name": "newRateBps",
          "type": "uint256"
        }
      ],
      "name": "BTDAnnualRateUpdated",
      "type": "event"
    },
    {
      "anonymous": false,
      "inputs": [
        {
          "indexed": true,
          "internalType": "address",
          "name": "user",
          "type": "address"
        },
        {
          "indexed": true,
          "internalType": "address",
          "name": "token",
          "type": "address"
        },
        {
          "indexed": false,
          "internalType": "uint256",
          "name": "amount",
          "type": "uint256"
        }
      ],
      "name": "InterestClaimed",
      "type": "event"
    },
    {
      "anonymous": false,
      "inputs": [
        {
          "indexed": true,
          "internalType": "address",
          "name": "previousOwner",
          "type": "address"
        },
        {
          "indexed": true,
          "internalType": "address",
          "name": "newOwner",
          "type": "address"
        }
      ],
      "name": "OwnershipTransferred",
      "type": "event"
    },
    {
      "anonymous": false,
      "inputs": [
        {
          "indexed": true,
          "internalType": "address",
          "name": "newOracle",
          "type": "address"
        }
      ],
      "name": "RateOracleUpdated",
      "type": "event"
    },
    {
      "anonymous": false,
      "inputs": [
        {
          "indexed": true,
          "internalType": "address",
          "name": "user",
          "type": "address"
        },
        {
          "indexed": true,
          "internalType": "address",
          "name": "token",
          "type": "address"
        },
        {
          "indexed": false,
          "internalType": "uint256",
          "name": "amount",
          "type": "uint256"
        }
      ],
      "name": "Staked",
      "type": "event"
    },
    {
      "anonymous": false,
      "inputs": [
        {
          "indexed": true,
          "internalType": "address",
          "name": "token",
          "type": "address"
        },
        {
          "indexed": false,
          "internalType": "uint256",
          "name": "amount",
          "type": "uint256"
        }
      ],
      "name": "TreasuryFeeMinted",
      "type": "event"
    },
    {
      "anonymous": false,
      "inputs": [
        {
          "indexed": true,
          "internalType": "address",
          "name": "user",
          "type": "address"
        },
        {
          "indexed": true,
          "internalType": "address",
          "name": "token",
          "type": "address"
        },
        {
          "indexed": false,
          "internalType": "uint256",
          "name": "amount",
          "type": "uint256"
        }
      ],
      "name": "Withdrawn",
      "type": "event"
    },
    {
      "inputs": [],
      "name": "btbLastPrice",
      "outputs": [
        {
          "internalType": "uint256",
          "name": "",
          "type": "uint256"
        }
      ],
      "stateMutability": "view",
      "type": "function"
    },
    {
      "inputs": [],
      "name": "btbLastRateUpdate",
      "outputs": [
        {
          "internalType": "uint256",
          "name": "",
          "type": "uint256"
        }
      ],
      "stateMutability": "view",
      "type": "function"
    },
    {
      "inputs": [],
      "name": "btbPool",
      "outputs": [
        {
          "internalType": "contract IMintableERC20",
          "name": "token",
          "type": "address"
        },
        {
          "internalType": "uint256",
          "name": "totalStaked",
          "type": "uint256"
        },
        {
          "internalType": "uint256",
          "name": "accInterestPerShare",
          "type": "uint256"
        },
        {
          "internalType": "uint256",
          "name": "lastAccrual",
          "type": "uint256"
        },
        {
          "internalType": "uint256",
          "name": "annualRateBps",
          "type": "uint256"
        }
      ],
      "stateMutability": "view",
      "type": "function"
    },
    {
      "inputs": [],
      "name": "btdPool",
      "outputs": [
        {
          "internalType": "contract IMintableERC20",
          "name": "token",
          "type": "address"
        },
        {
          "internalType": "uint256",
          "name": "totalStaked",
          "type": "uint256"
        },
        {
          "internalType": "uint256",
          "name": "accInterestPerShare",
          "type": "uint256"
        },
        {
          "internalType": "uint256",
          "name": "lastAccrual",
          "type": "uint256"
        },
        {
          "internalType": "uint256",
          "name": "annualRateBps",
          "type": "uint256"
        }
      ],
      "stateMutability": "view",
      "type": "function"
    },
    {
      "inputs": [],
      "name": "core",
      "outputs": [
        {
          "internalType": "contract ConfigCore",
          "name": "",
          "type": "address"
        }
      ],
      "stateMutability": "view",
      "type": "function"
    },
    {
      "inputs": [],
      "name": "getBTBPrice",
      "outputs": [
        {
          "internalType": "uint256",
          "name": "",
          "type": "uint256"
        }
      ],
      "stateMutability": "view",
      "type": "function"
    },
    {
      "inputs": [],
      "name": "gov",
      "outputs": [
        {
          "internalType": "contract ConfigGov",
          "name": "",
          "type": "address"
        }
      ],
      "stateMutability": "view",
      "type": "function"
    },
    {
      "inputs": [],
      "name": "owner",
      "outputs": [
        {
          "internalType": "address",
          "name": "",
          "type": "address"
        }
      ],
      "stateMutability": "view",
      "type": "function"
    },
    {
      "inputs": [],
      "name": "rateOracle",
      "outputs": [
        {
          "internalType": "address",
          "name": "",
          "type": "address"
        }
      ],
      "stateMutability": "view",
      "type": "function"
    },
    {
      "inputs": [],
      "name": "renounceOwnership",
      "outputs": [],
      "stateMutability": "nonpayable",
      "type": "function"
    },
    {
      "inputs": [
        {
          "internalType": "address",
          "name": "newOracle",
          "type": "address"
        }
      ],
      "name": "setRateOracle",
      "outputs": [],
      "stateMutability": "nonpayable",
      "type": "function"
    },
    {
      "inputs": [
        {
          "internalType": "uint256",
          "name": "amount",
          "type": "uint256"
        }
      ],
      "name": "stakeBTB",
      "outputs": [],
      "stateMutability": "nonpayable",
      "type": "function"
    },
    {
      "inputs": [
        {
          "internalType": "uint256",
          "name": "amount",
          "type": "uint256"
        }
      ],
      "name": "stakeBTD",
      "outputs": [],
      "stateMutability": "nonpayable",
      "type": "function"
    },
    {
      "inputs": [
        {
          "internalType": "address",
          "name": "token",
          "type": "address"
        }
      ],
      "name": "totalStaked",
      "outputs": [
        {
          "internalType": "uint256",
          "name": "",
          "type": "uint256"
        }
      ],
      "stateMutability": "view",
      "type": "function"
    },
    {
      "inputs": [
        {
          "internalType": "address",
          "name": "newOwner",
          "type": "address"
        }
      ],
      "name": "transferOwnership",
      "outputs": [],
      "stateMutability": "nonpayable",
      "type": "function"
    },
    {
      "inputs": [
        {
          "internalType": "uint256",
          "name": "amount",
          "type": "uint256"
        }
      ],
      "name": "unstakeBTB",
      "outputs": [],
      "stateMutability": "nonpayable",
      "type": "function"
    },
    {
      "inputs": [
        {
          "internalType": "uint256",
          "name": "amount",
          "type": "uint256"
        }
      ],
      "name": "unstakeBTD",
      "outputs": [],
      "stateMutability": "nonpayable",
      "type": "function"
    },
    {
      "inputs": [],
      "name": "updateBTBAnnualRate",
      "outputs": [],
      "stateMutability": "nonpayable",
      "type": "function"
    },
    {
      "inputs": [],
      "name": "updateBTDAnnualRate",
      "outputs": [],
      "stateMutability": "nonpayable",
      "type": "function"
    },
    {
      "inputs": [
        {
          "internalType": "address",
          "name": "newGov",
          "type": "address"
        }
      ],
      "name": "upgradeGov",
      "outputs": [],
      "stateMutability": "nonpayable",
      "type": "function"
    },
    {
      "inputs": [
        {
          "internalType": "address",
          "name": "token",
          "type": "address"
        },
        {
          "internalType": "address",
          "name": "user",
          "type": "address"
        }
      ],
      "name": "userStaked",
      "outputs": [
        {
          "internalType": "uint256",
          "name": "",
          "type": "uint256"
        }
      ],
      "stateMutability": "view",
      "type": "function"
    }
  ],
  "bytecode": "0x60a060405234801561000f575f5ffd5b506040516124ca3803806124ca83398101604081905261002e916103e7565b836001600160a01b03811661005d57604051631e4fbdf760e01b81525f60048201526024015b60405180910390fd5b6100668161037d565b50600180556001600160a01b0384166100c15760405162461bcd60e51b815260206004820152601b60248201527f496e746572657374506f6f6c3a20696e76616c6964206f776e657200000000006044820152606401610054565b6001600160a01b0383166101175760405162461bcd60e51b815260206004820152601760248201527f496e746572657374506f6f6c3a20636f7265207a65726f0000000000000000006044820152606401610054565b6001600160a01b03821661016d5760405162461bcd60e51b815260206004820152601660248201527f496e746572657374506f6f6c3a20676f76207a65726f000000000000000000006044820152606401610054565b6001600160a01b038381166080819052600280546001600160a01b0319169285169290921790915560408051634574047760e01b815290515f929163457404779160048083019260209291908290030181865afa1580156101d0573d5f5f3e3d5ffd5b505050506040513d601f19601f820116820180604052508101906101f49190610438565b90505f6080516001600160a01b03166346caf5e86040518163ffffffff1660e01b8152600401602060405180830381865afa158015610235573d5f5f3e3d5ffd5b505050506040513d601f19601f820116820180604052508101906102599190610438565b90506001600160a01b0382161580159061027b57506001600160a01b03811615155b6102c75760405162461bcd60e51b815260206004820152601760248201527f546f6b656e20616464726573736573206e6f74207365740000000000000000006044820152606401610054565b6040805160a080820183526001600160a01b039485168083525f60208085018290528486018290524260608087018290526101906080978801819052600480546001600160a01b031990811690971790556005859055600685905560078390556008819055885196870189529890991680865291850183905295840182905296830185905291909201849052600980549092169094179055600a839055600b92909255600c91909155600d555061045892505050565b5f80546001600160a01b038381166001600160a01b0319831681178455604051919092169283917f8be0079c531659141344cd1fd0a4f28419497f9722a3daafe3b4186f6b6457e09190a35050565b80516001600160a01b03811681146103e2575f5ffd5b919050565b5f5f5f5f608085870312156103fa575f5ffd5b610403856103cc565b9350610411602086016103cc565b925061041f604086016103cc565b915061042d606086016103cc565b905092959194509250565b5f60208284031215610448575f5ffd5b610451826103cc565b9392505050565b60805161203061049a5f395f81816102cd015281816110da01528181611223015281816112b10152818161139a015281816118140152611a2a01526120305ff3fe608060405234801561000f575f5ffd5b5060043610610132575f3560e01c80639546ed71116100b4578063b8e380f811610079578063b8e380f81461027f578063c19da1ae14610292578063cf3c99bd146102b5578063f2f4eb26146102c8578063f2fde38b146102ef578063f94cc96e14610302575f5ffd5b80639546ed71146101e957806398f4b1b21461023e5780639bfd8d6114610251578063a0e8d35614610264578063afdfe22c1461026c575f5ffd5b8063715018a6116100fa578063715018a6146101a2578063776f8a5a146101aa5780637771dad5146101bd57806377badb1d146101d05780638da5cb5b146101d9575f5ffd5b806312d43a51146101365780631b4f9ea6146101665780633eabfb7514610170578063582d6976146101835780636fe1e80c1461018b575b5f5ffd5b600254610149906001600160a01b031681565b6040516001600160a01b0390911681526020015b60405180910390f35b61016e610315565b005b61016e61017e366004611e8d565b6103dd565b61016e61061a565b61019460115481565b60405190815260200161015d565b61016e610884565b61016e6101b8366004611e8d565b610897565b6101946101cb366004611eb8565b610a5a565b61019460105481565b5f546001600160a01b0316610149565b60045460055460065460075460085461020c946001600160a01b03169392919085565b604080516001600160a01b0390961686526020860194909452928401919091526060830152608082015260a00161015d565b600354610149906001600160a01b031681565b61019461025f366004611eef565b610acd565b610194610b12565b61016e61027a366004611eef565b610b20565b61016e61028d366004611e8d565b610b8e565b600954600a54600b54600c54600d5461020c946001600160a01b03169392919085565b61016e6102c3366004611eef565b610db8565b6101497f000000000000000000000000000000000000000000000000000000000000000081565b61016e6102fd366004611eef565b610e5f565b61016e610310366004611e8d565b610e99565b6003546001600160a01b031633146103745760405162461bcd60e51b815260206004820152601e60248201527f496e746572657374506f6f6c3a206f6e6c792072617465206f7261636c65000060448201526064015b60405180910390fd5b61037e600461104e565b5f6103876110d6565b6008549091505f610397836114f1565b600881905560408051848152602081018390529192507f973c7d0d2ed53931e2bf2dbca70381aea00d0ab42d00e9dffce83537368c9890910160405180910390a1505050565b6103e56116f5565b66038d7ea4c680008110156104375760405162461bcd60e51b8152602060048201526018602482015277155b9cdd185ad948185b5bdd5b9d081d1bdbc81cdb585b1b60421b604482015260640161036b565b6b033b2e3c9fd0803ce800000081111561048e5760405162461bcd60e51b8152602060048201526018602482015277556e7374616b6520616d6f756e7420746f6f206c6172676560401b604482015260640161036b565b610498600961104e565b335f908152600f60205260408120906104b260098361171f565b90505f81835f01546104c49190611f1e565b9050838110156105105760405162461bcd60e51b8152602060048201526017602482015276556e7374616b6520657863656564732062616c616e636560481b604482015260640161036b565b5f5f61051d86858561173d565b909250905081156105665761053460093384611798565b6009546040518381526001600160a01b039091169033905f516020611fdb5f395f51905f529060200160405180910390a35b80156105f85780855f015f82825461057e9190611f31565b9091555050600a80548291905f90610597908490611f31565b90915550506009546105b3906001600160a01b0316338361199c565b6009546040518281526001600160a01b039091169033907fd1c19fbcd4551a5edfb66d43d2e337c04837afda3482b42bdf569a8fccdae5fb9060200160405180910390a35b8454600b5461060791906119fb565b6001958601555050509080555050565b50565b6003546001600160a01b031633146106745760405162461bcd60e51b815260206004820152601e60248201527f496e746572657374506f6f6c3a206f6e6c792072617465206f7261636c650000604482015260640161036b565b601154156106dc576201518060115461068d9190611f1e565b4210156106dc5760405162461bcd60e51b815260206004820152601e60248201527f425442207261746520616c7265616479207570646174656420746f6461790000604482015260640161036b565b6106e6600961104e565b5f6106ef611a26565b90505f6106fe60105483611b57565b600d54601054919250908190156107ae576064610724670de0b6b3a76400006063611f44565b61072e9190611f6f565b8410801561073b57505f83125b1561075e575f61074a84611f8e565b90506107568183611f1e565b9150506107ae565b6064610773670de0b6b3a76400006065611f44565b61077d9190611f6f565b8411801561078a57505f83135b156107ae578281811061079f575f91506107ac565b6107a98183611f31565b91505b505b60025460408051635b1dd53360e01b815290515f926001600160a01b031691635b1dd5339160048083019260209291908290030181865afa1580156107f5573d5f5f3e3d5ffd5b505050506040513d601f19601f820116820180604052508101906108199190611fa8565b905080821115610827578091505b600d8290556010859055426011556040805184815260208101849052908101869052606081018590527fbbfe72c2052fa04992a0a35b724247054c2f1834da975dd9660e72d44932190d9060800160405180910390a15050505050565b61088c611b62565b6108955f611b8e565b565b61089f6116f5565b66038d7ea4c680008110156108ef5760405162461bcd60e51b815260206004820152601660248201527514dd185ad948185b5bdd5b9d081d1bdbc81cdb585b1b60521b604482015260640161036b565b6b033b2e3c9fd0803ce80000008111156109445760405162461bcd60e51b81526020600482015260166024820152755374616b6520616d6f756e7420746f6f206c6172676560501b604482015260640161036b565b61094e600461104e565b335f908152600e602052604081209061096860048361171f565b905080156109ae5761097c60043383611798565b6004546040518281526001600160a01b039091169033905f516020611fdb5f395f51905f529060200160405180910390a35b6004546109c6906001600160a01b0316333086611bdd565b82825f015f8282546109d89190611f1e565b9091555050600580548491905f906109f1908490611f1e565b90915550508154600654610a0591906119fb565b60018301556004546040518481526001600160a01b039091169033907f5dac0c1b1112564a045ba943c9d50270893e8e826c49be8e7073adc713ab7bd7906020015b60405180910390a3505061061760018055565b6004545f906001600160a01b0390811690841603610a9057506001600160a01b0381165f908152600e6020526040902054610ac7565b6009546001600160a01b0390811690841603610ac457506001600160a01b0381165f908152600f6020526040902054610ac7565b505f5b92915050565b6004545f906001600160a01b0390811690831603610aed57505060055490565b6009546001600160a01b0390811690831603610b0b575050600a5490565b505f919050565b5f610b1b611a26565b905090565b610b28611b62565b6001600160a01b038116610b6c5760405162461bcd60e51b815260206004820152600b60248201526a24b73b30b634b21033b7bb60a91b604482015260640161036b565b600280546001600160a01b0319166001600160a01b0392909216919091179055565b610b966116f5565b66038d7ea4c68000811015610be85760405162461bcd60e51b8152602060048201526018602482015277155b9cdd185ad948185b5bdd5b9d081d1bdbc81cdb585b1b60421b604482015260640161036b565b6b033b2e3c9fd0803ce8000000811115610c3f5760405162461bcd60e51b8152602060048201526018602482015277556e7374616b6520616d6f756e7420746f6f206c6172676560401b604482015260640161036b565b610c49600461104e565b335f908152600e6020526040812090610c6360048361171f565b90505f81835f0154610c759190611f1e565b905083811015610cc15760405162461bcd60e51b8152602060048201526017602482015276556e7374616b6520657863656564732062616c616e636560481b604482015260640161036b565b5f5f610cce86858561173d565b90925090508115610d1757610ce560043384611798565b6004546040518381526001600160a01b039091169033905f516020611fdb5f395f51905f529060200160405180910390a35b8015610da95780855f015f828254610d2f9190611f31565b9091555050600580548291905f90610d48908490611f31565b9091555050600454610d64906001600160a01b0316338361199c565b6004546040518281526001600160a01b039091169033907fd1c19fbcd4551a5edfb66d43d2e337c04837afda3482b42bdf569a8fccdae5fb9060200160405180910390a35b845460065461060791906119fb565b610dc0611b62565b6001600160a01b038116610e165760405162461bcd60e51b815260206004820152601960248201527f496e746572657374506f6f6c3a207a65726f206f7261636c6500000000000000604482015260640161036b565b600380546001600160a01b0319166001600160a01b0383169081179091556040517f2fdc9a614911eb083a1bf7a4fcc09658aa41d3bb8ffca5846a50dcc21827c964905f90a250565b610e67611b62565b6001600160a01b038116610e9057604051631e4fbdf760e01b81525f600482015260240161036b565b61061781611b8e565b610ea16116f5565b66038d7ea4c68000811015610ef15760405162461bcd60e51b815260206004820152601660248201527514dd185ad948185b5bdd5b9d081d1bdbc81cdb585b1b60521b604482015260640161036b565b6b033b2e3c9fd0803ce8000000811115610f465760405162461bcd60e51b81526020600482015260166024820152755374616b6520616d6f756e7420746f6f206c6172676560501b604482015260640161036b565b610f50600961104e565b335f908152600f6020526040812090610f6a60098361171f565b600954909150610f85906001600160a01b0316333086611bdd565b82825f015f828254610f979190611f1e565b9091555050600a80548491905f90610fb0908490611f1e565b90915550508154600b54610fc491906119fb565b6001830155801561100d57610fdb60093383611798565b6009546040518281526001600160a01b039091169033905f516020611fdb5f395f51905f529060200160405180910390a35b6009546040518481526001600160a01b039091169033907f5dac0c1b1112564a045ba943c9d50270893e8e826c49be8e7073adc713ab7bd790602001610a47565b4281600301540361105c5750565b6001810154158061106f57506004810154155b1561107d5742600390910155565b5f81600301544261108e9190611f31565b9050805f0361109b575050565b5f6110aa836004015483611c1c565b905080156110cb5780836002015f8282546110c59190611f1e565b90915550505b505042600390910155565b5f5f7f00000000000000000000000000000000000000000000000000000000000000006001600160a01b0316630a19399a6040518163ffffffff1660e01b8152600401602060405180830381865afa158015611134573d5f5f3e3d5ffd5b505050506040513d601f19601f820116820180604052508101906111589190611fbf565b90505f816001600160a01b031663fa7d826a6040518163ffffffff1660e01b8152600401602060405180830381865afa158015611197573d5f5f3e3d5ffd5b505050506040513d601f19601f820116820180604052508101906111bb9190611fa8565b90505f826001600160a01b031663ae8ba6796040518163ffffffff1660e01b8152600401602060405180830381865afa1580156111fa573d5f5f3e3d5ffd5b505050506040513d601f19601f8201168201806040525081019061121e9190611fa8565b90505f7f00000000000000000000000000000000000000000000000000000000000000006001600160a01b0316634dede3de6040518163ffffffff1660e01b8152600401602060405180830381865afa15801561127d573d5f5f3e3d5ffd5b505050506040513d601f19601f820116820180604052508101906112a19190611fbf565b6001600160a01b03166370a082317f00000000000000000000000000000000000000000000000000000000000000006001600160a01b0316632d2c55656040518163ffffffff1660e01b8152600401602060405180830381865afa15801561130b573d5f5f3e3d5ffd5b505050506040513d601f19601f8201168201806040525081019061132f9190611fbf565b6040516001600160e01b031960e084901b1681526001600160a01b039091166004820152602401602060405180830381865afa158015611371573d5f5f3e3d5ffd5b505050506040513d601f19601f820116820180604052508101906113959190611fa8565b90505f7f00000000000000000000000000000000000000000000000000000000000000006001600160a01b031663457404776040518163ffffffff1660e01b8152600401602060405180830381865afa1580156113f4573d5f5f3e3d5ffd5b505050506040513d601f19601f820116820180604052508101906114189190611fbf565b6001600160a01b03166318160ddd6040518163ffffffff1660e01b8152600401602060405180830381865afa158015611453573d5f5f3e3d5ffd5b505050506040513d601f19601f820116820180604052508101906114779190611fa8565b9050805f0361149357670de0b6b3a76400009550505050505090565b5f61149e8483611f44565b9050805f036114bb57670de0b6b3a7640000965050505050505090565b806114c68685611f44565b6114dc906b204fce5e3e25026110000000611f44565b6114e69190611f6f565b965050505050505090565b5f6064611507670de0b6b3a7640000601e611f44565b6115119190611f6f565b821161152057506107d0919050565b6064611535670de0b6b3a7640000605a611f44565b61153f9190611f6f565b8210156115f9575f606461155c670de0b6b3a7640000601e611f44565b6115669190611f6f565b606461157b670de0b6b3a7640000605a611f44565b6115859190611f6f565b61158f9190611f31565b90505f6115a06101906107d0611f31565b90505f828260646115ba670de0b6b3a7640000601e611f44565b6115c49190611f6f565b6115ce9088611f31565b6115d89190611f44565b6115e29190611f6f565b90506115f0816107d0611f31565b95945050505050565b606461160e670de0b6b3a76400006078611f44565b6116189190611f6f565b82116116275750610190919050565b606461163c670de0b6b3a764000060c8611f44565b6116469190611f6f565b821015610b0b575f6064611663670de0b6b3a76400006078611f44565b61166d9190611f6f565b6064611682670de0b6b3a764000060c8611f44565b61168c9190611f6f565b6116969190611f31565b90505f6116a581610190611f31565b90505f828260646116bf670de0b6b3a76400006078611f44565b6116c99190611f6f565b6116d39088611f31565b6116dd9190611f44565b6116e79190611f6f565b90506115f081610190611f31565b60026001540361171857604051633ee5aeb560e01b815260040160405180910390fd5b6002600155565b5f611736825f015484600201548460010154611c78565b9392505050565b5f5f845f0361175057505f905080611790565b82158061175b575083155b1561176a57505f905083611790565b611775858585611cbd565b915084821115611783578491505b61178d8286611f31565b90505b935093915050565b82546040516340c10f1960e01b81526001600160a01b03848116600483015260248201849052909116906340c10f19906044015f604051808303815f87803b1580156117e2575f5ffd5b505af11580156117f4573d5f5f3e3d5ffd5b505060045485546001600160a01b0391821691160391506119979050575f7f00000000000000000000000000000000000000000000000000000000000000006001600160a01b0316632d2c55656040518163ffffffff1660e01b8152600401602060405180830381865afa15801561186e573d5f5f3e3d5ffd5b505050506040513d601f19601f820116820180604052508101906118929190611fbf565b90506001600160a01b0381166118dd5760405162461bcd60e51b815260206004820152601060248201526f151c99585cdd5c9e481b9bdd081cd95d60821b604482015260640161036b565b5f6118ea836103e8611d6d565b905080156119945784546040516340c10f1960e01b81526001600160a01b03848116600483015260248201849052909116906340c10f19906044015f604051808303815f87803b15801561193c575f5ffd5b505af115801561194e573d5f5f3e3d5ffd5b505086546040518481526001600160a01b0390911692507f851bbbb7772d1b73589565502484a41b75a658c4b5cd68238eb206cdc4da161d915060200160405180910390a25b50505b505050565b6040516001600160a01b0383811660248301526044820183905261199791859182169063a9059cbb906064015b604051602081830303815290604052915060e01b6020820180516001600160e01b038381831617835250505050611d92565b5f821580611a07575081155b15611a1357505f610ac7565b6117368383670de0b6b3a7640000611cbd565b5f5f7f00000000000000000000000000000000000000000000000000000000000000006001600160a01b0316630a19399a6040518163ffffffff1660e01b8152600401602060405180830381865afa158015611a84573d5f5f3e3d5ffd5b505050506040513d601f19601f82011682018060405250810190611aa89190611fbf565b90506001600160a01b038116611af65760405162461bcd60e51b8152602060048201526013602482015272141c9a58d953dc9858db19481b9bdd081cd95d606a1b604482015260640161036b565b5f816001600160a01b031663a0e8d3566040518163ffffffff1660e01b8152600401602060405180830381865afa158015611b33573d5f5f3e3d5ffd5b505050506040513d601f19601f820116820180604052508101906117369190611fa8565b5f6117368383611dfe565b5f546001600160a01b031633146108955760405163118cdaa760e01b815233600482015260240161036b565b5f80546001600160a01b038381166001600160a01b0319831681178455604051919092169283917f8be0079c531659141344cd1fd0a4f28419497f9722a3daafe3b4186f6b6457e09190a35050565b6040516001600160a01b038481166024830152838116604483015260648201839052611c169186918216906323b872dd906084016119c9565b50505050565b5f821580611c28575081155b15611c3457505f610ac7565b5f611c4984670de0b6b3a76400006001611cbd565b9050611c5781846001611cbd565b90505f611c6a6301e13380612710611f44565b90506115f082600183611cbd565b5f831580611c84575082155b15611c9057505f611736565b5f611ca48585670de0b6b3a7640000611cbd565b9050828111611cb3575f6115f0565b6115f08382611f31565b5f5f5f611cca8686611e60565b91509150815f03611cee57838181611ce457611ce4611f5b565b0492505050611736565b818411611d0557611d056003851502601118611e7c565b5f848688095f868103871696879004966002600389028118808a02820302808a02820302808a02820302808a02820302808a02820302808a02909103029181900381900460010185841190960395909502919093039390930492909217029150509392505050565b5f821580611d79575081155b15611d8557505f610ac7565b6117368383612710611cbd565b5f5f60205f8451602086015f885af180611db1576040513d5f823e3d81fd5b50505f513d91508115611dc8578060011415611dd5565b6001600160a01b0384163b155b15611c1657604051635274afe760e01b81526001600160a01b038516600482015260240161036b565b5f821580611e0b57508282145b15611e1757505f610ac7565b82821115611e3f575f611e36611e2d8585611f31565b61271086611cbd565b9150610ac79050565b5f611e4d611e2d8486611f31565b9050611e5881611f8e565b949350505050565b5f805f1983850993909202808410938190039390930393915050565b634e487b715f52806020526024601cfd5b5f60208284031215611e9d575f5ffd5b5035919050565b6001600160a01b0381168114610617575f5ffd5b5f5f60408385031215611ec9575f5ffd5b8235611ed481611ea4565b91506020830135611ee481611ea4565b809150509250929050565b5f60208284031215611eff575f5ffd5b813561173681611ea4565b634e487b7160e01b5f52601160045260245ffd5b80820180821115610ac757610ac7611f0a565b81810381811115610ac757610ac7611f0a565b8082028115828204841417610ac757610ac7611f0a565b634e487b7160e01b5f52601260045260245ffd5b5f82611f8957634e487b7160e01b5f52601260045260245ffd5b500490565b5f600160ff1b8201611fa257611fa2611f0a565b505f0390565b5f60208284031215611fb8575f5ffd5b5051919050565b5f60208284031215611fcf575f5ffd5b815161173681611ea456fec7edf5cfe443c04a10a60ff6084c847114348c55b257a01d62700326219adbbaa2646970667358221220daf3dcf8066049cc8df7a36f51a9312c538b8886fd69c77d996c1dfcce0926fa64736f6c634300081e0033",
  "linkReferences": {},
  "deployedLinkReferences": {},
  "immutableReferences": {
    "5661": [
      {
        "length": 32,
        "start": 717
      },
      {
        "length": 32,
        "start": 4314
      },
      {
        "length": 32,
        "start": 4643
      },
      {
        "length": 32,
        "start": 4785
      },
      {
        "length": 32,
        "start": 5018
      },
      {
        "length": 32,
        "start": 6164
      },
      {
        "length": 32,
        "start": 6698
      }
    ]
  },
  "inputSourceName": "project/contracts/InterestPool.sol",
  "buildInfoId": "solc-0_8_30-fe7ab9220f60c09330a4703f57b76b8fc3ccb66f"
}