{
  "_format": "hh3-artifact-1",
  "contractName": "ConfigGov",
  "sourceName": "contracts/ConfigGov.sol",
  "abi": [
    {
      "inputs": [
        {
          "internalType": "address",
          "name": "initialOwner",
          "type": "address"
        }
      ],
      "stateMutability": "nonpayable",
      "type": "constructor"
    },
    {
      "inputs": [
        {
          "internalType": "address",
          "name": "owner",
          "type": "address"
        }
      ],
      "name": "OwnableInvalidOwner",
      "type": "error"
    },
    {
      "inputs": [
        {
          "internalType": "address",
          "name": "account",
          "type": "address"
        }
      ],
      "name": "OwnableUnauthorizedAccount",
      "type": "error"
    },
    {
      "anonymous": false,
      "inputs": [
        {
          "indexed": true,
          "internalType": "enum ConfigGov.AddressParamType",
          "name": "paramType",
          "type": "uint8"
        },
        {
          "indexed": false,
          "internalType": "address",
          "name": "newValue",
          "type": "address"
        }
      ],
      "name": "AddressParamUpdated",
      "type": "event"
    },
    {
      "anonymous": false,
      "inputs": [
        {
          "indexed": true,
          "internalType": "address",
          "name": "previousOwner",
          "type": "address"
        },
        {
          "indexed": true,
          "internalType": "address",
          "name": "newOwner",
          "type": "address"
        }
      ],
      "name": "OwnershipTransferred",
      "type": "event"
    },
    {
      "anonymous": false,
      "inputs": [
        {
          "indexed": true,
          "internalType": "enum ConfigGov.ParamType",
          "name": "paramType",
          "type": "uint8"
        },
        {
          "indexed": false,
          "internalType": "uint256",
          "name": "newValue",
          "type": "uint256"
        }
      ],
      "name": "ParamUpdated",
      "type": "event"
    },
    {
      "inputs": [
        {
          "internalType": "enum ConfigGov.AddressParamType",
          "name": "paramType",
          "type": "uint8"
        }
      ],
      "name": "getAddressParam",
      "outputs": [
        {
          "internalType": "address",
          "name": "",
          "type": "address"
        }
      ],
      "stateMutability": "view",
      "type": "function"
    },
    {
      "inputs": [
        {
          "internalType": "enum ConfigGov.ParamType",
          "name": "paramType",
          "type": "uint8"
        }
      ],
      "name": "getParam",
      "outputs": [
        {
          "internalType": "uint256",
          "name": "",
          "type": "uint256"
        }
      ],
      "stateMutability": "view",
      "type": "function"
    },
    {
      "inputs": [],
      "name": "interestFeeBP",
      "outputs": [
        {
          "internalType": "uint256",
          "name": "",
          "type": "uint256"
        }
      ],
      "stateMutability": "view",
      "type": "function"
    },
    {
      "inputs": [],
      "name": "maxBTBRate",
      "outputs": [
        {
          "internalType": "uint256",
          "name": "",
          "type": "uint256"
        }
      ],
      "stateMutability": "view",
      "type": "function"
    },
    {
      "inputs": [],
      "name": "maxBTDRate",
      "outputs": [
        {
          "internalType": "uint256",
          "name": "",
          "type": "uint256"
        }
      ],
      "stateMutability": "view",
      "type": "function"
    },
    {
      "inputs": [],
      "name": "minBTBPrice",
      "outputs": [
        {
          "internalType": "uint256",
          "name": "",
          "type": "uint256"
        }
      ],
      "stateMutability": "view",
      "type": "function"
    },
    {
      "inputs": [],
      "name": "mintFeeBP",
      "outputs": [
        {
          "internalType": "uint256",
          "name": "",
          "type": "uint256"
        }
      ],
      "stateMutability": "view",
      "type": "function"
    },
    {
      "inputs": [],
      "name": "owner",
      "outputs": [
        {
          "internalType": "address",
          "name": "",
          "type": "address"
        }
      ],
      "stateMutability": "view",
      "type": "function"
    },
    {
      "inputs": [],
      "name": "pceFeed",
      "outputs": [
        {
          "internalType": "address",
          "name": "",
          "type": "address"
        }
      ],
      "stateMutability": "view",
      "type": "function"
    },
    {
      "inputs": [],
      "name": "pceMaxDeviation",
      "outputs": [
        {
          "internalType": "uint256",
          "name": "",
          "type": "uint256"
        }
      ],
      "stateMutability": "view",
      "type": "function"
    },
    {
      "inputs": [],
      "name": "redeemFeeBP",
      "outputs": [
        {
          "internalType": "uint256",
          "name": "",
          "type": "uint256"
        }
      ],
      "stateMutability": "view",
      "type": "function"
    },
    {
      "inputs": [],
      "name": "renounceOwnership",
      "outputs": [],
      "stateMutability": "nonpayable",
      "type": "function"
    },
    {
      "inputs": [
        {
          "internalType": "enum ConfigGov.AddressParamType",
          "name": "paramType",
          "type": "uint8"
        },
        {
          "internalType": "address",
          "name": "value",
          "type": "address"
        }
      ],
      "name": "setAddressParam",
      "outputs": [],
      "stateMutability": "nonpayable",
      "type": "function"
    },
    {
      "inputs": [
        {
          "internalType": "enum ConfigGov.AddressParamType[]",
          "name": "paramTypes",
          "type": "uint8[]"
        },
        {
          "internalType": "address[]",
          "name": "values",
          "type": "address[]"
        }
      ],
      "name": "setAddressParamsBatch",
      "outputs": [],
      "stateMutability": "nonpayable",
      "type": "function"
    },
    {
      "inputs": [
        {
          "internalType": "enum ConfigGov.ParamType",
          "name": "paramType",
          "type": "uint8"
        },
        {
          "internalType": "uint256",
          "name": "value",
          "type": "uint256"
        }
      ],
      "name": "setParam",
      "outputs": [],
      "stateMutability": "nonpayable",
      "type": "function"
    },
    {
      "inputs": [
        {
          "internalType": "enum ConfigGov.ParamType[]",
          "name": "paramTypes",
          "type": "uint8[]"
        },
        {
          "internalType": "uint256[]",
          "name": "values",
          "type": "uint256[]"
        }
      ],
      "name": "setParamsBatch",
      "outputs": [],
      "stateMutability": "nonpayable",
      "type": "function"
    },
    {
      "inputs": [
        {
          "internalType": "address",
          "name": "newOwner",
          "type": "address"
        }
      ],
      "name": "transferOwnership",
      "outputs": [],
      "stateMutability": "nonpayable",
      "type": "function"
    }
  ],
  "bytecode": "0x608060405234801561000f575f5ffd5b506040516111dc3803806111dc83398101604081905261002e91610112565b806001600160a01b03811661005d57604051631e4fbdf760e01b81525f60048201526024015b60405180910390fd5b610066816100c3565b506001600160a01b0381166100bd5760405162461bcd60e51b815260206004820152601560248201527f436f6e666967476f763a207a65726f206f776e657200000000000000000000006044820152606401610054565b5061013f565b5f80546001600160a01b038381166001600160a01b0319831681178455604051919092169283917f8be0079c531659141344cd1fd0a4f28419497f9722a3daafe3b4186f6b6457e09190a35050565b5f60208284031215610122575f5ffd5b81516001600160a01b0381168114610138575f5ffd5b9392505050565b6110908061014c5f395ff3fe608060405234801561000f575f5ffd5b5060043610610106575f3560e01c80638da5cb5b1161009e578063b79103851161006e578063b791038514610206578063c1cca2b31461020e578063d8a1b89e14610221578063f2fde38b14610229578063faa24f071461023c575f5ffd5b80638da5cb5b146101a3578063a822bc39146101b3578063a9a2a715146101eb578063b646b3ed146101fe575f5ffd5b806355c9fa7e116100d957806355c9fa7e146101785780635b1dd5331461018b5780636484295814610193578063715018a61461019b575f5ffd5b806303a2216d1461010a5780632313d26d146101305780632b1cb4de1461015b57806340bb8a0114610170575b5f5ffd5b61011d610118366004610eaf565b610244565b6040519081526020015b60405180910390f35b61014361013e366004610edd565b610280565b6040516001600160a01b039091168152602001610127565b61016e610169366004610f3e565b6102c0565b005b61011d61047b565b61016e610186366004610fc0565b6104a6565b61011d61059c565b61011d6105a7565b61016e6105b2565b5f546001600160a01b0316610143565b5f805260026020527fac33ff75c19e70fe83507db0d683fd3465c996598dc972688b7ace676c89077b546001600160a01b0316610143565b61016e6101f9366004610f3e565b6105c5565b61011d6107db565b61011d6107e6565b61016e61021c366004610ff1565b6107f0565b61011d61087b565b61016e610237366004611019565b610886565b61011d6108c3565b5f60015f83600681111561025a5761025a611032565b600681111561026b5761026b611032565b81526020019081526020015f20549050919050565b5f60028183801561029357610293611032565b80156102a1576102a1611032565b815260208101919091526040015f20546001600160a01b031692915050565b6102c86108cd565b82811461031c5760405162461bcd60e51b815260206004820152601a60248201527f436f6e666967476f763a206c656e677468206d69736d6174636800000000000060448201526064015b60405180910390fd5b5f5b838110156104745761036e85858381811061033b5761033b611046565b90506020020160208101906103509190610eaf565b84848481811061036257610362611046565b905060200201356108f9565b82828281811061038057610380611046565b9050602002013560015f87878581811061039c5761039c611046565b90506020020160208101906103b19190610eaf565b60068111156103c2576103c2611032565b60068111156103d3576103d3611032565b815260208101919091526040015f20558484828181106103f5576103f5611046565b905060200201602081019061040a9190610eaf565b600681111561041b5761041b611032565b7ff0500fa4f8da99d70bd1ca878887729d3a62a8623b27b910ec6bb799dd89591884848481811061044e5761044e611046565b9050602002013560405161046491815260200190565b60405180910390a260010161031e565b5050505050565b5f60018160055b600681111561049357610493611032565b81526020019081526020015f2054905090565b6104ae6108cd565b6001600160a01b0381166104fe5760405162461bcd60e51b8152602060048201526017602482015276436f6e666967476f763a207a65726f206164647265737360481b6044820152606401610313565b8060025f84801561051157610511611032565b801561051f5761051f611032565b815260208101919091526040015f2080546001600160a01b0319166001600160a01b039290921691909117905581801561055b5761055b611032565b6040516001600160a01b03831681527f8731777fb974867ae7f066a92ece1999df6293d483d6afed8efce7ba371acf0e906020015b60405180910390a25050565b5f6001816003610482565b5f6001816006610482565b6105ba6108cd565b6105c35f610e4d565b565b6105cd6108cd565b82811461061c5760405162461bcd60e51b815260206004820152601a60248201527f436f6e666967476f763a206c656e677468206d69736d617463680000000000006044820152606401610313565b5f5b83811015610474575f83838381811061063957610639611046565b905060200201602081019061064e9190611019565b6001600160a01b03160361069e5760405162461bcd60e51b8152602060048201526017602482015276436f6e666967476f763a207a65726f206164647265737360481b6044820152606401610313565b8282828181106106b0576106b0611046565b90506020020160208101906106c59190611019565b60025f8787858181106106da576106da611046565b90506020020160208101906106ef9190610edd565b80156106fd576106fd611032565b801561070b5761070b611032565b81526020019081526020015f205f6101000a8154816001600160a01b0302191690836001600160a01b0316021790555084848281811061074d5761074d611046565b90506020020160208101906107629190610edd565b801561077057610770611032565b7f8731777fb974867ae7f066a92ece1999df6293d483d6afed8efce7ba371acf0e8484848181106107a3576107a3611046565b90506020020160208101906107b89190611019565b6040516001600160a01b03909116815260200160405180910390a260010161061e565b5f6001816002610482565b5f60018181610482565b6107f86108cd565b61080282826108f9565b8060015f84600681111561081857610818611032565b600681111561082957610829611032565b815260208101919091526040015f205581600681111561084b5761084b611032565b6040518281527ff0500fa4f8da99d70bd1ca878887729d3a62a8623b27b910ec6bb799dd89591890602001610590565b5f6001816004610482565b61088e6108cd565b6001600160a01b0381166108b757604051631e4fbdf760e01b81525f6004820152602401610313565b6108c081610e4d565b50565b5f60018180610482565b5f546001600160a01b031633146105c35760405163118cdaa760e01b8152336004820152602401610313565b5f82600681111561090c5761090c611032565b036109b85760018110156109625760405162461bcd60e51b815260206004820152601b60248201527f436f6e666967476f763a206d696e742066656520746f6f206c6f7700000000006044820152606401610313565b6103e88111156109b45760405162461bcd60e51b815260206004820152601c60248201527f436f6e666967476f763a206d696e742066656520746f6f2068696768000000006044820152606401610313565b5050565b60018260068111156109cc576109cc611032565b03610a74576001811015610a225760405162461bcd60e51b815260206004820152601f60248201527f436f6e666967476f763a20696e7465726573742066656520746f6f206c6f77006044820152606401610313565b6103e88111156109b45760405162461bcd60e51b815260206004820181905260248201527f436f6e666967476f763a20696e7465726573742066656520746f6f20686967686044820152606401610313565b6005826006811115610a8857610a88611032565b03610b30576001811015610ade5760405162461bcd60e51b815260206004820152601d60248201527f436f6e666967476f763a2072656465656d2066656520746f6f206c6f770000006044820152606401610313565b6103e88111156109b45760405162461bcd60e51b815260206004820152601e60248201527f436f6e666967476f763a2072656465656d2066656520746f6f206869676800006044820152606401610313565b6002826006811115610b4457610b44611032565b03610c035767016345785d8a0000811015610ba15760405162461bcd60e51b815260206004820181905260248201527f436f6e666967476f763a206d696e2042544220707269636520746f6f206c6f776044820152606401610313565b670de0b6b3a76400008111156109b45760405162461bcd60e51b815260206004820152602160248201527f436f6e666967476f763a206d696e2042544220707269636520746f6f206869676044820152600d60fb1b6064820152608401610313565b6003826006811115610c1757610c17611032565b03610cbf576064811015610c6d5760405162461bcd60e51b815260206004820152601f60248201527f436f6e666967476f763a206d617820425442207261746520746f6f206c6f77006044820152606401610313565b610bb88111156109b45760405162461bcd60e51b815260206004820181905260248201527f436f6e666967476f763a206d617820425442207261746520746f6f20686967686044820152606401610313565b6006826006811115610cd357610cd3611032565b03610d7b576064811015610d295760405162461bcd60e51b815260206004820152601f60248201527f436f6e666967476f763a206d617820425444207261746520746f6f206c6f77006044820152606401610313565b610bb88111156109b45760405162461bcd60e51b815260206004820181905260248201527f436f6e666967476f763a206d617820425444207261746520746f6f20686967686044820152606401610313565b6004826006811115610d8f57610d8f611032565b036109b45766038d7ea4c68000811015610deb5760405162461bcd60e51b815260206004820181905260248201527f436f6e666967476f763a2050434520646576696174696f6e20746f6f206c6f776044820152606401610313565b67016345785d8a00008111156109b45760405162461bcd60e51b815260206004820152602160248201527f436f6e666967476f763a2050434520646576696174696f6e20746f6f206869676044820152600d60fb1b6064820152608401610313565b5f80546001600160a01b038381166001600160a01b0319831681178455604051919092169283917f8be0079c531659141344cd1fd0a4f28419497f9722a3daafe3b4186f6b6457e09190a35050565b803560078110610eaa575f5ffd5b919050565b5f60208284031215610ebf575f5ffd5b610ec882610e9c565b9392505050565b803560018110610eaa575f5ffd5b5f60208284031215610eed575f5ffd5b610ec882610ecf565b5f5f83601f840112610f06575f5ffd5b50813567ffffffffffffffff811115610f1d575f5ffd5b6020830191508360208260051b8501011115610f37575f5ffd5b9250929050565b5f5f5f5f60408587031215610f51575f5ffd5b843567ffffffffffffffff811115610f67575f5ffd5b610f7387828801610ef6565b909550935050602085013567ffffffffffffffff811115610f92575f5ffd5b610f9e87828801610ef6565b95989497509550505050565b80356001600160a01b0381168114610eaa575f5ffd5b5f5f60408385031215610fd1575f5ffd5b610fda83610ecf565b9150610fe860208401610faa565b90509250929050565b5f5f60408385031215611002575f5ffd5b61100b83610e9c565b946020939093013593505050565b5f60208284031215611029575f5ffd5b610ec882610faa565b634e487b7160e01b5f52602160045260245ffd5b634e487b7160e01b5f52603260045260245ffdfea2646970667358221220d681a621dfda90c4762274423b93e14b037624afd333372f138c6c37fbb6751864736f6c634300081e0033",
  "linkReferences": {},
  "deployedLinkReferences": {},
  "immutableReferences": {},
  "inputSourceName": "project/contracts/ConfigGov.sol",
  "buildInfoId": "solc-0_8_30-f17406318522fc61a0afadbcca0a1b5252650fcf"
}