{
  "_format": "hh3-artifact-1",
  "contractName": "MockPyth",
  "sourceName": "contracts/local/MockPyth.sol",
  "abi": [
    {
      "inputs": [
        {
          "internalType": "bytes32",
          "name": "id",
          "type": "bytes32"
        }
      ],
      "name": "getPriceUnsafe",
      "outputs": [
        {
          "components": [
            {
              "internalType": "int64",
              "name": "price",
              "type": "int64"
            },
            {
              "internalType": "uint64",
              "name": "conf",
              "type": "uint64"
            },
            {
              "internalType": "int32",
              "name": "expo",
              "type": "int32"
            },
            {
              "internalType": "uint256",
              "name": "publishTime",
              "type": "uint256"
            }
          ],
          "internalType": "struct MockPyth.Price",
          "name": "",
          "type": "tuple"
        }
      ],
      "stateMutability": "view",
      "type": "function"
    },
    {
      "inputs": [
        {
          "internalType": "bytes32",
          "name": "id",
          "type": "bytes32"
        },
        {
          "internalType": "int64",
          "name": "price",
          "type": "int64"
        },
        {
          "internalType": "int32",
          "name": "expo",
          "type": "int32"
        }
      ],
      "name": "setPrice",
      "outputs": [],
      "stateMutability": "nonpayable",
      "type": "function"
    }
  ],
  "bytecode": "0x6080604052348015600e575f5ffd5b506102998061001c5f395ff3fe608060405234801561000f575f5ffd5b5060043610610034575f3560e01c806330c41c9d1461003857806396834ad3146100df575b5f5ffd5b6100dd610046366004610201565b6040805160808101825260079390930b83525f602080850182815260039490940b858401908152426060870190815296835290829052919020925183549251915163ffffffff16600160801b0263ffffffff60801b1967ffffffffffffffff938416600160401b026fffffffffffffffffffffffffffffffff19909516929093169190911792909217161781559051600190910155565b005b6100f26100ed36600461024c565b61013e565b6040516101359190815160070b815260208083015167ffffffffffffffff169082015260408083015160030b908201526060918201519181019190915260800190565b60405180910390f35b604080516080810182525f8082526020820181905291810182905260608101919091525f8281526020818152604080832081516080810183528154600781900b80835267ffffffffffffffff600160401b83041695830195909552600160801b900460030b9281019290925260010154606082015291036101f55760405162461bcd60e51b815260206004820152600d60248201526c141c9a58d9481b9bdd081cd95d609a1b604482015260640160405180910390fd5b42606082015292915050565b5f5f5f60608486031215610213575f5ffd5b833592506020840135600781900b811461022b575f5ffd5b91506040840135600381900b8114610241575f5ffd5b809150509250925092565b5f6020828403121561025c575f5ffd5b503591905056fea26469706673582212200ab1db15d4ce707cb93496cb069216fb9bb6a83851869dd301686005447cb01a64736f6c634300081e0033",
  "linkReferences": {},
  "deployedLinkReferences": {},
  "immutableReferences": {},
  "inputSourceName": "project/contracts/local/MockPyth.sol",
  "buildInfoId": "solc-0_8_30-202346cdd80d148093a8028f095d8141e1981701"
}