{
  "_format": "hh3-artifact-1",
  "contractName": "PriceOracle",
  "sourceName": "contracts/PriceOracle.sol",
  "abi": [
    {
      "inputs": [
        {
          "internalType": "address",
          "name": "initialOwner",
          "type": "address"
        },
        {
          "internalType": "address",
          "name": "_core",
          "type": "address"
        },
        {
          "internalType": "address",
          "name": "_twapOracle",
          "type": "address"
        },
        {
          "internalType": "bytes32",
          "name": "_pythWbtcPriceId",
          "type": "bytes32"
        },
        {
          "internalType": "bytes32",
          "name": "_redstoneWbtcDataFeedId",
          "type": "bytes32"
        },
        {
          "internalType": "uint8",
          "name": "_redstoneWbtcDecimals",
          "type": "uint8"
        }
      ],
      "stateMutability": "nonpayable",
      "type": "constructor"
    },
    {
      "inputs": [
        {
          "internalType": "address",
          "name": "owner",
          "type": "address"
        }
      ],
      "name": "OwnableInvalidOwner",
      "type": "error"
    },
    {
      "inputs": [
        {
          "internalType": "address",
          "name": "account",
          "type": "address"
        }
      ],
      "name": "OwnableUnauthorizedAccount",
      "type": "error"
    },
    {
      "anonymous": false,
      "inputs": [
        {
          "indexed": false,
          "internalType": "uint256",
          "name": "oldBps",
          "type": "uint256"
        },
        {
          "indexed": false,
          "internalType": "uint256",
          "name": "newBps",
          "type": "uint256"
        }
      ],
      "name": "MaxDeviationUpdated",
      "type": "event"
    },
    {
      "anonymous": false,
      "inputs": [
        {
          "indexed": true,
          "internalType": "address",
          "name": "previousOwner",
          "type": "address"
        },
        {
          "indexed": true,
          "internalType": "address",
          "name": "newOwner",
          "type": "address"
        }
      ],
      "name": "OwnershipTransferred",
      "type": "event"
    },
    {
      "anonymous": false,
      "inputs": [
        {
          "indexed": true,
          "internalType": "address",
          "name": "token",
          "type": "address"
        },
        {
          "indexed": false,
          "internalType": "uint256",
          "name": "price",
          "type": "uint256"
        },
        {
          "indexed": false,
          "internalType": "uint256",
          "name": "timestamp",
          "type": "uint256"
        }
      ],
      "name": "PriceQueried",
      "type": "event"
    },
    {
      "anonymous": false,
      "inputs": [
        {
          "indexed": false,
          "internalType": "bytes32",
          "name": "oldId",
          "type": "bytes32"
        },
        {
          "indexed": false,
          "internalType": "bytes32",
          "name": "newId",
          "type": "bytes32"
        }
      ],
      "name": "PythPriceIdUpdated",
      "type": "event"
    },
    {
      "anonymous": false,
      "inputs": [
        {
          "indexed": false,
          "internalType": "bytes32",
          "name": "oldId",
          "type": "bytes32"
        },
        {
          "indexed": false,
          "internalType": "uint8",
          "name": "oldDecimals",
          "type": "uint8"
        },
        {
          "indexed": false,
          "internalType": "bytes32",
          "name": "newId",
          "type": "bytes32"
        },
        {
          "indexed": false,
          "internalType": "uint8",
          "name": "newDecimals",
          "type": "uint8"
        }
      ],
      "name": "RedstoneConfigUpdated",
      "type": "event"
    },
    {
      "anonymous": false,
      "inputs": [
        {
          "indexed": false,
          "internalType": "bool",
          "name": "enabled",
          "type": "bool"
        }
      ],
      "name": "TWAPModeChanged",
      "type": "event"
    },
    {
      "anonymous": false,
      "inputs": [
        {
          "indexed": true,
          "internalType": "address",
          "name": "oldOracle",
          "type": "address"
        },
        {
          "indexed": true,
          "internalType": "address",
          "name": "newOracle",
          "type": "address"
        }
      ],
      "name": "TWAPOracleUpdated",
      "type": "event"
    },
    {
      "inputs": [],
      "name": "DEVIATION_UPDATE_COOLDOWN",
      "outputs": [
        {
          "internalType": "uint256",
          "name": "",
          "type": "uint256"
        }
      ],
      "stateMutability": "view",
      "type": "function"
    },
    {
      "inputs": [],
      "name": "GOV_COOLDOWN",
      "outputs": [
        {
          "internalType": "uint256",
          "name": "",
          "type": "uint256"
        }
      ],
      "stateMutability": "view",
      "type": "function"
    },
    {
      "inputs": [],
      "name": "MAX_DEVIATION_CEILING",
      "outputs": [
        {
          "internalType": "uint256",
          "name": "",
          "type": "uint256"
        }
      ],
      "stateMutability": "view",
      "type": "function"
    },
    {
      "inputs": [],
      "name": "MIN_DEVIATION_FLOOR",
      "outputs": [
        {
          "internalType": "uint256",
          "name": "",
          "type": "uint256"
        }
      ],
      "stateMutability": "view",
      "type": "function"
    },
    {
      "inputs": [],
      "name": "PYTH_MAX_CONF_RATIO",
      "outputs": [
        {
          "internalType": "uint64",
          "name": "",
          "type": "uint64"
        }
      ],
      "stateMutability": "view",
      "type": "function"
    },
    {
      "inputs": [],
      "name": "PYTH_MAX_STALENESS",
      "outputs": [
        {
          "internalType": "uint256",
          "name": "",
          "type": "uint256"
        }
      ],
      "stateMutability": "view",
      "type": "function"
    },
    {
      "inputs": [],
      "name": "core",
      "outputs": [
        {
          "internalType": "contract ConfigCore",
          "name": "",
          "type": "address"
        }
      ],
      "stateMutability": "view",
      "type": "function"
    },
    {
      "inputs": [],
      "name": "getBRSPrice",
      "outputs": [
        {
          "internalType": "uint256",
          "name": "",
          "type": "uint256"
        }
      ],
      "stateMutability": "view",
      "type": "function"
    },
    {
      "inputs": [],
      "name": "getBTBPrice",
      "outputs": [
        {
          "internalType": "uint256",
          "name": "",
          "type": "uint256"
        }
      ],
      "stateMutability": "view",
      "type": "function"
    },
    {
      "inputs": [],
      "name": "getBTDPrice",
      "outputs": [
        {
          "internalType": "uint256",
          "name": "",
          "type": "uint256"
        }
      ],
      "stateMutability": "view",
      "type": "function"
    },
    {
      "inputs": [],
      "name": "getChainlinkBTCUSD",
      "outputs": [
        {
          "internalType": "uint256",
          "name": "",
          "type": "uint256"
        }
      ],
      "stateMutability": "view",
      "type": "function"
    },
    {
      "inputs": [],
      "name": "getIUSDPrice",
      "outputs": [
        {
          "internalType": "uint256",
          "name": "",
          "type": "uint256"
        }
      ],
      "stateMutability": "view",
      "type": "function"
    },
    {
      "inputs": [
        {
          "internalType": "address",
          "name": "token",
          "type": "address"
        }
      ],
      "name": "getPrice",
      "outputs": [
        {
          "internalType": "uint256",
          "name": "",
          "type": "uint256"
        }
      ],
      "stateMutability": "view",
      "type": "function"
    },
    {
      "inputs": [
        {
          "internalType": "address",
          "name": "pool",
          "type": "address"
        },
        {
          "internalType": "address",
          "name": "base",
          "type": "address"
        },
        {
          "internalType": "address",
          "name": "quote",
          "type": "address"
        }
      ],
      "name": "getPrice",
      "outputs": [
        {
          "internalType": "uint256",
          "name": "",
          "type": "uint256"
        }
      ],
      "stateMutability": "view",
      "type": "function"
    },
    {
      "inputs": [],
      "name": "getStBTBPrice",
      "outputs": [
        {
          "internalType": "uint256",
          "name": "",
          "type": "uint256"
        }
      ],
      "stateMutability": "view",
      "type": "function"
    },
    {
      "inputs": [],
      "name": "getStBTDPrice",
      "outputs": [
        {
          "internalType": "uint256",
          "name": "",
          "type": "uint256"
        }
      ],
      "stateMutability": "view",
      "type": "function"
    },
    {
      "inputs": [],
      "name": "getTWAPOracle",
      "outputs": [
        {
          "internalType": "address",
          "name": "",
          "type": "address"
        }
      ],
      "stateMutability": "view",
      "type": "function"
    },
    {
      "inputs": [],
      "name": "getWBTCPrice",
      "outputs": [
        {
          "internalType": "uint256",
          "name": "",
          "type": "uint256"
        }
      ],
      "stateMutability": "view",
      "type": "function"
    },
    {
      "inputs": [],
      "name": "getWETHPrice",
      "outputs": [
        {
          "internalType": "uint256",
          "name": "",
          "type": "uint256"
        }
      ],
      "stateMutability": "pure",
      "type": "function"
    },
    {
      "inputs": [],
      "name": "isTWAPEnabled",
      "outputs": [
        {
          "internalType": "bool",
          "name": "",
          "type": "bool"
        }
      ],
      "stateMutability": "view",
      "type": "function"
    },
    {
      "inputs": [],
      "name": "lastDeviationUpdate",
      "outputs": [
        {
          "internalType": "uint256",
          "name": "",
          "type": "uint256"
        }
      ],
      "stateMutability": "view",
      "type": "function"
    },
    {
      "inputs": [],
      "name": "maxDeviationBps",
      "outputs": [
        {
          "internalType": "uint256",
          "name": "",
          "type": "uint256"
        }
      ],
      "stateMutability": "view",
      "type": "function"
    },
    {
      "inputs": [],
      "name": "owner",
      "outputs": [
        {
          "internalType": "address",
          "name": "",
          "type": "address"
        }
      ],
      "stateMutability": "view",
      "type": "function"
    },
    {
      "inputs": [],
      "name": "pythWbtcPriceId",
      "outputs": [
        {
          "internalType": "bytes32",
          "name": "",
          "type": "bytes32"
        }
      ],
      "stateMutability": "view",
      "type": "function"
    },
    {
      "inputs": [],
      "name": "redstoneWbtcDataFeedId",
      "outputs": [
        {
          "internalType": "bytes32",
          "name": "",
          "type": "bytes32"
        }
      ],
      "stateMutability": "view",
      "type": "function"
    },
    {
      "inputs": [],
      "name": "redstoneWbtcDecimals",
      "outputs": [
        {
          "internalType": "uint8",
          "name": "",
          "type": "uint8"
        }
      ],
      "stateMutability": "view",
      "type": "function"
    },
    {
      "inputs": [],
      "name": "renounceOwnership",
      "outputs": [],
      "stateMutability": "nonpayable",
      "type": "function"
    },
    {
      "inputs": [
        {
          "internalType": "uint256",
          "name": "newBps",
          "type": "uint256"
        }
      ],
      "name": "setMaxDeviationBps",
      "outputs": [],
      "stateMutability": "nonpayable",
      "type": "function"
    },
    {
      "inputs": [
        {
          "internalType": "address",
          "name": "_twapOracle",
          "type": "address"
        }
      ],
      "name": "setTWAPOracle",
      "outputs": [],
      "stateMutability": "nonpayable",
      "type": "function"
    },
    {
      "inputs": [
        {
          "internalType": "bool",
          "name": "_useTWAP",
          "type": "bool"
        }
      ],
      "name": "setUseTWAP",
      "outputs": [],
      "stateMutability": "nonpayable",
      "type": "function"
    },
    {
      "inputs": [
        {
          "internalType": "address",
          "name": "newOwner",
          "type": "address"
        }
      ],
      "name": "transferOwnership",
      "outputs": [],
      "stateMutability": "nonpayable",
      "type": "function"
    },
    {
      "inputs": [],
      "name": "twapOracle",
      "outputs": [
        {
          "internalType": "contract IUniswapV2TWAPOracle",
          "name": "",
          "type": "address"
        }
      ],
      "stateMutability": "view",
      "type": "function"
    },
    {
      "inputs": [],
      "name": "updateTWAPAll",
      "outputs": [],
      "stateMutability": "nonpayable",
      "type": "function"
    },
    {
      "inputs": [],
      "name": "updateTWAPForBRS",
      "outputs": [],
      "stateMutability": "nonpayable",
      "type": "function"
    },
    {
      "inputs": [],
      "name": "updateTWAPForBTB",
      "outputs": [],
      "stateMutability": "nonpayable",
      "type": "function"
    },
    {
      "inputs": [],
      "name": "updateTWAPForBTD",
      "outputs": [],
      "stateMutability": "nonpayable",
      "type": "function"
    },
    {
      "inputs": [],
      "name": "updateTWAPForWBTC",
      "outputs": [],
      "stateMutability": "nonpayable",
      "type": "function"
    },
    {
      "inputs": [],
      "name": "useTWAP",
      "outputs": [
        {
          "internalType": "bool",
          "name": "",
          "type": "bool"
        }
      ],
      "stateMutability": "view",
      "type": "function"
    },
    {
      "inputs": [],
      "name": "useTWAPDefault",
      "outputs": [
        {
          "internalType": "bool",
          "name": "",
          "type": "bool"
        }
      ],
      "stateMutability": "view",
      "type": "function"
    }
  ],
  "bytecode": "0x6101206040526064600255348015610015575f5ffd5b50604051613de3380380613de3833981016040819052610034916102c5565b856001600160a01b03811661006357604051631e4fbdf760e01b81525f60048201526024015b60405180910390fd5b61006c8161025b565b506001600160a01b0386166100b35760405162461bcd60e51b815260206004820152600d60248201526c24b73b30b634b21037bbb732b960991b604482015260640161005a565b6001600160a01b0385166101095760405162461bcd60e51b815260206004820152601460248201527f496e76616c696420636f72652061646472657373000000000000000000000000604482015260640161005a565b826101565760405162461bcd60e51b815260206004820152601560248201527f496e76616c696420507974682070726963652069640000000000000000000000604482015260640161005a565b816101a35760405162461bcd60e51b815260206004820152601860248201527f496e76616c69642052656473746f6e6520666565642069640000000000000000604482015260640161005a565b5f8160ff16116101f55760405162461bcd60e51b815260206004820152601960248201527f496e76616c69642052656473746f6e6520646563696d616c7300000000000000604482015260640161005a565b6001600160a01b0380861660805260a084905260c083905260ff821660e0526001610100819052805460ff60a01b1916600160a01b17905584161561025057600180546001600160a01b0319166001600160a01b0386161790555b505050505050610332565b5f80546001600160a01b038381166001600160a01b0319831681178455604051919092169283917f8be0079c531659141344cd1fd0a4f28419497f9722a3daafe3b4186f6b6457e09190a35050565b80516001600160a01b03811681146102c0575f5ffd5b919050565b5f5f5f5f5f5f60c087890312156102da575f5ffd5b6102e3876102aa565b95506102f1602088016102aa565b94506102ff604088016102aa565b6060880151608089015160a08a0151929650909450925060ff81168114610324575f5ffd5b809150509295509295509295565b60805160a05160c05160e0516101005161394761049c5f395f6102a301525f818161033e01528181612d3d0152612e8401525f818161039c01528181612cd90152612dbb01525f81816102eb015281816129f30152612a6501525f8181610487015281816104e1015281816106da0152818161075a015281816107da0152818161092701528181610a3d01528181610ae301528181610b8301528181610c2301528181610cc301528181610d6a01528181610e0a01528181610eaa01528181610f510152818161129b0152818161131b015281816113c2015281816114cd0152818161152b015281816116a5015281816117750152818161181c0152818161192701528181611a3201528181611b3d01528181611be401528181611c7c01528181611e7701528181611ef701528181611f770152818161203b015281816120bb015281816128a20152818161292701528181612c0901528181612f61015261300101526139475ff3fe608060405234801561000f575f5ffd5b5060043610610234575f3560e01c80638c4039c511610135578063c1709bc2116100b4578063f2fde38b11610079578063f2fde38b146104a9578063f42d7301146104bc578063f8ff84d3146104c5578063fa7d826a146104cd578063ff8336ff146104d5575f5ffd5b8063c1709bc214610461578063c89f4b981461046a578063e9976d2314610472578063ed96f2031461047a578063f2f4eb2614610482575f5ffd5b8063a645b543116100fa578063a645b54314610238578063a7315ab814610441578063ae8ba67914610449578063b14ea75914610451578063b8cbf16b14610459575f5ffd5b80638c4039c5146103fb5780638da5cb5b1461040e5780639043292a1461041e5780639e9d68b614610431578063a0e8d35614610439575f5ffd5b80633e3147a0116101c15780636328c11a116101865780636328c11a146103975780637100d05c146103be578063715018a6146103d1578063738dc8fa146103d95780638068e42c146103e8575f5ffd5b80633e3147a0146103155780633ee7a7011461031d57806341976e091461032657806346abc3cb146103395780635954a86f14610372575f5ffd5b80632536dbfb116102075780632536dbfb14610289578063273441a21461029e57806328fc7502146102c5578063310b94b0146102e6578063324affc11461030d575f5ffd5b80630f68bb631461023857806316df7ea1146102555780631c1716641461027957806322f9f22714610281575b5f5ffd5b6102426201518081565b6040519081526020015b60405180910390f35b60015461026990600160a01b900460ff1681565b604051901515815260200161024c565b6102426104dd565b6102426106d3565b61029c61029736600461347f565b610881565b005b6102697f000000000000000000000000000000000000000000000000000000000000000081565b6102cd606481565b60405167ffffffffffffffff909116815260200161024c565b6102427f000000000000000000000000000000000000000000000000000000000000000081565b61029c6108da565b610269610a10565b61024260025481565b61024261033436600461347f565b610a3a565b6103607f000000000000000000000000000000000000000000000000000000000000000081565b60405160ff909116815260200161024c565b6001546001600160a01b03165b6040516001600160a01b03909116815260200161024c565b6102427f000000000000000000000000000000000000000000000000000000000000000081565b6102426103cc36600461349a565b611049565b61029c61109a565b68a2a15d09519be00000610242565b61029c6103f63660046134e2565b6110ab565b61029c610409366004613506565b611234565b5f546001600160a01b031661037f565b60015461037f906001600160a01b031681565b610242603281565b610242611294565b61029c611375565b610242611527565b61024261169f565b61029c611728565b6102426101f481565b610242603c81565b61029c6117cf565b61029c611b97565b61037f7f000000000000000000000000000000000000000000000000000000000000000081565b61029c6104b736600461347f565b611c3e565b61024260035481565b610242611c78565b610242611e41565b610242612035565b5f5f7f00000000000000000000000000000000000000000000000000000000000000006001600160a01b03166348a954946040518163ffffffff1660e01b8152600401602060405180830381865afa15801561053b573d5f5f3e3d5ffd5b505050506040513d601f19601f8201168201806040525081019061055f9190613521565b90506001600160a01b0381166105b35760405162461bcd60e51b81526020600482015260146024820152731cdd109510881b9bdd0818dbdb999a59dd5c995960621b60448201526064015b60405180910390fd5b5f8190505f816001600160a01b03166318160ddd6040518163ffffffff1660e01b8152600401602060405180830381865afa1580156105f4573d5f5f3e3d5ffd5b505050506040513d601f19601f82011682018060405250810190610618919061353c565b9050805f0361063157610629611294565b935050505090565b5f826001600160a01b03166301e1d1146040518163ffffffff1660e01b8152600401602060405180830381865afa15801561066e573d5f5f3e3d5ffd5b505050506040513d601f19601f82011682018060405250810190610692919061353c565b90505f6106a882670de0b6b3a764000085612115565b90505f6106b3611294565b90506106c88282670de0b6b3a7640000612115565b965050505050505090565b5f5f6108587f00000000000000000000000000000000000000000000000000000000000000006001600160a01b03166340cbbcc36040518163ffffffff1660e01b8152600401602060405180830381865afa158015610734573d5f5f3e3d5ffd5b505050506040513d601f19601f820116820180604052508101906107589190613521565b7f00000000000000000000000000000000000000000000000000000000000000006001600160a01b03166316a3d9fd6040518163ffffffff1660e01b8152600401602060405180830381865afa1580156107b4573d5f5f3e3d5ffd5b505050506040513d601f19601f820116820180604052508101906107d89190613521565b7f00000000000000000000000000000000000000000000000000000000000000006001600160a01b031663457404776040518163ffffffff1660e01b8152600401602060405180830381865afa158015610834573d5f5f3e3d5ffd5b505050506040513d601f19601f820116820180604052508101906103cc9190613521565b90505f610863612035565b90505f6108798383670de0b6b3a7640000612115565b949350505050565b6108896121c5565b600180546001600160a01b038381166001600160a01b0319831681179093556040519116919082907fbd88378c1310b1e36e9a14008ea9fb3ec76db83d1ebdbf4ea1f57e11090cd8be905f90a35050565b600154600160a01b900460ff1680156108fd57506001546001600160a01b031615155b15610a0e5760015f9054906101000a90046001600160a01b03166001600160a01b031663550848837f00000000000000000000000000000000000000000000000000000000000000006001600160a01b03166304f88f4d6040518163ffffffff1660e01b8152600401602060405180830381865afa158015610981573d5f5f3e3d5ffd5b505050506040513d601f19601f820116820180604052508101906109a59190613521565b6040516001600160e01b031960e084901b1681526001600160a01b0390911660048201526024016020604051808303815f875af11580156109e8573d5f5f3e3d5ffd5b505050506040513d601f19601f82011682018060405250810190610a0c9190613553565b505b565b6001545f90600160a01b900460ff168015610a3557506001546001600160a01b031615155b905090565b5f7f00000000000000000000000000000000000000000000000000000000000000006001600160a01b0316634dede3de6040518163ffffffff1660e01b8152600401602060405180830381865afa158015610a97573d5f5f3e3d5ffd5b505050506040513d601f19601f82011682018060405250810190610abb9190613521565b6001600160a01b0316826001600160a01b031603610ae157610adb611e41565b92915050565b7f00000000000000000000000000000000000000000000000000000000000000006001600160a01b031663457404776040518163ffffffff1660e01b8152600401602060405180830381865afa158015610b3d573d5f5f3e3d5ffd5b505050506040513d601f19601f82011682018060405250810190610b619190613521565b6001600160a01b0316826001600160a01b031603610b8157610adb612035565b7f00000000000000000000000000000000000000000000000000000000000000006001600160a01b03166346caf5e86040518163ffffffff1660e01b8152600401602060405180830381865afa158015610bdd573d5f5f3e3d5ffd5b505050506040513d601f19601f82011682018060405250810190610c019190613521565b6001600160a01b0316826001600160a01b031603610c2157610adb611294565b7f00000000000000000000000000000000000000000000000000000000000000006001600160a01b03166316a3d9fd6040518163ffffffff1660e01b8152600401602060405180830381865afa158015610c7d573d5f5f3e3d5ffd5b505050506040513d601f19601f82011682018060405250810190610ca19190613521565b6001600160a01b0316826001600160a01b031603610cc157610adb6106d3565b7f00000000000000000000000000000000000000000000000000000000000000006001600160a01b031663ad5c46486040518163ffffffff1660e01b8152600401602060405180830381865afa158015610d1d573d5f5f3e3d5ffd5b505050506040513d601f19601f82011682018060405250810190610d419190613521565b6001600160a01b0316826001600160a01b031603610d685768a2a15d09519be00000610adb565b7f00000000000000000000000000000000000000000000000000000000000000006001600160a01b0316633c9ac7226040518163ffffffff1660e01b8152600401602060405180830381865afa158015610dc4573d5f5f3e3d5ffd5b505050506040513d601f19601f82011682018060405250810190610de89190613521565b6001600160a01b0316826001600160a01b031603610e0857610adb611c78565b7f00000000000000000000000000000000000000000000000000000000000000006001600160a01b03166348a954946040518163ffffffff1660e01b8152600401602060405180830381865afa158015610e64573d5f5f3e3d5ffd5b505050506040513d601f19601f82011682018060405250810190610e889190613521565b6001600160a01b0316826001600160a01b031603610ea857610adb6104dd565b7f00000000000000000000000000000000000000000000000000000000000000006001600160a01b03166389a302716040518163ffffffff1660e01b8152600401602060405180830381865afa158015610f04573d5f5f3e3d5ffd5b505050506040513d601f19601f82011682018060405250810190610f289190613521565b6001600160a01b0316826001600160a01b031603610f4f5750670de0b6b3a7640000919050565b7f00000000000000000000000000000000000000000000000000000000000000006001600160a01b031663c54e44eb6040518163ffffffff1660e01b8152600401602060405180830381865afa158015610fab573d5f5f3e3d5ffd5b505050506040513d601f19601f82011682018060405250810190610fcf9190613521565b6001600160a01b0316826001600160a01b031603610ff65750670de0b6b3a7640000919050565b60405162461bcd60e51b815260206004820152602260248201527f5072696365206e6f7420617661696c61626c6520666f72207468697320746f6b60448201526132b760f11b60648201526084016105aa565b6001545f90600160a01b900460ff16801561106e57506001546001600160a01b031615155b156110855761107e8484846121f1565b9050611093565b6110908484846125b9565b90505b9392505050565b6110a26121c5565b610a0e5f612842565b6110b36121c5565b60328110156110f85760405162461bcd60e51b8152602060048201526011602482015270446576696174696f6e20746f6f206c6f7760781b60448201526064016105aa565b6101f481111561113f5760405162461bcd60e51b8152602060048201526012602482015271088caecd2c2e8d2dedc40e8dede40d0d2ced60731b60448201526064016105aa565b60025481106111905760405162461bcd60e51b815260206004820152601a60248201527f446576696174696f6e2063616e206f6e6c79207469676874656e00000000000060448201526064016105aa565b600354156111eb57620151806003546111a99190613582565b4210156111eb5760405162461bcd60e51b815260206004820152601060248201526f10dbdbdb191bdddb881b9bdd081b595d60821b60448201526064016105aa565b60028054908290554260035560408051828152602081018490527fea7b0359048504e79474eaaa05294b49265fc4e7b0a0c3737aaa22412e90f16e910160405180910390a15050565b61123c6121c5565b60018054821515600160a01b0260ff60a01b199091161790556040517f0163568d3185bb7679fb2660bf0c56cc98855d55082f9f0b2df4811f02f1d3519061128990831515815260200190565b60405180910390a150565b5f5f6108587f00000000000000000000000000000000000000000000000000000000000000006001600160a01b03166356f760db6040518163ffffffff1660e01b8152600401602060405180830381865afa1580156112f5573d5f5f3e3d5ffd5b505050506040513d601f19601f820116820180604052508101906113199190613521565b7f00000000000000000000000000000000000000000000000000000000000000006001600160a01b03166346caf5e86040518163ffffffff1660e01b8152600401602060405180830381865afa1580156107b4573d5f5f3e3d5ffd5b600154600160a01b900460ff16801561139857506001546001600160a01b031615155b15610a0e5760015f9054906101000a90046001600160a01b03166001600160a01b031663550848837f00000000000000000000000000000000000000000000000000000000000000006001600160a01b03166356f760db6040518163ffffffff1660e01b8152600401602060405180830381865afa15801561141c573d5f5f3e3d5ffd5b505050506040513d601f19601f820116820180604052508101906114409190613521565b6040516001600160e01b031960e084901b1681526001600160a01b0390911660048201526024016020604051808303815f875af1158015611483573d5f5f3e3d5ffd5b505050506040513d601f19601f820116820180604052508101906114a79190613553565b5060015f9054906101000a90046001600160a01b03166001600160a01b031663550848837f00000000000000000000000000000000000000000000000000000000000000006001600160a01b03166389f9109d6040518163ffffffff1660e01b8152600401602060405180830381865afa158015610981573d5f5f3e3d5ffd5b5f5f7f00000000000000000000000000000000000000000000000000000000000000006001600160a01b031663b85b92096040518163ffffffff1660e01b8152600401602060405180830381865afa158015611585573d5f5f3e3d5ffd5b505050506040513d601f19601f820116820180604052508101906115a99190613521565b90506001600160a01b0381166115f85760405162461bcd60e51b8152602060048201526014602482015273125554d1081b585b9859d95c881b9bdd081cd95d60621b60448201526064016105aa565b5f816001600160a01b031663ce0e5b126040518163ffffffff1660e01b8152600401602060405180830381865afa158015611635573d5f5f3e3d5ffd5b505050506040513d601f19601f82011682018060405250810190611659919061353c565b90505f8111610adb5760405162461bcd60e51b8152602060048201526012602482015271496e76616c6964204955534420707269636560701b60448201526064016105aa565b5f610a357f00000000000000000000000000000000000000000000000000000000000000006001600160a01b031663be2aaaed6040518163ffffffff1660e01b8152600401602060405180830381865afa1580156116ff573d5f5f3e3d5ffd5b505050506040513d601f19601f820116820180604052508101906117239190613521565b612891565b600154600160a01b900460ff16801561174b57506001546001600160a01b031615155b15610a0e5760015f9054906101000a90046001600160a01b03166001600160a01b031663550848837f00000000000000000000000000000000000000000000000000000000000000006001600160a01b03166340cbbcc36040518163ffffffff1660e01b8152600401602060405180830381865afa15801561141c573d5f5f3e3d5ffd5b600154600160a01b900460ff1680156117f257506001546001600160a01b031615155b15610a0e5760015f9054906101000a90046001600160a01b03166001600160a01b031663550848837f00000000000000000000000000000000000000000000000000000000000000006001600160a01b03166304f88f4d6040518163ffffffff1660e01b8152600401602060405180830381865afa158015611876573d5f5f3e3d5ffd5b505050506040513d601f19601f8201168201806040525081019061189a9190613521565b6040516001600160e01b031960e084901b1681526001600160a01b0390911660048201526024016020604051808303815f875af11580156118dd573d5f5f3e3d5ffd5b505050506040513d601f19601f820116820180604052508101906119019190613553565b5060015f9054906101000a90046001600160a01b03166001600160a01b031663550848837f00000000000000000000000000000000000000000000000000000000000000006001600160a01b03166389f9109d6040518163ffffffff1660e01b8152600401602060405180830381865afa158015611981573d5f5f3e3d5ffd5b505050506040513d601f19601f820116820180604052508101906119a59190613521565b6040516001600160e01b031960e084901b1681526001600160a01b0390911660048201526024016020604051808303815f875af11580156119e8573d5f5f3e3d5ffd5b505050506040513d601f19601f82011682018060405250810190611a0c9190613553565b5060015f9054906101000a90046001600160a01b03166001600160a01b031663550848837f00000000000000000000000000000000000000000000000000000000000000006001600160a01b03166356f760db6040518163ffffffff1660e01b8152600401602060405180830381865afa158015611a8c573d5f5f3e3d5ffd5b505050506040513d601f19601f82011682018060405250810190611ab09190613521565b6040516001600160e01b031960e084901b1681526001600160a01b0390911660048201526024016020604051808303815f875af1158015611af3573d5f5f3e3d5ffd5b505050506040513d601f19601f82011682018060405250810190611b179190613553565b5060015f9054906101000a90046001600160a01b03166001600160a01b031663550848837f00000000000000000000000000000000000000000000000000000000000000006001600160a01b03166340cbbcc36040518163ffffffff1660e01b8152600401602060405180830381865afa158015610981573d5f5f3e3d5ffd5b600154600160a01b900460ff168015611bba57506001546001600160a01b031615155b15610a0e5760015f9054906101000a90046001600160a01b03166001600160a01b031663550848837f00000000000000000000000000000000000000000000000000000000000000006001600160a01b03166389f9109d6040518163ffffffff1660e01b8152600401602060405180830381865afa158015610981573d5f5f3e3d5ffd5b611c466121c5565b6001600160a01b038116611c6f57604051631e4fbdf760e01b81525f60048201526024016105aa565b610a0c81612842565b5f5f7f00000000000000000000000000000000000000000000000000000000000000006001600160a01b0316633c9ac7226040518163ffffffff1660e01b8152600401602060405180830381865afa158015611cd6573d5f5f3e3d5ffd5b505050506040513d601f19601f82011682018060405250810190611cfa9190613521565b90506001600160a01b038116611d495760405162461bcd60e51b81526020600482015260146024820152731cdd109511081b9bdd0818dbdb999a59dd5c995960621b60448201526064016105aa565b5f8190505f816001600160a01b03166318160ddd6040518163ffffffff1660e01b8152600401602060405180830381865afa158015611d8a573d5f5f3e3d5ffd5b505050506040513d601f19601f82011682018060405250810190611dae919061353c565b9050805f03611dbf57610629612035565b5f826001600160a01b03166301e1d1146040518163ffffffff1660e01b8152600401602060405180830381865afa158015611dfc573d5f5f3e3d5ffd5b505050506040513d601f19601f82011682018060405250810190611e20919061353c565b90505f611e3682670de0b6b3a764000085612115565b90505f6106b3612035565b5f5f611e4b61289b565b90505f611e56612923565b90505f611e61612c05565b90505f611e6f848484612ea8565b90505f611fd17f00000000000000000000000000000000000000000000000000000000000000006001600160a01b03166304f88f4d6040518163ffffffff1660e01b8152600401602060405180830381865afa158015611ed1573d5f5f3e3d5ffd5b505050506040513d601f19601f82011682018060405250810190611ef59190613521565b7f00000000000000000000000000000000000000000000000000000000000000006001600160a01b0316634dede3de6040518163ffffffff1660e01b8152600401602060405180830381865afa158015611f51573d5f5f3e3d5ffd5b505050506040513d601f19601f82011682018060405250810190611f759190613521565b7f00000000000000000000000000000000000000000000000000000000000000006001600160a01b03166389a302716040518163ffffffff1660e01b8152600401602060405180830381865afa158015610834573d5f5f3e3d5ffd5b9050611fe08183600254612ed5565b61202c5760405162461bcd60e51b815260206004820152601760248201527f57425443207072696365206d69736d61746368203e312500000000000000000060448201526064016105aa565b95945050505050565b5f610a357f00000000000000000000000000000000000000000000000000000000000000006001600160a01b03166389f9109d6040518163ffffffff1660e01b8152600401602060405180830381865afa158015612095573d5f5f3e3d5ffd5b505050506040513d601f19601f820116820180604052508101906120b99190613521565b7f00000000000000000000000000000000000000000000000000000000000000006001600160a01b031663457404776040518163ffffffff1660e01b8152600401602060405180830381865afa158015611f51573d5f5f3e3d5ffd5b5f5f5f6121228686612f31565b91509150815f036121465783818161213c5761213c613595565b0492505050611093565b81841161215d5761215d6003851502601118612f4d565b5f848688095f868103871696879004966002600389028118808a02820302808a02820302808a02820302808a02820302808a02820302808a02909103029181900381900460010185841190960395909502919093039390930492909217029150509392505050565b5f546001600160a01b03163314610a0e5760405163118cdaa760e01b81523360048201526024016105aa565b6001545f906001600160a01b03166122415760405162461bcd60e51b81526020600482015260136024820152721515d054081bdc9858db19481b9bdd081cd95d606a1b60448201526064016105aa565b60015460405163013a839760e31b81526001600160a01b038681166004830152909116906309d41cb890602401602060405180830381865afa158015612289573d5f5f3e3d5ffd5b505050506040513d601f19601f820116820180604052508101906122ad9190613553565b6122ea5760405162461bcd60e51b815260206004820152600e60248201526d54574150206e6f7420726561647960901b60448201526064016105aa565b5f8490505f816001600160a01b0316630dfe16816040518163ffffffff1660e01b8152600401602060405180830381865afa15801561232b573d5f5f3e3d5ffd5b505050506040513d601f19601f8201168201806040525081019061234f9190613521565b90505f826001600160a01b031663d21220a76040518163ffffffff1660e01b8152600401602060405180830381865afa15801561238e573d5f5f3e3d5ffd5b505050506040513d601f19601f820116820180604052508101906123b29190613521565b9050856001600160a01b0316826001600160a01b03161480156123e65750846001600160a01b0316816001600160a01b0316145b8061241e5750846001600160a01b0316826001600160a01b031614801561241e5750856001600160a01b0316816001600160a01b0316145b61246a5760405162461bcd60e51b815260206004820152601b60248201527f496e76616c696420626173652f71756f746520666f7220706f6f6c000000000060448201526064016105aa565b5f61247487612f5e565b90505f61248087612f5e565b9050876001600160a01b0316846001600160a01b031603612524576001546040516364dca9c760e01b81526001600160a01b038b8116600483015260ff808616602484015284166044830152909116906364dca9c790606401602060405180830381865afa1580156124f4573d5f5f3e3d5ffd5b505050506040513d601f19601f82011682018060405250810190612518919061353c565b95505050505050611093565b6001546040516364dca9c760e01b81526001600160a01b038b8116600483015260ff8085166024840152851660448301525f9216906364dca9c790606401602060405180830381865afa15801561257d573d5f5f3e3d5ffd5b505050506040513d601f19601f820116820180604052508101906125a1919061353c565b90506125ac816130ac565b9650505050505050611093565b5f5f8490505f5f826001600160a01b0316630902f1ac6040518163ffffffff1660e01b8152600401606060405180830381865afa1580156125fc573d5f5f3e3d5ffd5b505050506040513d601f19601f8201168201806040525081019061262091906135bf565b50915091505f836001600160a01b0316630dfe16816040518163ffffffff1660e01b8152600401602060405180830381865afa158015612662573d5f5f3e3d5ffd5b505050506040513d601f19601f820116820180604052508101906126869190613521565b90505f846001600160a01b031663d21220a76040518163ffffffff1660e01b8152600401602060405180830381865afa1580156126c5573d5f5f3e3d5ffd5b505050506040513d601f19601f820116820180604052508101906126e99190613521565b9050876001600160a01b0316826001600160a01b031614801561271d5750866001600160a01b0316816001600160a01b0316145b806127555750866001600160a01b0316826001600160a01b03161480156127555750876001600160a01b0316816001600160a01b0316145b6127a15760405162461bcd60e51b815260206004820152601b60248201527f496e76616c696420626173652f71756f746520666f7220706f6f6c000000000060448201526064016105aa565b5f886001600160a01b0316836001600160a01b0316146127ca57836001600160701b03166127d5565b846001600160701b03165b90505f896001600160a01b0316846001600160a01b03161461280057856001600160701b031661280b565b846001600160701b03165b90505f6128178b612f5e565b90505f6128238b612f5e565b90506128318484848461310c565b9d9c50505050505050505050505050565b5f80546001600160a01b038381166001600160a01b0319831681178455604051919092169283917f8be0079c531659141344cd1fd0a4f28419497f9722a3daafe3b4186f6b6457e09190a35050565b5f610adb8261318b565b5f5f6128fc7f00000000000000000000000000000000000000000000000000000000000000006001600160a01b031663b06d543c6040518163ffffffff1660e01b8152600401602060405180830381865afa1580156116ff573d5f5f3e3d5ffd5b90505f61290761169f565b905061291c8282670de0b6b3a7640000612115565b9250505090565b5f5f7f00000000000000000000000000000000000000000000000000000000000000006001600160a01b03166310a420c16040518163ffffffff1660e01b8152600401602060405180830381865afa158015612981573d5f5f3e3d5ffd5b505050506040513d601f19601f820116820180604052508101906129a59190613521565b90506001600160a01b0381166129f15760405162461bcd60e51b8152602060048201526011602482015270141e5d1a0819995959081b9bdd081cd95d607a1b60448201526064016105aa565b7f0000000000000000000000000000000000000000000000000000000000000000612a565760405162461bcd60e51b8152602060048201526015602482015274141e5d1a081c1c9a58d9481a59081b9bdd081cd95d605a1b60448201526064016105aa565b6040516396834ad360e01b81527f000000000000000000000000000000000000000000000000000000000000000060048201525f906001600160a01b038316906396834ad390602401608060405180830381865afa158015612aba573d5f5f3e3d5ffd5b505050506040513d601f19601f82011682018060405250810190612ade9190613628565b90505f815f015160070b13612b2a5760405162461bcd60e51b8152602060048201526012602482015271496e76616c6964205079746820707269636560701b60448201526064016105aa565b603c816060015142612b3c91906136b4565b1115612b7d5760405162461bcd60e51b815260206004820152601060248201526f50797468207072696365207374616c6560801b60448201526064016105aa565b805f015167ffffffffffffffff1681602001516064612b9c91906136c7565b67ffffffffffffffff161115612bf45760405162461bcd60e51b815260206004820152601860248201527f5079746820636f6e666964656e636520746f6f2077696465000000000000000060448201526064016105aa565b61291c815f015182604001516132ed565b5f5f7f00000000000000000000000000000000000000000000000000000000000000006001600160a01b03166395d1741d6040518163ffffffff1660e01b8152600401602060405180830381865afa158015612c63573d5f5f3e3d5ffd5b505050506040513d601f19601f82011682018060405250810190612c879190613521565b90506001600160a01b038116612cd75760405162461bcd60e51b81526020600482015260156024820152741499591cdd1bdb994819995959081b9bdd081cd95d605a1b60448201526064016105aa565b7f0000000000000000000000000000000000000000000000000000000000000000612d3a5760405162461bcd60e51b81526020600482015260136024820152721499591cdd1bdb99481a59081b9bdd081cd95d606a1b60448201526064016105aa565b5f7f000000000000000000000000000000000000000000000000000000000000000060ff1611612dac5760405162461bcd60e51b815260206004820152601960248201527f52656473746f6e6520646563696d616c73206e6f74207365740000000000000060448201526064016105aa565b604051630f42405960e31b81527f000000000000000000000000000000000000000000000000000000000000000060048201525f906001600160a01b03831690637a1202c890602401602060405180830381865afa158015612e10573d5f5f3e3d5ffd5b505050506040513d601f19601f82011682018060405250810190612e34919061353c565b90505f8111612e7e5760405162461bcd60e51b8152602060048201526016602482015275496e76616c69642052656473746f6e6520707269636560501b60448201526064016105aa565b61291c817f0000000000000000000000000000000000000000000000000000000000000000613405565b5f82841115612eb5579192915b81831115612ec1579091905b82841115612ecd579192915b509092915050565b5f831580612ee1575082155b15612eed57505f611093565b5f838511612f0457612eff85856136b4565b612f0e565b612f0e84866136b4565b9050612f1a83866136f1565b612f26612710836136f1565b111595945050505050565b5f805f1983850993909202808410938190039390930393915050565b634e487b715f52806020526024601cfd5b5f7f00000000000000000000000000000000000000000000000000000000000000006001600160a01b0316634dede3de6040518163ffffffff1660e01b8152600401602060405180830381865afa158015612fbb573d5f5f3e3d5ffd5b505050506040513d601f19601f82011682018060405250810190612fdf9190613521565b6001600160a01b0316826001600160a01b031603612fff57506008919050565b7f00000000000000000000000000000000000000000000000000000000000000006001600160a01b03166389a302716040518163ffffffff1660e01b8152600401602060405180830381865afa15801561305b573d5f5f3e3d5ffd5b505050506040513d601f19601f8201168201806040525081019061307f9190613521565b6001600160a01b0316826001600160a01b03160361309f57506006919050565b506012919050565b919050565b5f5f82116130f15760405162461bcd60e51b81526020600482015260126024820152714f7261636c653a207a65726f20707269636560701b60448201526064016105aa565b610adb6ec097ce7bc90715b34b9f1000000000600184612115565b5f5f85116131535760405162461bcd60e51b81526020600482015260146024820152734f7261636c653a207a65726f207265736572766560601b60448201526064016105aa565b5f61315e8685613405565b90505f61316b8685613405565b905061318081670de0b6b3a764000084612115565b979650505050505050565b5f6001600160a01b0382166131d15760405162461bcd60e51b815260206004820152600c60248201526b11995959081b9bdd081cd95d60a21b60448201526064016105aa565b5f8290505f816001600160a01b031663313ce5676040518163ffffffff1660e01b8152600401602060405180830381865afa158015613212573d5f5f3e3d5ffd5b505050506040513d601f19601f820116820180604052508101906132369190613708565b90505f826001600160a01b031663feaf968c6040518163ffffffff1660e01b815260040160a060405180830381865afa158015613275573d5f5f3e3d5ffd5b505050506040513d601f19601f820116820180604052508101906132999190613741565b5050509150505f81136132e35760405162461bcd60e51b8152602060048201526012602482015271496e76616c6964206665656420707269636560701b60448201526064016105aa565b61202c8183613405565b5f5f8360070b136133355760405162461bcd60e51b8152602060048201526012602482015271496e76616c696420507974682076616c756560701b60448201526064016105aa565b5f61334183601261378f565b9050604f198160030b13801561335a575060508160030b125b6133a65760405162461bcd60e51b815260206004820152601b60248201527f50797468206578706f6e656e74206f7574206f6620626f756e6473000000000060448201526064016105aa565b67ffffffffffffffff84165f600383900b126133da576133c782600a613899565b6133d190826136f1565b92505050610adb565b5f6133e4836138aa565b90506133f181600a613899565b6133fb90836138cb565b9695505050505050565b5f8160ff16601203613418575081610adb565b60128260ff16111561344b5761342f6012836138ea565b61343a90600a613903565b61344490846138cb565b9050610adb565b6134568260126138ea565b61346190600a613903565b61109390846136f1565b6001600160a01b0381168114610a0c575f5ffd5b5f6020828403121561348f575f5ffd5b81356110938161346b565b5f5f5f606084860312156134ac575f5ffd5b83356134b78161346b565b925060208401356134c78161346b565b915060408401356134d78161346b565b809150509250925092565b5f602082840312156134f2575f5ffd5b5035919050565b8015158114610a0c575f5ffd5b5f60208284031215613516575f5ffd5b8135611093816134f9565b5f60208284031215613531575f5ffd5b81516110938161346b565b5f6020828403121561354c575f5ffd5b5051919050565b5f60208284031215613563575f5ffd5b8151611093816134f9565b634e487b7160e01b5f52601160045260245ffd5b80820180821115610adb57610adb61356e565b634e487b7160e01b5f52601260045260245ffd5b80516001600160701b03811681146130a7575f5ffd5b5f5f5f606084860312156135d1575f5ffd5b6135da846135a9565b92506135e8602085016135a9565b9150604084015163ffffffff811681146134d7575f5ffd5b805167ffffffffffffffff811681146130a7575f5ffd5b8051600381900b81146130a7575f5ffd5b5f6080828403128015613639575f5ffd5b506040516080810167ffffffffffffffff8111828210171561366957634e487b7160e01b5f52604160045260245ffd5b6040528251600781900b811461367d575f5ffd5b815261368b60208401613600565b602082015261369c60408401613617565b60408201526060928301519281019290925250919050565b81810381811115610adb57610adb61356e565b67ffffffffffffffff81811683821602908116908181146136ea576136ea61356e565b5092915050565b8082028115828204841417610adb57610adb61356e565b5f60208284031215613718575f5ffd5b815160ff81168114611093575f5ffd5b805169ffffffffffffffffffff811681146130a7575f5ffd5b5f5f5f5f5f60a08688031215613755575f5ffd5b61375e86613728565b6020870151604088015160608901519297509095509350915061378360808701613728565b90509295509295909350565b600381810b9083900b01637fffffff8113637fffffff1982121715610adb57610adb61356e565b6001815b60018411156137f1578085048111156137d5576137d561356e565b60018416156137e357908102905b60019390931c9280026137ba565b935093915050565b5f8261380757506001610adb565b8161381357505f610adb565b816001811461382957600281146138335761384f565b6001915050610adb565b60ff8411156138445761384461356e565b50506001821b610adb565b5060208310610133831016604e8410600b8410161715613872575081810a610adb565b61387e5f1984846137b6565b805f19048211156138915761389161356e565b029392505050565b5f61109363ffffffff8416836137f9565b5f8160030b637fffffff1981036138c3576138c361356e565b5f0392915050565b5f826138e557634e487b7160e01b5f52601260045260245ffd5b500490565b60ff8281168282160390811115610adb57610adb61356e565b5f61109360ff8416836137f956fea26469706673582212201f49a9ea9aab042f71feb908822186c3a79cd402eeab81c8f9e8230142135a4c64736f6c634300081e0033",
  "linkReferences": {},
  "deployedLinkReferences": {},
  "immutableReferences": {
    "4499": [
      {
        "length": 32,
        "start": 1159
      },
      {
        "length": 32,
        "start": 1249
      },
      {
        "length": 32,
        "start": 1754
      },
      {
        "length": 32,
        "start": 1882
      },
      {
        "length": 32,
        "start": 2010
      },
      {
        "length": 32,
        "start": 2343
      },
      {
        "length": 32,
        "start": 2621
      },
      {
        "length": 32,
        "start": 2787
      },
      {
        "length": 32,
        "start": 2947
      },
      {
        "length": 32,
        "start": 3107
      },
      {
        "length": 32,
        "start": 3267
      },
      {
        "length": 32,
        "start": 3434
      },
      {
        "length": 32,
        "start": 3594
      },
      {
        "length": 32,
        "start": 3754
      },
      {
        "length": 32,
        "start": 3921
      },
      {
        "length": 32,
        "start": 4763
      },
      {
        "length": 32,
        "start": 4891
      },
      {
        "length": 32,
        "start": 5058
      },
      {
        "length": 32,
        "start": 5325
      },
      {
        "length": 32,
        "start": 5419
      },
      {
        "length": 32,
        "start": 5797
      },
      {
        "length": 32,
        "start": 6005
      },
      {
        "length": 32,
        "start": 6172
      },
      {
        "length": 32,
        "start": 6439
      },
      {
        "length": 32,
        "start": 6706
      },
      {
        "length": 32,
        "start": 6973
      },
      {
        "length": 32,
        "start": 7140
      },
      {
        "length": 32,
        "start": 7292
      },
      {
        "length": 32,
        "start": 7799
      },
      {
        "length": 32,
        "start": 7927
      },
      {
        "length": 32,
        "start": 8055
      },
      {
        "length": 32,
        "start": 8251
      },
      {
        "length": 32,
        "start": 8379
      },
      {
        "length": 32,
        "start": 10402
      },
      {
        "length": 32,
        "start": 10535
      },
      {
        "length": 32,
        "start": 11273
      },
      {
        "length": 32,
        "start": 12129
      },
      {
        "length": 32,
        "start": 12289
      }
    ],
    "4501": [
      {
        "length": 32,
        "start": 747
      },
      {
        "length": 32,
        "start": 10739
      },
      {
        "length": 32,
        "start": 10853
      }
    ],
    "4503": [
      {
        "length": 32,
        "start": 924
      },
      {
        "length": 32,
        "start": 11481
      },
      {
        "length": 32,
        "start": 11707
      }
    ],
    "4505": [
      {
        "length": 32,
        "start": 830
      },
      {
        "length": 32,
        "start": 11581
      },
      {
        "length": 32,
        "start": 11908
      }
    ],
    "4507": [
      {
        "length": 32,
        "start": 675
      }
    ]
  },
  "inputSourceName": "project/contracts/PriceOracle.sol",
  "buildInfoId": "solc-0_8_30-33ce2dc90afec651947ad6da54c9338a69cf5639"
}