{
  "_format": "hh3-artifact-1",
  "contractName": "UniswapV2Pair",
  "sourceName": "contracts/local/UniswapV2Pair.sol",
  "abi": [
    {
      "inputs": [],
      "stateMutability": "nonpayable",
      "type": "constructor"
    },
    {
      "inputs": [
        {
          "internalType": "address",
          "name": "spender",
          "type": "address"
        },
        {
          "internalType": "uint256",
          "name": "allowance",
          "type": "uint256"
        },
        {
          "internalType": "uint256",
          "name": "needed",
          "type": "uint256"
        }
      ],
      "name": "ERC20InsufficientAllowance",
      "type": "error"
    },
    {
      "inputs": [
        {
          "internalType": "address",
          "name": "sender",
          "type": "address"
        },
        {
          "internalType": "uint256",
          "name": "balance",
          "type": "uint256"
        },
        {
          "internalType": "uint256",
          "name": "needed",
          "type": "uint256"
        }
      ],
      "name": "ERC20InsufficientBalance",
      "type": "error"
    },
    {
      "inputs": [
        {
          "internalType": "address",
          "name": "approver",
          "type": "address"
        }
      ],
      "name": "ERC20InvalidApprover",
      "type": "error"
    },
    {
      "inputs": [
        {
          "internalType": "address",
          "name": "receiver",
          "type": "address"
        }
      ],
      "name": "ERC20InvalidReceiver",
      "type": "error"
    },
    {
      "inputs": [
        {
          "internalType": "address",
          "name": "sender",
          "type": "address"
        }
      ],
      "name": "ERC20InvalidSender",
      "type": "error"
    },
    {
      "inputs": [
        {
          "internalType": "address",
          "name": "spender",
          "type": "address"
        }
      ],
      "name": "ERC20InvalidSpender",
      "type": "error"
    },
    {
      "anonymous": false,
      "inputs": [
        {
          "indexed": true,
          "internalType": "address",
          "name": "owner",
          "type": "address"
        },
        {
          "indexed": true,
          "internalType": "address",
          "name": "spender",
          "type": "address"
        },
        {
          "indexed": false,
          "internalType": "uint256",
          "name": "value",
          "type": "uint256"
        }
      ],
      "name": "Approval",
      "type": "event"
    },
    {
      "anonymous": false,
      "inputs": [
        {
          "indexed": true,
          "internalType": "address",
          "name": "sender",
          "type": "address"
        },
        {
          "indexed": false,
          "internalType": "uint256",
          "name": "amount0",
          "type": "uint256"
        },
        {
          "indexed": false,
          "internalType": "uint256",
          "name": "amount1",
          "type": "uint256"
        },
        {
          "indexed": true,
          "internalType": "address",
          "name": "to",
          "type": "address"
        }
      ],
      "name": "Burn",
      "type": "event"
    },
    {
      "anonymous": false,
      "inputs": [
        {
          "indexed": true,
          "internalType": "address",
          "name": "sender",
          "type": "address"
        },
        {
          "indexed": false,
          "internalType": "uint256",
          "name": "amount0",
          "type": "uint256"
        },
        {
          "indexed": false,
          "internalType": "uint256",
          "name": "amount1",
          "type": "uint256"
        }
      ],
      "name": "Mint",
      "type": "event"
    },
    {
      "anonymous": false,
      "inputs": [
        {
          "indexed": true,
          "internalType": "address",
          "name": "sender",
          "type": "address"
        },
        {
          "indexed": false,
          "internalType": "uint256",
          "name": "amount0In",
          "type": "uint256"
        },
        {
          "indexed": false,
          "internalType": "uint256",
          "name": "amount1In",
          "type": "uint256"
        },
        {
          "indexed": false,
          "internalType": "uint256",
          "name": "amount0Out",
          "type": "uint256"
        },
        {
          "indexed": false,
          "internalType": "uint256",
          "name": "amount1Out",
          "type": "uint256"
        },
        {
          "indexed": true,
          "internalType": "address",
          "name": "to",
          "type": "address"
        }
      ],
      "name": "Swap",
      "type": "event"
    },
    {
      "anonymous": false,
      "inputs": [
        {
          "indexed": false,
          "internalType": "uint112",
          "name": "reserve0",
          "type": "uint112"
        },
        {
          "indexed": false,
          "internalType": "uint112",
          "name": "reserve1",
          "type": "uint112"
        }
      ],
      "name": "Sync",
      "type": "event"
    },
    {
      "anonymous": false,
      "inputs": [
        {
          "indexed": true,
          "internalType": "address",
          "name": "from",
          "type": "address"
        },
        {
          "indexed": true,
          "internalType": "address",
          "name": "to",
          "type": "address"
        },
        {
          "indexed": false,
          "internalType": "uint256",
          "name": "value",
          "type": "uint256"
        }
      ],
      "name": "Transfer",
      "type": "event"
    },
    {
      "inputs": [],
      "name": "MINIMUM_LIQUIDITY",
      "outputs": [
        {
          "internalType": "uint256",
          "name": "",
          "type": "uint256"
        }
      ],
      "stateMutability": "view",
      "type": "function"
    },
    {
      "inputs": [
        {
          "internalType": "uint112",
          "name": "_reserve0",
          "type": "uint112"
        },
        {
          "internalType": "uint112",
          "name": "_reserve1",
          "type": "uint112"
        }
      ],
      "name": "__setReservesForTest",
      "outputs": [],
      "stateMutability": "nonpayable",
      "type": "function"
    },
    {
      "inputs": [
        {
          "internalType": "address",
          "name": "owner",
          "type": "address"
        },
        {
          "internalType": "address",
          "name": "spender",
          "type": "address"
        }
      ],
      "name": "allowance",
      "outputs": [
        {
          "internalType": "uint256",
          "name": "",
          "type": "uint256"
        }
      ],
      "stateMutability": "view",
      "type": "function"
    },
    {
      "inputs": [
        {
          "internalType": "address",
          "name": "spender",
          "type": "address"
        },
        {
          "internalType": "uint256",
          "name": "value",
          "type": "uint256"
        }
      ],
      "name": "approve",
      "outputs": [
        {
          "internalType": "bool",
          "name": "",
          "type": "bool"
        }
      ],
      "stateMutability": "nonpayable",
      "type": "function"
    },
    {
      "inputs": [
        {
          "internalType": "address",
          "name": "account",
          "type": "address"
        }
      ],
      "name": "balanceOf",
      "outputs": [
        {
          "internalType": "uint256",
          "name": "",
          "type": "uint256"
        }
      ],
      "stateMutability": "view",
      "type": "function"
    },
    {
      "inputs": [
        {
          "internalType": "address",
          "name": "to",
          "type": "address"
        }
      ],
      "name": "burn",
      "outputs": [
        {
          "internalType": "uint256",
          "name": "amount0",
          "type": "uint256"
        },
        {
          "internalType": "uint256",
          "name": "amount1",
          "type": "uint256"
        }
      ],
      "stateMutability": "nonpayable",
      "type": "function"
    },
    {
      "inputs": [],
      "name": "decimals",
      "outputs": [
        {
          "internalType": "uint8",
          "name": "",
          "type": "uint8"
        }
      ],
      "stateMutability": "view",
      "type": "function"
    },
    {
      "inputs": [],
      "name": "getReserves",
      "outputs": [
        {
          "internalType": "uint112",
          "name": "_reserve0",
          "type": "uint112"
        },
        {
          "internalType": "uint112",
          "name": "_reserve1",
          "type": "uint112"
        },
        {
          "internalType": "uint32",
          "name": "_blockTimestampLast",
          "type": "uint32"
        }
      ],
      "stateMutability": "view",
      "type": "function"
    },
    {
      "inputs": [
        {
          "internalType": "address",
          "name": "_token0",
          "type": "address"
        },
        {
          "internalType": "address",
          "name": "_token1",
          "type": "address"
        }
      ],
      "name": "initialize",
      "outputs": [],
      "stateMutability": "nonpayable",
      "type": "function"
    },
    {
      "inputs": [
        {
          "internalType": "address",
          "name": "to",
          "type": "address"
        }
      ],
      "name": "mint",
      "outputs": [
        {
          "internalType": "uint256",
          "name": "liquidity",
          "type": "uint256"
        }
      ],
      "stateMutability": "nonpayable",
      "type": "function"
    },
    {
      "inputs": [],
      "name": "name",
      "outputs": [
        {
          "internalType": "string",
          "name": "",
          "type": "string"
        }
      ],
      "stateMutability": "view",
      "type": "function"
    },
    {
      "inputs": [],
      "name": "price0CumulativeLast",
      "outputs": [
        {
          "internalType": "uint256",
          "name": "",
          "type": "uint256"
        }
      ],
      "stateMutability": "view",
      "type": "function"
    },
    {
      "inputs": [],
      "name": "price1CumulativeLast",
      "outputs": [
        {
          "internalType": "uint256",
          "name": "",
          "type": "uint256"
        }
      ],
      "stateMutability": "view",
      "type": "function"
    },
    {
      "inputs": [
        {
          "internalType": "uint112",
          "name": "_reserve0",
          "type": "uint112"
        },
        {
          "internalType": "uint112",
          "name": "_reserve1",
          "type": "uint112"
        }
      ],
      "name": "setReserves",
      "outputs": [],
      "stateMutability": "nonpayable",
      "type": "function"
    },
    {
      "inputs": [
        {
          "internalType": "address",
          "name": "_token0",
          "type": "address"
        },
        {
          "internalType": "address",
          "name": "_token1",
          "type": "address"
        }
      ],
      "name": "setTokens",
      "outputs": [],
      "stateMutability": "nonpayable",
      "type": "function"
    },
    {
      "inputs": [
        {
          "internalType": "address",
          "name": "to",
          "type": "address"
        }
      ],
      "name": "skim",
      "outputs": [],
      "stateMutability": "nonpayable",
      "type": "function"
    },
    {
      "inputs": [
        {
          "internalType": "uint256",
          "name": "amount0Out",
          "type": "uint256"
        },
        {
          "internalType": "uint256",
          "name": "amount1Out",
          "type": "uint256"
        },
        {
          "internalType": "address",
          "name": "to",
          "type": "address"
        },
        {
          "internalType": "bytes",
          "name": "",
          "type": "bytes"
        }
      ],
      "name": "swap",
      "outputs": [],
      "stateMutability": "nonpayable",
      "type": "function"
    },
    {
      "inputs": [],
      "name": "symbol",
      "outputs": [
        {
          "internalType": "string",
          "name": "",
          "type": "string"
        }
      ],
      "stateMutability": "view",
      "type": "function"
    },
    {
      "inputs": [],
      "name": "sync",
      "outputs": [],
      "stateMutability": "nonpayable",
      "type": "function"
    },
    {
      "inputs": [],
      "name": "token0",
      "outputs": [
        {
          "internalType": "address",
          "name": "",
          "type": "address"
        }
      ],
      "stateMutability": "view",
      "type": "function"
    },
    {
      "inputs": [],
      "name": "token1",
      "outputs": [
        {
          "internalType": "address",
          "name": "",
          "type": "address"
        }
      ],
      "stateMutability": "view",
      "type": "function"
    },
    {
      "inputs": [],
      "name": "totalSupply",
      "outputs": [
        {
          "internalType": "uint256",
          "name": "",
          "type": "uint256"
        }
      ],
      "stateMutability": "view",
      "type": "function"
    },
    {
      "inputs": [
        {
          "internalType": "address",
          "name": "to",
          "type": "address"
        },
        {
          "internalType": "uint256",
          "name": "value",
          "type": "uint256"
        }
      ],
      "name": "transfer",
      "outputs": [
        {
          "internalType": "bool",
          "name": "",
          "type": "bool"
        }
      ],
      "stateMutability": "nonpayable",
      "type": "function"
    },
    {
      "inputs": [
        {
          "internalType": "address",
          "name": "from",
          "type": "address"
        },
        {
          "internalType": "address",
          "name": "to",
          "type": "address"
        },
        {
          "internalType": "uint256",
          "name": "value",
          "type": "uint256"
        }
      ],
      "name": "transferFrom",
      "outputs": [
        {
          "internalType": "bool",
          "name": "",
          "type": "bool"
        }
      ],
      "stateMutability": "nonpayable",
      "type": "function"
    }
  ],
  "bytecode": "0x60806040526001600a55348015610014575f5ffd5b506040518060400160405280600d81526020016c0556e6973776170205632204c5609c1b815250604051806040016040528060068152602001652aa72496ab1960d11b81525081600390816100699190610116565b5060046100768282610116565b5050506101d0565b634e487b7160e01b5f52604160045260245ffd5b600181811c908216806100a657607f821691505b6020821081036100c457634e487b7160e01b5f52602260045260245ffd5b50919050565b601f82111561011157805f5260205f20601f840160051c810160208510156100ef5750805b601f840160051c820191505b8181101561010e575f81556001016100fb565b50505b505050565b81516001600160401b0381111561012f5761012f61007e565b6101438161013d8454610092565b846100ca565b6020601f821160018114610175575f831561015e5750848201515b5f19600385901b1c1916600184901b17845561010e565b5f84815260208120601f198516915b828110156101a45787850151825560209485019460019092019101610184565b50848210156101c157868401515f19600387901b60f8161c191681555b50505050600190811b01905550565b611d5f806101dd5f395ff3fe608060405234801561000f575f5ffd5b5060043610610153575f3560e01c806370a08231116100bf578063ba9a7a5611610079578063ba9a7a5614610335578063bc25cf771461033e578063cbc7854e14610351578063d21220a714610364578063dd62ed3e14610377578063fff6cae9146103af575f5ffd5b806370a082311461027857806375ea5f2e146102a05780637a3017a9146102b357806389afcb44146102f257806395d89b411461031a578063a9059cbb14610322575f5ffd5b806323b872dd1161011057806323b872dd1461021e578063313ce56714610231578063485cc955146102405780635909c0d5146102535780635a3d54931461025c5780636a62784214610265575f5ffd5b8063022c0d9f1461015757806306fdde031461016c5780630902f1ac1461018a578063095ea7b3146101be5780630dfe1681146101e157806318160ddd1461020c575b5f5ffd5b61016a610165366004611a48565b6103b7565b005b610174610854565b6040516101819190611ad6565b60405180910390f35b6101926108e4565b604080516001600160701b03948516815293909216602084015263ffffffff1690820152606001610181565b6101d16101cc366004611b0b565b61090e565b6040519015158152602001610181565b6006546101f4906001600160a01b031681565b6040516001600160a01b039091168152602001610181565b6002545b604051908152602001610181565b6101d161022c366004611b33565b610927565b60405160128152602001610181565b61016a61024e366004611b6d565b61094a565b61021060085481565b61021060095481565b610210610273366004611b9e565b6109d1565b610210610286366004611b9e565b6001600160a01b03165f9081526020819052604090205490565b61016a6102ae366004611bcd565b610c63565b61016a6102c1366004611bcd565b600580546001600160701b03928316600160701b026001600160e01b03199091169290931691909117919091179055565b610305610300366004611b9e565b610db9565b60408051928352602083019190915201610181565b6101746110d9565b6101d1610330366004611b0b565b6110e8565b6102106103e881565b61016a61034c366004611b9e565b6110f5565b61016a61035f366004611b6d565b611205565b6007546101f4906001600160a01b031681565b610210610385366004611b6d565b6001600160a01b039182165f90815260016020908152604080832093909416825291909152205490565b61016a611257565b600a546001146103e25760405162461bcd60e51b81526004016103d990611bf5565b60405180910390fd5b5f600a55841515806103f357505f84115b61044d5760405162461bcd60e51b815260206004820152602560248201527f556e697377617056323a20494e53554646494349454e545f4f55545055545f416044820152641353d5539560da1b60648201526084016103d9565b5f5f6104576108e4565b5091509150816001600160701b03168710801561047c5750806001600160701b031686105b6104d25760405162461bcd60e51b815260206004820152602160248201527f556e697377617056323a20494e53554646494349454e545f4c495155494449546044820152605960f81b60648201526084016103d9565b6006546007545f9182916001600160a01b0391821691908116908916821480159061050f5750806001600160a01b0316896001600160a01b031614155b6105535760405162461bcd60e51b8152602060048201526015602482015274556e697377617056323a20494e56414c49445f544f60581b60448201526064016103d9565b8a1561056457610564828a8d611376565b891561057557610575818a8c611376565b6040516370a0823160e01b81523060048201526001600160a01b038316906370a0823190602401602060405180830381865afa1580156105b7573d5f5f3e3d5ffd5b505050506040513d601f19601f820116820180604052508101906105db9190611c20565b6040516370a0823160e01b81523060048201529094506001600160a01b038216906370a0823190602401602060405180830381865afa158015610620573d5f5f3e3d5ffd5b505050506040513d601f19601f820116820180604052508101906106449190611c20565b925050505f89856001600160701b031661065e9190611c4b565b831161066a575f610687565b61067d8a6001600160701b038716611c4b565b6106879084611c4b565b90505f61069d8a6001600160701b038716611c4b565b83116106a9575f6106c6565b6106bc8a6001600160701b038716611c4b565b6106c69084611c4b565b90505f8211806106d557505f81115b61072d5760405162461bcd60e51b8152602060048201526024808201527f556e697377617056323a20494e53554646494349454e545f494e5055545f414d60448201526313d5539560e21b60648201526084016103d9565b5f610739836003611c5e565b610745866103e8611c5e565b61074f9190611c4b565b90505f61075d836003611c5e565b610769866103e8611c5e565b6107739190611c4b565b905061078b6001600160701b03808916908a16611c5e565b61079890620f4240611c5e565b6107a28284611c5e565b10156107df5760405162461bcd60e51b815260206004820152600c60248201526b556e697377617056323a204b60a01b60448201526064016103d9565b50506107ed8484888861148c565b60408051838152602081018390529081018c9052606081018b90526001600160a01b038a169033907fd78ad95fa46c994b6551d0da85fc275fe613ce37657fb8d5e3d130840159d8229060800160405180910390a350506001600a55505050505050505050565b60606003805461086390611c75565b80601f016020809104026020016040519081016040528092919081815260200182805461088f90611c75565b80156108da5780601f106108b1576101008083540402835291602001916108da565b820191905f5260205f20905b8154815290600101906020018083116108bd57829003601f168201915b5050505050905090565b6005546001600160701b0380821692600160701b830490911691600160e01b900463ffffffff1690565b5f3361091b81858561165e565b60019150505b92915050565b5f33610934858285611670565b61093f8585856116ec565b506001949350505050565b6006546001600160a01b0316156109a35760405162461bcd60e51b815260206004820152601e60248201527f556e697377617056323a20414c52454144595f494e495449414c495a4544000060448201526064016103d9565b600680546001600160a01b039384166001600160a01b03199182161790915560078054929093169116179055565b5f600a546001146109f45760405162461bcd60e51b81526004016103d990611bf5565b5f600a81905580610a036108e4565b506006546040516370a0823160e01b81523060048201529294509092505f916001600160a01b03909116906370a0823190602401602060405180830381865afa158015610a52573d5f5f3e3d5ffd5b505050506040513d601f19601f82011682018060405250810190610a769190611c20565b6007546040516370a0823160e01b81523060048201529192505f916001600160a01b03909116906370a0823190602401602060405180830381865afa158015610ac1573d5f5f3e3d5ffd5b505050506040513d601f19601f82011682018060405250810190610ae59190611c20565b90505f610afb6001600160701b03861684611c4b565b90505f610b116001600160701b03861684611c4b565b90505f610b1d60025490565b9050805f03610b59576103e8610b3b610b368486611c5e565b611749565b610b459190611c4b565b9750610b5460016103e86117b7565b610ba0565b610b9d6001600160701b038816610b708386611c5e565b610b7a9190611cbb565b6001600160701b038816610b8e8486611c5e565b610b989190611cbb565b6117ef565b97505b5f8811610c005760405162461bcd60e51b815260206004820152602860248201527f556e697377617056323a20494e53554646494349454e545f4c495155494449546044820152671657d3525395115160c21b60648201526084016103d9565b610c0a89896117b7565b610c168585898961148c565b604080518481526020810184905233917f4c209b5fc8ad50758f13e2e1088ba56a560dff690a1c6fef26394f4c03821c4f910160405180910390a250506001600a55509395945050505050565b5f610c7364010000000042611cce565b60055490915063ffffffff600160e01b9091048116820390811615801590610ca557506005546001600160701b031615155b8015610cc25750600554600160701b90046001600160701b031615155b15610d6c5760055463ffffffff8216906001600160701b0316607081610cea57610cea611ca7565b60055460088054600160701b9092046001600160701b03908116949093049290921683901b6001600160e01b0316939093029290920190915563ffffffff821690607081610d3a57610d3a611ca7565b600554600980546001600160701b0392831694909304919091169290921b6001600160e01b0316929092029190910190555b506005805463ffffffff909216600160e01b026001600160e01b036001600160701b03948516600160701b026001600160e01b031990941694909516939093179190911792909216179055565b5f5f600a54600114610ddd5760405162461bcd60e51b81526004016103d990611bf5565b5f600a81905580610dec6108e4565b506006546007546040516370a0823160e01b81523060048201529395509193506001600160a01b03908116929116905f9083906370a0823190602401602060405180830381865afa158015610e43573d5f5f3e3d5ffd5b505050506040513d601f19601f82011682018060405250810190610e679190611c20565b6040516370a0823160e01b81523060048201529091505f906001600160a01b038416906370a0823190602401602060405180830381865afa158015610eae573d5f5f3e3d5ffd5b505050506040513d601f19601f82011682018060405250810190610ed29190611c20565b305f908152602081905260409020546002549192509080610ef38584611c5e565b610efd9190611cbb565b995080610f0a8484611c5e565b610f149190611cbb565b98505f8a118015610f2457505f89115b610f815760405162461bcd60e51b815260206004820152602860248201527f556e697377617056323a20494e53554646494349454e545f4c495155494449546044820152671657d0955493915160c21b60648201526084016103d9565b610f8b3083611806565b610f96868c8c611376565b610fa1858c8b611376565b6040516370a0823160e01b81523060048201526001600160a01b038716906370a0823190602401602060405180830381865afa158015610fe3573d5f5f3e3d5ffd5b505050506040513d601f19601f820116820180604052508101906110079190611c20565b6040516370a0823160e01b81523060048201529094506001600160a01b038616906370a0823190602401602060405180830381865afa15801561104c573d5f5f3e3d5ffd5b505050506040513d601f19601f820116820180604052508101906110709190611c20565b925061107e84848a8a61148c565b604080518b8152602081018b90526001600160a01b038d169133917fdccd412f0b1252819cb1fd330b93224ca42612892bb3f4f789976e6d81936496910160405180910390a350505050505050506001600a81905550915091565b60606004805461086390611c75565b5f3361091b8185856116ec565b600a546001146111175760405162461bcd60e51b81526004016103d990611bf5565b5f600a556006546007546005546040516370a0823160e01b81523060048201526001600160a01b0393841693909216916111b391849186916001600160701b03169083906370a08231906024015b602060405180830381865afa158015611180573d5f5f3e3d5ffd5b505050506040513d601f19601f820116820180604052508101906111a49190611c20565b6111ae9190611c4b565b611376565b6005546040516370a0823160e01b81523060048201526111fb9183918691600160701b90046001600160701b0316906001600160a01b038416906370a0823190602401611165565b50506001600a5550565b6006546001600160a01b0316156109a35760405162461bcd60e51b8152602060048201526016602482015275155b9a5cddd85c158c8e881053149150511657d4d15560521b60448201526064016103d9565b600a546001146112795760405162461bcd60e51b81526004016103d990611bf5565b5f600a556006546040516370a0823160e01b815230600482015261136f916001600160a01b0316906370a0823190602401602060405180830381865afa1580156112c5573d5f5f3e3d5ffd5b505050506040513d601f19601f820116820180604052508101906112e99190611c20565b6007546040516370a0823160e01b81523060048201526001600160a01b03909116906370a0823190602401602060405180830381865afa15801561132f573d5f5f3e3d5ffd5b505050506040513d601f19601f820116820180604052508101906113539190611c20565b6005546001600160701b0380821691600160701b90041661148c565b6001600a55565b604080516001600160a01b038481166024830152604480830185905283518084039091018152606490920183526020820180516001600160e01b031663a9059cbb60e01b17905291515f928392908716916113d19190611ce1565b5f604051808303815f865af19150503d805f811461140a576040519150601f19603f3d011682016040523d82523d5f602084013e61140f565b606091505b50915091508180156114395750805115806114395750808060200190518101906114399190611cf7565b6114855760405162461bcd60e51b815260206004820152601a60248201527f556e697377617056323a205452414e534645525f4641494c454400000000000060448201526064016103d9565b5050505050565b6001600160701b0384118015906114aa57506001600160701b038311155b6114ec5760405162461bcd60e51b8152602060048201526013602482015272556e697377617056323a204f564552464c4f5760681b60448201526064016103d9565b5f6114fc64010000000042611cce565b60055490915063ffffffff600160e01b909104811682039081161580159061152c57506001600160701b03841615155b801561154057506001600160701b03831615155b156115c6578063ffffffff16846001600160701b03166070856001600160701b0316901b8161157157611571611ca7565b60088054929091049290920201905563ffffffff81166001600160701b0384166dffffffffffffffffffffffffffff60701b607087901b16816115b6576115b6611ca7565b6009805492909104929092020190555b6005805463ffffffff8416600160e01b026001600160e01b036001600160701b03898116600160701b9081026001600160e01b03199095168c83161794909417918216831794859055604080519382169282169290921783529290930490911660208201527f1c411e9a96e071241c2f21f7726b17ae89e3cab4c78be50e062b03a9fffbbad1910160405180910390a1505050505050565b61166b838383600161183a565b505050565b6001600160a01b038381165f908152600160209081526040808320938616835292905220545f198110156116e657818110156116d857604051637dc7a0d960e11b81526001600160a01b038416600482015260248101829052604481018390526064016103d9565b6116e684848484035f61183a565b50505050565b6001600160a01b03831661171557604051634b637e8f60e11b81525f60048201526024016103d9565b6001600160a01b03821661173e5760405163ec442f0560e01b81525f60048201526024016103d9565b61166b83838361190c565b5f60038211156117a85750805f611761600283611cbb565b61176c906001611d16565b90505b818110156117a2579050806002816117878186611cbb565b6117919190611d16565b61179b9190611cbb565b905061176f565b50919050565b81156117b2575060015b919050565b6001600160a01b0382166117e05760405163ec442f0560e01b81525f60048201526024016103d9565b6117eb5f838361190c565b5050565b5f8183106117fd57816117ff565b825b9392505050565b6001600160a01b03821661182f57604051634b637e8f60e11b81525f60048201526024016103d9565b6117eb825f8361190c565b6001600160a01b0384166118635760405163e602df0560e01b81525f60048201526024016103d9565b6001600160a01b03831661188c57604051634a1406b160e11b81525f60048201526024016103d9565b6001600160a01b038085165f90815260016020908152604080832093871683529290522082905580156116e657826001600160a01b0316846001600160a01b03167f8c5be1e5ebec7d5bd14f71427d1e84f3dd0314c0f7b2291e5b200ac8c7c3b925846040516118fe91815260200190565b60405180910390a350505050565b6001600160a01b038316611936578060025f82825461192b9190611d16565b909155506119a69050565b6001600160a01b0383165f90815260208190526040902054818110156119885760405163391434e360e21b81526001600160a01b038516600482015260248101829052604481018390526064016103d9565b6001600160a01b0384165f9081526020819052604090209082900390555b6001600160a01b0382166119c2576002805482900390556119e0565b6001600160a01b0382165f9081526020819052604090208054820190555b816001600160a01b0316836001600160a01b03167fddf252ad1be2c89b69c2b068fc378daa952ba7f163c4a11628f55a4df523b3ef83604051611a2591815260200190565b60405180910390a3505050565b80356001600160a01b03811681146117b2575f5ffd5b5f5f5f5f5f60808688031215611a5c575f5ffd5b8535945060208601359350611a7360408701611a32565b9250606086013567ffffffffffffffff811115611a8e575f5ffd5b8601601f81018813611a9e575f5ffd5b803567ffffffffffffffff811115611ab4575f5ffd5b886020828401011115611ac5575f5ffd5b959894975092955050506020019190565b602081525f82518060208401528060208501604085015e5f604082850101526040601f19601f83011684010191505092915050565b5f5f60408385031215611b1c575f5ffd5b611b2583611a32565b946020939093013593505050565b5f5f5f60608486031215611b45575f5ffd5b611b4e84611a32565b9250611b5c60208501611a32565b929592945050506040919091013590565b5f5f60408385031215611b7e575f5ffd5b611b8783611a32565b9150611b9560208401611a32565b90509250929050565b5f60208284031215611bae575f5ffd5b6117ff82611a32565b80356001600160701b03811681146117b2575f5ffd5b5f5f60408385031215611bde575f5ffd5b611be783611bb7565b9150611b9560208401611bb7565b602080825260119082015270155b9a5cddd85c158c8e881313d0d2d151607a1b604082015260600190565b5f60208284031215611c30575f5ffd5b5051919050565b634e487b7160e01b5f52601160045260245ffd5b8181038181111561092157610921611c37565b808202811582820484141761092157610921611c37565b600181811c90821680611c8957607f821691505b6020821081036117a257634e487b7160e01b5f52602260045260245ffd5b634e487b7160e01b5f52601260045260245ffd5b5f82611cc957611cc9611ca7565b500490565b5f82611cdc57611cdc611ca7565b500690565b5f82518060208501845e5f920191825250919050565b5f60208284031215611d07575f5ffd5b815180151581146117ff575f5ffd5b8082018082111561092157610921611c3756fea26469706673582212205aaadcb3b2b6f53e505ec2bfb88080a33cc228890a1c5b2261df5792b962b4ba64736f6c634300081e0033",
  "linkReferences": {},
  "deployedLinkReferences": {},
  "immutableReferences": {},
  "inputSourceName": "project/contracts/local/UniswapV2Pair.sol",
  "buildInfoId": "solc-0_8_30-5a154b3ae736339f517c2afd83424369f0b851aa"
}