{
  "_format": "hh3-artifact-1",
  "contractName": "ConfigCore",
  "sourceName": "contracts/ConfigCore.sol",
  "abi": [
    {
      "inputs": [
        {
          "internalType": "address",
          "name": "_wbtc",
          "type": "address"
        },
        {
          "internalType": "address",
          "name": "_btd",
          "type": "address"
        },
        {
          "internalType": "address",
          "name": "_btb",
          "type": "address"
        },
        {
          "internalType": "address",
          "name": "_brs",
          "type": "address"
        },
        {
          "internalType": "address",
          "name": "_weth",
          "type": "address"
        },
        {
          "internalType": "address",
          "name": "_usdc",
          "type": "address"
        },
        {
          "internalType": "address",
          "name": "_usdt",
          "type": "address"
        },
        {
          "internalType": "address",
          "name": "_chainlinkBtcUsd",
          "type": "address"
        },
        {
          "internalType": "address",
          "name": "_chainlinkWbtcBtc",
          "type": "address"
        },
        {
          "internalType": "address",
          "name": "_pythWbtc",
          "type": "address"
        },
        {
          "internalType": "address",
          "name": "_redstoneWbtc",
          "type": "address"
        }
      ],
      "stateMutability": "nonpayable",
      "type": "constructor"
    },
    {
      "inputs": [],
      "name": "BRS",
      "outputs": [
        {
          "internalType": "address",
          "name": "",
          "type": "address"
        }
      ],
      "stateMutability": "view",
      "type": "function"
    },
    {
      "inputs": [],
      "name": "BTB",
      "outputs": [
        {
          "internalType": "address",
          "name": "",
          "type": "address"
        }
      ],
      "stateMutability": "view",
      "type": "function"
    },
    {
      "inputs": [],
      "name": "BTD",
      "outputs": [
        {
          "internalType": "address",
          "name": "",
          "type": "address"
        }
      ],
      "stateMutability": "view",
      "type": "function"
    },
    {
      "inputs": [],
      "name": "CHAINLINK_BTC_USD",
      "outputs": [
        {
          "internalType": "address",
          "name": "",
          "type": "address"
        }
      ],
      "stateMutability": "view",
      "type": "function"
    },
    {
      "inputs": [],
      "name": "CHAINLINK_WBTC_BTC",
      "outputs": [
        {
          "internalType": "address",
          "name": "",
          "type": "address"
        }
      ],
      "stateMutability": "view",
      "type": "function"
    },
    {
      "inputs": [],
      "name": "FARMING_POOL",
      "outputs": [
        {
          "internalType": "address",
          "name": "",
          "type": "address"
        }
      ],
      "stateMutability": "view",
      "type": "function"
    },
    {
      "inputs": [],
      "name": "GOVERNOR",
      "outputs": [
        {
          "internalType": "address",
          "name": "",
          "type": "address"
        }
      ],
      "stateMutability": "view",
      "type": "function"
    },
    {
      "inputs": [],
      "name": "IDEAL_USD_MANAGER",
      "outputs": [
        {
          "internalType": "address",
          "name": "",
          "type": "address"
        }
      ],
      "stateMutability": "view",
      "type": "function"
    },
    {
      "inputs": [],
      "name": "INTEREST_POOL",
      "outputs": [
        {
          "internalType": "address",
          "name": "",
          "type": "address"
        }
      ],
      "stateMutability": "view",
      "type": "function"
    },
    {
      "inputs": [],
      "name": "MINTER",
      "outputs": [
        {
          "internalType": "address",
          "name": "",
          "type": "address"
        }
      ],
      "stateMutability": "view",
      "type": "function"
    },
    {
      "inputs": [],
      "name": "POOL_BRS_BTD",
      "outputs": [
        {
          "internalType": "address",
          "name": "",
          "type": "address"
        }
      ],
      "stateMutability": "view",
      "type": "function"
    },
    {
      "inputs": [],
      "name": "POOL_BTB_BTD",
      "outputs": [
        {
          "internalType": "address",
          "name": "",
          "type": "address"
        }
      ],
      "stateMutability": "view",
      "type": "function"
    },
    {
      "inputs": [],
      "name": "POOL_BTD_USDC",
      "outputs": [
        {
          "internalType": "address",
          "name": "",
          "type": "address"
        }
      ],
      "stateMutability": "view",
      "type": "function"
    },
    {
      "inputs": [],
      "name": "POOL_WBTC_USDC",
      "outputs": [
        {
          "internalType": "address",
          "name": "",
          "type": "address"
        }
      ],
      "stateMutability": "view",
      "type": "function"
    },
    {
      "inputs": [],
      "name": "PRICE_ORACLE",
      "outputs": [
        {
          "internalType": "address",
          "name": "",
          "type": "address"
        }
      ],
      "stateMutability": "view",
      "type": "function"
    },
    {
      "inputs": [],
      "name": "PYTH_WBTC",
      "outputs": [
        {
          "internalType": "address",
          "name": "",
          "type": "address"
        }
      ],
      "stateMutability": "view",
      "type": "function"
    },
    {
      "inputs": [],
      "name": "REDSTONE_WBTC",
      "outputs": [
        {
          "internalType": "address",
          "name": "",
          "type": "address"
        }
      ],
      "stateMutability": "view",
      "type": "function"
    },
    {
      "inputs": [],
      "name": "STAKING_ROUTER",
      "outputs": [
        {
          "internalType": "address",
          "name": "",
          "type": "address"
        }
      ],
      "stateMutability": "view",
      "type": "function"
    },
    {
      "inputs": [],
      "name": "ST_BTB",
      "outputs": [
        {
          "internalType": "address",
          "name": "",
          "type": "address"
        }
      ],
      "stateMutability": "view",
      "type": "function"
    },
    {
      "inputs": [],
      "name": "ST_BTD",
      "outputs": [
        {
          "internalType": "address",
          "name": "",
          "type": "address"
        }
      ],
      "stateMutability": "view",
      "type": "function"
    },
    {
      "inputs": [],
      "name": "TREASURY",
      "outputs": [
        {
          "internalType": "address",
          "name": "",
          "type": "address"
        }
      ],
      "stateMutability": "view",
      "type": "function"
    },
    {
      "inputs": [],
      "name": "TWAP_ORACLE",
      "outputs": [
        {
          "internalType": "address",
          "name": "",
          "type": "address"
        }
      ],
      "stateMutability": "view",
      "type": "function"
    },
    {
      "inputs": [],
      "name": "USDC",
      "outputs": [
        {
          "internalType": "address",
          "name": "",
          "type": "address"
        }
      ],
      "stateMutability": "view",
      "type": "function"
    },
    {
      "inputs": [],
      "name": "USDT",
      "outputs": [
        {
          "internalType": "address",
          "name": "",
          "type": "address"
        }
      ],
      "stateMutability": "view",
      "type": "function"
    },
    {
      "inputs": [],
      "name": "WBTC",
      "outputs": [
        {
          "internalType": "address",
          "name": "",
          "type": "address"
        }
      ],
      "stateMutability": "view",
      "type": "function"
    },
    {
      "inputs": [],
      "name": "WETH",
      "outputs": [
        {
          "internalType": "address",
          "name": "",
          "type": "address"
        }
      ],
      "stateMutability": "view",
      "type": "function"
    },
    {
      "inputs": [],
      "name": "coreContractsSet",
      "outputs": [
        {
          "internalType": "bool",
          "name": "",
          "type": "bool"
        }
      ],
      "stateMutability": "view",
      "type": "function"
    },
    {
      "inputs": [],
      "name": "peripheralContractsSet",
      "outputs": [
        {
          "internalType": "bool",
          "name": "",
          "type": "bool"
        }
      ],
      "stateMutability": "view",
      "type": "function"
    },
    {
      "inputs": [
        {
          "internalType": "address",
          "name": "_treasury",
          "type": "address"
        },
        {
          "internalType": "address",
          "name": "_minter",
          "type": "address"
        },
        {
          "internalType": "address",
          "name": "_priceOracle",
          "type": "address"
        },
        {
          "internalType": "address",
          "name": "_idealUSDManager",
          "type": "address"
        },
        {
          "internalType": "address",
          "name": "_interestPool",
          "type": "address"
        }
      ],
      "name": "setCoreContracts",
      "outputs": [],
      "stateMutability": "nonpayable",
      "type": "function"
    },
    {
      "inputs": [
        {
          "internalType": "address",
          "name": "_stakingRouter",
          "type": "address"
        },
        {
          "internalType": "address",
          "name": "_farmingPool",
          "type": "address"
        },
        {
          "internalType": "address",
          "name": "_stBTD",
          "type": "address"
        },
        {
          "internalType": "address",
          "name": "_stBTB",
          "type": "address"
        },
        {
          "internalType": "address",
          "name": "_governor",
          "type": "address"
        },
        {
          "internalType": "address",
          "name": "_twapOracle",
          "type": "address"
        },
        {
          "internalType": "address",
          "name": "_poolWbtcUsdc",
          "type": "address"
        },
        {
          "internalType": "address",
          "name": "_poolBtdUsdc",
          "type": "address"
        },
        {
          "internalType": "address",
          "name": "_poolBtbBtd",
          "type": "address"
        },
        {
          "internalType": "address",
          "name": "_poolBrsBtd",
          "type": "address"
        }
      ],
      "name": "setPeripheralContracts",
      "outputs": [],
      "stateMutability": "nonpayable",
      "type": "function"
    }
  ],
  "bytecode": "0x6101e0604052348015610010575f5ffd5b506040516111e13803806111e183398101604081905261002f916103cb565b6001600160a01b038b166100795760405162461bcd60e51b815260206004820152600c60248201526b496e76616c6964205742544360a01b60448201526064015b60405180910390fd5b6001600160a01b038a166100bd5760405162461bcd60e51b815260206004820152600b60248201526a125b9d985b1a590810951160aa1b6044820152606401610070565b6001600160a01b0389166101015760405162461bcd60e51b815260206004820152600b60248201526a24b73b30b634b210212a2160a91b6044820152606401610070565b6001600160a01b0388166101455760405162461bcd60e51b815260206004820152600b60248201526a496e76616c69642042525360a81b6044820152606401610070565b6001600160a01b03871661018a5760405162461bcd60e51b815260206004820152600c60248201526b092dcecc2d8d2c840ae8aa8960a31b6044820152606401610070565b6001600160a01b0386166101cf5760405162461bcd60e51b815260206004820152600c60248201526b496e76616c6964205553444360a01b6044820152606401610070565b6001600160a01b0385166102145760405162461bcd60e51b815260206004820152600c60248201526b125b9d985b1a59081554d11560a21b6044820152606401610070565b6001600160a01b03841661026a5760405162461bcd60e51b815260206004820152601960248201527f496e76616c696420436861696e6c696e6b204254432f555344000000000000006044820152606401610070565b6001600160a01b0383166102c05760405162461bcd60e51b815260206004820152601a60248201527f496e76616c696420436861696e6c696e6b20574254432f4254430000000000006044820152606401610070565b6001600160a01b03821661030a5760405162461bcd60e51b8152602060048201526011602482015270496e76616c69642050797468205742544360781b6044820152606401610070565b6001600160a01b0381166103605760405162461bcd60e51b815260206004820152601560248201527f496e76616c69642052656473746f6e65205742544300000000000000000000006044820152606401610070565b6001600160a01b039a8b16608052988a1660a05296891660c05294881660e052928716610100529086166101205285166101405284166101605283166101805282166101a052166101c052610490565b80516001600160a01b03811681146103c6575f5ffd5b919050565b5f5f5f5f5f5f5f5f5f5f5f6101608c8e0312156103e6575f5ffd5b6103ef8c6103b0565b9a506103fd60208d016103b0565b995061040b60408d016103b0565b985061041960608d016103b0565b975061042760808d016103b0565b965061043560a08d016103b0565b955061044360c08d016103b0565b945061045160e08d016103b0565b93506104606101008d016103b0565b925061046f6101208d016103b0565b915061047e6101408d016103b0565b90509295989b509295989b9093969950565b60805160a05160c05160e05161010051610120516101405161016051610180516101a0516101c051610cd86105095f395f61041101525f61021d01525f61045f01525f61049901525f6104c001525f6103d701525f61043801525f61024401525f6102f201525f6102cb01525f61032c0152610cd85ff3fe608060405234801561000f575f5ffd5b50600436106101d1575f3560e01c8063631cfacc116100fe578063ad5c46481161009e578063c54e44eb1161006e578063c54e44eb146104bb578063c8a5f8e6146104e2578063fc95decb146104f5578063fe6d812414610508575f5ffd5b8063ad5c464814610433578063b06d543c1461045a578063b85b920914610481578063be2aaaed14610494575f5ffd5b806379061963116100d957806379061963146103bf57806389a30271146103d257806389f9109d146103f957806395d1741d1461040c575f5ffd5b8063631cfacc1461038557806365fecdf1146103985780636dc0ae22146103ac575f5ffd5b8063407123e11161017457806348a954941161014457806348a95494146103145780634dede3de1461032757806353cd2e4e1461034e57806356f760db14610372575f5ffd5b8063407123e1146102a057806340cbbcc3146102b357806345740477146102c657806346caf5e8146102ed575f5ffd5b806316a3d9fd116101af57806316a3d9fd1461023f5780631b6e5c6f146102665780632d2c55651461027b5780633c9ac7221461028d575f5ffd5b806304f88f4d146101d55780630a19399a1461020557806310a420c114610218575b5f5ffd5b600b546101e8906001600160a01b031681565b6040516001600160a01b0390911681526020015b60405180910390f35b6002546101e8906001600160a01b031681565b6101e87f000000000000000000000000000000000000000000000000000000000000000081565b6101e87f000000000000000000000000000000000000000000000000000000000000000081565b610279610274366004610b8d565b61051b565b005b5f546101e8906001600160a01b031681565b6007546101e8906001600160a01b031681565b6102796102ae366004610bee565b610765565b600e546101e8906001600160a01b031681565b6101e87f000000000000000000000000000000000000000000000000000000000000000081565b6101e87f000000000000000000000000000000000000000000000000000000000000000081565b6008546101e8906001600160a01b031681565b6101e87f000000000000000000000000000000000000000000000000000000000000000081565b60045461036290600160a01b900460ff1681565b60405190151581526020016101fc565b600d546101e8906001600160a01b031681565b6004546101e8906001600160a01b031681565b60045461036290600160a81b900460ff1681565b6009546101e8906001600160a01b031681565b6006546101e8906001600160a01b031681565b6101e87f000000000000000000000000000000000000000000000000000000000000000081565b600c546101e8906001600160a01b031681565b6101e87f000000000000000000000000000000000000000000000000000000000000000081565b6101e87f000000000000000000000000000000000000000000000000000000000000000081565b6101e87f000000000000000000000000000000000000000000000000000000000000000081565b6003546101e8906001600160a01b031681565b6101e87f000000000000000000000000000000000000000000000000000000000000000081565b6101e87f000000000000000000000000000000000000000000000000000000000000000081565b6005546101e8906001600160a01b031681565b600a546101e8906001600160a01b031681565b6001546101e8906001600160a01b031681565b600454600160a01b900460ff161561057a5760405162461bcd60e51b815260206004820152601a60248201527f436f726520636f6e74726163747320616c72656164792073657400000000000060448201526064015b60405180910390fd5b6001600160a01b0385166105c35760405162461bcd60e51b815260206004820152601060248201526f496e76616c696420547265617375727960801b6044820152606401610571565b6001600160a01b03841661060a5760405162461bcd60e51b815260206004820152600e60248201526d24b73b30b634b21026b4b73a32b960911b6044820152606401610571565b6001600160a01b0383166106565760405162461bcd60e51b8152602060048201526013602482015272496e76616c69642050726963654f7261636c6560681b6044820152606401610571565b6001600160a01b0382166106ac5760405162461bcd60e51b815260206004820152601760248201527f496e76616c696420496465616c5553444d616e616765720000000000000000006044820152606401610571565b6001600160a01b0381166106f95760405162461bcd60e51b8152602060048201526014602482015273125b9d985b1a5908125b9d195c995cdd141bdbdb60621b6044820152606401610571565b5f80546001600160a01b039687166001600160a01b03199182161790915560018054958716958216959095179094556002805493861693851693909317909255600380549185169190931617909155600480546001600160a81b0319169190921617600160a01b179055565b600454600160a81b900460ff16156107bf5760405162461bcd60e51b815260206004820181905260248201527f5065726970686572616c20636f6e74726163747320616c7265616479207365746044820152606401610571565b6001600160a01b038a1661080d5760405162461bcd60e51b815260206004820152601560248201527424b73b30b634b21029ba30b5b4b733a937baba32b960591b6044820152606401610571565b6001600160a01b0389166108595760405162461bcd60e51b8152602060048201526013602482015272125b9d985b1a590811985c9b5a5b99d41bdbdb606a1b6044820152606401610571565b6001600160a01b03881661089f5760405162461bcd60e51b815260206004820152600d60248201526c125b9d985b1a59081cdd109511609a1b6044820152606401610571565b6001600160a01b0387166108e55760405162461bcd60e51b815260206004820152600d60248201526c24b73b30b634b21039ba212a2160991b6044820152606401610571565b6001600160a01b03861661092e5760405162461bcd60e51b815260206004820152601060248201526f24b73b30b634b21023b7bb32b93737b960811b6044820152606401610571565b6001600160a01b0385166109795760405162461bcd60e51b8152602060048201526012602482015271496e76616c696420545741504f7261636c6560701b6044820152606401610571565b6001600160a01b0384166109c85760405162461bcd60e51b8152602060048201526016602482015275496e76616c696420506f6f6c20574254432f5553444360501b6044820152606401610571565b6001600160a01b038316610a165760405162461bcd60e51b8152602060048201526015602482015274496e76616c696420506f6f6c204254442f5553444360581b6044820152606401610571565b6001600160a01b038216610a635760405162461bcd60e51b8152602060048201526014602482015273125b9d985b1a5908141bdbdb081095108bd0951160621b6044820152606401610571565b6001600160a01b038116610ab05760405162461bcd60e51b8152602060048201526014602482015273125b9d985b1a5908141bdbdb08109494cbd0951160621b6044820152606401610571565b600580546001600160a01b03199081166001600160a01b039c8d16179091556006805482169a8c169a909a17909955600780548a16988b1698909817909755600880548916968a169690961790955560098054881694891694909417909355600a8054871692881692909217909155600b80548616918716919091179055600c80548516918616919091179055600d80548416918516919091179055600e8054909216921691909117905560048054600160a81b60ff60a81b19909116179055565b80356001600160a01b0381168114610b88575f5ffd5b919050565b5f5f5f5f5f60a08688031215610ba1575f5ffd5b610baa86610b72565b9450610bb860208701610b72565b9350610bc660408701610b72565b9250610bd460608701610b72565b9150610be260808701610b72565b90509295509295909350565b5f5f5f5f5f5f5f5f5f5f6101408b8d031215610c08575f5ffd5b610c118b610b72565b9950610c1f60208c01610b72565b9850610c2d60408c01610b72565b9750610c3b60608c01610b72565b9650610c4960808c01610b72565b9550610c5760a08c01610b72565b9450610c6560c08c01610b72565b9350610c7360e08c01610b72565b9250610c826101008c01610b72565b9150610c916101208c01610b72565b90509295989b9194979a509295985056fea264697066735822122083a54eaeb70840268043892abb93484579d7c3bf5d2cbdfbdcc6caa19db85b9864736f6c634300081e0033",
  "linkReferences": {},
  "deployedLinkReferences": {},
  "immutableReferences": {
    "5": [
      {
        "length": 32,
        "start": 812
      }
    ],
    "8": [
      {
        "length": 32,
        "start": 715
      }
    ],
    "11": [
      {
        "length": 32,
        "start": 754
      }
    ],
    "14": [
      {
        "length": 32,
        "start": 580
      }
    ],
    "17": [
      {
        "length": 32,
        "start": 1080
      }
    ],
    "20": [
      {
        "length": 32,
        "start": 983
      }
    ],
    "23": [
      {
        "length": 32,
        "start": 1216
      }
    ],
    "47": [
      {
        "length": 32,
        "start": 1177
      }
    ],
    "50": [
      {
        "length": 32,
        "start": 1119
      }
    ],
    "53": [
      {
        "length": 32,
        "start": 541
      }
    ],
    "56": [
      {
        "length": 32,
        "start": 1041
      }
    ]
  },
  "inputSourceName": "project/contracts/ConfigCore.sol",
  "buildInfoId": "solc-0_8_30-243b054ffa98a3036c1e72f8eeb044ae29a89b99"
}