{
  "_format": "hh3-artifact-1",
  "contractName": "UniswapV2TWAPOracle",
  "sourceName": "contracts/UniswapV2TWAPOracle.sol",
  "abi": [
    {
      "anonymous": false,
      "inputs": [
        {
          "indexed": true,
          "internalType": "address",
          "name": "pair",
          "type": "address"
        },
        {
          "indexed": false,
          "internalType": "uint256",
          "name": "price0Cumulative",
          "type": "uint256"
        },
        {
          "indexed": false,
          "internalType": "uint256",
          "name": "price1Cumulative",
          "type": "uint256"
        },
        {
          "indexed": false,
          "internalType": "uint32",
          "name": "timestamp",
          "type": "uint32"
        }
      ],
      "name": "ObservationUpdated",
      "type": "event"
    },
    {
      "inputs": [],
      "name": "PERIOD",
      "outputs": [
        {
          "internalType": "uint256",
          "name": "",
          "type": "uint256"
        }
      ],
      "stateMutability": "view",
      "type": "function"
    },
    {
      "inputs": [
        {
          "internalType": "address",
          "name": "pair",
          "type": "address"
        }
      ],
      "name": "getObservationInfo",
      "outputs": [
        {
          "internalType": "uint32",
          "name": "olderTimestamp",
          "type": "uint32"
        },
        {
          "internalType": "uint32",
          "name": "newerTimestamp",
          "type": "uint32"
        },
        {
          "internalType": "uint32",
          "name": "timeElapsed",
          "type": "uint32"
        }
      ],
      "stateMutability": "view",
      "type": "function"
    },
    {
      "inputs": [
        {
          "internalType": "address",
          "name": "pair",
          "type": "address"
        }
      ],
      "name": "getTWAP",
      "outputs": [
        {
          "internalType": "uint256",
          "name": "",
          "type": "uint256"
        }
      ],
      "stateMutability": "view",
      "type": "function"
    },
    {
      "inputs": [
        {
          "internalType": "address",
          "name": "pair",
          "type": "address"
        },
        {
          "internalType": "uint8",
          "name": "token0Decimals",
          "type": "uint8"
        },
        {
          "internalType": "uint8",
          "name": "token1Decimals",
          "type": "uint8"
        }
      ],
      "name": "getTWAPPrice",
      "outputs": [
        {
          "internalType": "uint256",
          "name": "",
          "type": "uint256"
        }
      ],
      "stateMutability": "view",
      "type": "function"
    },
    {
      "inputs": [
        {
          "internalType": "address",
          "name": "pair",
          "type": "address"
        }
      ],
      "name": "isTWAPReady",
      "outputs": [
        {
          "internalType": "bool",
          "name": "",
          "type": "bool"
        }
      ],
      "stateMutability": "view",
      "type": "function"
    },
    {
      "inputs": [
        {
          "internalType": "address",
          "name": "pair",
          "type": "address"
        }
      ],
      "name": "needsUpdate",
      "outputs": [
        {
          "internalType": "bool",
          "name": "",
          "type": "bool"
        }
      ],
      "stateMutability": "view",
      "type": "function"
    },
    {
      "inputs": [
        {
          "internalType": "address",
          "name": "",
          "type": "address"
        },
        {
          "internalType": "uint256",
          "name": "",
          "type": "uint256"
        }
      ],
      "name": "pairObservations",
      "outputs": [
        {
          "internalType": "uint32",
          "name": "timestamp",
          "type": "uint32"
        },
        {
          "internalType": "uint256",
          "name": "price0Cumulative",
          "type": "uint256"
        },
        {
          "internalType": "uint256",
          "name": "price1Cumulative",
          "type": "uint256"
        }
      ],
      "stateMutability": "view",
      "type": "function"
    },
    {
      "inputs": [
        {
          "internalType": "address",
          "name": "pair",
          "type": "address"
        }
      ],
      "name": "updateIfNeeded",
      "outputs": [
        {
          "internalType": "bool",
          "name": "updated",
          "type": "bool"
        }
      ],
      "stateMutability": "nonpayable",
      "type": "function"
    }
  ],
  "bytecode": "0x6080604052348015600e575f5ffd5b50610be48061001c5f395ff3fe608060405234801561000f575f5ffd5b5060043610610085575f3560e01c806364dca9c71161005857806364dca9c714610181578063b4d1d795146101a2578063b724d010146101ab578063bfcc8e42146101be575f5ffd5b8063023d95291461008957806309d41cb8146100b1578063136a0e33146100c4578063550848831461016e575b5f5ffd5b61009c610097366004610923565b6101f3565b60405190151581526020015b60405180910390f35b61009c6100bf366004610923565b610262565b6101476100d2366004610923565b6001600160a01b03165f81815260208181526040808320815160608082018452825463ffffffff90811683526001840154838701526002840154838601529686529484528251948501835260038201549095168085526004820154938501939093526005015492019190915290519182820390565b6040805163ffffffff948516815292841660208401529216918101919091526060016100a8565b61009c61017c366004610923565b61032a565b61019461018f36600461094c565b610351565b6040519081526020016100a8565b61019461070881565b6101946101b9366004610923565b6103f1565b6101d16101cc36600461098c565b61059c565b6040805163ffffffff90941684526020840192909252908201526060016100a8565b6001600160a01b0381165f908152602081815260408083208151606081018352600382015463ffffffff168082526004830154948201949094526005909101549181019190915290158061025b57508051610257906107089063ffffffff166109c8565b4210155b9392505050565b6001600160a01b0381165f81815260208181526040808320815160608082018452825463ffffffff90811683526001840154838701526002840154838601529686528585528351908101845260038301549096168087526004830154948701949094526005909101549185019190915291929083036102e457505f9392505050565b805182514291820390820361070863ffffffff831610158061031f5750845163ffffffff161580159061031f57506107088163ffffffff1610155b979650505050505050565b5f610334826101f3565b1561034a57610342826105d5565b506001919050565b505f919050565b5f5f61035c856103f1565b90505f8360ff168560ff16106103ac575f61037785876109e1565b61038290600a610add565b905060706103908285610aeb565b6103a290670de0b6b3a7640000610aeb565b901c9150506103e8565b5f6103b786866109e1565b6103c290600a610add565b90508060706103d985670de0b6b3a7640000610aeb565b6103e492911c610b16565b9150505b95945050505050565b5f5f5f6103fd8461071b565b6001600160a01b0387165f81815260208181526040808320815160608082018452825463ffffffff90811683526001840154838701526002840154838601529686529484528251948501835260038201549095168085526004820154938501939093526005015490830152949650919450929091506104b55760405162461bcd60e51b815260206004820152600f60248201526e4e6f206f62736572766174696f6e7360881b60448201526064015b60405180910390fd5b6104dc60405180606001604052805f63ffffffff1681526020015f81526020015f81525090565b8151835190850390850361070863ffffffff8316106104fd57839250610570565b845163ffffffff161580159061051b57506107088163ffffffff1610155b1561052857849250610570565b60405162461bcd60e51b815260206004820152601c60248201527f4e6f206f62736572766174696f6e203e3d20504552494f442061676f0000000060448201526064016104ac565b8251602084015190870390880361058d63ffffffff831682610b16565b9b9a5050505050505050505050565b5f602052815f5260405f2081600281106105b4575f80fd5b600302018054600182015460029092015463ffffffff909116935090915083565b5f5f5f6105e18461071b565b6001600160a01b0387165f908152602081905260409020929550909350915060016001600160a01b0386165f9081526020819052604081206003929092029290920191825460039190910291909101805463ffffffff191663ffffffff92831617815560018084015481830155600293840154939091019290925560408051606081018252918416825260208083018790528282018690526001600160a01b0388165f90815290819052209091825160039190910291909101805463ffffffff191663ffffffff92831617815560208084015160018301556040938401516002909201919091558251868152908101859052908316918101919091526001600160a01b038516907f8c65b5cef7be4417296e3570bac50029e7ff1a1f0d68ded2170f9808d5bb02809060600160405180910390a250505050565b5f5f5f429050836001600160a01b0316635909c0d56040518163ffffffff1660e01b8152600401602060405180830381865afa15801561075d573d5f5f3e3d5ffd5b505050506040513d601f19601f820116820180604052508101906107819190610b35565b9250836001600160a01b0316635a3d54936040518163ffffffff1660e01b8152600401602060405180830381865afa1580156107bf573d5f5f3e3d5ffd5b505050506040513d601f19601f820116820180604052508101906107e39190610b35565b91505f5f5f866001600160a01b0316630902f1ac6040518163ffffffff1660e01b8152600401606060405180830381865afa158015610824573d5f5f3e3d5ffd5b505050506040513d601f19601f820116820180604052508101906108489190610b62565b9250925092508363ffffffff168163ffffffff161415801561087257506001600160701b03831615155b801561088657506001600160701b03821615155b156108fe5780840363ffffffff81166001600160701b0385166dffffffffffffffffffffffffffff60701b607086901b16816108c4576108c4610b02565b0402870196508063ffffffff16836001600160701b03166070866001600160701b0316901b816108f6576108f6610b02565b040286019550505b5050509193909250565b80356001600160a01b038116811461091e575f5ffd5b919050565b5f60208284031215610933575f5ffd5b61025b82610908565b803560ff8116811461091e575f5ffd5b5f5f5f6060848603121561095e575f5ffd5b61096784610908565b92506109756020850161093c565b91506109836040850161093c565b90509250925092565b5f5f6040838503121561099d575f5ffd5b6109a683610908565b946020939093013593505050565b634e487b7160e01b5f52601160045260245ffd5b808201808211156109db576109db6109b4565b92915050565b60ff82811682821603908111156109db576109db6109b4565b6001815b6001841115610a3557808504811115610a1957610a196109b4565b6001841615610a2757908102905b60019390931c9280026109fe565b935093915050565b5f82610a4b575060016109db565b81610a5757505f6109db565b8160018114610a6d5760028114610a7757610a93565b60019150506109db565b60ff841115610a8857610a886109b4565b50506001821b6109db565b5060208310610133831016604e8410600b8410161715610ab6575081810a6109db565b610ac25f1984846109fa565b805f1904821115610ad557610ad56109b4565b029392505050565b5f61025b60ff841683610a3d565b80820281158282048414176109db576109db6109b4565b634e487b7160e01b5f52601260045260245ffd5b5f82610b3057634e487b7160e01b5f52601260045260245ffd5b500490565b5f60208284031215610b45575f5ffd5b5051919050565b80516001600160701b038116811461091e575f5ffd5b5f5f5f60608486031215610b74575f5ffd5b610b7d84610b4c565b9250610b8b60208501610b4c565b9150604084015163ffffffff81168114610ba3575f5ffd5b80915050925092509256fea2646970667358221220aaccba281dc458d8a7316396d0c9b6920cf917d5a8c712c120b80491f59a193b64736f6c634300081e0033",
  "linkReferences": {},
  "deployedLinkReferences": {},
  "immutableReferences": {},
  "inputSourceName": "project/contracts/UniswapV2TWAPOracle.sol",
  "buildInfoId": "solc-0_8_30-00a6935bcdcda40d5aef4ef6678886ab2d7a326b"
}