{
  "_format": "hh3-artifact-1",
  "contractName": "PriceOracle",
  "sourceName": "contracts/PriceOracle.sol",
  "abi": [
    {
      "inputs": [
        {
          "internalType": "address",
          "name": "initialOwner",
          "type": "address"
        },
        {
          "internalType": "address",
          "name": "_core",
          "type": "address"
        },
        {
          "internalType": "address",
          "name": "_twapOracle",
          "type": "address"
        },
        {
          "internalType": "bytes32",
          "name": "_pythWbtcPriceId",
          "type": "bytes32"
        },
        {
          "internalType": "bytes32",
          "name": "_redstoneWbtcDataFeedId",
          "type": "bytes32"
        },
        {
          "internalType": "uint8",
          "name": "_redstoneWbtcDecimals",
          "type": "uint8"
        }
      ],
      "stateMutability": "nonpayable",
      "type": "constructor"
    },
    {
      "inputs": [
        {
          "internalType": "address",
          "name": "owner",
          "type": "address"
        }
      ],
      "name": "OwnableInvalidOwner",
      "type": "error"
    },
    {
      "inputs": [
        {
          "internalType": "address",
          "name": "account",
          "type": "address"
        }
      ],
      "name": "OwnableUnauthorizedAccount",
      "type": "error"
    },
    {
      "anonymous": false,
      "inputs": [
        {
          "indexed": false,
          "internalType": "uint256",
          "name": "oldBps",
          "type": "uint256"
        },
        {
          "indexed": false,
          "internalType": "uint256",
          "name": "newBps",
          "type": "uint256"
        }
      ],
      "name": "MaxDeviationUpdated",
      "type": "event"
    },
    {
      "anonymous": false,
      "inputs": [
        {
          "indexed": true,
          "internalType": "address",
          "name": "previousOwner",
          "type": "address"
        },
        {
          "indexed": true,
          "internalType": "address",
          "name": "newOwner",
          "type": "address"
        }
      ],
      "name": "OwnershipTransferred",
      "type": "event"
    },
    {
      "anonymous": false,
      "inputs": [
        {
          "indexed": true,
          "internalType": "address",
          "name": "token",
          "type": "address"
        },
        {
          "indexed": false,
          "internalType": "uint256",
          "name": "price",
          "type": "uint256"
        },
        {
          "indexed": false,
          "internalType": "uint256",
          "name": "timestamp",
          "type": "uint256"
        }
      ],
      "name": "PriceQueried",
      "type": "event"
    },
    {
      "anonymous": false,
      "inputs": [
        {
          "indexed": false,
          "internalType": "bool",
          "name": "enabled",
          "type": "bool"
        }
      ],
      "name": "TWAPModeChanged",
      "type": "event"
    },
    {
      "anonymous": false,
      "inputs": [
        {
          "indexed": true,
          "internalType": "address",
          "name": "oldOracle",
          "type": "address"
        },
        {
          "indexed": true,
          "internalType": "address",
          "name": "newOracle",
          "type": "address"
        }
      ],
      "name": "TWAPOracleUpdated",
      "type": "event"
    },
    {
      "inputs": [],
      "name": "DEVIATION_UPDATE_COOLDOWN",
      "outputs": [
        {
          "internalType": "uint256",
          "name": "",
          "type": "uint256"
        }
      ],
      "stateMutability": "view",
      "type": "function"
    },
    {
      "inputs": [],
      "name": "GOV_COOLDOWN",
      "outputs": [
        {
          "internalType": "uint256",
          "name": "",
          "type": "uint256"
        }
      ],
      "stateMutability": "view",
      "type": "function"
    },
    {
      "inputs": [],
      "name": "MAX_DEVIATION_CEILING",
      "outputs": [
        {
          "internalType": "uint256",
          "name": "",
          "type": "uint256"
        }
      ],
      "stateMutability": "view",
      "type": "function"
    },
    {
      "inputs": [],
      "name": "MIN_DEVIATION_FLOOR",
      "outputs": [
        {
          "internalType": "uint256",
          "name": "",
          "type": "uint256"
        }
      ],
      "stateMutability": "view",
      "type": "function"
    },
    {
      "inputs": [],
      "name": "PYTH_MAX_CONF_RATIO",
      "outputs": [
        {
          "internalType": "uint64",
          "name": "",
          "type": "uint64"
        }
      ],
      "stateMutability": "view",
      "type": "function"
    },
    {
      "inputs": [],
      "name": "PYTH_MAX_STALENESS",
      "outputs": [
        {
          "internalType": "uint256",
          "name": "",
          "type": "uint256"
        }
      ],
      "stateMutability": "view",
      "type": "function"
    },
    {
      "inputs": [],
      "name": "core",
      "outputs": [
        {
          "internalType": "contract ConfigCore",
          "name": "",
          "type": "address"
        }
      ],
      "stateMutability": "view",
      "type": "function"
    },
    {
      "inputs": [],
      "name": "getBRSPrice",
      "outputs": [
        {
          "internalType": "uint256",
          "name": "",
          "type": "uint256"
        }
      ],
      "stateMutability": "view",
      "type": "function"
    },
    {
      "inputs": [],
      "name": "getBTBPrice",
      "outputs": [
        {
          "internalType": "uint256",
          "name": "",
          "type": "uint256"
        }
      ],
      "stateMutability": "view",
      "type": "function"
    },
    {
      "inputs": [],
      "name": "getBTDPrice",
      "outputs": [
        {
          "internalType": "uint256",
          "name": "",
          "type": "uint256"
        }
      ],
      "stateMutability": "view",
      "type": "function"
    },
    {
      "inputs": [],
      "name": "getChainlinkBTCUSD",
      "outputs": [
        {
          "internalType": "uint256",
          "name": "",
          "type": "uint256"
        }
      ],
      "stateMutability": "view",
      "type": "function"
    },
    {
      "inputs": [],
      "name": "getIUSDPrice",
      "outputs": [
        {
          "internalType": "uint256",
          "name": "",
          "type": "uint256"
        }
      ],
      "stateMutability": "view",
      "type": "function"
    },
    {
      "inputs": [
        {
          "internalType": "address",
          "name": "token",
          "type": "address"
        }
      ],
      "name": "getPrice",
      "outputs": [
        {
          "internalType": "uint256",
          "name": "",
          "type": "uint256"
        }
      ],
      "stateMutability": "view",
      "type": "function"
    },
    {
      "inputs": [
        {
          "internalType": "address",
          "name": "pool",
          "type": "address"
        },
        {
          "internalType": "address",
          "name": "base",
          "type": "address"
        },
        {
          "internalType": "address",
          "name": "quote",
          "type": "address"
        }
      ],
      "name": "getPrice",
      "outputs": [
        {
          "internalType": "uint256",
          "name": "",
          "type": "uint256"
        }
      ],
      "stateMutability": "view",
      "type": "function"
    },
    {
      "inputs": [],
      "name": "getStBTBPrice",
      "outputs": [
        {
          "internalType": "uint256",
          "name": "",
          "type": "uint256"
        }
      ],
      "stateMutability": "view",
      "type": "function"
    },
    {
      "inputs": [],
      "name": "getStBTDPrice",
      "outputs": [
        {
          "internalType": "uint256",
          "name": "",
          "type": "uint256"
        }
      ],
      "stateMutability": "view",
      "type": "function"
    },
    {
      "inputs": [],
      "name": "getTWAPOracle",
      "outputs": [
        {
          "internalType": "address",
          "name": "",
          "type": "address"
        }
      ],
      "stateMutability": "view",
      "type": "function"
    },
    {
      "inputs": [],
      "name": "getWBTCPrice",
      "outputs": [
        {
          "internalType": "uint256",
          "name": "",
          "type": "uint256"
        }
      ],
      "stateMutability": "view",
      "type": "function"
    },
    {
      "inputs": [],
      "name": "isTWAPEnabled",
      "outputs": [
        {
          "internalType": "bool",
          "name": "",
          "type": "bool"
        }
      ],
      "stateMutability": "view",
      "type": "function"
    },
    {
      "inputs": [],
      "name": "lastDeviationUpdate",
      "outputs": [
        {
          "internalType": "uint256",
          "name": "",
          "type": "uint256"
        }
      ],
      "stateMutability": "view",
      "type": "function"
    },
    {
      "inputs": [],
      "name": "maxDeviationBps",
      "outputs": [
        {
          "internalType": "uint256",
          "name": "",
          "type": "uint256"
        }
      ],
      "stateMutability": "view",
      "type": "function"
    },
    {
      "inputs": [],
      "name": "owner",
      "outputs": [
        {
          "internalType": "address",
          "name": "",
          "type": "address"
        }
      ],
      "stateMutability": "view",
      "type": "function"
    },
    {
      "inputs": [],
      "name": "pythWbtcPriceId",
      "outputs": [
        {
          "internalType": "bytes32",
          "name": "",
          "type": "bytes32"
        }
      ],
      "stateMutability": "view",
      "type": "function"
    },
    {
      "inputs": [],
      "name": "redstoneWbtcDataFeedId",
      "outputs": [
        {
          "internalType": "bytes32",
          "name": "",
          "type": "bytes32"
        }
      ],
      "stateMutability": "view",
      "type": "function"
    },
    {
      "inputs": [],
      "name": "redstoneWbtcDecimals",
      "outputs": [
        {
          "internalType": "uint8",
          "name": "",
          "type": "uint8"
        }
      ],
      "stateMutability": "view",
      "type": "function"
    },
    {
      "inputs": [],
      "name": "renounceOwnership",
      "outputs": [],
      "stateMutability": "nonpayable",
      "type": "function"
    },
    {
      "inputs": [
        {
          "internalType": "uint256",
          "name": "newBps",
          "type": "uint256"
        }
      ],
      "name": "setMaxDeviationBps",
      "outputs": [],
      "stateMutability": "nonpayable",
      "type": "function"
    },
    {
      "inputs": [
        {
          "internalType": "address",
          "name": "_twapOracle",
          "type": "address"
        }
      ],
      "name": "setTWAPOracle",
      "outputs": [],
      "stateMutability": "nonpayable",
      "type": "function"
    },
    {
      "inputs": [
        {
          "internalType": "bool",
          "name": "_useTWAP",
          "type": "bool"
        }
      ],
      "name": "setUseTWAP",
      "outputs": [],
      "stateMutability": "nonpayable",
      "type": "function"
    },
    {
      "inputs": [
        {
          "internalType": "address",
          "name": "newOwner",
          "type": "address"
        }
      ],
      "name": "transferOwnership",
      "outputs": [],
      "stateMutability": "nonpayable",
      "type": "function"
    },
    {
      "inputs": [],
      "name": "twapOracle",
      "outputs": [
        {
          "internalType": "contract IUniswapV2TWAPOracle",
          "name": "",
          "type": "address"
        }
      ],
      "stateMutability": "view",
      "type": "function"
    },
    {
      "inputs": [],
      "name": "updateTWAPAll",
      "outputs": [],
      "stateMutability": "nonpayable",
      "type": "function"
    },
    {
      "inputs": [],
      "name": "updateTWAPForBRS",
      "outputs": [],
      "stateMutability": "nonpayable",
      "type": "function"
    },
    {
      "inputs": [],
      "name": "updateTWAPForBTB",
      "outputs": [],
      "stateMutability": "nonpayable",
      "type": "function"
    },
    {
      "inputs": [],
      "name": "updateTWAPForBTD",
      "outputs": [],
      "stateMutability": "nonpayable",
      "type": "function"
    },
    {
      "inputs": [],
      "name": "updateTWAPForWBTC",
      "outputs": [],
      "stateMutability": "nonpayable",
      "type": "function"
    },
    {
      "inputs": [],
      "name": "useTWAP",
      "outputs": [
        {
          "internalType": "bool",
          "name": "",
          "type": "bool"
        }
      ],
      "stateMutability": "view",
      "type": "function"
    },
    {
      "inputs": [],
      "name": "useTWAPDefault",
      "outputs": [
        {
          "internalType": "bool",
          "name": "",
          "type": "bool"
        }
      ],
      "stateMutability": "view",
      "type": "function"
    }
  ],
  "bytecode": "0x6101206040526064600255348015610015575f5ffd5b50604051613d1b380380613d1b833981016040819052610034916102c5565b856001600160a01b03811661006357604051631e4fbdf760e01b81525f60048201526024015b60405180910390fd5b61006c8161025b565b506001600160a01b0386166100b35760405162461bcd60e51b815260206004820152600d60248201526c24b73b30b634b21037bbb732b960991b604482015260640161005a565b6001600160a01b0385166101095760405162461bcd60e51b815260206004820152601460248201527f496e76616c696420636f72652061646472657373000000000000000000000000604482015260640161005a565b826101565760405162461bcd60e51b815260206004820152601560248201527f496e76616c696420507974682070726963652069640000000000000000000000604482015260640161005a565b816101a35760405162461bcd60e51b815260206004820152601860248201527f496e76616c69642052656473746f6e6520666565642069640000000000000000604482015260640161005a565b5f8160ff16116101f55760405162461bcd60e51b815260206004820152601960248201527f496e76616c69642052656473746f6e6520646563696d616c7300000000000000604482015260640161005a565b6001600160a01b0380861660805260a084905260c083905260ff821660e0526001610100819052805460ff60a01b1916600160a01b17905584161561025057600180546001600160a01b0319166001600160a01b0386161790555b505050505050610332565b5f80546001600160a01b038381166001600160a01b0319831681178455604051919092169283917f8be0079c531659141344cd1fd0a4f28419497f9722a3daafe3b4186f6b6457e09190a35050565b80516001600160a01b03811681146102c0575f5ffd5b919050565b5f5f5f5f5f5f60c087890312156102da575f5ffd5b6102e3876102aa565b95506102f1602088016102aa565b94506102ff604088016102aa565b6060880151608089015160a08a0151929650909450925060ff81168114610324575f5ffd5b809150509295509295509295565b60805160a05160c05160e051610100516138866104955f395f61029801525f818161033301528181612c7c0152612dc301525f818161039101528181612c180152612cfa01525f81816102e00152818161293201526129a401525f818161046d015281816104c7015281816106c001528181610740015281816107c00152818161090d01528181610a2301528181610ac901528181610b6901528181610c0901528181610ca901528181610d4901528181610de901528181610e90015281816111da0152818161125a015281816113010152818161140c0152818161146a015281816115e4015281816116b40152818161175b015281816118660152818161197101528181611a7c01528181611b2301528181611bbb01528181611db601528181611e3601528181611eb601528181611f7a01528181611ffa015281816127e10152818161286601528181612b4801528181612ea00152612f4001526138865ff3fe608060405234801561000f575f5ffd5b5060043610610229575f3560e01c80638da5cb5b1161012a578063c1709bc2116100b4578063f2fde38b11610079578063f2fde38b1461048f578063f42d7301146104a2578063f8ff84d3146104ab578063fa7d826a146104b3578063ff8336ff146104bb575f5ffd5b8063c1709bc214610447578063c89f4b9814610450578063e9976d2314610458578063ed96f20314610460578063f2f4eb2614610468575f5ffd5b8063a645b543116100fa578063a645b5431461022d578063a7315ab814610427578063ae8ba6791461042f578063b14ea75914610437578063b8cbf16b1461043f575f5ffd5b80638da5cb5b146103f45780639043292a146104045780639e9d68b614610417578063a0e8d3561461041f575f5ffd5b80633e3147a0116101b65780636328c11a1161017b5780636328c11a1461038c5780637100d05c146103b3578063715018a6146103c65780638068e42c146103ce5780638c4039c5146103e1575f5ffd5b80633e3147a01461030a5780633ee7a7011461031257806341976e091461031b57806346abc3cb1461032e5780635954a86f14610367575f5ffd5b80632536dbfb116101fc5780632536dbfb1461027e578063273441a21461029357806328fc7502146102ba578063310b94b0146102db578063324affc114610302575f5ffd5b80630f68bb631461022d57806316df7ea11461024a5780631c1716641461026e57806322f9f22714610276575b5f5ffd5b6102376201518081565b6040519081526020015b60405180910390f35b60015461025e90600160a01b900460ff1681565b6040519015158152602001610241565b6102376104c3565b6102376106b9565b61029161028c3660046133be565b610867565b005b61025e7f000000000000000000000000000000000000000000000000000000000000000081565b6102c2606481565b60405167ffffffffffffffff9091168152602001610241565b6102377f000000000000000000000000000000000000000000000000000000000000000081565b6102916108c0565b61025e6109f6565b61023760025481565b6102376103293660046133be565b610a20565b6103557f000000000000000000000000000000000000000000000000000000000000000081565b60405160ff9091168152602001610241565b6001546001600160a01b03165b6040516001600160a01b039091168152602001610241565b6102377f000000000000000000000000000000000000000000000000000000000000000081565b6102376103c13660046133d9565b610f88565b610291610fd9565b6102916103dc366004613421565b610fea565b6102916103ef366004613445565b611173565b5f546001600160a01b0316610374565b600154610374906001600160a01b031681565b610237603281565b6102376111d3565b6102916112b4565b610237611466565b6102376115de565b610291611667565b6102376101f481565b610237603c81565b61029161170e565b610291611ad6565b6103747f000000000000000000000000000000000000000000000000000000000000000081565b61029161049d3660046133be565b611b7d565b61023760035481565b610237611bb7565b610237611d80565b610237611f74565b5f5f7f00000000000000000000000000000000000000000000000000000000000000006001600160a01b03166348a954946040518163ffffffff1660e01b8152600401602060405180830381865afa158015610521573d5f5f3e3d5ffd5b505050506040513d601f19601f820116820180604052508101906105459190613460565b90506001600160a01b0381166105995760405162461bcd60e51b81526020600482015260146024820152731cdd109510881b9bdd0818dbdb999a59dd5c995960621b60448201526064015b60405180910390fd5b5f8190505f816001600160a01b03166318160ddd6040518163ffffffff1660e01b8152600401602060405180830381865afa1580156105da573d5f5f3e3d5ffd5b505050506040513d601f19601f820116820180604052508101906105fe919061347b565b9050805f036106175761060f6111d3565b935050505090565b5f826001600160a01b03166301e1d1146040518163ffffffff1660e01b8152600401602060405180830381865afa158015610654573d5f5f3e3d5ffd5b505050506040513d601f19601f82011682018060405250810190610678919061347b565b90505f61068e82670de0b6b3a764000085612054565b90505f6106996111d3565b90506106ae8282670de0b6b3a7640000612054565b965050505050505090565b5f5f61083e7f00000000000000000000000000000000000000000000000000000000000000006001600160a01b03166340cbbcc36040518163ffffffff1660e01b8152600401602060405180830381865afa15801561071a573d5f5f3e3d5ffd5b505050506040513d601f19601f8201168201806040525081019061073e9190613460565b7f00000000000000000000000000000000000000000000000000000000000000006001600160a01b03166316a3d9fd6040518163ffffffff1660e01b8152600401602060405180830381865afa15801561079a573d5f5f3e3d5ffd5b505050506040513d601f19601f820116820180604052508101906107be9190613460565b7f00000000000000000000000000000000000000000000000000000000000000006001600160a01b031663457404776040518163ffffffff1660e01b8152600401602060405180830381865afa15801561081a573d5f5f3e3d5ffd5b505050506040513d601f19601f820116820180604052508101906103c19190613460565b90505f610849611f74565b90505f61085f8383670de0b6b3a7640000612054565b949350505050565b61086f612104565b600180546001600160a01b038381166001600160a01b0319831681179093556040519116919082907fbd88378c1310b1e36e9a14008ea9fb3ec76db83d1ebdbf4ea1f57e11090cd8be905f90a35050565b600154600160a01b900460ff1680156108e357506001546001600160a01b031615155b156109f45760015f9054906101000a90046001600160a01b03166001600160a01b031663550848837f00000000000000000000000000000000000000000000000000000000000000006001600160a01b03166304f88f4d6040518163ffffffff1660e01b8152600401602060405180830381865afa158015610967573d5f5f3e3d5ffd5b505050506040513d601f19601f8201168201806040525081019061098b9190613460565b6040516001600160e01b031960e084901b1681526001600160a01b0390911660048201526024016020604051808303815f875af11580156109ce573d5f5f3e3d5ffd5b505050506040513d601f19601f820116820180604052508101906109f29190613492565b505b565b6001545f90600160a01b900460ff168015610a1b57506001546001600160a01b031615155b905090565b5f7f00000000000000000000000000000000000000000000000000000000000000006001600160a01b0316634dede3de6040518163ffffffff1660e01b8152600401602060405180830381865afa158015610a7d573d5f5f3e3d5ffd5b505050506040513d601f19601f82011682018060405250810190610aa19190613460565b6001600160a01b0316826001600160a01b031603610ac757610ac1611d80565b92915050565b7f00000000000000000000000000000000000000000000000000000000000000006001600160a01b031663457404776040518163ffffffff1660e01b8152600401602060405180830381865afa158015610b23573d5f5f3e3d5ffd5b505050506040513d601f19601f82011682018060405250810190610b479190613460565b6001600160a01b0316826001600160a01b031603610b6757610ac1611f74565b7f00000000000000000000000000000000000000000000000000000000000000006001600160a01b03166346caf5e86040518163ffffffff1660e01b8152600401602060405180830381865afa158015610bc3573d5f5f3e3d5ffd5b505050506040513d601f19601f82011682018060405250810190610be79190613460565b6001600160a01b0316826001600160a01b031603610c0757610ac16111d3565b7f00000000000000000000000000000000000000000000000000000000000000006001600160a01b03166316a3d9fd6040518163ffffffff1660e01b8152600401602060405180830381865afa158015610c63573d5f5f3e3d5ffd5b505050506040513d601f19601f82011682018060405250810190610c879190613460565b6001600160a01b0316826001600160a01b031603610ca757610ac16106b9565b7f00000000000000000000000000000000000000000000000000000000000000006001600160a01b0316633c9ac7226040518163ffffffff1660e01b8152600401602060405180830381865afa158015610d03573d5f5f3e3d5ffd5b505050506040513d601f19601f82011682018060405250810190610d279190613460565b6001600160a01b0316826001600160a01b031603610d4757610ac1611bb7565b7f00000000000000000000000000000000000000000000000000000000000000006001600160a01b03166348a954946040518163ffffffff1660e01b8152600401602060405180830381865afa158015610da3573d5f5f3e3d5ffd5b505050506040513d601f19601f82011682018060405250810190610dc79190613460565b6001600160a01b0316826001600160a01b031603610de757610ac16104c3565b7f00000000000000000000000000000000000000000000000000000000000000006001600160a01b03166389a302716040518163ffffffff1660e01b8152600401602060405180830381865afa158015610e43573d5f5f3e3d5ffd5b505050506040513d601f19601f82011682018060405250810190610e679190613460565b6001600160a01b0316826001600160a01b031603610e8e5750670de0b6b3a7640000919050565b7f00000000000000000000000000000000000000000000000000000000000000006001600160a01b031663c54e44eb6040518163ffffffff1660e01b8152600401602060405180830381865afa158015610eea573d5f5f3e3d5ffd5b505050506040513d601f19601f82011682018060405250810190610f0e9190613460565b6001600160a01b0316826001600160a01b031603610f355750670de0b6b3a7640000919050565b60405162461bcd60e51b815260206004820152602260248201527f5072696365206e6f7420617661696c61626c6520666f72207468697320746f6b60448201526132b760f11b6064820152608401610590565b6001545f90600160a01b900460ff168015610fad57506001546001600160a01b031615155b15610fc457610fbd848484612130565b9050610fd2565b610fcf8484846124f8565b90505b9392505050565b610fe1612104565b6109f45f612781565b610ff2612104565b60328110156110375760405162461bcd60e51b8152602060048201526011602482015270446576696174696f6e20746f6f206c6f7760781b6044820152606401610590565b6101f481111561107e5760405162461bcd60e51b8152602060048201526012602482015271088caecd2c2e8d2dedc40e8dede40d0d2ced60731b6044820152606401610590565b60025481106110cf5760405162461bcd60e51b815260206004820152601a60248201527f446576696174696f6e2063616e206f6e6c79207469676874656e0000000000006044820152606401610590565b6003541561112a57620151806003546110e891906134c1565b42101561112a5760405162461bcd60e51b815260206004820152601060248201526f10dbdbdb191bdddb881b9bdd081b595d60821b6044820152606401610590565b60028054908290554260035560408051828152602081018490527fea7b0359048504e79474eaaa05294b49265fc4e7b0a0c3737aaa22412e90f16e910160405180910390a15050565b61117b612104565b60018054821515600160a01b0260ff60a01b199091161790556040517f0163568d3185bb7679fb2660bf0c56cc98855d55082f9f0b2df4811f02f1d351906111c890831515815260200190565b60405180910390a150565b5f5f61083e7f00000000000000000000000000000000000000000000000000000000000000006001600160a01b03166356f760db6040518163ffffffff1660e01b8152600401602060405180830381865afa158015611234573d5f5f3e3d5ffd5b505050506040513d601f19601f820116820180604052508101906112589190613460565b7f00000000000000000000000000000000000000000000000000000000000000006001600160a01b03166346caf5e86040518163ffffffff1660e01b8152600401602060405180830381865afa15801561079a573d5f5f3e3d5ffd5b600154600160a01b900460ff1680156112d757506001546001600160a01b031615155b156109f45760015f9054906101000a90046001600160a01b03166001600160a01b031663550848837f00000000000000000000000000000000000000000000000000000000000000006001600160a01b03166356f760db6040518163ffffffff1660e01b8152600401602060405180830381865afa15801561135b573d5f5f3e3d5ffd5b505050506040513d601f19601f8201168201806040525081019061137f9190613460565b6040516001600160e01b031960e084901b1681526001600160a01b0390911660048201526024016020604051808303815f875af11580156113c2573d5f5f3e3d5ffd5b505050506040513d601f19601f820116820180604052508101906113e69190613492565b5060015f9054906101000a90046001600160a01b03166001600160a01b031663550848837f00000000000000000000000000000000000000000000000000000000000000006001600160a01b03166389f9109d6040518163ffffffff1660e01b8152600401602060405180830381865afa158015610967573d5f5f3e3d5ffd5b5f5f7f00000000000000000000000000000000000000000000000000000000000000006001600160a01b031663b85b92096040518163ffffffff1660e01b8152600401602060405180830381865afa1580156114c4573d5f5f3e3d5ffd5b505050506040513d601f19601f820116820180604052508101906114e89190613460565b90506001600160a01b0381166115375760405162461bcd60e51b8152602060048201526014602482015273125554d1081b585b9859d95c881b9bdd081cd95d60621b6044820152606401610590565b5f816001600160a01b031663ce0e5b126040518163ffffffff1660e01b8152600401602060405180830381865afa158015611574573d5f5f3e3d5ffd5b505050506040513d601f19601f82011682018060405250810190611598919061347b565b90505f8111610ac15760405162461bcd60e51b8152602060048201526012602482015271496e76616c6964204955534420707269636560701b6044820152606401610590565b5f610a1b7f00000000000000000000000000000000000000000000000000000000000000006001600160a01b031663be2aaaed6040518163ffffffff1660e01b8152600401602060405180830381865afa15801561163e573d5f5f3e3d5ffd5b505050506040513d601f19601f820116820180604052508101906116629190613460565b6127d0565b600154600160a01b900460ff16801561168a57506001546001600160a01b031615155b156109f45760015f9054906101000a90046001600160a01b03166001600160a01b031663550848837f00000000000000000000000000000000000000000000000000000000000000006001600160a01b03166340cbbcc36040518163ffffffff1660e01b8152600401602060405180830381865afa15801561135b573d5f5f3e3d5ffd5b600154600160a01b900460ff16801561173157506001546001600160a01b031615155b156109f45760015f9054906101000a90046001600160a01b03166001600160a01b031663550848837f00000000000000000000000000000000000000000000000000000000000000006001600160a01b03166304f88f4d6040518163ffffffff1660e01b8152600401602060405180830381865afa1580156117b5573d5f5f3e3d5ffd5b505050506040513d601f19601f820116820180604052508101906117d99190613460565b6040516001600160e01b031960e084901b1681526001600160a01b0390911660048201526024016020604051808303815f875af115801561181c573d5f5f3e3d5ffd5b505050506040513d601f19601f820116820180604052508101906118409190613492565b5060015f9054906101000a90046001600160a01b03166001600160a01b031663550848837f00000000000000000000000000000000000000000000000000000000000000006001600160a01b03166389f9109d6040518163ffffffff1660e01b8152600401602060405180830381865afa1580156118c0573d5f5f3e3d5ffd5b505050506040513d601f19601f820116820180604052508101906118e49190613460565b6040516001600160e01b031960e084901b1681526001600160a01b0390911660048201526024016020604051808303815f875af1158015611927573d5f5f3e3d5ffd5b505050506040513d601f19601f8201168201806040525081019061194b9190613492565b5060015f9054906101000a90046001600160a01b03166001600160a01b031663550848837f00000000000000000000000000000000000000000000000000000000000000006001600160a01b03166356f760db6040518163ffffffff1660e01b8152600401602060405180830381865afa1580156119cb573d5f5f3e3d5ffd5b505050506040513d601f19601f820116820180604052508101906119ef9190613460565b6040516001600160e01b031960e084901b1681526001600160a01b0390911660048201526024016020604051808303815f875af1158015611a32573d5f5f3e3d5ffd5b505050506040513d601f19601f82011682018060405250810190611a569190613492565b5060015f9054906101000a90046001600160a01b03166001600160a01b031663550848837f00000000000000000000000000000000000000000000000000000000000000006001600160a01b03166340cbbcc36040518163ffffffff1660e01b8152600401602060405180830381865afa158015610967573d5f5f3e3d5ffd5b600154600160a01b900460ff168015611af957506001546001600160a01b031615155b156109f45760015f9054906101000a90046001600160a01b03166001600160a01b031663550848837f00000000000000000000000000000000000000000000000000000000000000006001600160a01b03166389f9109d6040518163ffffffff1660e01b8152600401602060405180830381865afa158015610967573d5f5f3e3d5ffd5b611b85612104565b6001600160a01b038116611bae57604051631e4fbdf760e01b81525f6004820152602401610590565b6109f281612781565b5f5f7f00000000000000000000000000000000000000000000000000000000000000006001600160a01b0316633c9ac7226040518163ffffffff1660e01b8152600401602060405180830381865afa158015611c15573d5f5f3e3d5ffd5b505050506040513d601f19601f82011682018060405250810190611c399190613460565b90506001600160a01b038116611c885760405162461bcd60e51b81526020600482015260146024820152731cdd109511081b9bdd0818dbdb999a59dd5c995960621b6044820152606401610590565b5f8190505f816001600160a01b03166318160ddd6040518163ffffffff1660e01b8152600401602060405180830381865afa158015611cc9573d5f5f3e3d5ffd5b505050506040513d601f19601f82011682018060405250810190611ced919061347b565b9050805f03611cfe5761060f611f74565b5f826001600160a01b03166301e1d1146040518163ffffffff1660e01b8152600401602060405180830381865afa158015611d3b573d5f5f3e3d5ffd5b505050506040513d601f19601f82011682018060405250810190611d5f919061347b565b90505f611d7582670de0b6b3a764000085612054565b90505f610699611f74565b5f5f611d8a6127da565b90505f611d95612862565b90505f611da0612b44565b90505f611dae848484612de7565b90505f611f107f00000000000000000000000000000000000000000000000000000000000000006001600160a01b03166304f88f4d6040518163ffffffff1660e01b8152600401602060405180830381865afa158015611e10573d5f5f3e3d5ffd5b505050506040513d601f19601f82011682018060405250810190611e349190613460565b7f00000000000000000000000000000000000000000000000000000000000000006001600160a01b0316634dede3de6040518163ffffffff1660e01b8152600401602060405180830381865afa158015611e90573d5f5f3e3d5ffd5b505050506040513d601f19601f82011682018060405250810190611eb49190613460565b7f00000000000000000000000000000000000000000000000000000000000000006001600160a01b03166389a302716040518163ffffffff1660e01b8152600401602060405180830381865afa15801561081a573d5f5f3e3d5ffd5b9050611f1f8183600254612e14565b611f6b5760405162461bcd60e51b815260206004820152601760248201527f57425443207072696365206d69736d61746368203e31250000000000000000006044820152606401610590565b95945050505050565b5f610a1b7f00000000000000000000000000000000000000000000000000000000000000006001600160a01b03166389f9109d6040518163ffffffff1660e01b8152600401602060405180830381865afa158015611fd4573d5f5f3e3d5ffd5b505050506040513d601f19601f82011682018060405250810190611ff89190613460565b7f00000000000000000000000000000000000000000000000000000000000000006001600160a01b031663457404776040518163ffffffff1660e01b8152600401602060405180830381865afa158015611e90573d5f5f3e3d5ffd5b5f5f5f6120618686612e70565b91509150815f036120855783818161207b5761207b6134d4565b0492505050610fd2565b81841161209c5761209c6003851502601118612e8c565b5f848688095f868103871696879004966002600389028118808a02820302808a02820302808a02820302808a02820302808a02820302808a02909103029181900381900460010185841190960395909502919093039390930492909217029150509392505050565b5f546001600160a01b031633146109f45760405163118cdaa760e01b8152336004820152602401610590565b6001545f906001600160a01b03166121805760405162461bcd60e51b81526020600482015260136024820152721515d054081bdc9858db19481b9bdd081cd95d606a1b6044820152606401610590565b60015460405163013a839760e31b81526001600160a01b038681166004830152909116906309d41cb890602401602060405180830381865afa1580156121c8573d5f5f3e3d5ffd5b505050506040513d601f19601f820116820180604052508101906121ec9190613492565b6122295760405162461bcd60e51b815260206004820152600e60248201526d54574150206e6f7420726561647960901b6044820152606401610590565b5f8490505f816001600160a01b0316630dfe16816040518163ffffffff1660e01b8152600401602060405180830381865afa15801561226a573d5f5f3e3d5ffd5b505050506040513d601f19601f8201168201806040525081019061228e9190613460565b90505f826001600160a01b031663d21220a76040518163ffffffff1660e01b8152600401602060405180830381865afa1580156122cd573d5f5f3e3d5ffd5b505050506040513d601f19601f820116820180604052508101906122f19190613460565b9050856001600160a01b0316826001600160a01b03161480156123255750846001600160a01b0316816001600160a01b0316145b8061235d5750846001600160a01b0316826001600160a01b031614801561235d5750856001600160a01b0316816001600160a01b0316145b6123a95760405162461bcd60e51b815260206004820152601b60248201527f496e76616c696420626173652f71756f746520666f7220706f6f6c00000000006044820152606401610590565b5f6123b387612e9d565b90505f6123bf87612e9d565b9050876001600160a01b0316846001600160a01b031603612463576001546040516364dca9c760e01b81526001600160a01b038b8116600483015260ff808616602484015284166044830152909116906364dca9c790606401602060405180830381865afa158015612433573d5f5f3e3d5ffd5b505050506040513d601f19601f82011682018060405250810190612457919061347b565b95505050505050610fd2565b6001546040516364dca9c760e01b81526001600160a01b038b8116600483015260ff8085166024840152851660448301525f9216906364dca9c790606401602060405180830381865afa1580156124bc573d5f5f3e3d5ffd5b505050506040513d601f19601f820116820180604052508101906124e0919061347b565b90506124eb81612feb565b9650505050505050610fd2565b5f5f8490505f5f826001600160a01b0316630902f1ac6040518163ffffffff1660e01b8152600401606060405180830381865afa15801561253b573d5f5f3e3d5ffd5b505050506040513d601f19601f8201168201806040525081019061255f91906134fe565b50915091505f836001600160a01b0316630dfe16816040518163ffffffff1660e01b8152600401602060405180830381865afa1580156125a1573d5f5f3e3d5ffd5b505050506040513d601f19601f820116820180604052508101906125c59190613460565b90505f846001600160a01b031663d21220a76040518163ffffffff1660e01b8152600401602060405180830381865afa158015612604573d5f5f3e3d5ffd5b505050506040513d601f19601f820116820180604052508101906126289190613460565b9050876001600160a01b0316826001600160a01b031614801561265c5750866001600160a01b0316816001600160a01b0316145b806126945750866001600160a01b0316826001600160a01b03161480156126945750876001600160a01b0316816001600160a01b0316145b6126e05760405162461bcd60e51b815260206004820152601b60248201527f496e76616c696420626173652f71756f746520666f7220706f6f6c00000000006044820152606401610590565b5f886001600160a01b0316836001600160a01b03161461270957836001600160701b0316612714565b846001600160701b03165b90505f896001600160a01b0316846001600160a01b03161461273f57856001600160701b031661274a565b846001600160701b03165b90505f6127568b612e9d565b90505f6127628b612e9d565b90506127708484848461304b565b9d9c50505050505050505050505050565b5f80546001600160a01b038381166001600160a01b0319831681178455604051919092169283917f8be0079c531659141344cd1fd0a4f28419497f9722a3daafe3b4186f6b6457e09190a35050565b5f610ac1826130ca565b5f5f61283b7f00000000000000000000000000000000000000000000000000000000000000006001600160a01b031663b06d543c6040518163ffffffff1660e01b8152600401602060405180830381865afa15801561163e573d5f5f3e3d5ffd5b90505f6128466115de565b905061285b8282670de0b6b3a7640000612054565b9250505090565b5f5f7f00000000000000000000000000000000000000000000000000000000000000006001600160a01b03166310a420c16040518163ffffffff1660e01b8152600401602060405180830381865afa1580156128c0573d5f5f3e3d5ffd5b505050506040513d601f19601f820116820180604052508101906128e49190613460565b90506001600160a01b0381166129305760405162461bcd60e51b8152602060048201526011602482015270141e5d1a0819995959081b9bdd081cd95d607a1b6044820152606401610590565b7f00000000000000000000000000000000000000000000000000000000000000006129955760405162461bcd60e51b8152602060048201526015602482015274141e5d1a081c1c9a58d9481a59081b9bdd081cd95d605a1b6044820152606401610590565b6040516396834ad360e01b81527f000000000000000000000000000000000000000000000000000000000000000060048201525f906001600160a01b038316906396834ad390602401608060405180830381865afa1580156129f9573d5f5f3e3d5ffd5b505050506040513d601f19601f82011682018060405250810190612a1d9190613567565b90505f815f015160070b13612a695760405162461bcd60e51b8152602060048201526012602482015271496e76616c6964205079746820707269636560701b6044820152606401610590565b603c816060015142612a7b91906135f3565b1115612abc5760405162461bcd60e51b815260206004820152601060248201526f50797468207072696365207374616c6560801b6044820152606401610590565b805f015167ffffffffffffffff1681602001516064612adb9190613606565b67ffffffffffffffff161115612b335760405162461bcd60e51b815260206004820152601860248201527f5079746820636f6e666964656e636520746f6f207769646500000000000000006044820152606401610590565b61285b815f0151826040015161322c565b5f5f7f00000000000000000000000000000000000000000000000000000000000000006001600160a01b03166395d1741d6040518163ffffffff1660e01b8152600401602060405180830381865afa158015612ba2573d5f5f3e3d5ffd5b505050506040513d601f19601f82011682018060405250810190612bc69190613460565b90506001600160a01b038116612c165760405162461bcd60e51b81526020600482015260156024820152741499591cdd1bdb994819995959081b9bdd081cd95d605a1b6044820152606401610590565b7f0000000000000000000000000000000000000000000000000000000000000000612c795760405162461bcd60e51b81526020600482015260136024820152721499591cdd1bdb99481a59081b9bdd081cd95d606a1b6044820152606401610590565b5f7f000000000000000000000000000000000000000000000000000000000000000060ff1611612ceb5760405162461bcd60e51b815260206004820152601960248201527f52656473746f6e6520646563696d616c73206e6f7420736574000000000000006044820152606401610590565b604051630f42405960e31b81527f000000000000000000000000000000000000000000000000000000000000000060048201525f906001600160a01b03831690637a1202c890602401602060405180830381865afa158015612d4f573d5f5f3e3d5ffd5b505050506040513d601f19601f82011682018060405250810190612d73919061347b565b90505f8111612dbd5760405162461bcd60e51b8152602060048201526016602482015275496e76616c69642052656473746f6e6520707269636560501b6044820152606401610590565b61285b817f0000000000000000000000000000000000000000000000000000000000000000613344565b5f82841115612df4579192915b81831115612e00579091905b82841115612e0c579192915b509092915050565b5f831580612e20575082155b15612e2c57505f610fd2565b5f838511612e4357612e3e85856135f3565b612e4d565b612e4d84866135f3565b9050612e598386613630565b612e6561271083613630565b111595945050505050565b5f805f1983850993909202808410938190039390930393915050565b634e487b715f52806020526024601cfd5b5f7f00000000000000000000000000000000000000000000000000000000000000006001600160a01b0316634dede3de6040518163ffffffff1660e01b8152600401602060405180830381865afa158015612efa573d5f5f3e3d5ffd5b505050506040513d601f19601f82011682018060405250810190612f1e9190613460565b6001600160a01b0316826001600160a01b031603612f3e57506008919050565b7f00000000000000000000000000000000000000000000000000000000000000006001600160a01b03166389a302716040518163ffffffff1660e01b8152600401602060405180830381865afa158015612f9a573d5f5f3e3d5ffd5b505050506040513d601f19601f82011682018060405250810190612fbe9190613460565b6001600160a01b0316826001600160a01b031603612fde57506006919050565b506012919050565b919050565b5f5f82116130305760405162461bcd60e51b81526020600482015260126024820152714f7261636c653a207a65726f20707269636560701b6044820152606401610590565b610ac16ec097ce7bc90715b34b9f1000000000600184612054565b5f5f85116130925760405162461bcd60e51b81526020600482015260146024820152734f7261636c653a207a65726f207265736572766560601b6044820152606401610590565b5f61309d8685613344565b90505f6130aa8685613344565b90506130bf81670de0b6b3a764000084612054565b979650505050505050565b5f6001600160a01b0382166131105760405162461bcd60e51b815260206004820152600c60248201526b11995959081b9bdd081cd95d60a21b6044820152606401610590565b5f8290505f816001600160a01b031663313ce5676040518163ffffffff1660e01b8152600401602060405180830381865afa158015613151573d5f5f3e3d5ffd5b505050506040513d601f19601f820116820180604052508101906131759190613647565b90505f826001600160a01b031663feaf968c6040518163ffffffff1660e01b815260040160a060405180830381865afa1580156131b4573d5f5f3e3d5ffd5b505050506040513d601f19601f820116820180604052508101906131d89190613680565b5050509150505f81136132225760405162461bcd60e51b8152602060048201526012602482015271496e76616c6964206665656420707269636560701b6044820152606401610590565b611f6b8183613344565b5f5f8360070b136132745760405162461bcd60e51b8152602060048201526012602482015271496e76616c696420507974682076616c756560701b6044820152606401610590565b5f6132808360126136ce565b9050604f198160030b138015613299575060508160030b125b6132e55760405162461bcd60e51b815260206004820152601b60248201527f50797468206578706f6e656e74206f7574206f6620626f756e647300000000006044820152606401610590565b67ffffffffffffffff84165f600383900b126133195761330682600a6137d8565b6133109082613630565b92505050610ac1565b5f613323836137e9565b905061333081600a6137d8565b61333a908361380a565b9695505050505050565b5f8160ff16601203613357575081610ac1565b60128260ff16111561338a5761336e601283613829565b61337990600a613842565b613383908461380a565b9050610ac1565b613395826012613829565b6133a090600a613842565b610fd29084613630565b6001600160a01b03811681146109f2575f5ffd5b5f602082840312156133ce575f5ffd5b8135610fd2816133aa565b5f5f5f606084860312156133eb575f5ffd5b83356133f6816133aa565b92506020840135613406816133aa565b91506040840135613416816133aa565b809150509250925092565b5f60208284031215613431575f5ffd5b5035919050565b80151581146109f2575f5ffd5b5f60208284031215613455575f5ffd5b8135610fd281613438565b5f60208284031215613470575f5ffd5b8151610fd2816133aa565b5f6020828403121561348b575f5ffd5b5051919050565b5f602082840312156134a2575f5ffd5b8151610fd281613438565b634e487b7160e01b5f52601160045260245ffd5b80820180821115610ac157610ac16134ad565b634e487b7160e01b5f52601260045260245ffd5b80516001600160701b0381168114612fe6575f5ffd5b5f5f5f60608486031215613510575f5ffd5b613519846134e8565b9250613527602085016134e8565b9150604084015163ffffffff81168114613416575f5ffd5b805167ffffffffffffffff81168114612fe6575f5ffd5b8051600381900b8114612fe6575f5ffd5b5f6080828403128015613578575f5ffd5b506040516080810167ffffffffffffffff811182821017156135a857634e487b7160e01b5f52604160045260245ffd5b6040528251600781900b81146135bc575f5ffd5b81526135ca6020840161353f565b60208201526135db60408401613556565b60408201526060928301519281019290925250919050565b81810381811115610ac157610ac16134ad565b67ffffffffffffffff8181168382160290811690818114613629576136296134ad565b5092915050565b8082028115828204841417610ac157610ac16134ad565b5f60208284031215613657575f5ffd5b815160ff81168114610fd2575f5ffd5b805169ffffffffffffffffffff81168114612fe6575f5ffd5b5f5f5f5f5f60a08688031215613694575f5ffd5b61369d86613667565b602087015160408801516060890151929750909550935091506136c260808701613667565b90509295509295909350565b600381810b9083900b01637fffffff8113637fffffff1982121715610ac157610ac16134ad565b6001815b600184111561373057808504811115613714576137146134ad565b600184161561372257908102905b60019390931c9280026136f9565b935093915050565b5f8261374657506001610ac1565b8161375257505f610ac1565b816001811461376857600281146137725761378e565b6001915050610ac1565b60ff841115613783576137836134ad565b50506001821b610ac1565b5060208310610133831016604e8410600b84101617156137b1575081810a610ac1565b6137bd5f1984846136f5565b805f19048211156137d0576137d06134ad565b029392505050565b5f610fd263ffffffff841683613738565b5f8160030b637fffffff198103613802576138026134ad565b5f0392915050565b5f8261382457634e487b7160e01b5f52601260045260245ffd5b500490565b60ff8281168282160390811115610ac157610ac16134ad565b5f610fd260ff84168361373856fea2646970667358221220810b0c3312809b6fe934a3ce255b2fbe0a0d0caf8e98d98be76b7bd1f10490a364736f6c634300081e0033",
  "linkReferences": {},
  "deployedLinkReferences": {},
  "immutableReferences": {
    "4499": [
      {
        "length": 32,
        "start": 1133
      },
      {
        "length": 32,
        "start": 1223
      },
      {
        "length": 32,
        "start": 1728
      },
      {
        "length": 32,
        "start": 1856
      },
      {
        "length": 32,
        "start": 1984
      },
      {
        "length": 32,
        "start": 2317
      },
      {
        "length": 32,
        "start": 2595
      },
      {
        "length": 32,
        "start": 2761
      },
      {
        "length": 32,
        "start": 2921
      },
      {
        "length": 32,
        "start": 3081
      },
      {
        "length": 32,
        "start": 3241
      },
      {
        "length": 32,
        "start": 3401
      },
      {
        "length": 32,
        "start": 3561
      },
      {
        "length": 32,
        "start": 3728
      },
      {
        "length": 32,
        "start": 4570
      },
      {
        "length": 32,
        "start": 4698
      },
      {
        "length": 32,
        "start": 4865
      },
      {
        "length": 32,
        "start": 5132
      },
      {
        "length": 32,
        "start": 5226
      },
      {
        "length": 32,
        "start": 5604
      },
      {
        "length": 32,
        "start": 5812
      },
      {
        "length": 32,
        "start": 5979
      },
      {
        "length": 32,
        "start": 6246
      },
      {
        "length": 32,
        "start": 6513
      },
      {
        "length": 32,
        "start": 6780
      },
      {
        "length": 32,
        "start": 6947
      },
      {
        "length": 32,
        "start": 7099
      },
      {
        "length": 32,
        "start": 7606
      },
      {
        "length": 32,
        "start": 7734
      },
      {
        "length": 32,
        "start": 7862
      },
      {
        "length": 32,
        "start": 8058
      },
      {
        "length": 32,
        "start": 8186
      },
      {
        "length": 32,
        "start": 10209
      },
      {
        "length": 32,
        "start": 10342
      },
      {
        "length": 32,
        "start": 11080
      },
      {
        "length": 32,
        "start": 11936
      },
      {
        "length": 32,
        "start": 12096
      }
    ],
    "4501": [
      {
        "length": 32,
        "start": 736
      },
      {
        "length": 32,
        "start": 10546
      },
      {
        "length": 32,
        "start": 10660
      }
    ],
    "4503": [
      {
        "length": 32,
        "start": 913
      },
      {
        "length": 32,
        "start": 11288
      },
      {
        "length": 32,
        "start": 11514
      }
    ],
    "4505": [
      {
        "length": 32,
        "start": 819
      },
      {
        "length": 32,
        "start": 11388
      },
      {
        "length": 32,
        "start": 11715
      }
    ],
    "4507": [
      {
        "length": 32,
        "start": 664
      }
    ]
  },
  "inputSourceName": "project/contracts/PriceOracle.sol",
  "buildInfoId": "solc-0_8_30-027dd9827112996a3c6cd4522acc818e319b8409"
}