{
  "_format": "hh3-artifact-1",
  "contractName": "BTD",
  "sourceName": "contracts/BTD.sol",
  "abi": [
    {
      "inputs": [
        {
          "internalType": "address",
          "name": "defaultAdmin",
          "type": "address"
        }
      ],
      "stateMutability": "nonpayable",
      "type": "constructor"
    },
    {
      "inputs": [],
      "name": "AccessControlBadConfirmation",
      "type": "error"
    },
    {
      "inputs": [
        {
          "internalType": "address",
          "name": "account",
          "type": "address"
        },
        {
          "internalType": "bytes32",
          "name": "neededRole",
          "type": "bytes32"
        }
      ],
      "name": "AccessControlUnauthorizedAccount",
      "type": "error"
    },
    {
      "inputs": [],
      "name": "ECDSAInvalidSignature",
      "type": "error"
    },
    {
      "inputs": [
        {
          "internalType": "uint256",
          "name": "length",
          "type": "uint256"
        }
      ],
      "name": "ECDSAInvalidSignatureLength",
      "type": "error"
    },
    {
      "inputs": [
        {
          "internalType": "bytes32",
          "name": "s",
          "type": "bytes32"
        }
      ],
      "name": "ECDSAInvalidSignatureS",
      "type": "error"
    },
    {
      "inputs": [
        {
          "internalType": "address",
          "name": "spender",
          "type": "address"
        },
        {
          "internalType": "uint256",
          "name": "allowance",
          "type": "uint256"
        },
        {
          "internalType": "uint256",
          "name": "needed",
          "type": "uint256"
        }
      ],
      "name": "ERC20InsufficientAllowance",
      "type": "error"
    },
    {
      "inputs": [
        {
          "internalType": "address",
          "name": "sender",
          "type": "address"
        },
        {
          "internalType": "uint256",
          "name": "balance",
          "type": "uint256"
        },
        {
          "internalType": "uint256",
          "name": "needed",
          "type": "uint256"
        }
      ],
      "name": "ERC20InsufficientBalance",
      "type": "error"
    },
    {
      "inputs": [
        {
          "internalType": "address",
          "name": "approver",
          "type": "address"
        }
      ],
      "name": "ERC20InvalidApprover",
      "type": "error"
    },
    {
      "inputs": [
        {
          "internalType": "address",
          "name": "receiver",
          "type": "address"
        }
      ],
      "name": "ERC20InvalidReceiver",
      "type": "error"
    },
    {
      "inputs": [
        {
          "internalType": "address",
          "name": "sender",
          "type": "address"
        }
      ],
      "name": "ERC20InvalidSender",
      "type": "error"
    },
    {
      "inputs": [
        {
          "internalType": "address",
          "name": "spender",
          "type": "address"
        }
      ],
      "name": "ERC20InvalidSpender",
      "type": "error"
    },
    {
      "inputs": [
        {
          "internalType": "uint256",
          "name": "deadline",
          "type": "uint256"
        }
      ],
      "name": "ERC2612ExpiredSignature",
      "type": "error"
    },
    {
      "inputs": [
        {
          "internalType": "address",
          "name": "signer",
          "type": "address"
        },
        {
          "internalType": "address",
          "name": "owner",
          "type": "address"
        }
      ],
      "name": "ERC2612InvalidSigner",
      "type": "error"
    },
    {
      "inputs": [
        {
          "internalType": "address",
          "name": "account",
          "type": "address"
        },
        {
          "internalType": "uint256",
          "name": "currentNonce",
          "type": "uint256"
        }
      ],
      "name": "InvalidAccountNonce",
      "type": "error"
    },
    {
      "inputs": [],
      "name": "InvalidShortString",
      "type": "error"
    },
    {
      "inputs": [
        {
          "internalType": "string",
          "name": "str",
          "type": "string"
        }
      ],
      "name": "StringTooLong",
      "type": "error"
    },
    {
      "anonymous": false,
      "inputs": [
        {
          "indexed": true,
          "internalType": "address",
          "name": "owner",
          "type": "address"
        },
        {
          "indexed": true,
          "internalType": "address",
          "name": "spender",
          "type": "address"
        },
        {
          "indexed": false,
          "internalType": "uint256",
          "name": "value",
          "type": "uint256"
        }
      ],
      "name": "Approval",
      "type": "event"
    },
    {
      "anonymous": false,
      "inputs": [],
      "name": "EIP712DomainChanged",
      "type": "event"
    },
    {
      "anonymous": false,
      "inputs": [
        {
          "indexed": true,
          "internalType": "bytes32",
          "name": "role",
          "type": "bytes32"
        },
        {
          "indexed": true,
          "internalType": "bytes32",
          "name": "previousAdminRole",
          "type": "bytes32"
        },
        {
          "indexed": true,
          "internalType": "bytes32",
          "name": "newAdminRole",
          "type": "bytes32"
        }
      ],
      "name": "RoleAdminChanged",
      "type": "event"
    },
    {
      "anonymous": false,
      "inputs": [
        {
          "indexed": true,
          "internalType": "bytes32",
          "name": "role",
          "type": "bytes32"
        },
        {
          "indexed": true,
          "internalType": "address",
          "name": "account",
          "type": "address"
        },
        {
          "indexed": true,
          "internalType": "address",
          "name": "sender",
          "type": "address"
        }
      ],
      "name": "RoleGranted",
      "type": "event"
    },
    {
      "anonymous": false,
      "inputs": [
        {
          "indexed": true,
          "internalType": "bytes32",
          "name": "role",
          "type": "bytes32"
        },
        {
          "indexed": true,
          "internalType": "address",
          "name": "account",
          "type": "address"
        },
        {
          "indexed": true,
          "internalType": "address",
          "name": "sender",
          "type": "address"
        }
      ],
      "name": "RoleRevoked",
      "type": "event"
    },
    {
      "anonymous": false,
      "inputs": [
        {
          "indexed": true,
          "internalType": "address",
          "name": "from",
          "type": "address"
        },
        {
          "indexed": true,
          "internalType": "address",
          "name": "to",
          "type": "address"
        },
        {
          "indexed": false,
          "internalType": "uint256",
          "name": "value",
          "type": "uint256"
        }
      ],
      "name": "Transfer",
      "type": "event"
    },
    {
      "inputs": [],
      "name": "DEFAULT_ADMIN_ROLE",
      "outputs": [
        {
          "internalType": "bytes32",
          "name": "",
          "type": "bytes32"
        }
      ],
      "stateMutability": "view",
      "type": "function"
    },
    {
      "inputs": [],
      "name": "DOMAIN_SEPARATOR",
      "outputs": [
        {
          "internalType": "bytes32",
          "name": "",
          "type": "bytes32"
        }
      ],
      "stateMutability": "view",
      "type": "function"
    },
    {
      "inputs": [],
      "name": "MINTER_ROLE",
      "outputs": [
        {
          "internalType": "bytes32",
          "name": "",
          "type": "bytes32"
        }
      ],
      "stateMutability": "view",
      "type": "function"
    },
    {
      "inputs": [
        {
          "internalType": "address",
          "name": "owner",
          "type": "address"
        },
        {
          "internalType": "address",
          "name": "spender",
          "type": "address"
        }
      ],
      "name": "allowance",
      "outputs": [
        {
          "internalType": "uint256",
          "name": "",
          "type": "uint256"
        }
      ],
      "stateMutability": "view",
      "type": "function"
    },
    {
      "inputs": [
        {
          "internalType": "address",
          "name": "spender",
          "type": "address"
        },
        {
          "internalType": "uint256",
          "name": "value",
          "type": "uint256"
        }
      ],
      "name": "approve",
      "outputs": [
        {
          "internalType": "bool",
          "name": "",
          "type": "bool"
        }
      ],
      "stateMutability": "nonpayable",
      "type": "function"
    },
    {
      "inputs": [
        {
          "internalType": "address",
          "name": "account",
          "type": "address"
        }
      ],
      "name": "balanceOf",
      "outputs": [
        {
          "internalType": "uint256",
          "name": "",
          "type": "uint256"
        }
      ],
      "stateMutability": "view",
      "type": "function"
    },
    {
      "inputs": [
        {
          "internalType": "uint256",
          "name": "value",
          "type": "uint256"
        }
      ],
      "name": "burn",
      "outputs": [],
      "stateMutability": "nonpayable",
      "type": "function"
    },
    {
      "inputs": [
        {
          "internalType": "address",
          "name": "account",
          "type": "address"
        },
        {
          "internalType": "uint256",
          "name": "value",
          "type": "uint256"
        }
      ],
      "name": "burnFrom",
      "outputs": [],
      "stateMutability": "nonpayable",
      "type": "function"
    },
    {
      "inputs": [],
      "name": "decimals",
      "outputs": [
        {
          "internalType": "uint8",
          "name": "",
          "type": "uint8"
        }
      ],
      "stateMutability": "view",
      "type": "function"
    },
    {
      "inputs": [],
      "name": "eip712Domain",
      "outputs": [
        {
          "internalType": "bytes1",
          "name": "fields",
          "type": "bytes1"
        },
        {
          "internalType": "string",
          "name": "name",
          "type": "string"
        },
        {
          "internalType": "string",
          "name": "version",
          "type": "string"
        },
        {
          "internalType": "uint256",
          "name": "chainId",
          "type": "uint256"
        },
        {
          "internalType": "address",
          "name": "verifyingContract",
          "type": "address"
        },
        {
          "internalType": "bytes32",
          "name": "salt",
          "type": "bytes32"
        },
        {
          "internalType": "uint256[]",
          "name": "extensions",
          "type": "uint256[]"
        }
      ],
      "stateMutability": "view",
      "type": "function"
    },
    {
      "inputs": [
        {
          "internalType": "bytes32",
          "name": "role",
          "type": "bytes32"
        }
      ],
      "name": "getRoleAdmin",
      "outputs": [
        {
          "internalType": "bytes32",
          "name": "",
          "type": "bytes32"
        }
      ],
      "stateMutability": "view",
      "type": "function"
    },
    {
      "inputs": [
        {
          "internalType": "bytes32",
          "name": "role",
          "type": "bytes32"
        },
        {
          "internalType": "address",
          "name": "account",
          "type": "address"
        }
      ],
      "name": "grantRole",
      "outputs": [],
      "stateMutability": "nonpayable",
      "type": "function"
    },
    {
      "inputs": [
        {
          "internalType": "bytes32",
          "name": "role",
          "type": "bytes32"
        },
        {
          "internalType": "address",
          "name": "account",
          "type": "address"
        }
      ],
      "name": "hasRole",
      "outputs": [
        {
          "internalType": "bool",
          "name": "",
          "type": "bool"
        }
      ],
      "stateMutability": "view",
      "type": "function"
    },
    {
      "inputs": [
        {
          "internalType": "address",
          "name": "to",
          "type": "address"
        },
        {
          "internalType": "uint256",
          "name": "amount",
          "type": "uint256"
        }
      ],
      "name": "mint",
      "outputs": [],
      "stateMutability": "nonpayable",
      "type": "function"
    },
    {
      "inputs": [],
      "name": "name",
      "outputs": [
        {
          "internalType": "string",
          "name": "",
          "type": "string"
        }
      ],
      "stateMutability": "view",
      "type": "function"
    },
    {
      "inputs": [
        {
          "internalType": "address",
          "name": "owner",
          "type": "address"
        }
      ],
      "name": "nonces",
      "outputs": [
        {
          "internalType": "uint256",
          "name": "",
          "type": "uint256"
        }
      ],
      "stateMutability": "view",
      "type": "function"
    },
    {
      "inputs": [
        {
          "internalType": "address",
          "name": "owner",
          "type": "address"
        },
        {
          "internalType": "address",
          "name": "spender",
          "type": "address"
        },
        {
          "internalType": "uint256",
          "name": "value",
          "type": "uint256"
        },
        {
          "internalType": "uint256",
          "name": "deadline",
          "type": "uint256"
        },
        {
          "internalType": "uint8",
          "name": "v",
          "type": "uint8"
        },
        {
          "internalType": "bytes32",
          "name": "r",
          "type": "bytes32"
        },
        {
          "internalType": "bytes32",
          "name": "s",
          "type": "bytes32"
        }
      ],
      "name": "permit",
      "outputs": [],
      "stateMutability": "nonpayable",
      "type": "function"
    },
    {
      "inputs": [
        {
          "internalType": "bytes32",
          "name": "role",
          "type": "bytes32"
        },
        {
          "internalType": "address",
          "name": "callerConfirmation",
          "type": "address"
        }
      ],
      "name": "renounceRole",
      "outputs": [],
      "stateMutability": "nonpayable",
      "type": "function"
    },
    {
      "inputs": [
        {
          "internalType": "bytes32",
          "name": "role",
          "type": "bytes32"
        },
        {
          "internalType": "address",
          "name": "account",
          "type": "address"
        }
      ],
      "name": "revokeRole",
      "outputs": [],
      "stateMutability": "nonpayable",
      "type": "function"
    },
    {
      "inputs": [
        {
          "internalType": "bytes4",
          "name": "interfaceId",
          "type": "bytes4"
        }
      ],
      "name": "supportsInterface",
      "outputs": [
        {
          "internalType": "bool",
          "name": "",
          "type": "bool"
        }
      ],
      "stateMutability": "view",
      "type": "function"
    },
    {
      "inputs": [],
      "name": "symbol",
      "outputs": [
        {
          "internalType": "string",
          "name": "",
          "type": "string"
        }
      ],
      "stateMutability": "view",
      "type": "function"
    },
    {
      "inputs": [],
      "name": "totalSupply",
      "outputs": [
        {
          "internalType": "uint256",
          "name": "",
          "type": "uint256"
        }
      ],
      "stateMutability": "view",
      "type": "function"
    },
    {
      "inputs": [
        {
          "internalType": "address",
          "name": "to",
          "type": "address"
        },
        {
          "internalType": "uint256",
          "name": "value",
          "type": "uint256"
        }
      ],
      "name": "transfer",
      "outputs": [
        {
          "internalType": "bool",
          "name": "",
          "type": "bool"
        }
      ],
      "stateMutability": "nonpayable",
      "type": "function"
    },
    {
      "inputs": [
        {
          "internalType": "address",
          "name": "from",
          "type": "address"
        },
        {
          "internalType": "address",
          "name": "to",
          "type": "address"
        },
        {
          "internalType": "uint256",
          "name": "value",
          "type": "uint256"
        }
      ],
      "name": "transferFrom",
      "outputs": [
        {
          "internalType": "bool",
          "name": "",
          "type": "bool"
        }
      ],
      "stateMutability": "nonpayable",
      "type": "function"
    }
  ],
  "bytecode": "0x610160604052348015610010575f5ffd5b5060405161186138038061186183398101604081905261002f916102fd565b6040518060400160405280600e81526020016d2134ba31b7b4b7102237b63630b960911b81525080604051806040016040528060018152602001603160f81b8152506040518060400160405280600e81526020016d2134ba31b7b4b7102237b63630b960911b8152506040518060400160405280600381526020016210951160ea1b81525081600390816100c391906103c2565b5060046100d082826103c2565b506100e0915083905060066101e3565b610120526100ef8160076101e3565b61014052815160208084019190912060e052815190820120610100524660a05261017b60e05161010051604080517f8b73c3c69bb8fe3d512ecc4cf759cc79239f7b179b0ffacaa9a75d522b39400f60208201529081019290925260608201524660808201523060a08201525f9060c00160405160208183030381529060405280519060200120905090565b60805250503060c052506001600160a01b0381166101d25760405162461bcd60e51b815260206004820152600f60248201526e212a221d103d32b9379030b236b4b760891b60448201526064015b60405180910390fd5b6101dc5f82610215565b50506104d4565b5f6020835110156101fe576101f7836102c0565b905061020f565b8161020984826103c2565b5060ff90505b92915050565b5f8281526005602090815260408083206001600160a01b038516845290915281205460ff166102b9575f8381526005602090815260408083206001600160a01b03861684529091529020805460ff191660011790556102713390565b6001600160a01b0316826001600160a01b0316847f2f8788117e7eff1d82e926ec794901d17c78024a50270940304540a733656f0d60405160405180910390a450600161020f565b505f61020f565b5f5f829050601f815111156102ea578260405163305a27a960e01b81526004016101c9919061047c565b80516102f5826104b1565b179392505050565b5f6020828403121561030d575f5ffd5b81516001600160a01b0381168114610323575f5ffd5b9392505050565b634e487b7160e01b5f52604160045260245ffd5b600181811c9082168061035257607f821691505b60208210810361037057634e487b7160e01b5f52602260045260245ffd5b50919050565b601f8211156103bd57805f5260205f20601f840160051c8101602085101561039b5750805b601f840160051c820191505b818110156103ba575f81556001016103a7565b50505b505050565b81516001600160401b038111156103db576103db61032a565b6103ef816103e9845461033e565b84610376565b6020601f821160018114610421575f831561040a5750848201515b5f19600385901b1c1916600184901b1784556103ba565b5f84815260208120601f198516915b828110156104505787850151825560209485019460019092019101610430565b508482101561046d57868401515f19600387901b60f8161c191681555b50505050600190811b01905550565b602081525f82518060208401528060208501604085015e5f604082850101526040601f19601f83011684010191505092915050565b80516020808301519190811015610370575f1960209190910360031b1b16919050565b60805160a05160c05160e05161010051610120516101405161133c6105255f395f610aef01525f610ac201525f61099801525f61097001525f6108cb01525f6108f501525f61091f015261133c5ff3fe608060405234801561000f575f5ffd5b5060043610610153575f3560e01c806370a08231116100bf578063a217fddf11610079578063a217fddf146102d7578063a9059cbb146102de578063d505accf146102f1578063d539139314610304578063d547741f1461032b578063dd62ed3e1461033e575f5ffd5b806370a082311461025357806379cc67901461027b5780637ecebe001461028e57806384b0196e146102a157806391d14854146102bc57806395d89b41146102cf575f5ffd5b80632f2ff15d116101105780632f2ff15d146101ee578063313ce567146102035780633644e5151461021257806336568abe1461021a57806340c10f191461022d57806342966c6814610240575f5ffd5b806301ffc9a71461015757806306fdde031461017f578063095ea7b31461019457806318160ddd146101a757806323b872dd146101b9578063248a9ca3146101cc575b5f5ffd5b61016a61016536600461102b565b610376565b60405190151581526020015b60405180910390f35b6101876103ac565b6040516101769190611087565b61016a6101a23660046110b4565b61043c565b6002545b604051908152602001610176565b61016a6101c73660046110dc565b610453565b6101ab6101da366004611116565b5f9081526005602052604090206001015490565b6102016101fc36600461112d565b610476565b005b60405160128152602001610176565b6101ab6104a0565b61020161022836600461112d565b6104ae565b61020161023b3660046110b4565b6104e6565b61020161024e366004611116565b61051a565b6101ab610261366004611157565b6001600160a01b03165f9081526020819052604090205490565b6102016102893660046110b4565b610527565b6101ab61029c366004611157565b610540565b6102a961055d565b6040516101769796959493929190611170565b61016a6102ca36600461112d565b61059f565b6101876105c9565b6101ab5f81565b61016a6102ec3660046110b4565b6105d8565b6102016102ff366004611206565b6105e5565b6101ab7f9f2df0fed2c77648de5860a4cc508cd0818c85b8b8a1ab4ceeef8d981c8956a681565b61020161033936600461112d565b610720565b6101ab61034c366004611273565b6001600160a01b039182165f90815260016020908152604080832093909416825291909152205490565b5f6001600160e01b03198216637965db0b60e01b14806103a657506301ffc9a760e01b6001600160e01b03198316145b92915050565b6060600380546103bb9061129b565b80601f01602080910402602001604051908101604052809291908181526020018280546103e79061129b565b80156104325780601f1061040957610100808354040283529160200191610432565b820191905f5260205f20905b81548152906001019060200180831161041557829003601f168201915b5050505050905090565b5f33610449818585610744565b5060019392505050565b5f33610460858285610751565b61046b8585856107c7565b506001949350505050565b5f8281526005602052604090206001015461049081610824565b61049a838361082e565b50505050565b5f6104a96108bf565b905090565b6001600160a01b03811633146104d75760405163334bd91960e11b815260040160405180910390fd5b6104e182826109e8565b505050565b7f9f2df0fed2c77648de5860a4cc508cd0818c85b8b8a1ab4ceeef8d981c8956a661051081610824565b6104e18383610a53565b6105243382610a87565b50565b610532823383610751565b61053c8282610a87565b5050565b6001600160a01b0381165f908152600860205260408120546103a6565b5f6060805f5f5f606061056e610abb565b610576610ae8565b604080515f80825260208201909252600f60f81b9b939a50919850469750309650945092509050565b5f9182526005602090815260408084206001600160a01b0393909316845291905290205460ff1690565b6060600480546103bb9061129b565b5f336104498185856107c7565b8342111561060e5760405163313c898160e11b8152600481018590526024015b60405180910390fd5b5f7f6e71edae12b1b97f4d1f60370fef10105fa2faae0126114a169c64845d6126c98888886106598c6001600160a01b03165f90815260086020526040902080546001810190915590565b6040805160208101969096526001600160a01b0394851690860152929091166060840152608083015260a082015260c0810186905260e0016040516020818303038152906040528051906020012090505f6106b382610b15565b90505f6106c282878787610b41565b9050896001600160a01b0316816001600160a01b031614610709576040516325c0072360e11b81526001600160a01b0380831660048301528b166024820152604401610605565b6107148a8a8a610744565b50505050505050505050565b5f8281526005602052604090206001015461073a81610824565b61049a83836109e8565b6104e18383836001610b6d565b6001600160a01b038381165f908152600160209081526040808320938616835292905220545f1981101561049a57818110156107b957604051637dc7a0d960e11b81526001600160a01b03841660048201526024810182905260448101839052606401610605565b61049a84848484035f610b6d565b6001600160a01b0383166107f057604051634b637e8f60e11b81525f6004820152602401610605565b6001600160a01b0382166108195760405163ec442f0560e01b81525f6004820152602401610605565b6104e1838383610c3f565b6105248133610d65565b5f610839838361059f565b6108b8575f8381526005602090815260408083206001600160a01b03861684529091529020805460ff191660011790556108703390565b6001600160a01b0316826001600160a01b0316847f2f8788117e7eff1d82e926ec794901d17c78024a50270940304540a733656f0d60405160405180910390a45060016103a6565b505f6103a6565b5f306001600160a01b037f00000000000000000000000000000000000000000000000000000000000000001614801561091757507f000000000000000000000000000000000000000000000000000000000000000046145b1561094157507f000000000000000000000000000000000000000000000000000000000000000090565b6104a9604080517f8b73c3c69bb8fe3d512ecc4cf759cc79239f7b179b0ffacaa9a75d522b39400f60208201527f0000000000000000000000000000000000000000000000000000000000000000918101919091527f000000000000000000000000000000000000000000000000000000000000000060608201524660808201523060a08201525f9060c00160405160208183030381529060405280519060200120905090565b5f6109f3838361059f565b156108b8575f8381526005602090815260408083206001600160a01b0386168085529252808320805460ff1916905551339286917ff6391f5c32d9c69d2a47ea670b442974b53935d1edc7fd64eb21e047a839171b9190a45060016103a6565b6001600160a01b038216610a7c5760405163ec442f0560e01b81525f6004820152602401610605565b61053c5f8383610c3f565b6001600160a01b038216610ab057604051634b637e8f60e11b81525f6004820152602401610605565b61053c825f83610c3f565b60606104a97f00000000000000000000000000000000000000000000000000000000000000006006610d9e565b60606104a97f00000000000000000000000000000000000000000000000000000000000000006007610d9e565b5f6103a6610b216108bf565b8360405161190160f01b8152600281019290925260228201526042902090565b5f5f5f5f610b5188888888610e47565b925092509250610b618282610f0f565b50909695505050505050565b6001600160a01b038416610b965760405163e602df0560e01b81525f6004820152602401610605565b6001600160a01b038316610bbf57604051634a1406b160e11b81525f6004820152602401610605565b6001600160a01b038085165f908152600160209081526040808320938716835292905220829055801561049a57826001600160a01b0316846001600160a01b03167f8c5be1e5ebec7d5bd14f71427d1e84f3dd0314c0f7b2291e5b200ac8c7c3b92584604051610c3191815260200190565b60405180910390a350505050565b6001600160a01b038316610c69578060025f828254610c5e91906112d3565b90915550610cd99050565b6001600160a01b0383165f9081526020819052604090205481811015610cbb5760405163391434e360e21b81526001600160a01b03851660048201526024810182905260448101839052606401610605565b6001600160a01b0384165f9081526020819052604090209082900390555b6001600160a01b038216610cf557600280548290039055610d13565b6001600160a01b0382165f9081526020819052604090208054820190555b816001600160a01b0316836001600160a01b03167fddf252ad1be2c89b69c2b068fc378daa952ba7f163c4a11628f55a4df523b3ef83604051610d5891815260200190565b60405180910390a3505050565b610d6f828261059f565b61053c5760405163e2517d3f60e01b81526001600160a01b038216600482015260248101839052604401610605565b606060ff8314610db857610db183610fc7565b90506103a6565b818054610dc49061129b565b80601f0160208091040260200160405190810160405280929190818152602001828054610df09061129b565b8015610e3b5780601f10610e1257610100808354040283529160200191610e3b565b820191905f5260205f20905b815481529060010190602001808311610e1e57829003601f168201915b505050505090506103a6565b5f80807f7fffffffffffffffffffffffffffffff5d576e7357a4501ddfe92f46681b20a0841115610e8057505f91506003905082610f05565b604080515f808252602082018084528a905260ff891692820192909252606081018790526080810186905260019060a0016020604051602081039080840390855afa158015610ed1573d5f5f3e3d5ffd5b5050604051601f1901519150506001600160a01b038116610efc57505f925060019150829050610f05565b92505f91508190505b9450945094915050565b5f826003811115610f2257610f226112f2565b03610f2b575050565b6001826003811115610f3f57610f3f6112f2565b03610f5d5760405163f645eedf60e01b815260040160405180910390fd5b6002826003811115610f7157610f716112f2565b03610f925760405163fce698f760e01b815260048101829052602401610605565b6003826003811115610fa657610fa66112f2565b0361053c576040516335e2f38360e21b815260048101829052602401610605565b60605f610fd383611004565b6040805160208082528183019092529192505f91906020820181803683375050509182525060208101929092525090565b5f60ff8216601f8111156103a657604051632cd44ac360e21b815260040160405180910390fd5b5f6020828403121561103b575f5ffd5b81356001600160e01b031981168114611052575f5ffd5b9392505050565b5f81518084528060208401602086015e5f602082860101526020601f19601f83011685010191505092915050565b602081525f6110526020830184611059565b80356001600160a01b03811681146110af575f5ffd5b919050565b5f5f604083850312156110c5575f5ffd5b6110ce83611099565b946020939093013593505050565b5f5f5f606084860312156110ee575f5ffd5b6110f784611099565b925061110560208501611099565b929592945050506040919091013590565b5f60208284031215611126575f5ffd5b5035919050565b5f5f6040838503121561113e575f5ffd5b8235915061114e60208401611099565b90509250929050565b5f60208284031215611167575f5ffd5b61105282611099565b60ff60f81b8816815260e060208201525f61118e60e0830189611059565b82810360408401526111a08189611059565b606084018890526001600160a01b038716608085015260a0840186905283810360c0850152845180825260208087019350909101905f5b818110156111f55783518352602093840193909201916001016111d7565b50909b9a5050505050505050505050565b5f5f5f5f5f5f5f60e0888a03121561121c575f5ffd5b61122588611099565b965061123360208901611099565b95506040880135945060608801359350608088013560ff81168114611256575f5ffd5b9699959850939692959460a0840135945060c09093013592915050565b5f5f60408385031215611284575f5ffd5b61128d83611099565b915061114e60208401611099565b600181811c908216806112af57607f821691505b6020821081036112cd57634e487b7160e01b5f52602260045260245ffd5b50919050565b808201808211156103a657634e487b7160e01b5f52601160045260245ffd5b634e487b7160e01b5f52602160045260245ffdfea264697066735822122027494e9143fb232893a523a1d1b0d35e1410650ec55c896ab12bb7fcca21420064736f6c634300081e0033",
  "linkReferences": {},
  "deployedLinkReferences": {},
  "immutableReferences": {
    "3658": [
      {
        "length": 32,
        "start": 2335
      }
    ],
    "3660": [
      {
        "length": 32,
        "start": 2293
      }
    ],
    "3662": [
      {
        "length": 32,
        "start": 2251
      }
    ],
    "3664": [
      {
        "length": 32,
        "start": 2416
      }
    ],
    "3666": [
      {
        "length": 32,
        "start": 2456
      }
    ],
    "3669": [
      {
        "length": 32,
        "start": 2754
      }
    ],
    "3672": [
      {
        "length": 32,
        "start": 2799
      }
    ]
  },
  "inputSourceName": "project/contracts/BTD.sol",
  "buildInfoId": "solc-0_8_30-c8acb8990ad90b43312bf4637dc8ee41a0957ad5"
}