{
  "_format": "hh3-artifact-1",
  "contractName": "FarmingPool",
  "sourceName": "contracts/FarmingPool.sol",
  "abi": [
    {
      "inputs": [
        {
          "internalType": "address",
          "name": "owner_",
          "type": "address"
        },
        {
          "internalType": "address",
          "name": "rewardToken_",
          "type": "address"
        },
        {
          "internalType": "address",
          "name": "_core",
          "type": "address"
        },
        {
          "internalType": "address[]",
          "name": "initialFunds",
          "type": "address[]"
        },
        {
          "internalType": "uint256[]",
          "name": "initialShares",
          "type": "uint256[]"
        }
      ],
      "stateMutability": "nonpayable",
      "type": "constructor"
    },
    {
      "inputs": [
        {
          "internalType": "address",
          "name": "owner",
          "type": "address"
        }
      ],
      "name": "OwnableInvalidOwner",
      "type": "error"
    },
    {
      "inputs": [
        {
          "internalType": "address",
          "name": "account",
          "type": "address"
        }
      ],
      "name": "OwnableUnauthorizedAccount",
      "type": "error"
    },
    {
      "inputs": [],
      "name": "ReentrancyGuardReentrantCall",
      "type": "error"
    },
    {
      "inputs": [
        {
          "internalType": "address",
          "name": "token",
          "type": "address"
        }
      ],
      "name": "SafeERC20FailedOperation",
      "type": "error"
    },
    {
      "anonymous": false,
      "inputs": [
        {
          "indexed": true,
          "internalType": "address",
          "name": "user",
          "type": "address"
        },
        {
          "indexed": true,
          "internalType": "uint256",
          "name": "pid",
          "type": "uint256"
        },
        {
          "indexed": false,
          "internalType": "uint256",
          "name": "amount",
          "type": "uint256"
        }
      ],
      "name": "Claim",
      "type": "event"
    },
    {
      "anonymous": false,
      "inputs": [
        {
          "indexed": true,
          "internalType": "address",
          "name": "user",
          "type": "address"
        },
        {
          "indexed": true,
          "internalType": "uint256",
          "name": "pid",
          "type": "uint256"
        },
        {
          "indexed": false,
          "internalType": "uint256",
          "name": "amount",
          "type": "uint256"
        }
      ],
      "name": "Deposit",
      "type": "event"
    },
    {
      "anonymous": false,
      "inputs": [
        {
          "indexed": true,
          "internalType": "address",
          "name": "user",
          "type": "address"
        },
        {
          "indexed": true,
          "internalType": "uint256",
          "name": "pid",
          "type": "uint256"
        },
        {
          "indexed": false,
          "internalType": "uint256",
          "name": "amount",
          "type": "uint256"
        }
      ],
      "name": "EmergencyWithdraw",
      "type": "event"
    },
    {
      "anonymous": false,
      "inputs": [
        {
          "indexed": true,
          "internalType": "address",
          "name": "previousOwner",
          "type": "address"
        },
        {
          "indexed": true,
          "internalType": "address",
          "name": "newOwner",
          "type": "address"
        }
      ],
      "name": "OwnershipTransferred",
      "type": "event"
    },
    {
      "anonymous": false,
      "inputs": [
        {
          "indexed": true,
          "internalType": "address",
          "name": "from",
          "type": "address"
        },
        {
          "indexed": false,
          "internalType": "uint256",
          "name": "amount",
          "type": "uint256"
        }
      ],
      "name": "RewardsFunded",
      "type": "event"
    },
    {
      "anonymous": false,
      "inputs": [
        {
          "indexed": true,
          "internalType": "address",
          "name": "user",
          "type": "address"
        },
        {
          "indexed": true,
          "internalType": "uint256",
          "name": "pid",
          "type": "uint256"
        },
        {
          "indexed": false,
          "internalType": "uint256",
          "name": "amount",
          "type": "uint256"
        }
      ],
      "name": "Withdraw",
      "type": "event"
    },
    {
      "inputs": [],
      "name": "SHARE_BASE",
      "outputs": [
        {
          "internalType": "uint256",
          "name": "",
          "type": "uint256"
        }
      ],
      "stateMutability": "view",
      "type": "function"
    },
    {
      "inputs": [
        {
          "internalType": "contract IERC20",
          "name": "token",
          "type": "address"
        },
        {
          "internalType": "uint256",
          "name": "allocPoint",
          "type": "uint256"
        },
        {
          "internalType": "enum IFarmingPool.PoolKind",
          "name": "kind",
          "type": "uint8"
        }
      ],
      "name": "addPool",
      "outputs": [],
      "stateMutability": "nonpayable",
      "type": "function"
    },
    {
      "inputs": [
        {
          "internalType": "contract IERC20",
          "name": "token",
          "type": "address"
        },
        {
          "internalType": "uint256",
          "name": "allocPoint",
          "type": "uint256"
        },
        {
          "internalType": "enum IFarmingPool.PoolKind",
          "name": "kind",
          "type": "uint8"
        },
        {
          "internalType": "bool",
          "name": "withUpdate",
          "type": "bool"
        }
      ],
      "name": "addPool",
      "outputs": [],
      "stateMutability": "nonpayable",
      "type": "function"
    },
    {
      "inputs": [
        {
          "internalType": "contract IERC20[]",
          "name": "tokens",
          "type": "address[]"
        },
        {
          "internalType": "uint256[]",
          "name": "allocPoints",
          "type": "uint256[]"
        },
        {
          "internalType": "enum IFarmingPool.PoolKind[]",
          "name": "kinds",
          "type": "uint8[]"
        }
      ],
      "name": "addPools",
      "outputs": [],
      "stateMutability": "nonpayable",
      "type": "function"
    },
    {
      "inputs": [],
      "name": "brs",
      "outputs": [
        {
          "internalType": "address",
          "name": "",
          "type": "address"
        }
      ],
      "stateMutability": "view",
      "type": "function"
    },
    {
      "inputs": [
        {
          "internalType": "uint256",
          "name": "pid",
          "type": "uint256"
        }
      ],
      "name": "claim",
      "outputs": [],
      "stateMutability": "nonpayable",
      "type": "function"
    },
    {
      "inputs": [],
      "name": "core",
      "outputs": [
        {
          "internalType": "contract ConfigCore",
          "name": "",
          "type": "address"
        }
      ],
      "stateMutability": "view",
      "type": "function"
    },
    {
      "inputs": [],
      "name": "currentRewardPerSecond",
      "outputs": [
        {
          "internalType": "uint256",
          "name": "",
          "type": "uint256"
        }
      ],
      "stateMutability": "view",
      "type": "function"
    },
    {
      "inputs": [
        {
          "internalType": "uint256",
          "name": "pid",
          "type": "uint256"
        },
        {
          "internalType": "uint256",
          "name": "amount",
          "type": "uint256"
        }
      ],
      "name": "deposit",
      "outputs": [],
      "stateMutability": "nonpayable",
      "type": "function"
    },
    {
      "inputs": [
        {
          "internalType": "uint256",
          "name": "pid",
          "type": "uint256"
        }
      ],
      "name": "emergencyWithdraw",
      "outputs": [],
      "stateMutability": "nonpayable",
      "type": "function"
    },
    {
      "inputs": [
        {
          "internalType": "uint256",
          "name": "",
          "type": "uint256"
        }
      ],
      "name": "fundAddrs",
      "outputs": [
        {
          "internalType": "address",
          "name": "",
          "type": "address"
        }
      ],
      "stateMutability": "view",
      "type": "function"
    },
    {
      "inputs": [
        {
          "internalType": "uint256",
          "name": "amount",
          "type": "uint256"
        }
      ],
      "name": "fundRewards",
      "outputs": [],
      "stateMutability": "nonpayable",
      "type": "function"
    },
    {
      "inputs": [
        {
          "internalType": "uint256",
          "name": "",
          "type": "uint256"
        }
      ],
      "name": "fundShares",
      "outputs": [
        {
          "internalType": "uint256",
          "name": "",
          "type": "uint256"
        }
      ],
      "stateMutability": "view",
      "type": "function"
    },
    {
      "inputs": [],
      "name": "massUpdatePools",
      "outputs": [],
      "stateMutability": "nonpayable",
      "type": "function"
    },
    {
      "inputs": [],
      "name": "minted",
      "outputs": [
        {
          "internalType": "uint256",
          "name": "",
          "type": "uint256"
        }
      ],
      "stateMutability": "view",
      "type": "function"
    },
    {
      "inputs": [],
      "name": "owner",
      "outputs": [
        {
          "internalType": "address",
          "name": "",
          "type": "address"
        }
      ],
      "stateMutability": "view",
      "type": "function"
    },
    {
      "inputs": [
        {
          "internalType": "uint256",
          "name": "pid",
          "type": "uint256"
        },
        {
          "internalType": "address",
          "name": "account",
          "type": "address"
        }
      ],
      "name": "pendingReward",
      "outputs": [
        {
          "internalType": "uint256",
          "name": "",
          "type": "uint256"
        }
      ],
      "stateMutability": "view",
      "type": "function"
    },
    {
      "inputs": [
        {
          "internalType": "uint256",
          "name": "pid",
          "type": "uint256"
        }
      ],
      "name": "poolInfo",
      "outputs": [
        {
          "internalType": "contract IERC20",
          "name": "lpToken",
          "type": "address"
        },
        {
          "internalType": "uint256",
          "name": "allocPoint",
          "type": "uint256"
        },
        {
          "internalType": "uint256",
          "name": "lastRewardTime",
          "type": "uint256"
        },
        {
          "internalType": "uint256",
          "name": "accRewardPerShare",
          "type": "uint256"
        },
        {
          "internalType": "uint256",
          "name": "totalStaked",
          "type": "uint256"
        },
        {
          "internalType": "enum IFarmingPool.PoolKind",
          "name": "kind",
          "type": "uint8"
        }
      ],
      "stateMutability": "view",
      "type": "function"
    },
    {
      "inputs": [
        {
          "internalType": "uint256",
          "name": "pid",
          "type": "uint256"
        }
      ],
      "name": "poolKind",
      "outputs": [
        {
          "internalType": "enum IFarmingPool.PoolKind",
          "name": "",
          "type": "uint8"
        }
      ],
      "stateMutability": "view",
      "type": "function"
    },
    {
      "inputs": [],
      "name": "poolLength",
      "outputs": [
        {
          "internalType": "uint256",
          "name": "",
          "type": "uint256"
        }
      ],
      "stateMutability": "view",
      "type": "function"
    },
    {
      "inputs": [],
      "name": "renounceOwnership",
      "outputs": [],
      "stateMutability": "nonpayable",
      "type": "function"
    },
    {
      "inputs": [],
      "name": "rewardToken",
      "outputs": [
        {
          "internalType": "contract IERC20",
          "name": "",
          "type": "address"
        }
      ],
      "stateMutability": "view",
      "type": "function"
    },
    {
      "inputs": [
        {
          "internalType": "address[]",
          "name": "addrs",
          "type": "address[]"
        },
        {
          "internalType": "uint256[]",
          "name": "shares",
          "type": "uint256[]"
        }
      ],
      "name": "setFunds",
      "outputs": [],
      "stateMutability": "nonpayable",
      "type": "function"
    },
    {
      "inputs": [
        {
          "internalType": "uint256",
          "name": "pid",
          "type": "uint256"
        },
        {
          "internalType": "uint256",
          "name": "allocPoint",
          "type": "uint256"
        },
        {
          "internalType": "bool",
          "name": "withUpdate",
          "type": "bool"
        }
      ],
      "name": "setPool",
      "outputs": [],
      "stateMutability": "nonpayable",
      "type": "function"
    },
    {
      "inputs": [],
      "name": "startTime",
      "outputs": [
        {
          "internalType": "uint256",
          "name": "",
          "type": "uint256"
        }
      ],
      "stateMutability": "view",
      "type": "function"
    },
    {
      "inputs": [],
      "name": "totalAllocPoint",
      "outputs": [
        {
          "internalType": "uint256",
          "name": "",
          "type": "uint256"
        }
      ],
      "stateMutability": "view",
      "type": "function"
    },
    {
      "inputs": [
        {
          "internalType": "address",
          "name": "newOwner",
          "type": "address"
        }
      ],
      "name": "transferOwnership",
      "outputs": [],
      "stateMutability": "nonpayable",
      "type": "function"
    },
    {
      "inputs": [
        {
          "internalType": "uint256",
          "name": "pid",
          "type": "uint256"
        }
      ],
      "name": "updatePool",
      "outputs": [],
      "stateMutability": "nonpayable",
      "type": "function"
    },
    {
      "inputs": [
        {
          "internalType": "uint256",
          "name": "pid",
          "type": "uint256"
        },
        {
          "internalType": "address",
          "name": "user",
          "type": "address"
        }
      ],
      "name": "userInfo",
      "outputs": [
        {
          "internalType": "uint256",
          "name": "amount",
          "type": "uint256"
        },
        {
          "internalType": "uint256",
          "name": "rewardDebt",
          "type": "uint256"
        }
      ],
      "stateMutability": "view",
      "type": "function"
    },
    {
      "inputs": [
        {
          "internalType": "uint256",
          "name": "pid",
          "type": "uint256"
        },
        {
          "internalType": "uint256",
          "name": "amount",
          "type": "uint256"
        }
      ],
      "name": "withdraw",
      "outputs": [],
      "stateMutability": "nonpayable",
      "type": "function"
    }
  ],
  "bytecode": "0x60e060405234801561000f575f5ffd5b50604051612be9380380612be983398101604081905261002e9161048d565b846001600160a01b03811661005d57604051631e4fbdf760e01b81525f60048201526024015b60405180910390fd5b61006681610198565b50600180556001600160a01b0385166100c15760405162461bcd60e51b815260206004820152601a60248201527f4661726d696e67506f6f6c3a20696e76616c6964206f776e65720000000000006044820152606401610054565b6001600160a01b0384166101175760405162461bcd60e51b815260206004820152601860248201527f4661726d696e67506f6f6c3a207a65726f2072657761726400000000000000006044820152606401610054565b6001600160a01b03831661016d5760405162461bcd60e51b815260206004820152601660248201527f4661726d696e67506f6f6c3a207a65726f20636f7265000000000000000000006044820152606401610054565b6001600160a01b03808516608052831660a0524260c05261018e82826101e7565b50505050506105ba565b5f80546001600160a01b038381166001600160a01b0319831681178455604051919092169283917f8be0079c531659141344cd1fd0a4f28419497f9722a3daafe3b4186f6b6457e09190a35050565b80518251146102385760405162461bcd60e51b815260206004820152601c60248201527f4661726d696e67506f6f6c3a206c656e677468206d69736d61746368000000006044820152606401610054565b5f805b82518110156102735782818151811061025657610256610581565b6020026020010151826102699190610595565b915060010161023b565b5060648111156102c55760405162461bcd60e51b815260206004820152601f60248201527f4661726d696e67506f6f6c3a20736861726573206578636565642031303025006044820152606401610054565b82516102d89060069060208601906102f2565b5081516102ec906007906020850190610355565b50505050565b828054828255905f5260205f20908101928215610345579160200282015b8281111561034557825182546001600160a01b0319166001600160a01b03909116178255602090920191600190910190610310565b5061035192915061038e565b5090565b828054828255905f5260205f20908101928215610345579160200282015b82811115610345578251825591602001919060010190610373565b5b80821115610351575f815560010161038f565b80516001600160a01b03811681146103b8575f5ffd5b919050565b634e487b7160e01b5f52604160045260245ffd5b604051601f8201601f191681016001600160401b03811182821017156103f9576103f96103bd565b604052919050565b5f6001600160401b03821115610419576104196103bd565b5060051b60200190565b5f82601f830112610432575f5ffd5b815161044561044082610401565b6103d1565b8082825260208201915060208360051b860101925085831115610466575f5ffd5b602085015b8381101561048357805183526020928301920161046b565b5095945050505050565b5f5f5f5f5f60a086880312156104a1575f5ffd5b6104aa866103a2565b94506104b8602087016103a2565b93506104c6604087016103a2565b60608701519093506001600160401b038111156104e1575f5ffd5b8601601f810188136104f1575f5ffd5b80516104ff61044082610401565b8082825260208201915060208360051b85010192508a831115610520575f5ffd5b6020840193505b8284101561054957610538846103a2565b825260209384019390910190610527565b60808a0151909550925050506001600160401b03811115610568575f5ffd5b61057488828901610423565b9150509295509295909350565b634e487b7160e01b5f52603260045260245ffd5b808201808211156105b457634e487b7160e01b5f52601160045260245ffd5b92915050565b60805160a05160c0516125b16106385f395f8181610347015261138901525f818161040d0152818161182e01528181611c3001528181611d0e01528181611da80152611e8b01525f818161026a01528181610447015281816109b101528181610bff015281816110db01528181611294015261175401526125b15ff3fe608060405234801561000f575f5ffd5b50600436106101d1575f3560e01c8063630b5ba1116100fe57806393f1a40b1161009e578063ef0e0d3a1161006e578063ef0e0d3a14610400578063f2f4eb2614610408578063f2fde38b1461042f578063f7c618c114610442575f5ffd5b806393f1a40b1461039f57806398969e82146103c7578063d7ba2062146103da578063e2bbb158146103ed575f5ffd5b806378e97925116100d957806378e9792514610342578063867cbb5e146103695780638da5cb5b1461037c57806393707a191461038c575f5ffd5b8063630b5ba11461032a5780636bac976c14610332578063715018a61461033a575f5ffd5b80633b47ef56116101745780634f02c420116101445780634f02c420146102e857806351eb05a6146102f15780635312ea8e146103045780635466341114610317575f5ffd5b80633b47ef5614610268578063441a3e70146102a257806346ca6bea146102b55780634835dd4a146102c8575f5ffd5b806317caf6f1116101af57806317caf6f114610226578063304784151461022f5780633685be5c14610242578063379607f514610255575f5ffd5b8063081e3eda146101d55780630b56cecf146101ec5780631526fe2714610201575b5f5ffd5b6003545b6040519081526020015b60405180910390f35b6101ff6101fa3660046120b4565b610469565b005b61021461020f366004612120565b6104e2565b6040516101e39695949392919061216b565b6101d960055481565b6101ff61023d3660046121af565b610549565b6101ff610250366004612275565b61067f565b6101ff610263366004612120565b610698565b7f00000000000000000000000000000000000000000000000000000000000000005b6040516001600160a01b0390911681526020016101e3565b6101ff6102b03660046122b0565b6106b6565b6101ff6102c33660046122dd565b6106d6565b6102db6102d6366004612120565b610739565b6040516101e39190612313565b6101d960025481565b6101ff6102ff366004612120565b610769565b6101ff610312366004612120565b610a27565b61028a610325366004612120565b610b36565b6101ff610b5e565b6101d9606481565b6101ff610b7c565b6101d97f000000000000000000000000000000000000000000000000000000000000000081565b6101ff610377366004612321565b610b8f565b5f546001600160a01b031661028a565b6101ff61039a366004612120565b610ba3565b6103b26103ad36600461236f565b610c5f565b604080519283526020830191909152016101e3565b6101d96103d536600461236f565b610c90565b6101d96103e8366004612120565b610d75565b6101ff6103fb3660046122b0565b610d94565b6101d9610da7565b61028a7f000000000000000000000000000000000000000000000000000000000000000081565b6101ff61043d36600461239d565b610db5565b61028a7f000000000000000000000000000000000000000000000000000000000000000081565b610471610def565b6104dc8484808060200260200160405190810160405280939291908181526020018383602002808284375f92019190915250506040805160208088028281018201909352878252909350879250869182918501908490808284375f92019190915250610e1b92505050565b50505050565b5f5f5f5f5f5f5f600388815481106104fc576104fc6123b8565b5f9182526020909120600690910201805460018201546002830154600384015460048501546005909501546001600160a01b039094169d929c50909a50985091965060ff16945092505050565b610551610def565b8483146105a55760405162461bcd60e51b815260206004820152601c60248201527f4661726d696e67506f6f6c3a206c656e677468206d69736d617463680000000060448201526064015b60405180910390fd5b8481146105f45760405162461bcd60e51b815260206004820152601a60248201527f4661726d696e67506f6f6c3a206b696e64206d69736d61746368000000000000604482015260640161059c565b5f5b858110156106765761066e858583818110610613576106136123b8565b9050602002013588888481811061062c5761062c6123b8565b9050602002016020810190610641919061239d565b858585818110610653576106536123b8565b905060200201602081019061066891906123cc565b5f610f20565b6001016105f6565b50505050505050565b610687610def565b6106938284835f610f20565b505050565b6106a0611022565b6106aa813361104c565b6106b360018055565b50565b6106be611022565b6106c9828233611155565b6106d260018055565b5050565b6106de610def565b80156106ec576106ec610b5e565b5f60038481548110610700576107006123b8565b905f5260205f209060060201905082816001015460055461072191906123f9565b61072b919061240c565b600555600101919091555050565b5f6003828154811061074d5761074d6123b8565b5f91825260209091206005600690920201015460ff1692915050565b5f6003828154811061077d5761077d6123b8565b905f5260205f20906006020190508060020154421161079a575050565b60048101548015806107ac5750600554155b156107bc57504260029091015550565b5f8260020154426107cd91906123f9565b90505f6107e9826107dc61136f565b86600101546005546113de565b9050610804600254826b06c9144c1c690d4cb4000000611423565b9050805f0361081d574284600201819055505050505050565b8060025f82825461082e919061240c565b909155505f9050805f19815b6006548110156108e4575f6001600160a01b031660068281548110610861576108616123b8565b5f918252602090912001546001600160a01b031614801590610884575060075481105b80156108aa57505f6007828154811061089f5761089f6123b8565b905f5260205f200154115b156108dc57600781815481106108c2576108c26123b8565b905f5260205f200154836108d6919061240c565b92508091505b60010161083a565b505f5b6006548110156109f1575f60068281548110610905576109056123b8565b5f9182526020822001546007546001600160a01b039091169250831061092b575f610948565b6007838154811061093e5761093e6123b8565b905f5260205f2001545b90506001600160a01b0382161580159061096157505f81115b156109e7575f84840361098f575f61097b89886064611464565b905061098788826123f9565b91505061099e565b61099b88836064611464565b90505b80156109e5576109d86001600160a01b037f0000000000000000000000000000000000000000000000000000000000000000168483611514565b6109e2818861240c565b96505b505b50506001016108e7565b505f6109fd84866123f9565b9050610a0e88600301548289611573565b6003890155505042600290960195909555505050505050565b610a2f611022565b5f60038281548110610a4357610a436123b8565b5f9182526020808320858452600482526040808520338652909252922080546006909202909201925080610ab95760405162461bcd60e51b815260206004820181905260248201527f4661726d696e67506f6f6c3a206e6f7468696e6720746f207769746864726177604482015260640161059c565b5f80835560018301819055600484018054839290610ad89084906123f9565b90915550508254610af3906001600160a01b03163383611514565b604051818152849033907fbb757047c2b5f3974fe26b7c10f732e7bce710b0952a71082702781e62ae05959060200160405180910390a35050506106b360018055565b60068181548110610b45575f80fd5b5f918252602090912001546001600160a01b0316905081565b6003545f5b818110156106d257610b7481610769565b600101610b63565b610b84610def565b610b8d5f6115a5565b565b610b97610def565b6104dc83858484610f20565b5f8111610bf25760405162461bcd60e51b815260206004820152601860248201527f4661726d696e67506f6f6c3a20616d6f756e74207a65726f0000000000000000604482015260640161059c565b610c276001600160a01b037f0000000000000000000000000000000000000000000000000000000000000000163330846115f4565b60405181815233907fd53214ca07be5520e229c395f05a3e5c0697ec6279184ffbe2758d304fd322cc9060200160405180910390a250565b5f8281526004602090815260408083206001600160a01b0385168452909152902080546001909101545b9250929050565b5f5f60038481548110610ca557610ca56123b8565b5f9182526020808320878452600480835260408086206001600160a01b038a168752909352919093206003600690930290930191820154908201546002830154929450909142118015610cf757505f81115b15610d56575f846002015442610d0d91906123f9565b90505f610d2982610d1c61136f565b88600101546005546113de565b9050610d44600254826b06c9144c1c690d4cb4000000611423565b9050610d51848285611573565b935050505b610d68835f015483856001015461162d565b9450505050505b92915050565b60078181548110610d84575f80fd5b5f91825260209091200154905081565b610d9c611022565b6106c9828233611658565b5f610db061136f565b905090565b610dbd610def565b6001600160a01b038116610de657604051631e4fbdf760e01b81525f600482015260240161059c565b6106b3816115a5565b5f546001600160a01b03163314610b8d5760405163118cdaa760e01b815233600482015260240161059c565b8051825114610e6c5760405162461bcd60e51b815260206004820152601c60248201527f4661726d696e67506f6f6c3a206c656e677468206d69736d6174636800000000604482015260640161059c565b5f805b8251811015610ea757828181518110610e8a57610e8a6123b8565b602002602001015182610e9d919061240c565b9150600101610e6f565b506064811115610ef95760405162461bcd60e51b815260206004820152601f60248201527f4661726d696e67506f6f6c3a2073686172657320657863656564203130302500604482015260640161059c565b8251610f0c906006906020860190611fc3565b5081516104dc906007906020850190612026565b8015610f2e57610f2e610b5e565b8360055f828254610f3f919061240c565b9250508190555060036040518060c00160405280856001600160a01b031681526020018681526020014281526020015f81526020015f8152602001846001811115610f8c57610f8c612137565b90528154600180820184555f938452602093849020835160069093020180546001600160a01b0319166001600160a01b03909316929092178255928201518184015560408201516002820155606082015160038201556080820151600482015560a0820151600582018054939492939192909160ff191690838181111561101557611015612137565b0217905550505050505050565b60026001540361104557604051633ee5aeb560e01b815260040160405180910390fd5b6002600155565b5f60038381548110611060576110606123b8565b5f91825260208083208684526004825260408085206001600160a01b038816865290925292206006909102909101915061109984610769565b5f6110b0825f01548460030154846001015461162d565b90506110c3825f01548460030154611803565b6001830155801561114e576111026001600160a01b037f0000000000000000000000000000000000000000000000000000000000000000168583611514565b84846001600160a01b03167f34fcbac0073d7c3d388e51312faf357774904998eeb8fca628b9e6f65ee1cbf78360405161113e91815260200190565b60405180910390a361114e61182b565b5050505050565b5f60038481548110611169576111696123b8565b5f91825260208083208784526004825260408085206001600160a01b038816865290925292208054600690920290920192508411156111f65760405162461bcd60e51b8152602060048201526024808201527f4661726d696e67506f6f6c3a2077697468647261772065786365656473207374604482015263185ad95960e21b606482015260840161059c565b8315611211576005820154611211908390869060ff16611921565b61121a85610769565b5f611231825f01548460030154846001015461162d565b9050841561126b5784825f015f82825461124b91906123f9565b9250508190555084836004015f82825461126591906123f9565b90915550505b61127c825f01548460030154611803565b60018301558015611307576112bb6001600160a01b037f0000000000000000000000000000000000000000000000000000000000000000168583611514565b85846001600160a01b03167f34fcbac0073d7c3d388e51312faf357774904998eeb8fca628b9e6f65ee1cbf7836040516112f791815260200190565b60405180910390a361130761182b565b8415611323578254611323906001600160a01b03168587611514565b85846001600160a01b03167ff279e6a1f5e320cca91135676d9cb6e44ca8a08c0b88342bcdb1144f6511b5688760405161135f91815260200190565b60405180910390a3505050505050565b5f6005545f0361137e57505f90565b5f630784ce006113ae7f0000000000000000000000000000000000000000000000000000000000000000426123f9565b6113b89190612433565b90505f6113d5630784ce006b03648a260e3486a65a000000612433565b90911c92915050565b5f8415806113ea575083155b806113f3575081155b156113ff57505f61141b565b5f61140b858585611464565b90506114178682612452565b9150505b949350505050565b5f8215806114315750818410155b1561143d57505f61145d565b5f61144885846123f9565b90508084116114575783611459565b805b9150505b9392505050565b5f5f5f6114718686611964565b91509150815f036114955783818161148b5761148b61241f565b049250505061145d565b8184116114ac576114ac6003851502601118611980565b5f848688095f868103871696879004966002600389028118808a02820302808a02820302808a02820302808a02820302808a02820302808a02909103029181900381900460010185841190960395909502919093039390930492909217029150509392505050565b6040516001600160a01b0383811660248301526044820183905261069391859182169063a9059cbb906064015b604051602081830303815290604052915060e01b6020820180516001600160e01b038381831617835250505050611991565b5f82158061157f575081155b1561158b57508261145d565b61159b8364e8d4a5100084611464565b61141b908561240c565b5f80546001600160a01b038381166001600160a01b0319831681178455604051919092169283917f8be0079c531659141344cd1fd0a4f28419497f9722a3daafe3b4186f6b6457e09190a35050565b6040516001600160a01b0384811660248301528381166044830152606482018390526104dc9186918216906323b872dd90608401611541565b5f5f61163f858564e8d4a51000611464565b905082811161164e575f611459565b61145983826123f9565b5f6003848154811061166c5761166c6123b8565b5f91825260208083208784526004825260408085206001600160a01b03881686529092529220600690910290910191506116a585610769565b80545f90156116c7576116c4825f01548460030154846001015461162d565b90505b841561172b5760058301546116e2908490879060ff16611921565b82546116f9906001600160a01b03168530886115f4565b84825f015f82825461170b919061240c565b9250508190555084836004015f828254611725919061240c565b90915550505b61173c825f01548460030154611803565b600183015580156117c75761177b6001600160a01b037f0000000000000000000000000000000000000000000000000000000000000000168583611514565b85846001600160a01b03167f34fcbac0073d7c3d388e51312faf357774904998eeb8fca628b9e6f65ee1cbf7836040516117b791815260200190565b60405180910390a36117c761182b565b85846001600160a01b03167f90890809c654f11d6e72a28fa60149770a0d11ec6c92319d6ceb2bb0a4ea1a158760405161135f91815260200190565b5f82158061180f575081155b1561181b57505f610d6f565b61145d838364e8d4a51000611464565b5f7f00000000000000000000000000000000000000000000000000000000000000006001600160a01b0316632d2c55656040518163ffffffff1660e01b8152600401602060405180830381865afa158015611888573d5f5f3e3d5ffd5b505050506040513d601f19601f820116820180604052508101906118ac9190612469565b90506001600160a01b038116156106b357806001600160a01b03166316820a376040518163ffffffff1660e01b81526004016020604051808303815f875af1925050508015611918575060408051601f3d908101601f1916820190925261191591810190612484565b60015b156106b3575050565b600181600181111561193557611935612137565b0361194f578254610693906001600160a01b0316836119fd565b8254610693906001600160a01b031683611c2e565b5f805f1983850993909202808410938190039390930393915050565b634e487b715f52806020526024601cfd5b5f5f60205f8451602086015f885af1806119b0576040513d5f823e3d81fd5b50505f513d915081156119c75780600114156119d4565b6001600160a01b0384163b155b156104dc57604051635274afe760e01b81526001600160a01b038516600482015260240161059c565b5f8290505f816001600160a01b03166318160ddd6040518163ffffffff1660e01b8152600401602060405180830381865afa158015611a3e573d5f5f3e3d5ffd5b505050506040513d601f19601f82011682018060405250810190611a62919061249f565b90505f8111611ab35760405162461bcd60e51b815260206004820152601b60248201527f4661726d696e67506f6f6c3a207a65726f204c5020737570706c790000000000604482015260640161059c565b5f5f836001600160a01b0316630902f1ac6040518163ffffffff1660e01b8152600401606060405180830381865afa158015611af1573d5f5f3e3d5ffd5b505050506040513d601f19601f82011682018060405250810190611b1591906124cc565b50915091505f846001600160a01b0316630dfe16816040518163ffffffff1660e01b8152600401602060405180830381865afa158015611b57573d5f5f3e3d5ffd5b505050506040513d601f19601f82011682018060405250810190611b7b9190612469565b90505f856001600160a01b031663d21220a76040518163ffffffff1660e01b8152600401602060405180830381865afa158015611bba573d5f5f3e3d5ffd5b505050506040513d601f19601f82011682018060405250810190611bde9190612469565b90505f611bf588866001600160701b031688611464565b90505f611c0c89866001600160701b031689611464565b9050611c188483611c2e565b611c228382611c2e565b50505050505050505050565b7f00000000000000000000000000000000000000000000000000000000000000006001600160a01b0316634dede3de6040518163ffffffff1660e01b8152600401602060405180830381865afa158015611c8a573d5f5f3e3d5ffd5b505050506040513d601f19601f82011682018060405250810190611cae9190612469565b6001600160a01b0316826001600160a01b031603611d0c576001811015611ce75760405162461bcd60e51b815260040161059c9061250d565b64e8d4a510008111156106d25760405162461bcd60e51b815260040161059c90612544565b7f00000000000000000000000000000000000000000000000000000000000000006001600160a01b03166389a302716040518163ffffffff1660e01b8152600401602060405180830381865afa158015611d68573d5f5f3e3d5ffd5b505050506040513d601f19601f82011682018060405250810190611d8c9190612469565b6001600160a01b0316826001600160a01b03161480611e3b57507f00000000000000000000000000000000000000000000000000000000000000006001600160a01b031663c54e44eb6040518163ffffffff1660e01b8152600401602060405180830381865afa158015611e02573d5f5f3e3d5ffd5b505050506040513d601f19601f82011682018060405250810190611e269190612469565b6001600160a01b0316826001600160a01b0316145b15611e89576103e8811015611e625760405162461bcd60e51b815260040161059c9061250d565b66038d7ea4c680008111156106d25760405162461bcd60e51b815260040161059c90612544565b7f00000000000000000000000000000000000000000000000000000000000000006001600160a01b031663ad5c46486040518163ffffffff1660e01b8152600401602060405180830381865afa158015611ee5573d5f5f3e3d5ffd5b505050506040513d601f19601f82011682018060405250810190611f099190612469565b6001600160a01b0316826001600160a01b031603611f70576402540be400811015611f465760405162461bcd60e51b815260040161059c9061250d565b69152d02c7e14af68000008111156106d25760405162461bcd60e51b815260040161059c90612544565b66038d7ea4c68000811015611f975760405162461bcd60e51b815260040161059c9061250d565b6b033b2e3c9fd0803ce80000008111156106d25760405162461bcd60e51b815260040161059c90612544565b828054828255905f5260205f20908101928215612016579160200282015b8281111561201657825182546001600160a01b0319166001600160a01b03909116178255602090920191600190910190611fe1565b5061202292915061205f565b5090565b828054828255905f5260205f20908101928215612016579160200282015b82811115612016578251825591602001919060010190612044565b5b80821115612022575f8155600101612060565b5f5f83601f840112612083575f5ffd5b50813567ffffffffffffffff81111561209a575f5ffd5b6020830191508360208260051b8501011115610c89575f5ffd5b5f5f5f5f604085870312156120c7575f5ffd5b843567ffffffffffffffff8111156120dd575f5ffd5b6120e987828801612073565b909550935050602085013567ffffffffffffffff811115612108575f5ffd5b61211487828801612073565b95989497509550505050565b5f60208284031215612130575f5ffd5b5035919050565b634e487b7160e01b5f52602160045260245ffd5b6002811061216757634e487b7160e01b5f52602160045260245ffd5b9052565b6001600160a01b03871681526020810186905260408101859052606081018490526080810183905260c081016121a460a083018461214b565b979650505050505050565b5f5f5f5f5f5f606087890312156121c4575f5ffd5b863567ffffffffffffffff8111156121da575f5ffd5b6121e689828a01612073565b909750955050602087013567ffffffffffffffff811115612205575f5ffd5b61221189828a01612073565b909550935050604087013567ffffffffffffffff811115612230575f5ffd5b61223c89828a01612073565b979a9699509497509295939492505050565b6001600160a01b03811681146106b3575f5ffd5b803560028110612270575f5ffd5b919050565b5f5f5f60608486031215612287575f5ffd5b83356122928161224e565b9250602084013591506122a760408501612262565b90509250925092565b5f5f604083850312156122c1575f5ffd5b50508035926020909101359150565b80151581146106b3575f5ffd5b5f5f5f606084860312156122ef575f5ffd5b83359250602084013591506040840135612308816122d0565b809150509250925092565b60208101610d6f828461214b565b5f5f5f5f60808587031215612334575f5ffd5b843561233f8161224e565b93506020850135925061235460408601612262565b91506060850135612364816122d0565b939692955090935050565b5f5f60408385031215612380575f5ffd5b8235915060208301356123928161224e565b809150509250929050565b5f602082840312156123ad575f5ffd5b813561145d8161224e565b634e487b7160e01b5f52603260045260245ffd5b5f602082840312156123dc575f5ffd5b61145d82612262565b634e487b7160e01b5f52601160045260245ffd5b81810381811115610d6f57610d6f6123e5565b80820180821115610d6f57610d6f6123e5565b634e487b7160e01b5f52601260045260245ffd5b5f8261244d57634e487b7160e01b5f52601260045260245ffd5b500490565b8082028115828204841417610d6f57610d6f6123e5565b5f60208284031215612479575f5ffd5b815161145d8161224e565b5f60208284031215612494575f5ffd5b815161145d816122d0565b5f602082840312156124af575f5ffd5b5051919050565b80516001600160701b0381168114612270575f5ffd5b5f5f5f606084860312156124de575f5ffd5b6124e7846124b6565b92506124f5602085016124b6565b9150604084015163ffffffff81168114612308575f5ffd5b6020808252601d908201527f4661726d696e67506f6f6c3a20616d6f756e7420746f6f20736d616c6c000000604082015260600190565b6020808252601d908201527f4661726d696e67506f6f6c3a20616d6f756e7420746f6f206c6172676500000060408201526060019056fea26469706673582212208020636a723507b36a71710109d9c49385fcf817c8fecd606c3c18356ae083da64736f6c634300081e0033",
  "linkReferences": {},
  "deployedLinkReferences": {},
  "immutableReferences": {
    "5160": [
      {
        "length": 32,
        "start": 618
      },
      {
        "length": 32,
        "start": 1095
      },
      {
        "length": 32,
        "start": 2481
      },
      {
        "length": 32,
        "start": 3071
      },
      {
        "length": 32,
        "start": 4315
      },
      {
        "length": 32,
        "start": 4756
      },
      {
        "length": 32,
        "start": 5972
      }
    ],
    "5163": [
      {
        "length": 32,
        "start": 1037
      },
      {
        "length": 32,
        "start": 6190
      },
      {
        "length": 32,
        "start": 7216
      },
      {
        "length": 32,
        "start": 7438
      },
      {
        "length": 32,
        "start": 7592
      },
      {
        "length": 32,
        "start": 7819
      }
    ],
    "5166": [
      {
        "length": 32,
        "start": 839
      },
      {
        "length": 32,
        "start": 5001
      }
    ]
  },
  "inputSourceName": "project/contracts/FarmingPool.sol",
  "buildInfoId": "solc-0_8_30-242accf41ee387f4072fea55079a826657bebf21"
}