{
  "_format": "hh3-artifact-1",
  "contractName": "FarmingPool",
  "sourceName": "contracts/FarmingPool.sol",
  "abi": [
    {
      "inputs": [
        {
          "internalType": "address",
          "name": "owner_",
          "type": "address"
        },
        {
          "internalType": "address",
          "name": "rewardToken_",
          "type": "address"
        },
        {
          "internalType": "address",
          "name": "_core",
          "type": "address"
        },
        {
          "internalType": "address[]",
          "name": "initialFunds",
          "type": "address[]"
        },
        {
          "internalType": "uint256[]",
          "name": "initialShares",
          "type": "uint256[]"
        }
      ],
      "stateMutability": "nonpayable",
      "type": "constructor"
    },
    {
      "inputs": [
        {
          "internalType": "address",
          "name": "owner",
          "type": "address"
        }
      ],
      "name": "OwnableInvalidOwner",
      "type": "error"
    },
    {
      "inputs": [
        {
          "internalType": "address",
          "name": "account",
          "type": "address"
        }
      ],
      "name": "OwnableUnauthorizedAccount",
      "type": "error"
    },
    {
      "inputs": [],
      "name": "ReentrancyGuardReentrantCall",
      "type": "error"
    },
    {
      "inputs": [
        {
          "internalType": "address",
          "name": "token",
          "type": "address"
        }
      ],
      "name": "SafeERC20FailedOperation",
      "type": "error"
    },
    {
      "anonymous": false,
      "inputs": [
        {
          "indexed": true,
          "internalType": "address",
          "name": "user",
          "type": "address"
        },
        {
          "indexed": true,
          "internalType": "uint256",
          "name": "pid",
          "type": "uint256"
        },
        {
          "indexed": false,
          "internalType": "uint256",
          "name": "amount",
          "type": "uint256"
        }
      ],
      "name": "Claim",
      "type": "event"
    },
    {
      "anonymous": false,
      "inputs": [
        {
          "indexed": true,
          "internalType": "address",
          "name": "user",
          "type": "address"
        },
        {
          "indexed": true,
          "internalType": "uint256",
          "name": "pid",
          "type": "uint256"
        },
        {
          "indexed": false,
          "internalType": "uint256",
          "name": "amount",
          "type": "uint256"
        }
      ],
      "name": "Deposit",
      "type": "event"
    },
    {
      "anonymous": false,
      "inputs": [
        {
          "indexed": true,
          "internalType": "address",
          "name": "user",
          "type": "address"
        },
        {
          "indexed": true,
          "internalType": "uint256",
          "name": "pid",
          "type": "uint256"
        },
        {
          "indexed": false,
          "internalType": "uint256",
          "name": "amount",
          "type": "uint256"
        }
      ],
      "name": "EmergencyWithdraw",
      "type": "event"
    },
    {
      "anonymous": false,
      "inputs": [
        {
          "indexed": true,
          "internalType": "uint256",
          "name": "pid",
          "type": "uint256"
        },
        {
          "indexed": false,
          "internalType": "uint256",
          "name": "newValuePerToken",
          "type": "uint256"
        },
        {
          "indexed": false,
          "internalType": "uint256",
          "name": "timestamp",
          "type": "uint256"
        }
      ],
      "name": "LPValueUpdated",
      "type": "event"
    },
    {
      "anonymous": false,
      "inputs": [
        {
          "indexed": true,
          "internalType": "address",
          "name": "previousOwner",
          "type": "address"
        },
        {
          "indexed": true,
          "internalType": "address",
          "name": "newOwner",
          "type": "address"
        }
      ],
      "name": "OwnershipTransferred",
      "type": "event"
    },
    {
      "anonymous": false,
      "inputs": [
        {
          "indexed": true,
          "internalType": "address",
          "name": "from",
          "type": "address"
        },
        {
          "indexed": false,
          "internalType": "uint256",
          "name": "amount",
          "type": "uint256"
        }
      ],
      "name": "RewardsFunded",
      "type": "event"
    },
    {
      "anonymous": false,
      "inputs": [
        {
          "indexed": true,
          "internalType": "address",
          "name": "user",
          "type": "address"
        },
        {
          "indexed": true,
          "internalType": "uint256",
          "name": "pid",
          "type": "uint256"
        },
        {
          "indexed": false,
          "internalType": "uint256",
          "name": "amount",
          "type": "uint256"
        }
      ],
      "name": "Withdraw",
      "type": "event"
    },
    {
      "inputs": [],
      "name": "PRICE_UPDATE_INTERVAL",
      "outputs": [
        {
          "internalType": "uint256",
          "name": "",
          "type": "uint256"
        }
      ],
      "stateMutability": "view",
      "type": "function"
    },
    {
      "inputs": [],
      "name": "SHARE_BASE",
      "outputs": [
        {
          "internalType": "uint256",
          "name": "",
          "type": "uint256"
        }
      ],
      "stateMutability": "view",
      "type": "function"
    },
    {
      "inputs": [
        {
          "internalType": "contract IERC20",
          "name": "token",
          "type": "address"
        },
        {
          "internalType": "uint256",
          "name": "allocPoint",
          "type": "uint256"
        },
        {
          "internalType": "enum IFarmingPool.PoolKind",
          "name": "kind",
          "type": "uint8"
        }
      ],
      "name": "addPool",
      "outputs": [],
      "stateMutability": "nonpayable",
      "type": "function"
    },
    {
      "inputs": [
        {
          "internalType": "contract IERC20",
          "name": "token",
          "type": "address"
        },
        {
          "internalType": "uint256",
          "name": "allocPoint",
          "type": "uint256"
        },
        {
          "internalType": "enum IFarmingPool.PoolKind",
          "name": "kind",
          "type": "uint8"
        },
        {
          "internalType": "bool",
          "name": "withUpdate",
          "type": "bool"
        }
      ],
      "name": "addPool",
      "outputs": [],
      "stateMutability": "nonpayable",
      "type": "function"
    },
    {
      "inputs": [
        {
          "internalType": "contract IERC20[]",
          "name": "tokens",
          "type": "address[]"
        },
        {
          "internalType": "uint256[]",
          "name": "allocPoints",
          "type": "uint256[]"
        },
        {
          "internalType": "enum IFarmingPool.PoolKind[]",
          "name": "kinds",
          "type": "uint8[]"
        }
      ],
      "name": "addPools",
      "outputs": [],
      "stateMutability": "nonpayable",
      "type": "function"
    },
    {
      "inputs": [],
      "name": "brs",
      "outputs": [
        {
          "internalType": "address",
          "name": "",
          "type": "address"
        }
      ],
      "stateMutability": "view",
      "type": "function"
    },
    {
      "inputs": [
        {
          "internalType": "uint256",
          "name": "pid",
          "type": "uint256"
        }
      ],
      "name": "claim",
      "outputs": [],
      "stateMutability": "nonpayable",
      "type": "function"
    },
    {
      "inputs": [
        {
          "internalType": "uint256",
          "name": "pid",
          "type": "uint256"
        },
        {
          "internalType": "address",
          "name": "account",
          "type": "address"
        }
      ],
      "name": "claimFor",
      "outputs": [],
      "stateMutability": "nonpayable",
      "type": "function"
    },
    {
      "inputs": [],
      "name": "core",
      "outputs": [
        {
          "internalType": "contract ConfigCore",
          "name": "",
          "type": "address"
        }
      ],
      "stateMutability": "view",
      "type": "function"
    },
    {
      "inputs": [],
      "name": "currentRewardPerSecond",
      "outputs": [
        {
          "internalType": "uint256",
          "name": "",
          "type": "uint256"
        }
      ],
      "stateMutability": "view",
      "type": "function"
    },
    {
      "inputs": [
        {
          "internalType": "uint256",
          "name": "pid",
          "type": "uint256"
        },
        {
          "internalType": "uint256",
          "name": "amount",
          "type": "uint256"
        }
      ],
      "name": "deposit",
      "outputs": [],
      "stateMutability": "nonpayable",
      "type": "function"
    },
    {
      "inputs": [
        {
          "internalType": "uint256",
          "name": "pid",
          "type": "uint256"
        },
        {
          "internalType": "uint256",
          "name": "amount",
          "type": "uint256"
        },
        {
          "internalType": "address",
          "name": "onBehalfOf",
          "type": "address"
        }
      ],
      "name": "depositFor",
      "outputs": [],
      "stateMutability": "nonpayable",
      "type": "function"
    },
    {
      "inputs": [
        {
          "internalType": "uint256",
          "name": "pid",
          "type": "uint256"
        }
      ],
      "name": "emergencyWithdraw",
      "outputs": [],
      "stateMutability": "nonpayable",
      "type": "function"
    },
    {
      "inputs": [
        {
          "internalType": "uint256",
          "name": "",
          "type": "uint256"
        }
      ],
      "name": "fundAddrs",
      "outputs": [
        {
          "internalType": "address",
          "name": "",
          "type": "address"
        }
      ],
      "stateMutability": "view",
      "type": "function"
    },
    {
      "inputs": [
        {
          "internalType": "uint256",
          "name": "amount",
          "type": "uint256"
        }
      ],
      "name": "fundRewards",
      "outputs": [],
      "stateMutability": "nonpayable",
      "type": "function"
    },
    {
      "inputs": [
        {
          "internalType": "uint256",
          "name": "",
          "type": "uint256"
        }
      ],
      "name": "fundShares",
      "outputs": [
        {
          "internalType": "uint256",
          "name": "",
          "type": "uint256"
        }
      ],
      "stateMutability": "view",
      "type": "function"
    },
    {
      "inputs": [],
      "name": "massUpdatePools",
      "outputs": [],
      "stateMutability": "nonpayable",
      "type": "function"
    },
    {
      "inputs": [],
      "name": "minted",
      "outputs": [
        {
          "internalType": "uint256",
          "name": "",
          "type": "uint256"
        }
      ],
      "stateMutability": "view",
      "type": "function"
    },
    {
      "inputs": [
        {
          "internalType": "uint256",
          "name": "pid",
          "type": "uint256"
        }
      ],
      "name": "needsUpdate",
      "outputs": [
        {
          "internalType": "bool",
          "name": "needs",
          "type": "bool"
        },
        {
          "internalType": "uint256",
          "name": "timeSince",
          "type": "uint256"
        }
      ],
      "stateMutability": "view",
      "type": "function"
    },
    {
      "inputs": [],
      "name": "owner",
      "outputs": [
        {
          "internalType": "address",
          "name": "",
          "type": "address"
        }
      ],
      "stateMutability": "view",
      "type": "function"
    },
    {
      "inputs": [
        {
          "internalType": "uint256",
          "name": "pid",
          "type": "uint256"
        },
        {
          "internalType": "address",
          "name": "account",
          "type": "address"
        }
      ],
      "name": "pendingReward",
      "outputs": [
        {
          "internalType": "uint256",
          "name": "",
          "type": "uint256"
        }
      ],
      "stateMutability": "view",
      "type": "function"
    },
    {
      "inputs": [
        {
          "internalType": "uint256",
          "name": "pid",
          "type": "uint256"
        }
      ],
      "name": "poolInfo",
      "outputs": [
        {
          "internalType": "contract IERC20",
          "name": "lpToken",
          "type": "address"
        },
        {
          "internalType": "uint256",
          "name": "allocPoint",
          "type": "uint256"
        },
        {
          "internalType": "uint256",
          "name": "lastRewardTime",
          "type": "uint256"
        },
        {
          "internalType": "uint256",
          "name": "accRewardPerShare",
          "type": "uint256"
        },
        {
          "internalType": "uint256",
          "name": "totalStaked",
          "type": "uint256"
        },
        {
          "internalType": "uint256",
          "name": "cachedLPValuePerToken",
          "type": "uint256"
        },
        {
          "internalType": "uint256",
          "name": "lastPriceUpdate",
          "type": "uint256"
        },
        {
          "internalType": "enum IFarmingPool.PoolKind",
          "name": "kind",
          "type": "uint8"
        }
      ],
      "stateMutability": "view",
      "type": "function"
    },
    {
      "inputs": [
        {
          "internalType": "uint256",
          "name": "pid",
          "type": "uint256"
        }
      ],
      "name": "poolKind",
      "outputs": [
        {
          "internalType": "enum IFarmingPool.PoolKind",
          "name": "",
          "type": "uint8"
        }
      ],
      "stateMutability": "view",
      "type": "function"
    },
    {
      "inputs": [],
      "name": "poolLength",
      "outputs": [
        {
          "internalType": "uint256",
          "name": "",
          "type": "uint256"
        }
      ],
      "stateMutability": "view",
      "type": "function"
    },
    {
      "inputs": [],
      "name": "renounceOwnership",
      "outputs": [],
      "stateMutability": "nonpayable",
      "type": "function"
    },
    {
      "inputs": [],
      "name": "rewardToken",
      "outputs": [
        {
          "internalType": "contract IERC20",
          "name": "",
          "type": "address"
        }
      ],
      "stateMutability": "view",
      "type": "function"
    },
    {
      "inputs": [
        {
          "internalType": "address[]",
          "name": "addrs",
          "type": "address[]"
        },
        {
          "internalType": "uint256[]",
          "name": "shares",
          "type": "uint256[]"
        }
      ],
      "name": "setFunds",
      "outputs": [],
      "stateMutability": "nonpayable",
      "type": "function"
    },
    {
      "inputs": [
        {
          "internalType": "uint256",
          "name": "pid",
          "type": "uint256"
        },
        {
          "internalType": "uint256",
          "name": "allocPoint",
          "type": "uint256"
        },
        {
          "internalType": "bool",
          "name": "withUpdate",
          "type": "bool"
        }
      ],
      "name": "setPool",
      "outputs": [],
      "stateMutability": "nonpayable",
      "type": "function"
    },
    {
      "inputs": [],
      "name": "startTime",
      "outputs": [
        {
          "internalType": "uint256",
          "name": "",
          "type": "uint256"
        }
      ],
      "stateMutability": "view",
      "type": "function"
    },
    {
      "inputs": [],
      "name": "totalAllocPoint",
      "outputs": [
        {
          "internalType": "uint256",
          "name": "",
          "type": "uint256"
        }
      ],
      "stateMutability": "view",
      "type": "function"
    },
    {
      "inputs": [
        {
          "internalType": "address",
          "name": "newOwner",
          "type": "address"
        }
      ],
      "name": "transferOwnership",
      "outputs": [],
      "stateMutability": "nonpayable",
      "type": "function"
    },
    {
      "inputs": [
        {
          "internalType": "uint256",
          "name": "pid",
          "type": "uint256"
        }
      ],
      "name": "updateLPValue",
      "outputs": [],
      "stateMutability": "nonpayable",
      "type": "function"
    },
    {
      "inputs": [
        {
          "internalType": "uint256",
          "name": "pid",
          "type": "uint256"
        }
      ],
      "name": "updatePool",
      "outputs": [],
      "stateMutability": "nonpayable",
      "type": "function"
    },
    {
      "inputs": [
        {
          "internalType": "uint256",
          "name": "pid",
          "type": "uint256"
        },
        {
          "internalType": "address",
          "name": "user",
          "type": "address"
        }
      ],
      "name": "userInfo",
      "outputs": [
        {
          "internalType": "uint256",
          "name": "amount",
          "type": "uint256"
        },
        {
          "internalType": "uint256",
          "name": "rewardDebt",
          "type": "uint256"
        }
      ],
      "stateMutability": "view",
      "type": "function"
    },
    {
      "inputs": [
        {
          "internalType": "uint256",
          "name": "pid",
          "type": "uint256"
        },
        {
          "internalType": "uint256",
          "name": "amount",
          "type": "uint256"
        }
      ],
      "name": "withdraw",
      "outputs": [],
      "stateMutability": "nonpayable",
      "type": "function"
    },
    {
      "inputs": [
        {
          "internalType": "uint256",
          "name": "pid",
          "type": "uint256"
        },
        {
          "internalType": "uint256",
          "name": "amount",
          "type": "uint256"
        },
        {
          "internalType": "address",
          "name": "onBehalfOf",
          "type": "address"
        },
        {
          "internalType": "address",
          "name": "to",
          "type": "address"
        }
      ],
      "name": "withdrawFor",
      "outputs": [],
      "stateMutability": "nonpayable",
      "type": "function"
    }
  ],
  "bytecode": "0x60e060405234801561000f575f5ffd5b50604051613b85380380613b8583398101604081905261002e9161048d565b846001600160a01b03811661005d57604051631e4fbdf760e01b81525f60048201526024015b60405180910390fd5b61006681610198565b50600180556001600160a01b0385166100c15760405162461bcd60e51b815260206004820152601a60248201527f4661726d696e67506f6f6c3a20696e76616c6964206f776e65720000000000006044820152606401610054565b6001600160a01b0384166101175760405162461bcd60e51b815260206004820152601860248201527f4661726d696e67506f6f6c3a207a65726f2072657761726400000000000000006044820152606401610054565b6001600160a01b03831661016d5760405162461bcd60e51b815260206004820152601660248201527f4661726d696e67506f6f6c3a207a65726f20636f7265000000000000000000006044820152606401610054565b6001600160a01b03808516608052831660a0524260c05261018e82826101e7565b50505050506105ba565b5f80546001600160a01b038381166001600160a01b0319831681178455604051919092169283917f8be0079c531659141344cd1fd0a4f28419497f9722a3daafe3b4186f6b6457e09190a35050565b80518251146102385760405162461bcd60e51b815260206004820152601c60248201527f4661726d696e67506f6f6c3a206c656e677468206d69736d61746368000000006044820152606401610054565b5f805b82518110156102735782818151811061025657610256610581565b6020026020010151826102699190610595565b915060010161023b565b5060648111156102c55760405162461bcd60e51b815260206004820152601f60248201527f4661726d696e67506f6f6c3a20736861726573206578636565642031303025006044820152606401610054565b82516102d89060069060208601906102f2565b5081516102ec906007906020850190610355565b50505050565b828054828255905f5260205f20908101928215610345579160200282015b8281111561034557825182546001600160a01b0319166001600160a01b03909116178255602090920191600190910190610310565b5061035192915061038e565b5090565b828054828255905f5260205f20908101928215610345579160200282015b82811115610345578251825591602001919060010190610373565b5b80821115610351575f815560010161038f565b80516001600160a01b03811681146103b8575f5ffd5b919050565b634e487b7160e01b5f52604160045260245ffd5b604051601f8201601f191681016001600160401b03811182821017156103f9576103f96103bd565b604052919050565b5f6001600160401b03821115610419576104196103bd565b5060051b60200190565b5f82601f830112610432575f5ffd5b815161044561044082610401565b6103d1565b8082825260208201915060208360051b860101925085831115610466575f5ffd5b602085015b8381101561048357805183526020928301920161046b565b5095945050505050565b5f5f5f5f5f60a086880312156104a1575f5ffd5b6104aa866103a2565b94506104b8602087016103a2565b93506104c6604087016103a2565b60608701519093506001600160401b038111156104e1575f5ffd5b8601601f810188136104f1575f5ffd5b80516104ff61044082610401565b8082825260208201915060208360051b85010192508a831115610520575f5ffd5b6020840193505b8284101561054957610538846103a2565b825260209384019390910190610527565b60808a0151909550925050506001600160401b03811115610568575f5ffd5b61057488828901610423565b9150509295509295909350565b634e487b7160e01b5f52603260045260245ffd5b808201808211156105b457634e487b7160e01b5f52601160045260245ffd5b92915050565b60805160a05160c05161350e6106775f395f818161039e01526116af01525f81816104d001528181611f2401528181611fa60152818161209e01528181612172015281816122460152818161231a015281816124a40152818161257901528181612613015281816126bd015281816129df01528181612abd01528181612b570152612c3a01525f81816102c10152818161050a01528181610ac801528181610ea7015281816112dd0152818161157d0152611c88015261350e5ff3fe608060405234801561000f575f5ffd5b5060043610610213575f3560e01c8063715018a61161011f57806398969e82116100a9578063ee937e8211610079578063ee937e82146104ba578063ef0e0d3a146104c3578063f2f4eb26146104cb578063f2fde38b146104f2578063f7c618c114610505575f5ffd5b806398969e8214610457578063be0bcfed1461046a578063d7ba206214610494578063e2bbb158146104a7575f5ffd5b8063867cbb5e116100ef578063867cbb5e146103e65780638da5cb5b146103f957806390210d7e1461040957806393707a191461041c57806393f1a40b1461042f575f5ffd5b8063715018a61461039157806378e97925146103995780638249f7bf146103c057806383278b01146103d3575f5ffd5b8063441a3e70116101a057806351eb05a61161017057806351eb05a6146103485780635312ea8e1461035b578063546634111461036e578063630b5ba1146103815780636bac976c14610389575f5ffd5b8063441a3e70146102f957806346ca6bea1461030c5780634835dd4a1461031f5780634f02c4201461033f575f5ffd5b806317caf6f1116101e657806317caf6f11461027d57806330478415146102865780633685be5c14610299578063379607f5146102ac5780633b47ef56146102bf575f5ffd5b8063081e3eda146102175780630b56cecf1461022e57806310ee3f00146102435780631526fe2714610256575b5f5ffd5b6003545b6040519081526020015b60405180910390f35b61024161023c366004612e63565b61052c565b005b610241610251366004612ee3565b6105a5565b610269610264366004612f11565b6105f3565b604051610225989796959493929190612f5c565b61021b60055481565b610241610294366004612fb1565b610671565b6102416102a7366004613063565b6107a2565b6102416102ba366004612f11565b6107bb565b7f00000000000000000000000000000000000000000000000000000000000000005b6040516001600160a01b039091168152602001610225565b61024161030736600461309e565b6107d9565b61024161031a3660046130cd565b6107ed565b61033261032d366004612f11565b610850565b60405161022591906130f6565b61021b60025481565b610241610356366004612f11565b610880565b610241610369366004612f11565b610b3e565b6102e161037c366004612f11565b610c4d565b610241610c75565b61021b606481565b610241610c93565b61021b7f000000000000000000000000000000000000000000000000000000000000000081565b6102416103ce366004612f11565b610ca6565b6102416103e1366004613104565b610d9b565b6102416103f436600461314b565b610df4565b5f546001600160a01b03166102e1565b610241610417366004613197565b610e08565b61024161042a366004612f11565b610e4b565b61044261043d366004612ee3565b610f07565b60408051928352602083019190915201610225565b61021b610465366004612ee3565b610f38565b61047d610478366004612f11565b61101d565b604080519215158352602083019190915201610225565b61021b6104a2366004612f11565b61108e565b6102416104b536600461309e565b6110ad565b61021b610e1081565b61021b6110c1565b6102e17f000000000000000000000000000000000000000000000000000000000000000081565b6102416105003660046131cd565b6110cf565b6102e17f000000000000000000000000000000000000000000000000000000000000000081565b610534611109565b61059f8484808060200260200160405190810160405280939291908181526020018383602002808284375f92019190915250506040805160208088028281018201909352878252909350879250869182918501908490808284375f9201919091525061113592505050565b50505050565b6105ad61123a565b6001600160a01b0381166105dc5760405162461bcd60e51b81526004016105d3906131e8565b60405180910390fd5b6105e68282611264565b6105ef60018055565b5050565b5f5f5f5f5f5f5f5f5f60038a8154811061060f5761060f61321f565b5f918252602090912060089091020180546001820154600283015460038401546004850154600586015460068701546007909701546001600160a01b039096169f50939d50919b5099509750955090935060ff16915050919395975091939597565b610679611109565b8483146106c85760405162461bcd60e51b815260206004820152601c60248201527f4661726d696e67506f6f6c3a206c656e677468206d69736d617463680000000060448201526064016105d3565b8481146107175760405162461bcd60e51b815260206004820152601a60248201527f4661726d696e67506f6f6c3a206b696e64206d69736d6174636800000000000060448201526064016105d3565b5f5b85811015610799576107918585838181106107365761073661321f565b9050602002013588888481811061074f5761074f61321f565b905060200201602081019061076491906131cd565b8585858181106107765761077661321f565b905060200201602081019061078b9190613233565b5f611369565b600101610719565b50505050505050565b6107aa611109565b6107b68284835f611369565b505050565b6107c361123a565b6107cd8133611264565b6107d660018055565b50565b6107e161123a565b6105e68282333361148c565b6107f5611109565b801561080357610803610c75565b5f600384815481106108175761081761321f565b905f5260205f20906008020190508281600101546005546108389190613260565b6108429190613273565b600555600101919091555050565b5f600382815481106108645761086461321f565b5f91825260209091206007600890920201015460ff1692915050565b5f600382815481106108945761089461321f565b905f5260205f2090600802019050806002015442116108b1575050565b60048101548015806108c35750600554155b156108d357504260029091015550565b5f8260020154426108e49190613260565b90505f610900826108f3611695565b8660010154600554611704565b905061091b600254826b06c9144c1c690d4cb4000000611749565b9050805f03610934574284600201819055505050505050565b8060025f8282546109459190613273565b909155505f9050805f19815b6006548110156109fb575f6001600160a01b0316600682815481106109785761097861321f565b5f918252602090912001546001600160a01b03161480159061099b575060075481105b80156109c157505f600782815481106109b6576109b661321f565b905f5260205f200154115b156109f357600781815481106109d9576109d961321f565b905f5260205f200154836109ed9190613273565b92508091505b600101610951565b505f5b600654811015610b08575f60068281548110610a1c57610a1c61321f565b5f9182526020822001546007546001600160a01b0390911692508310610a42575f610a5f565b60078381548110610a5557610a5561321f565b905f5260205f2001545b90506001600160a01b03821615801590610a7857505f81115b15610afe575f848403610aa6575f610a928988606461178a565b9050610a9e8882613260565b915050610ab5565b610ab28883606461178a565b90505b8015610afc57610aef6001600160a01b037f000000000000000000000000000000000000000000000000000000000000000016848361183a565b610af98188613273565b96505b505b50506001016109fe565b505f610b148486613260565b9050610b2588600301548289611899565b6003890155505042600290960195909555505050505050565b610b4661123a565b5f60038281548110610b5a57610b5a61321f565b5f9182526020808320858452600482526040808520338652909252922080546008909202909201925080610bd05760405162461bcd60e51b815260206004820181905260248201527f4661726d696e67506f6f6c3a206e6f7468696e6720746f20776974686472617760448201526064016105d3565b5f80835560018301819055600484018054839290610bef908490613260565b90915550508254610c0a906001600160a01b0316338361183a565b604051818152849033907fbb757047c2b5f3974fe26b7c10f732e7bce710b0952a71082702781e62ae05959060200160405180910390a35050506107d660018055565b60068181548110610c5c575f80fd5b5f918252602090912001546001600160a01b0316905081565b6003545f5b818110156105ef57610c8b81610880565b600101610c7a565b610c9b611109565b610ca45f6118cb565b565b5f60038281548110610cba57610cba61321f565b5f918252602090912060089091020190506001600782015460ff166001811115610ce657610ce6612f28565b14610d295760405162461bcd60e51b815260206004820152601360248201527204661726d696e67506f6f6c3a206e6f74204c5606c1b60448201526064016105d3565b80545f90610d48906001600160a01b0316670de0b6b3a764000061191a565b60058301819055426006840181905560408051838152602081019290925291925084917fa56b1a875186c55b67169d8896a02376ad70d29b36a16493cff36d2f2795b6d1910160405180910390a2505050565b610da361123a565b6001600160a01b03821615801590610dc357506001600160a01b03811615155b610ddf5760405162461bcd60e51b81526004016105d3906131e8565b610deb8484848461148c565b61059f60018055565b610dfc611109565b61059f83858484611369565b610e1061123a565b6001600160a01b038116610e365760405162461bcd60e51b81526004016105d3906131e8565b610e4283833384611c08565b6107b660018055565b5f8111610e9a5760405162461bcd60e51b815260206004820152601860248201527f4661726d696e67506f6f6c3a20616d6f756e74207a65726f000000000000000060448201526064016105d3565b610ecf6001600160a01b037f000000000000000000000000000000000000000000000000000000000000000016333084611db8565b60405181815233907fd53214ca07be5520e229c395f05a3e5c0697ec6279184ffbe2758d304fd322cc9060200160405180910390a250565b5f8281526004602090815260408083206001600160a01b0385168452909152902080546001909101545b9250929050565b5f5f60038481548110610f4d57610f4d61321f565b5f9182526020808320878452600480835260408086206001600160a01b038a168752909352919093206003600890930290930191820154908201546002830154929450909142118015610f9f57505f81115b15610ffe575f846002015442610fb59190613260565b90505f610fd182610fc4611695565b8860010154600554611704565b9050610fec600254826b06c9144c1c690d4cb4000000611749565b9050610ff9848285611899565b935050505b611010835f0154838560010154611df1565b9450505050505b92915050565b5f5f5f600384815481106110335761103361321f565b5f918252602090912060089091020190506001600782015460ff16600181111561105f5761105f612f28565b1461106f57505f93849350915050565b600681015461107e9042613260565b9150610e10821015925050915091565b6007818154811061109d575f80fd5b5f91825260209091200154905081565b6110b561123a565b6105e682823333611c08565b5f6110ca611695565b905090565b6110d7611109565b6001600160a01b03811661110057604051631e4fbdf760e01b81525f60048201526024016105d3565b6107d6816118cb565b5f546001600160a01b03163314610ca45760405163118cdaa760e01b81523360048201526024016105d3565b80518251146111865760405162461bcd60e51b815260206004820152601c60248201527f4661726d696e67506f6f6c3a206c656e677468206d69736d617463680000000060448201526064016105d3565b5f805b82518110156111c1578281815181106111a4576111a461321f565b6020026020010151826111b79190613273565b9150600101611189565b5060648111156112135760405162461bcd60e51b815260206004820152601f60248201527f4661726d696e67506f6f6c3a207368617265732065786365656420313030250060448201526064016105d3565b8251611226906006906020860190612d72565b50815161059f906007906020850190612dd5565b60026001540361125d57604051633ee5aeb560e01b815260040160405180910390fd5b6002600155565b5f600383815481106112785761127861321f565b5f91825260208083208684526004825260408085206001600160a01b03881686529092529220600890910290910191506112b184610880565b5f6112c8825f015484600301548460010154611df1565b90508015611349576113046001600160a01b037f000000000000000000000000000000000000000000000000000000000000000016858361183a565b84846001600160a01b03167f34fcbac0073d7c3d388e51312faf357774904998eeb8fca628b9e6f65ee1cbf78360405161134091815260200190565b60405180910390a35b61135a825f01548460030154611e1c565b82600101819055505050505050565b801561137757611377610c75565b8360055f8282546113889190613273565b925050819055506003604051806101000160405280856001600160a01b031681526020018681526020014281526020015f81526020015f81526020015f81526020015f81526020018460018111156113e2576113e2612f28565b90528154600180820184555f938452602093849020835160089093020180546001600160a01b0319166001600160a01b03909316929092178255928201518184015560408201516002820155606082015160038201556080820151600482015560a0820151600582015560c0820151600682015560e0820151600782018054939492939192909160ff191690838181111561147f5761147f612f28565b0217905550505050505050565b5f600385815481106114a0576114a061321f565b5f91825260208083208884526004825260408085206001600160a01b0389168652909252922080546008909202909201925085111561152d5760405162461bcd60e51b8152602060048201526024808201527f4661726d696e67506f6f6c3a2077697468647261772065786365656473207374604482015263185ad95960e21b60648201526084016105d3565b8415611548576007820154611548908390879060ff16611e44565b61155186610880565b5f611568825f015484600301548460010154611df1565b905080156115e9576115a46001600160a01b037f000000000000000000000000000000000000000000000000000000000000000016868361183a565b86856001600160a01b03167f34fcbac0073d7c3d388e51312faf357774904998eeb8fca628b9e6f65ee1cbf7836040516115e091815260200190565b60405180910390a35b85156116365785825f015f8282546116019190613260565b9250508190555085836004015f82825461161b9190613260565b90915550508254611636906001600160a01b0316858861183a565b611647825f01548460030154611e1c565b600183015560405186815287906001600160a01b038716907ff279e6a1f5e320cca91135676d9cb6e44ca8a08c0b88342bcdb1144f6511b5689060200160405180910390a350505050505050565b5f6005545f036116a457505f90565b5f630784ce006116d47f000000000000000000000000000000000000000000000000000000000000000042613260565b6116de919061329a565b90505f6116fb630784ce006b03648a260e3486a65a00000061329a565b90911c92915050565b5f841580611710575083155b80611719575081155b1561172557505f611741565b5f61173185858561178a565b905061173d86826132b9565b9150505b949350505050565b5f8215806117575750818410155b1561176357505f611783565b5f61176e8584613260565b905080841161177d578361177f565b805b9150505b9392505050565b5f5f5f6117978686611e87565b91509150815f036117bb578381816117b1576117b1613286565b0492505050611783565b8184116117d2576117d26003851502601118611ea3565b5f848688095f868103871696879004966002600389028118808a02820302808a02820302808a02820302808a02820302808a02820302808a02909103029181900381900460010185841190960395909502919093039390930492909217029150509392505050565b6040516001600160a01b038381166024830152604482018390526107b691859182169063a9059cbb906064015b604051602081830303815290604052915060e01b6020820180516001600160e01b038381831617835250505050611eb4565b5f8215806118a5575081155b156118b1575082611783565b6118c18364e8d4a510008461178a565b6117419085613273565b5f80546001600160a01b038381166001600160a01b0319831681178455604051919092169283917f8be0079c531659141344cd1fd0a4f28419497f9722a3daafe3b4186f6b6457e09190a35050565b5f5f8390505f816001600160a01b03166318160ddd6040518163ffffffff1660e01b8152600401602060405180830381865afa15801561195c573d5f5f3e3d5ffd5b505050506040513d601f19601f8201168201806040525081019061198091906132d0565b9050805f03611993575f92505050611017565b5f5f836001600160a01b0316630902f1ac6040518163ffffffff1660e01b8152600401606060405180830381865afa1580156119d1573d5f5f3e3d5ffd5b505050506040513d601f19601f820116820180604052508101906119f591906132fd565b50915091505f846001600160a01b0316630dfe16816040518163ffffffff1660e01b8152600401602060405180830381865afa158015611a37573d5f5f3e3d5ffd5b505050506040513d601f19601f82011682018060405250810190611a5b919061333e565b90505f856001600160a01b031663d21220a76040518163ffffffff1660e01b8152600401602060405180830381865afa158015611a9a573d5f5f3e3d5ffd5b505050506040513d601f19601f82011682018060405250810190611abe919061333e565b90505f611aca83611f20565b90505f611ad683611f20565b90505f846001600160a01b031663313ce5676040518163ffffffff1660e01b8152600401602060405180830381865afa158015611b15573d5f5f3e3d5ffd5b505050506040513d601f19601f82011682018060405250810190611b399190613359565b90505f846001600160a01b031663313ce5676040518163ffffffff1660e01b8152600401602060405180830381865afa158015611b78573d5f5f3e3d5ffd5b505050506040513d601f19601f82011682018060405250810190611b9c9190613359565b90505f611bbd6001600160701b038a1686611bb886600a61345c565b61178a565b90505f611bd96001600160701b038a1686611bb886600a61345c565b90505f611be68284613273565b9050611bf38f828e61178a565b9d505050505050505050505050505092915050565b5f60038581548110611c1c57611c1c61321f565b5f91825260208083208884526004825260408085206001600160a01b0388168652909252922060089091029091019150611c5586610880565b805415611cf6575f611c73825f015484600301548460010154611df1565b90508015611cf457611caf6001600160a01b037f000000000000000000000000000000000000000000000000000000000000000016858361183a565b86846001600160a01b03167f34fcbac0073d7c3d388e51312faf357774904998eeb8fca628b9e6f65ee1cbf783604051611ceb91815260200190565b60405180910390a35b505b8415611d5a576007820154611d11908390879060ff16611e44565b8154611d28906001600160a01b0316853088611db8565b84815f015f828254611d3a9190613273565b9250508190555084826004015f828254611d549190613273565b90915550505b611d6b815f01548360030154611e1c565b600182015560405185815286906001600160a01b038516907f90890809c654f11d6e72a28fa60149770a0d11ec6c92319d6ceb2bb0a4ea1a159060200160405180910390a3505050505050565b6040516001600160a01b03848116602483015283811660448301526064820183905261059f9186918216906323b872dd90608401611867565b5f5f611e03858564e8d4a5100061178a565b9050828111611e12575f61177f565b61177f8382613260565b5f821580611e28575081155b15611e3457505f611017565b611783838364e8d4a5100061178a565b6001816001811115611e5857611e58612f28565b03611e725782546107b6906001600160a01b0316836127ac565b82546107b6906001600160a01b0316836129dd565b5f805f1983850993909202808410938190039390930393915050565b634e487b715f52806020526024601cfd5b5f5f60205f8451602086015f885af180611ed3576040513d5f823e3d81fd5b50505f513d91508115611eea578060011415611ef7565b6001600160a01b0384163b155b1561059f57604051635274afe760e01b81526001600160a01b03851660048201526024016105d3565b5f5f7f00000000000000000000000000000000000000000000000000000000000000006001600160a01b0316630a19399a6040518163ffffffff1660e01b8152600401602060405180830381865afa158015611f7e573d5f5f3e3d5ffd5b505050506040513d601f19601f82011682018060405250810190611fa2919061333e565b90507f00000000000000000000000000000000000000000000000000000000000000006001600160a01b031663457404776040518163ffffffff1660e01b8152600401602060405180830381865afa158015612000573d5f5f3e3d5ffd5b505050506040513d601f19601f82011682018060405250810190612024919061333e565b6001600160a01b0316836001600160a01b03160361209c57806001600160a01b031663ff8336ff6040518163ffffffff1660e01b8152600401602060405180830381865afa158015612078573d5f5f3e3d5ffd5b505050506040513d601f19601f8201168201806040525081019061178391906132d0565b7f00000000000000000000000000000000000000000000000000000000000000006001600160a01b03166346caf5e86040518163ffffffff1660e01b8152600401602060405180830381865afa1580156120f8573d5f5f3e3d5ffd5b505050506040513d601f19601f8201168201806040525081019061211c919061333e565b6001600160a01b0316836001600160a01b03160361217057806001600160a01b031663a0e8d3566040518163ffffffff1660e01b8152600401602060405180830381865afa158015612078573d5f5f3e3d5ffd5b7f00000000000000000000000000000000000000000000000000000000000000006001600160a01b03166316a3d9fd6040518163ffffffff1660e01b8152600401602060405180830381865afa1580156121cc573d5f5f3e3d5ffd5b505050506040513d601f19601f820116820180604052508101906121f0919061333e565b6001600160a01b0316836001600160a01b03160361224457806001600160a01b03166322f9f2276040518163ffffffff1660e01b8152600401602060405180830381865afa158015612078573d5f5f3e3d5ffd5b7f00000000000000000000000000000000000000000000000000000000000000006001600160a01b0316634dede3de6040518163ffffffff1660e01b8152600401602060405180830381865afa1580156122a0573d5f5f3e3d5ffd5b505050506040513d601f19601f820116820180604052508101906122c4919061333e565b6001600160a01b0316836001600160a01b03160361231857806001600160a01b031663fa7d826a6040518163ffffffff1660e01b8152600401602060405180830381865afa158015612078573d5f5f3e3d5ffd5b7f00000000000000000000000000000000000000000000000000000000000000006001600160a01b0316633c9ac7226040518163ffffffff1660e01b8152600401602060405180830381865afa158015612374573d5f5f3e3d5ffd5b505050506040513d601f19601f82011682018060405250810190612398919061333e565b6001600160a01b0316836001600160a01b0316036124a2575f816001600160a01b031663ff8336ff6040518163ffffffff1660e01b8152600401602060405180830381865afa1580156123ed573d5f5f3e3d5ffd5b505050506040513d601f19601f8201168201806040525081019061241191906132d0565b6040516303d1689d60e11b8152670de0b6b3a764000060048201529091505f906001600160a01b038616906307a2d13a90602401602060405180830381865afa158015612460573d5f5f3e3d5ffd5b505050506040513d601f19601f8201168201806040525081019061248491906132d0565b90506124998282670de0b6b3a764000061178a565b95945050505050565b7f00000000000000000000000000000000000000000000000000000000000000006001600160a01b03166348a954946040518163ffffffff1660e01b8152600401602060405180830381865afa1580156124fe573d5f5f3e3d5ffd5b505050506040513d601f19601f82011682018060405250810190612522919061333e565b6001600160a01b0316836001600160a01b031603612577575f816001600160a01b031663a0e8d3566040518163ffffffff1660e01b8152600401602060405180830381865afa1580156123ed573d5f5f3e3d5ffd5b7f00000000000000000000000000000000000000000000000000000000000000006001600160a01b03166389a302716040518163ffffffff1660e01b8152600401602060405180830381865afa1580156125d3573d5f5f3e3d5ffd5b505050506040513d601f19601f820116820180604052508101906125f7919061333e565b6001600160a01b0316836001600160a01b031614806126a657507f00000000000000000000000000000000000000000000000000000000000000006001600160a01b031663c54e44eb6040518163ffffffff1660e01b8152600401602060405180830381865afa15801561266d573d5f5f3e3d5ffd5b505050506040513d601f19601f82011682018060405250810190612691919061333e565b6001600160a01b0316836001600160a01b0316145b156126bb5750670de0b6b3a764000092915050565b7f00000000000000000000000000000000000000000000000000000000000000006001600160a01b031663ad5c46486040518163ffffffff1660e01b8152600401602060405180830381865afa158015612717573d5f5f3e3d5ffd5b505050506040513d601f19601f8201168201806040525081019061273b919061333e565b6001600160a01b0316836001600160a01b031603612764575068a2a15d09519be0000092915050565b60405162461bcd60e51b815260206004820152601e60248201527f4661726d696e67506f6f6c3a20756e737570706f7274656420746f6b656e000060448201526064016105d3565b5f8290505f816001600160a01b03166318160ddd6040518163ffffffff1660e01b8152600401602060405180830381865afa1580156127ed573d5f5f3e3d5ffd5b505050506040513d601f19601f8201168201806040525081019061281191906132d0565b90505f81116128625760405162461bcd60e51b815260206004820152601b60248201527f4661726d696e67506f6f6c3a207a65726f204c5020737570706c79000000000060448201526064016105d3565b5f5f836001600160a01b0316630902f1ac6040518163ffffffff1660e01b8152600401606060405180830381865afa1580156128a0573d5f5f3e3d5ffd5b505050506040513d601f19601f820116820180604052508101906128c491906132fd565b50915091505f846001600160a01b0316630dfe16816040518163ffffffff1660e01b8152600401602060405180830381865afa158015612906573d5f5f3e3d5ffd5b505050506040513d601f19601f8201168201806040525081019061292a919061333e565b90505f856001600160a01b031663d21220a76040518163ffffffff1660e01b8152600401602060405180830381865afa158015612969573d5f5f3e3d5ffd5b505050506040513d601f19601f8201168201806040525081019061298d919061333e565b90505f6129a488866001600160701b03168861178a565b90505f6129bb89866001600160701b03168961178a565b90506129c784836129dd565b6129d183826129dd565b50505050505050505050565b7f00000000000000000000000000000000000000000000000000000000000000006001600160a01b0316634dede3de6040518163ffffffff1660e01b8152600401602060405180830381865afa158015612a39573d5f5f3e3d5ffd5b505050506040513d601f19601f82011682018060405250810190612a5d919061333e565b6001600160a01b0316826001600160a01b031603612abb576001811015612a965760405162461bcd60e51b81526004016105d39061346a565b64e8d4a510008111156105ef5760405162461bcd60e51b81526004016105d3906134a1565b7f00000000000000000000000000000000000000000000000000000000000000006001600160a01b03166389a302716040518163ffffffff1660e01b8152600401602060405180830381865afa158015612b17573d5f5f3e3d5ffd5b505050506040513d601f19601f82011682018060405250810190612b3b919061333e565b6001600160a01b0316826001600160a01b03161480612bea57507f00000000000000000000000000000000000000000000000000000000000000006001600160a01b031663c54e44eb6040518163ffffffff1660e01b8152600401602060405180830381865afa158015612bb1573d5f5f3e3d5ffd5b505050506040513d601f19601f82011682018060405250810190612bd5919061333e565b6001600160a01b0316826001600160a01b0316145b15612c38576103e8811015612c115760405162461bcd60e51b81526004016105d39061346a565b66038d7ea4c680008111156105ef5760405162461bcd60e51b81526004016105d3906134a1565b7f00000000000000000000000000000000000000000000000000000000000000006001600160a01b031663ad5c46486040518163ffffffff1660e01b8152600401602060405180830381865afa158015612c94573d5f5f3e3d5ffd5b505050506040513d601f19601f82011682018060405250810190612cb8919061333e565b6001600160a01b0316826001600160a01b031603612d1f576402540be400811015612cf55760405162461bcd60e51b81526004016105d39061346a565b69152d02c7e14af68000008111156105ef5760405162461bcd60e51b81526004016105d3906134a1565b66038d7ea4c68000811015612d465760405162461bcd60e51b81526004016105d39061346a565b6b033b2e3c9fd0803ce80000008111156105ef5760405162461bcd60e51b81526004016105d3906134a1565b828054828255905f5260205f20908101928215612dc5579160200282015b82811115612dc557825182546001600160a01b0319166001600160a01b03909116178255602090920191600190910190612d90565b50612dd1929150612e0e565b5090565b828054828255905f5260205f20908101928215612dc5579160200282015b82811115612dc5578251825591602001919060010190612df3565b5b80821115612dd1575f8155600101612e0f565b5f5f83601f840112612e32575f5ffd5b50813567ffffffffffffffff811115612e49575f5ffd5b6020830191508360208260051b8501011115610f31575f5ffd5b5f5f5f5f60408587031215612e76575f5ffd5b843567ffffffffffffffff811115612e8c575f5ffd5b612e9887828801612e22565b909550935050602085013567ffffffffffffffff811115612eb7575f5ffd5b612ec387828801612e22565b95989497509550505050565b6001600160a01b03811681146107d6575f5ffd5b5f5f60408385031215612ef4575f5ffd5b823591506020830135612f0681612ecf565b809150509250929050565b5f60208284031215612f21575f5ffd5b5035919050565b634e487b7160e01b5f52602160045260245ffd5b60028110612f5857634e487b7160e01b5f52602160045260245ffd5b9052565b6001600160a01b03891681526020810188905260408101879052606081018690526080810185905260a0810184905260c081018390526101008101612fa460e0830184612f3c565b9998505050505050505050565b5f5f5f5f5f5f60608789031215612fc6575f5ffd5b863567ffffffffffffffff811115612fdc575f5ffd5b612fe889828a01612e22565b909750955050602087013567ffffffffffffffff811115613007575f5ffd5b61301389828a01612e22565b909550935050604087013567ffffffffffffffff811115613032575f5ffd5b61303e89828a01612e22565b979a9699509497509295939492505050565b80356002811061305e575f5ffd5b919050565b5f5f5f60608486031215613075575f5ffd5b833561308081612ecf565b92506020840135915061309560408501613050565b90509250925092565b5f5f604083850312156130af575f5ffd5b50508035926020909101359150565b8035801515811461305e575f5ffd5b5f5f5f606084860312156130df575f5ffd5b8335925060208401359150613095604085016130be565b602081016110178284612f3c565b5f5f5f5f60808587031215613117575f5ffd5b8435935060208501359250604085013561313081612ecf565b9150606085013561314081612ecf565b939692955090935050565b5f5f5f5f6080858703121561315e575f5ffd5b843561316981612ecf565b93506020850135925061317e60408601613050565b915061318c606086016130be565b905092959194509250565b5f5f5f606084860312156131a9575f5ffd5b833592506020840135915060408401356131c281612ecf565b809150509250925092565b5f602082840312156131dd575f5ffd5b813561178381612ecf565b60208082526019908201527f4661726d696e67506f6f6c3a207a65726f206164647265737300000000000000604082015260600190565b634e487b7160e01b5f52603260045260245ffd5b5f60208284031215613243575f5ffd5b61178382613050565b634e487b7160e01b5f52601160045260245ffd5b818103818111156110175761101761324c565b808201808211156110175761101761324c565b634e487b7160e01b5f52601260045260245ffd5b5f826132b457634e487b7160e01b5f52601260045260245ffd5b500490565b80820281158282048414176110175761101761324c565b5f602082840312156132e0575f5ffd5b5051919050565b80516001600160701b038116811461305e575f5ffd5b5f5f5f6060848603121561330f575f5ffd5b613318846132e7565b9250613326602085016132e7565b9150604084015163ffffffff811681146131c2575f5ffd5b5f6020828403121561334e575f5ffd5b815161178381612ecf565b5f60208284031215613369575f5ffd5b815160ff81168114611783575f5ffd5b6001815b60018411156133b4578085048111156133985761339861324c565b60018416156133a657908102905b60019390931c92800261337d565b935093915050565b5f826133ca57506001611017565b816133d657505f611017565b81600181146133ec57600281146133f657613412565b6001915050611017565b60ff8411156134075761340761324c565b50506001821b611017565b5060208310610133831016604e8410600b8410161715613435575081810a611017565b6134415f198484613379565b805f19048211156134545761345461324c565b029392505050565b5f61178360ff8416836133bc565b6020808252601d908201527f4661726d696e67506f6f6c3a20616d6f756e7420746f6f20736d616c6c000000604082015260600190565b6020808252601d908201527f4661726d696e67506f6f6c3a20616d6f756e7420746f6f206c6172676500000060408201526060019056fea26469706673582212204704b0c11c5b06c0593edf31198e4dd3f9058ee2e6c57d37f9f57086c9c05e6b64736f6c634300081e0033",
  "linkReferences": {},
  "deployedLinkReferences": {},
  "immutableReferences": {
    "5334": [
      {
        "length": 32,
        "start": 705
      },
      {
        "length": 32,
        "start": 1290
      },
      {
        "length": 32,
        "start": 2760
      },
      {
        "length": 32,
        "start": 3751
      },
      {
        "length": 32,
        "start": 4829
      },
      {
        "length": 32,
        "start": 5501
      },
      {
        "length": 32,
        "start": 7304
      }
    ],
    "5337": [
      {
        "length": 32,
        "start": 1232
      },
      {
        "length": 32,
        "start": 7972
      },
      {
        "length": 32,
        "start": 8102
      },
      {
        "length": 32,
        "start": 8350
      },
      {
        "length": 32,
        "start": 8562
      },
      {
        "length": 32,
        "start": 8774
      },
      {
        "length": 32,
        "start": 8986
      },
      {
        "length": 32,
        "start": 9380
      },
      {
        "length": 32,
        "start": 9593
      },
      {
        "length": 32,
        "start": 9747
      },
      {
        "length": 32,
        "start": 9917
      },
      {
        "length": 32,
        "start": 10719
      },
      {
        "length": 32,
        "start": 10941
      },
      {
        "length": 32,
        "start": 11095
      },
      {
        "length": 32,
        "start": 11322
      }
    ],
    "5340": [
      {
        "length": 32,
        "start": 926
      },
      {
        "length": 32,
        "start": 5807
      }
    ]
  },
  "inputSourceName": "project/contracts/FarmingPool.sol",
  "buildInfoId": "solc-0_8_30-766e3f326b12d1919166a19623437c8a75b346dc"
}