{
  "_format": "hh3-artifact-1",
  "contractName": "MockWETH",
  "sourceName": "contracts/local/MockWETH.sol",
  "abi": [
    {
      "inputs": [
        {
          "internalType": "address",
          "name": "recipient",
          "type": "address"
        }
      ],
      "stateMutability": "nonpayable",
      "type": "constructor"
    },
    {
      "inputs": [
        {
          "internalType": "address",
          "name": "spender",
          "type": "address"
        },
        {
          "internalType": "uint256",
          "name": "allowance",
          "type": "uint256"
        },
        {
          "internalType": "uint256",
          "name": "needed",
          "type": "uint256"
        }
      ],
      "name": "ERC20InsufficientAllowance",
      "type": "error"
    },
    {
      "inputs": [
        {
          "internalType": "address",
          "name": "sender",
          "type": "address"
        },
        {
          "internalType": "uint256",
          "name": "balance",
          "type": "uint256"
        },
        {
          "internalType": "uint256",
          "name": "needed",
          "type": "uint256"
        }
      ],
      "name": "ERC20InsufficientBalance",
      "type": "error"
    },
    {
      "inputs": [
        {
          "internalType": "address",
          "name": "approver",
          "type": "address"
        }
      ],
      "name": "ERC20InvalidApprover",
      "type": "error"
    },
    {
      "inputs": [
        {
          "internalType": "address",
          "name": "receiver",
          "type": "address"
        }
      ],
      "name": "ERC20InvalidReceiver",
      "type": "error"
    },
    {
      "inputs": [
        {
          "internalType": "address",
          "name": "sender",
          "type": "address"
        }
      ],
      "name": "ERC20InvalidSender",
      "type": "error"
    },
    {
      "inputs": [
        {
          "internalType": "address",
          "name": "spender",
          "type": "address"
        }
      ],
      "name": "ERC20InvalidSpender",
      "type": "error"
    },
    {
      "anonymous": false,
      "inputs": [
        {
          "indexed": true,
          "internalType": "address",
          "name": "owner",
          "type": "address"
        },
        {
          "indexed": true,
          "internalType": "address",
          "name": "spender",
          "type": "address"
        },
        {
          "indexed": false,
          "internalType": "uint256",
          "name": "value",
          "type": "uint256"
        }
      ],
      "name": "Approval",
      "type": "event"
    },
    {
      "anonymous": false,
      "inputs": [
        {
          "indexed": true,
          "internalType": "address",
          "name": "dst",
          "type": "address"
        },
        {
          "indexed": false,
          "internalType": "uint256",
          "name": "wad",
          "type": "uint256"
        }
      ],
      "name": "Deposit",
      "type": "event"
    },
    {
      "anonymous": false,
      "inputs": [
        {
          "indexed": true,
          "internalType": "address",
          "name": "from",
          "type": "address"
        },
        {
          "indexed": true,
          "internalType": "address",
          "name": "to",
          "type": "address"
        },
        {
          "indexed": false,
          "internalType": "uint256",
          "name": "value",
          "type": "uint256"
        }
      ],
      "name": "Transfer",
      "type": "event"
    },
    {
      "anonymous": false,
      "inputs": [
        {
          "indexed": true,
          "internalType": "address",
          "name": "src",
          "type": "address"
        },
        {
          "indexed": false,
          "internalType": "uint256",
          "name": "wad",
          "type": "uint256"
        }
      ],
      "name": "Withdrawal",
      "type": "event"
    },
    {
      "stateMutability": "payable",
      "type": "fallback"
    },
    {
      "inputs": [
        {
          "internalType": "address",
          "name": "owner",
          "type": "address"
        },
        {
          "internalType": "address",
          "name": "spender",
          "type": "address"
        }
      ],
      "name": "allowance",
      "outputs": [
        {
          "internalType": "uint256",
          "name": "",
          "type": "uint256"
        }
      ],
      "stateMutability": "view",
      "type": "function"
    },
    {
      "inputs": [
        {
          "internalType": "address",
          "name": "spender",
          "type": "address"
        },
        {
          "internalType": "uint256",
          "name": "value",
          "type": "uint256"
        }
      ],
      "name": "approve",
      "outputs": [
        {
          "internalType": "bool",
          "name": "",
          "type": "bool"
        }
      ],
      "stateMutability": "nonpayable",
      "type": "function"
    },
    {
      "inputs": [
        {
          "internalType": "address",
          "name": "account",
          "type": "address"
        }
      ],
      "name": "balanceOf",
      "outputs": [
        {
          "internalType": "uint256",
          "name": "",
          "type": "uint256"
        }
      ],
      "stateMutability": "view",
      "type": "function"
    },
    {
      "inputs": [],
      "name": "decimals",
      "outputs": [
        {
          "internalType": "uint8",
          "name": "",
          "type": "uint8"
        }
      ],
      "stateMutability": "pure",
      "type": "function"
    },
    {
      "inputs": [],
      "name": "deposit",
      "outputs": [],
      "stateMutability": "payable",
      "type": "function"
    },
    {
      "inputs": [],
      "name": "name",
      "outputs": [
        {
          "internalType": "string",
          "name": "",
          "type": "string"
        }
      ],
      "stateMutability": "view",
      "type": "function"
    },
    {
      "inputs": [],
      "name": "symbol",
      "outputs": [
        {
          "internalType": "string",
          "name": "",
          "type": "string"
        }
      ],
      "stateMutability": "view",
      "type": "function"
    },
    {
      "inputs": [],
      "name": "totalSupply",
      "outputs": [
        {
          "internalType": "uint256",
          "name": "",
          "type": "uint256"
        }
      ],
      "stateMutability": "view",
      "type": "function"
    },
    {
      "inputs": [
        {
          "internalType": "address",
          "name": "to",
          "type": "address"
        },
        {
          "internalType": "uint256",
          "name": "value",
          "type": "uint256"
        }
      ],
      "name": "transfer",
      "outputs": [
        {
          "internalType": "bool",
          "name": "",
          "type": "bool"
        }
      ],
      "stateMutability": "nonpayable",
      "type": "function"
    },
    {
      "inputs": [
        {
          "internalType": "address",
          "name": "from",
          "type": "address"
        },
        {
          "internalType": "address",
          "name": "to",
          "type": "address"
        },
        {
          "internalType": "uint256",
          "name": "value",
          "type": "uint256"
        }
      ],
      "name": "transferFrom",
      "outputs": [
        {
          "internalType": "bool",
          "name": "",
          "type": "bool"
        }
      ],
      "stateMutability": "nonpayable",
      "type": "function"
    },
    {
      "inputs": [
        {
          "internalType": "uint256",
          "name": "wad",
          "type": "uint256"
        }
      ],
      "name": "withdraw",
      "outputs": [],
      "stateMutability": "nonpayable",
      "type": "function"
    },
    {
      "stateMutability": "payable",
      "type": "receive"
    }
  ],
  "bytecode": "0x608060405234801561000f575f5ffd5b50604051610e0c380380610e0c83398101604081905261002e91610233565b6040518060400160405280601281526020017126b7b1b5902bb930b83832b21022ba3432b960711b815250604051806040016040528060048152602001630ae8aa8960e31b815250816003908161008591906102f8565b50600461009282826102f8565b5050506100c5816100a76100cb60201b60201c565b6100b290600a6104ab565b6100c0906307270e006104b9565b6100d0565b506104e3565b601290565b6001600160a01b0382166100fe5760405163ec442f0560e01b81525f60048201526024015b60405180910390fd5b6101095f838361010d565b5050565b6001600160a01b038316610137578060025f82825461012c91906104d0565b909155506101a79050565b6001600160a01b0383165f90815260208190526040902054818110156101895760405163391434e360e21b81526001600160a01b038516600482015260248101829052604481018390526064016100f5565b6001600160a01b0384165f9081526020819052604090209082900390555b6001600160a01b0382166101c3576002805482900390556101e1565b6001600160a01b0382165f9081526020819052604090208054820190555b816001600160a01b0316836001600160a01b03167fddf252ad1be2c89b69c2b068fc378daa952ba7f163c4a11628f55a4df523b3ef8360405161022691815260200190565b60405180910390a3505050565b5f60208284031215610243575f5ffd5b81516001600160a01b0381168114610259575f5ffd5b9392505050565b634e487b7160e01b5f52604160045260245ffd5b600181811c9082168061028857607f821691505b6020821081036102a657634e487b7160e01b5f52602260045260245ffd5b50919050565b601f8211156102f357805f5260205f20601f840160051c810160208510156102d15750805b601f840160051c820191505b818110156102f0575f81556001016102dd565b50505b505050565b81516001600160401b0381111561031157610311610260565b6103258161031f8454610274565b846102ac565b6020601f821160018114610357575f83156103405750848201515b5f19600385901b1c1916600184901b1784556102f0565b5f84815260208120601f198516915b828110156103865787850151825560209485019460019092019101610366565b50848210156103a357868401515f19600387901b60f8161c191681555b50505050600190811b01905550565b634e487b7160e01b5f52601160045260245ffd5b6001815b6001841115610401578085048111156103e5576103e56103b2565b60018416156103f357908102905b60019390931c9280026103ca565b935093915050565b5f82610417575060016104a5565b8161042357505f6104a5565b816001811461043957600281146104435761045f565b60019150506104a5565b60ff841115610454576104546103b2565b50506001821b6104a5565b5060208310610133831016604e8410600b8410161715610482575081810a6104a5565b61048e5f1984846103c6565b805f19048211156104a1576104a16103b2565b0290505b92915050565b5f61025960ff841683610409565b80820281158282048414176104a5576104a56103b2565b808201808211156104a5576104a56103b2565b61091c806104f05f395ff3fe60806040526004361061009f575f3560e01c8063313ce56711610063578063313ce5671461016b57806370a082311461018657806395d89b41146101ba578063a9059cbb146101ce578063d0e30db0146100ae578063dd62ed3e146101ed576100ae565b806306fdde03146100b6578063095ea7b3146100e057806318160ddd1461010f57806323b872dd1461012d5780632e1a7d4d1461014c576100ae565b366100ae576100ac610231565b005b6100ac610231565b3480156100c1575f5ffd5b506100ca610272565b6040516100d79190610775565b60405180910390f35b3480156100eb575f5ffd5b506100ff6100fa3660046107c5565b610302565b60405190151581526020016100d7565b34801561011a575f5ffd5b506002545b6040519081526020016100d7565b348015610138575f5ffd5b506100ff6101473660046107ed565b61031b565b348015610157575f5ffd5b506100ac610166366004610827565b61033e565b348015610176575f5ffd5b50604051601281526020016100d7565b348015610191575f5ffd5b5061011f6101a036600461083e565b6001600160a01b03165f9081526020819052604090205490565b3480156101c5575f5ffd5b506100ca61040e565b3480156101d9575f5ffd5b506100ff6101e83660046107c5565b61041d565b3480156101f8575f5ffd5b5061011f61020736600461085e565b6001600160a01b039182165f90815260016020908152604080832093909416825291909152205490565b61023b333461042a565b60405134815233907fe1fffcc4923d04b559f4d29a8bfc6cda04eb5b0d3c460751c2402c5c5cc9109c9060200160405180910390a2565b6060600380546102819061088f565b80601f01602080910402602001604051908101604052809291908181526020018280546102ad9061088f565b80156102f85780601f106102cf576101008083540402835291602001916102f8565b820191905f5260205f20905b8154815290600101906020018083116102db57829003601f168201915b5050505050905090565b5f3361030f818585610462565b60019150505b92915050565b5f33610328858285610474565b6103338585856104f0565b506001949350505050565b335f908152602081905260409020548111156103a15760405162461bcd60e51b815260206004820152601960248201527f496e73756666696369656e7420574554482062616c616e63650000000000000060448201526064015b60405180910390fd5b6103ab338261054d565b604051339082156108fc029083905f818181858888f193505050501580156103d5573d5f5f3e3d5ffd5b5060405181815233907f7fcf532c15f0a6db0bd6d0e038bea71d30d808c7d98cb3bf7268a95bf5081b659060200160405180910390a250565b6060600480546102819061088f565b5f3361030f8185856104f0565b6001600160a01b0382166104535760405163ec442f0560e01b81525f6004820152602401610398565b61045e5f838361057d565b5050565b61046f83838360016106a3565b505050565b6001600160a01b038381165f908152600160209081526040808320938616835292905220545f198110156104ea57818110156104dc57604051637dc7a0d960e11b81526001600160a01b03841660048201526024810182905260448101839052606401610398565b6104ea84848484035f6106a3565b50505050565b6001600160a01b03831661051957604051634b637e8f60e11b81525f6004820152602401610398565b6001600160a01b0382166105425760405163ec442f0560e01b81525f6004820152602401610398565b61046f83838361057d565b6001600160a01b03821661057657604051634b637e8f60e11b81525f6004820152602401610398565b61045e825f835b6001600160a01b0383166105a7578060025f82825461059c91906108c7565b909155506106179050565b6001600160a01b0383165f90815260208190526040902054818110156105f95760405163391434e360e21b81526001600160a01b03851660048201526024810182905260448101839052606401610398565b6001600160a01b0384165f9081526020819052604090209082900390555b6001600160a01b03821661063357600280548290039055610651565b6001600160a01b0382165f9081526020819052604090208054820190555b816001600160a01b0316836001600160a01b03167fddf252ad1be2c89b69c2b068fc378daa952ba7f163c4a11628f55a4df523b3ef8360405161069691815260200190565b60405180910390a3505050565b6001600160a01b0384166106cc5760405163e602df0560e01b81525f6004820152602401610398565b6001600160a01b0383166106f557604051634a1406b160e11b81525f6004820152602401610398565b6001600160a01b038085165f90815260016020908152604080832093871683529290522082905580156104ea57826001600160a01b0316846001600160a01b03167f8c5be1e5ebec7d5bd14f71427d1e84f3dd0314c0f7b2291e5b200ac8c7c3b9258460405161076791815260200190565b60405180910390a350505050565b602081525f82518060208401528060208501604085015e5f604082850101526040601f19601f83011684010191505092915050565b80356001600160a01b03811681146107c0575f5ffd5b919050565b5f5f604083850312156107d6575f5ffd5b6107df836107aa565b946020939093013593505050565b5f5f5f606084860312156107ff575f5ffd5b610808846107aa565b9250610816602085016107aa565b929592945050506040919091013590565b5f60208284031215610837575f5ffd5b5035919050565b5f6020828403121561084e575f5ffd5b610857826107aa565b9392505050565b5f5f6040838503121561086f575f5ffd5b610878836107aa565b9150610886602084016107aa565b90509250929050565b600181811c908216806108a357607f821691505b6020821081036108c157634e487b7160e01b5f52602260045260245ffd5b50919050565b8082018082111561031557634e487b7160e01b5f52601160045260245ffdfea264697066735822122001d98cc7b92690c69041a5b9b9989440457a3215e7c99cc77a814b258554d07564736f6c634300081e0033",
  "linkReferences": {},
  "deployedLinkReferences": {},
  "immutableReferences": {},
  "inputSourceName": "project/contracts/local/MockWETH.sol",
  "buildInfoId": "solc-0_8_30-6a3bd7e508c361546fb00c8a0780eb2420539ed6"
}