{
  "_format": "hh3-artifact-1",
  "contractName": "stBTB",
  "sourceName": "contracts/stBTB.sol",
  "abi": [
    {
      "inputs": [
        {
          "internalType": "contract IERC20",
          "name": "btb",
          "type": "address"
        }
      ],
      "stateMutability": "nonpayable",
      "type": "constructor"
    },
    {
      "inputs": [],
      "name": "ECDSAInvalidSignature",
      "type": "error"
    },
    {
      "inputs": [
        {
          "internalType": "uint256",
          "name": "length",
          "type": "uint256"
        }
      ],
      "name": "ECDSAInvalidSignatureLength",
      "type": "error"
    },
    {
      "inputs": [
        {
          "internalType": "bytes32",
          "name": "s",
          "type": "bytes32"
        }
      ],
      "name": "ECDSAInvalidSignatureS",
      "type": "error"
    },
    {
      "inputs": [
        {
          "internalType": "address",
          "name": "spender",
          "type": "address"
        },
        {
          "internalType": "uint256",
          "name": "allowance",
          "type": "uint256"
        },
        {
          "internalType": "uint256",
          "name": "needed",
          "type": "uint256"
        }
      ],
      "name": "ERC20InsufficientAllowance",
      "type": "error"
    },
    {
      "inputs": [
        {
          "internalType": "address",
          "name": "sender",
          "type": "address"
        },
        {
          "internalType": "uint256",
          "name": "balance",
          "type": "uint256"
        },
        {
          "internalType": "uint256",
          "name": "needed",
          "type": "uint256"
        }
      ],
      "name": "ERC20InsufficientBalance",
      "type": "error"
    },
    {
      "inputs": [
        {
          "internalType": "address",
          "name": "approver",
          "type": "address"
        }
      ],
      "name": "ERC20InvalidApprover",
      "type": "error"
    },
    {
      "inputs": [
        {
          "internalType": "address",
          "name": "receiver",
          "type": "address"
        }
      ],
      "name": "ERC20InvalidReceiver",
      "type": "error"
    },
    {
      "inputs": [
        {
          "internalType": "address",
          "name": "sender",
          "type": "address"
        }
      ],
      "name": "ERC20InvalidSender",
      "type": "error"
    },
    {
      "inputs": [
        {
          "internalType": "address",
          "name": "spender",
          "type": "address"
        }
      ],
      "name": "ERC20InvalidSpender",
      "type": "error"
    },
    {
      "inputs": [
        {
          "internalType": "uint256",
          "name": "deadline",
          "type": "uint256"
        }
      ],
      "name": "ERC2612ExpiredSignature",
      "type": "error"
    },
    {
      "inputs": [
        {
          "internalType": "address",
          "name": "signer",
          "type": "address"
        },
        {
          "internalType": "address",
          "name": "owner",
          "type": "address"
        }
      ],
      "name": "ERC2612InvalidSigner",
      "type": "error"
    },
    {
      "inputs": [
        {
          "internalType": "address",
          "name": "receiver",
          "type": "address"
        },
        {
          "internalType": "uint256",
          "name": "assets",
          "type": "uint256"
        },
        {
          "internalType": "uint256",
          "name": "max",
          "type": "uint256"
        }
      ],
      "name": "ERC4626ExceededMaxDeposit",
      "type": "error"
    },
    {
      "inputs": [
        {
          "internalType": "address",
          "name": "receiver",
          "type": "address"
        },
        {
          "internalType": "uint256",
          "name": "shares",
          "type": "uint256"
        },
        {
          "internalType": "uint256",
          "name": "max",
          "type": "uint256"
        }
      ],
      "name": "ERC4626ExceededMaxMint",
      "type": "error"
    },
    {
      "inputs": [
        {
          "internalType": "address",
          "name": "owner",
          "type": "address"
        },
        {
          "internalType": "uint256",
          "name": "shares",
          "type": "uint256"
        },
        {
          "internalType": "uint256",
          "name": "max",
          "type": "uint256"
        }
      ],
      "name": "ERC4626ExceededMaxRedeem",
      "type": "error"
    },
    {
      "inputs": [
        {
          "internalType": "address",
          "name": "owner",
          "type": "address"
        },
        {
          "internalType": "uint256",
          "name": "assets",
          "type": "uint256"
        },
        {
          "internalType": "uint256",
          "name": "max",
          "type": "uint256"
        }
      ],
      "name": "ERC4626ExceededMaxWithdraw",
      "type": "error"
    },
    {
      "inputs": [
        {
          "internalType": "address",
          "name": "account",
          "type": "address"
        },
        {
          "internalType": "uint256",
          "name": "currentNonce",
          "type": "uint256"
        }
      ],
      "name": "InvalidAccountNonce",
      "type": "error"
    },
    {
      "inputs": [],
      "name": "InvalidShortString",
      "type": "error"
    },
    {
      "inputs": [
        {
          "internalType": "address",
          "name": "token",
          "type": "address"
        }
      ],
      "name": "SafeERC20FailedOperation",
      "type": "error"
    },
    {
      "inputs": [
        {
          "internalType": "string",
          "name": "str",
          "type": "string"
        }
      ],
      "name": "StringTooLong",
      "type": "error"
    },
    {
      "anonymous": false,
      "inputs": [
        {
          "indexed": true,
          "internalType": "address",
          "name": "owner",
          "type": "address"
        },
        {
          "indexed": true,
          "internalType": "address",
          "name": "spender",
          "type": "address"
        },
        {
          "indexed": false,
          "internalType": "uint256",
          "name": "value",
          "type": "uint256"
        }
      ],
      "name": "Approval",
      "type": "event"
    },
    {
      "anonymous": false,
      "inputs": [
        {
          "indexed": true,
          "internalType": "address",
          "name": "sender",
          "type": "address"
        },
        {
          "indexed": true,
          "internalType": "address",
          "name": "owner",
          "type": "address"
        },
        {
          "indexed": false,
          "internalType": "uint256",
          "name": "assets",
          "type": "uint256"
        },
        {
          "indexed": false,
          "internalType": "uint256",
          "name": "shares",
          "type": "uint256"
        }
      ],
      "name": "Deposit",
      "type": "event"
    },
    {
      "anonymous": false,
      "inputs": [],
      "name": "EIP712DomainChanged",
      "type": "event"
    },
    {
      "anonymous": false,
      "inputs": [
        {
          "indexed": true,
          "internalType": "address",
          "name": "from",
          "type": "address"
        },
        {
          "indexed": true,
          "internalType": "address",
          "name": "to",
          "type": "address"
        },
        {
          "indexed": false,
          "internalType": "uint256",
          "name": "value",
          "type": "uint256"
        }
      ],
      "name": "Transfer",
      "type": "event"
    },
    {
      "anonymous": false,
      "inputs": [
        {
          "indexed": true,
          "internalType": "address",
          "name": "sender",
          "type": "address"
        },
        {
          "indexed": true,
          "internalType": "address",
          "name": "receiver",
          "type": "address"
        },
        {
          "indexed": true,
          "internalType": "address",
          "name": "owner",
          "type": "address"
        },
        {
          "indexed": false,
          "internalType": "uint256",
          "name": "assets",
          "type": "uint256"
        },
        {
          "indexed": false,
          "internalType": "uint256",
          "name": "shares",
          "type": "uint256"
        }
      ],
      "name": "Withdraw",
      "type": "event"
    },
    {
      "inputs": [],
      "name": "DOMAIN_SEPARATOR",
      "outputs": [
        {
          "internalType": "bytes32",
          "name": "",
          "type": "bytes32"
        }
      ],
      "stateMutability": "view",
      "type": "function"
    },
    {
      "inputs": [
        {
          "internalType": "address",
          "name": "owner",
          "type": "address"
        },
        {
          "internalType": "address",
          "name": "spender",
          "type": "address"
        }
      ],
      "name": "allowance",
      "outputs": [
        {
          "internalType": "uint256",
          "name": "",
          "type": "uint256"
        }
      ],
      "stateMutability": "view",
      "type": "function"
    },
    {
      "inputs": [
        {
          "internalType": "address",
          "name": "spender",
          "type": "address"
        },
        {
          "internalType": "uint256",
          "name": "value",
          "type": "uint256"
        }
      ],
      "name": "approve",
      "outputs": [
        {
          "internalType": "bool",
          "name": "",
          "type": "bool"
        }
      ],
      "stateMutability": "nonpayable",
      "type": "function"
    },
    {
      "inputs": [],
      "name": "asset",
      "outputs": [
        {
          "internalType": "address",
          "name": "",
          "type": "address"
        }
      ],
      "stateMutability": "view",
      "type": "function"
    },
    {
      "inputs": [
        {
          "internalType": "address",
          "name": "account",
          "type": "address"
        }
      ],
      "name": "balanceOf",
      "outputs": [
        {
          "internalType": "uint256",
          "name": "",
          "type": "uint256"
        }
      ],
      "stateMutability": "view",
      "type": "function"
    },
    {
      "inputs": [
        {
          "internalType": "uint256",
          "name": "shares",
          "type": "uint256"
        }
      ],
      "name": "convertToAssets",
      "outputs": [
        {
          "internalType": "uint256",
          "name": "",
          "type": "uint256"
        }
      ],
      "stateMutability": "view",
      "type": "function"
    },
    {
      "inputs": [
        {
          "internalType": "uint256",
          "name": "assets",
          "type": "uint256"
        }
      ],
      "name": "convertToShares",
      "outputs": [
        {
          "internalType": "uint256",
          "name": "",
          "type": "uint256"
        }
      ],
      "stateMutability": "view",
      "type": "function"
    },
    {
      "inputs": [],
      "name": "decimals",
      "outputs": [
        {
          "internalType": "uint8",
          "name": "",
          "type": "uint8"
        }
      ],
      "stateMutability": "view",
      "type": "function"
    },
    {
      "inputs": [
        {
          "internalType": "uint256",
          "name": "assets",
          "type": "uint256"
        },
        {
          "internalType": "address",
          "name": "receiver",
          "type": "address"
        }
      ],
      "name": "deposit",
      "outputs": [
        {
          "internalType": "uint256",
          "name": "",
          "type": "uint256"
        }
      ],
      "stateMutability": "nonpayable",
      "type": "function"
    },
    {
      "inputs": [
        {
          "internalType": "uint256",
          "name": "assets",
          "type": "uint256"
        },
        {
          "internalType": "address",
          "name": "receiver",
          "type": "address"
        },
        {
          "internalType": "uint256",
          "name": "deadline",
          "type": "uint256"
        },
        {
          "internalType": "uint8",
          "name": "v",
          "type": "uint8"
        },
        {
          "internalType": "bytes32",
          "name": "r",
          "type": "bytes32"
        },
        {
          "internalType": "bytes32",
          "name": "s",
          "type": "bytes32"
        }
      ],
      "name": "depositWithPermit",
      "outputs": [
        {
          "internalType": "uint256",
          "name": "shares",
          "type": "uint256"
        }
      ],
      "stateMutability": "nonpayable",
      "type": "function"
    },
    {
      "inputs": [],
      "name": "eip712Domain",
      "outputs": [
        {
          "internalType": "bytes1",
          "name": "fields",
          "type": "bytes1"
        },
        {
          "internalType": "string",
          "name": "name",
          "type": "string"
        },
        {
          "internalType": "string",
          "name": "version",
          "type": "string"
        },
        {
          "internalType": "uint256",
          "name": "chainId",
          "type": "uint256"
        },
        {
          "internalType": "address",
          "name": "verifyingContract",
          "type": "address"
        },
        {
          "internalType": "bytes32",
          "name": "salt",
          "type": "bytes32"
        },
        {
          "internalType": "uint256[]",
          "name": "extensions",
          "type": "uint256[]"
        }
      ],
      "stateMutability": "view",
      "type": "function"
    },
    {
      "inputs": [
        {
          "internalType": "address",
          "name": "",
          "type": "address"
        }
      ],
      "name": "maxDeposit",
      "outputs": [
        {
          "internalType": "uint256",
          "name": "",
          "type": "uint256"
        }
      ],
      "stateMutability": "view",
      "type": "function"
    },
    {
      "inputs": [
        {
          "internalType": "address",
          "name": "",
          "type": "address"
        }
      ],
      "name": "maxMint",
      "outputs": [
        {
          "internalType": "uint256",
          "name": "",
          "type": "uint256"
        }
      ],
      "stateMutability": "view",
      "type": "function"
    },
    {
      "inputs": [
        {
          "internalType": "address",
          "name": "owner",
          "type": "address"
        }
      ],
      "name": "maxRedeem",
      "outputs": [
        {
          "internalType": "uint256",
          "name": "",
          "type": "uint256"
        }
      ],
      "stateMutability": "view",
      "type": "function"
    },
    {
      "inputs": [
        {
          "internalType": "address",
          "name": "owner",
          "type": "address"
        }
      ],
      "name": "maxWithdraw",
      "outputs": [
        {
          "internalType": "uint256",
          "name": "",
          "type": "uint256"
        }
      ],
      "stateMutability": "view",
      "type": "function"
    },
    {
      "inputs": [
        {
          "internalType": "uint256",
          "name": "shares",
          "type": "uint256"
        },
        {
          "internalType": "address",
          "name": "receiver",
          "type": "address"
        }
      ],
      "name": "mint",
      "outputs": [
        {
          "internalType": "uint256",
          "name": "",
          "type": "uint256"
        }
      ],
      "stateMutability": "nonpayable",
      "type": "function"
    },
    {
      "inputs": [
        {
          "internalType": "uint256",
          "name": "shares",
          "type": "uint256"
        },
        {
          "internalType": "address",
          "name": "receiver",
          "type": "address"
        },
        {
          "internalType": "uint256",
          "name": "deadline",
          "type": "uint256"
        },
        {
          "internalType": "uint8",
          "name": "v",
          "type": "uint8"
        },
        {
          "internalType": "bytes32",
          "name": "r",
          "type": "bytes32"
        },
        {
          "internalType": "bytes32",
          "name": "s",
          "type": "bytes32"
        }
      ],
      "name": "mintWithPermit",
      "outputs": [
        {
          "internalType": "uint256",
          "name": "assets",
          "type": "uint256"
        }
      ],
      "stateMutability": "nonpayable",
      "type": "function"
    },
    {
      "inputs": [],
      "name": "name",
      "outputs": [
        {
          "internalType": "string",
          "name": "",
          "type": "string"
        }
      ],
      "stateMutability": "view",
      "type": "function"
    },
    {
      "inputs": [
        {
          "internalType": "address",
          "name": "owner",
          "type": "address"
        }
      ],
      "name": "nonces",
      "outputs": [
        {
          "internalType": "uint256",
          "name": "",
          "type": "uint256"
        }
      ],
      "stateMutability": "view",
      "type": "function"
    },
    {
      "inputs": [
        {
          "internalType": "address",
          "name": "owner",
          "type": "address"
        },
        {
          "internalType": "address",
          "name": "spender",
          "type": "address"
        },
        {
          "internalType": "uint256",
          "name": "value",
          "type": "uint256"
        },
        {
          "internalType": "uint256",
          "name": "deadline",
          "type": "uint256"
        },
        {
          "internalType": "uint8",
          "name": "v",
          "type": "uint8"
        },
        {
          "internalType": "bytes32",
          "name": "r",
          "type": "bytes32"
        },
        {
          "internalType": "bytes32",
          "name": "s",
          "type": "bytes32"
        }
      ],
      "name": "permit",
      "outputs": [],
      "stateMutability": "nonpayable",
      "type": "function"
    },
    {
      "inputs": [
        {
          "internalType": "uint256",
          "name": "assets",
          "type": "uint256"
        }
      ],
      "name": "previewDeposit",
      "outputs": [
        {
          "internalType": "uint256",
          "name": "",
          "type": "uint256"
        }
      ],
      "stateMutability": "view",
      "type": "function"
    },
    {
      "inputs": [
        {
          "internalType": "uint256",
          "name": "shares",
          "type": "uint256"
        }
      ],
      "name": "previewMint",
      "outputs": [
        {
          "internalType": "uint256",
          "name": "",
          "type": "uint256"
        }
      ],
      "stateMutability": "view",
      "type": "function"
    },
    {
      "inputs": [
        {
          "internalType": "uint256",
          "name": "shares",
          "type": "uint256"
        }
      ],
      "name": "previewRedeem",
      "outputs": [
        {
          "internalType": "uint256",
          "name": "",
          "type": "uint256"
        }
      ],
      "stateMutability": "view",
      "type": "function"
    },
    {
      "inputs": [
        {
          "internalType": "uint256",
          "name": "assets",
          "type": "uint256"
        }
      ],
      "name": "previewWithdraw",
      "outputs": [
        {
          "internalType": "uint256",
          "name": "",
          "type": "uint256"
        }
      ],
      "stateMutability": "view",
      "type": "function"
    },
    {
      "inputs": [
        {
          "internalType": "uint256",
          "name": "shares",
          "type": "uint256"
        },
        {
          "internalType": "address",
          "name": "receiver",
          "type": "address"
        },
        {
          "internalType": "address",
          "name": "owner",
          "type": "address"
        }
      ],
      "name": "redeem",
      "outputs": [
        {
          "internalType": "uint256",
          "name": "",
          "type": "uint256"
        }
      ],
      "stateMutability": "nonpayable",
      "type": "function"
    },
    {
      "inputs": [],
      "name": "symbol",
      "outputs": [
        {
          "internalType": "string",
          "name": "",
          "type": "string"
        }
      ],
      "stateMutability": "view",
      "type": "function"
    },
    {
      "inputs": [],
      "name": "totalAssets",
      "outputs": [
        {
          "internalType": "uint256",
          "name": "",
          "type": "uint256"
        }
      ],
      "stateMutability": "view",
      "type": "function"
    },
    {
      "inputs": [],
      "name": "totalSupply",
      "outputs": [
        {
          "internalType": "uint256",
          "name": "",
          "type": "uint256"
        }
      ],
      "stateMutability": "view",
      "type": "function"
    },
    {
      "inputs": [
        {
          "internalType": "address",
          "name": "to",
          "type": "address"
        },
        {
          "internalType": "uint256",
          "name": "value",
          "type": "uint256"
        }
      ],
      "name": "transfer",
      "outputs": [
        {
          "internalType": "bool",
          "name": "",
          "type": "bool"
        }
      ],
      "stateMutability": "nonpayable",
      "type": "function"
    },
    {
      "inputs": [
        {
          "internalType": "address",
          "name": "from",
          "type": "address"
        },
        {
          "internalType": "address",
          "name": "to",
          "type": "address"
        },
        {
          "internalType": "uint256",
          "name": "value",
          "type": "uint256"
        }
      ],
      "name": "transferFrom",
      "outputs": [
        {
          "internalType": "bool",
          "name": "",
          "type": "bool"
        }
      ],
      "stateMutability": "nonpayable",
      "type": "function"
    },
    {
      "inputs": [
        {
          "internalType": "uint256",
          "name": "assets",
          "type": "uint256"
        },
        {
          "internalType": "address",
          "name": "receiver",
          "type": "address"
        },
        {
          "internalType": "address",
          "name": "owner",
          "type": "address"
        }
      ],
      "name": "withdraw",
      "outputs": [
        {
          "internalType": "uint256",
          "name": "",
          "type": "uint256"
        }
      ],
      "stateMutability": "nonpayable",
      "type": "function"
    }
  ],
  "bytecode": "0x6101a0604052348015610010575f5ffd5b506040516120b73803806120b783398101604081905261002f9161031f565b6040518060400160405280601381526020017214dd185ad95908109a5d18dbda5b88109bdb99606a1b81525080604051806040016040528060018152602001603160f81b815250836040518060400160405280601381526020017214dd185ad95908109a5d18dbda5b88109bdb99606a1b8152506040518060400160405280600581526020016439ba212a2160d91b81525081600390816100d091906103e4565b5060046100dd82826103e4565b5050505f5f6100f1836101d160201b60201c565b9150915081610101576012610103565b805b60ff1660a05250506001600160a01b03166080526101228260056102a7565b610160526101318160066102a7565b61018052815160208084019190912061012052815190820120610140524660e0526101bf6101205161014051604080517f8b73c3c69bb8fe3d512ecc4cf759cc79239f7b179b0ffacaa9a75d522b39400f60208201529081019290925260608201524660808201523060a08201525f9060c00160405160208183030381529060405280519060200120905090565b60c05250503061010052506105239050565b60408051600481526024810182526020810180516001600160e01b031663313ce56760e01b17905290515f918291829182916001600160a01b038716916102179161049e565b5f60405180830381855afa9150503d805f811461024f576040519150601f19603f3d011682016040523d82523d5f602084013e610254565b606091505b509150915081801561026857506020815110155b1561029b575f8180602001905181019061028291906104b4565b905060ff8111610299576001969095509350505050565b505b505f9485945092505050565b5f6020835110156102c2576102bb836102d9565b90506102d3565b816102cd84826103e4565b5060ff90505b92915050565b5f5f829050601f8151111561030c578260405163305a27a960e01b815260040161030391906104cb565b60405180910390fd5b805161031782610500565b179392505050565b5f6020828403121561032f575f5ffd5b81516001600160a01b0381168114610345575f5ffd5b9392505050565b634e487b7160e01b5f52604160045260245ffd5b600181811c9082168061037457607f821691505b60208210810361039257634e487b7160e01b5f52602260045260245ffd5b50919050565b601f8211156103df57805f5260205f20601f840160051c810160208510156103bd5750805b601f840160051c820191505b818110156103dc575f81556001016103c9565b50505b505050565b81516001600160401b038111156103fd576103fd61034c565b6104118161040b8454610360565b84610398565b6020601f821160018114610443575f831561042c5750848201515b5f19600385901b1c1916600184901b1784556103dc565b5f84815260208120601f198516915b828110156104725787850151825560209485019460019092019101610452565b508482101561048f57868401515f19600387901b60f8161c191681555b50505050600190811b01905550565b5f82518060208501845e5f920191825250919050565b5f602082840312156104c4575f5ffd5b5051919050565b602081525f82518060208401528060208501604085015e5f604082850101526040601f19601f83011684010191505092915050565b80516020808301519190811015610392575f1960209190910360031b1b16919050565b60805160a05160c05160e0516101005161012051610140516101605161018051611b0c6105ab5f395f610d6a01525f610d3d01525f610c5401525f610c2c01525f610b8701525f610bb101525f610bdb01525f610b5701525f81816102a3015281816104600152818161060b015281816106a701528181610ca90152610dc30152611b0c5ff3fe608060405234801561000f575f5ffd5b50600436106101dc575f3560e01c806370a0823111610109578063ba0876521161009e578063d505accf1161006e578063d505accf146103fd578063d905777e14610412578063dd62ed3e14610425578063ef8b30f7146103d7575f5ffd5b8063ba087652146103c4578063c63d75b6146102cd578063c6e6f592146103d7578063ce96cb77146103ea575f5ffd5b806395d89b41116100d957806395d89b4114610383578063a9059cbb1461038b578063b3d7f6b91461039e578063b460af94146103b1575f5ffd5b806370a082311461031a5780637ecebe001461034257806384b0196e1461035557806394bf804d14610370575f5ffd5b8063313ce5671161017f57806342749b5c1161014f57806342749b5c146102e15780634cdad5061461021057806350921b23146102f45780636e553f6514610307575f5ffd5b8063313ce567146102745780633644e5151461028e57806338d52e0f14610296578063402d267d146102cd575f5ffd5b8063095ea7b3116101ba578063095ea7b3146102235780630a28a4771461024657806318160ddd1461025957806323b872dd14610261575f5ffd5b806301e1d114146101e057806306fdde03146101fb57806307a2d13a14610210575b5f5ffd5b6101e861045d565b6040519081526020015b60405180910390f35b6102036104ec565b6040516101f291906115f5565b6101e861021e366004611607565b61057c565b610236610231366004611639565b61058d565b60405190151581526020016101f2565b6101e8610254366004611607565b6105a4565b6002546101e8565b61023661026f366004611661565b6105b0565b61027c6105d5565b60405160ff90911681526020016101f2565b6101e86105de565b6040516001600160a01b037f00000000000000000000000000000000000000000000000000000000000000001681526020016101f2565b6101e86102db36600461169b565b505f1990565b6101e86102ef3660046116c4565b6105e7565b6101e86103023660046116c4565b61068e565b6101e8610315366004611718565b61071b565b6101e861032836600461169b565b6001600160a01b03165f9081526020819052604090205490565b6101e861035036600461169b565b61074c565b61035d610769565b6040516101f29796959493929190611742565b6101e861037e366004611718565b6107ab565b6102036107c6565b610236610399366004611639565b6107d5565b6101e86103ac366004611607565b6107e2565b6101e86103bf3660046117d8565b6107ee565b6101e86103d23660046117d8565b610844565b6101e86103e5366004611607565b610891565b6101e86103f836600461169b565b61089c565b61041061040b366004611811565b6108be565b005b6101e861042036600461169b565b6109f4565b6101e8610433366004611877565b6001600160a01b039182165f90815260016020908152604080832093909416825291909152205490565b5f7f00000000000000000000000000000000000000000000000000000000000000006040516370a0823160e01b81523060048201526001600160a01b0391909116906370a0823190602401602060405180830381865afa1580156104c3573d5f5f3e3d5ffd5b505050506040513d601f19601f820116820180604052508101906104e7919061189f565b905090565b6060600380546104fb906118b6565b80601f0160208091040260200160405190810160405280929190818152602001828054610527906118b6565b80156105725780601f1061054957610100808354040283529160200191610572565b820191905f5260205f20905b81548152906001019060200180831161055557829003601f168201915b5050505050905090565b5f610587825f610a11565b92915050565b5f3361059a818585610a49565b5060019392505050565b5f610587826001610a5b565b5f336105bd858285610a8a565b6105c8858585610af3565b60019150505b9392505050565b5f6104e7610b50565b5f6104e7610b7b565b5f6105f1876107e2565b60405163d505accf60e01b81529091506001600160a01b037f0000000000000000000000000000000000000000000000000000000000000000169063d505accf9061064c903390309086908b908b908b908b906004016118ee565b5f604051808303815f87803b158015610663575f5ffd5b505af1158015610675573d5f5f3e3d5ffd5b5050505061068387876107ab565b979650505050505050565b60405163d505accf60e01b81525f906001600160a01b037f0000000000000000000000000000000000000000000000000000000000000000169063d505accf906106e890339030908c908b908b908b908b906004016118ee565b5f604051808303815f87803b1580156106ff575f5ffd5b505af1158015610711573d5f5f3e3d5ffd5b5050505061068387875b5f5f1961072c565b60405180910390fd5b5f61073685610891565b905061074433858784610ca4565b949350505050565b6001600160a01b0381165f90815260076020526040812054610587565b5f6060805f5f5f606061077a610d36565b610782610d63565b604080515f80825260208201909252600f60f81b9b939a50919850469750309650945092509050565b5f5f195f6107b8856107e2565b905061074433858388610ca4565b6060600480546104fb906118b6565b5f3361059a818585610af3565b5f610587826001610a11565b5f5f6107f98361089c565b90508085111561082257828582604051633fa733bb60e21b81526004016107239392919061192f565b5f61082c866105a4565b905061083b3386868985610d90565b95945050505050565b5f5f61084f836109f4565b90508085111561087857828582604051632e52afbb60e21b81526004016107239392919061192f565b5f6108828661057c565b905061083b338686848a610d90565b5f610587825f610a5b565b6001600160a01b0381165f90815260208190526040812054610587905f610a11565b834211156108e25760405163313c898160e11b815260048101859052602401610723565b5f7f6e71edae12b1b97f4d1f60370fef10105fa2faae0126114a169c64845d6126c988888861092d8c6001600160a01b03165f90815260076020526040902080546001810190915590565b6040805160208101969096526001600160a01b0394851690860152929091166060840152608083015260a082015260c0810186905260e0016040516020818303038152906040528051906020012090505f61098782610e50565b90505f61099682878787610e7c565b9050896001600160a01b0316816001600160a01b0316146109dd576040516325c0072360e11b81526001600160a01b0380831660048301528b166024820152604401610723565b6109e88a8a8a610a49565b50505050505050505050565b6001600160a01b0381165f90815260208190526040812054610587565b5f6105ce610a1d61045d565b610a28906001611964565b610a335f600a611a5a565b600254610a409190611964565b85919085610ea8565b610a568383836001610eea565b505050565b5f6105ce610a6a82600a611a5a565b600254610a779190611964565b610a7f61045d565b610a40906001611964565b6001600160a01b038381165f908152600160209081526040808320938616835292905220545f19811015610aed5781811015610adf57828183604051637dc7a0d960e11b81526004016107239392919061192f565b610aed84848484035f610eea565b50505050565b6001600160a01b038316610b1c57604051634b637e8f60e11b81525f6004820152602401610723565b6001600160a01b038216610b455760405163ec442f0560e01b81525f6004820152602401610723565b610a56838383610fae565b5f6104e7817f0000000000000000000000000000000000000000000000000000000000000000611a68565b5f306001600160a01b037f000000000000000000000000000000000000000000000000000000000000000016148015610bd357507f000000000000000000000000000000000000000000000000000000000000000046145b15610bfd57507f000000000000000000000000000000000000000000000000000000000000000090565b6104e7604080517f8b73c3c69bb8fe3d512ecc4cf759cc79239f7b179b0ffacaa9a75d522b39400f60208201527f0000000000000000000000000000000000000000000000000000000000000000918101919091527f000000000000000000000000000000000000000000000000000000000000000060608201524660808201523060a08201525f9060c00160405160208183030381529060405280519060200120905090565b610cd07f00000000000000000000000000000000000000000000000000000000000000008530856110c1565b610cda8382611128565b826001600160a01b0316846001600160a01b03167fdcbc1c05240f31ff3ad067ef1ee35ce4997762752e3a095284754544f4c709d78484604051610d28929190918252602082015260400190565b60405180910390a350505050565b60606104e77f00000000000000000000000000000000000000000000000000000000000000006005611160565b60606104e77f00000000000000000000000000000000000000000000000000000000000000006006611160565b826001600160a01b0316856001600160a01b031614610db457610db4838683610a8a565b610dbe8382611209565b610de97f0000000000000000000000000000000000000000000000000000000000000000858461123d565b826001600160a01b0316846001600160a01b0316866001600160a01b03167ffbde797d201c681b91056529119e0b02407c7bb96a4a2c75c01fc9667232c8db8585604051610e41929190918252602082015260400190565b60405180910390a45050505050565b5f610587610e5c610b7b565b8360405161190160f01b8152600281019290925260228201526042902090565b5f5f5f5f610e8c8888888861126e565b925092509250610e9c8282611336565b50909695505050505050565b5f610ed5610eb5836113ee565b8015610ed057505f8480610ecb57610ecb611a81565b868809115b151590565b610ee086868661141a565b61083b9190611964565b6001600160a01b038416610f135760405163e602df0560e01b81525f6004820152602401610723565b6001600160a01b038316610f3c57604051634a1406b160e11b81525f6004820152602401610723565b6001600160a01b038085165f9081526001602090815260408083209387168352929052208290558015610aed57826001600160a01b0316846001600160a01b03167f8c5be1e5ebec7d5bd14f71427d1e84f3dd0314c0f7b2291e5b200ac8c7c3b92584604051610d2891815260200190565b6001600160a01b038316610fd8578060025f828254610fcd9190611964565b909155506110359050565b6001600160a01b0383165f90815260208190526040902054818110156110175783818360405163391434e360e21b81526004016107239392919061192f565b6001600160a01b0384165f9081526020819052604090209082900390555b6001600160a01b0382166110515760028054829003905561106f565b6001600160a01b0382165f9081526020819052604090208054820190555b816001600160a01b0316836001600160a01b03167fddf252ad1be2c89b69c2b068fc378daa952ba7f163c4a11628f55a4df523b3ef836040516110b491815260200190565b60405180910390a3505050565b6040516001600160a01b038481166024830152838116604483015260648201839052610aed9186918216906323b872dd906084015b604051602081830303815290604052915060e01b6020820180516001600160e01b0383818316178352505050506114ca565b6001600160a01b0382166111515760405163ec442f0560e01b81525f6004820152602401610723565b61115c5f8383610fae565b5050565b606060ff831461117a5761117383611536565b9050610587565b818054611186906118b6565b80601f01602080910402602001604051908101604052809291908181526020018280546111b2906118b6565b80156111fd5780601f106111d4576101008083540402835291602001916111fd565b820191905f5260205f20905b8154815290600101906020018083116111e057829003601f168201915b50505050509050610587565b6001600160a01b03821661123257604051634b637e8f60e11b81525f6004820152602401610723565b61115c825f83610fae565b6040516001600160a01b03838116602483015260448201839052610a5691859182169063a9059cbb906064016110f6565b5f80807f7fffffffffffffffffffffffffffffff5d576e7357a4501ddfe92f46681b20a08411156112a757505f9150600390508261132c565b604080515f808252602082018084528a905260ff891692820192909252606081018790526080810186905260019060a0016020604051602081039080840390855afa1580156112f8573d5f5f3e3d5ffd5b5050604051601f1901519150506001600160a01b03811661132357505f92506001915082905061132c565b92505f91508190505b9450945094915050565b5f82600381111561134957611349611a95565b03611352575050565b600182600381111561136657611366611a95565b036113845760405163f645eedf60e01b815260040160405180910390fd5b600282600381111561139857611398611a95565b036113b95760405163fce698f760e01b815260048101829052602401610723565b60038260038111156113cd576113cd611a95565b0361115c576040516335e2f38360e21b815260048101829052602401610723565b5f600282600381111561140357611403611a95565b61140d9190611aa9565b60ff166001149050919050565b5f5f5f6114278686611573565b91509150815f0361144b5783818161144157611441611a81565b04925050506105ce565b81841161146257611462600385150260111861158f565b5f848688095f868103871696879004966002600389028118808a02820302808a02820302808a02820302808a02820302808a02820302808a02909103029181900381900460010185841190960395909502919093039390930492909217029150509392505050565b5f5f60205f8451602086015f885af1806114e9576040513d5f823e3d81fd5b50505f513d9150811561150057806001141561150d565b6001600160a01b0384163b155b15610aed57604051635274afe760e01b81526001600160a01b0385166004820152602401610723565b60605f611542836115a0565b6040805160208082528183019092529192505f91906020820181803683375050509182525060208101929092525090565b5f805f1983850993909202808410938190039390930393915050565b634e487b715f52806020526024601cfd5b5f60ff8216601f81111561058757604051632cd44ac360e21b815260040160405180910390fd5b5f81518084528060208401602086015e5f602082860101526020601f19601f83011685010191505092915050565b602081525f6105ce60208301846115c7565b5f60208284031215611617575f5ffd5b5035919050565b80356001600160a01b0381168114611634575f5ffd5b919050565b5f5f6040838503121561164a575f5ffd5b6116538361161e565b946020939093013593505050565b5f5f5f60608486031215611673575f5ffd5b61167c8461161e565b925061168a6020850161161e565b929592945050506040919091013590565b5f602082840312156116ab575f5ffd5b6105ce8261161e565b803560ff81168114611634575f5ffd5b5f5f5f5f5f5f60c087890312156116d9575f5ffd5b863595506116e96020880161161e565b9450604087013593506116fe606088016116b4565b9598949750929560808101359460a0909101359350915050565b5f5f60408385031215611729575f5ffd5b823591506117396020840161161e565b90509250929050565b60ff60f81b8816815260e060208201525f61176060e08301896115c7565b828103604084015261177281896115c7565b606084018890526001600160a01b038716608085015260a0840186905283810360c0850152845180825260208087019350909101905f5b818110156117c75783518352602093840193909201916001016117a9565b50909b9a5050505050505050505050565b5f5f5f606084860312156117ea575f5ffd5b833592506117fa6020850161161e565b91506118086040850161161e565b90509250925092565b5f5f5f5f5f5f5f60e0888a031215611827575f5ffd5b6118308861161e565b965061183e6020890161161e565b9550604088013594506060880135935061185a608089016116b4565b9699959850939692959460a0840135945060c09093013592915050565b5f5f60408385031215611888575f5ffd5b6118918361161e565b91506117396020840161161e565b5f602082840312156118af575f5ffd5b5051919050565b600181811c908216806118ca57607f821691505b6020821081036118e857634e487b7160e01b5f52602260045260245ffd5b50919050565b6001600160a01b0397881681529590961660208601526040850193909352606084019190915260ff16608083015260a082015260c081019190915260e00190565b6001600160a01b039390931683526020830191909152604082015260600190565b634e487b7160e01b5f52601160045260245ffd5b8082018082111561058757610587611950565b6001815b60018411156119b25780850481111561199657611996611950565b60018416156119a457908102905b60019390931c92800261197b565b935093915050565b5f826119c857506001610587565b816119d457505f610587565b81600181146119ea57600281146119f457611a10565b6001915050610587565b60ff841115611a0557611a05611950565b50506001821b610587565b5060208310610133831016604e8410600b8410161715611a33575081810a610587565b611a3f5f198484611977565b805f1904821115611a5257611a52611950565b029392505050565b5f6105ce60ff8416836119ba565b60ff818116838216019081111561058757610587611950565b634e487b7160e01b5f52601260045260245ffd5b634e487b7160e01b5f52602160045260245ffd5b5f60ff831680611ac757634e487b7160e01b5f52601260045260245ffd5b8060ff8416069150509291505056fea2646970667358221220400a64f024a203fdd62e33e343d2635ce2baadb6182c58371b5c9ccfc29f3e7464736f6c634300081e0033",
  "linkReferences": {},
  "deployedLinkReferences": {},
  "immutableReferences": {
    "1191": [
      {
        "length": 32,
        "start": 675
      },
      {
        "length": 32,
        "start": 1120
      },
      {
        "length": 32,
        "start": 1547
      },
      {
        "length": 32,
        "start": 1703
      },
      {
        "length": 32,
        "start": 3241
      },
      {
        "length": 32,
        "start": 3523
      }
    ],
    "1193": [
      {
        "length": 32,
        "start": 2903
      }
    ],
    "4650": [
      {
        "length": 32,
        "start": 3035
      }
    ],
    "4652": [
      {
        "length": 32,
        "start": 2993
      }
    ],
    "4654": [
      {
        "length": 32,
        "start": 2951
      }
    ],
    "4656": [
      {
        "length": 32,
        "start": 3116
      }
    ],
    "4658": [
      {
        "length": 32,
        "start": 3156
      }
    ],
    "4661": [
      {
        "length": 32,
        "start": 3389
      }
    ],
    "4664": [
      {
        "length": 32,
        "start": 3434
      }
    ]
  },
  "inputSourceName": "project/contracts/stBTB.sol",
  "buildInfoId": "solc-0_8_30-7a64430b3f1ddf64ff146cdb88cff85ab7577186"
}