{
  "_format": "hh3-artifact-1",
  "contractName": "Faucet",
  "sourceName": "contracts/local/Faucet.sol",
  "abi": [
    {
      "inputs": [
        {
          "internalType": "address",
          "name": "_wbtc",
          "type": "address"
        },
        {
          "internalType": "address",
          "name": "_usdc",
          "type": "address"
        },
        {
          "internalType": "address",
          "name": "_usdt",
          "type": "address"
        },
        {
          "internalType": "address",
          "name": "_owner",
          "type": "address"
        }
      ],
      "stateMutability": "nonpayable",
      "type": "constructor"
    },
    {
      "inputs": [
        {
          "internalType": "uint256",
          "name": "remainingTime",
          "type": "uint256"
        }
      ],
      "name": "CooldownNotElapsed",
      "type": "error"
    },
    {
      "inputs": [
        {
          "internalType": "string",
          "name": "token",
          "type": "string"
        }
      ],
      "name": "InsufficientFaucetBalance",
      "type": "error"
    },
    {
      "inputs": [
        {
          "internalType": "address",
          "name": "owner",
          "type": "address"
        }
      ],
      "name": "OwnableInvalidOwner",
      "type": "error"
    },
    {
      "inputs": [
        {
          "internalType": "address",
          "name": "account",
          "type": "address"
        }
      ],
      "name": "OwnableUnauthorizedAccount",
      "type": "error"
    },
    {
      "anonymous": false,
      "inputs": [
        {
          "indexed": true,
          "internalType": "address",
          "name": "recipient",
          "type": "address"
        },
        {
          "indexed": false,
          "internalType": "uint256",
          "name": "wbtcAmount",
          "type": "uint256"
        },
        {
          "indexed": false,
          "internalType": "uint256",
          "name": "usdcAmount",
          "type": "uint256"
        },
        {
          "indexed": false,
          "internalType": "uint256",
          "name": "usdtAmount",
          "type": "uint256"
        }
      ],
      "name": "Claimed",
      "type": "event"
    },
    {
      "anonymous": false,
      "inputs": [
        {
          "indexed": true,
          "internalType": "address",
          "name": "previousOwner",
          "type": "address"
        },
        {
          "indexed": true,
          "internalType": "address",
          "name": "newOwner",
          "type": "address"
        }
      ],
      "name": "OwnershipTransferred",
      "type": "event"
    },
    {
      "anonymous": false,
      "inputs": [
        {
          "indexed": true,
          "internalType": "address",
          "name": "token",
          "type": "address"
        },
        {
          "indexed": true,
          "internalType": "address",
          "name": "to",
          "type": "address"
        },
        {
          "indexed": false,
          "internalType": "uint256",
          "name": "amount",
          "type": "uint256"
        }
      ],
      "name": "TokensWithdrawn",
      "type": "event"
    },
    {
      "inputs": [],
      "name": "COOLDOWN",
      "outputs": [
        {
          "internalType": "uint256",
          "name": "",
          "type": "uint256"
        }
      ],
      "stateMutability": "view",
      "type": "function"
    },
    {
      "inputs": [],
      "name": "USDC_AMOUNT",
      "outputs": [
        {
          "internalType": "uint256",
          "name": "",
          "type": "uint256"
        }
      ],
      "stateMutability": "view",
      "type": "function"
    },
    {
      "inputs": [],
      "name": "USDT_AMOUNT",
      "outputs": [
        {
          "internalType": "uint256",
          "name": "",
          "type": "uint256"
        }
      ],
      "stateMutability": "view",
      "type": "function"
    },
    {
      "inputs": [],
      "name": "WBTC_AMOUNT",
      "outputs": [
        {
          "internalType": "uint256",
          "name": "",
          "type": "uint256"
        }
      ],
      "stateMutability": "view",
      "type": "function"
    },
    {
      "inputs": [
        {
          "internalType": "address",
          "name": "account",
          "type": "address"
        }
      ],
      "name": "canClaim",
      "outputs": [
        {
          "internalType": "bool",
          "name": "",
          "type": "bool"
        }
      ],
      "stateMutability": "view",
      "type": "function"
    },
    {
      "inputs": [],
      "name": "claim",
      "outputs": [],
      "stateMutability": "nonpayable",
      "type": "function"
    },
    {
      "inputs": [],
      "name": "getFaucetBalances",
      "outputs": [
        {
          "internalType": "uint256",
          "name": "wbtcBalance",
          "type": "uint256"
        },
        {
          "internalType": "uint256",
          "name": "usdcBalance",
          "type": "uint256"
        },
        {
          "internalType": "uint256",
          "name": "usdtBalance",
          "type": "uint256"
        }
      ],
      "stateMutability": "view",
      "type": "function"
    },
    {
      "inputs": [
        {
          "internalType": "address",
          "name": "account",
          "type": "address"
        }
      ],
      "name": "getRemainingCooldown",
      "outputs": [
        {
          "internalType": "uint256",
          "name": "",
          "type": "uint256"
        }
      ],
      "stateMutability": "view",
      "type": "function"
    },
    {
      "inputs": [
        {
          "internalType": "address",
          "name": "",
          "type": "address"
        }
      ],
      "name": "lastClaimTime",
      "outputs": [
        {
          "internalType": "uint256",
          "name": "",
          "type": "uint256"
        }
      ],
      "stateMutability": "view",
      "type": "function"
    },
    {
      "inputs": [],
      "name": "owner",
      "outputs": [
        {
          "internalType": "address",
          "name": "",
          "type": "address"
        }
      ],
      "stateMutability": "view",
      "type": "function"
    },
    {
      "inputs": [],
      "name": "renounceOwnership",
      "outputs": [],
      "stateMutability": "nonpayable",
      "type": "function"
    },
    {
      "inputs": [
        {
          "internalType": "address",
          "name": "newOwner",
          "type": "address"
        }
      ],
      "name": "transferOwnership",
      "outputs": [],
      "stateMutability": "nonpayable",
      "type": "function"
    },
    {
      "inputs": [],
      "name": "usdc",
      "outputs": [
        {
          "internalType": "contract IERC20",
          "name": "",
          "type": "address"
        }
      ],
      "stateMutability": "view",
      "type": "function"
    },
    {
      "inputs": [],
      "name": "usdt",
      "outputs": [
        {
          "internalType": "contract IERC20",
          "name": "",
          "type": "address"
        }
      ],
      "stateMutability": "view",
      "type": "function"
    },
    {
      "inputs": [],
      "name": "wbtc",
      "outputs": [
        {
          "internalType": "contract IERC20",
          "name": "",
          "type": "address"
        }
      ],
      "stateMutability": "view",
      "type": "function"
    },
    {
      "inputs": [
        {
          "internalType": "address",
          "name": "token",
          "type": "address"
        },
        {
          "internalType": "address",
          "name": "to",
          "type": "address"
        },
        {
          "internalType": "uint256",
          "name": "amount",
          "type": "uint256"
        }
      ],
      "name": "withdrawTokens",
      "outputs": [],
      "stateMutability": "nonpayable",
      "type": "function"
    }
  ],
  "bytecode": "0x60e060405234801561000f575f5ffd5b50604051610dc6380380610dc683398101604081905261002e916100ee565b806001600160a01b03811661005c57604051631e4fbdf760e01b81525f600482015260240160405180910390fd5b61006581610084565b50506001600160a01b0392831660805290821660a0521660c05261013f565b5f80546001600160a01b038381166001600160a01b0319831681178455604051919092169283917f8be0079c531659141344cd1fd0a4f28419497f9722a3daafe3b4186f6b6457e09190a35050565b80516001600160a01b03811681146100e9575f5ffd5b919050565b5f5f5f5f60808587031215610101575f5ffd5b61010a856100d3565b9350610118602086016100d3565b9250610126604086016100d3565b9150610134606086016100d3565b905092959194509250565b60805160a05160c051610c1e6101a85f395f818161014d015281816103a201528181610626015261082101525f81816101b30152818161031c01528181610563015261079001525f818161018c0152818161029e015281816104a001526107070152610c1e5ff3fe608060405234801561000f575f5ffd5b50600436106100fb575f3560e01c80635e35359e11610093578063b77cf9c611610063578063b77cf9c614610213578063bf3506c114610232578063e6f3e00414610255578063f2fde38b14610268575f5ffd5b80635e35359e146101df578063715018a6146101f25780638da5cb5b146101fa578063a2724a4d1461020a575f5ffd5b80632f48ab7d116100ce5780632f48ab7d146101485780633cdc5389146101875780633e413bee146101ae5780634e71d92d146101d5575f5ffd5b80630ab8e891146100ff5780631153ad741461012757806319c0db88146101275780632485dacf1461013f575b5f5ffd5b61010761027b565b604080519384526020840192909252908201526060015b60405180910390f35b6101316298968081565b60405190815260200161011e565b61013161271081565b61016f7f000000000000000000000000000000000000000000000000000000000000000081565b6040516001600160a01b03909116815260200161011e565b61016f7f000000000000000000000000000000000000000000000000000000000000000081565b61016f7f000000000000000000000000000000000000000000000000000000000000000081565b6101dd61041e565b005b6101dd6101ed366004610b20565b6108de565b6101dd6109a9565b5f546001600160a01b031661016f565b61013161025881565b610131610221366004610b59565b60016020525f908152604090205481565b610245610240366004610b59565b6109bc565b604051901515815260200161011e565b610131610263366004610b59565b6109f3565b6101dd610276366004610b59565b610a4d565b6040516370a0823160e01b81523060048201525f90819081906001600160a01b037f000000000000000000000000000000000000000000000000000000000000000016906370a0823190602401602060405180830381865afa1580156102e3573d5f5f3e3d5ffd5b505050506040513d601f19601f820116820180604052508101906103079190610b72565b6040516370a0823160e01b81523060048201527f00000000000000000000000000000000000000000000000000000000000000006001600160a01b0316906370a0823190602401602060405180830381865afa158015610369573d5f5f3e3d5ffd5b505050506040513d601f19601f8201168201806040525081019061038d9190610b72565b6040516370a0823160e01b81523060048201527f00000000000000000000000000000000000000000000000000000000000000006001600160a01b0316906370a0823190602401602060405180830381865afa1580156103ef573d5f5f3e3d5ffd5b505050506040513d601f19601f820116820180604052508101906104139190610b72565b925092509250909192565b335f908152600160205260409020548015801590610446575061044361025882610b9d565b42105b15610487574261045861025883610b9d565b6104629190610bb6565b60405163e3c9f05560e01b815260040161047e91815260200190565b60405180910390fd5b6040516370a0823160e01b8152306004820152612710907f00000000000000000000000000000000000000000000000000000000000000006001600160a01b0316906370a0823190602401602060405180830381865afa1580156104ed573d5f5f3e3d5ffd5b505050506040513d601f19601f820116820180604052508101906105119190610b72565b10156105495760405163b18ba3f160e01b815260040161047e906020808252600490820152635742544360e01b604082015260600190565b6040516370a0823160e01b815230600482015262989680907f00000000000000000000000000000000000000000000000000000000000000006001600160a01b0316906370a0823190602401602060405180830381865afa1580156105b0573d5f5f3e3d5ffd5b505050506040513d601f19601f820116820180604052508101906105d49190610b72565b101561060c5760405163b18ba3f160e01b815260040161047e906020808252600490820152635553444360e01b604082015260600190565b6040516370a0823160e01b815230600482015262989680907f00000000000000000000000000000000000000000000000000000000000000006001600160a01b0316906370a0823190602401602060405180830381865afa158015610673573d5f5f3e3d5ffd5b505050506040513d601f19601f820116820180604052508101906106979190610b72565b10156106cf5760405163b18ba3f160e01b815260040161047e906020808252600490820152631554d11560e21b604082015260600190565b335f81815260016020526040908190204290555163a9059cbb60e01b8152600481019190915261271060248201526001600160a01b037f0000000000000000000000000000000000000000000000000000000000000000169063a9059cbb906044016020604051808303815f875af115801561074d573d5f5f3e3d5ffd5b505050506040513d601f19601f820116820180604052508101906107719190610bc9565b5060405163a9059cbb60e01b81523360048201526298968060248201527f00000000000000000000000000000000000000000000000000000000000000006001600160a01b03169063a9059cbb906044016020604051808303815f875af11580156107de573d5f5f3e3d5ffd5b505050506040513d601f19601f820116820180604052508101906108029190610bc9565b5060405163a9059cbb60e01b81523360048201526298968060248201527f00000000000000000000000000000000000000000000000000000000000000006001600160a01b03169063a9059cbb906044016020604051808303815f875af115801561086f573d5f5f3e3d5ffd5b505050506040513d601f19601f820116820180604052508101906108939190610bc9565b50604080516127108152629896806020820181905281830152905133917f9cdcf2f7714cca3508c7f0110b04a90a80a3a8dd0e35de99689db74d28c5383e919081900360600190a250565b6108e6610a8a565b60405163a9059cbb60e01b81526001600160a01b0383811660048301526024820183905284169063a9059cbb906044016020604051808303815f875af1158015610932573d5f5f3e3d5ffd5b505050506040513d601f19601f820116820180604052508101906109569190610bc9565b50816001600160a01b0316836001600160a01b03167f6337ed398c0e8467698c581374fdce4db14922df487b5a39483079f5f59b60a48360405161099c91815260200190565b60405180910390a3505050565b6109b1610a8a565b6109ba5f610ab6565b565b6001600160a01b0381165f908152600160205260408120548015806109ec57506109e861025882610b9d565b4210155b9392505050565b6001600160a01b0381165f90815260016020526040812054808203610a1a57505f92915050565b5f610a258242610bb6565b90506102588110610a3957505f9392505050565b610a4581610258610bb6565b949350505050565b610a55610a8a565b6001600160a01b038116610a7e57604051631e4fbdf760e01b81525f600482015260240161047e565b610a8781610ab6565b50565b5f546001600160a01b031633146109ba5760405163118cdaa760e01b815233600482015260240161047e565b5f80546001600160a01b038381166001600160a01b0319831681178455604051919092169283917f8be0079c531659141344cd1fd0a4f28419497f9722a3daafe3b4186f6b6457e09190a35050565b80356001600160a01b0381168114610b1b575f5ffd5b919050565b5f5f5f60608486031215610b32575f5ffd5b610b3b84610b05565b9250610b4960208501610b05565b9150604084013590509250925092565b5f60208284031215610b69575f5ffd5b6109ec82610b05565b5f60208284031215610b82575f5ffd5b5051919050565b634e487b7160e01b5f52601160045260245ffd5b80820180821115610bb057610bb0610b89565b92915050565b81810381811115610bb057610bb0610b89565b5f60208284031215610bd9575f5ffd5b815180151581146109ec575f5ffdfea264697066735822122017dc10e9d5089b56b1697e9291715e3089cb3c0019f582e486c737788d86633864736f6c634300081e0033",
  "linkReferences": {},
  "deployedLinkReferences": {},
  "immutableReferences": {
    "267": [
      {
        "length": 32,
        "start": 396
      },
      {
        "length": 32,
        "start": 670
      },
      {
        "length": 32,
        "start": 1184
      },
      {
        "length": 32,
        "start": 1799
      }
    ],
    "270": [
      {
        "length": 32,
        "start": 435
      },
      {
        "length": 32,
        "start": 796
      },
      {
        "length": 32,
        "start": 1379
      },
      {
        "length": 32,
        "start": 1936
      }
    ],
    "273": [
      {
        "length": 32,
        "start": 333
      },
      {
        "length": 32,
        "start": 930
      },
      {
        "length": 32,
        "start": 1574
      },
      {
        "length": 32,
        "start": 2081
      }
    ]
  },
  "inputSourceName": "project/contracts/local/Faucet.sol",
  "buildInfoId": "solc-0_8_30-be1fdf13180c14421c746047e65de90ff2485999"
}