{
  "_format": "hh3-artifact-1",
  "contractName": "Treasury",
  "sourceName": "contracts/Treasury.sol",
  "abi": [
    {
      "inputs": [
        {
          "internalType": "address",
          "name": "initialOwner",
          "type": "address"
        },
        {
          "internalType": "address",
          "name": "_core",
          "type": "address"
        },
        {
          "internalType": "address",
          "name": "routerAddr",
          "type": "address"
        }
      ],
      "stateMutability": "nonpayable",
      "type": "constructor"
    },
    {
      "inputs": [
        {
          "internalType": "address",
          "name": "owner",
          "type": "address"
        }
      ],
      "name": "OwnableInvalidOwner",
      "type": "error"
    },
    {
      "inputs": [
        {
          "internalType": "address",
          "name": "account",
          "type": "address"
        }
      ],
      "name": "OwnableUnauthorizedAccount",
      "type": "error"
    },
    {
      "inputs": [],
      "name": "ReentrancyGuardReentrantCall",
      "type": "error"
    },
    {
      "inputs": [
        {
          "internalType": "address",
          "name": "token",
          "type": "address"
        }
      ],
      "name": "SafeERC20FailedOperation",
      "type": "error"
    },
    {
      "anonymous": false,
      "inputs": [
        {
          "indexed": false,
          "internalType": "uint256",
          "name": "btdAmount",
          "type": "uint256"
        },
        {
          "indexed": false,
          "internalType": "uint256",
          "name": "brsReceived",
          "type": "uint256"
        }
      ],
      "name": "BRSBuyback",
      "type": "event"
    },
    {
      "anonymous": false,
      "inputs": [
        {
          "indexed": true,
          "internalType": "address",
          "name": "to",
          "type": "address"
        },
        {
          "indexed": false,
          "internalType": "uint256",
          "name": "amount",
          "type": "uint256"
        }
      ],
      "name": "BRSCompensated",
      "type": "event"
    },
    {
      "anonymous": false,
      "inputs": [
        {
          "indexed": false,
          "internalType": "uint256",
          "name": "minBuybackAmount",
          "type": "uint256"
        },
        {
          "indexed": false,
          "internalType": "uint256",
          "name": "maxBuybackAmount",
          "type": "uint256"
        },
        {
          "indexed": false,
          "internalType": "uint256",
          "name": "buybackCooldown",
          "type": "uint256"
        },
        {
          "indexed": false,
          "internalType": "uint256",
          "name": "buybackProbability",
          "type": "uint256"
        },
        {
          "indexed": false,
          "internalType": "uint256",
          "name": "maxSlippageBps",
          "type": "uint256"
        }
      ],
      "name": "BuybackParamsUpdated",
      "type": "event"
    },
    {
      "anonymous": false,
      "inputs": [
        {
          "indexed": false,
          "internalType": "uint256",
          "name": "minEthReserve",
          "type": "uint256"
        },
        {
          "indexed": false,
          "internalType": "uint256",
          "name": "ethTopupAmount",
          "type": "uint256"
        }
      ],
      "name": "EthReserveParamsUpdated",
      "type": "event"
    },
    {
      "anonymous": false,
      "inputs": [
        {
          "indexed": false,
          "internalType": "uint256",
          "name": "btdSpent",
          "type": "uint256"
        },
        {
          "indexed": false,
          "internalType": "uint256",
          "name": "ethReceived",
          "type": "uint256"
        }
      ],
      "name": "EthReserveToppedUp",
      "type": "event"
    },
    {
      "anonymous": false,
      "inputs": [
        {
          "indexed": true,
          "internalType": "address",
          "name": "triggeredBy",
          "type": "address"
        },
        {
          "indexed": false,
          "internalType": "uint256",
          "name": "btdSpent",
          "type": "uint256"
        },
        {
          "indexed": false,
          "internalType": "uint256",
          "name": "brsReceived",
          "type": "uint256"
        },
        {
          "indexed": false,
          "internalType": "uint256",
          "name": "gasCompensation",
          "type": "uint256"
        }
      ],
      "name": "LazyBuybackExecuted",
      "type": "event"
    },
    {
      "anonymous": false,
      "inputs": [
        {
          "indexed": true,
          "internalType": "address",
          "name": "previousOwner",
          "type": "address"
        },
        {
          "indexed": true,
          "internalType": "address",
          "name": "newOwner",
          "type": "address"
        }
      ],
      "name": "OwnershipTransferred",
      "type": "event"
    },
    {
      "anonymous": false,
      "inputs": [
        {
          "indexed": true,
          "internalType": "address",
          "name": "oldRouter",
          "type": "address"
        },
        {
          "indexed": true,
          "internalType": "address",
          "name": "newRouter",
          "type": "address"
        }
      ],
      "name": "RouterUpdated",
      "type": "event"
    },
    {
      "anonymous": false,
      "inputs": [
        {
          "indexed": true,
          "internalType": "address",
          "name": "from",
          "type": "address"
        },
        {
          "indexed": false,
          "internalType": "uint256",
          "name": "amount",
          "type": "uint256"
        }
      ],
      "name": "WBTCDeposited",
      "type": "event"
    },
    {
      "anonymous": false,
      "inputs": [
        {
          "indexed": true,
          "internalType": "address",
          "name": "to",
          "type": "address"
        },
        {
          "indexed": false,
          "internalType": "uint256",
          "name": "amount",
          "type": "uint256"
        }
      ],
      "name": "WBTCWithdrawn",
      "type": "event"
    },
    {
      "inputs": [
        {
          "internalType": "uint256",
          "name": "btdAmount",
          "type": "uint256"
        },
        {
          "internalType": "uint256",
          "name": "minBRSOut",
          "type": "uint256"
        }
      ],
      "name": "buybackBRS",
      "outputs": [],
      "stateMutability": "nonpayable",
      "type": "function"
    },
    {
      "inputs": [],
      "name": "buybackCooldown",
      "outputs": [
        {
          "internalType": "uint256",
          "name": "",
          "type": "uint256"
        }
      ],
      "stateMutability": "view",
      "type": "function"
    },
    {
      "inputs": [],
      "name": "buybackProbability",
      "outputs": [
        {
          "internalType": "uint256",
          "name": "",
          "type": "uint256"
        }
      ],
      "stateMutability": "view",
      "type": "function"
    },
    {
      "inputs": [
        {
          "internalType": "address",
          "name": "to",
          "type": "address"
        },
        {
          "internalType": "uint256",
          "name": "amt",
          "type": "uint256"
        }
      ],
      "name": "compensate",
      "outputs": [],
      "stateMutability": "nonpayable",
      "type": "function"
    },
    {
      "inputs": [],
      "name": "configCore",
      "outputs": [
        {
          "internalType": "address",
          "name": "",
          "type": "address"
        }
      ],
      "stateMutability": "view",
      "type": "function"
    },
    {
      "inputs": [],
      "name": "core",
      "outputs": [
        {
          "internalType": "contract ConfigCore",
          "name": "",
          "type": "address"
        }
      ],
      "stateMutability": "view",
      "type": "function"
    },
    {
      "inputs": [
        {
          "internalType": "uint256",
          "name": "amt",
          "type": "uint256"
        }
      ],
      "name": "depositWBTC",
      "outputs": [],
      "stateMutability": "nonpayable",
      "type": "function"
    },
    {
      "inputs": [],
      "name": "ethTopupAmount",
      "outputs": [
        {
          "internalType": "uint256",
          "name": "",
          "type": "uint256"
        }
      ],
      "stateMutability": "view",
      "type": "function"
    },
    {
      "inputs": [],
      "name": "getBalances",
      "outputs": [
        {
          "internalType": "uint256",
          "name": "wbtcBalance",
          "type": "uint256"
        },
        {
          "internalType": "uint256",
          "name": "brsBalance",
          "type": "uint256"
        },
        {
          "internalType": "uint256",
          "name": "btdBalance",
          "type": "uint256"
        }
      ],
      "stateMutability": "view",
      "type": "function"
    },
    {
      "inputs": [],
      "name": "lastBuybackTime",
      "outputs": [
        {
          "internalType": "uint256",
          "name": "",
          "type": "uint256"
        }
      ],
      "stateMutability": "view",
      "type": "function"
    },
    {
      "inputs": [],
      "name": "maxBuybackAmount",
      "outputs": [
        {
          "internalType": "uint256",
          "name": "",
          "type": "uint256"
        }
      ],
      "stateMutability": "view",
      "type": "function"
    },
    {
      "inputs": [],
      "name": "maxSlippageBps",
      "outputs": [
        {
          "internalType": "uint256",
          "name": "",
          "type": "uint256"
        }
      ],
      "stateMutability": "view",
      "type": "function"
    },
    {
      "inputs": [],
      "name": "minBuybackAmount",
      "outputs": [
        {
          "internalType": "uint256",
          "name": "",
          "type": "uint256"
        }
      ],
      "stateMutability": "view",
      "type": "function"
    },
    {
      "inputs": [],
      "name": "minEthReserve",
      "outputs": [
        {
          "internalType": "uint256",
          "name": "",
          "type": "uint256"
        }
      ],
      "stateMutability": "view",
      "type": "function"
    },
    {
      "inputs": [],
      "name": "owner",
      "outputs": [
        {
          "internalType": "address",
          "name": "",
          "type": "address"
        }
      ],
      "stateMutability": "view",
      "type": "function"
    },
    {
      "inputs": [],
      "name": "renounceOwnership",
      "outputs": [],
      "stateMutability": "nonpayable",
      "type": "function"
    },
    {
      "inputs": [],
      "name": "router",
      "outputs": [
        {
          "internalType": "address",
          "name": "",
          "type": "address"
        }
      ],
      "stateMutability": "view",
      "type": "function"
    },
    {
      "inputs": [
        {
          "internalType": "uint256",
          "name": "_minBuybackAmount",
          "type": "uint256"
        },
        {
          "internalType": "uint256",
          "name": "_maxBuybackAmount",
          "type": "uint256"
        },
        {
          "internalType": "uint256",
          "name": "_buybackCooldown",
          "type": "uint256"
        },
        {
          "internalType": "uint256",
          "name": "_buybackProbability",
          "type": "uint256"
        },
        {
          "internalType": "uint256",
          "name": "_maxSlippageBps",
          "type": "uint256"
        }
      ],
      "name": "setBuybackParams",
      "outputs": [],
      "stateMutability": "nonpayable",
      "type": "function"
    },
    {
      "inputs": [
        {
          "internalType": "uint256",
          "name": "_minEthReserve",
          "type": "uint256"
        },
        {
          "internalType": "uint256",
          "name": "_ethTopupAmount",
          "type": "uint256"
        }
      ],
      "name": "setEthReserveParams",
      "outputs": [],
      "stateMutability": "nonpayable",
      "type": "function"
    },
    {
      "inputs": [
        {
          "internalType": "address",
          "name": "newRouter",
          "type": "address"
        }
      ],
      "name": "setRouter",
      "outputs": [],
      "stateMutability": "nonpayable",
      "type": "function"
    },
    {
      "inputs": [
        {
          "internalType": "address",
          "name": "newOwner",
          "type": "address"
        }
      ],
      "name": "transferOwnership",
      "outputs": [],
      "stateMutability": "nonpayable",
      "type": "function"
    },
    {
      "inputs": [],
      "name": "tryLazyBuyback",
      "outputs": [
        {
          "internalType": "bool",
          "name": "executed",
          "type": "bool"
        }
      ],
      "stateMutability": "nonpayable",
      "type": "function"
    },
    {
      "inputs": [
        {
          "internalType": "uint256",
          "name": "amount",
          "type": "uint256"
        },
        {
          "internalType": "address payable",
          "name": "to",
          "type": "address"
        }
      ],
      "name": "withdrawEth",
      "outputs": [],
      "stateMutability": "nonpayable",
      "type": "function"
    },
    {
      "inputs": [
        {
          "internalType": "uint256",
          "name": "amt",
          "type": "uint256"
        }
      ],
      "name": "withdrawWBTC",
      "outputs": [],
      "stateMutability": "nonpayable",
      "type": "function"
    },
    {
      "stateMutability": "payable",
      "type": "receive"
    }
  ],
  "bytecode": "0x60a060405269021e19e0c9bab2400000600355690a968163f0a57b40000060045562015180600555600a60065560c86007556706f05b59d3b200006008556706f05b59d3b20000600955348015610054575f5ffd5b50604051612c95380380612c9583398101604081905261007391610245565b826001600160a01b0381166100a257604051631e4fbdf760e01b81525f60048201526024015b60405180910390fd5b6100ab816101db565b50600180556001600160a01b0383166101065760405162461bcd60e51b815260206004820152601760248201527f54726561737572793a20696e76616c6964206f776e65720000000000000000006044820152606401610099565b6001600160a01b03821661015c5760405162461bcd60e51b815260206004820152601660248201527f54726561737572793a20696e76616c696420636f7265000000000000000000006044820152606401610099565b6001600160a01b0381166101b25760405162461bcd60e51b815260206004820152601860248201527f54726561737572793a20696e76616c696420726f7574657200000000000000006044820152606401610099565b6001600160a01b03918216608052600280546001600160a01b0319169190921617905550610285565b5f80546001600160a01b038381166001600160a01b0319831681178455604051919092169283917f8be0079c531659141344cd1fd0a4f28419497f9722a3daafe3b4186f6b6457e09190a35050565b80516001600160a01b0381168114610240575f5ffd5b919050565b5f5f5f60608486031215610257575f5ffd5b6102608461022a565b925061026e6020850161022a565b915061027c6040850161022a565b90509250925092565b60805161299d6102f85f395f8181610195015281816103e20152818161087001528181610ad801528181610c570152818161150d015281816115bf01528181611aa901528181611b2f01528181611b8c01528181611c1401528181611d7d01528181611e2f0152612189015261299d5ff3fe608060405260043610610148575f3560e01c806397911c46116100b3578063c4aa73951161006d578063c4aa739514610388578063d8c058971461039d578063f19000aa146103bc578063f2f4eb26146103d1578063f2fde38b14610404578063f887ea4014610423575f5ffd5b806397911c46146102e2578063a158657c14610301578063a45effcb14610320578063a6b56bee14610335578063b6b4a46d1461034a578063c0d7865514610369575f5ffd5b8063715018a611610104578063715018a61461024a578063737ec20f1461025e57806389c02ee51461027d5780638a1bd7c0146102925780638da5cb5b146102b157806393f4a535146102cd575f5ffd5b8062113e081461015357806285ffc81461018757806316820a37146101cd57806316cbb34f146101f157806320ce0c8c14610214578063505cfbd114610235575f5ffd5b3661014f57005b5f5ffd5b34801561015e575f5ffd5b50610167610442565b604080519384526020840192909252908201526060015b60405180910390f35b348015610192575f5ffd5b507f00000000000000000000000000000000000000000000000000000000000000005b6040516001600160a01b03909116815260200161017e565b3480156101d8575f5ffd5b506101e16105a0565b604051901515815260200161017e565b3480156101fc575f5ffd5b50610206600a5481565b60405190815260200161017e565b34801561021f575f5ffd5b5061023361022e3660046125da565b61086e565b005b348015610240575f5ffd5b5061020660065481565b348015610255575f5ffd5b50610233610ac3565b348015610269575f5ffd5b506102336102783660046125da565b610ad6565b348015610288575f5ffd5b5061020660055481565b34801561029d575f5ffd5b506102336102ac366004612605565b610c55565b3480156102bc575f5ffd5b505f546001600160a01b03166101b5565b3480156102d8575f5ffd5b5061020660085481565b3480156102ed575f5ffd5b506102336102fc36600461262f565b610eca565b34801561030c575f5ffd5b5061023361031b366004612666565b61115e565b34801561032b575f5ffd5b5061020660045481565b348015610340575f5ffd5b5061020660095481565b348015610355575f5ffd5b50610233610364366004612694565b61128d565b348015610374575f5ffd5b506102336103833660046126b4565b61182c565b348015610393575f5ffd5b5061020660075481565b3480156103a8575f5ffd5b506102336103b7366004612694565b6118db565b3480156103c7575f5ffd5b5061020660035481565b3480156103dc575f5ffd5b506101b57f000000000000000000000000000000000000000000000000000000000000000081565b34801561040f575f5ffd5b5061023361041e3660046126b4565b611a6c565b34801561042e575f5ffd5b506002546101b5906001600160a01b031681565b5f5f5f61044d611aa6565b6040516370a0823160e01b81523060048201526001600160a01b0391909116906370a0823190602401602060405180830381865afa158015610491573d5f5f3e3d5ffd5b505050506040513d601f19601f820116820180604052508101906104b591906126d6565b92506104bf611b2c565b6040516370a0823160e01b81523060048201526001600160a01b0391909116906370a0823190602401602060405180830381865afa158015610503573d5f5f3e3d5ffd5b505050506040513d601f19601f8201168201806040525081019061052791906126d6565b9150610531611b89565b6040516370a0823160e01b81523060048201526001600160a01b0391909116906370a0823190602401602060405180830381865afa158015610575573d5f5f3e3d5ffd5b505050506040513d601f19601f8201168201806040525081019061059991906126d6565b9050909192565b5f6105a9611be6565b5f5a9050600554600a546105bd9190612701565b4210156105cd575f915050610862565b5f6105d6611b89565b6040516370a0823160e01b81523060048201526001600160a01b0391909116906370a0823190602401602060405180830381865afa15801561061a573d5f5f3e3d5ffd5b505050506040513d601f19601f8201168201806040525081019061063e91906126d6565b9050600354811015610654575f92505050610862565b5f6064610662600143612714565b60408051914060208301526bffffffffffffffffffffffff193360601b169082015242605482015260748101849052609401604051602081830303815290604052805190602001205f1c6106b6919061273b565b905060065481106106cc575f9350505050610862565b5f60045483116106dc57826106e0565b6004545b90505f6106ec82611c10565b90506106f661209e565b5f5a6107029087612714565b905061071061520882612701565b905061071e61271082612701565b90505f61072b3a8361274e565b9050804710610813576040515f90339083908381818185875af1925050503d805f8114610773576040519150601f19603f3d011682016040523d82523d5f602084013e610778565b606091505b5050905080156107ca57604080518681526020810186905290810183905233907f17feec83e56fba4367aadd2cdda4bf204128c1b7f24ca9e65a5d28b603d9cad09060600160405180910390a261080d565b60408051868152602081018690525f81830152905133917f17feec83e56fba4367aadd2cdda4bf204128c1b7f24ca9e65a5d28b603d9cad0919081900360600190a25b50610856565b60408051858152602081018590525f81830152905133917f17feec83e56fba4367aadd2cdda4bf204128c1b7f24ca9e65a5d28b603d9cad0919081900360600190a25b60019750505050505050505b61086b60018055565b90565b7f00000000000000000000000000000000000000000000000000000000000000006001600160a01b031663fe6d81246040518163ffffffff1660e01b8152600401602060405180830381865afa1580156108ca573d5f5f3e3d5ffd5b505050506040513d601f19601f820116820180604052508101906108ee9190612765565b6001600160a01b0316336001600160a01b0316146109275760405162461bcd60e51b815260040161091e90612780565b60405180910390fd5b61092f611be6565b60018110156109505760405162461bcd60e51b815260040161091e906127af565b64e8d4a510008111156109a55760405162461bcd60e51b815260206004820152601a60248201527f54726561737572793a2065786365656473206d61782057425443000000000000604482015260640161091e565b806109ae611aa6565b6040516370a0823160e01b81523060048201526001600160a01b0391909116906370a0823190602401602060405180830381865afa1580156109f2573d5f5f3e3d5ffd5b505050506040513d601f19601f82011682018060405250810190610a1691906126d6565b1015610a645760405162461bcd60e51b815260206004820152601b60248201527f54726561737572793a20696e73756666696369656e7420574254430000000000604482015260640161091e565b610a813382610a71611aa6565b6001600160a01b03169190612385565b60405181815233907f932acef96c5a9b9fc3e9f7f370b2a990427948796975a8f8551ec461e0024469906020015b60405180910390a2610ac060018055565b50565b610acb6123e4565b610ad45f612410565b565b7f00000000000000000000000000000000000000000000000000000000000000006001600160a01b031663fe6d81246040518163ffffffff1660e01b8152600401602060405180830381865afa158015610b32573d5f5f3e3d5ffd5b505050506040513d601f19601f82011682018060405250810190610b569190612765565b6001600160a01b0316336001600160a01b031614610b865760405162461bcd60e51b815260040161091e90612780565b610b8e611be6565b6001811015610baf5760405162461bcd60e51b815260040161091e906127af565b64e8d4a51000811115610c045760405162461bcd60e51b815260206004820152601a60248201527f54726561737572793a2065786365656473206d61782057425443000000000000604482015260640161091e565b610c23333083610c12611aa6565b6001600160a01b031692919061245f565b60405181815233907f70643c3965cf5651f0e637bfa8f51f484f21af206691d8ac833d3ab2439f62d790602001610aaf565b7f00000000000000000000000000000000000000000000000000000000000000006001600160a01b031663fe6d81246040518163ffffffff1660e01b8152600401602060405180830381865afa158015610cb1573d5f5f3e3d5ffd5b505050506040513d601f19601f82011682018060405250810190610cd59190612765565b6001600160a01b0316336001600160a01b031614610d055760405162461bcd60e51b815260040161091e90612780565b610d0d611be6565b6001600160a01b038216610d5c5760405162461bcd60e51b815260206004820152601660248201527554726561737572793a207a65726f206164647265737360501b604482015260640161091e565b66038d7ea4c68000811015610d835760405162461bcd60e51b815260040161091e906127af565b6b033b2e3c9fd0803ce8000000811115610ddf5760405162461bcd60e51b815260206004820152601960248201527f54726561737572793a2065786365656473206d61782042525300000000000000604482015260640161091e565b5f610de8611b2c565b6040516370a0823160e01b81523060048201526001600160a01b0391909116906370a0823190602401602060405180830381865afa158015610e2c573d5f5f3e3d5ffd5b505050506040513d601f19601f82011682018060405250810190610e5091906126d6565b90505f818311610e605782610e62565b815b90508015610ebb57610e778482610a71611b2c565b836001600160a01b03167fbe65a9a39e5339c6267dd0bba7ad1ed6463705b569a8559a2b055ea09fc1add782604051610eb291815260200190565b60405180910390a25b5050610ec660018055565b5050565b610ed26123e4565b683635c9adc5dea00000851015610f235760405162461bcd60e51b8152602060048201526015602482015274135a5b88189d5e589858dac81d1bdbc81cdb585b1b605a1b604482015260640161091e565b84841015610f655760405162461bcd60e51b815260206004820152600f60248201526e26b0bc1036bab9ba101f1e9036b4b760891b604482015260640161091e565b69d3c21bcecceda1000000841115610fb75760405162461bcd60e51b81526020600482015260156024820152744d6178206275796261636b20746f6f206c6172676560581b604482015260640161091e565b610e10831015610ffe5760405162461bcd60e51b815260206004820152601260248201527110dbdbdb191bdddb881d1bdbc81cda1bdc9d60721b604482015260640161091e565b62093a808311156110455760405162461bcd60e51b8152602060048201526011602482015270436f6f6c646f776e20746f6f206c6f6e6760781b604482015260640161091e565b5f82118015611055575060648211155b6110975760405162461bcd60e51b8152602060048201526013602482015272496e76616c69642070726f626162696c69747960681b604482015260640161091e565b603281101580156110aa57506103e88111155b6110ee5760405162461bcd60e51b8152602060048201526015602482015274536c697070616765206f7574206f662072616e676560581b604482015260640161091e565b60038590556004849055600583905560068290556007819055604080518681526020810186905290810184905260608101839052608081018290527f0671e0ae4ace421169cac67a1a68a2895b26de2ffa15e7e3b3c1aa08287633459060a0015b60405180910390a15050505050565b6111666123e4565b6001600160a01b0381166111b05760405162461bcd60e51b8152602060048201526011602482015270125b9d985b1a59081c9958da5c1a595b9d607a1b604482015260640161091e565b814710156111f35760405162461bcd60e51b815260206004820152601060248201526f092dce6eaccccd2c6d2cadce8408aa8960831b604482015260640161091e565b5f816001600160a01b0316836040515f6040518083038185875af1925050503d805f811461123c576040519150601f19603f3d011682016040523d82523d5f602084013e611241565b606091505b50509050806112885760405162461bcd60e51b8152602060048201526013602482015272115512081d1c985b9cd9995c8819985a5b1959606a1b604482015260640161091e565b505050565b6112956123e4565b61129d611be6565b66038d7ea4c680008210156112f45760405162461bcd60e51b815260206004820152601e60248201527f54726561737572793a2042544420616d6f756e7420746f6f20736d616c6c0000604482015260640161091e565b6b033b2e3c9fd0803ce80000008211156113505760405162461bcd60e51b815260206004820152601e60248201527f54726561737572793a2042544420616d6f756e7420746f6f206c617267650000604482015260640161091e565b66038d7ea4c680008110156113a75760405162461bcd60e51b815260206004820152601d60248201527f54726561737572793a206d696e4252534f757420746f6f20736d616c6c000000604482015260640161091e565b6b033b2e3c9fd0803ce80000008111156114035760405162461bcd60e51b815260206004820152601d60248201527f54726561737572793a206d696e4252534f757420746f6f206c61726765000000604482015260640161091e565b8161140c611b89565b6040516370a0823160e01b81523060048201526001600160a01b0391909116906370a0823190602401602060405180830381865afa158015611450573d5f5f3e3d5ffd5b505050506040513d601f19601f8201168201806040525081019061147491906126d6565b10156114c25760405162461bcd60e51b815260206004820152601a60248201527f54726561737572793a20696e73756666696369656e7420425444000000000000604482015260640161091e565b6002546114eb906001600160a01b0316836114db611b89565b6001600160a01b03169190612498565b6040805160028082526060820183525f926020830190803683370190505090507f00000000000000000000000000000000000000000000000000000000000000006001600160a01b031663457404776040518163ffffffff1660e01b8152600401602060405180830381865afa158015611567573d5f5f3e3d5ffd5b505050506040513d601f19601f8201168201806040525081019061158b9190612765565b815f8151811061159d5761159d6127fa565b60200260200101906001600160a01b031690816001600160a01b0316815250507f00000000000000000000000000000000000000000000000000000000000000006001600160a01b03166316a3d9fd6040518163ffffffff1660e01b8152600401602060405180830381865afa158015611619573d5f5f3e3d5ffd5b505050506040513d601f19601f8201168201806040525081019061163d9190612765565b81600181518110611650576116506127fa565b60200260200101906001600160a01b031690816001600160a01b0316815250505f611679611b2c565b6040516370a0823160e01b81523060048201526001600160a01b0391909116906370a0823190602401602060405180830381865afa1580156116bd573d5f5f3e3d5ffd5b505050506040513d601f19601f820116820180604052508101906116e191906126d6565b6002549091506001600160a01b03166338ed17398585853061170542610258612701565b6040518663ffffffff1660e01b8152600401611725959493929190612851565b5f604051808303815f875af1158015611740573d5f5f3e3d5ffd5b505050506040513d5f823e601f3d908101601f19168201604052611767919081019061288c565b505f81611772611b2c565b6040516370a0823160e01b81523060048201526001600160a01b0391909116906370a0823190602401602060405180830381865afa1580156117b6573d5f5f3e3d5ffd5b505050506040513d601f19601f820116820180604052508101906117da91906126d6565b6117e49190612714565b60408051878152602081018390529192507f46c88d5127a845c1c5bf6671a03328e4b47802a42fe851fc14ef4ea464d3214c910160405180910390a1505050610ec660018055565b6118346123e4565b6001600160a01b03811661188a5760405162461bcd60e51b815260206004820152601860248201527f54726561737572793a20696e76616c696420726f757465720000000000000000604482015260640161091e565b600280546001600160a01b038381166001600160a01b0319831681179093556040519116919082907f02dc5c233404867c793b749c6d644beb2277536d18a7e7974d3f238e4c6f1684905f90a35050565b6118e36123e4565b67016345785d8a00008210156119335760405162461bcd60e51b8152602060048201526015602482015274135a5b881c995cd95c9d99481d1bdbc81cdb585b1b605a1b604482015260640161091e565b678ac7230489e800008211156119835760405162461bcd60e51b81526020600482015260156024820152744d696e207265736572766520746f6f206c6172676560581b604482015260640161091e565b67016345785d8a00008110156119d45760405162461bcd60e51b8152602060048201526016602482015275151bdc1d5c08185b5bdd5b9d081d1bdbc81cdb585b1b60521b604482015260640161091e565b674563918244f40000811115611a255760405162461bcd60e51b8152602060048201526016602482015275546f70757020616d6f756e7420746f6f206c6172676560501b604482015260640161091e565b6008829055600981905560408051838152602081018390527f8a8f5d20b110bdc198dc03e89d82a04469eaba0fd25352bbc6f6b63ee78d9dc1910160405180910390a15050565b611a746123e4565b6001600160a01b038116611a9d57604051631e4fbdf760e01b81525f600482015260240161091e565b610ac081612410565b5f7f00000000000000000000000000000000000000000000000000000000000000006001600160a01b0316634dede3de6040518163ffffffff1660e01b8152600401602060405180830381865afa158015611b03573d5f5f3e3d5ffd5b505050506040513d601f19601f82011682018060405250810190611b279190612765565b905090565b5f7f00000000000000000000000000000000000000000000000000000000000000006001600160a01b03166316a3d9fd6040518163ffffffff1660e01b8152600401602060405180830381865afa158015611b03573d5f5f3e3d5ffd5b5f7f00000000000000000000000000000000000000000000000000000000000000006001600160a01b031663457404776040518163ffffffff1660e01b8152600401602060405180830381865afa158015611b03573d5f5f3e3d5ffd5b600260015403611c0957604051633ee5aeb560e01b815260040160405180910390fd5b6002600155565b5f5f7f00000000000000000000000000000000000000000000000000000000000000006001600160a01b0316630a19399a6040518163ffffffff1660e01b8152600401602060405180830381865afa158015611c6e573d5f5f3e3d5ffd5b505050506040513d601f19601f82011682018060405250810190611c929190612765565b90505f816001600160a01b03166322f9f2276040518163ffffffff1660e01b8152600401602060405180830381865afa158015611cd1573d5f5f3e3d5ffd5b505050506040513d601f19601f82011682018060405250810190611cf591906126d6565b90505f81611d0b670de0b6b3a76400008761274e565b611d159190612954565b90505f612710600754612710611d2b9190612714565b611d35908461274e565b611d3f9190612954565b600254909150611d5b906001600160a01b0316876114db611b89565b6040805160028082526060820183525f926020830190803683370190505090507f00000000000000000000000000000000000000000000000000000000000000006001600160a01b031663457404776040518163ffffffff1660e01b8152600401602060405180830381865afa158015611dd7573d5f5f3e3d5ffd5b505050506040513d601f19601f82011682018060405250810190611dfb9190612765565b815f81518110611e0d57611e0d6127fa565b60200260200101906001600160a01b031690816001600160a01b0316815250507f00000000000000000000000000000000000000000000000000000000000000006001600160a01b03166316a3d9fd6040518163ffffffff1660e01b8152600401602060405180830381865afa158015611e89573d5f5f3e3d5ffd5b505050506040513d601f19601f82011682018060405250810190611ead9190612765565b81600181518110611ec057611ec06127fa565b60200260200101906001600160a01b031690816001600160a01b0316815250505f611ee9611b2c565b6040516370a0823160e01b81523060048201526001600160a01b0391909116906370a0823190602401602060405180830381865afa158015611f2d573d5f5f3e3d5ffd5b505050506040513d601f19601f82011682018060405250810190611f5191906126d6565b6002549091506001600160a01b03166338ed173989858530611f7542610258612701565b6040518663ffffffff1660e01b8152600401611f95959493929190612851565b5f604051808303815f875af1158015611fb0573d5f5f3e3d5ffd5b505050506040513d5f823e601f3d908101601f19168201604052611fd7919081019061288c565b5080611fe1611b2c565b6040516370a0823160e01b81523060048201526001600160a01b0391909116906370a0823190602401602060405180830381865afa158015612025573d5f5f3e3d5ffd5b505050506040513d601f19601f8201168201806040525081019061204991906126d6565b6120539190612714565b42600a55604080518a8152602081018390529198507f46c88d5127a845c1c5bf6671a03328e4b47802a42fe851fc14ef4ea464d3214c910160405180910390a1505050505050919050565b60085447106120a957565b5f6120b2611b89565b6040516370a0823160e01b81523060048201526001600160a01b0391909116906370a0823190602401602060405180830381865afa1580156120f6573d5f5f3e3d5ffd5b505050506040513d601f19601f8201168201806040525081019061211a91906126d6565b905068056bc75e2d631000008110156121305750565b5f600954610bb8612141919061274e565b90508181111561214e5750805b600254612167906001600160a01b0316826114db611b89565b6040805160028082526060820183525f926020830190803683370190505090507f00000000000000000000000000000000000000000000000000000000000000006001600160a01b031663457404776040518163ffffffff1660e01b8152600401602060405180830381865afa1580156121e3573d5f5f3e3d5ffd5b505050506040513d601f19601f820116820180604052508101906122079190612765565b815f81518110612219576122196127fa565b6001600160a01b03928316602091820292909201810191909152600254604080516315ab88c960e31b81529051919093169263ad5c46489260048083019391928290030181865afa158015612270573d5f5f3e3d5ffd5b505050506040513d601f19601f820116820180604052508101906122949190612765565b816001815181106122a7576122a76127fa565b6001600160a01b0392831660209182029290920101526002544791166338ed1739845f85306122d842610258612701565b6040518663ffffffff1660e01b81526004016122f8959493929190612851565b5f604051808303815f875af192505050801561233557506040513d5f823e601f3d908101601f19168201604052612332919081019061288c565b60015b1561237f57505f6123468247612714565b60408051868152602081018390529192507f235b21ef8ec5c3f30a45535e329f404bd07a348975eb112ebbe1fbbd869f4153910161114f565b50505050565b6040516001600160a01b0383811660248301526044820183905261128891859182169063a9059cbb906064015b604051602081830303815290604052915060e01b6020820180516001600160e01b038381831617835250505050612523565b5f546001600160a01b03163314610ad45760405163118cdaa760e01b815233600482015260240161091e565b5f80546001600160a01b038381166001600160a01b0319831681178455604051919092169283917f8be0079c531659141344cd1fd0a4f28419497f9722a3daafe3b4186f6b6457e09190a35050565b6040516001600160a01b03848116602483015283811660448301526064820183905261237f9186918216906323b872dd906084016123b2565b604080516001600160a01b038416602482015260448082018490528251808303909101815260649091019091526020810180516001600160e01b031663095ea7b360e01b1790526124e9848261258f565b61237f576040516001600160a01b0384811660248301525f604483015261251d91869182169063095ea7b3906064016123b2565b61237f84825b5f5f60205f8451602086015f885af180612542576040513d5f823e3d81fd5b50505f513d91508115612559578060011415612566565b6001600160a01b0384163b155b1561237f57604051635274afe760e01b81526001600160a01b038516600482015260240161091e565b5f5f5f5f60205f8651602088015f8a5af192503d91505f5190508280156125ce575081156125c057806001146125ce565b5f866001600160a01b03163b115b93505050505b92915050565b5f602082840312156125ea575f5ffd5b5035919050565b6001600160a01b0381168114610ac0575f5ffd5b5f5f60408385031215612616575f5ffd5b8235612621816125f1565b946020939093013593505050565b5f5f5f5f5f60a08688031215612643575f5ffd5b505083359560208501359550604085013594606081013594506080013592509050565b5f5f60408385031215612677575f5ffd5b823591506020830135612689816125f1565b809150509250929050565b5f5f604083850312156126a5575f5ffd5b50508035926020909101359150565b5f602082840312156126c4575f5ffd5b81356126cf816125f1565b9392505050565b5f602082840312156126e6575f5ffd5b5051919050565b634e487b7160e01b5f52601160045260245ffd5b808201808211156125d4576125d46126ed565b818103818111156125d4576125d46126ed565b634e487b7160e01b5f52601260045260245ffd5b5f8261274957612749612727565b500690565b80820281158282048414176125d4576125d46126ed565b5f60208284031215612775575f5ffd5b81516126cf816125f1565b6020808252601590820152742a3932b0b9bab93c9d1037b7363c9026b4b73a32b960591b604082015260600190565b6020808252601a908201527f54726561737572793a20616d6f756e7420746f6f20736d616c6c000000000000604082015260600190565b634e487b7160e01b5f52604160045260245ffd5b634e487b7160e01b5f52603260045260245ffd5b5f8151808452602084019350602083015f5b828110156128475781516001600160a01b0316865260209586019590910190600101612820565b5093949350505050565b85815284602082015260a060408201525f61286f60a083018661280e565b6001600160a01b0394909416606083015250608001529392505050565b5f6020828403121561289c575f5ffd5b815167ffffffffffffffff8111156128b2575f5ffd5b8201601f810184136128c2575f5ffd5b805167ffffffffffffffff8111156128dc576128dc6127e6565b8060051b604051601f19603f830116810181811067ffffffffffffffff82111715612909576129096127e6565b604052918252602081840181019290810187841115612926575f5ffd5b6020850194505b838510156129495784518082526020958601959093500161292d565b509695505050505050565b5f8261296257612962612727565b50049056fea26469706673582212201210190ca7b2e921dccca56e81715e0f93748d03da8f2b60b0b7bae3dca7719264736f6c634300081e0033",
  "linkReferences": {},
  "deployedLinkReferences": {},
  "immutableReferences": {
    "1506": [
      {
        "length": 32,
        "start": 405
      },
      {
        "length": 32,
        "start": 994
      },
      {
        "length": 32,
        "start": 2160
      },
      {
        "length": 32,
        "start": 2776
      },
      {
        "length": 32,
        "start": 3159
      },
      {
        "length": 32,
        "start": 5389
      },
      {
        "length": 32,
        "start": 5567
      },
      {
        "length": 32,
        "start": 6825
      },
      {
        "length": 32,
        "start": 6959
      },
      {
        "length": 32,
        "start": 7052
      },
      {
        "length": 32,
        "start": 7188
      },
      {
        "length": 32,
        "start": 7549
      },
      {
        "length": 32,
        "start": 7727
      },
      {
        "length": 32,
        "start": 8585
      }
    ]
  },
  "inputSourceName": "project/contracts/Treasury.sol",
  "buildInfoId": "solc-0_8_30-a7d8c55f17572688150bb1834078d8add430b578"
}