{
  "_format": "hh3-artifact-1",
  "contractName": "PriceOracle",
  "sourceName": "contracts/PriceOracle.sol",
  "abi": [
    {
      "inputs": [
        {
          "internalType": "address",
          "name": "initialOwner",
          "type": "address"
        },
        {
          "internalType": "address",
          "name": "_core",
          "type": "address"
        },
        {
          "internalType": "address",
          "name": "_twapOracle",
          "type": "address"
        },
        {
          "internalType": "bytes32",
          "name": "_pythWbtcPriceId",
          "type": "bytes32"
        }
      ],
      "stateMutability": "nonpayable",
      "type": "constructor"
    },
    {
      "inputs": [
        {
          "internalType": "address",
          "name": "owner",
          "type": "address"
        }
      ],
      "name": "OwnableInvalidOwner",
      "type": "error"
    },
    {
      "inputs": [
        {
          "internalType": "address",
          "name": "account",
          "type": "address"
        }
      ],
      "name": "OwnableUnauthorizedAccount",
      "type": "error"
    },
    {
      "anonymous": false,
      "inputs": [
        {
          "indexed": false,
          "internalType": "uint256",
          "name": "oldBps",
          "type": "uint256"
        },
        {
          "indexed": false,
          "internalType": "uint256",
          "name": "newBps",
          "type": "uint256"
        }
      ],
      "name": "MaxDeviationUpdated",
      "type": "event"
    },
    {
      "anonymous": false,
      "inputs": [
        {
          "indexed": true,
          "internalType": "address",
          "name": "previousOwner",
          "type": "address"
        },
        {
          "indexed": true,
          "internalType": "address",
          "name": "newOwner",
          "type": "address"
        }
      ],
      "name": "OwnershipTransferred",
      "type": "event"
    },
    {
      "anonymous": false,
      "inputs": [
        {
          "indexed": true,
          "internalType": "address",
          "name": "token",
          "type": "address"
        },
        {
          "indexed": false,
          "internalType": "uint256",
          "name": "price",
          "type": "uint256"
        },
        {
          "indexed": false,
          "internalType": "uint256",
          "name": "timestamp",
          "type": "uint256"
        }
      ],
      "name": "PriceQueried",
      "type": "event"
    },
    {
      "anonymous": false,
      "inputs": [
        {
          "indexed": false,
          "internalType": "bool",
          "name": "enabled",
          "type": "bool"
        }
      ],
      "name": "TWAPModeChanged",
      "type": "event"
    },
    {
      "anonymous": false,
      "inputs": [
        {
          "indexed": true,
          "internalType": "address",
          "name": "oldOracle",
          "type": "address"
        },
        {
          "indexed": true,
          "internalType": "address",
          "name": "newOracle",
          "type": "address"
        }
      ],
      "name": "TWAPOracleUpdated",
      "type": "event"
    },
    {
      "inputs": [],
      "name": "BRS_TWAP_SPOT_MAX_BPS",
      "outputs": [
        {
          "internalType": "uint256",
          "name": "",
          "type": "uint256"
        }
      ],
      "stateMutability": "view",
      "type": "function"
    },
    {
      "inputs": [],
      "name": "BTB_TWAP_SPOT_MAX_BPS",
      "outputs": [
        {
          "internalType": "uint256",
          "name": "",
          "type": "uint256"
        }
      ],
      "stateMutability": "view",
      "type": "function"
    },
    {
      "inputs": [],
      "name": "BTD_FLOOR_MULTIPLIER_BPS",
      "outputs": [
        {
          "internalType": "uint256",
          "name": "",
          "type": "uint256"
        }
      ],
      "stateMutability": "view",
      "type": "function"
    },
    {
      "inputs": [],
      "name": "BTD_TWAP_SPOT_MAX_BPS",
      "outputs": [
        {
          "internalType": "uint256",
          "name": "",
          "type": "uint256"
        }
      ],
      "stateMutability": "view",
      "type": "function"
    },
    {
      "inputs": [],
      "name": "DEVIATION_UPDATE_COOLDOWN",
      "outputs": [
        {
          "internalType": "uint256",
          "name": "",
          "type": "uint256"
        }
      ],
      "stateMutability": "view",
      "type": "function"
    },
    {
      "inputs": [],
      "name": "GOV_COOLDOWN",
      "outputs": [
        {
          "internalType": "uint256",
          "name": "",
          "type": "uint256"
        }
      ],
      "stateMutability": "view",
      "type": "function"
    },
    {
      "inputs": [],
      "name": "MAX_DEVIATION_CEILING",
      "outputs": [
        {
          "internalType": "uint256",
          "name": "",
          "type": "uint256"
        }
      ],
      "stateMutability": "view",
      "type": "function"
    },
    {
      "inputs": [],
      "name": "MIN_DEVIATION_FLOOR",
      "outputs": [
        {
          "internalType": "uint256",
          "name": "",
          "type": "uint256"
        }
      ],
      "stateMutability": "view",
      "type": "function"
    },
    {
      "inputs": [],
      "name": "PYTH_MAX_CONF_RATIO",
      "outputs": [
        {
          "internalType": "uint64",
          "name": "",
          "type": "uint64"
        }
      ],
      "stateMutability": "view",
      "type": "function"
    },
    {
      "inputs": [],
      "name": "PYTH_MAX_STALENESS",
      "outputs": [
        {
          "internalType": "uint256",
          "name": "",
          "type": "uint256"
        }
      ],
      "stateMutability": "view",
      "type": "function"
    },
    {
      "inputs": [],
      "name": "STABLECOIN_MAX_DEVIATION_BPS",
      "outputs": [
        {
          "internalType": "uint256",
          "name": "",
          "type": "uint256"
        }
      ],
      "stateMutability": "view",
      "type": "function"
    },
    {
      "inputs": [],
      "name": "core",
      "outputs": [
        {
          "internalType": "contract ConfigCore",
          "name": "",
          "type": "address"
        }
      ],
      "stateMutability": "view",
      "type": "function"
    },
    {
      "inputs": [],
      "name": "getBRSPrice",
      "outputs": [
        {
          "internalType": "uint256",
          "name": "",
          "type": "uint256"
        }
      ],
      "stateMutability": "view",
      "type": "function"
    },
    {
      "inputs": [],
      "name": "getBTBPrice",
      "outputs": [
        {
          "internalType": "uint256",
          "name": "",
          "type": "uint256"
        }
      ],
      "stateMutability": "view",
      "type": "function"
    },
    {
      "inputs": [],
      "name": "getBTDPrice",
      "outputs": [
        {
          "internalType": "uint256",
          "name": "",
          "type": "uint256"
        }
      ],
      "stateMutability": "view",
      "type": "function"
    },
    {
      "inputs": [],
      "name": "getChainlinkBTCUSD",
      "outputs": [
        {
          "internalType": "uint256",
          "name": "",
          "type": "uint256"
        }
      ],
      "stateMutability": "view",
      "type": "function"
    },
    {
      "inputs": [],
      "name": "getIUSDPrice",
      "outputs": [
        {
          "internalType": "uint256",
          "name": "",
          "type": "uint256"
        }
      ],
      "stateMutability": "view",
      "type": "function"
    },
    {
      "inputs": [
        {
          "internalType": "address",
          "name": "token",
          "type": "address"
        }
      ],
      "name": "getPrice",
      "outputs": [
        {
          "internalType": "uint256",
          "name": "",
          "type": "uint256"
        }
      ],
      "stateMutability": "view",
      "type": "function"
    },
    {
      "inputs": [
        {
          "internalType": "address",
          "name": "pool",
          "type": "address"
        },
        {
          "internalType": "address",
          "name": "base",
          "type": "address"
        },
        {
          "internalType": "address",
          "name": "quote",
          "type": "address"
        }
      ],
      "name": "getPrice",
      "outputs": [
        {
          "internalType": "uint256",
          "name": "",
          "type": "uint256"
        }
      ],
      "stateMutability": "view",
      "type": "function"
    },
    {
      "inputs": [],
      "name": "getStBTBPrice",
      "outputs": [
        {
          "internalType": "uint256",
          "name": "",
          "type": "uint256"
        }
      ],
      "stateMutability": "view",
      "type": "function"
    },
    {
      "inputs": [],
      "name": "getStBTDPrice",
      "outputs": [
        {
          "internalType": "uint256",
          "name": "",
          "type": "uint256"
        }
      ],
      "stateMutability": "view",
      "type": "function"
    },
    {
      "inputs": [],
      "name": "getTWAPOracle",
      "outputs": [
        {
          "internalType": "address",
          "name": "",
          "type": "address"
        }
      ],
      "stateMutability": "view",
      "type": "function"
    },
    {
      "inputs": [],
      "name": "getUSDCPrice",
      "outputs": [
        {
          "internalType": "uint256",
          "name": "",
          "type": "uint256"
        }
      ],
      "stateMutability": "view",
      "type": "function"
    },
    {
      "inputs": [],
      "name": "getUSDTPrice",
      "outputs": [
        {
          "internalType": "uint256",
          "name": "",
          "type": "uint256"
        }
      ],
      "stateMutability": "view",
      "type": "function"
    },
    {
      "inputs": [],
      "name": "getWBTCPrice",
      "outputs": [
        {
          "internalType": "uint256",
          "name": "",
          "type": "uint256"
        }
      ],
      "stateMutability": "view",
      "type": "function"
    },
    {
      "inputs": [],
      "name": "isTWAPEnabled",
      "outputs": [
        {
          "internalType": "bool",
          "name": "",
          "type": "bool"
        }
      ],
      "stateMutability": "view",
      "type": "function"
    },
    {
      "inputs": [],
      "name": "lastDeviationUpdate",
      "outputs": [
        {
          "internalType": "uint256",
          "name": "",
          "type": "uint256"
        }
      ],
      "stateMutability": "view",
      "type": "function"
    },
    {
      "inputs": [],
      "name": "maxDeviationBps",
      "outputs": [
        {
          "internalType": "uint256",
          "name": "",
          "type": "uint256"
        }
      ],
      "stateMutability": "view",
      "type": "function"
    },
    {
      "inputs": [],
      "name": "owner",
      "outputs": [
        {
          "internalType": "address",
          "name": "",
          "type": "address"
        }
      ],
      "stateMutability": "view",
      "type": "function"
    },
    {
      "inputs": [],
      "name": "pythWbtcPriceId",
      "outputs": [
        {
          "internalType": "bytes32",
          "name": "",
          "type": "bytes32"
        }
      ],
      "stateMutability": "view",
      "type": "function"
    },
    {
      "inputs": [],
      "name": "renounceOwnership",
      "outputs": [],
      "stateMutability": "nonpayable",
      "type": "function"
    },
    {
      "inputs": [
        {
          "internalType": "uint256",
          "name": "newBps",
          "type": "uint256"
        }
      ],
      "name": "setMaxDeviationBps",
      "outputs": [],
      "stateMutability": "nonpayable",
      "type": "function"
    },
    {
      "inputs": [
        {
          "internalType": "address",
          "name": "_twapOracle",
          "type": "address"
        }
      ],
      "name": "setTWAPOracle",
      "outputs": [],
      "stateMutability": "nonpayable",
      "type": "function"
    },
    {
      "inputs": [
        {
          "internalType": "bool",
          "name": "_useTWAP",
          "type": "bool"
        }
      ],
      "name": "setUseTWAP",
      "outputs": [],
      "stateMutability": "nonpayable",
      "type": "function"
    },
    {
      "inputs": [
        {
          "internalType": "address",
          "name": "newOwner",
          "type": "address"
        }
      ],
      "name": "transferOwnership",
      "outputs": [],
      "stateMutability": "nonpayable",
      "type": "function"
    },
    {
      "inputs": [],
      "name": "twapOracle",
      "outputs": [
        {
          "internalType": "contract IUniswapV2TWAPOracle",
          "name": "",
          "type": "address"
        }
      ],
      "stateMutability": "view",
      "type": "function"
    },
    {
      "inputs": [],
      "name": "updateTWAPAll",
      "outputs": [],
      "stateMutability": "nonpayable",
      "type": "function"
    },
    {
      "inputs": [],
      "name": "updateTWAPForBRS",
      "outputs": [],
      "stateMutability": "nonpayable",
      "type": "function"
    },
    {
      "inputs": [],
      "name": "updateTWAPForBTB",
      "outputs": [],
      "stateMutability": "nonpayable",
      "type": "function"
    },
    {
      "inputs": [],
      "name": "updateTWAPForBTD",
      "outputs": [],
      "stateMutability": "nonpayable",
      "type": "function"
    },
    {
      "inputs": [],
      "name": "updateTWAPForWBTC",
      "outputs": [],
      "stateMutability": "nonpayable",
      "type": "function"
    },
    {
      "inputs": [],
      "name": "useTWAP",
      "outputs": [
        {
          "internalType": "bool",
          "name": "",
          "type": "bool"
        }
      ],
      "stateMutability": "view",
      "type": "function"
    },
    {
      "inputs": [],
      "name": "useTWAPDefault",
      "outputs": [
        {
          "internalType": "bool",
          "name": "",
          "type": "bool"
        }
      ],
      "stateMutability": "view",
      "type": "function"
    }
  ],
  "bytecode": "0x60e06040526064600255348015610014575f5ffd5b5060405161409938038061409983398101604081905261003391610216565b836001600160a01b03811661006257604051631e4fbdf760e01b81525f60048201526024015b60405180910390fd5b61006b816101ac565b506001600160a01b0384166100b25760405162461bcd60e51b815260206004820152600d60248201526c24b73b30b634b21037bbb732b960991b6044820152606401610059565b6001600160a01b0383166101085760405162461bcd60e51b815260206004820152601460248201527f496e76616c696420636f726520616464726573730000000000000000000000006044820152606401610059565b806101555760405162461bcd60e51b815260206004820152601560248201527f496e76616c6964205079746820707269636520696400000000000000000000006044820152606401610059565b6001600160a01b0380841660805260a0829052600160c0819052805460ff60a01b1916600160a01b1790558216156101a357600180546001600160a01b0319166001600160a01b0384161790555b5050505061025e565b5f80546001600160a01b038381166001600160a01b0319831681178455604051919092169283917f8be0079c531659141344cd1fd0a4f28419497f9722a3daafe3b4186f6b6457e09190a35050565b80516001600160a01b0381168114610211575f5ffd5b919050565b5f5f5f5f60808587031215610229575f5ffd5b610232856101fb565b9350610240602086016101fb565b925061024e604086016101fb565b6060959095015193969295505050565b60805160a05160c051613ceb6103ae5f395f6102df01525f818161033001528181612ecb0152612f3d01525f8181610477015281816104d30152818161055f01528181610755015281816107d80152818161085b01528181610a2101528181610b3501528181610bdb01528181610c7b01528181610d1b01528181610dbb01528181610e5b01528181610efb01528181610f9b015281816110920152818161133b015281816113be01528181611441015281816115830152818161168e015281816116ec0152818161186601528181611936015281816119dd01528181611ae801528181611bf301528181611cfe01528181611da501528181611e3d01528181612091015281816121110152818161219101528181612276015281816122f90152818161237c01528181612d7a01528181612dff015281816130e10152818161346e015261350e0152613ceb5ff3fe608060405234801561000f575f5ffd5b5060043610610260575f3560e01c80638da5cb5b1161014b578063c1709bc2116100bf578063f2f4eb2611610084578063f2f4eb2614610472578063f2fde38b14610499578063f42d7301146104ac578063f8ff84d3146104b5578063fa7d826a146104bd578063ff8336ff146104c5575f5ffd5b8063c1709bc214610451578063c89f4b981461045a578063e223c98f14610451578063e9976d2314610462578063ed96f2031461046a575f5ffd5b8063a645b54311610110578063a645b54314610287578063a7315ab814610428578063ae8ba67914610430578063b14ea75914610438578063b8cbf16b14610440578063c0304ddf14610448575f5ffd5b80638da5cb5b146103ec5780639043292a146103fc57806393269e861461040f5780639e9d68b614610418578063a0e8d35614610420575f5ffd5b8063310b94b0116101e25780634ad517bc116101a75780634ad517bc1461037e5780635954a86f146103865780637100d05c146103ab578063715018a6146103be5780638068e42c146103c65780638c4039c5146103d9575f5ffd5b8063310b94b01461032b578063324affc1146103525780633e3147a01461035a5780633ee7a7011461036257806341976e091461036b575f5ffd5b806322f9f2271161022857806322f9f227146102bd5780632536dbfb146102c5578063273441a2146102da578063273d73a21461030157806328fc75021461030a575f5ffd5b806303a9d38c14610264578063046ad71d1461027f5780630f68bb631461028757806316df7ea1146102915780631c171664146102b5575b5f5ffd5b61026c606481565b6040519081526020015b60405180910390f35b61026c6104cd565b61026c6201518081565b6001546102a590600160a01b900460ff1681565b6040519015158152602001610276565b61026c61055b565b61026c610751565b6102d86102d336600461382a565b61097b565b005b6102a57f000000000000000000000000000000000000000000000000000000000000000081565b61026c6103e881565b610312606481565b60405167ffffffffffffffff9091168152602001610276565b61026c7f000000000000000000000000000000000000000000000000000000000000000081565b6102d86109d4565b6102a5610b0a565b61026c60025481565b61026c61037936600461382a565b610b32565b61026c61108c565b6001546001600160a01b03165b6040516001600160a01b039091168152602001610276565b61026c6103b9366004613845565b6110ec565b6102d861113d565b6102d86103d436600461388d565b61114e565b6102d86103e73660046138b1565b6112d7565b5f546001600160a01b0316610393565b600154610393906001600160a01b031681565b61026c61232881565b61026c603281565b61026c611337565b6102d8611536565b61026c6116e8565b61026c611860565b6102d86118e9565b61026c6107d081565b61026c6101f481565b61026c603c81565b6102d8611990565b6102d8611d58565b6103937f000000000000000000000000000000000000000000000000000000000000000081565b6102d86104a736600461382a565b611dff565b61026c60035481565b61026c611e39565b61026c612002565b61026c612272565b5f6105567f00000000000000000000000000000000000000000000000000000000000000006001600160a01b0316637f6aaa1d6040518163ffffffff1660e01b8152600401602060405180830381865afa15801561052d573d5f5f3e3d5ffd5b505050506040513d601f19601f8201168201806040525081019061055191906138cc565b61251c565b905090565b5f5f7f00000000000000000000000000000000000000000000000000000000000000006001600160a01b03166348a954946040518163ffffffff1660e01b8152600401602060405180830381865afa1580156105b9573d5f5f3e3d5ffd5b505050506040513d601f19601f820116820180604052508101906105dd91906138cc565b90506001600160a01b0381166106315760405162461bcd60e51b81526020600482015260146024820152731cdd109510881b9bdd0818dbdb999a59dd5c995960621b60448201526064015b60405180910390fd5b5f8190505f816001600160a01b03166318160ddd6040518163ffffffff1660e01b8152600401602060405180830381865afa158015610672573d5f5f3e3d5ffd5b505050506040513d601f19601f8201168201806040525081019061069691906138e7565b9050805f036106af576106a7611337565b935050505090565b5f826001600160a01b03166301e1d1146040518163ffffffff1660e01b8152600401602060405180830381865afa1580156106ec573d5f5f3e3d5ffd5b505050506040513d601f19601f8201168201806040525081019061071091906138e7565b90505f61072682670de0b6b3a764000085612591565b90505f610731611337565b90506107468282670de0b6b3a7640000612591565b965050505050505090565b5f5f7f00000000000000000000000000000000000000000000000000000000000000006001600160a01b03166340cbbcc36040518163ffffffff1660e01b8152600401602060405180830381865afa1580156107af573d5f5f3e3d5ffd5b505050506040513d601f19601f820116820180604052508101906107d391906138cc565b90505f7f00000000000000000000000000000000000000000000000000000000000000006001600160a01b03166316a3d9fd6040518163ffffffff1660e01b8152600401602060405180830381865afa158015610832573d5f5f3e3d5ffd5b505050506040513d601f19601f8201168201806040525081019061085691906138cc565b90505f7f00000000000000000000000000000000000000000000000000000000000000006001600160a01b031663457404776040518163ffffffff1660e01b8152600401602060405180830381865afa1580156108b5573d5f5f3e3d5ffd5b505050506040513d601f19601f820116820180604052508101906108d991906138cc565b90505f6108e7848484612641565b90505f6108f5858585612a09565b905061090482826107d0612c92565b6109505760405162461bcd60e51b815260206004820152601860248201527f4252533a20545741502f73706f7420646576696174696f6e00000000000000006044820152606401610628565b5f610959612272565b90505f61096f8483670de0b6b3a7640000612591565b98975050505050505050565b610983612cee565b600180546001600160a01b038381166001600160a01b0319831681179093556040519116919082907fbd88378c1310b1e36e9a14008ea9fb3ec76db83d1ebdbf4ea1f57e11090cd8be905f90a35050565b600154600160a01b900460ff1680156109f757506001546001600160a01b031615155b15610b085760015f9054906101000a90046001600160a01b03166001600160a01b031663550848837f00000000000000000000000000000000000000000000000000000000000000006001600160a01b03166304f88f4d6040518163ffffffff1660e01b8152600401602060405180830381865afa158015610a7b573d5f5f3e3d5ffd5b505050506040513d601f19601f82011682018060405250810190610a9f91906138cc565b6040516001600160e01b031960e084901b1681526001600160a01b0390911660048201526024016020604051808303815f875af1158015610ae2573d5f5f3e3d5ffd5b505050506040513d601f19601f82011682018060405250810190610b0691906138fe565b505b565b6001545f90600160a01b900460ff1680156105565750506001546001600160a01b0316151590565b5f7f00000000000000000000000000000000000000000000000000000000000000006001600160a01b0316634dede3de6040518163ffffffff1660e01b8152600401602060405180830381865afa158015610b8f573d5f5f3e3d5ffd5b505050506040513d601f19601f82011682018060405250810190610bb391906138cc565b6001600160a01b0316826001600160a01b031603610bd957610bd3612002565b92915050565b7f00000000000000000000000000000000000000000000000000000000000000006001600160a01b031663457404776040518163ffffffff1660e01b8152600401602060405180830381865afa158015610c35573d5f5f3e3d5ffd5b505050506040513d601f19601f82011682018060405250810190610c5991906138cc565b6001600160a01b0316826001600160a01b031603610c7957610bd3612272565b7f00000000000000000000000000000000000000000000000000000000000000006001600160a01b03166346caf5e86040518163ffffffff1660e01b8152600401602060405180830381865afa158015610cd5573d5f5f3e3d5ffd5b505050506040513d601f19601f82011682018060405250810190610cf991906138cc565b6001600160a01b0316826001600160a01b031603610d1957610bd3611337565b7f00000000000000000000000000000000000000000000000000000000000000006001600160a01b03166316a3d9fd6040518163ffffffff1660e01b8152600401602060405180830381865afa158015610d75573d5f5f3e3d5ffd5b505050506040513d601f19601f82011682018060405250810190610d9991906138cc565b6001600160a01b0316826001600160a01b031603610db957610bd3610751565b7f00000000000000000000000000000000000000000000000000000000000000006001600160a01b0316633c9ac7226040518163ffffffff1660e01b8152600401602060405180830381865afa158015610e15573d5f5f3e3d5ffd5b505050506040513d601f19601f82011682018060405250810190610e3991906138cc565b6001600160a01b0316826001600160a01b031603610e5957610bd3611e39565b7f00000000000000000000000000000000000000000000000000000000000000006001600160a01b03166348a954946040518163ffffffff1660e01b8152600401602060405180830381865afa158015610eb5573d5f5f3e3d5ffd5b505050506040513d601f19601f82011682018060405250810190610ed991906138cc565b6001600160a01b0316826001600160a01b031603610ef957610bd361055b565b7f00000000000000000000000000000000000000000000000000000000000000006001600160a01b03166389a302716040518163ffffffff1660e01b8152600401602060405180830381865afa158015610f55573d5f5f3e3d5ffd5b505050506040513d601f19601f82011682018060405250810190610f7991906138cc565b6001600160a01b0316826001600160a01b031603610f9957610bd361108c565b7f00000000000000000000000000000000000000000000000000000000000000006001600160a01b031663c54e44eb6040518163ffffffff1660e01b8152600401602060405180830381865afa158015610ff5573d5f5f3e3d5ffd5b505050506040513d601f19601f8201168201806040525081019061101991906138cc565b6001600160a01b0316826001600160a01b03160361103957610bd36104cd565b60405162461bcd60e51b815260206004820152602260248201527f5072696365206e6f7420617661696c61626c6520666f72207468697320746f6b60448201526132b760f11b6064820152608401610628565b5f6105567f00000000000000000000000000000000000000000000000000000000000000006001600160a01b03166359474fb26040518163ffffffff1660e01b8152600401602060405180830381865afa15801561052d573d5f5f3e3d5ffd5b6001545f90600160a01b900460ff16801561111157506001546001600160a01b031615155b1561112857611121848484612641565b9050611136565b611133848484612a09565b90505b9392505050565b611145612cee565b610b085f612d1a565b611156612cee565b603281101561119b5760405162461bcd60e51b8152602060048201526011602482015270446576696174696f6e20746f6f206c6f7760781b6044820152606401610628565b6101f48111156111e25760405162461bcd60e51b8152602060048201526012602482015271088caecd2c2e8d2dedc40e8dede40d0d2ced60731b6044820152606401610628565b60025481106112335760405162461bcd60e51b815260206004820152601a60248201527f446576696174696f6e2063616e206f6e6c79207469676874656e0000000000006044820152606401610628565b6003541561128e576201518060035461124c919061392d565b42101561128e5760405162461bcd60e51b815260206004820152601060248201526f10dbdbdb191bdddb881b9bdd081b595d60821b6044820152606401610628565b60028054908290554260035560408051828152602081018490527fea7b0359048504e79474eaaa05294b49265fc4e7b0a0c3737aaa22412e90f16e910160405180910390a15050565b6112df612cee565b60018054821515600160a01b0260ff60a01b199091161790556040517f0163568d3185bb7679fb2660bf0c56cc98855d55082f9f0b2df4811f02f1d3519061132c90831515815260200190565b60405180910390a150565b5f5f7f00000000000000000000000000000000000000000000000000000000000000006001600160a01b03166356f760db6040518163ffffffff1660e01b8152600401602060405180830381865afa158015611395573d5f5f3e3d5ffd5b505050506040513d601f19601f820116820180604052508101906113b991906138cc565b90505f7f00000000000000000000000000000000000000000000000000000000000000006001600160a01b03166346caf5e86040518163ffffffff1660e01b8152600401602060405180830381865afa158015611418573d5f5f3e3d5ffd5b505050506040513d601f19601f8201168201806040525081019061143c91906138cc565b90505f7f00000000000000000000000000000000000000000000000000000000000000006001600160a01b031663457404776040518163ffffffff1660e01b8152600401602060405180830381865afa15801561149b573d5f5f3e3d5ffd5b505050506040513d601f19601f820116820180604052508101906114bf91906138cc565b90505f6114cd848484612641565b90505f6114db858585612a09565b90506114ea82826103e8612c92565b6109505760405162461bcd60e51b815260206004820152601860248201527f4254423a20545741502f73706f7420646576696174696f6e00000000000000006044820152606401610628565b600154600160a01b900460ff16801561155957506001546001600160a01b031615155b15610b085760015f9054906101000a90046001600160a01b03166001600160a01b031663550848837f00000000000000000000000000000000000000000000000000000000000000006001600160a01b03166356f760db6040518163ffffffff1660e01b8152600401602060405180830381865afa1580156115dd573d5f5f3e3d5ffd5b505050506040513d601f19601f8201168201806040525081019061160191906138cc565b6040516001600160e01b031960e084901b1681526001600160a01b0390911660048201526024016020604051808303815f875af1158015611644573d5f5f3e3d5ffd5b505050506040513d601f19601f8201168201806040525081019061166891906138fe565b5060015f9054906101000a90046001600160a01b03166001600160a01b031663550848837f00000000000000000000000000000000000000000000000000000000000000006001600160a01b03166389f9109d6040518163ffffffff1660e01b8152600401602060405180830381865afa158015610a7b573d5f5f3e3d5ffd5b5f5f7f00000000000000000000000000000000000000000000000000000000000000006001600160a01b031663b85b92096040518163ffffffff1660e01b8152600401602060405180830381865afa158015611746573d5f5f3e3d5ffd5b505050506040513d601f19601f8201168201806040525081019061176a91906138cc565b90506001600160a01b0381166117b95760405162461bcd60e51b8152602060048201526014602482015273125554d1081b585b9859d95c881b9bdd081cd95d60621b6044820152606401610628565b5f816001600160a01b031663ce0e5b126040518163ffffffff1660e01b8152600401602060405180830381865afa1580156117f6573d5f5f3e3d5ffd5b505050506040513d601f19601f8201168201806040525081019061181a91906138e7565b90505f8111610bd35760405162461bcd60e51b8152602060048201526012602482015271496e76616c6964204955534420707269636560701b6044820152606401610628565b5f6105567f00000000000000000000000000000000000000000000000000000000000000006001600160a01b031663be2aaaed6040518163ffffffff1660e01b8152600401602060405180830381865afa1580156118c0573d5f5f3e3d5ffd5b505050506040513d601f19601f820116820180604052508101906118e491906138cc565b612d69565b600154600160a01b900460ff16801561190c57506001546001600160a01b031615155b15610b085760015f9054906101000a90046001600160a01b03166001600160a01b031663550848837f00000000000000000000000000000000000000000000000000000000000000006001600160a01b03166340cbbcc36040518163ffffffff1660e01b8152600401602060405180830381865afa1580156115dd573d5f5f3e3d5ffd5b600154600160a01b900460ff1680156119b357506001546001600160a01b031615155b15610b085760015f9054906101000a90046001600160a01b03166001600160a01b031663550848837f00000000000000000000000000000000000000000000000000000000000000006001600160a01b03166304f88f4d6040518163ffffffff1660e01b8152600401602060405180830381865afa158015611a37573d5f5f3e3d5ffd5b505050506040513d601f19601f82011682018060405250810190611a5b91906138cc565b6040516001600160e01b031960e084901b1681526001600160a01b0390911660048201526024016020604051808303815f875af1158015611a9e573d5f5f3e3d5ffd5b505050506040513d601f19601f82011682018060405250810190611ac291906138fe565b5060015f9054906101000a90046001600160a01b03166001600160a01b031663550848837f00000000000000000000000000000000000000000000000000000000000000006001600160a01b03166389f9109d6040518163ffffffff1660e01b8152600401602060405180830381865afa158015611b42573d5f5f3e3d5ffd5b505050506040513d601f19601f82011682018060405250810190611b6691906138cc565b6040516001600160e01b031960e084901b1681526001600160a01b0390911660048201526024016020604051808303815f875af1158015611ba9573d5f5f3e3d5ffd5b505050506040513d601f19601f82011682018060405250810190611bcd91906138fe565b5060015f9054906101000a90046001600160a01b03166001600160a01b031663550848837f00000000000000000000000000000000000000000000000000000000000000006001600160a01b03166356f760db6040518163ffffffff1660e01b8152600401602060405180830381865afa158015611c4d573d5f5f3e3d5ffd5b505050506040513d601f19601f82011682018060405250810190611c7191906138cc565b6040516001600160e01b031960e084901b1681526001600160a01b0390911660048201526024016020604051808303815f875af1158015611cb4573d5f5f3e3d5ffd5b505050506040513d601f19601f82011682018060405250810190611cd891906138fe565b5060015f9054906101000a90046001600160a01b03166001600160a01b031663550848837f00000000000000000000000000000000000000000000000000000000000000006001600160a01b03166340cbbcc36040518163ffffffff1660e01b8152600401602060405180830381865afa158015610a7b573d5f5f3e3d5ffd5b600154600160a01b900460ff168015611d7b57506001546001600160a01b031615155b15610b085760015f9054906101000a90046001600160a01b03166001600160a01b031663550848837f00000000000000000000000000000000000000000000000000000000000000006001600160a01b03166389f9109d6040518163ffffffff1660e01b8152600401602060405180830381865afa158015610a7b573d5f5f3e3d5ffd5b611e07612cee565b6001600160a01b038116611e3057604051631e4fbdf760e01b81525f6004820152602401610628565b610b0681612d1a565b5f5f7f00000000000000000000000000000000000000000000000000000000000000006001600160a01b0316633c9ac7226040518163ffffffff1660e01b8152600401602060405180830381865afa158015611e97573d5f5f3e3d5ffd5b505050506040513d601f19601f82011682018060405250810190611ebb91906138cc565b90506001600160a01b038116611f0a5760405162461bcd60e51b81526020600482015260146024820152731cdd109511081b9bdd0818dbdb999a59dd5c995960621b6044820152606401610628565b5f8190505f816001600160a01b03166318160ddd6040518163ffffffff1660e01b8152600401602060405180830381865afa158015611f4b573d5f5f3e3d5ffd5b505050506040513d601f19601f82011682018060405250810190611f6f91906138e7565b9050805f03611f80576106a7612272565b5f826001600160a01b03166301e1d1146040518163ffffffff1660e01b8152600401602060405180830381865afa158015611fbd573d5f5f3e3d5ffd5b505050506040513d601f19601f82011682018060405250810190611fe191906138e7565b90505f611ff782670de0b6b3a764000085612591565b90505f610731612272565b5f5f61200c612d73565b90505f612017612dfb565b90506120268282600254612c92565b6120725760405162461bcd60e51b815260206004820152601d60248201527f436861696e6c696e6b2f50797468207072696365206d69736d617463680000006044820152606401610628565b5f600261207f838561392d565b6120899190613954565b90505f61220f7f00000000000000000000000000000000000000000000000000000000000000006001600160a01b03166304f88f4d6040518163ffffffff1660e01b8152600401602060405180830381865afa1580156120eb573d5f5f3e3d5ffd5b505050506040513d601f19601f8201168201806040525081019061210f91906138cc565b7f00000000000000000000000000000000000000000000000000000000000000006001600160a01b0316634dede3de6040518163ffffffff1660e01b8152600401602060405180830381865afa15801561216b573d5f5f3e3d5ffd5b505050506040513d601f19601f8201168201806040525081019061218f91906138cc565b7f00000000000000000000000000000000000000000000000000000000000000006001600160a01b03166389a302716040518163ffffffff1660e01b8152600401602060405180830381865afa1580156121eb573d5f5f3e3d5ffd5b505050506040513d601f19601f820116820180604052508101906103b991906138cc565b905061221e8183600254612c92565b61226a5760405162461bcd60e51b815260206004820152601d60248201527f556e69737761702f4f7261636c65207072696365206d69736d617463680000006044820152606401610628565b949350505050565b5f5f7f00000000000000000000000000000000000000000000000000000000000000006001600160a01b03166389f9109d6040518163ffffffff1660e01b8152600401602060405180830381865afa1580156122d0573d5f5f3e3d5ffd5b505050506040513d601f19601f820116820180604052508101906122f491906138cc565b90505f7f00000000000000000000000000000000000000000000000000000000000000006001600160a01b031663457404776040518163ffffffff1660e01b8152600401602060405180830381865afa158015612353573d5f5f3e3d5ffd5b505050506040513d601f19601f8201168201806040525081019061237791906138cc565b90505f7f00000000000000000000000000000000000000000000000000000000000000006001600160a01b03166389a302716040518163ffffffff1660e01b8152600401602060405180830381865afa1580156123d6573d5f5f3e3d5ffd5b505050506040513d601f19601f820116820180604052508101906123fa91906138cc565b90505f612408848484612641565b90505f612416858585612a09565b905061242582826101f4612c92565b6124715760405162461bcd60e51b815260206004820152601860248201527f4254443a20545741502f73706f7420646576696174696f6e00000000000000006044820152606401610628565b5f61247a6116e8565b90505f6124856130dd565b9050670de0b6b3a76400008111156124a25750670de0b6b3a76400005b5f6124c46124b98385670de0b6b3a7640000612591565b612328612710612591565b90508085101561250f5760405162461bcd60e51b8152602060048201526016602482015275212a221d10383934b1b2903132b637bb90333637b7b960511b6044820152606401610628565b5092979650505050505050565b5f5f612527836131e4565b9050670de0b6b3a764000061253e82826064612c92565b61258a5760405162461bcd60e51b815260206004820152601960248201527f537461626c65636f696e206465706567206465746563746564000000000000006044820152606401610628565b5092915050565b5f5f5f61259e868661343e565b91509150815f036125c2578381816125b8576125b8613940565b0492505050611136565b8184116125d9576125d9600385150260111861345a565b5f848688095f868103871696879004966002600389028118808a02820302808a02820302808a02820302808a02820302808a02820302808a02909103029181900381900460010185841190960395909502919093039390930492909217029150509392505050565b6001545f906001600160a01b03166126915760405162461bcd60e51b81526020600482015260136024820152721515d054081bdc9858db19481b9bdd081cd95d606a1b6044820152606401610628565b60015460405163013a839760e31b81526001600160a01b038681166004830152909116906309d41cb890602401602060405180830381865afa1580156126d9573d5f5f3e3d5ffd5b505050506040513d601f19601f820116820180604052508101906126fd91906138fe565b61273a5760405162461bcd60e51b815260206004820152600e60248201526d54574150206e6f7420726561647960901b6044820152606401610628565b5f8490505f816001600160a01b0316630dfe16816040518163ffffffff1660e01b8152600401602060405180830381865afa15801561277b573d5f5f3e3d5ffd5b505050506040513d601f19601f8201168201806040525081019061279f91906138cc565b90505f826001600160a01b031663d21220a76040518163ffffffff1660e01b8152600401602060405180830381865afa1580156127de573d5f5f3e3d5ffd5b505050506040513d601f19601f8201168201806040525081019061280291906138cc565b9050856001600160a01b0316826001600160a01b03161480156128365750846001600160a01b0316816001600160a01b0316145b8061286e5750846001600160a01b0316826001600160a01b031614801561286e5750856001600160a01b0316816001600160a01b0316145b6128ba5760405162461bcd60e51b815260206004820152601b60248201527f496e76616c696420626173652f71756f746520666f7220706f6f6c00000000006044820152606401610628565b5f6128c48761346b565b90505f6128d08761346b565b9050876001600160a01b0316846001600160a01b031603612974576001546040516364dca9c760e01b81526001600160a01b038b8116600483015260ff808616602484015284166044830152909116906364dca9c790606401602060405180830381865afa158015612944573d5f5f3e3d5ffd5b505050506040513d601f19601f8201168201806040525081019061296891906138e7565b95505050505050611136565b6001546040516364dca9c760e01b81526001600160a01b038b8116600483015260ff8085166024840152851660448301525f9216906364dca9c790606401602060405180830381865afa1580156129cd573d5f5f3e3d5ffd5b505050506040513d601f19601f820116820180604052508101906129f191906138e7565b90506129fc816135b9565b9650505050505050611136565b5f5f8490505f5f826001600160a01b0316630902f1ac6040518163ffffffff1660e01b8152600401606060405180830381865afa158015612a4c573d5f5f3e3d5ffd5b505050506040513d601f19601f82011682018060405250810190612a709190613989565b50915091505f836001600160a01b0316630dfe16816040518163ffffffff1660e01b8152600401602060405180830381865afa158015612ab2573d5f5f3e3d5ffd5b505050506040513d601f19601f82011682018060405250810190612ad691906138cc565b90505f846001600160a01b031663d21220a76040518163ffffffff1660e01b8152600401602060405180830381865afa158015612b15573d5f5f3e3d5ffd5b505050506040513d601f19601f82011682018060405250810190612b3991906138cc565b9050876001600160a01b0316826001600160a01b0316148015612b6d5750866001600160a01b0316816001600160a01b0316145b80612ba55750866001600160a01b0316826001600160a01b0316148015612ba55750876001600160a01b0316816001600160a01b0316145b612bf15760405162461bcd60e51b815260206004820152601b60248201527f496e76616c696420626173652f71756f746520666f7220706f6f6c00000000006044820152606401610628565b5f886001600160a01b0316836001600160a01b031614612c1a57836001600160701b0316612c25565b846001600160701b03165b90505f896001600160a01b0316846001600160a01b031614612c5057856001600160701b0316612c5b565b846001600160701b03165b90505f612c678b61346b565b90505f612c738b61346b565b9050612c8184848484613619565b9d9c50505050505050505050505050565b5f831580612c9e575082155b15612caa57505f611136565b5f838511612cc157612cbc85856139ca565b612ccb565b612ccb84866139ca565b9050612cd783866139dd565b612ce3612710836139dd565b111595945050505050565b5f546001600160a01b03163314610b085760405163118cdaa760e01b8152336004820152602401610628565b5f80546001600160a01b038381166001600160a01b0319831681178455604051919092169283917f8be0079c531659141344cd1fd0a4f28419497f9722a3daafe3b4186f6b6457e09190a35050565b5f610bd3826131e4565b5f5f612dd47f00000000000000000000000000000000000000000000000000000000000000006001600160a01b031663b06d543c6040518163ffffffff1660e01b8152600401602060405180830381865afa1580156118c0573d5f5f3e3d5ffd5b90505f612ddf611860565b9050612df48282670de0b6b3a7640000612591565b9250505090565b5f5f7f00000000000000000000000000000000000000000000000000000000000000006001600160a01b03166310a420c16040518163ffffffff1660e01b8152600401602060405180830381865afa158015612e59573d5f5f3e3d5ffd5b505050506040513d601f19601f82011682018060405250810190612e7d91906138cc565b90506001600160a01b038116612ec95760405162461bcd60e51b8152602060048201526011602482015270141e5d1a0819995959081b9bdd081cd95d607a1b6044820152606401610628565b7f0000000000000000000000000000000000000000000000000000000000000000612f2e5760405162461bcd60e51b8152602060048201526015602482015274141e5d1a081c1c9a58d9481a59081b9bdd081cd95d605a1b6044820152606401610628565b6040516396834ad360e01b81527f000000000000000000000000000000000000000000000000000000000000000060048201525f906001600160a01b038316906396834ad390602401608060405180830381865afa158015612f92573d5f5f3e3d5ffd5b505050506040513d601f19601f82011682018060405250810190612fb69190613a1c565b90505f815f015160070b136130025760405162461bcd60e51b8152602060048201526012602482015271496e76616c6964205079746820707269636560701b6044820152606401610628565b603c81606001514261301491906139ca565b11156130555760405162461bcd60e51b815260206004820152601060248201526f50797468207072696365207374616c6560801b6044820152606401610628565b805f015167ffffffffffffffff16816020015160646130749190613aa8565b67ffffffffffffffff1611156130cc5760405162461bcd60e51b815260206004820152601860248201527f5079746820636f6e666964656e636520746f6f207769646500000000000000006044820152606401610628565b612df4815f01518260400151613698565b5f5f7f00000000000000000000000000000000000000000000000000000000000000006001600160a01b031663fe6d81246040518163ffffffff1660e01b8152600401602060405180830381865afa15801561313b573d5f5f3e3d5ffd5b505050506040513d601f19601f8201168201806040525081019061315f91906138cc565b90506001600160a01b03811661317e57670de0b6b3a764000091505090565b806001600160a01b031663cd377c536040518163ffffffff1660e01b8152600401602060405180830381865afa1580156131ba573d5f5f3e3d5ffd5b505050506040513d601f19601f820116820180604052508101906131de91906138e7565b91505090565b5f6001600160a01b03821661322a5760405162461bcd60e51b815260206004820152600c60248201526b11995959081b9bdd081cd95d60a21b6044820152606401610628565b5f8290505f816001600160a01b031663313ce5676040518163ffffffff1660e01b8152600401602060405180830381865afa15801561326b573d5f5f3e3d5ffd5b505050506040513d601f19601f8201168201806040525081019061328f9190613acb565b90505f5f5f5f856001600160a01b031663feaf968c6040518163ffffffff1660e01b815260040160a060405180830381865afa1580156132d1573d5f5f3e3d5ffd5b505050506040513d601f19601f820116820180604052508101906132f59190613b04565b9450945050935093505f83136133425760405162461bcd60e51b8152602060048201526012602482015271496e76616c6964206665656420707269636560701b6044820152606401610628565b5f82116133895760405162461bcd60e51b8152602060048201526015602482015274496e636f6d706c65746520726f756e64206461746160581b6044820152606401610628565b8369ffffffffffffffffffff168169ffffffffffffffffffff1610156133e45760405162461bcd60e51b815260206004820152601060248201526f5374616c6520726f756e64206461746160801b6044820152606401610628565b610e106133f183426139ca565b11156134345760405162461bcd60e51b8152602060048201526012602482015271141c9a58d94819185d18481d1bdbc81bdb1960721b6044820152606401610628565b61096f83866137b0565b5f805f1983850993909202808410938190039390930393915050565b634e487b715f52806020526024601cfd5b5f7f00000000000000000000000000000000000000000000000000000000000000006001600160a01b0316634dede3de6040518163ffffffff1660e01b8152600401602060405180830381865afa1580156134c8573d5f5f3e3d5ffd5b505050506040513d601f19601f820116820180604052508101906134ec91906138cc565b6001600160a01b0316826001600160a01b03160361350c57506008919050565b7f00000000000000000000000000000000000000000000000000000000000000006001600160a01b03166389a302716040518163ffffffff1660e01b8152600401602060405180830381865afa158015613568573d5f5f3e3d5ffd5b505050506040513d601f19601f8201168201806040525081019061358c91906138cc565b6001600160a01b0316826001600160a01b0316036135ac57506006919050565b506012919050565b919050565b5f5f82116135fe5760405162461bcd60e51b81526020600482015260126024820152714f7261636c653a207a65726f20707269636560701b6044820152606401610628565b610bd36ec097ce7bc90715b34b9f1000000000600184612591565b5f5f85116136605760405162461bcd60e51b81526020600482015260146024820152734f7261636c653a207a65726f207265736572766560601b6044820152606401610628565b5f61366b86856137b0565b90505f61367886856137b0565b905061368d81670de0b6b3a764000084612591565b979650505050505050565b5f5f8360070b136136e05760405162461bcd60e51b8152602060048201526012602482015271496e76616c696420507974682076616c756560701b6044820152606401610628565b5f6136ec836012613b52565b9050604f198160030b138015613705575060508160030b125b6137515760405162461bcd60e51b815260206004820152601b60248201527f50797468206578706f6e656e74206f7574206f6620626f756e647300000000006044820152606401610628565b67ffffffffffffffff84165f600383900b126137855761377282600a613c5c565b61377c90826139dd565b92505050610bd3565b5f61378f83613c6d565b905061379c81600a613c5c565b6137a69083613954565b9695505050505050565b5f8160ff166012036137c3575081610bd3565b60128260ff1611156137f6576137da601283613c8e565b6137e590600a613ca7565b6137ef9084613954565b9050610bd3565b613801826012613c8e565b61380c90600a613ca7565b61113690846139dd565b6001600160a01b0381168114610b06575f5ffd5b5f6020828403121561383a575f5ffd5b813561113681613816565b5f5f5f60608486031215613857575f5ffd5b833561386281613816565b9250602084013561387281613816565b9150604084013561388281613816565b809150509250925092565b5f6020828403121561389d575f5ffd5b5035919050565b8015158114610b06575f5ffd5b5f602082840312156138c1575f5ffd5b8135611136816138a4565b5f602082840312156138dc575f5ffd5b815161113681613816565b5f602082840312156138f7575f5ffd5b5051919050565b5f6020828403121561390e575f5ffd5b8151611136816138a4565b634e487b7160e01b5f52601160045260245ffd5b80820180821115610bd357610bd3613919565b634e487b7160e01b5f52601260045260245ffd5b5f8261396e57634e487b7160e01b5f52601260045260245ffd5b500490565b80516001600160701b03811681146135b4575f5ffd5b5f5f5f6060848603121561399b575f5ffd5b6139a484613973565b92506139b260208501613973565b9150604084015163ffffffff81168114613882575f5ffd5b81810381811115610bd357610bd3613919565b8082028115828204841417610bd357610bd3613919565b805167ffffffffffffffff811681146135b4575f5ffd5b8051600381900b81146135b4575f5ffd5b5f6080828403128015613a2d575f5ffd5b506040516080810167ffffffffffffffff81118282101715613a5d57634e487b7160e01b5f52604160045260245ffd5b6040528251600781900b8114613a71575f5ffd5b8152613a7f602084016139f4565b6020820152613a9060408401613a0b565b60408201526060928301519281019290925250919050565b67ffffffffffffffff818116838216029081169081811461258a5761258a613919565b5f60208284031215613adb575f5ffd5b815160ff81168114611136575f5ffd5b805169ffffffffffffffffffff811681146135b4575f5ffd5b5f5f5f5f5f60a08688031215613b18575f5ffd5b613b2186613aeb565b60208701516040880151606089015192975090955093509150613b4660808701613aeb565b90509295509295909350565b600381810b9083900b01637fffffff8113637fffffff1982121715610bd357610bd3613919565b6001815b6001841115613bb457808504811115613b9857613b98613919565b6001841615613ba657908102905b60019390931c928002613b7d565b935093915050565b5f82613bca57506001610bd3565b81613bd657505f610bd3565b8160018114613bec5760028114613bf657613c12565b6001915050610bd3565b60ff841115613c0757613c07613919565b50506001821b610bd3565b5060208310610133831016604e8410600b8410161715613c35575081810a610bd3565b613c415f198484613b79565b805f1904821115613c5457613c54613919565b029392505050565b5f61113663ffffffff841683613bbc565b5f8160030b637fffffff198103613c8657613c86613919565b5f0392915050565b60ff8281168282160390811115610bd357610bd3613919565b5f61113660ff841683613bbc56fea264697066735822122002be5b5a80fe40d51c299b2ee5c90ddffd883ec100f55a352476a9c84d0e856064736f6c634300081e0033",
  "linkReferences": {},
  "deployedLinkReferences": {},
  "immutableReferences": {
    "4515": [
      {
        "length": 32,
        "start": 1143
      },
      {
        "length": 32,
        "start": 1235
      },
      {
        "length": 32,
        "start": 1375
      },
      {
        "length": 32,
        "start": 1877
      },
      {
        "length": 32,
        "start": 2008
      },
      {
        "length": 32,
        "start": 2139
      },
      {
        "length": 32,
        "start": 2593
      },
      {
        "length": 32,
        "start": 2869
      },
      {
        "length": 32,
        "start": 3035
      },
      {
        "length": 32,
        "start": 3195
      },
      {
        "length": 32,
        "start": 3355
      },
      {
        "length": 32,
        "start": 3515
      },
      {
        "length": 32,
        "start": 3675
      },
      {
        "length": 32,
        "start": 3835
      },
      {
        "length": 32,
        "start": 3995
      },
      {
        "length": 32,
        "start": 4242
      },
      {
        "length": 32,
        "start": 4923
      },
      {
        "length": 32,
        "start": 5054
      },
      {
        "length": 32,
        "start": 5185
      },
      {
        "length": 32,
        "start": 5507
      },
      {
        "length": 32,
        "start": 5774
      },
      {
        "length": 32,
        "start": 5868
      },
      {
        "length": 32,
        "start": 6246
      },
      {
        "length": 32,
        "start": 6454
      },
      {
        "length": 32,
        "start": 6621
      },
      {
        "length": 32,
        "start": 6888
      },
      {
        "length": 32,
        "start": 7155
      },
      {
        "length": 32,
        "start": 7422
      },
      {
        "length": 32,
        "start": 7589
      },
      {
        "length": 32,
        "start": 7741
      },
      {
        "length": 32,
        "start": 8337
      },
      {
        "length": 32,
        "start": 8465
      },
      {
        "length": 32,
        "start": 8593
      },
      {
        "length": 32,
        "start": 8822
      },
      {
        "length": 32,
        "start": 8953
      },
      {
        "length": 32,
        "start": 9084
      },
      {
        "length": 32,
        "start": 11642
      },
      {
        "length": 32,
        "start": 11775
      },
      {
        "length": 32,
        "start": 12513
      },
      {
        "length": 32,
        "start": 13422
      },
      {
        "length": 32,
        "start": 13582
      }
    ],
    "4517": [
      {
        "length": 32,
        "start": 816
      },
      {
        "length": 32,
        "start": 11979
      },
      {
        "length": 32,
        "start": 12093
      }
    ],
    "4519": [
      {
        "length": 32,
        "start": 735
      }
    ]
  },
  "inputSourceName": "project/contracts/PriceOracle.sol",
  "buildInfoId": "solc-0_8_30-7744f264a2f09fff058723ef4dfea2ea5e2ef4fd"
}