{
  "_format": "hh3-artifact-1",
  "contractName": "ConfigCore",
  "sourceName": "contracts/ConfigCore.sol",
  "abi": [
    {
      "inputs": [
        {
          "internalType": "address",
          "name": "_wbtc",
          "type": "address"
        },
        {
          "internalType": "address",
          "name": "_btd",
          "type": "address"
        },
        {
          "internalType": "address",
          "name": "_btb",
          "type": "address"
        },
        {
          "internalType": "address",
          "name": "_brs",
          "type": "address"
        },
        {
          "internalType": "address",
          "name": "_weth",
          "type": "address"
        },
        {
          "internalType": "address",
          "name": "_usdc",
          "type": "address"
        },
        {
          "internalType": "address",
          "name": "_usdt",
          "type": "address"
        },
        {
          "internalType": "address",
          "name": "_chainlinkBtcUsd",
          "type": "address"
        },
        {
          "internalType": "address",
          "name": "_chainlinkWbtcBtc",
          "type": "address"
        },
        {
          "internalType": "address",
          "name": "_pythWbtc",
          "type": "address"
        },
        {
          "internalType": "address",
          "name": "_chainlinkUsdcUsd",
          "type": "address"
        },
        {
          "internalType": "address",
          "name": "_chainlinkUsdtUsd",
          "type": "address"
        }
      ],
      "stateMutability": "nonpayable",
      "type": "constructor"
    },
    {
      "inputs": [],
      "name": "BRS",
      "outputs": [
        {
          "internalType": "address",
          "name": "",
          "type": "address"
        }
      ],
      "stateMutability": "view",
      "type": "function"
    },
    {
      "inputs": [],
      "name": "BTB",
      "outputs": [
        {
          "internalType": "address",
          "name": "",
          "type": "address"
        }
      ],
      "stateMutability": "view",
      "type": "function"
    },
    {
      "inputs": [],
      "name": "BTD",
      "outputs": [
        {
          "internalType": "address",
          "name": "",
          "type": "address"
        }
      ],
      "stateMutability": "view",
      "type": "function"
    },
    {
      "inputs": [],
      "name": "CHAINLINK_BTC_USD",
      "outputs": [
        {
          "internalType": "address",
          "name": "",
          "type": "address"
        }
      ],
      "stateMutability": "view",
      "type": "function"
    },
    {
      "inputs": [],
      "name": "CHAINLINK_USDC_USD",
      "outputs": [
        {
          "internalType": "address",
          "name": "",
          "type": "address"
        }
      ],
      "stateMutability": "view",
      "type": "function"
    },
    {
      "inputs": [],
      "name": "CHAINLINK_USDT_USD",
      "outputs": [
        {
          "internalType": "address",
          "name": "",
          "type": "address"
        }
      ],
      "stateMutability": "view",
      "type": "function"
    },
    {
      "inputs": [],
      "name": "CHAINLINK_WBTC_BTC",
      "outputs": [
        {
          "internalType": "address",
          "name": "",
          "type": "address"
        }
      ],
      "stateMutability": "view",
      "type": "function"
    },
    {
      "inputs": [],
      "name": "FARMING_POOL",
      "outputs": [
        {
          "internalType": "address",
          "name": "",
          "type": "address"
        }
      ],
      "stateMutability": "view",
      "type": "function"
    },
    {
      "inputs": [],
      "name": "GOVERNOR",
      "outputs": [
        {
          "internalType": "address",
          "name": "",
          "type": "address"
        }
      ],
      "stateMutability": "view",
      "type": "function"
    },
    {
      "inputs": [],
      "name": "IDEAL_USD_MANAGER",
      "outputs": [
        {
          "internalType": "address",
          "name": "",
          "type": "address"
        }
      ],
      "stateMutability": "view",
      "type": "function"
    },
    {
      "inputs": [],
      "name": "INTEREST_POOL",
      "outputs": [
        {
          "internalType": "address",
          "name": "",
          "type": "address"
        }
      ],
      "stateMutability": "view",
      "type": "function"
    },
    {
      "inputs": [],
      "name": "MINTER",
      "outputs": [
        {
          "internalType": "address",
          "name": "",
          "type": "address"
        }
      ],
      "stateMutability": "view",
      "type": "function"
    },
    {
      "inputs": [],
      "name": "POOL_BRS_BTD",
      "outputs": [
        {
          "internalType": "address",
          "name": "",
          "type": "address"
        }
      ],
      "stateMutability": "view",
      "type": "function"
    },
    {
      "inputs": [],
      "name": "POOL_BTB_BTD",
      "outputs": [
        {
          "internalType": "address",
          "name": "",
          "type": "address"
        }
      ],
      "stateMutability": "view",
      "type": "function"
    },
    {
      "inputs": [],
      "name": "POOL_BTD_USDC",
      "outputs": [
        {
          "internalType": "address",
          "name": "",
          "type": "address"
        }
      ],
      "stateMutability": "view",
      "type": "function"
    },
    {
      "inputs": [],
      "name": "POOL_WBTC_USDC",
      "outputs": [
        {
          "internalType": "address",
          "name": "",
          "type": "address"
        }
      ],
      "stateMutability": "view",
      "type": "function"
    },
    {
      "inputs": [],
      "name": "PRICE_ORACLE",
      "outputs": [
        {
          "internalType": "address",
          "name": "",
          "type": "address"
        }
      ],
      "stateMutability": "view",
      "type": "function"
    },
    {
      "inputs": [],
      "name": "PYTH_WBTC",
      "outputs": [
        {
          "internalType": "address",
          "name": "",
          "type": "address"
        }
      ],
      "stateMutability": "view",
      "type": "function"
    },
    {
      "inputs": [],
      "name": "ST_BTB",
      "outputs": [
        {
          "internalType": "address",
          "name": "",
          "type": "address"
        }
      ],
      "stateMutability": "view",
      "type": "function"
    },
    {
      "inputs": [],
      "name": "ST_BTD",
      "outputs": [
        {
          "internalType": "address",
          "name": "",
          "type": "address"
        }
      ],
      "stateMutability": "view",
      "type": "function"
    },
    {
      "inputs": [],
      "name": "TREASURY",
      "outputs": [
        {
          "internalType": "address",
          "name": "",
          "type": "address"
        }
      ],
      "stateMutability": "view",
      "type": "function"
    },
    {
      "inputs": [],
      "name": "TWAP_ORACLE",
      "outputs": [
        {
          "internalType": "address",
          "name": "",
          "type": "address"
        }
      ],
      "stateMutability": "view",
      "type": "function"
    },
    {
      "inputs": [],
      "name": "USDC",
      "outputs": [
        {
          "internalType": "address",
          "name": "",
          "type": "address"
        }
      ],
      "stateMutability": "view",
      "type": "function"
    },
    {
      "inputs": [],
      "name": "USDT",
      "outputs": [
        {
          "internalType": "address",
          "name": "",
          "type": "address"
        }
      ],
      "stateMutability": "view",
      "type": "function"
    },
    {
      "inputs": [],
      "name": "WBTC",
      "outputs": [
        {
          "internalType": "address",
          "name": "",
          "type": "address"
        }
      ],
      "stateMutability": "view",
      "type": "function"
    },
    {
      "inputs": [],
      "name": "WETH",
      "outputs": [
        {
          "internalType": "address",
          "name": "",
          "type": "address"
        }
      ],
      "stateMutability": "view",
      "type": "function"
    },
    {
      "inputs": [],
      "name": "coreContractsSet",
      "outputs": [
        {
          "internalType": "bool",
          "name": "",
          "type": "bool"
        }
      ],
      "stateMutability": "view",
      "type": "function"
    },
    {
      "inputs": [],
      "name": "deployer",
      "outputs": [
        {
          "internalType": "address",
          "name": "",
          "type": "address"
        }
      ],
      "stateMutability": "view",
      "type": "function"
    },
    {
      "inputs": [],
      "name": "peripheralContractsSet",
      "outputs": [
        {
          "internalType": "bool",
          "name": "",
          "type": "bool"
        }
      ],
      "stateMutability": "view",
      "type": "function"
    },
    {
      "inputs": [
        {
          "internalType": "address",
          "name": "_treasury",
          "type": "address"
        },
        {
          "internalType": "address",
          "name": "_minter",
          "type": "address"
        },
        {
          "internalType": "address",
          "name": "_priceOracle",
          "type": "address"
        },
        {
          "internalType": "address",
          "name": "_idealUSDManager",
          "type": "address"
        },
        {
          "internalType": "address",
          "name": "_interestPool",
          "type": "address"
        }
      ],
      "name": "setCoreContracts",
      "outputs": [],
      "stateMutability": "nonpayable",
      "type": "function"
    },
    {
      "inputs": [
        {
          "internalType": "address",
          "name": "_farmingPool",
          "type": "address"
        },
        {
          "internalType": "address",
          "name": "_stBTD",
          "type": "address"
        },
        {
          "internalType": "address",
          "name": "_stBTB",
          "type": "address"
        },
        {
          "internalType": "address",
          "name": "_governor",
          "type": "address"
        },
        {
          "internalType": "address",
          "name": "_twapOracle",
          "type": "address"
        },
        {
          "internalType": "address",
          "name": "_poolWbtcUsdc",
          "type": "address"
        },
        {
          "internalType": "address",
          "name": "_poolBtdUsdc",
          "type": "address"
        },
        {
          "internalType": "address",
          "name": "_poolBtbBtd",
          "type": "address"
        },
        {
          "internalType": "address",
          "name": "_poolBrsBtd",
          "type": "address"
        }
      ],
      "name": "setPeripheralContracts",
      "outputs": [],
      "stateMutability": "nonpayable",
      "type": "function"
    }
  ],
  "bytecode": "0x610220604052348015610010575f5ffd5b5060405161132038038061132083398101604081905261002f9161042c565b6001600160a01b038c166100795760405162461bcd60e51b815260206004820152600c60248201526b496e76616c6964205742544360a01b60448201526064015b60405180910390fd5b6001600160a01b038b166100bd5760405162461bcd60e51b815260206004820152600b60248201526a125b9d985b1a590810951160aa1b6044820152606401610070565b6001600160a01b038a166101015760405162461bcd60e51b815260206004820152600b60248201526a24b73b30b634b210212a2160a91b6044820152606401610070565b6001600160a01b0389166101455760405162461bcd60e51b815260206004820152600b60248201526a496e76616c69642042525360a81b6044820152606401610070565b6001600160a01b03881661018a5760405162461bcd60e51b815260206004820152600c60248201526b092dcecc2d8d2c840ae8aa8960a31b6044820152606401610070565b6001600160a01b0387166101cf5760405162461bcd60e51b815260206004820152600c60248201526b496e76616c6964205553444360a01b6044820152606401610070565b6001600160a01b0386166102145760405162461bcd60e51b815260206004820152600c60248201526b125b9d985b1a59081554d11560a21b6044820152606401610070565b6001600160a01b03851661026a5760405162461bcd60e51b815260206004820152601960248201527f496e76616c696420436861696e6c696e6b204254432f555344000000000000006044820152606401610070565b6001600160a01b0384166102c05760405162461bcd60e51b815260206004820152601a60248201527f496e76616c696420436861696e6c696e6b20574254432f4254430000000000006044820152606401610070565b6001600160a01b03831661030a5760405162461bcd60e51b8152602060048201526011602482015270496e76616c69642050797468205742544360781b6044820152606401610070565b6001600160a01b0382166103605760405162461bcd60e51b815260206004820152601a60248201527f496e76616c696420436861696e6c696e6b20555344432f5553440000000000006044820152606401610070565b6001600160a01b0381166103b65760405162461bcd60e51b815260206004820152601a60248201527f496e76616c696420436861696e6c696e6b20555344542f5553440000000000006044820152606401610070565b336080526001600160a01b039b8c1660a052998b1660c052978a1660e05295891661010052938816610120529187166101405286166101605285166101805284166101a05283166101c05282166101e0521661020052610501565b80516001600160a01b0381168114610427575f5ffd5b919050565b5f5f5f5f5f5f5f5f5f5f5f5f6101808d8f031215610448575f5ffd5b6104518d610411565b9b5061045f60208e01610411565b9a5061046d60408e01610411565b995061047b60608e01610411565b985061048960808e01610411565b975061049760a08e01610411565b96506104a560c08e01610411565b95506104b360e08e01610411565b94506104c26101008e01610411565b93506104d16101208e01610411565b92506104e06101408e01610411565b91506104ef6101608e01610411565b90509295989b509295989b509295989b565b60805160a05160c05160e05161010051610120516101405161016051610180516101a0516101c0516101e05161020051610d8461059c5f395f6103f601525f61038201525f61022801525f61047e01525f6104cb01525f6104f201525f61041d01525f61045701525f61024f01525f6102ea01525f6102c301525f61032401525f81816105190152818161056c01526108020152610d845ff3fe608060405234801561000f575f5ffd5b50600436106101dc575f3560e01c8063631cfacc11610109578063b06d543c1161009e578063c54e44eb1161006e578063c54e44eb146104ed578063d5f3948814610514578063fc95decb1461053b578063fe6d81241461054e575f5ffd5b8063b06d543c14610479578063b09d179e146104a0578063b85b9209146104b3578063be2aaaed146104c6575f5ffd5b80637f6aaa1d116100d95780637f6aaa1d146103f157806389a302711461041857806389f9109d1461043f578063ad5c464814610452575f5ffd5b8063631cfacc146103a457806365fecdf1146103b75780636dc0ae22146103cb57806379061963146103de575f5ffd5b806340cbbcc31161017f5780634dede3de1161014f5780634dede3de1461031f57806353cd2e4e1461034657806356f760db1461036a57806359474fb21461037d575f5ffd5b806340cbbcc3146102ab57806345740477146102be57806346caf5e8146102e557806348a954941461030c575f5ffd5b806316a3d9fd116101ba57806316a3d9fd1461024a5780631b6e5c6f146102715780632d2c5565146102865780633c9ac72214610298575f5ffd5b806304f88f4d146101e05780630a19399a1461021057806310a420c114610223575b5f5ffd5b600a546101f3906001600160a01b031681565b6040516001600160a01b0390911681526020015b60405180910390f35b6002546101f3906001600160a01b031681565b6101f37f000000000000000000000000000000000000000000000000000000000000000081565b6101f37f000000000000000000000000000000000000000000000000000000000000000081565b61028461027f366004610c09565b610561565b005b5f546101f3906001600160a01b031681565b6006546101f3906001600160a01b031681565b600d546101f3906001600160a01b031681565b6101f37f000000000000000000000000000000000000000000000000000000000000000081565b6101f37f000000000000000000000000000000000000000000000000000000000000000081565b6007546101f3906001600160a01b031681565b6101f37f000000000000000000000000000000000000000000000000000000000000000081565b60045461035a90600160a01b900460ff1681565b6040519015158152602001610207565b600c546101f3906001600160a01b031681565b6101f37f000000000000000000000000000000000000000000000000000000000000000081565b6004546101f3906001600160a01b031681565b60045461035a90600160a81b900460ff1681565b6008546101f3906001600160a01b031681565b6005546101f3906001600160a01b031681565b6101f37f000000000000000000000000000000000000000000000000000000000000000081565b6101f37f000000000000000000000000000000000000000000000000000000000000000081565b600b546101f3906001600160a01b031681565b6101f37f000000000000000000000000000000000000000000000000000000000000000081565b6101f37f000000000000000000000000000000000000000000000000000000000000000081565b6102846104ae366004610c6a565b6107f7565b6003546101f3906001600160a01b031681565b6101f37f000000000000000000000000000000000000000000000000000000000000000081565b6101f37f000000000000000000000000000000000000000000000000000000000000000081565b6101f37f000000000000000000000000000000000000000000000000000000000000000081565b6009546101f3906001600160a01b031681565b6001546101f3906001600160a01b031681565b336001600160a01b037f000000000000000000000000000000000000000000000000000000000000000016146105b25760405162461bcd60e51b81526004016105a990610d0c565b60405180910390fd5b600454600160a01b900460ff161561060c5760405162461bcd60e51b815260206004820152601a60248201527f436f726520636f6e74726163747320616c72656164792073657400000000000060448201526064016105a9565b6001600160a01b0385166106555760405162461bcd60e51b815260206004820152601060248201526f496e76616c696420547265617375727960801b60448201526064016105a9565b6001600160a01b03841661069c5760405162461bcd60e51b815260206004820152600e60248201526d24b73b30b634b21026b4b73a32b960911b60448201526064016105a9565b6001600160a01b0383166106e85760405162461bcd60e51b8152602060048201526013602482015272496e76616c69642050726963654f7261636c6560681b60448201526064016105a9565b6001600160a01b03821661073e5760405162461bcd60e51b815260206004820152601760248201527f496e76616c696420496465616c5553444d616e6167657200000000000000000060448201526064016105a9565b6001600160a01b03811661078b5760405162461bcd60e51b8152602060048201526014602482015273125b9d985b1a5908125b9d195c995cdd141bdbdb60621b60448201526064016105a9565b5f80546001600160a01b039687166001600160a01b03199182161790915560018054958716958216959095179094556002805493861693851693909317909255600380549185169190931617909155600480546001600160a81b0319169190921617600160a01b179055565b336001600160a01b037f0000000000000000000000000000000000000000000000000000000000000000161461083f5760405162461bcd60e51b81526004016105a990610d0c565b600454600160a81b900460ff16156108995760405162461bcd60e51b815260206004820181905260248201527f5065726970686572616c20636f6e74726163747320616c72656164792073657460448201526064016105a9565b6001600160a01b0389166108e55760405162461bcd60e51b8152602060048201526013602482015272125b9d985b1a590811985c9b5a5b99d41bdbdb606a1b60448201526064016105a9565b6001600160a01b03881661092b5760405162461bcd60e51b815260206004820152600d60248201526c125b9d985b1a59081cdd109511609a1b60448201526064016105a9565b6001600160a01b0387166109715760405162461bcd60e51b815260206004820152600d60248201526c24b73b30b634b21039ba212a2160991b60448201526064016105a9565b6001600160a01b0386166109ba5760405162461bcd60e51b815260206004820152601060248201526f24b73b30b634b21023b7bb32b93737b960811b60448201526064016105a9565b6001600160a01b038516610a055760405162461bcd60e51b8152602060048201526012602482015271496e76616c696420545741504f7261636c6560701b60448201526064016105a9565b6001600160a01b038416610a545760405162461bcd60e51b8152602060048201526016602482015275496e76616c696420506f6f6c20574254432f5553444360501b60448201526064016105a9565b6001600160a01b038316610aa25760405162461bcd60e51b8152602060048201526015602482015274496e76616c696420506f6f6c204254442f5553444360581b60448201526064016105a9565b6001600160a01b038216610aef5760405162461bcd60e51b8152602060048201526014602482015273125b9d985b1a5908141bdbdb081095108bd0951160621b60448201526064016105a9565b6001600160a01b038116610b3c5760405162461bcd60e51b8152602060048201526014602482015273125b9d985b1a5908141bdbdb08109494cbd0951160621b60448201526064016105a9565b600580546001600160a01b03199081166001600160a01b039b8c1617909155600680548216998b1699909917909855600780548916978a16979097179096556008805488169589169590951790945560098054871693881693909317909255600a80548616918716919091179055600b80548516918616919091179055600c80548416918516919091179055600d8054909216921691909117905560048054600160a81b60ff60a81b19909116179055565b80356001600160a01b0381168114610c04575f5ffd5b919050565b5f5f5f5f5f60a08688031215610c1d575f5ffd5b610c2686610bee565b9450610c3460208701610bee565b9350610c4260408701610bee565b9250610c5060608701610bee565b9150610c5e60808701610bee565b90509295509295909350565b5f5f5f5f5f5f5f5f5f6101208a8c031215610c83575f5ffd5b610c8c8a610bee565b9850610c9a60208b01610bee565b9750610ca860408b01610bee565b9650610cb660608b01610bee565b9550610cc460808b01610bee565b9450610cd260a08b01610bee565b9350610ce060c08b01610bee565b9250610cee60e08b01610bee565b9150610cfd6101008b01610bee565b90509295985092959850929598565b60208082526022908201527f436f6e666967436f72653a2063616c6c6572206973206e6f74206465706c6f7960408201526132b960f11b60608201526080019056fea264697066735822122040c0097ecebe4ff82ea43d0b42a6eb46f16a82026fb4cd8bc66ead5d3bc7c65d64736f6c634300081e0033",
  "linkReferences": {},
  "deployedLinkReferences": {},
  "immutableReferences": {
    "5": [
      {
        "length": 32,
        "start": 1305
      },
      {
        "length": 32,
        "start": 1388
      },
      {
        "length": 32,
        "start": 2050
      }
    ],
    "21": [
      {
        "length": 32,
        "start": 804
      }
    ],
    "24": [
      {
        "length": 32,
        "start": 707
      }
    ],
    "27": [
      {
        "length": 32,
        "start": 746
      }
    ],
    "30": [
      {
        "length": 32,
        "start": 591
      }
    ],
    "33": [
      {
        "length": 32,
        "start": 1111
      }
    ],
    "36": [
      {
        "length": 32,
        "start": 1053
      }
    ],
    "39": [
      {
        "length": 32,
        "start": 1266
      }
    ],
    "63": [
      {
        "length": 32,
        "start": 1227
      }
    ],
    "66": [
      {
        "length": 32,
        "start": 1150
      }
    ],
    "69": [
      {
        "length": 32,
        "start": 552
      }
    ],
    "72": [
      {
        "length": 32,
        "start": 898
      }
    ],
    "75": [
      {
        "length": 32,
        "start": 1014
      }
    ]
  },
  "inputSourceName": "project/contracts/ConfigCore.sol",
  "buildInfoId": "solc-0_8_30-87ddc4861fafb110be571c66c6cf6bfd919f516a"
}