{
  "_format": "hh3-artifact-1",
  "contractName": "Minter",
  "sourceName": "contracts/Minter.sol",
  "abi": [
    {
      "inputs": [
        {
          "internalType": "address",
          "name": "initialOwner",
          "type": "address"
        },
        {
          "internalType": "address",
          "name": "_core",
          "type": "address"
        },
        {
          "internalType": "address",
          "name": "_gov",
          "type": "address"
        }
      ],
      "stateMutability": "nonpayable",
      "type": "constructor"
    },
    {
      "inputs": [],
      "name": "EnforcedPause",
      "type": "error"
    },
    {
      "inputs": [],
      "name": "ExpectedPause",
      "type": "error"
    },
    {
      "inputs": [
        {
          "internalType": "address",
          "name": "owner",
          "type": "address"
        }
      ],
      "name": "OwnableInvalidOwner",
      "type": "error"
    },
    {
      "inputs": [
        {
          "internalType": "address",
          "name": "account",
          "type": "address"
        }
      ],
      "name": "OwnableUnauthorizedAccount",
      "type": "error"
    },
    {
      "inputs": [],
      "name": "ReentrancyGuardReentrantCall",
      "type": "error"
    },
    {
      "inputs": [
        {
          "internalType": "address",
          "name": "token",
          "type": "address"
        }
      ],
      "name": "SafeERC20FailedOperation",
      "type": "error"
    },
    {
      "anonymous": false,
      "inputs": [
        {
          "indexed": true,
          "internalType": "address",
          "name": "user",
          "type": "address"
        },
        {
          "indexed": false,
          "internalType": "uint256",
          "name": "btbAmount",
          "type": "uint256"
        },
        {
          "indexed": false,
          "internalType": "uint256",
          "name": "btdAmount",
          "type": "uint256"
        }
      ],
      "name": "BTBRedeemed",
      "type": "event"
    },
    {
      "anonymous": false,
      "inputs": [
        {
          "indexed": true,
          "internalType": "address",
          "name": "user",
          "type": "address"
        },
        {
          "indexed": false,
          "internalType": "uint256",
          "name": "wbtcAmount",
          "type": "uint256"
        },
        {
          "indexed": false,
          "internalType": "uint256",
          "name": "btdAmount",
          "type": "uint256"
        },
        {
          "indexed": false,
          "internalType": "uint256",
          "name": "fee",
          "type": "uint256"
        }
      ],
      "name": "BTDMinted",
      "type": "event"
    },
    {
      "anonymous": false,
      "inputs": [
        {
          "indexed": true,
          "internalType": "address",
          "name": "user",
          "type": "address"
        },
        {
          "indexed": false,
          "internalType": "uint256",
          "name": "btdAmount",
          "type": "uint256"
        },
        {
          "indexed": false,
          "internalType": "uint256",
          "name": "wbtcAmount",
          "type": "uint256"
        },
        {
          "indexed": false,
          "internalType": "uint256",
          "name": "btbAmount",
          "type": "uint256"
        },
        {
          "indexed": false,
          "internalType": "uint256",
          "name": "brsAmount",
          "type": "uint256"
        }
      ],
      "name": "BTDRedeemed",
      "type": "event"
    },
    {
      "anonymous": false,
      "inputs": [
        {
          "indexed": true,
          "internalType": "address",
          "name": "oldConfigGov",
          "type": "address"
        },
        {
          "indexed": true,
          "internalType": "address",
          "name": "newConfigGov",
          "type": "address"
        }
      ],
      "name": "ConfigGovUpdated",
      "type": "event"
    },
    {
      "anonymous": false,
      "inputs": [
        {
          "indexed": true,
          "internalType": "address",
          "name": "previousOwner",
          "type": "address"
        },
        {
          "indexed": true,
          "internalType": "address",
          "name": "newOwner",
          "type": "address"
        }
      ],
      "name": "OwnershipTransferred",
      "type": "event"
    },
    {
      "anonymous": false,
      "inputs": [
        {
          "indexed": false,
          "internalType": "address",
          "name": "account",
          "type": "address"
        }
      ],
      "name": "Paused",
      "type": "event"
    },
    {
      "anonymous": false,
      "inputs": [
        {
          "indexed": false,
          "internalType": "address",
          "name": "account",
          "type": "address"
        }
      ],
      "name": "Unpaused",
      "type": "event"
    },
    {
      "inputs": [
        {
          "internalType": "uint256",
          "name": "btdAmount",
          "type": "uint256"
        }
      ],
      "name": "calculateBurnAmount",
      "outputs": [
        {
          "internalType": "uint256",
          "name": "wbtcAmount",
          "type": "uint256"
        },
        {
          "internalType": "uint256",
          "name": "fee",
          "type": "uint256"
        }
      ],
      "stateMutability": "view",
      "type": "function"
    },
    {
      "inputs": [
        {
          "internalType": "uint256",
          "name": "wbtcAmount",
          "type": "uint256"
        }
      ],
      "name": "calculateMintAmount",
      "outputs": [
        {
          "internalType": "uint256",
          "name": "btdAmount",
          "type": "uint256"
        },
        {
          "internalType": "uint256",
          "name": "fee",
          "type": "uint256"
        }
      ],
      "stateMutability": "view",
      "type": "function"
    },
    {
      "inputs": [],
      "name": "configCore",
      "outputs": [
        {
          "internalType": "address",
          "name": "",
          "type": "address"
        }
      ],
      "stateMutability": "view",
      "type": "function"
    },
    {
      "inputs": [],
      "name": "configGov",
      "outputs": [
        {
          "internalType": "address",
          "name": "",
          "type": "address"
        }
      ],
      "stateMutability": "view",
      "type": "function"
    },
    {
      "inputs": [],
      "name": "core",
      "outputs": [
        {
          "internalType": "contract ConfigCore",
          "name": "",
          "type": "address"
        }
      ],
      "stateMutability": "view",
      "type": "function"
    },
    {
      "inputs": [],
      "name": "getCollateralRatio",
      "outputs": [
        {
          "internalType": "uint256",
          "name": "",
          "type": "uint256"
        }
      ],
      "stateMutability": "view",
      "type": "function"
    },
    {
      "inputs": [],
      "name": "getSystemInfo",
      "outputs": [
        {
          "internalType": "uint256",
          "name": "_totalBTD",
          "type": "uint256"
        },
        {
          "internalType": "uint256",
          "name": "_totalWBTC",
          "type": "uint256"
        },
        {
          "internalType": "uint256",
          "name": "_collateralRatio",
          "type": "uint256"
        },
        {
          "internalType": "uint256",
          "name": "_wbtcPrice",
          "type": "uint256"
        },
        {
          "internalType": "uint256",
          "name": "_btbPrice",
          "type": "uint256"
        },
        {
          "internalType": "uint256",
          "name": "_brsPrice",
          "type": "uint256"
        }
      ],
      "stateMutability": "view",
      "type": "function"
    },
    {
      "inputs": [],
      "name": "gov",
      "outputs": [
        {
          "internalType": "contract ConfigGov",
          "name": "",
          "type": "address"
        }
      ],
      "stateMutability": "view",
      "type": "function"
    },
    {
      "inputs": [
        {
          "internalType": "uint256",
          "name": "wbtcAmount",
          "type": "uint256"
        }
      ],
      "name": "mintBTD",
      "outputs": [],
      "stateMutability": "nonpayable",
      "type": "function"
    },
    {
      "inputs": [],
      "name": "owner",
      "outputs": [
        {
          "internalType": "address",
          "name": "",
          "type": "address"
        }
      ],
      "stateMutability": "view",
      "type": "function"
    },
    {
      "inputs": [],
      "name": "pause",
      "outputs": [],
      "stateMutability": "nonpayable",
      "type": "function"
    },
    {
      "inputs": [],
      "name": "paused",
      "outputs": [
        {
          "internalType": "bool",
          "name": "",
          "type": "bool"
        }
      ],
      "stateMutability": "view",
      "type": "function"
    },
    {
      "inputs": [
        {
          "internalType": "uint256",
          "name": "btbAmount",
          "type": "uint256"
        }
      ],
      "name": "redeemBTB",
      "outputs": [],
      "stateMutability": "nonpayable",
      "type": "function"
    },
    {
      "inputs": [
        {
          "internalType": "uint256",
          "name": "btbAmount",
          "type": "uint256"
        },
        {
          "internalType": "uint256",
          "name": "deadline",
          "type": "uint256"
        },
        {
          "internalType": "uint8",
          "name": "v",
          "type": "uint8"
        },
        {
          "internalType": "bytes32",
          "name": "r",
          "type": "bytes32"
        },
        {
          "internalType": "bytes32",
          "name": "s",
          "type": "bytes32"
        }
      ],
      "name": "redeemBTBWithPermit",
      "outputs": [],
      "stateMutability": "nonpayable",
      "type": "function"
    },
    {
      "inputs": [
        {
          "internalType": "uint256",
          "name": "btdAmount",
          "type": "uint256"
        }
      ],
      "name": "redeemBTD",
      "outputs": [],
      "stateMutability": "nonpayable",
      "type": "function"
    },
    {
      "inputs": [
        {
          "internalType": "uint256",
          "name": "btdAmount",
          "type": "uint256"
        },
        {
          "internalType": "uint256",
          "name": "deadline",
          "type": "uint256"
        },
        {
          "internalType": "uint8",
          "name": "v",
          "type": "uint8"
        },
        {
          "internalType": "bytes32",
          "name": "r",
          "type": "bytes32"
        },
        {
          "internalType": "bytes32",
          "name": "s",
          "type": "bytes32"
        }
      ],
      "name": "redeemBTDWithPermit",
      "outputs": [],
      "stateMutability": "nonpayable",
      "type": "function"
    },
    {
      "inputs": [],
      "name": "renounceOwnership",
      "outputs": [],
      "stateMutability": "nonpayable",
      "type": "function"
    },
    {
      "inputs": [],
      "name": "totalBTD",
      "outputs": [
        {
          "internalType": "uint256",
          "name": "",
          "type": "uint256"
        }
      ],
      "stateMutability": "view",
      "type": "function"
    },
    {
      "inputs": [],
      "name": "totalStBTDEquivalent",
      "outputs": [
        {
          "internalType": "uint256",
          "name": "",
          "type": "uint256"
        }
      ],
      "stateMutability": "view",
      "type": "function"
    },
    {
      "inputs": [],
      "name": "totalWBTC",
      "outputs": [
        {
          "internalType": "uint256",
          "name": "",
          "type": "uint256"
        }
      ],
      "stateMutability": "view",
      "type": "function"
    },
    {
      "inputs": [
        {
          "internalType": "address",
          "name": "newOwner",
          "type": "address"
        }
      ],
      "name": "transferOwnership",
      "outputs": [],
      "stateMutability": "nonpayable",
      "type": "function"
    },
    {
      "inputs": [],
      "name": "unpause",
      "outputs": [],
      "stateMutability": "nonpayable",
      "type": "function"
    },
    {
      "inputs": [
        {
          "internalType": "address",
          "name": "newGov",
          "type": "address"
        }
      ],
      "name": "upgradeGov",
      "outputs": [],
      "stateMutability": "nonpayable",
      "type": "function"
    }
  ],
  "bytecode": "0x60a060405234801561000f575f5ffd5b5060405161340838038061340883398101604081905261002e916101cf565b60015f55826001600160a01b03811661006157604051631e4fbdf760e01b81525f60048201526024015b60405180910390fd5b61006a81610163565b506001600160a01b0383166100b15760405162461bcd60e51b815260206004820152600d60248201526c24b73b30b634b21037bbb732b960991b6044820152606401610058565b6001600160a01b0382166100f65760405162461bcd60e51b815260206004820152600c60248201526b496e76616c696420636f726560a01b6044820152606401610058565b6001600160a01b03811661013a5760405162461bcd60e51b815260206004820152600b60248201526a24b73b30b634b21033b7bb60a91b6044820152606401610058565b6001600160a01b03918216608052600280546001600160a01b031916919092161790555061020f565b600180546001600160a01b038381166001600160a01b0319831681179093556040519116919082907f8be0079c531659141344cd1fd0a4f28419497f9722a3daafe3b4186f6b6457e0905f90a35050565b80516001600160a01b03811681146101ca575f5ffd5b919050565b5f5f5f606084860312156101e1575f5ffd5b6101ea846101b4565b92506101f8602085016101b4565b9150610206604085016101b4565b90509250925092565b6080516131406102c85f395f818161014d015281816102f8015281816103640152818161047c015281816105ed015281816107c4015281816108d201528181610d5301528181610de501528181610e6801528181610fcc015281816112740152818161153301528181611617015281816116a501528181611793015281816118720152818161190c015281816119f501528181611b4401528181611d8301528181611e5d015281816128110152612c7d01526131405ff3fe608060405234801561000f575f5ffd5b5060043610610147575f3560e01c80637d30c3e5116100bf578063afdfe22c11610079578063afdfe22c146102c5578063cd377c53146102d8578063d013c45c146102e0578063f2f4eb26146102f3578063f2fde38b1461031a578063f5ead5001461032d575f5ffd5b80637d30c3e5146102615780637e3a0e4914610289578063839643521461029c5780638456cb59146102a45780638da5cb5b146102ac5780639f8aaf2e146102bd575f5ffd5b80636465eb1b116101105780636465eb1b146101d75780636cb1f108146101e85780636cb69f42146101fb578063715018a61461023057806373c395f0146102385780637cdf4e201461024b575f5ffd5b806285ffc81461014b57806312d43a511461018a5780633f4ba83a1461019d5780634afb19c7146101a75780635c975abb146101ba575b5f5ffd5b7f00000000000000000000000000000000000000000000000000000000000000005b6040516001600160a01b0390911681526020015b60405180910390f35b60025461016d906001600160a01b031681565b6101a5610340565b005b6101a56101b5366004612ef8565b610352565b600154600160a01b900460ff166040519015158152602001610181565b6002546001600160a01b031661016d565b6101a56101f6366004612ef8565b610460565b610203610568565b604080519687526020870195909552938501929092526060840152608083015260a082015260c001610181565b6101a56105b2565b6101a5610246366004612f42565b6105c3565b6102536105e9565b604051908152602001610181565b61027461026f366004612f42565b6106d2565b60408051928352602083019190915201610181565b6101a5610297366004612f42565b61079c565b6102536107c0565b6101a56108bf565b6001546001600160a01b031661016d565b6102536108cf565b6101a56102d3366004612f6d565b6109b4565b610253610a56565b6102746102ee366004612f42565b610a87565b61016d7f000000000000000000000000000000000000000000000000000000000000000081565b6101a5610328366004612f6d565b610c35565b6101a561033b366004612f42565b610c6f565b61034861116d565b61035061119a565b565b61035a6111ef565b610362611217565b7f00000000000000000000000000000000000000000000000000000000000000006001600160a01b031663457404776040518163ffffffff1660e01b8152600401602060405180830381865afa1580156103be573d5f5f3e3d5ffd5b505050506040513d601f19601f820116820180604052508101906103e29190612f88565b6001600160a01b031663d505accf333088888888886040518863ffffffff1660e01b81526004016104199796959493929190612fa3565b5f604051808303815f87803b158015610430575f5ffd5b505af1158015610442573d5f5f3e3d5ffd5b505050506104503386611242565b61045960015f55565b5050505050565b6104686111ef565b610470611217565b61047a3386611b38565b7f00000000000000000000000000000000000000000000000000000000000000006001600160a01b03166346caf5e86040518163ffffffff1660e01b8152600401602060405180830381865afa1580156104d6573d5f5f3e3d5ffd5b505050506040513d601f19601f820116820180604052508101906104fa9190612f88565b6001600160a01b031663d505accf333088888888886040518863ffffffff1660e01b81526004016105319796959493929190612fa3565b5f604051808303815f87803b158015610548575f5ffd5b505af115801561055a573d5f5f3e3d5ffd5b505050506104503386611c6f565b5f5f5f5f5f5f6105766108cf565b95506105806105e9565b945061058a610a56565b9350610594611f76565b925061059e611fba565b91506105a8611ffe565b9050909192939495565b6105ba61116d565b6103505f612042565b6105cb6111ef565b6105d3611217565b6105dd3382611242565b6105e660015f55565b50565b5f5f7f00000000000000000000000000000000000000000000000000000000000000006001600160a01b0316632d2c55656040518163ffffffff1660e01b8152600401602060405180830381865afa158015610647573d5f5f3e3d5ffd5b505050506040513d601f19601f8201168201806040525081019061066b9190612f88565b6001600160a01b031662113e086040518163ffffffff1660e01b8152600401606060405180830381865afa1580156106a5573d5f5f3e3d5ffd5b505050506040513d601f19601f820116820180604052508101906106c99190612fe4565b50909392505050565b5f5f5f6040518060a001604052808581526020016106ee611f76565b81526020016106fb612093565b81526020016107086108cf565b81526002546040805163faa24f0760e01b815290516020938401936001600160a01b039093169263faa24f0792600480820193918290030181865afa158015610753573d5f5f3e3d5ffd5b505050506040513d601f19601f82011682018060405250810190610777919061300f565b905290505f610785826120d7565b905080602001518160400151935093505050915091565b6107a46111ef565b6107ac611217565b6107b63382611b38565b6105dd3382611c6f565b5f5f7f00000000000000000000000000000000000000000000000000000000000000006001600160a01b0316633c9ac7226040518163ffffffff1660e01b8152600401602060405180830381865afa15801561081e573d5f5f3e3d5ffd5b505050506040513d601f19601f820116820180604052508101906108429190612f88565b90506001600160a01b038116610859575f91505090565b806001600160a01b03166301e1d1146040518163ffffffff1660e01b8152600401602060405180830381865afa158015610895573d5f5f3e3d5ffd5b505050506040513d601f19601f820116820180604052508101906108b9919061300f565b91505090565b6108c761116d565b6103506122c0565b5f7f00000000000000000000000000000000000000000000000000000000000000006001600160a01b031663457404776040518163ffffffff1660e01b8152600401602060405180830381865afa15801561092c573d5f5f3e3d5ffd5b505050506040513d601f19601f820116820180604052508101906109509190612f88565b6001600160a01b03166318160ddd6040518163ffffffff1660e01b8152600401602060405180830381865afa15801561098b573d5f5f3e3d5ffd5b505050506040513d601f19601f820116820180604052508101906109af919061300f565b905090565b6109bc61116d565b6001600160a01b038116610a055760405162461bcd60e51b815260206004820152600b60248201526a24b73b30b634b21033b7bb60a91b60448201526064015b60405180910390fd5b600280546001600160a01b038381166001600160a01b0319831681179093556040519116919082907f0870bbd72fb4f68eb9594677170b39d662b8e8fdbea303ad31cf5e092a309d37905f90a35050565b5f6109af610a626105e9565b610a6a611f76565b610a726108cf565b610a7a6107c0565b610a82612093565b612303565b5f5f5f610a92611f76565b90505f610a9d612093565b90505f610aaa838361241d565b90505f6040518061012001604052808881526020018581526020018481526020018381526020015f81526020015f81526020015f81526020015f815260200160025f9054906101000a90046001600160a01b03166001600160a01b03166340bb8a016040518163ffffffff1660e01b8152600401602060405180830381865afa158015610b39573d5f5f3e3d5ffd5b505050506040513d601f19601f82011682018060405250810190610b5d919061300f565b90529050670de0b6b3a7640000821015610c0a57610b79612449565b6080820152610b86611fba565b60a0820152610b93611ffe565b60c08201526002546040805163b646b3ed60e01b815290516001600160a01b039092169163b646b3ed916004808201926020929091908290030181865afa158015610be0573d5f5f3e3d5ffd5b505050506040513d601f19601f82011682018060405250810190610c04919061300f565b60e08201525b5f610c148261248d565b9050610c22815f01516127a7565b9650806060015195505050505050915091565b610c3d61116d565b6001600160a01b038116610c6657604051631e4fbdf760e01b81525f60048201526024016109fc565b6105e681612042565b610c776111ef565b610c7f611217565b610c876127b7565b610c8f61280e565b610c9881612903565b5f6040518060a00160405280838152602001610cb2611f76565b8152602001610cbf612093565b8152602001610ccc6108cf565b81526002546040805163faa24f0760e01b815290516020938401936001600160a01b039093169263faa24f0792600480820193918290030181865afa158015610d17573d5f5f3e3d5ffd5b505050506040513d601f19601f82011682018060405250810190610d3b919061300f565b905290505f610d49826120d7565b9050610de23330857f00000000000000000000000000000000000000000000000000000000000000006001600160a01b0316634dede3de6040518163ffffffff1660e01b8152600401602060405180830381865afa158015610dad573d5f5f3e3d5ffd5b505050506040513d601f19601f82011682018060405250810190610dd19190612f88565b6001600160a01b03169291906129a9565b5f7f00000000000000000000000000000000000000000000000000000000000000006001600160a01b0316634dede3de6040518163ffffffff1660e01b8152600401602060405180830381865afa158015610e3f573d5f5f3e3d5ffd5b505050506040513d601f19601f82011682018060405250810190610e639190612f88565b90505f7f00000000000000000000000000000000000000000000000000000000000000006001600160a01b0316632d2c55656040518163ffffffff1660e01b8152600401602060405180830381865afa158015610ec2573d5f5f3e3d5ffd5b505050506040513d601f19601f82011682018060405250810190610ee69190612f88565b604051636eb1769f60e11b81523060048201526001600160a01b038083166024830152919250869184169063dd62ed3e90604401602060405180830381865afa158015610f35573d5f5f3e3d5ffd5b505050506040513d601f19601f82011682018060405250810190610f59919061300f565b1015610f7457610f746001600160a01b038316825f19612a10565b60405163737ec20f60e01b8152600481018690526001600160a01b0382169063737ec20f906024015f604051808303815f87803b158015610fb3575f5ffd5b505af1158015610fc5573d5f5f3e3d5ffd5b505050505f7f00000000000000000000000000000000000000000000000000000000000000006001600160a01b031663457404776040518163ffffffff1660e01b8152600401602060405180830381865afa158015611026573d5f5f3e3d5ffd5b505050506040513d601f19601f8201168201806040525081019061104a9190612f88565b60208501516040516340c10f1960e01b81529192506001600160a01b038316916340c10f199161107f91339190600401613026565b5f604051808303815f87803b158015611096575f5ffd5b505af11580156110a8573d5f5f3e3d5ffd5b505050506040840151156111155760408085015190516340c10f1960e01b81526001600160a01b038316916340c10f19916110e7918691600401613026565b5f604051808303815f87803b1580156110fe575f5ffd5b505af1158015611110573d5f5f3e3d5ffd5b505050505b60208085015160408087015181518a81529384019290925282015233907f5f712ba89a0d3487fa5ceb1f89f3c3b293086cf7ca27a9e0a00eaf7e918bc7429060600160405180910390a250505050506105e660015f55565b6001546001600160a01b031633146103505760405163118cdaa760e01b81523360048201526024016109fc565b6111a2612aa0565b6001805460ff60a01b191690557f5db9ee0a495bf2e6ff9c91a7834c1ba4fdd244a5e8aa4e537bd38aeae4b073aa335b6040516001600160a01b03909116815260200160405180910390a1565b60025f540361121157604051633ee5aeb560e01b815260040160405180910390fd5b60025f55565b600154600160a01b900460ff16156103505760405163d93c066560e01b815260040160405180910390fd5b61124a612aca565b61125261280e565b5f81116112715760405162461bcd60e51b81526004016109fc9061303f565b807f00000000000000000000000000000000000000000000000000000000000000006001600160a01b031663457404776040518163ffffffff1660e01b8152600401602060405180830381865afa1580156112ce573d5f5f3e3d5ffd5b505050506040513d601f19601f820116820180604052508101906112f29190612f88565b6040516370a0823160e01b81526001600160a01b03858116600483015291909116906370a0823190602401602060405180830381865afa158015611338573d5f5f3e3d5ffd5b505050506040513d601f19601f8201168201806040525081019061135c919061300f565b101561139b5760405162461bcd60e51b815260206004820152600e60248201526d139bdd08195b9bdd59da0810951160921b60448201526064016109fc565b6113a481612b09565b5f6113ad611f76565b90505f6113b8612093565b90505f6113c5838361241d565b90505f6040518061012001604052808681526020018581526020018481526020018381526020015f81526020015f81526020015f81526020015f815260200160025f9054906101000a90046001600160a01b03166001600160a01b03166340bb8a016040518163ffffffff1660e01b8152600401602060405180830381865afa158015611454573d5f5f3e3d5ffd5b505050506040513d601f19601f82011682018060405250810190611478919061300f565b90529050670de0b6b3a764000082101561152557611494612449565b60808201526114a1611fba565b60a08201526114ae611ffe565b60c08201526002546040805163b646b3ed60e01b815290516001600160a01b039092169163b646b3ed916004808201926020929091908290030181865afa1580156114fb573d5f5f3e3d5ffd5b505050506040513d601f19601f8201168201806040525081019061151f919061300f565b60e08201525b5f61152f8261248d565b90507f00000000000000000000000000000000000000000000000000000000000000006001600160a01b031663457404776040518163ffffffff1660e01b8152600401602060405180830381865afa15801561158d573d5f5f3e3d5ffd5b505050506040513d601f19601f820116820180604052508101906115b19190612f88565b6001600160a01b03166379cc679088886040518363ffffffff1660e01b81526004016115de929190613026565b5f604051808303815f87803b1580156115f5575f5ffd5b505af1158015611607573d5f5f3e3d5ffd5b50505050606081015115611773577f00000000000000000000000000000000000000000000000000000000000000006001600160a01b031663457404776040518163ffffffff1660e01b8152600401602060405180830381865afa158015611671573d5f5f3e3d5ffd5b505050506040513d601f19601f820116820180604052508101906116959190612f88565b6001600160a01b03166340c10f197f00000000000000000000000000000000000000000000000000000000000000006001600160a01b0316632d2c55656040518163ffffffff1660e01b8152600401602060405180830381865afa1580156116ff573d5f5f3e3d5ffd5b505050506040513d601f19601f820116820180604052508101906117239190612f88565b83606001516040518363ffffffff1660e01b8152600401611745929190613026565b5f604051808303815f87803b15801561175c575f5ffd5b505af115801561176e573d5f5f3e3d5ffd5b505050505b5f611780825f01516127a7565b905080156119005761179181612903565b7f00000000000000000000000000000000000000000000000000000000000000006001600160a01b0316632d2c55656040518163ffffffff1660e01b8152600401602060405180830381865afa1580156117ed573d5f5f3e3d5ffd5b505050506040513d601f19601f820116820180604052508101906118119190612f88565b6001600160a01b03166320ce0c8c826040518263ffffffff1660e01b815260040161183e91815260200190565b5f604051808303815f87803b158015611855575f5ffd5b505af1158015611867573d5f5f3e3d5ffd5b5050505061190088827f00000000000000000000000000000000000000000000000000000000000000006001600160a01b0316634dede3de6040518163ffffffff1660e01b8152600401602060405180830381865afa1580156118cc573d5f5f3e3d5ffd5b505050506040513d601f19601f820116820180604052508101906118f09190612f88565b6001600160a01b03169190612ba8565b6040820151156119e9577f00000000000000000000000000000000000000000000000000000000000000006001600160a01b0316632d2c55656040518163ffffffff1660e01b8152600401602060405180830381865afa158015611966573d5f5f3e3d5ffd5b505050506040513d601f19601f8201168201806040525081019061198a9190612f88565b6001600160a01b0316638a1bd7c08984604001516040518363ffffffff1660e01b81526004016119bb929190613026565b5f604051808303815f87803b1580156119d2575f5ffd5b505af11580156119e4573d5f5f3e3d5ffd5b505050505b602082015115611ad2577f00000000000000000000000000000000000000000000000000000000000000006001600160a01b03166346caf5e86040518163ffffffff1660e01b8152600401602060405180830381865afa158015611a4f573d5f5f3e3d5ffd5b505050506040513d601f19601f82011682018060405250810190611a739190612f88565b6001600160a01b03166340c10f198984602001516040518363ffffffff1660e01b8152600401611aa4929190613026565b5f604051808303815f87803b158015611abb575f5ffd5b505af1158015611acd573d5f5f3e3d5ffd5b505050505b60208083015160408085015181518b81529384018590529083019190915260608201526001600160a01b038916907ff76df2f7b054a57fbdfc47eb1ad33bc2c9026822f76b262e40d8fccdcf838abf906080015b60405180910390a25050505050505050565b611b4181612b09565b807f00000000000000000000000000000000000000000000000000000000000000006001600160a01b03166346caf5e86040518163ffffffff1660e01b8152600401602060405180830381865afa158015611b9e573d5f5f3e3d5ffd5b505050506040513d601f19601f82011682018060405250810190611bc29190612f88565b6040516370a0823160e01b81526001600160a01b03858116600483015291909116906370a0823190602401602060405180830381865afa158015611c08573d5f5f3e3d5ffd5b505050506040513d601f19601f82011682018060405250810190611c2c919061300f565b1015611c6b5760405162461bcd60e51b815260206004820152600e60248201526d2737ba1032b737bab3b410212a2160911b60448201526064016109fc565b5050565b611c776127b7565b611c7f61280e565b5f611c88611f76565b90505f611c93612093565b90505f611ca0838361241d565b9050670de0b6b3a7640000811015611cfa5760405162461bcd60e51b815260206004820152601b60248201527f43523c313030252c20425442206e6f742072656465656d61626c65000000000060448201526064016109fc565b5f611d0c611d066105e9565b85612bd3565b90505f611d28611d1a6108cf565b611d226107c0565b86612bfa565b90505f611d36838387612c3f565b905080871115611d815760405162461bcd60e51b815260206004820152601660248201527545786365656473206d61782072656465656d61626c6560501b60448201526064016109fc565b7f00000000000000000000000000000000000000000000000000000000000000006001600160a01b03166346caf5e86040518163ffffffff1660e01b8152600401602060405180830381865afa158015611ddd573d5f5f3e3d5ffd5b505050506040513d601f19601f82011682018060405250810190611e019190612f88565b6001600160a01b03166379cc679089896040518363ffffffff1660e01b8152600401611e2e929190613026565b5f604051808303815f87803b158015611e45575f5ffd5b505af1158015611e57573d5f5f3e3d5ffd5b505050507f00000000000000000000000000000000000000000000000000000000000000006001600160a01b031663457404776040518163ffffffff1660e01b8152600401602060405180830381865afa158015611eb7573d5f5f3e3d5ffd5b505050506040513d601f19601f82011682018060405250810190611edb9190612f88565b6001600160a01b03166340c10f1989896040518363ffffffff1660e01b8152600401611f08929190613026565b5f604051808303815f87803b158015611f1f575f5ffd5b505af1158015611f31573d5f5f3e3d5ffd5b5050604080518a8152602081018b90526001600160a01b038c1693507f1aabf03ade694c7ca13898e320a6f9e6559172d4d78235f3bf03e549ce77012e925001611b26565b5f611f7f612c79565b6001600160a01b031663fa7d826a6040518163ffffffff1660e01b8152600401602060405180830381865afa15801561098b573d5f5f3e3d5ffd5b5f611fc3612c79565b6001600160a01b031663a0e8d3566040518163ffffffff1660e01b8152600401602060405180830381865afa15801561098b573d5f5f3e3d5ffd5b5f612007612c79565b6001600160a01b03166322f9f2276040518163ffffffff1660e01b8152600401602060405180830381865afa15801561098b573d5f5f3e3d5ffd5b600180546001600160a01b038381166001600160a01b0319831681179093556040519116919082907f8be0079c531659141344cd1fd0a4f28419497f9722a3daafe3b4186f6b6457e0905f90a35050565b5f61209c612c79565b6001600160a01b031663ae8ba6796040518163ffffffff1660e01b8152600401602060405180830381865afa15801561098b573d5f5f3e3d5ffd5b61210a6040518060c001604052805f81526020015f81526020015f81526020015f81526020015f81526020015f81525090565b81516121285760405162461bcd60e51b81526004016109fc9061303f565b5f8260200151116121705760405162461bcd60e51b8152602060048201526012602482015271496e76616c6964205742544320707269636560701b60448201526064016109fc565b5f8260400151116121b85760405162461bcd60e51b8152602060048201526012602482015271496e76616c6964204955534420707269636560701b60448201526064016109fc565b81516121ca906402540be4009061307b565b60a0820181905260208301516121e99190670de0b6b3a7640000612d4e565b80825266038d7ea4c6800011156122395760405162461bcd60e51b8152602060048201526014602482015273135a5b9d081d985b1d59481d1bdbc81cdb585b1b60621b60448201526064016109fc565b612253815f0151670de0b6b3a76400008460400151612d4e565b60608201819052608083015161226c9190612710612d4e565b6040820181905260608201516122829190613092565b6020820152606080820151908301515f9161229c916130a5565b90506122b5818460400151670de0b6b3a7640000612d4e565b608083015250919050565b6122c8611217565b6001805460ff60a01b1916600160a01b1790557f62e78cea01bee320cd4e420270b5ea74000d11b0c9f74754ebdbfc544b05a2586111d23390565b5f8061230f84866130a5565b905086158061231c575080155b1561233257670de0b6b3a7640000915050612414565b5f61233d8888612bd3565b90505f61234b878787612bfa565b905066038d7ea4c680008210156123a45760405162461bcd60e51b815260206004820152601a60248201527f436f6c6c61746572616c2076616c756520746f6f20736d616c6c00000000000060448201526064016109fc565b66038d7ea4c680008110156123fb5760405162461bcd60e51b815260206004820152601960248201527f4c696162696c6974792076616c756520746f6f20736d616c6c0000000000000060448201526064016109fc565b61240e82670de0b6b3a764000083612d4e565b93505050505b95945050505050565b5f6124406124296105e9565b846124326108cf565b61243a6107c0565b86612303565b90505b92915050565b5f612452612c79565b6001600160a01b031663ff8336ff6040518163ffffffff1660e01b8152600401602060405180830381865afa15801561098b573d5f5f3e3d5ffd5b6124b460405180608001604052805f81526020015f81526020015f81526020015f81525090565b81516124d25760405162461bcd60e51b81526004016109fc9061303f565b5f82602001511180156124e857505f8260400151115b6125245760405162461bcd60e51b815260206004820152600d60248201526c496e76616c696420707269636560981b60448201526064016109fc565b612539825f0151836101000151612710612d4e565b6060820181905282515f9161254d91613092565b90505f612567828560400151670de0b6b3a7640000612d4e565b905066038d7ea4c680008110156125b95760405162461bcd60e51b815260206004820152601660248201527514995919595b481d985b1d59481d1bdbc81cdb585b1b60521b60448201526064016109fc565b670de0b6b3a76400008460600151106125ed576125e381670de0b6b3a76400008660200151612d4e565b8352509092915050565b5f8460e0015111801561260357505f8460800151115b801561261257505f8460a00151115b61265e5760405162461bcd60e51b815260206004820152601760248201527f496e76616c6964207365636f6e6461727920707269636500000000000000000060448201526064016109fc565b5f612676828660600151670de0b6b3a7640000612d4e565b905061268f81670de0b6b3a76400008760200151612d4e565b84525f81831161269f575f6126a9565b6126a98284613092565b9050805f036126bb5750505050919050565b5f6126d78760e001518860800151670de0b6b3a7640000612d4e565b9050808760a0015110612705576126fb82670de0b6b3a76400008960a00151612d4e565b602087015261279d565b61271882670de0b6b3a764000083612d4e565b602087015260c08701516127625760405162461bcd60e51b8152602060048201526011602482015270496e76616c69642042525320707269636560781b60448201526064016109fc565b5f61277d838960a00151846127779190613092565b84612d4e565b905061279681670de0b6b3a76400008a60c00151612d4e565b6040880152505b5050505050919050565b5f6124436402540be400836130cc565b6127bf612c79565b6001600160a01b031663324affc16040518163ffffffff1660e01b81526004015f604051808303815f87803b1580156127f6575f5ffd5b505af1158015612808573d5f5f3e3d5ffd5b50505050565b5f7f00000000000000000000000000000000000000000000000000000000000000006001600160a01b031663b85b92096040518163ffffffff1660e01b8152600401602060405180830381865afa15801561286b573d5f5f3e3d5ffd5b505050506040513d601f19601f8201168201806040525081019061288f9190612f88565b90506001600160a01b038116156105e657806001600160a01b0316627fc9686040518163ffffffff1660e01b81526004016020604051808303815f875af19250505080156128fa575060408051601f3d908101601f191682019092526128f7918101906130eb565b60015b156105e6575050565b60018110156129545760405162461bcd60e51b815260206004820152601860248201527f416d6f756e742062656c6f77206d696e696d756d20425443000000000000000060448201526064016109fc565b64e8d4a510008111156105e65760405162461bcd60e51b815260206004820152601760248201527f416d6f756e742065786365656473206d6178205742544300000000000000000060448201526064016109fc565b6040516001600160a01b0384811660248301528381166044830152606482018390526128089186918216906323b872dd906084015b604051602081830303815290604052915060e01b6020820180516001600160e01b038381831617835250505050612dfe565b5f836001600160a01b031663095ea7b38484604051602401612a33929190613026565b604051602081830303815290604052915060e01b6020820180516001600160e01b0383818316178352505050509050612a6c8482612e6a565b61280857612a9684856001600160a01b031663095ea7b3865f6040516024016129de929190613026565b6128088482612dfe565b600154600160a01b900460ff1661035057604051638dfc202b60e01b815260040160405180910390fd5b612ad2612c79565b6001600160a01b031663e9976d236040518163ffffffff1660e01b81526004015f604051808303815f87803b1580156127f6575f5ffd5b66038d7ea4c68000811015612b575760405162461bcd60e51b8152602060048201526014602482015273416d6f756e742062656c6f77206d696e696d756d60601b60448201526064016109fc565b6b033b2e3c9fd0803ce80000008111156105e65760405162461bcd60e51b8152602060048201526012602482015271082dadeeadce840caf0c6cacac8e640dac2f60731b60448201526064016109fc565b612bce83846001600160a01b031663a9059cbb85856040516024016129de929190613026565b505050565b5f821580612bdf575081155b15612beb57505f612443565b61244083836305f5e100612d4e565b5f80612c0684866130a5565b9050801580612c13575082155b15612c21575f915050612c38565b612c348184670de0b6b3a7640000612d4e565b9150505b9392505050565b5f5f612c4b8585612eb3565b9050801580612c58575082155b15612c66575f915050612c38565b612c3481670de0b6b3a764000085612d4e565b5f5f7f00000000000000000000000000000000000000000000000000000000000000006001600160a01b0316630a19399a6040518163ffffffff1660e01b8152600401602060405180830381865afa158015612cd7573d5f5f3e3d5ffd5b505050506040513d601f19601f82011682018060405250810190612cfb9190612f88565b90506001600160a01b038116612d495760405162461bcd60e51b8152602060048201526013602482015272141c9a58d953dc9858db19481b9bdd081cd95d606a1b60448201526064016109fc565b919050565b5f5f5f612d5b8686612ecb565b91509150815f03612d7f57838181612d7557612d756130b8565b0492505050612c38565b818411612d9657612d966003851502601118612ee7565b5f848688095f868103871696879004966002600389028118808a02820302808a02820302808a02820302808a02820302808a02820302808a02909103029181900381900460010185841190960395909502919093039390930492909217029150509392505050565b5f5f60205f8451602086015f885af180612e1d576040513d5f823e3d81fd5b50505f513d91508115612e34578060011415612e41565b6001600160a01b0384163b155b1561280857604051635274afe760e01b81526001600160a01b03851660048201526024016109fc565b5f5f5f5f60205f8651602088015f8a5af192503d91505f519050828015612ea957508115612e9b5780600114612ea9565b5f866001600160a01b03163b115b9695505050505050565b5f818311612ec1575f612440565b6124408284613092565b5f805f1983850993909202808410938190039390930393915050565b634e487b715f52806020526024601cfd5b5f5f5f5f5f60a08688031215612f0c575f5ffd5b8535945060208601359350604086013560ff81168114612f2a575f5ffd5b94979396509394606081013594506080013592915050565b5f60208284031215612f52575f5ffd5b5035919050565b6001600160a01b03811681146105e6575f5ffd5b5f60208284031215612f7d575f5ffd5b8135612c3881612f59565b5f60208284031215612f98575f5ffd5b8151612c3881612f59565b6001600160a01b0397881681529590961660208601526040850193909352606084019190915260ff16608083015260a082015260c081019190915260e00190565b5f5f5f60608486031215612ff6575f5ffd5b5050815160208301516040909301519094929350919050565b5f6020828403121561301f575f5ffd5b5051919050565b6001600160a01b03929092168252602082015260400190565b6020808252600e908201526d125b9d985b1a5908185b5bdd5b9d60921b604082015260600190565b634e487b7160e01b5f52601160045260245ffd5b808202811582820484141761244357612443613067565b8181038181111561244357612443613067565b8082018082111561244357612443613067565b634e487b7160e01b5f52601260045260245ffd5b5f826130e657634e487b7160e01b5f52601260045260245ffd5b500490565b5f602082840312156130fb575f5ffd5b81518015158114612c38575f5ffdfea26469706673582212209b86af5d0fcfc93cdab74614b8ce0370964a35a9d18c887bf16b01ba05f6364464736f6c634300081e0033",
  "linkReferences": {},
  "deployedLinkReferences": {},
  "immutableReferences": {
    "5843": [
      {
        "length": 32,
        "start": 333
      },
      {
        "length": 32,
        "start": 760
      },
      {
        "length": 32,
        "start": 868
      },
      {
        "length": 32,
        "start": 1148
      },
      {
        "length": 32,
        "start": 1517
      },
      {
        "length": 32,
        "start": 1988
      },
      {
        "length": 32,
        "start": 2258
      },
      {
        "length": 32,
        "start": 3411
      },
      {
        "length": 32,
        "start": 3557
      },
      {
        "length": 32,
        "start": 3688
      },
      {
        "length": 32,
        "start": 4044
      },
      {
        "length": 32,
        "start": 4724
      },
      {
        "length": 32,
        "start": 5427
      },
      {
        "length": 32,
        "start": 5655
      },
      {
        "length": 32,
        "start": 5797
      },
      {
        "length": 32,
        "start": 6035
      },
      {
        "length": 32,
        "start": 6258
      },
      {
        "length": 32,
        "start": 6412
      },
      {
        "length": 32,
        "start": 6645
      },
      {
        "length": 32,
        "start": 6980
      },
      {
        "length": 32,
        "start": 7555
      },
      {
        "length": 32,
        "start": 7773
      },
      {
        "length": 32,
        "start": 10257
      },
      {
        "length": 32,
        "start": 11389
      }
    ]
  },
  "inputSourceName": "project/contracts/Minter.sol",
  "buildInfoId": "solc-0_8_30-7b3988143b4651c653f2218be1558fa0982398d4"
}