{
  "_format": "hh3-artifact-1",
  "contractName": "ConfigGov",
  "sourceName": "contracts/ConfigGov.sol",
  "abi": [
    {
      "inputs": [
        {
          "internalType": "address",
          "name": "initialOwner",
          "type": "address"
        }
      ],
      "stateMutability": "nonpayable",
      "type": "constructor"
    },
    {
      "inputs": [
        {
          "internalType": "address",
          "name": "owner",
          "type": "address"
        }
      ],
      "name": "OwnableInvalidOwner",
      "type": "error"
    },
    {
      "inputs": [
        {
          "internalType": "address",
          "name": "account",
          "type": "address"
        }
      ],
      "name": "OwnableUnauthorizedAccount",
      "type": "error"
    },
    {
      "anonymous": false,
      "inputs": [
        {
          "indexed": true,
          "internalType": "enum ConfigGov.AddressParamType",
          "name": "paramType",
          "type": "uint8"
        },
        {
          "indexed": false,
          "internalType": "address",
          "name": "newValue",
          "type": "address"
        }
      ],
      "name": "AddressParamUpdated",
      "type": "event"
    },
    {
      "anonymous": false,
      "inputs": [
        {
          "indexed": true,
          "internalType": "address",
          "name": "previousOwner",
          "type": "address"
        },
        {
          "indexed": true,
          "internalType": "address",
          "name": "newOwner",
          "type": "address"
        }
      ],
      "name": "OwnershipTransferred",
      "type": "event"
    },
    {
      "anonymous": false,
      "inputs": [
        {
          "indexed": true,
          "internalType": "enum ConfigGov.ParamType",
          "name": "paramType",
          "type": "uint8"
        },
        {
          "indexed": false,
          "internalType": "uint256",
          "name": "newValue",
          "type": "uint256"
        }
      ],
      "name": "ParamUpdated",
      "type": "event"
    },
    {
      "inputs": [],
      "name": "baseRateDefault",
      "outputs": [
        {
          "internalType": "uint256",
          "name": "",
          "type": "uint256"
        }
      ],
      "stateMutability": "view",
      "type": "function"
    },
    {
      "inputs": [
        {
          "internalType": "enum ConfigGov.AddressParamType",
          "name": "paramType",
          "type": "uint8"
        }
      ],
      "name": "getAddressParam",
      "outputs": [
        {
          "internalType": "address",
          "name": "",
          "type": "address"
        }
      ],
      "stateMutability": "view",
      "type": "function"
    },
    {
      "inputs": [
        {
          "internalType": "enum ConfigGov.ParamType",
          "name": "paramType",
          "type": "uint8"
        }
      ],
      "name": "getParam",
      "outputs": [
        {
          "internalType": "uint256",
          "name": "",
          "type": "uint256"
        }
      ],
      "stateMutability": "view",
      "type": "function"
    },
    {
      "inputs": [],
      "name": "interestFeeBP",
      "outputs": [
        {
          "internalType": "uint256",
          "name": "",
          "type": "uint256"
        }
      ],
      "stateMutability": "view",
      "type": "function"
    },
    {
      "inputs": [],
      "name": "maxBTBRate",
      "outputs": [
        {
          "internalType": "uint256",
          "name": "",
          "type": "uint256"
        }
      ],
      "stateMutability": "view",
      "type": "function"
    },
    {
      "inputs": [],
      "name": "maxBTDRate",
      "outputs": [
        {
          "internalType": "uint256",
          "name": "",
          "type": "uint256"
        }
      ],
      "stateMutability": "view",
      "type": "function"
    },
    {
      "inputs": [],
      "name": "minBTBPrice",
      "outputs": [
        {
          "internalType": "uint256",
          "name": "",
          "type": "uint256"
        }
      ],
      "stateMutability": "view",
      "type": "function"
    },
    {
      "inputs": [],
      "name": "mintFeeBP",
      "outputs": [
        {
          "internalType": "uint256",
          "name": "",
          "type": "uint256"
        }
      ],
      "stateMutability": "view",
      "type": "function"
    },
    {
      "inputs": [],
      "name": "owner",
      "outputs": [
        {
          "internalType": "address",
          "name": "",
          "type": "address"
        }
      ],
      "stateMutability": "view",
      "type": "function"
    },
    {
      "inputs": [],
      "name": "pceFeed",
      "outputs": [
        {
          "internalType": "address",
          "name": "",
          "type": "address"
        }
      ],
      "stateMutability": "view",
      "type": "function"
    },
    {
      "inputs": [],
      "name": "pceMaxDeviation",
      "outputs": [
        {
          "internalType": "uint256",
          "name": "",
          "type": "uint256"
        }
      ],
      "stateMutability": "view",
      "type": "function"
    },
    {
      "inputs": [],
      "name": "redeemFeeBP",
      "outputs": [
        {
          "internalType": "uint256",
          "name": "",
          "type": "uint256"
        }
      ],
      "stateMutability": "view",
      "type": "function"
    },
    {
      "inputs": [],
      "name": "renounceOwnership",
      "outputs": [],
      "stateMutability": "nonpayable",
      "type": "function"
    },
    {
      "inputs": [
        {
          "internalType": "enum ConfigGov.AddressParamType",
          "name": "paramType",
          "type": "uint8"
        },
        {
          "internalType": "address",
          "name": "value",
          "type": "address"
        }
      ],
      "name": "setAddressParam",
      "outputs": [],
      "stateMutability": "nonpayable",
      "type": "function"
    },
    {
      "inputs": [
        {
          "internalType": "enum ConfigGov.AddressParamType[]",
          "name": "paramTypes",
          "type": "uint8[]"
        },
        {
          "internalType": "address[]",
          "name": "values",
          "type": "address[]"
        }
      ],
      "name": "setAddressParamsBatch",
      "outputs": [],
      "stateMutability": "nonpayable",
      "type": "function"
    },
    {
      "inputs": [
        {
          "internalType": "enum ConfigGov.ParamType",
          "name": "paramType",
          "type": "uint8"
        },
        {
          "internalType": "uint256",
          "name": "value",
          "type": "uint256"
        }
      ],
      "name": "setParam",
      "outputs": [],
      "stateMutability": "nonpayable",
      "type": "function"
    },
    {
      "inputs": [
        {
          "internalType": "enum ConfigGov.ParamType[]",
          "name": "paramTypes",
          "type": "uint8[]"
        },
        {
          "internalType": "uint256[]",
          "name": "values",
          "type": "uint256[]"
        }
      ],
      "name": "setParamsBatch",
      "outputs": [],
      "stateMutability": "nonpayable",
      "type": "function"
    },
    {
      "inputs": [
        {
          "internalType": "address",
          "name": "newOwner",
          "type": "address"
        }
      ],
      "name": "transferOwnership",
      "outputs": [],
      "stateMutability": "nonpayable",
      "type": "function"
    }
  ],
  "bytecode": "0x608060405234801561000f575f5ffd5b5060405161125d38038061125d83398101604081905261002e916101ac565b806001600160a01b03811661005d57604051631e4fbdf760e01b81525f60048201526024015b60405180910390fd5b6100668161015d565b506001600160a01b0381166100bd5760405162461bcd60e51b815260206004820152601560248201527f436f6e666967476f763a207a65726f206f776e657200000000000000000000006044820152606401610054565b50600160205260327fa6eef7e35abe7026729641147f7915573c7e97b47efa546f5f6e3230263bcb498190557fe2689cd4a84e23ad2f564004f1c9013e9589d260bde6380aba3ca7e09e4df40c556101f47fcc69885fda6bcc1a4ace058b4a62bf5e179ea78fd58a1ccd71c22cc9b688792f81905560075f527fdc686ec4a0ff239c70e7c7c36e8f853eced3bc8618f48d2b816da2a74311237e556101d9565b5f80546001600160a01b038381166001600160a01b0319831681178455604051919092169283917f8be0079c531659141344cd1fd0a4f28419497f9722a3daafe3b4186f6b6457e09190a35050565b5f602082840312156101bc575f5ffd5b81516001600160a01b03811681146101d2575f5ffd5b9392505050565b611077806101e65f395ff3fe608060405234801561000f575f5ffd5b5060043610610111575f3560e01c80638e43b5ee1161009e578063b79103851161006e578063b791038514610219578063c1cca2b314610221578063d8a1b89e14610234578063f2fde38b1461023c578063faa24f071461024f575f5ffd5b80638e43b5ee146101be578063a822bc39146101c6578063a9a2a715146101fe578063b646b3ed14610211575f5ffd5b806355c9fa7e116100e457806355c9fa7e146101835780635b1dd53314610196578063648429581461019e578063715018a6146101a65780638da5cb5b146101ae575f5ffd5b806303a2216d146101155780632313d26d1461013b5780632b1cb4de1461016657806340bb8a011461017b575b5f5ffd5b610128610123366004610e96565b610257565b6040519081526020015b60405180910390f35b61014e610149366004610ec4565b610293565b6040516001600160a01b039091168152602001610132565b610179610174366004610f25565b6102d3565b005b61012861048e565b610179610191366004610fa7565b6104b9565b6101286105af565b6101286105ba565b6101796105c5565b5f546001600160a01b031661014e565b6101286105d8565b5f805260026020527fac33ff75c19e70fe83507db0d683fd3465c996598dc972688b7ace676c89077b546001600160a01b031661014e565b61017961020c366004610f25565b6105e3565b6101286107f9565b610128610804565b61017961022f366004610fd8565b61080e565b610128610899565b61017961024a366004611000565b6108a4565b6101286108e1565b5f60015f83600781111561026d5761026d611019565b600781111561027e5761027e611019565b81526020019081526020015f20549050919050565b5f6002818380156102a6576102a6611019565b80156102b4576102b4611019565b815260208101919091526040015f20546001600160a01b031692915050565b6102db6108eb565b82811461032f5760405162461bcd60e51b815260206004820152601a60248201527f436f6e666967476f763a206c656e677468206d69736d6174636800000000000060448201526064015b60405180910390fd5b5f5b838110156104875761038185858381811061034e5761034e61102d565b90506020020160208101906103639190610e96565b8484848181106103755761037561102d565b90506020020135610917565b8282828181106103935761039361102d565b9050602002013560015f8787858181106103af576103af61102d565b90506020020160208101906103c49190610e96565b60078111156103d5576103d5611019565b60078111156103e6576103e6611019565b815260208101919091526040015f20558484828181106104085761040861102d565b905060200201602081019061041d9190610e96565b600781111561042e5761042e611019565b7ff0500fa4f8da99d70bd1ca878887729d3a62a8623b27b910ec6bb799dd8959188484848181106104615761046161102d565b9050602002013560405161047791815260200190565b60405180910390a2600101610331565b5050505050565b5f60018160055b60078111156104a6576104a6611019565b81526020019081526020015f2054905090565b6104c16108eb565b6001600160a01b0381166105115760405162461bcd60e51b8152602060048201526017602482015276436f6e666967476f763a207a65726f206164647265737360481b6044820152606401610326565b8060025f84801561052457610524611019565b801561053257610532611019565b815260208101919091526040015f2080546001600160a01b0319166001600160a01b039290921691909117905581801561056e5761056e611019565b6040516001600160a01b03831681527f8731777fb974867ae7f066a92ece1999df6293d483d6afed8efce7ba371acf0e906020015b60405180910390a25050565b5f6001816003610495565b5f6001816006610495565b6105cd6108eb565b6105d65f610e34565b565b5f6001816007610495565b6105eb6108eb565b82811461063a5760405162461bcd60e51b815260206004820152601a60248201527f436f6e666967476f763a206c656e677468206d69736d617463680000000000006044820152606401610326565b5f5b83811015610487575f8383838181106106575761065761102d565b905060200201602081019061066c9190611000565b6001600160a01b0316036106bc5760405162461bcd60e51b8152602060048201526017602482015276436f6e666967476f763a207a65726f206164647265737360481b6044820152606401610326565b8282828181106106ce576106ce61102d565b90506020020160208101906106e39190611000565b60025f8787858181106106f8576106f861102d565b905060200201602081019061070d9190610ec4565b801561071b5761071b611019565b801561072957610729611019565b81526020019081526020015f205f6101000a8154816001600160a01b0302191690836001600160a01b0316021790555084848281811061076b5761076b61102d565b90506020020160208101906107809190610ec4565b801561078e5761078e611019565b7f8731777fb974867ae7f066a92ece1999df6293d483d6afed8efce7ba371acf0e8484848181106107c1576107c161102d565b90506020020160208101906107d69190611000565b6040516001600160a01b03909116815260200160405180910390a260010161063c565b5f6001816002610495565b5f60018181610495565b6108166108eb565b6108208282610917565b8060015f84600781111561083657610836611019565b600781111561084757610847611019565b815260208101919091526040015f205581600781111561086957610869611019565b6040518281527ff0500fa4f8da99d70bd1ca878887729d3a62a8623b27b910ec6bb799dd895918906020016105a3565b5f6001816004610495565b6108ac6108eb565b6001600160a01b0381166108d557604051631e4fbdf760e01b81525f6004820152602401610326565b6108de81610e34565b50565b5f60018180610495565b5f546001600160a01b031633146105d65760405163118cdaa760e01b8152336004820152602401610326565b5f82600781111561092a5761092a611019565b03610985576103e88111156109815760405162461bcd60e51b815260206004820152601c60248201527f436f6e666967476f763a206d696e742066656520746f6f2068696768000000006044820152606401610326565b5050565b600182600781111561099957610999611019565b036109f0576107d08111156109815760405162461bcd60e51b815260206004820181905260248201527f436f6e666967476f763a20696e7465726573742066656520746f6f20686967686044820152606401610326565b6005826007811115610a0457610a04611019565b03610a5b576103e88111156109815760405162461bcd60e51b815260206004820152601e60248201527f436f6e666967476f763a2072656465656d2066656520746f6f206869676800006044820152606401610326565b6002826007811115610a6f57610a6f611019565b03610b2e5767016345785d8a0000811015610acc5760405162461bcd60e51b815260206004820181905260248201527f436f6e666967476f763a206d696e2042544220707269636520746f6f206c6f776044820152606401610326565b670de0b6b3a76400008111156109815760405162461bcd60e51b815260206004820152602160248201527f436f6e666967476f763a206d696e2042544220707269636520746f6f206869676044820152600d60fb1b6064820152608401610326565b6003826007811115610b4257610b42611019565b03610bea576064811015610b985760405162461bcd60e51b815260206004820152601f60248201527f436f6e666967476f763a206d617820425442207261746520746f6f206c6f77006044820152606401610326565b610bb88111156109815760405162461bcd60e51b815260206004820181905260248201527f436f6e666967476f763a206d617820425442207261746520746f6f20686967686044820152606401610326565b6006826007811115610bfe57610bfe611019565b03610ca6576064811015610c545760405162461bcd60e51b815260206004820152601f60248201527f436f6e666967476f763a206d617820425444207261746520746f6f206c6f77006044820152606401610326565b610bb88111156109815760405162461bcd60e51b815260206004820181905260248201527f436f6e666967476f763a206d617820425444207261746520746f6f20686967686044820152606401610326565b6004826007811115610cba57610cba611019565b03610d785766038d7ea4c68000811015610d165760405162461bcd60e51b815260206004820181905260248201527f436f6e666967476f763a2050434520646576696174696f6e20746f6f206c6f776044820152606401610326565b67016345785d8a00008111156109815760405162461bcd60e51b815260206004820152602160248201527f436f6e666967476f763a2050434520646576696174696f6e20746f6f206869676044820152600d60fb1b6064820152608401610326565b6007826007811115610d8c57610d8c611019565b03610981576064811015610de25760405162461bcd60e51b815260206004820152601c60248201527f436f6e666967476f763a2062617365207261746520746f6f206c6f77000000006044820152606401610326565b6103e88111156109815760405162461bcd60e51b815260206004820152601d60248201527f436f6e666967476f763a2062617365207261746520746f6f20686967680000006044820152606401610326565b5f80546001600160a01b038381166001600160a01b0319831681178455604051919092169283917f8be0079c531659141344cd1fd0a4f28419497f9722a3daafe3b4186f6b6457e09190a35050565b803560088110610e91575f5ffd5b919050565b5f60208284031215610ea6575f5ffd5b610eaf82610e83565b9392505050565b803560018110610e91575f5ffd5b5f60208284031215610ed4575f5ffd5b610eaf82610eb6565b5f5f83601f840112610eed575f5ffd5b50813567ffffffffffffffff811115610f04575f5ffd5b6020830191508360208260051b8501011115610f1e575f5ffd5b9250929050565b5f5f5f5f60408587031215610f38575f5ffd5b843567ffffffffffffffff811115610f4e575f5ffd5b610f5a87828801610edd565b909550935050602085013567ffffffffffffffff811115610f79575f5ffd5b610f8587828801610edd565b95989497509550505050565b80356001600160a01b0381168114610e91575f5ffd5b5f5f60408385031215610fb8575f5ffd5b610fc183610eb6565b9150610fcf60208401610f91565b90509250929050565b5f5f60408385031215610fe9575f5ffd5b610ff283610e83565b946020939093013593505050565b5f60208284031215611010575f5ffd5b610eaf82610f91565b634e487b7160e01b5f52602160045260245ffd5b634e487b7160e01b5f52603260045260245ffdfea264697066735822122050f84b947747067e88a8b55d53c00286df0556589fd16a3b1547a7bb884dbd6e64736f6c634300081e0033",
  "linkReferences": {},
  "deployedLinkReferences": {},
  "immutableReferences": {},
  "inputSourceName": "project/contracts/ConfigGov.sol",
  "buildInfoId": "solc-0_8_30-190f59101df16194c24598e512e4d11a43ddbfb3"
}