{
  "_format": "hh3-artifact-1",
  "contractName": "InterestPool",
  "sourceName": "contracts/InterestPool.sol",
  "abi": [
    {
      "inputs": [
        {
          "internalType": "address",
          "name": "initialOwner",
          "type": "address"
        },
        {
          "internalType": "address",
          "name": "_core",
          "type": "address"
        },
        {
          "internalType": "address",
          "name": "_gov",
          "type": "address"
        },
        {
          "internalType": "address",
          "name": "_rateOracle",
          "type": "address"
        }
      ],
      "stateMutability": "nonpayable",
      "type": "constructor"
    },
    {
      "inputs": [
        {
          "internalType": "address",
          "name": "owner",
          "type": "address"
        }
      ],
      "name": "OwnableInvalidOwner",
      "type": "error"
    },
    {
      "inputs": [
        {
          "internalType": "address",
          "name": "account",
          "type": "address"
        }
      ],
      "name": "OwnableUnauthorizedAccount",
      "type": "error"
    },
    {
      "inputs": [],
      "name": "ReentrancyGuardReentrantCall",
      "type": "error"
    },
    {
      "inputs": [
        {
          "internalType": "address",
          "name": "token",
          "type": "address"
        }
      ],
      "name": "SafeERC20FailedOperation",
      "type": "error"
    },
    {
      "anonymous": false,
      "inputs": [
        {
          "indexed": false,
          "internalType": "uint256",
          "name": "oldRateBps",
          "type": "uint256"
        },
        {
          "indexed": false,
          "internalType": "uint256",
          "name": "newRateBps",
          "type": "uint256"
        },
        {
          "indexed": false,
          "internalType": "uint256",
          "name": "price",
          "type": "uint256"
        },
        {
          "indexed": false,
          "internalType": "int256",
          "name": "dailyChangeBps",
          "type": "int256"
        }
      ],
      "name": "BTBAnnualRateUpdated",
      "type": "event"
    },
    {
      "anonymous": false,
      "inputs": [
        {
          "indexed": false,
          "internalType": "uint256",
          "name": "oldRateBps",
          "type": "uint256"
        },
        {
          "indexed": false,
          "internalType": "uint256",
          "name": "newRateBps",
          "type": "uint256"
        }
      ],
      "name": "BTDAnnualRateUpdated",
      "type": "event"
    },
    {
      "anonymous": false,
      "inputs": [
        {
          "indexed": true,
          "internalType": "address",
          "name": "user",
          "type": "address"
        },
        {
          "indexed": true,
          "internalType": "address",
          "name": "token",
          "type": "address"
        },
        {
          "indexed": false,
          "internalType": "uint256",
          "name": "amount",
          "type": "uint256"
        }
      ],
      "name": "InterestClaimed",
      "type": "event"
    },
    {
      "anonymous": false,
      "inputs": [
        {
          "indexed": false,
          "internalType": "bool",
          "name": "btdUpdated",
          "type": "bool"
        },
        {
          "indexed": false,
          "internalType": "bool",
          "name": "btbUpdated",
          "type": "bool"
        }
      ],
      "name": "LazyRateUpdateAttempted",
      "type": "event"
    },
    {
      "anonymous": false,
      "inputs": [
        {
          "indexed": true,
          "internalType": "address",
          "name": "previousOwner",
          "type": "address"
        },
        {
          "indexed": true,
          "internalType": "address",
          "name": "newOwner",
          "type": "address"
        }
      ],
      "name": "OwnershipTransferred",
      "type": "event"
    },
    {
      "anonymous": false,
      "inputs": [
        {
          "indexed": true,
          "internalType": "address",
          "name": "newOracle",
          "type": "address"
        }
      ],
      "name": "RateOracleUpdated",
      "type": "event"
    },
    {
      "anonymous": false,
      "inputs": [
        {
          "indexed": true,
          "internalType": "address",
          "name": "user",
          "type": "address"
        },
        {
          "indexed": true,
          "internalType": "address",
          "name": "token",
          "type": "address"
        },
        {
          "indexed": false,
          "internalType": "uint256",
          "name": "amount",
          "type": "uint256"
        }
      ],
      "name": "Staked",
      "type": "event"
    },
    {
      "anonymous": false,
      "inputs": [
        {
          "indexed": true,
          "internalType": "address",
          "name": "token",
          "type": "address"
        },
        {
          "indexed": false,
          "internalType": "uint256",
          "name": "amount",
          "type": "uint256"
        }
      ],
      "name": "TreasuryFeeMinted",
      "type": "event"
    },
    {
      "anonymous": false,
      "inputs": [
        {
          "indexed": true,
          "internalType": "address",
          "name": "user",
          "type": "address"
        },
        {
          "indexed": true,
          "internalType": "address",
          "name": "token",
          "type": "address"
        },
        {
          "indexed": false,
          "internalType": "uint256",
          "name": "amount",
          "type": "uint256"
        }
      ],
      "name": "Withdrawn",
      "type": "event"
    },
    {
      "inputs": [],
      "name": "btbLastPrice",
      "outputs": [
        {
          "internalType": "uint256",
          "name": "",
          "type": "uint256"
        }
      ],
      "stateMutability": "view",
      "type": "function"
    },
    {
      "inputs": [],
      "name": "btbLastRateUpdate",
      "outputs": [
        {
          "internalType": "uint256",
          "name": "",
          "type": "uint256"
        }
      ],
      "stateMutability": "view",
      "type": "function"
    },
    {
      "inputs": [],
      "name": "btbPool",
      "outputs": [
        {
          "internalType": "contract IMintableERC20",
          "name": "token",
          "type": "address"
        },
        {
          "internalType": "uint256",
          "name": "totalStaked",
          "type": "uint256"
        },
        {
          "internalType": "uint256",
          "name": "accInterestPerShare",
          "type": "uint256"
        },
        {
          "internalType": "uint256",
          "name": "lastAccrual",
          "type": "uint256"
        },
        {
          "internalType": "uint256",
          "name": "annualRateBps",
          "type": "uint256"
        }
      ],
      "stateMutability": "view",
      "type": "function"
    },
    {
      "inputs": [],
      "name": "btdLastPrice",
      "outputs": [
        {
          "internalType": "uint256",
          "name": "",
          "type": "uint256"
        }
      ],
      "stateMutability": "view",
      "type": "function"
    },
    {
      "inputs": [],
      "name": "btdLastRateUpdate",
      "outputs": [
        {
          "internalType": "uint256",
          "name": "",
          "type": "uint256"
        }
      ],
      "stateMutability": "view",
      "type": "function"
    },
    {
      "inputs": [],
      "name": "btdPool",
      "outputs": [
        {
          "internalType": "contract IMintableERC20",
          "name": "token",
          "type": "address"
        },
        {
          "internalType": "uint256",
          "name": "totalStaked",
          "type": "uint256"
        },
        {
          "internalType": "uint256",
          "name": "accInterestPerShare",
          "type": "uint256"
        },
        {
          "internalType": "uint256",
          "name": "lastAccrual",
          "type": "uint256"
        },
        {
          "internalType": "uint256",
          "name": "annualRateBps",
          "type": "uint256"
        }
      ],
      "stateMutability": "view",
      "type": "function"
    },
    {
      "inputs": [],
      "name": "core",
      "outputs": [
        {
          "internalType": "contract ConfigCore",
          "name": "",
          "type": "address"
        }
      ],
      "stateMutability": "view",
      "type": "function"
    },
    {
      "inputs": [],
      "name": "getBTBPrice",
      "outputs": [
        {
          "internalType": "uint256",
          "name": "",
          "type": "uint256"
        }
      ],
      "stateMutability": "view",
      "type": "function"
    },
    {
      "inputs": [],
      "name": "gov",
      "outputs": [
        {
          "internalType": "contract ConfigGov",
          "name": "",
          "type": "address"
        }
      ],
      "stateMutability": "view",
      "type": "function"
    },
    {
      "inputs": [],
      "name": "owner",
      "outputs": [
        {
          "internalType": "address",
          "name": "",
          "type": "address"
        }
      ],
      "stateMutability": "view",
      "type": "function"
    },
    {
      "inputs": [],
      "name": "rateOracle",
      "outputs": [
        {
          "internalType": "address",
          "name": "",
          "type": "address"
        }
      ],
      "stateMutability": "view",
      "type": "function"
    },
    {
      "inputs": [],
      "name": "renounceOwnership",
      "outputs": [],
      "stateMutability": "nonpayable",
      "type": "function"
    },
    {
      "inputs": [
        {
          "internalType": "address",
          "name": "newOracle",
          "type": "address"
        }
      ],
      "name": "setRateOracle",
      "outputs": [],
      "stateMutability": "nonpayable",
      "type": "function"
    },
    {
      "inputs": [
        {
          "internalType": "uint256",
          "name": "amount",
          "type": "uint256"
        }
      ],
      "name": "stakeBTB",
      "outputs": [],
      "stateMutability": "nonpayable",
      "type": "function"
    },
    {
      "inputs": [
        {
          "internalType": "uint256",
          "name": "amount",
          "type": "uint256"
        }
      ],
      "name": "stakeBTD",
      "outputs": [],
      "stateMutability": "nonpayable",
      "type": "function"
    },
    {
      "inputs": [
        {
          "internalType": "address",
          "name": "token",
          "type": "address"
        }
      ],
      "name": "totalStaked",
      "outputs": [
        {
          "internalType": "uint256",
          "name": "",
          "type": "uint256"
        }
      ],
      "stateMutability": "view",
      "type": "function"
    },
    {
      "inputs": [
        {
          "internalType": "address",
          "name": "newOwner",
          "type": "address"
        }
      ],
      "name": "transferOwnership",
      "outputs": [],
      "stateMutability": "nonpayable",
      "type": "function"
    },
    {
      "inputs": [],
      "name": "tryUpdateRates",
      "outputs": [
        {
          "internalType": "bool",
          "name": "btdUpdated",
          "type": "bool"
        },
        {
          "internalType": "bool",
          "name": "btbUpdated",
          "type": "bool"
        }
      ],
      "stateMutability": "nonpayable",
      "type": "function"
    },
    {
      "inputs": [
        {
          "internalType": "uint256",
          "name": "amount",
          "type": "uint256"
        }
      ],
      "name": "unstakeBTB",
      "outputs": [],
      "stateMutability": "nonpayable",
      "type": "function"
    },
    {
      "inputs": [
        {
          "internalType": "uint256",
          "name": "amount",
          "type": "uint256"
        }
      ],
      "name": "unstakeBTD",
      "outputs": [],
      "stateMutability": "nonpayable",
      "type": "function"
    },
    {
      "inputs": [],
      "name": "updateBTBAnnualRate",
      "outputs": [],
      "stateMutability": "nonpayable",
      "type": "function"
    },
    {
      "inputs": [],
      "name": "updateBTBRateLazy",
      "outputs": [],
      "stateMutability": "nonpayable",
      "type": "function"
    },
    {
      "inputs": [],
      "name": "updateBTDAnnualRate",
      "outputs": [],
      "stateMutability": "nonpayable",
      "type": "function"
    },
    {
      "inputs": [],
      "name": "updateBTDRateLazy",
      "outputs": [],
      "stateMutability": "nonpayable",
      "type": "function"
    },
    {
      "inputs": [
        {
          "internalType": "address",
          "name": "newGov",
          "type": "address"
        }
      ],
      "name": "upgradeGov",
      "outputs": [],
      "stateMutability": "nonpayable",
      "type": "function"
    },
    {
      "inputs": [
        {
          "internalType": "address",
          "name": "token",
          "type": "address"
        },
        {
          "internalType": "address",
          "name": "user",
          "type": "address"
        }
      ],
      "name": "userStaked",
      "outputs": [
        {
          "internalType": "uint256",
          "name": "",
          "type": "uint256"
        }
      ],
      "stateMutability": "view",
      "type": "function"
    }
  ],
  "bytecode": "0x60a060405234801561000f575f5ffd5b5060405161302e38038061302e83398101604081905261002e9161044d565b836001600160a01b03811661005d57604051631e4fbdf760e01b81525f60048201526024015b60405180910390fd5b610066816103e3565b50600180556001600160a01b0384166100c15760405162461bcd60e51b815260206004820152601b60248201527f496e746572657374506f6f6c3a20696e76616c6964206f776e657200000000006044820152606401610054565b6001600160a01b0383166101175760405162461bcd60e51b815260206004820152601760248201527f496e746572657374506f6f6c3a20636f7265207a65726f0000000000000000006044820152606401610054565b6001600160a01b03821661016d5760405162461bcd60e51b815260206004820152601660248201527f496e746572657374506f6f6c3a20676f76207a65726f000000000000000000006044820152606401610054565b6001600160a01b0381166101c35760405162461bcd60e51b815260206004820152601e60248201527f496e746572657374506f6f6c3a2072617465206f7261636c65207a65726f00006044820152606401610054565b6001600160a01b038381166080819052600280546001600160a01b031990811686851617909155600380549091169284169290921790915560408051634574047760e01b815290515f929163457404779160048083019260209291908290030181865afa158015610236573d5f5f3e3d5ffd5b505050506040513d601f19601f8201168201806040525081019061025a919061049e565b90505f6080516001600160a01b03166346caf5e86040518163ffffffff1660e01b8152600401602060405180830381865afa15801561029b573d5f5f3e3d5ffd5b505050506040513d601f19601f820116820180604052508101906102bf919061049e565b90506001600160a01b038216158015906102e157506001600160a01b03811615155b61032d5760405162461bcd60e51b815260206004820152601760248201527f546f6b656e20616464726573736573206e6f74207365740000000000000000006044820152606401610054565b6040805160a080820183526001600160a01b039485168083525f60208085018290528486018290524260608087018290526101f46080978801819052600480546001600160a01b031990811690971790556005859055600685905560078390556008819055885196870189529890991680865291850183905295840182905296830185905291909201849052600980549092169094179055600a839055600b92909255600c91909155600d55506104be92505050565b5f80546001600160a01b038381166001600160a01b0319831681178455604051919092169283917f8be0079c531659141344cd1fd0a4f28419497f9722a3daafe3b4186f6b6457e09190a35050565b80516001600160a01b0381168114610448575f5ffd5b919050565b5f5f5f5f60808587031215610460575f5ffd5b61046985610432565b935061047760208601610432565b925061048560408601610432565b915061049360608601610432565b905092959194509250565b5f602082840312156104ae575f5ffd5b6104b782610432565b9392505050565b608051612b3c6104f25f395f81816103630152818161131101528181611498015281816118d80152611b520152612b3c5ff3fe608060405234801561000f575f5ffd5b5060043610610187575f3560e01c80638da5cb5b116100d9578063b8e380f811610093578063dd9698281161006e578063dd96982814610356578063f2f4eb261461035e578063f2fde38b14610385578063f94cc96e14610398575f5ffd5b8063b8e380f81461030d578063c19da1ae14610320578063cf3c99bd14610343575f5ffd5b80638da5cb5b146102675780639546ed711461027757806398f4b1b2146102cc5780639bfd8d61146102df578063a0e8d356146102f2578063afdfe22c146102fa575f5ffd5b80636fe1e80c116101445780637771dad51161011f5780637771dad51461023a57806377badb1d1461024d57806380d58bd3146102565780638d1a0de01461025f575f5ffd5b80636fe1e80c14610216578063715018a61461021f578063776f8a5a14610227575f5ffd5b806312d43a511461018b5780631b4f9ea6146101bb5780633eabfb75146101c55780634342fef5146101d85780634cd301e6146101f7578063582d69761461020e575b5f5ffd5b60025461019e906001600160a01b031681565b6040516001600160a01b0390911681526020015b60405180910390f35b6101c36103ab565b005b6101c36101d33660046128ea565b61058d565b6101e06107d3565b6040805192151583529015156020830152016101b2565b61020060105481565b6040519081526020016101b2565b6101c3610838565b61020060135481565b6101c3610a17565b6101c36102353660046128ea565b610a2a565b610200610248366004612915565b610bf7565b61020060125481565b61020060115481565b6101c3610c6a565b5f546001600160a01b031661019e565b60045460055460065460075460085461029a946001600160a01b03169392919085565b604080516001600160a01b0390961686526020860194909452928401919091526060830152608082015260a0016101b2565b60035461019e906001600160a01b031681565b6102006102ed36600461294c565b610cae565b610200610cf3565b6101c361030836600461294c565b610d01565b6101c361031b3660046128ea565b610d6f565b600954600a54600b54600c54600d5461029a946001600160a01b03169392919085565b6101c361035136600461294c565b610fa2565b6101c3611049565b61019e7f000000000000000000000000000000000000000000000000000000000000000081565b6101c361039336600461294c565b61108d565b6101c36103a63660046128ea565b6110c7565b6003546001600160a01b0316331461040a5760405162461bcd60e51b815260206004820152601e60248201527f496e746572657374506f6f6c3a206f6e6c792072617465206f7261636c65000060448201526064015b60405180910390fd5b601154156104725762015180601154610423919061297b565b4210156104725760405162461bcd60e51b815260206004820152601e60248201527f425444207261746520616c7265616479207570646174656420746f64617900006044820152606401610401565b61047c6004611285565b5f61048561130d565b90505f610490611494565b90505f61049b6115a2565b6008549091505f6104ad858585611631565b90505f60025f9054906101000a90046001600160a01b03166001600160a01b031663648429586040518163ffffffff1660e01b8152600401602060405180830381865afa158015610500573d5f5f3e3d5ffd5b505050506040513d601f19601f82011682018060405250810190610524919061298e565b90505f8111801561053457508082115b1561053d578091505b600882905560108690554260115560408051848152602081018490527f973c7d0d2ed53931e2bf2dbca70381aea00d0ab42d00e9dffce83537368c989091015b60405180910390a1505050505050565b61059561173c565b66038d7ea4c680008110156105e75760405162461bcd60e51b8152602060048201526018602482015277155b9cdd185ad948185b5bdd5b9d081d1bdbc81cdb585b1b60421b6044820152606401610401565b6b033b2e3c9fd0803ce800000081111561063e5760405162461bcd60e51b8152602060048201526018602482015277556e7374616b6520616d6f756e7420746f6f206c6172676560401b6044820152606401610401565b610646611766565b506106516009611285565b335f908152600f602052604081209061066b6009836117ea565b90505f81835f015461067d919061297b565b9050838110156106c95760405162461bcd60e51b8152602060048201526017602482015276556e7374616b6520657863656564732062616c616e636560481b6044820152606401610401565b5f5f6106d6868585611801565b9092509050811561071f576106ed6009338461185c565b6009546040518381526001600160a01b039091169033905f516020612ae75f395f51905f529060200160405180910390a35b80156107b15780855f015f82825461073791906129a5565b9091555050600a80548291905f906107509084906129a5565b909155505060095461076c906001600160a01b03163383611a60565b6009546040518281526001600160a01b039091169033907fd1c19fbcd4551a5edfb66d43d2e337c04837afda3482b42bdf569a8fccdae5fb9060200160405180910390a35b8454600b546107c09190611abf565b6001958601555050509080555050565b50565b5f5f6107dd611aea565b91506107e7611766565b905081806107f25750805b156108345760408051831515815282151560208201527fd85c788c7d40d71fd88f5bd178f19120a05b44d1188fa961daf480ea816b40ba910160405180910390a15b9091565b6003546001600160a01b031633146108925760405162461bcd60e51b815260206004820152601e60248201527f496e746572657374506f6f6c3a206f6e6c792072617465206f7261636c6500006044820152606401610401565b601354156108fa57620151806013546108ab919061297b565b4210156108fa5760405162461bcd60e51b815260206004820152601e60248201527f425442207261746520616c7265616479207570646174656420746f64617900006044820152606401610401565b6109046009611285565b5f61090d611b4e565b90505f610918611494565b90505f6109236115a2565b600d549091505f610935858585611c7f565b90505f60025f9054906101000a90046001600160a01b03166001600160a01b0316635b1dd5336040518163ffffffff1660e01b8152600401602060405180830381865afa158015610988573d5f5f3e3d5ffd5b505050506040513d601f19601f820116820180604052508101906109ac919061298e565b90505f811180156109bc57508082115b156109c5578091505b600d82905560128690554260135560408051848152602081018490529081018790525f60608201527fbbfe72c2052fa04992a0a35b724247054c2f1834da975dd9660e72d44932190d9060800161057d565b610a1f611d70565b610a285f611d9c565b565b610a3261173c565b66038d7ea4c68000811015610a825760405162461bcd60e51b815260206004820152601660248201527514dd185ad948185b5bdd5b9d081d1bdbc81cdb585b1b60521b6044820152606401610401565b6b033b2e3c9fd0803ce8000000811115610ad75760405162461bcd60e51b81526020600482015260166024820152755374616b6520616d6f756e7420746f6f206c6172676560501b6044820152606401610401565b610adf611aea565b50610aea6004611285565b335f908152600e6020526040812090610b046004836117ea565b600454909150610b1f906001600160a01b0316333086611deb565b82825f015f828254610b31919061297b565b9091555050600580548491905f90610b4a90849061297b565b90915550508154600654610b5e9190611abf565b60018301558015610ba757610b756004338361185c565b6004546040518281526001600160a01b039091169033905f516020612ae75f395f51905f529060200160405180910390a35b6004546040518481526001600160a01b039091169033907f5dac0c1b1112564a045ba943c9d50270893e8e826c49be8e7073adc713ab7bd7906020015b60405180910390a350506107d060018055565b6004545f906001600160a01b0390811690841603610c2d57506001600160a01b0381165f908152600e6020526040902054610c64565b6009546001600160a01b0390811690841603610c6157506001600160a01b0381165f908152600f6020526040902054610c64565b505f5b92915050565b3330146108fa5760405162461bcd60e51b815260206004820152601260248201527113db9b1e481a5b9d195c9b985b0818d85b1b60721b6044820152606401610401565b6004545f906001600160a01b0390811690831603610cce57505060055490565b6009546001600160a01b0390811690831603610cec575050600a5490565b505f919050565b5f610cfc611b4e565b905090565b610d09611d70565b6001600160a01b038116610d4d5760405162461bcd60e51b815260206004820152600b60248201526a24b73b30b634b21033b7bb60a91b6044820152606401610401565b600280546001600160a01b0319166001600160a01b0392909216919091179055565b610d7761173c565b66038d7ea4c68000811015610dc95760405162461bcd60e51b8152602060048201526018602482015277155b9cdd185ad948185b5bdd5b9d081d1bdbc81cdb585b1b60421b6044820152606401610401565b6b033b2e3c9fd0803ce8000000811115610e205760405162461bcd60e51b8152602060048201526018602482015277556e7374616b6520616d6f756e7420746f6f206c6172676560401b6044820152606401610401565b610e28611aea565b50610e336004611285565b335f908152600e6020526040812090610e4d6004836117ea565b90505f81835f0154610e5f919061297b565b905083811015610eab5760405162461bcd60e51b8152602060048201526017602482015276556e7374616b6520657863656564732062616c616e636560481b6044820152606401610401565b5f5f610eb8868585611801565b90925090508115610f0157610ecf6004338461185c565b6004546040518381526001600160a01b039091169033905f516020612ae75f395f51905f529060200160405180910390a35b8015610f935780855f015f828254610f1991906129a5565b9091555050600580548291905f90610f329084906129a5565b9091555050600454610f4e906001600160a01b03163383611a60565b6004546040518281526001600160a01b039091169033907fd1c19fbcd4551a5edfb66d43d2e337c04837afda3482b42bdf569a8fccdae5fb9060200160405180910390a35b84546006546107c09190611abf565b610faa611d70565b6001600160a01b0381166110005760405162461bcd60e51b815260206004820152601960248201527f496e746572657374506f6f6c3a207a65726f206f7261636c65000000000000006044820152606401610401565b600380546001600160a01b0319166001600160a01b0383169081179091556040517f2fdc9a614911eb083a1bf7a4fcc09658aa41d3bb8ffca5846a50dcc21827c964905f90a250565b3330146104725760405162461bcd60e51b815260206004820152601260248201527113db9b1e481a5b9d195c9b985b0818d85b1b60721b6044820152606401610401565b611095611d70565b6001600160a01b0381166110be57604051631e4fbdf760e01b81525f6004820152602401610401565b6107d081611d9c565b6110cf61173c565b66038d7ea4c6800081101561111f5760405162461bcd60e51b815260206004820152601660248201527514dd185ad948185b5bdd5b9d081d1bdbc81cdb585b1b60521b6044820152606401610401565b6b033b2e3c9fd0803ce80000008111156111745760405162461bcd60e51b81526020600482015260166024820152755374616b6520616d6f756e7420746f6f206c6172676560501b6044820152606401610401565b61117c611766565b506111876009611285565b335f908152600f60205260408120906111a16009836117ea565b6009549091506111bc906001600160a01b0316333086611deb565b82825f015f8282546111ce919061297b565b9091555050600a80548491905f906111e790849061297b565b90915550508154600b546111fb9190611abf565b60018301558015611244576112126009338361185c565b6009546040518281526001600160a01b039091169033905f516020612ae75f395f51905f529060200160405180910390a35b6009546040518481526001600160a01b039091169033907f5dac0c1b1112564a045ba943c9d50270893e8e826c49be8e7073adc713ab7bd790602001610be4565b428160030154036112935750565b600181015415806112a657506004810154155b156112b45742600390910155565b5f8160030154426112c591906129a5565b9050805f036112d2575050565b5f6112e1836004015483611e2a565b905080156113025780836002015f8282546112fc919061297b565b90915550505b505042600390910155565b5f5f7f00000000000000000000000000000000000000000000000000000000000000006001600160a01b0316630a19399a6040518163ffffffff1660e01b8152600401602060405180830381865afa15801561136b573d5f5f3e3d5ffd5b505050506040513d601f19601f8201168201806040525081019061138f91906129b8565b90505f816001600160a01b031663ff8336ff6040518163ffffffff1660e01b8152600401602060405180830381865afa1580156113ce573d5f5f3e3d5ffd5b505050506040513d601f19601f820116820180604052508101906113f2919061298e565b90505f826001600160a01b031663ae8ba6796040518163ffffffff1660e01b8152600401602060405180830381865afa158015611431573d5f5f3e3d5ffd5b505050506040513d601f19601f82011682018060405250810190611455919061298e565b9050805f0361146f57670de0b6b3a7640000935050505090565b80611482670de0b6b3a7640000846129d3565b61148c91906129fe565b935050505090565b5f5f7f00000000000000000000000000000000000000000000000000000000000000006001600160a01b031663fe6d81246040518163ffffffff1660e01b8152600401602060405180830381865afa1580156114f2573d5f5f3e3d5ffd5b505050506040513d601f19601f8201168201806040525081019061151691906129b8565b90506001600160a01b03811661153557670de0b6b3a764000091505090565b806001600160a01b031663cd377c536040518163ffffffff1660e01b8152600401602060405180830381865afa92505050801561158f575060408051601f3d908101601f1916820190925261158c9181019061298e565b60015b610c6457670de0b6b3a764000091505090565b5f5f60025f9054906101000a90046001600160a01b03166001600160a01b0316638e43b5ee6040518163ffffffff1660e01b8152600401602060405180830381865afa1580156115f4573d5f5f3e3d5ffd5b505050506040513d601f19601f82011682018060405250810190611618919061298e565b90505f8111611629576101f461162b565b805b91505090565b5f5f61163d8484611e8f565b905060c881101561164c575060c85b6103e881111561165b57506103e85b6103e8811061166f576103e8915050611735565b5f61167c826103e8611ecf565b90505f611691670de0b6b3a764000088612a11565b90505f6116c16116aa670de0b6b3a764000060196129d3565b6116b384611f59565b670de0b6b3a7640000611f74565b6116ca90612a37565b90505f8213156116e0576116dd81612a37565b90505b5f6116eb8483612a51565b90505f6116f782612024565b905061170e6103e882670de0b6b3a7640000611f74565b965060c887101561171e5760c896505b6103e887111561172e576103e896505b5050505050505b9392505050565b60026001540361175f57604051633ee5aeb560e01b815260040160405180910390fd5b6002600155565b5f6013545f14158015611788575062015180601354611785919061297b565b42105b1561179257505f90565b306001600160a01b0316638d1a0de06040518163ffffffff1660e01b81526004015f604051808303815f87803b1580156117ca575f5ffd5b505af19250505080156117db575060015b6117e457505f90565b50600190565b5f611735825f0154846002015484600101546120c2565b5f5f845f0361181457505f905080611854565b82158061181f575083155b1561182e57505f905083611854565b611839858585611f74565b915084821115611847578491505b61185182866129a5565b90505b935093915050565b82546040516340c10f1960e01b81526001600160a01b03848116600483015260248201849052909116906340c10f19906044015f604051808303815f87803b1580156118a6575f5ffd5b505af11580156118b8573d5f5f3e3d5ffd5b505060045485546001600160a01b039182169116039150611a5b9050575f7f00000000000000000000000000000000000000000000000000000000000000006001600160a01b0316632d2c55656040518163ffffffff1660e01b8152600401602060405180830381865afa158015611932573d5f5f3e3d5ffd5b505050506040513d601f19601f8201168201806040525081019061195691906129b8565b90506001600160a01b0381166119a15760405162461bcd60e51b815260206004820152601060248201526f151c99585cdd5c9e481b9bdd081cd95d60821b6044820152606401610401565b5f6119ae836103e8612107565b90508015611a585784546040516340c10f1960e01b81526001600160a01b03848116600483015260248201849052909116906340c10f19906044015f604051808303815f87803b158015611a00575f5ffd5b505af1158015611a12573d5f5f3e3d5ffd5b505086546040518481526001600160a01b0390911692507f851bbbb7772d1b73589565502484a41b75a658c4b5cd68238eb206cdc4da161d915060200160405180910390a25b50505b505050565b6040516001600160a01b03838116602483015260448201839052611a5b91859182169063a9059cbb906064015b604051602081830303815290604052915060e01b6020820180516001600160e01b03838183161783525050505061212c565b5f821580611acb575081155b15611ad757505f610c64565b6117358383670de0b6b3a7640000611f74565b5f6011545f14158015611b0c575062015180601154611b09919061297b565b42105b15611b1657505f90565b306001600160a01b031663dd9698286040518163ffffffff1660e01b81526004015f604051808303815f87803b1580156117ca575f5ffd5b5f5f7f00000000000000000000000000000000000000000000000000000000000000006001600160a01b0316630a19399a6040518163ffffffff1660e01b8152600401602060405180830381865afa158015611bac573d5f5f3e3d5ffd5b505050506040513d601f19601f82011682018060405250810190611bd091906129b8565b90506001600160a01b038116611c1e5760405162461bcd60e51b8152602060048201526013602482015272141c9a58d953dc9858db19481b9bdd081cd95d606a1b6044820152606401610401565b5f816001600160a01b031663a0e8d3566040518163ffffffff1660e01b8152600401602060405180830381865afa158015611c5b573d5f5f3e3d5ffd5b505050506040513d601f19601f82011682018060405250810190611735919061298e565b5f5f611c8b8484612198565b905060c8811015611c9a575060c85b6107d0811115611ca957506107d05b6107d08110611cbd576107d0915050611735565b5f611cca826107d0611ecf565b90505f611cdf670de0b6b3a764000088612a11565b90505f611cf86116aa670de0b6b3a7640000600a6129d3565b611d0190612a37565b90505f821315611d1757611d1481612a37565b90505b5f611d228483612a51565b90505f611d2e82612024565b9050611d456107d082670de0b6b3a7640000611f74565b965060c8871015611d555760c896505b6107d087111561172e57506107d09998505050505050505050565b5f546001600160a01b03163314610a285760405163118cdaa760e01b8152336004820152602401610401565b5f80546001600160a01b038381166001600160a01b0319831681178455604051919092169283917f8be0079c531659141344cd1fd0a4f28419497f9722a3daafe3b4186f6b6457e09190a35050565b6040516001600160a01b038481166024830152838116604483015260648201839052611e249186918216906323b872dd90608401611a8d565b50505050565b5f821580611e36575081155b15611e4257505f610c64565b5f611e5784670de0b6b3a76400006001611f74565b9050611e6581846001611f74565b90505f611e786301e133806127106129d3565b9050611e8682600183611f74565b95945050505050565b5f5f611e9a846121a3565b90505f611eaf82670de0b6b3a7640000612a51565b90505f8113611ebc575060015b611e868482670de0b6b3a7640000611f74565b5f821580611edd5750818310155b15611f1757825f03611f0457611efd670de0b6b3a7640000600919612a78565b9050610c64565b611efd670de0b6b3a7640000600a612a78565b5f611f2a670de0b6b3a7640000856129d3565b90505f611f3785856129a5565b90505f611f4482846129fe565b9050611f4f816122ae565b9695505050505050565b5f5f821215611f7057611f6b82612a37565b610c64565b5090565b5f5f5f611f8186866124b0565b91509150815f03611fa557838181611f9b57611f9b6129ea565b0492505050611735565b818411611fbc57611fbc60038515026011186124cc565b5f848688095f868103871696879004966002600389028118808a02820302808a02820302808a02820302808a02820302808a02820302808a02909103029181900381900460010185841190960395909502919093039390930492909217029150509392505050565b5f612038670de0b6b3a7640000600a612a78565b821261204d5750670de0b6b3a7640000919050565b612061670de0b6b3a7640000600919612a78565b821361206e57505f919050565b5f612078836124dd565b90505f61208d82670de0b6b3a764000061297b565b9050805f036120a75750670de0b6b3a76400009392505050565b6120ba82670de0b6b3a764000083611f74565b949350505050565b5f8315806120ce575082155b156120da57505f611735565b5f6120ee8585670de0b6b3a7640000611f74565b90508281116120fd575f611e86565b611e8683826129a5565b5f821580612113575081155b1561211f57505f610c64565b6117358383612710611f74565b5f5f60205f8451602086015f885af18061214b576040513d5f823e3d81fd5b50505f513d9150811561216257806001141561216f565b6001600160a01b0384163b155b15611e2457604051635274afe760e01b81526001600160a01b0385166004820152602401610401565b5f5f611e9a8461260e565b5f6714d1120d7b16000082106121c35750670853a0d2313bffff19919050565b670de0b6b3a7640000821115612237575f6121e6670de0b6b3a7640000846129a5565b90505f612204670853a0d2313c0000836706f05b59d3b20000611f74565b61220d90612a37565b9050670853a0d2313bffff19811261222557806120ba565b670853a0d2313bffff19949350505050565b6702c68af0bb140000821061229f575f61225983670de0b6b3a76400006129a5565b90505f61227782670de0b6b3a7640000670b1a2bc2ec500000611f74565b9050670de0b6b3a7640000811161228e57806120ba565b670de0b6b3a7640000949350505050565b50670de0b6b3a7640000919050565b5f815f036122ca57610c64670de0b6b3a7640000600919612a78565b670de0b6b3a764000082036122e057505f919050565b5f825b6725b946ebc0b3617381106123215761230d81670de0b6b3a76400006725b946ebc0b36173611f74565b905061231a600183612a51565b91506122e3565b670de0b6b3a764000081108015612339575060091982135b1561236d57612359816725b946ebc0b36173670de0b6b3a7640000611f74565b9050612366600183612a11565b9150612321565b5f612380670de0b6b3a764000083612a11565b90505f612395670de0b6b3a76400008461297b565b90505f816123ab670de0b6b3a764000085612a78565b6123b59190612aa7565b90505f670de0b6b3a76400006123cb8380612a78565b6123d59190612aa7565b90505f670de0b6b3a76400006123eb8484612a78565b6123f59190612aa7565b90505f670de0b6b3a764000061240b8484612a78565b6124159190612aa7565b90505f670de0b6b3a764000061242b8584612a78565b6124359190612aa7565b90505f612443600783612aa7565b61244e600585612aa7565b612459600387612aa7565b6124639089612a51565b61246d9190612a51565b6124779190612a51565b612482906002612a78565b9050612496670de0b6b3a76400008b612a78565b6124a09082612a51565b9c9b505050505050505050505050565b5f805f1983850993909202808410938190039390930393915050565b634e487b715f52806020526024601cfd5b5f6124f1670de0b6b3a7640000600a612a78565b821261250857506904aa0e9e5328ca774a5d919050565b61251c670de0b6b3a7640000600919612a78565b821361252f575065294a7eafb2b4919050565b5f612542670de0b6b3a764000084612aa7565b90505f5f84126125655761255e670de0b6b3a764000085612ad3565b90506125a4565b5f612578670de0b6b3a764000086612ad3565b905080156125a25761258b600184612a11565b925061259f81670de0b6b3a7640000612a51565b91505b505b5f6125ae836126e2565b9050815f036125bf57949350505050565b5f6125dd83806125d8670de0b6b3a764000060026129d3565b611f74565b6125ef84670de0b6b3a764000061297b565b6125f9919061297b565b9050611f4f8282670de0b6b3a7640000611f74565b5f6714d1120d7b160000821061262e5750670853a0d2313bffff19919050565b670de0b6b3a7640000821115612651575f6121e6670de0b6b3a7640000846129a5565b6702c68af0bb14000082106126cf575f61267383670de0b6b3a76400006129a5565b90505f61269b6126846003846129d3565b670de0b6b3a7640000670b1a2bc2ec500000611f74565b90506126b0670de0b6b3a764000060036129d3565b81116126bc57806120ba565b6120ba670de0b6b3a764000060036129d3565b610c64670de0b6b3a764000060036129d3565b5f815f036126f95750670de0b6b3a7640000919050565b8160010361271057506725b946ebc0b36173919050565b81600203612727575067668b335f8231ec73919050565b8160030361273f5750680116be2969f597e31d919050565b8160040361275757506802f5b3982e870b53e6919050565b8160050361276f575068080ba575e08e9c311d919050565b600a821261278857506904aa0e9e5328ca774a5d919050565b811961279d575067051af86713316a92919050565b81600119036127b557506701e0ceb91ae52a54919050565b81600219036127cc575066b0e1132c798087919050565b81600319036127e35750664111f9fdcc1de4919050565b81600419036127fa57506617f0208965599b919050565b6009198213612810575065294a7eafb2b4919050565b6005821315612887575f6005670de0b6b3a764000061282f8286612a11565b61283991906129d3565b61284391906129fe565b905061287461286568080ba575e08e9c311d6904aa0e9e5328ca774a5d6129a5565b82670de0b6b3a7640000611f74565b6117359068080ba575e08e9c311d61297b565b60041982121561229f575f6005670de0b6b3a76400006128a985600419612a11565b6128b391906129d3565b6128bd91906129fe565b90506128d961286565294a7eafb2b46617f0208965599b6129a5565b611735906617f0208965599b6129a5565b5f602082840312156128fa575f5ffd5b5035919050565b6001600160a01b03811681146107d0575f5ffd5b5f5f60408385031215612926575f5ffd5b823561293181612901565b9150602083013561294181612901565b809150509250929050565b5f6020828403121561295c575f5ffd5b813561173581612901565b634e487b7160e01b5f52601160045260245ffd5b80820180821115610c6457610c64612967565b5f6020828403121561299e575f5ffd5b5051919050565b81810381811115610c6457610c64612967565b5f602082840312156129c8575f5ffd5b815161173581612901565b8082028115828204841417610c6457610c64612967565b634e487b7160e01b5f52601260045260245ffd5b5f82612a0c57612a0c6129ea565b500490565b8181035f831280158383131683831282161715612a3057612a30612967565b5092915050565b5f600160ff1b8201612a4b57612a4b612967565b505f0390565b8082018281125f831280158216821582161715612a7057612a70612967565b505092915050565b8082025f8212600160ff1b84141615612a9357612a93612967565b8181058314821517610c6457610c64612967565b5f82612ab557612ab56129ea565b600160ff1b82145f1984141615612ace57612ace612967565b500590565b5f82612ae157612ae16129ea565b50079056fec7edf5cfe443c04a10a60ff6084c847114348c55b257a01d62700326219adbbaa2646970667358221220f8f1183fd5bdab79e5eff839faae4eb5649b3e1cc147ecb0614df54e6ec7c4a064736f6c634300081e0033",
  "linkReferences": {},
  "deployedLinkReferences": {},
  "immutableReferences": {
    "5702": [
      {
        "length": 32,
        "start": 867
      },
      {
        "length": 32,
        "start": 4881
      },
      {
        "length": 32,
        "start": 5272
      },
      {
        "length": 32,
        "start": 6360
      },
      {
        "length": 32,
        "start": 6994
      }
    ]
  },
  "inputSourceName": "project/contracts/InterestPool.sol",
  "buildInfoId": "solc-0_8_30-def59df38d64ea46e517db79c67ed32e95374a58"
}