{
  "_format": "hh3-artifact-1",
  "contractName": "IdealUSDManager",
  "sourceName": "contracts/IdealUSDManager.sol",
  "abi": [
    {
      "inputs": [
        {
          "internalType": "address",
          "name": "_owner",
          "type": "address"
        },
        {
          "internalType": "address",
          "name": "_configGov",
          "type": "address"
        },
        {
          "internalType": "uint256",
          "name": "_initialIUSD",
          "type": "uint256"
        }
      ],
      "stateMutability": "nonpayable",
      "type": "constructor"
    },
    {
      "anonymous": false,
      "inputs": [
        {
          "indexed": true,
          "internalType": "uint256",
          "name": "timestamp",
          "type": "uint256"
        },
        {
          "indexed": false,
          "internalType": "uint256",
          "name": "oldValue",
          "type": "uint256"
        },
        {
          "indexed": false,
          "internalType": "uint256",
          "name": "newValue",
          "type": "uint256"
        },
        {
          "indexed": true,
          "internalType": "address",
          "name": "setter",
          "type": "address"
        },
        {
          "indexed": false,
          "internalType": "string",
          "name": "reason",
          "type": "string"
        }
      ],
      "name": "IUSDManuallySet",
      "type": "event"
    },
    {
      "anonymous": false,
      "inputs": [
        {
          "indexed": true,
          "internalType": "uint256",
          "name": "timestamp",
          "type": "uint256"
        },
        {
          "indexed": false,
          "internalType": "uint256",
          "name": "oldValue",
          "type": "uint256"
        },
        {
          "indexed": false,
          "internalType": "uint256",
          "name": "newValue",
          "type": "uint256"
        },
        {
          "indexed": false,
          "internalType": "uint256",
          "name": "currentPCE",
          "type": "uint256"
        },
        {
          "indexed": false,
          "internalType": "uint256",
          "name": "previousPCE",
          "type": "uint256"
        },
        {
          "indexed": false,
          "internalType": "uint256",
          "name": "actualRate",
          "type": "uint256"
        },
        {
          "indexed": false,
          "internalType": "uint256",
          "name": "targetRate",
          "type": "uint256"
        },
        {
          "indexed": false,
          "internalType": "uint256",
          "name": "adjustmentFactor",
          "type": "uint256"
        }
      ],
      "name": "IUSDUpdated",
      "type": "event"
    },
    {
      "anonymous": false,
      "inputs": [
        {
          "indexed": true,
          "internalType": "address",
          "name": "from",
          "type": "address"
        },
        {
          "indexed": true,
          "internalType": "address",
          "name": "to",
          "type": "address"
        }
      ],
      "name": "OwnershipTransferRequested",
      "type": "event"
    },
    {
      "anonymous": false,
      "inputs": [
        {
          "indexed": true,
          "internalType": "address",
          "name": "from",
          "type": "address"
        },
        {
          "indexed": true,
          "internalType": "address",
          "name": "to",
          "type": "address"
        }
      ],
      "name": "OwnershipTransferred",
      "type": "event"
    },
    {
      "anonymous": false,
      "inputs": [
        {
          "indexed": true,
          "internalType": "address",
          "name": "updater",
          "type": "address"
        },
        {
          "indexed": false,
          "internalType": "bool",
          "name": "authorized",
          "type": "bool"
        }
      ],
      "name": "UpdaterAuthorized",
      "type": "event"
    },
    {
      "inputs": [],
      "name": "MAX_MANUAL_DEVIATION",
      "outputs": [
        {
          "internalType": "uint256",
          "name": "",
          "type": "uint256"
        }
      ],
      "stateMutability": "view",
      "type": "function"
    },
    {
      "inputs": [],
      "name": "MIN_LAZY_UPDATE_INTERVAL",
      "outputs": [
        {
          "internalType": "uint256",
          "name": "",
          "type": "uint256"
        }
      ],
      "stateMutability": "view",
      "type": "function"
    },
    {
      "inputs": [],
      "name": "MIN_OVERRIDE_INTERVAL",
      "outputs": [
        {
          "internalType": "uint256",
          "name": "",
          "type": "uint256"
        }
      ],
      "stateMutability": "view",
      "type": "function"
    },
    {
      "inputs": [],
      "name": "acceptOwnership",
      "outputs": [],
      "stateMutability": "nonpayable",
      "type": "function"
    },
    {
      "inputs": [
        {
          "internalType": "address",
          "name": "",
          "type": "address"
        }
      ],
      "name": "authorizedUpdaters",
      "outputs": [
        {
          "internalType": "bool",
          "name": "",
          "type": "bool"
        }
      ],
      "stateMutability": "view",
      "type": "function"
    },
    {
      "inputs": [],
      "name": "configGov",
      "outputs": [
        {
          "internalType": "contract ConfigGov",
          "name": "",
          "type": "address"
        }
      ],
      "stateMutability": "view",
      "type": "function"
    },
    {
      "inputs": [],
      "name": "getCurrentIUSD",
      "outputs": [
        {
          "internalType": "uint256",
          "name": "",
          "type": "uint256"
        }
      ],
      "stateMutability": "view",
      "type": "function"
    },
    {
      "inputs": [],
      "name": "getFormattedInfo",
      "outputs": [
        {
          "internalType": "string",
          "name": "",
          "type": "string"
        }
      ],
      "stateMutability": "view",
      "type": "function"
    },
    {
      "inputs": [],
      "name": "getInflationParameters",
      "outputs": [
        {
          "internalType": "uint256",
          "name": "annual",
          "type": "uint256"
        },
        {
          "internalType": "uint256",
          "name": "monthlyFactor",
          "type": "uint256"
        }
      ],
      "stateMutability": "pure",
      "type": "function"
    },
    {
      "inputs": [],
      "name": "getLatestUpdate",
      "outputs": [
        {
          "components": [
            {
              "internalType": "uint256",
              "name": "timestamp",
              "type": "uint256"
            },
            {
              "internalType": "uint256",
              "name": "oldValue",
              "type": "uint256"
            },
            {
              "internalType": "uint256",
              "name": "newValue",
              "type": "uint256"
            },
            {
              "internalType": "uint256",
              "name": "currentPCE",
              "type": "uint256"
            },
            {
              "internalType": "uint256",
              "name": "previousPCE",
              "type": "uint256"
            },
            {
              "internalType": "uint256",
              "name": "actualMonthlyRate",
              "type": "uint256"
            },
            {
              "internalType": "uint256",
              "name": "adjustmentFactor",
              "type": "uint256"
            }
          ],
          "internalType": "struct IdealUSDManager.IUSDUpdate",
          "name": "",
          "type": "tuple"
        }
      ],
      "stateMutability": "view",
      "type": "function"
    },
    {
      "inputs": [],
      "name": "getUpdateHistoryLength",
      "outputs": [
        {
          "internalType": "uint256",
          "name": "",
          "type": "uint256"
        }
      ],
      "stateMutability": "view",
      "type": "function"
    },
    {
      "inputs": [
        {
          "internalType": "address",
          "name": "updater",
          "type": "address"
        }
      ],
      "name": "isUpdaterAuthorized",
      "outputs": [
        {
          "internalType": "bool",
          "name": "",
          "type": "bool"
        }
      ],
      "stateMutability": "view",
      "type": "function"
    },
    {
      "inputs": [],
      "name": "iusdValue",
      "outputs": [
        {
          "internalType": "uint256",
          "name": "",
          "type": "uint256"
        }
      ],
      "stateMutability": "view",
      "type": "function"
    },
    {
      "inputs": [],
      "name": "lastManualOverrideTime",
      "outputs": [
        {
          "internalType": "uint256",
          "name": "",
          "type": "uint256"
        }
      ],
      "stateMutability": "view",
      "type": "function"
    },
    {
      "inputs": [],
      "name": "lastPCEUpdateTime",
      "outputs": [
        {
          "internalType": "uint64",
          "name": "",
          "type": "uint64"
        }
      ],
      "stateMutability": "view",
      "type": "function"
    },
    {
      "inputs": [],
      "name": "lastPCEValue",
      "outputs": [
        {
          "internalType": "uint256",
          "name": "",
          "type": "uint256"
        }
      ],
      "stateMutability": "view",
      "type": "function"
    },
    {
      "inputs": [],
      "name": "lastUpdateTime",
      "outputs": [
        {
          "internalType": "uint256",
          "name": "",
          "type": "uint256"
        }
      ],
      "stateMutability": "view",
      "type": "function"
    },
    {
      "inputs": [],
      "name": "manualOverrideCount",
      "outputs": [
        {
          "internalType": "uint256",
          "name": "",
          "type": "uint256"
        }
      ],
      "stateMutability": "view",
      "type": "function"
    },
    {
      "inputs": [],
      "name": "owner",
      "outputs": [
        {
          "internalType": "address",
          "name": "",
          "type": "address"
        }
      ],
      "stateMutability": "view",
      "type": "function"
    },
    {
      "inputs": [],
      "name": "pceFeed",
      "outputs": [
        {
          "internalType": "address",
          "name": "",
          "type": "address"
        }
      ],
      "stateMutability": "view",
      "type": "function"
    },
    {
      "inputs": [],
      "name": "pceFeedDecimals",
      "outputs": [
        {
          "internalType": "uint8",
          "name": "",
          "type": "uint8"
        }
      ],
      "stateMutability": "view",
      "type": "function"
    },
    {
      "inputs": [],
      "name": "previousPCEValue",
      "outputs": [
        {
          "internalType": "uint256",
          "name": "",
          "type": "uint256"
        }
      ],
      "stateMutability": "view",
      "type": "function"
    },
    {
      "inputs": [
        {
          "internalType": "uint256",
          "name": "_newIUSDValue",
          "type": "uint256"
        },
        {
          "internalType": "string",
          "name": "_reason",
          "type": "string"
        }
      ],
      "name": "setIUSDValue",
      "outputs": [],
      "stateMutability": "nonpayable",
      "type": "function"
    },
    {
      "inputs": [
        {
          "internalType": "address",
          "name": "updater",
          "type": "address"
        },
        {
          "internalType": "bool",
          "name": "authorized",
          "type": "bool"
        }
      ],
      "name": "setUpdaterAuthorization",
      "outputs": [],
      "stateMutability": "nonpayable",
      "type": "function"
    },
    {
      "inputs": [
        {
          "internalType": "bool",
          "name": "enabled",
          "type": "bool"
        }
      ],
      "name": "setUpdaterWhitelistEnabled",
      "outputs": [],
      "stateMutability": "nonpayable",
      "type": "function"
    },
    {
      "inputs": [
        {
          "internalType": "address",
          "name": "to",
          "type": "address"
        }
      ],
      "name": "transferOwnership",
      "outputs": [],
      "stateMutability": "nonpayable",
      "type": "function"
    },
    {
      "inputs": [],
      "name": "tryUpdateIUSD",
      "outputs": [
        {
          "internalType": "bool",
          "name": "updated",
          "type": "bool"
        }
      ],
      "stateMutability": "nonpayable",
      "type": "function"
    },
    {
      "inputs": [
        {
          "internalType": "uint256",
          "name": "",
          "type": "uint256"
        }
      ],
      "name": "updateHistory",
      "outputs": [
        {
          "internalType": "uint256",
          "name": "timestamp",
          "type": "uint256"
        },
        {
          "internalType": "uint256",
          "name": "oldValue",
          "type": "uint256"
        },
        {
          "internalType": "uint256",
          "name": "newValue",
          "type": "uint256"
        },
        {
          "internalType": "uint256",
          "name": "currentPCE",
          "type": "uint256"
        },
        {
          "internalType": "uint256",
          "name": "previousPCE",
          "type": "uint256"
        },
        {
          "internalType": "uint256",
          "name": "actualMonthlyRate",
          "type": "uint256"
        },
        {
          "internalType": "uint256",
          "name": "adjustmentFactor",
          "type": "uint256"
        }
      ],
      "stateMutability": "view",
      "type": "function"
    },
    {
      "inputs": [],
      "name": "updateIUSD",
      "outputs": [],
      "stateMutability": "nonpayable",
      "type": "function"
    },
    {
      "inputs": [],
      "name": "updateIUSDInternal",
      "outputs": [],
      "stateMutability": "nonpayable",
      "type": "function"
    },
    {
      "inputs": [],
      "name": "updaterWhitelistEnabled",
      "outputs": [
        {
          "internalType": "bool",
          "name": "",
          "type": "bool"
        }
      ],
      "stateMutability": "view",
      "type": "function"
    }
  ],
  "bytecode": "0x60a060405234801561000f575f5ffd5b506040516120d33803806120d383398101604081905261002e91610330565b82805f6001600160a01b03821661008c5760405162461bcd60e51b815260206004820152601860248201527f43616e6e6f7420736574206f776e657220746f207a65726f000000000000000060448201526064015b60405180910390fd5b5f80546001600160a01b0319166001600160a01b03848116919091179091558116156100bb576100bb8161026d565b5050506001600160a01b0382166101085760405162461bcd60e51b815260206004820152601160248201527024b73b30b634b21021b7b73334b3a3b7bb60791b6044820152606401610083565b5f81116101575760405162461bcd60e51b815260206004820152601560248201527f496e76616c696420696e697469616c2076616c756500000000000000000000006044820152606401610083565b6001600160a01b03821660808190526040805163a822bc3960e01b815290515f929163a822bc399160048083019260209291908290030181865afa1580156101a1573d5f5f3e3d5ffd5b505050506040513d601f19601f820116820180604052508101906101c59190610369565b90506001600160a01b03811661021d5760405162461bcd60e51b815260206004820152601d60248201527f5043452046656564206e6f742073657420696e20436f6e666967476f760000006044820152606401610083565b5060025550426003819055600480546001600160401b0319166001600160401b039092169190911790556001600160a01b03165f908152600760205260409020805460ff19166001179055610389565b336001600160a01b038216036102c55760405162461bcd60e51b815260206004820152601760248201527f43616e6e6f74207472616e7366657220746f2073656c660000000000000000006044820152606401610083565b600180546001600160a01b0319166001600160a01b038381169182179092555f8054604051929316917fed8889f560326eb138920d842192f0eb3dd22b4f139c87a2c57538e05bae12789190a350565b80516001600160a01b038116811461032b575f5ffd5b919050565b5f5f5f60608486031215610342575f5ffd5b61034b84610315565b925061035960208501610315565b9150604084015190509250925092565b5f60208284031215610379575f5ffd5b61038282610315565b9392505050565b608051611d166103bd5f395f81816102aa01528181610d1801528181610e990152818161104e01526111400152611d165ff3fe608060405234801561000f575f5ffd5b50600436106101da575f3560e01c806370d82fb211610109578063a822bc391161009e578063c8f33c911161006e578063c8f33c911461045c578063ce0e5b1214610465578063d5140f6e1461046d578063f2fde38b14610480575f5ffd5b8063a822bc39146103d4578063ababc015146103dc578063adb4af3e146103e5578063c070efac14610442575f5ffd5b80638da5cb5b116100d95780638da5cb5b1461036d5780638ff29cfe1461037d57806397c5546b1461039f578063a67f8747146103b2575f5ffd5b806370d82fb21461030b57806373ed7a901461031457806379ba50971461035c57806383d7f8d014610364575f5ffd5b80634361d23c1161017f5780636465eb1b1161014f5780636465eb1b146102a557806366095254146102e457806369b73fa6146102ee5780636f14dd2414610303575f5ffd5b80634361d23c1461027e5780635062421c1461028b57806362ec30ae14610294578063636db8251461029c575f5ffd5b80630cc0c20e116101ba5780630cc0c20e1461021d5780631426410d146102305780631c55518e1461024357806339cdf0bd14610251575f5ffd5b806261722a146101de5780627fc968146101fb57806305b2c04314610213575b5f5ffd5b6101e862093a8081565b6040519081526020015b60405180910390f35b610203610493565b60405190151581526020016101f2565b61021b610509565b005b61020361022b36600461184a565b6107b1565b61021b61023e366004611865565b61081b565b6101e866b1a2bc2ec5000081565b6004546102659067ffffffffffffffff1681565b60405167ffffffffffffffff90911681526020016101f2565b6008546102039060ff1681565b6101e860025481565b600b546101e8565b6101e860055481565b6102cc7f000000000000000000000000000000000000000000000000000000000000000081565b6040516001600160a01b0390911681526020016101f2565b6101e86220f58081565b6102f6610b24565b6040516101f291906118dc565b61021b610bc0565b6101e860065481565b610327610322366004611911565b610c04565b604080519788526020880196909652948601939093526060850191909152608084015260a083015260c082015260e0016101f2565b61021b610c51565b6101e860095481565b5f546001600160a01b03166102cc565b61020361038b36600461184a565b60076020525f908152604090205460ff1681565b61021b6103ad36600461193c565b610cfa565b6040805166470de4df8200008152670de694ce643591ae6020820152016101f2565b6102cc610d15565b6101e8600a5481565b6103ed610d9b565b6040516101f291905f60e082019050825182526020830151602083015260408301516040830152606083015160608301526080830151608083015260a083015160a083015260c083015160c083015292915050565b61044a610e95565b60405160ff90911681526020016101f2565b6101e860035481565b6002546101e8565b61021b61047b366004611955565b610fcf565b61021b61048e36600461184a565b611035565b5f6220f5806003546104a5919061199c565b4210156104b157505f90565b306001600160a01b0316636f14dd246040518163ffffffff1660e01b81526004015f604051808303815f87803b1580156104e9575f5ffd5b505af19250505080156104fa575060015b61050357505f90565b50600190565b610512336107b1565b6105545760405162461bcd60e51b815260206004820152600e60248201526d139bdd08185d5d1a1bdc9a5e995960921b60448201526064015b60405180910390fd5b5f5f61055e611049565b60025491935091505f8061057b8585670de694ce643591ae6112a9565b91509150670de0b6b3a76400008160025461059691906119af565b6105a091906119da565b600255426003555f670de0b6b3a764000083116105bd575f6105cf565b6105cf670de0b6b3a7640000846119ed565b6040805160e081018252428082526020820188815260028054948401948552606084018c8152608085018c815260a0860188815260c087018b8152600b80546001810182555f9190915297517f0175b7a638427703f0dbe7bb9bbf987a2551717b34e79f33b5b1008d1fa01db960079099029889015594517f0175b7a638427703f0dbe7bb9bbf987a2551717b34e79f33b5b1008d1fa01dba88015596517f0175b7a638427703f0dbe7bb9bbf987a2551717b34e79f33b5b1008d1fa01dbb87015590517f0175b7a638427703f0dbe7bb9bbf987a2551717b34e79f33b5b1008d1fa01dbc860155517f0175b7a638427703f0dbe7bb9bbf987a2551717b34e79f33b5b1008d1fa01dbd85015593517f0175b7a638427703f0dbe7bb9bbf987a2551717b34e79f33b5b1008d1fa01dbe840155517f0175b7a638427703f0dbe7bb9bbf987a2551717b34e79f33b5b1008d1fa01dbf909201919091559054919250907f0fd4533b132afbe8775059957a449db5390bcf74e337a9ee34dc4cc19e4ee29d908690898986610772670de0b6b3a7640000670de694ce643591ae6119ed565b604080519687526020870195909552938501929092526060840152608083015260a082015260c0810185905260e00160405180910390a2505050505050565b6008545f9060ff166107e4575f546001600160a01b03165b6001600160a01b0316826001600160a01b0316149050919050565b6001600160a01b0382165f9081526007602052604090205460ff168061081557505f546001600160a01b03166107c9565b92915050565b610823611354565b5f83116108725760405162461bcd60e51b815260206004820152601b60248201527f495553442076616c7565206d75737420626520706f7369746976650000000000604482015260640161054b565b60148110156108d15760405162461bcd60e51b815260206004820152602560248201527f526561736f6e206d757374206265206174206c65617374203230206368617261604482015264637465727360d81b606482015260840161054b565b6002546009541561094e5762093a806009546108ed919061199c565b42101561094e5760405162461bcd60e51b815260206004820152602960248201527f4d757374207761697420372064617973206265747765656e206d616e75616c206044820152686f766572726964657360b81b606482015260840161054b565b5f818511156109865781670de0b6b3a764000061096b82886119ed565b61097591906119af565b61097f91906119da565b90506109b1565b81670de0b6b3a764000061099a87836119ed565b6109a491906119af565b6109ae91906119da565b90505b66b1a2bc2ec50000811115610a085760405162461bcd60e51b815260206004820152601a60248201527f446576696174696f6e2065786365656473203525206c696d6974000000000000604482015260640161054b565b6002859055426003819055600955600a8054905f610a2583611a00565b9190505550600b6040518060e001604052804281526020018481526020018781526020015f81526020015f81526020015f815260200184670de0b6b3a764000089610a7091906119af565b610a7a91906119da565b90528154600181810184555f938452602093849020835160079093020191825592820151928101929092556040808201516002840155606082015160038401556080820151600484015560a0820151600584015560c09091015160069092019190915551339042907f329a23ea1d9b2e4f46e8e6d8977a18423cbea5e5ea7c20e853935433abedf8e890610b159086908a908a908a90611a18565b60405180910390a35050505050565b60605f66038d7ea4c68000600254610b3c91906119da565b90505f610b56655af3107a400066470de4df8200006119da565b9050610b6c610b676103e8846119da565b6113a8565b610b7b610b676103e885611a54565b610b89610b676064856119da565b610b97610b67606486611a54565b604051602001610baa9493929190611a7e565b6040516020818303038152906040529250505090565b3330146105545760405162461bcd60e51b815260206004820152601260248201527113db9b1e481a5b9d195c9b985b0818d85b1b60721b604482015260640161054b565b600b8181548110610c13575f80fd5b905f5260205f2090600702015f91509050805f0154908060010154908060020154908060030154908060040154908060050154908060060154905087565b6001546001600160a01b03163314610ca45760405162461bcd60e51b815260206004820152601660248201527526bab9ba10313290383937b837b9b2b21037bbb732b960511b604482015260640161054b565b5f8054336001600160a01b0319808316821784556001805490911690556040516001600160a01b0390921692909183917f8be0079c531659141344cd1fd0a4f28419497f9722a3daafe3b4186f6b6457e091a350565b610d02611354565b6008805460ff1916911515919091179055565b5f7f00000000000000000000000000000000000000000000000000000000000000006001600160a01b031663a822bc396040518163ffffffff1660e01b8152600401602060405180830381865afa158015610d72573d5f5f3e3d5ffd5b505050506040513d601f19601f82011682018060405250810190610d969190611af5565b905090565b610dd46040518060e001604052805f81526020015f81526020015f81526020015f81526020015f81526020015f81526020015f81525090565b600b54610e145760405162461bcd60e51b815260206004820152600e60248201526d139bc81d5c19185d195cc81e595d60921b604482015260640161054b565b600b8054610e24906001906119ed565b81548110610e3457610e34611b10565b905f5260205f2090600702016040518060e00160405290815f82015481526020016001820154815260200160028201548152602001600382015481526020016004820154815260200160058201548152602001600682015481525050905090565b5f5f7f00000000000000000000000000000000000000000000000000000000000000006001600160a01b031663a822bc396040518163ffffffff1660e01b8152600401602060405180830381865afa158015610ef3573d5f5f3e3d5ffd5b505050506040513d601f19601f82011682018060405250810190610f179190611af5565b90506001600160a01b038116610f695760405162461bcd60e51b81526020600482015260176024820152761410d14811995959081b9bdd0818dbdb999a59dd5c9959604a1b604482015260640161054b565b806001600160a01b031663313ce5676040518163ffffffff1660e01b8152600401602060405180830381865afa158015610fa5573d5f5f3e3d5ffd5b505050506040513d601f19601f82011682018060405250810190610fc99190611b24565b91505090565b610fd7611354565b6001600160a01b0382165f81815260076020908152604091829020805460ff191685151590811790915591519182527f5c001b1d70af3e0a09eed53bc0588d57fec6d23196319ba29c6313eb3321273c910160405180910390a25050565b61103d611354565b611046816114ad565b50565b5f5f5f7f00000000000000000000000000000000000000000000000000000000000000006001600160a01b031663a822bc396040518163ffffffff1660e01b8152600401602060405180830381865afa1580156110a8573d5f5f3e3d5ffd5b505050506040513d601f19601f820116820180604052508101906110cc9190611af5565b90506001600160a01b03811661111e5760405162461bcd60e51b81526020600482015260176024820152761410d14811995959081b9bdd0818dbdb999a59dd5c9959604a1b604482015260640161054b565b61112781611555565b92506005549150815f0361113d5782915061127d565b5f7f00000000000000000000000000000000000000000000000000000000000000006001600160a01b031663d8a1b89e6040518163ffffffff1660e01b8152600401602060405180830381865afa15801561119a573d5f5f3e3d5ffd5b505050506040513d601f19601f820116820180604052508101906111be9190611b44565b9050801561127b575f838511156111fe5783670de0b6b3a76400006111e382886119ed565b6111ed91906119af565b6111f791906119da565b9050611229565b83670de0b6b3a764000061121287836119ed565b61121c91906119af565b61122691906119da565b90505b818111156112795760405162461bcd60e51b815260206004820152601b60248201527f50434520646576696174696f6e2065786365656473206c696d69740000000000604482015260640161054b565b505b505b50600681905560058290556004805467ffffffffffffffff19164267ffffffffffffffff161790559091565b5f5f5f851180156112b957505f84115b6112fa5760405162461bcd60e51b8152602060048201526012602482015271496e76616c6964205043452076616c75657360701b604482015260640161054b565b8361130d670de0b6b3a7640000876119af565b61131791906119da565b915061132383856119af565b670de0b6b3a764000061133681886119af565b61134091906119af565b61134a91906119da565b9050935093915050565b5f546001600160a01b031633146113a65760405162461bcd60e51b815260206004820152601660248201527527b7363c9031b0b63630b1363290313c9037bbb732b960511b604482015260640161054b565b565b6060815f036113ce5750506040805180820190915260018152600360fc1b602082015290565b815f5b81156113f757806113e181611a00565b91506113f09050600a836119da565b91506113d1565b5f8167ffffffffffffffff81111561141157611411611b5b565b6040519080825280601f01601f19166020018201604052801561143b576020820181803683370190505b5090505b84156114a5576114506001836119ed565b915061145d600a86611a54565b61146890603061199c565b60f81b81838151811061147d5761147d611b10565b60200101906001600160f81b03191690815f1a90535061149e600a866119da565b945061143f565b949350505050565b336001600160a01b038216036115055760405162461bcd60e51b815260206004820152601760248201527f43616e6e6f74207472616e7366657220746f2073656c66000000000000000000604482015260640161054b565b600180546001600160a01b0319166001600160a01b038381169182179092555f8054604051929316917fed8889f560326eb138920d842192f0eb3dd22b4f139c87a2c57538e05bae12789190a350565b5f6001600160a01b03821661159f5760405162461bcd60e51b815260206004820152601060248201526f1410d14811995959081b9bdd081cd95d60821b604482015260640161054b565b5f8290505f816001600160a01b031663313ce5676040518163ffffffff1660e01b8152600401602060405180830381865afa1580156115e0573d5f5f3e3d5ffd5b505050506040513d601f19601f820116820180604052508101906116049190611b24565b90505f5f5f5f856001600160a01b031663feaf968c6040518163ffffffff1660e01b815260040160a060405180830381865afa158015611646573d5f5f3e3d5ffd5b505050506040513d601f19601f8201168201806040525081019061166a9190611b88565b9450945050935093505f83136116b65760405162461bcd60e51b8152602060048201526011602482015270496e76616c6964205043452076616c756560781b604482015260640161054b565b5f82116117055760405162461bcd60e51b815260206004820152601960248201527f496e636f6d706c6574652050434520726f756e64206461746100000000000000604482015260640161054b565b8369ffffffffffffffffffff168169ffffffffffffffffffff1610156117645760405162461bcd60e51b81526020600482015260146024820152735374616c652050434520726f756e64206461746160601b604482015260640161054b565b622e248061177283426119ed565b11156117b35760405162461bcd60e51b815260206004820152601060248201526f1410d14819185d18481d1bdbc81bdb1960821b604482015260640161054b565b6117bd83866117c9565b98975050505050505050565b5f8160ff166012036117dc575081610815565b60128260ff16111561180f576117f3601283611bd6565b6117fe90600a611cd2565b61180890846119da565b9050610815565b61181a826012611bd6565b61182590600a611cd2565b61182f90846119af565b9392505050565b6001600160a01b0381168114611046575f5ffd5b5f6020828403121561185a575f5ffd5b813561182f81611836565b5f5f5f60408486031215611877575f5ffd5b83359250602084013567ffffffffffffffff811115611894575f5ffd5b8401601f810186136118a4575f5ffd5b803567ffffffffffffffff8111156118ba575f5ffd5b8660208284010111156118cb575f5ffd5b939660209190910195509293505050565b602081525f82518060208401528060208501604085015e5f604082850101526040601f19601f83011684010191505092915050565b5f60208284031215611921575f5ffd5b5035919050565b80358015158114611937575f5ffd5b919050565b5f6020828403121561194c575f5ffd5b61182f82611928565b5f5f60408385031215611966575f5ffd5b823561197181611836565b915061197f60208401611928565b90509250929050565b634e487b7160e01b5f52601160045260245ffd5b8082018082111561081557610815611988565b808202811582820484141761081557610815611988565b634e487b7160e01b5f52601260045260245ffd5b5f826119e8576119e86119c6565b500490565b8181038181111561081557610815611988565b5f60018201611a1157611a11611988565b5060010190565b84815283602082015260606040820152816060820152818360808301375f818301608090810191909152601f909201601f191601019392505050565b5f82611a6257611a626119c6565b500690565b5f81518060208401855e5f93019283525090919050565b65024aaa9a21d160d51b81525f611a986006830187611a67565b601760f91b8152611aac6001820187611a67565b9050680102a30b933b2ba1d160bd1b8152611aca6009820186611a67565b9050601760f91b8152611ae06001820185611a67565b602560f81b8152600101979650505050505050565b5f60208284031215611b05575f5ffd5b815161182f81611836565b634e487b7160e01b5f52603260045260245ffd5b5f60208284031215611b34575f5ffd5b815160ff8116811461182f575f5ffd5b5f60208284031215611b54575f5ffd5b5051919050565b634e487b7160e01b5f52604160045260245ffd5b805169ffffffffffffffffffff81168114611937575f5ffd5b5f5f5f5f5f60a08688031215611b9c575f5ffd5b611ba586611b6f565b60208701516040880151606089015192975090955093509150611bca60808701611b6f565b90509295509295909350565b60ff828116828216039081111561081557610815611988565b6001815b6001841115611c2a57808504811115611c0e57611c0e611988565b6001841615611c1c57908102905b60019390931c928002611bf3565b935093915050565b5f82611c4057506001610815565b81611c4c57505f610815565b8160018114611c625760028114611c6c57611c88565b6001915050610815565b60ff841115611c7d57611c7d611988565b50506001821b610815565b5060208310610133831016604e8410600b8410161715611cab575081810a610815565b611cb75f198484611bef565b805f1904821115611cca57611cca611988565b029392505050565b5f61182f60ff841683611c3256fea2646970667358221220676cda84a0a8acaba8e2d8057ac0d2b08aa6a57a14c605a953cb37e62360bbf264736f6c634300081e0033",
  "linkReferences": {},
  "deployedLinkReferences": {},
  "immutableReferences": {
    "4410": [
      {
        "length": 32,
        "start": 682
      },
      {
        "length": 32,
        "start": 3352
      },
      {
        "length": 32,
        "start": 3737
      },
      {
        "length": 32,
        "start": 4174
      },
      {
        "length": 32,
        "start": 4416
      }
    ]
  },
  "inputSourceName": "project/contracts/IdealUSDManager.sol",
  "buildInfoId": "solc-0_8_30-704c5e135fc7a0c654402a99d023692a221c532c"
}