{
  "_format": "hh3-artifact-1",
  "contractName": "IdealUSDManager",
  "sourceName": "contracts/IdealUSDManager.sol",
  "abi": [
    {
      "inputs": [
        {
          "internalType": "address",
          "name": "_owner",
          "type": "address"
        },
        {
          "internalType": "address",
          "name": "_configGov",
          "type": "address"
        },
        {
          "internalType": "uint256",
          "name": "_initialIUSD",
          "type": "uint256"
        }
      ],
      "stateMutability": "nonpayable",
      "type": "constructor"
    },
    {
      "anonymous": false,
      "inputs": [
        {
          "indexed": true,
          "internalType": "uint256",
          "name": "timestamp",
          "type": "uint256"
        },
        {
          "indexed": false,
          "internalType": "uint256",
          "name": "oldValue",
          "type": "uint256"
        },
        {
          "indexed": false,
          "internalType": "uint256",
          "name": "newValue",
          "type": "uint256"
        },
        {
          "indexed": true,
          "internalType": "address",
          "name": "setter",
          "type": "address"
        },
        {
          "indexed": false,
          "internalType": "string",
          "name": "reason",
          "type": "string"
        }
      ],
      "name": "IUSDManuallySet",
      "type": "event"
    },
    {
      "anonymous": false,
      "inputs": [
        {
          "indexed": true,
          "internalType": "uint256",
          "name": "timestamp",
          "type": "uint256"
        },
        {
          "indexed": false,
          "internalType": "uint256",
          "name": "oldValue",
          "type": "uint256"
        },
        {
          "indexed": false,
          "internalType": "uint256",
          "name": "newValue",
          "type": "uint256"
        },
        {
          "indexed": false,
          "internalType": "uint256",
          "name": "currentPCE",
          "type": "uint256"
        },
        {
          "indexed": false,
          "internalType": "uint256",
          "name": "previousPCE",
          "type": "uint256"
        },
        {
          "indexed": false,
          "internalType": "uint256",
          "name": "actualRate",
          "type": "uint256"
        },
        {
          "indexed": false,
          "internalType": "uint256",
          "name": "targetRate",
          "type": "uint256"
        },
        {
          "indexed": false,
          "internalType": "uint256",
          "name": "adjustmentFactor",
          "type": "uint256"
        }
      ],
      "name": "IUSDUpdated",
      "type": "event"
    },
    {
      "anonymous": false,
      "inputs": [
        {
          "indexed": true,
          "internalType": "address",
          "name": "from",
          "type": "address"
        },
        {
          "indexed": true,
          "internalType": "address",
          "name": "to",
          "type": "address"
        }
      ],
      "name": "OwnershipTransferRequested",
      "type": "event"
    },
    {
      "anonymous": false,
      "inputs": [
        {
          "indexed": true,
          "internalType": "address",
          "name": "from",
          "type": "address"
        },
        {
          "indexed": true,
          "internalType": "address",
          "name": "to",
          "type": "address"
        }
      ],
      "name": "OwnershipTransferred",
      "type": "event"
    },
    {
      "anonymous": false,
      "inputs": [
        {
          "indexed": true,
          "internalType": "address",
          "name": "updater",
          "type": "address"
        },
        {
          "indexed": false,
          "internalType": "bool",
          "name": "authorized",
          "type": "bool"
        }
      ],
      "name": "UpdaterAuthorized",
      "type": "event"
    },
    {
      "inputs": [],
      "name": "MAX_MANUAL_DEVIATION",
      "outputs": [
        {
          "internalType": "uint256",
          "name": "",
          "type": "uint256"
        }
      ],
      "stateMutability": "view",
      "type": "function"
    },
    {
      "inputs": [],
      "name": "MIN_OVERRIDE_INTERVAL",
      "outputs": [
        {
          "internalType": "uint256",
          "name": "",
          "type": "uint256"
        }
      ],
      "stateMutability": "view",
      "type": "function"
    },
    {
      "inputs": [],
      "name": "acceptOwnership",
      "outputs": [],
      "stateMutability": "nonpayable",
      "type": "function"
    },
    {
      "inputs": [
        {
          "internalType": "address",
          "name": "",
          "type": "address"
        }
      ],
      "name": "authorizedUpdaters",
      "outputs": [
        {
          "internalType": "bool",
          "name": "",
          "type": "bool"
        }
      ],
      "stateMutability": "view",
      "type": "function"
    },
    {
      "inputs": [],
      "name": "configGov",
      "outputs": [
        {
          "internalType": "contract ConfigGov",
          "name": "",
          "type": "address"
        }
      ],
      "stateMutability": "view",
      "type": "function"
    },
    {
      "inputs": [],
      "name": "getCurrentIUSD",
      "outputs": [
        {
          "internalType": "uint256",
          "name": "",
          "type": "uint256"
        }
      ],
      "stateMutability": "view",
      "type": "function"
    },
    {
      "inputs": [],
      "name": "getFormattedInfo",
      "outputs": [
        {
          "internalType": "string",
          "name": "",
          "type": "string"
        }
      ],
      "stateMutability": "view",
      "type": "function"
    },
    {
      "inputs": [],
      "name": "getInflationParameters",
      "outputs": [
        {
          "internalType": "uint256",
          "name": "annual",
          "type": "uint256"
        },
        {
          "internalType": "uint256",
          "name": "monthlyFactor",
          "type": "uint256"
        }
      ],
      "stateMutability": "pure",
      "type": "function"
    },
    {
      "inputs": [],
      "name": "getLatestUpdate",
      "outputs": [
        {
          "components": [
            {
              "internalType": "uint256",
              "name": "timestamp",
              "type": "uint256"
            },
            {
              "internalType": "uint256",
              "name": "oldValue",
              "type": "uint256"
            },
            {
              "internalType": "uint256",
              "name": "newValue",
              "type": "uint256"
            },
            {
              "internalType": "uint256",
              "name": "currentPCE",
              "type": "uint256"
            },
            {
              "internalType": "uint256",
              "name": "previousPCE",
              "type": "uint256"
            },
            {
              "internalType": "uint256",
              "name": "actualMonthlyRate",
              "type": "uint256"
            },
            {
              "internalType": "uint256",
              "name": "adjustmentFactor",
              "type": "uint256"
            }
          ],
          "internalType": "struct IdealUSDManager.IUSDUpdate",
          "name": "",
          "type": "tuple"
        }
      ],
      "stateMutability": "view",
      "type": "function"
    },
    {
      "inputs": [],
      "name": "getUpdateHistoryLength",
      "outputs": [
        {
          "internalType": "uint256",
          "name": "",
          "type": "uint256"
        }
      ],
      "stateMutability": "view",
      "type": "function"
    },
    {
      "inputs": [
        {
          "internalType": "address",
          "name": "updater",
          "type": "address"
        }
      ],
      "name": "isUpdaterAuthorized",
      "outputs": [
        {
          "internalType": "bool",
          "name": "",
          "type": "bool"
        }
      ],
      "stateMutability": "view",
      "type": "function"
    },
    {
      "inputs": [],
      "name": "iusdValue",
      "outputs": [
        {
          "internalType": "uint256",
          "name": "",
          "type": "uint256"
        }
      ],
      "stateMutability": "view",
      "type": "function"
    },
    {
      "inputs": [],
      "name": "lastManualOverrideTime",
      "outputs": [
        {
          "internalType": "uint256",
          "name": "",
          "type": "uint256"
        }
      ],
      "stateMutability": "view",
      "type": "function"
    },
    {
      "inputs": [],
      "name": "lastPCEUpdateTime",
      "outputs": [
        {
          "internalType": "uint64",
          "name": "",
          "type": "uint64"
        }
      ],
      "stateMutability": "view",
      "type": "function"
    },
    {
      "inputs": [],
      "name": "lastPCEValue",
      "outputs": [
        {
          "internalType": "uint256",
          "name": "",
          "type": "uint256"
        }
      ],
      "stateMutability": "view",
      "type": "function"
    },
    {
      "inputs": [],
      "name": "lastUpdateTime",
      "outputs": [
        {
          "internalType": "uint256",
          "name": "",
          "type": "uint256"
        }
      ],
      "stateMutability": "view",
      "type": "function"
    },
    {
      "inputs": [],
      "name": "manualOverrideCount",
      "outputs": [
        {
          "internalType": "uint256",
          "name": "",
          "type": "uint256"
        }
      ],
      "stateMutability": "view",
      "type": "function"
    },
    {
      "inputs": [],
      "name": "owner",
      "outputs": [
        {
          "internalType": "address",
          "name": "",
          "type": "address"
        }
      ],
      "stateMutability": "view",
      "type": "function"
    },
    {
      "inputs": [],
      "name": "pceFeed",
      "outputs": [
        {
          "internalType": "address",
          "name": "",
          "type": "address"
        }
      ],
      "stateMutability": "view",
      "type": "function"
    },
    {
      "inputs": [],
      "name": "pceFeedDecimals",
      "outputs": [
        {
          "internalType": "uint8",
          "name": "",
          "type": "uint8"
        }
      ],
      "stateMutability": "view",
      "type": "function"
    },
    {
      "inputs": [],
      "name": "previousPCEValue",
      "outputs": [
        {
          "internalType": "uint256",
          "name": "",
          "type": "uint256"
        }
      ],
      "stateMutability": "view",
      "type": "function"
    },
    {
      "inputs": [
        {
          "internalType": "uint256",
          "name": "_newIUSDValue",
          "type": "uint256"
        },
        {
          "internalType": "string",
          "name": "_reason",
          "type": "string"
        }
      ],
      "name": "setIUSDValue",
      "outputs": [],
      "stateMutability": "nonpayable",
      "type": "function"
    },
    {
      "inputs": [
        {
          "internalType": "address",
          "name": "updater",
          "type": "address"
        },
        {
          "internalType": "bool",
          "name": "authorized",
          "type": "bool"
        }
      ],
      "name": "setUpdaterAuthorization",
      "outputs": [],
      "stateMutability": "nonpayable",
      "type": "function"
    },
    {
      "inputs": [
        {
          "internalType": "bool",
          "name": "enabled",
          "type": "bool"
        }
      ],
      "name": "setUpdaterWhitelistEnabled",
      "outputs": [],
      "stateMutability": "nonpayable",
      "type": "function"
    },
    {
      "inputs": [
        {
          "internalType": "address",
          "name": "to",
          "type": "address"
        }
      ],
      "name": "transferOwnership",
      "outputs": [],
      "stateMutability": "nonpayable",
      "type": "function"
    },
    {
      "inputs": [
        {
          "internalType": "uint256",
          "name": "",
          "type": "uint256"
        }
      ],
      "name": "updateHistory",
      "outputs": [
        {
          "internalType": "uint256",
          "name": "timestamp",
          "type": "uint256"
        },
        {
          "internalType": "uint256",
          "name": "oldValue",
          "type": "uint256"
        },
        {
          "internalType": "uint256",
          "name": "newValue",
          "type": "uint256"
        },
        {
          "internalType": "uint256",
          "name": "currentPCE",
          "type": "uint256"
        },
        {
          "internalType": "uint256",
          "name": "previousPCE",
          "type": "uint256"
        },
        {
          "internalType": "uint256",
          "name": "actualMonthlyRate",
          "type": "uint256"
        },
        {
          "internalType": "uint256",
          "name": "adjustmentFactor",
          "type": "uint256"
        }
      ],
      "stateMutability": "view",
      "type": "function"
    },
    {
      "inputs": [],
      "name": "updateIUSD",
      "outputs": [],
      "stateMutability": "nonpayable",
      "type": "function"
    },
    {
      "inputs": [],
      "name": "updaterWhitelistEnabled",
      "outputs": [
        {
          "internalType": "bool",
          "name": "",
          "type": "bool"
        }
      ],
      "stateMutability": "view",
      "type": "function"
    }
  ],
  "bytecode": "0x60a060405234801561000f575f5ffd5b50604051611ed6380380611ed683398101604081905261002e91610330565b82805f6001600160a01b03821661008c5760405162461bcd60e51b815260206004820152601860248201527f43616e6e6f7420736574206f776e657220746f207a65726f000000000000000060448201526064015b60405180910390fd5b5f80546001600160a01b0319166001600160a01b03848116919091179091558116156100bb576100bb8161026d565b5050506001600160a01b0382166101085760405162461bcd60e51b815260206004820152601160248201527024b73b30b634b21021b7b73334b3a3b7bb60791b6044820152606401610083565b5f81116101575760405162461bcd60e51b815260206004820152601560248201527f496e76616c696420696e697469616c2076616c756500000000000000000000006044820152606401610083565b6001600160a01b03821660808190526040805163a822bc3960e01b815290515f929163a822bc399160048083019260209291908290030181865afa1580156101a1573d5f5f3e3d5ffd5b505050506040513d601f19601f820116820180604052508101906101c59190610369565b90506001600160a01b03811661021d5760405162461bcd60e51b815260206004820152601d60248201527f5043452046656564206e6f742073657420696e20436f6e666967476f760000006044820152606401610083565b5060025550426003819055600480546001600160401b0319166001600160401b039092169190911790556001600160a01b03165f908152600760205260409020805460ff19166001179055610389565b336001600160a01b038216036102c55760405162461bcd60e51b815260206004820152601760248201527f43616e6e6f74207472616e7366657220746f2073656c660000000000000000006044820152606401610083565b600180546001600160a01b0319166001600160a01b038381169182179092555f8054604051929316917fed8889f560326eb138920d842192f0eb3dd22b4f139c87a2c57538e05bae12789190a350565b80516001600160a01b038116811461032b575f5ffd5b919050565b5f5f5f60608486031215610342575f5ffd5b61034b84610315565b925061035960208501610315565b9150604084015190509250925092565b5f60208284031215610379575f5ffd5b61038282610315565b9392505050565b608051611b196103bd5f395f818161028201528181610c2401528181610da501528181610f5a015261104c0152611b195ff3fe608060405234801561000f575f5ffd5b50600436106101ba575f3560e01c806379ba5097116100f3578063ababc01511610093578063c8f33c911161006e578063c8f33c9114610422578063ce0e5b121461042b578063d5140f6e14610433578063f2fde38b14610446575f5ffd5b8063ababc015146103a2578063adb4af3e146103ab578063c070efac14610408575f5ffd5b80638ff29cfe116100ce5780638ff29cfe1461034357806397c5546b14610365578063a67f874714610378578063a822bc391461039a575f5ffd5b806379ba50971461032257806383d7f8d01461032a5780638da5cb5b14610333575f5ffd5b80635062421c1161015e5780636465eb1b116101395780636465eb1b1461027d57806369b73fa6146102bc57806370d82fb2146102d157806373ed7a90146102da575f5ffd5b80635062421c1461026357806362ec30ae1461026c578063636db82514610274575f5ffd5b80631426410d116101995780631426410d146102085780631c55518e1461021b57806339cdf0bd146102295780634361d23c14610256575f5ffd5b806261722a146101be57806305b2c043146101db5780630cc0c20e146101e5575b5f5ffd5b6101c862093a8081565b6040519081526020015b60405180910390f35b6101e3610459565b005b6101f86101f336600461164d565b610701565b60405190151581526020016101d2565b6101e3610216366004611668565b61076b565b6101c866b1a2bc2ec5000081565b60045461023d9067ffffffffffffffff1681565b60405167ffffffffffffffff90911681526020016101d2565b6008546101f89060ff1681565b6101c860025481565b600b546101c8565b6101c860055481565b6102a47f000000000000000000000000000000000000000000000000000000000000000081565b6040516001600160a01b0390911681526020016101d2565b6102c4610a74565b6040516101d291906116df565b6101c860065481565b6102ed6102e8366004611714565b610b10565b604080519788526020880196909652948601939093526060850191909152608084015260a083015260c082015260e0016101d2565b6101e3610b5d565b6101c860095481565b5f546001600160a01b03166102a4565b6101f861035136600461164d565b60076020525f908152604090205460ff1681565b6101e361037336600461173f565b610c06565b6040805166470de4df8200008152670de694ce643591ae6020820152016101d2565b6102a4610c21565b6101c8600a5481565b6103b3610ca7565b6040516101d291905f60e082019050825182526020830151602083015260408301516040830152606083015160608301526080830151608083015260a083015160a083015260c083015160c083015292915050565b610410610da1565b60405160ff90911681526020016101d2565b6101c860035481565b6002546101c8565b6101e3610441366004611758565b610edb565b6101e361045436600461164d565b610f41565b61046233610701565b6104a45760405162461bcd60e51b815260206004820152600e60248201526d139bdd08185d5d1a1bdc9a5e995960921b60448201526064015b60405180910390fd5b5f5f6104ae610f55565b60025491935091505f806104cb8585670de694ce643591ae6111b5565b91509150670de0b6b3a7640000816002546104e6919061179f565b6104f091906117ca565b600255426003555f670de0b6b3a7640000831161050d575f61051f565b61051f670de0b6b3a7640000846117dd565b6040805160e081018252428082526020820188815260028054948401948552606084018c8152608085018c815260a0860188815260c087018b8152600b80546001810182555f9190915297517f0175b7a638427703f0dbe7bb9bbf987a2551717b34e79f33b5b1008d1fa01db960079099029889015594517f0175b7a638427703f0dbe7bb9bbf987a2551717b34e79f33b5b1008d1fa01dba88015596517f0175b7a638427703f0dbe7bb9bbf987a2551717b34e79f33b5b1008d1fa01dbb87015590517f0175b7a638427703f0dbe7bb9bbf987a2551717b34e79f33b5b1008d1fa01dbc860155517f0175b7a638427703f0dbe7bb9bbf987a2551717b34e79f33b5b1008d1fa01dbd85015593517f0175b7a638427703f0dbe7bb9bbf987a2551717b34e79f33b5b1008d1fa01dbe840155517f0175b7a638427703f0dbe7bb9bbf987a2551717b34e79f33b5b1008d1fa01dbf909201919091559054919250907f0fd4533b132afbe8775059957a449db5390bcf74e337a9ee34dc4cc19e4ee29d9086908989866106c2670de0b6b3a7640000670de694ce643591ae6117dd565b604080519687526020870195909552938501929092526060840152608083015260a082015260c0810185905260e00160405180910390a2505050505050565b6008545f9060ff16610734575f546001600160a01b03165b6001600160a01b0316826001600160a01b0316149050919050565b6001600160a01b0382165f9081526007602052604090205460ff168061076557505f546001600160a01b0316610719565b92915050565b610773611260565b5f83116107c25760405162461bcd60e51b815260206004820152601b60248201527f495553442076616c7565206d75737420626520706f7369746976650000000000604482015260640161049b565b60148110156108215760405162461bcd60e51b815260206004820152602560248201527f526561736f6e206d757374206265206174206c65617374203230206368617261604482015264637465727360d81b606482015260840161049b565b6002546009541561089e5762093a8060095461083d91906117f0565b42101561089e5760405162461bcd60e51b815260206004820152602960248201527f4d757374207761697420372064617973206265747765656e206d616e75616c206044820152686f766572726964657360b81b606482015260840161049b565b5f818511156108d65781670de0b6b3a76400006108bb82886117dd565b6108c5919061179f565b6108cf91906117ca565b9050610901565b81670de0b6b3a76400006108ea87836117dd565b6108f4919061179f565b6108fe91906117ca565b90505b66b1a2bc2ec500008111156109585760405162461bcd60e51b815260206004820152601a60248201527f446576696174696f6e2065786365656473203525206c696d6974000000000000604482015260640161049b565b6002859055426003819055600955600a8054905f61097583611803565b9190505550600b6040518060e001604052804281526020018481526020018781526020015f81526020015f81526020015f815260200184670de0b6b3a7640000896109c0919061179f565b6109ca91906117ca565b90528154600181810184555f938452602093849020835160079093020191825592820151928101929092556040808201516002840155606082015160038401556080820151600484015560a0820151600584015560c09091015160069092019190915551339042907f329a23ea1d9b2e4f46e8e6d8977a18423cbea5e5ea7c20e853935433abedf8e890610a659086908a908a908a9061181b565b60405180910390a35050505050565b60605f66038d7ea4c68000600254610a8c91906117ca565b90505f610aa6655af3107a400066470de4df8200006117ca565b9050610abc610ab76103e8846117ca565b6112b4565b610acb610ab76103e885611857565b610ad9610ab76064856117ca565b610ae7610ab7606486611857565b604051602001610afa9493929190611881565b6040516020818303038152906040529250505090565b600b8181548110610b1f575f80fd5b905f5260205f2090600702015f91509050805f0154908060010154908060020154908060030154908060040154908060050154908060060154905087565b6001546001600160a01b03163314610bb05760405162461bcd60e51b815260206004820152601660248201527526bab9ba10313290383937b837b9b2b21037bbb732b960511b604482015260640161049b565b5f8054336001600160a01b0319808316821784556001805490911690556040516001600160a01b0390921692909183917f8be0079c531659141344cd1fd0a4f28419497f9722a3daafe3b4186f6b6457e091a350565b610c0e611260565b6008805460ff1916911515919091179055565b5f7f00000000000000000000000000000000000000000000000000000000000000006001600160a01b031663a822bc396040518163ffffffff1660e01b8152600401602060405180830381865afa158015610c7e573d5f5f3e3d5ffd5b505050506040513d601f19601f82011682018060405250810190610ca291906118f8565b905090565b610ce06040518060e001604052805f81526020015f81526020015f81526020015f81526020015f81526020015f81526020015f81525090565b600b54610d205760405162461bcd60e51b815260206004820152600e60248201526d139bc81d5c19185d195cc81e595d60921b604482015260640161049b565b600b8054610d30906001906117dd565b81548110610d4057610d40611913565b905f5260205f2090600702016040518060e00160405290815f82015481526020016001820154815260200160028201548152602001600382015481526020016004820154815260200160058201548152602001600682015481525050905090565b5f5f7f00000000000000000000000000000000000000000000000000000000000000006001600160a01b031663a822bc396040518163ffffffff1660e01b8152600401602060405180830381865afa158015610dff573d5f5f3e3d5ffd5b505050506040513d601f19601f82011682018060405250810190610e2391906118f8565b90506001600160a01b038116610e755760405162461bcd60e51b81526020600482015260176024820152761410d14811995959081b9bdd0818dbdb999a59dd5c9959604a1b604482015260640161049b565b806001600160a01b031663313ce5676040518163ffffffff1660e01b8152600401602060405180830381865afa158015610eb1573d5f5f3e3d5ffd5b505050506040513d601f19601f82011682018060405250810190610ed59190611927565b91505090565b610ee3611260565b6001600160a01b0382165f81815260076020908152604091829020805460ff191685151590811790915591519182527f5c001b1d70af3e0a09eed53bc0588d57fec6d23196319ba29c6313eb3321273c910160405180910390a25050565b610f49611260565b610f52816113b9565b50565b5f5f5f7f00000000000000000000000000000000000000000000000000000000000000006001600160a01b031663a822bc396040518163ffffffff1660e01b8152600401602060405180830381865afa158015610fb4573d5f5f3e3d5ffd5b505050506040513d601f19601f82011682018060405250810190610fd891906118f8565b90506001600160a01b03811661102a5760405162461bcd60e51b81526020600482015260176024820152761410d14811995959081b9bdd0818dbdb999a59dd5c9959604a1b604482015260640161049b565b61103381611461565b92506005549150815f0361104957829150611189565b5f7f00000000000000000000000000000000000000000000000000000000000000006001600160a01b031663d8a1b89e6040518163ffffffff1660e01b8152600401602060405180830381865afa1580156110a6573d5f5f3e3d5ffd5b505050506040513d601f19601f820116820180604052508101906110ca9190611947565b90508015611187575f8385111561110a5783670de0b6b3a76400006110ef82886117dd565b6110f9919061179f565b61110391906117ca565b9050611135565b83670de0b6b3a764000061111e87836117dd565b611128919061179f565b61113291906117ca565b90505b818111156111855760405162461bcd60e51b815260206004820152601b60248201527f50434520646576696174696f6e2065786365656473206c696d69740000000000604482015260640161049b565b505b505b50600681905560058290556004805467ffffffffffffffff19164267ffffffffffffffff161790559091565b5f5f5f851180156111c557505f84115b6112065760405162461bcd60e51b8152602060048201526012602482015271496e76616c6964205043452076616c75657360701b604482015260640161049b565b83611219670de0b6b3a76400008761179f565b61122391906117ca565b915061122f838561179f565b670de0b6b3a7640000611242818861179f565b61124c919061179f565b61125691906117ca565b9050935093915050565b5f546001600160a01b031633146112b25760405162461bcd60e51b815260206004820152601660248201527527b7363c9031b0b63630b1363290313c9037bbb732b960511b604482015260640161049b565b565b6060815f036112da5750506040805180820190915260018152600360fc1b602082015290565b815f5b811561130357806112ed81611803565b91506112fc9050600a836117ca565b91506112dd565b5f8167ffffffffffffffff81111561131d5761131d61195e565b6040519080825280601f01601f191660200182016040528015611347576020820181803683370190505b5090505b84156113b15761135c6001836117dd565b9150611369600a86611857565b6113749060306117f0565b60f81b81838151811061138957611389611913565b60200101906001600160f81b03191690815f1a9053506113aa600a866117ca565b945061134b565b949350505050565b336001600160a01b038216036114115760405162461bcd60e51b815260206004820152601760248201527f43616e6e6f74207472616e7366657220746f2073656c66000000000000000000604482015260640161049b565b600180546001600160a01b0319166001600160a01b038381169182179092555f8054604051929316917fed8889f560326eb138920d842192f0eb3dd22b4f139c87a2c57538e05bae12789190a350565b5f6001600160a01b0382166114a75760405162461bcd60e51b815260206004820152600c60248201526b11995959081b9bdd081cd95d60a21b604482015260640161049b565b5f8290505f816001600160a01b031663313ce5676040518163ffffffff1660e01b8152600401602060405180830381865afa1580156114e8573d5f5f3e3d5ffd5b505050506040513d601f19601f8201168201806040525081019061150c9190611927565b90505f826001600160a01b031663feaf968c6040518163ffffffff1660e01b815260040160a060405180830381865afa15801561154b573d5f5f3e3d5ffd5b505050506040513d601f19601f8201168201806040525081019061156f919061198b565b5050509150505f81136115b95760405162461bcd60e51b8152602060048201526012602482015271496e76616c6964206665656420707269636560701b604482015260640161049b565b6115c381836115cc565b95945050505050565b5f8160ff166012036115df575081610765565b60128260ff161115611612576115f66012836119d9565b61160190600a611ad5565b61160b90846117ca565b9050610765565b61161d8260126119d9565b61162890600a611ad5565b611632908461179f565b9392505050565b6001600160a01b0381168114610f52575f5ffd5b5f6020828403121561165d575f5ffd5b813561163281611639565b5f5f5f6040848603121561167a575f5ffd5b83359250602084013567ffffffffffffffff811115611697575f5ffd5b8401601f810186136116a7575f5ffd5b803567ffffffffffffffff8111156116bd575f5ffd5b8660208284010111156116ce575f5ffd5b939660209190910195509293505050565b602081525f82518060208401528060208501604085015e5f604082850101526040601f19601f83011684010191505092915050565b5f60208284031215611724575f5ffd5b5035919050565b8035801515811461173a575f5ffd5b919050565b5f6020828403121561174f575f5ffd5b6116328261172b565b5f5f60408385031215611769575f5ffd5b823561177481611639565b91506117826020840161172b565b90509250929050565b634e487b7160e01b5f52601160045260245ffd5b80820281158282048414176107655761076561178b565b634e487b7160e01b5f52601260045260245ffd5b5f826117d8576117d86117b6565b500490565b818103818111156107655761076561178b565b808201808211156107655761076561178b565b5f600182016118145761181461178b565b5060010190565b84815283602082015260606040820152816060820152818360808301375f818301608090810191909152601f909201601f191601019392505050565b5f82611865576118656117b6565b500690565b5f81518060208401855e5f93019283525090919050565b65024aaa9a21d160d51b81525f61189b600683018761186a565b601760f91b81526118af600182018761186a565b9050680102a30b933b2ba1d160bd1b81526118cd600982018661186a565b9050601760f91b81526118e3600182018561186a565b602560f81b8152600101979650505050505050565b5f60208284031215611908575f5ffd5b815161163281611639565b634e487b7160e01b5f52603260045260245ffd5b5f60208284031215611937575f5ffd5b815160ff81168114611632575f5ffd5b5f60208284031215611957575f5ffd5b5051919050565b634e487b7160e01b5f52604160045260245ffd5b805169ffffffffffffffffffff8116811461173a575f5ffd5b5f5f5f5f5f60a0868803121561199f575f5ffd5b6119a886611972565b602087015160408801516060890151929750909550935091506119cd60808701611972565b90509295509295909350565b60ff82811682821603908111156107655761076561178b565b6001815b6001841115611a2d57808504811115611a1157611a1161178b565b6001841615611a1f57908102905b60019390931c9280026119f6565b935093915050565b5f82611a4357506001610765565b81611a4f57505f610765565b8160018114611a655760028114611a6f57611a8b565b6001915050610765565b60ff841115611a8057611a8061178b565b50506001821b610765565b5060208310610133831016604e8410600b8410161715611aae575081810a610765565b611aba5f1984846119f2565b805f1904821115611acd57611acd61178b565b029392505050565b5f61163260ff841683611a3556fea2646970667358221220f9ad60c196310100833a37b0827fa40549208d323f3de430b0c2e50917dc787f64736f6c634300081e0033",
  "linkReferences": {},
  "deployedLinkReferences": {},
  "immutableReferences": {
    "4370": [
      {
        "length": 32,
        "start": 642
      },
      {
        "length": 32,
        "start": 3108
      },
      {
        "length": 32,
        "start": 3493
      },
      {
        "length": 32,
        "start": 3930
      },
      {
        "length": 32,
        "start": 4172
      }
    ]
  },
  "inputSourceName": "project/contracts/IdealUSDManager.sol",
  "buildInfoId": "solc-0_8_30-67f7dbd50f4a3f43275e422d1cf8064b9ef93615"
}