{
  "_format": "hh3-artifact-1",
  "contractName": "Treasury",
  "sourceName": "contracts/Treasury.sol",
  "abi": [
    {
      "inputs": [
        {
          "internalType": "address",
          "name": "initialOwner",
          "type": "address"
        },
        {
          "internalType": "address",
          "name": "_core",
          "type": "address"
        },
        {
          "internalType": "address",
          "name": "routerAddr",
          "type": "address"
        }
      ],
      "stateMutability": "nonpayable",
      "type": "constructor"
    },
    {
      "inputs": [
        {
          "internalType": "address",
          "name": "owner",
          "type": "address"
        }
      ],
      "name": "OwnableInvalidOwner",
      "type": "error"
    },
    {
      "inputs": [
        {
          "internalType": "address",
          "name": "account",
          "type": "address"
        }
      ],
      "name": "OwnableUnauthorizedAccount",
      "type": "error"
    },
    {
      "inputs": [],
      "name": "ReentrancyGuardReentrantCall",
      "type": "error"
    },
    {
      "inputs": [
        {
          "internalType": "address",
          "name": "token",
          "type": "address"
        }
      ],
      "name": "SafeERC20FailedOperation",
      "type": "error"
    },
    {
      "anonymous": false,
      "inputs": [
        {
          "indexed": false,
          "internalType": "uint256",
          "name": "btdAmount",
          "type": "uint256"
        },
        {
          "indexed": false,
          "internalType": "uint256",
          "name": "brsReceived",
          "type": "uint256"
        }
      ],
      "name": "BRSBuyback",
      "type": "event"
    },
    {
      "anonymous": false,
      "inputs": [
        {
          "indexed": true,
          "internalType": "address",
          "name": "to",
          "type": "address"
        },
        {
          "indexed": false,
          "internalType": "uint256",
          "name": "amount",
          "type": "uint256"
        }
      ],
      "name": "BRSCompensated",
      "type": "event"
    },
    {
      "anonymous": false,
      "inputs": [
        {
          "indexed": true,
          "internalType": "address",
          "name": "previousOwner",
          "type": "address"
        },
        {
          "indexed": true,
          "internalType": "address",
          "name": "newOwner",
          "type": "address"
        }
      ],
      "name": "OwnershipTransferred",
      "type": "event"
    },
    {
      "anonymous": false,
      "inputs": [
        {
          "indexed": true,
          "internalType": "address",
          "name": "oldRouter",
          "type": "address"
        },
        {
          "indexed": true,
          "internalType": "address",
          "name": "newRouter",
          "type": "address"
        }
      ],
      "name": "RouterUpdated",
      "type": "event"
    },
    {
      "anonymous": false,
      "inputs": [
        {
          "indexed": true,
          "internalType": "address",
          "name": "from",
          "type": "address"
        },
        {
          "indexed": false,
          "internalType": "uint256",
          "name": "amount",
          "type": "uint256"
        }
      ],
      "name": "WBTCDeposited",
      "type": "event"
    },
    {
      "anonymous": false,
      "inputs": [
        {
          "indexed": true,
          "internalType": "address",
          "name": "to",
          "type": "address"
        },
        {
          "indexed": false,
          "internalType": "uint256",
          "name": "amount",
          "type": "uint256"
        }
      ],
      "name": "WBTCWithdrawn",
      "type": "event"
    },
    {
      "inputs": [
        {
          "internalType": "uint256",
          "name": "btdAmount",
          "type": "uint256"
        },
        {
          "internalType": "uint256",
          "name": "minBRSOut",
          "type": "uint256"
        }
      ],
      "name": "buybackBRS",
      "outputs": [],
      "stateMutability": "nonpayable",
      "type": "function"
    },
    {
      "inputs": [
        {
          "internalType": "address",
          "name": "to",
          "type": "address"
        },
        {
          "internalType": "uint256",
          "name": "amt",
          "type": "uint256"
        }
      ],
      "name": "compensate",
      "outputs": [],
      "stateMutability": "nonpayable",
      "type": "function"
    },
    {
      "inputs": [],
      "name": "configCore",
      "outputs": [
        {
          "internalType": "address",
          "name": "",
          "type": "address"
        }
      ],
      "stateMutability": "view",
      "type": "function"
    },
    {
      "inputs": [],
      "name": "core",
      "outputs": [
        {
          "internalType": "contract ConfigCore",
          "name": "",
          "type": "address"
        }
      ],
      "stateMutability": "view",
      "type": "function"
    },
    {
      "inputs": [
        {
          "internalType": "uint256",
          "name": "amt",
          "type": "uint256"
        }
      ],
      "name": "depositWBTC",
      "outputs": [],
      "stateMutability": "nonpayable",
      "type": "function"
    },
    {
      "inputs": [],
      "name": "getBalances",
      "outputs": [
        {
          "internalType": "uint256",
          "name": "wbtcBalance",
          "type": "uint256"
        },
        {
          "internalType": "uint256",
          "name": "brsBalance",
          "type": "uint256"
        },
        {
          "internalType": "uint256",
          "name": "btdBalance",
          "type": "uint256"
        }
      ],
      "stateMutability": "view",
      "type": "function"
    },
    {
      "inputs": [],
      "name": "owner",
      "outputs": [
        {
          "internalType": "address",
          "name": "",
          "type": "address"
        }
      ],
      "stateMutability": "view",
      "type": "function"
    },
    {
      "inputs": [],
      "name": "renounceOwnership",
      "outputs": [],
      "stateMutability": "nonpayable",
      "type": "function"
    },
    {
      "inputs": [],
      "name": "router",
      "outputs": [
        {
          "internalType": "address",
          "name": "",
          "type": "address"
        }
      ],
      "stateMutability": "view",
      "type": "function"
    },
    {
      "inputs": [
        {
          "internalType": "address",
          "name": "newRouter",
          "type": "address"
        }
      ],
      "name": "setRouter",
      "outputs": [],
      "stateMutability": "nonpayable",
      "type": "function"
    },
    {
      "inputs": [
        {
          "internalType": "address",
          "name": "newOwner",
          "type": "address"
        }
      ],
      "name": "transferOwnership",
      "outputs": [],
      "stateMutability": "nonpayable",
      "type": "function"
    },
    {
      "inputs": [
        {
          "internalType": "uint256",
          "name": "amt",
          "type": "uint256"
        }
      ],
      "name": "withdrawWBTC",
      "outputs": [],
      "stateMutability": "nonpayable",
      "type": "function"
    }
  ],
  "bytecode": "0x60a0346101d157601f61156638819003918201601f19168301916001600160401b038311848410176101d5578084926060946040528339810103126101d157610047816101e9565b906100606040610059602084016101e9565b92016101e9565b916001600160a01b031680156101be575f80546001600160a01b03198116831782556001600160a01b0316907f8be0079c531659141344cd1fd0a4f28419497f9722a3daafe3b4186f6b6457e09080a3600180556001600160a01b0316908115610179576001600160a01b031690811561013457608052600280546001600160a01b03191691909117905560405161136890816101fe8239608051818181610161015281816103860152818161096301528181610b9201528181610d1401528181611140015281816111b901526112120152f35b60405162461bcd60e51b815260206004820152601860248201527f54726561737572793a20696e76616c696420726f7574657200000000000000006044820152606490fd5b60405162461bcd60e51b815260206004820152601660248201527f54726561737572793a20696e76616c696420636f7265000000000000000000006044820152606490fd5b631e4fbdf760e01b5f525f60045260245ffd5b5f80fd5b634e487b7160e01b5f52604160045260245ffd5b51906001600160a01b03821682036101d15756fe60806040526004361015610011575f80fd5b5f3560e01c8062113e0814610e8157806285ffc81461014c57806320ce0c8c14610ce8578063715018a614610c91578063737ec20f14610b665780638a1bd7c0146109305780638da5cb5b14610909578063b6b4a46d14610248578063c0d7865514610190578063f2f4eb261461014c578063f2fde38b146100c75763f887ea401461009b575f80fd5b346100c3575f3660031901126100c3576002546040516001600160a01b039091168152602090f35b5f80fd5b346100c35760203660031901126100c3576100e0610ff8565b6100e86112b4565b6001600160a01b03168015610139575f80546001600160a01b03198116831782556001600160a01b0316907f8be0079c531659141344cd1fd0a4f28419497f9722a3daafe3b4186f6b6457e09080a3005b631e4fbdf760e01b5f525f60045260245ffd5b346100c3575f3660031901126100c3576040517f00000000000000000000000000000000000000000000000000000000000000006001600160a01b03168152602090f35b346100c35760203660031901126100c3576101a9610ff8565b6101b16112b4565b6001600160a01b0316801561020357600280546001600160a01b0319811683179091556001600160a01b03167f02dc5c233404867c793b749c6d644beb2277536d18a7e7974d3f238e4c6f16845f80a3005b60405162461bcd60e51b815260206004820152601860248201527f54726561737572793a20696e76616c696420726f7574657200000000000000006044820152606490fd5b346100c35760403660031901126100c3576024356004356102676112b4565b61026f611256565b66038d7ea4c6800081106108c4576b033b2e3c9fd0803ce8000000811161087f5766038d7ea4c68000821061083a576b033b2e3c9fd0803ce800000082116107f557602460206001600160a01b036102c56111fd565b16604051928380926370a0823160e01b82523060048301525afa80156105985782915f916107c0575b501061077b576102fc6111fd565b60025460405163095ea7b360e01b60208083019182526001600160a01b039093166024830181905260448084018790528352939192905f9061033f60648661100e565b84519082855af15f513d82610756575b505015610711575b5050506040519161036960608461100e565b6002835260208301906040368337604051634574047760e01b81527f00000000000000000000000000000000000000000000000000000000000000006001600160a01b03169290602081600481875afa908115610598575f916106f2575b508551156106ad576001600160a01b031681526040516316a3d9fd60e01b815292602090849060049082905afa928315610598575f936106c1575b508451600110156106ad576001600160a01b03928316604086015260249260209061042b6111a4565b16604051948580926370a0823160e01b82523060048301525afa928315610598575f93610679575b506002546001600160a01b03169142610258810191908210610550576040516338ed173960e01b815260048101879052602481019190915260a06044820152955160a48701819052869260c4840192915f5b818110610657575050505f838195938193306064840152608483015203925af18015610598576105a3575b90915060249060206001600160a01b036104e86111a4565b16604051938480926370a0823160e01b82523060048301525afa918215610598575f92610564575b508103908111610550577f46c88d5127a845c1c5bf6671a03328e4b47802a42fe851fc14ef4ea464d3214c9160409182519182526020820152a160018055005b634e487b7160e01b5f52601160045260245ffd5b9091506020813d602011610590575b816105806020938361100e565b810103126100c357519083610510565b3d9150610573565b6040513d5f823e3d90fd5b3d805f853e6105b2818561100e565b8301926020818503126100c35780519067ffffffffffffffff82116100c357019280601f850112156100c35783519067ffffffffffffffff8211610643578160051b946020860192610607604051948561100e565b83526020808401968201019182116100c357602001945b81861061063357509293508392506104d09050565b855181526020958601950161061e565b634e487b7160e01b5f52604160045260245ffd5b82516001600160a01b03168552899550602094850194909201916001016104a5565b9092506020813d6020116106a5575b816106956020938361100e565b810103126100c357519185610453565b3d9150610688565b634e487b7160e01b5f52603260045260245ffd5b6106e491935060203d6020116106eb575b6106dc818361100e565b810190611030565b9185610402565b503d6106d2565b61070b915060203d6020116106eb576106dc818361100e565b866103c7565b61074961074e936040519063095ea7b360e01b602083015260248201525f60448201526044815261074360648261100e565b826112da565b6112da565b828080610357565b90915061077357506001600160a01b0381163b15155b868061034f565b60011461076c565b60405162461bcd60e51b815260206004820152601a60248201527f54726561737572793a20696e73756666696369656e74204254440000000000006044820152606490fd5b9150506020813d6020116107ed575b816107dc6020938361100e565b810103126100c357819051846102ee565b3d91506107cf565b60405162461bcd60e51b815260206004820152601d60248201527f54726561737572793a206d696e4252534f757420746f6f206c617267650000006044820152606490fd5b60405162461bcd60e51b815260206004820152601d60248201527f54726561737572793a206d696e4252534f757420746f6f20736d616c6c0000006044820152606490fd5b60405162461bcd60e51b815260206004820152601e60248201527f54726561737572793a2042544420616d6f756e7420746f6f206c6172676500006044820152606490fd5b60405162461bcd60e51b815260206004820152601e60248201527f54726561737572793a2042544420616d6f756e7420746f6f20736d616c6c00006044820152606490fd5b346100c3575f3660031901126100c3575f546040516001600160a01b039091168152602090f35b346100c35760403660031901126100c357610949610ff8565b604051633f9b604960e21b815260243591906020816004817f00000000000000000000000000000000000000000000000000000000000000006001600160a01b03165afa8015610598576109af915f91610b47575b506001600160a01b0316331461104f565b6109b7611256565b6001600160a01b038116918215610b09576109db66038d7ea4c68000821015611093565b6b033b2e3c9fd0803ce80000008111610ac45760249060206001600160a01b03610a036111a4565b16604051938480926370a0823160e01b82523060048301525afa918215610598575f92610a90575b5081811115610a885750905b81610a43575b60018055005b81610a797fbe65a9a39e5339c6267dd0bba7ad1ed6463705b569a8559a2b055ea09fc1add793602093610a746111a4565b611276565b604051908152a2808080610a3d565b905090610a37565b9091506020813d602011610abc575b81610aac6020938361100e565b810103126100c357519084610a2b565b3d9150610a9f565b60405162461bcd60e51b815260206004820152601960248201527f54726561737572793a2065786365656473206d617820425253000000000000006044820152606490fd5b60405162461bcd60e51b815260206004820152601660248201527554726561737572793a207a65726f206164647265737360501b6044820152606490fd5b610b60915060203d6020116106eb576106dc818361100e565b8461099e565b346100c35760203660031901126100c357604051633f9b604960e21b81526004803591906020908290817f00000000000000000000000000000000000000000000000000000000000000006001600160a01b03165afa801561059857610bdd915f91610c7257506001600160a01b0316331461104f565b610be5611256565b610bf26001821015611093565b610c0364e8d4a510008211156110df565b610c40610c0e61112b565b6040516323b872dd60e01b6020820152336024820152306044820152606480820185905281529061074960848361100e565b6040519081527f70643c3965cf5651f0e637bfa8f51f484f21af206691d8ac833d3ab2439f62d760203392a260018055005b610c8b915060203d6020116106eb576106dc818361100e565b8361099e565b346100c3575f3660031901126100c357610ca96112b4565b5f80546001600160a01b0319811682556001600160a01b03167f8be0079c531659141344cd1fd0a4f28419497f9722a3daafe3b4186f6b6457e08280a3005b346100c35760203660031901126100c357604051633f9b604960e21b81526004803591906020908290817f00000000000000000000000000000000000000000000000000000000000000006001600160a01b03165afa801561059857610d5f915f91610c7257506001600160a01b0316331461104f565b610d67611256565b610d746001821015611093565b610d8564e8d4a510008211156110df565b602460206001600160a01b03610d9961112b565b16604051928380926370a0823160e01b82523060048301525afa80156105985782915f91610e4c575b5010610e0757610dd58133610a7461112b565b6040519081527f932acef96c5a9b9fc3e9f7f370b2a990427948796975a8f8551ec461e002446960203392a260018055005b60405162461bcd60e51b815260206004820152601b60248201527f54726561737572793a20696e73756666696369656e74205742544300000000006044820152606490fd5b9150506020813d602011610e79575b81610e686020938361100e565b810103126100c35781905183610dc2565b3d9150610e5b565b346100c3575f3660031901126100c357602460206001600160a01b03610ea561112b565b16604051928380926370a0823160e01b82523060048301525afa8015610598575f90610fc5575b6024915060206001600160a01b03610ee26111a4565b16604051938480926370a0823160e01b82523060048301525afa8015610598575f90610f92575b6024925060206001600160a01b03610f1f6111fd565b16604051948580926370a0823160e01b82523060048301525afa908115610598575f91610f5d575b6060935060405192835260208301526040820152f35b90506020833d602011610f8a575b81610f786020938361100e565b810103126100c3576060925190610f47565b3d9150610f6b565b506020823d602011610fbd575b81610fac6020938361100e565b810103126100c35760249151610f09565b3d9150610f9f565b506020813d602011610ff0575b81610fdf6020938361100e565b810103126100c35760249051610ecc565b3d9150610fd2565b600435906001600160a01b03821682036100c357565b90601f8019910116810190811067ffffffffffffffff82111761064357604052565b908160209103126100c357516001600160a01b03811681036100c35790565b1561105657565b60405162461bcd60e51b81526020600482015260156024820152742a3932b0b9bab93c9d1037b7363c9026b4b73a32b960591b6044820152606490fd5b1561109a57565b60405162461bcd60e51b815260206004820152601a60248201527f54726561737572793a20616d6f756e7420746f6f20736d616c6c0000000000006044820152606490fd5b156110e657565b60405162461bcd60e51b815260206004820152601a60248201527f54726561737572793a2065786365656473206d617820574254430000000000006044820152606490fd5b6040516326f6f1ef60e11b81526020816004817f00000000000000000000000000000000000000000000000000000000000000006001600160a01b03165afa908115610598575f91611185575b506001600160a01b031690565b61119e915060203d6020116106eb576106dc818361100e565b5f611178565b6040516316a3d9fd60e01b81526020816004817f00000000000000000000000000000000000000000000000000000000000000006001600160a01b03165afa908115610598575f9161118557506001600160a01b031690565b604051634574047760e01b81526020816004817f00000000000000000000000000000000000000000000000000000000000000006001600160a01b03165afa908115610598575f9161118557506001600160a01b031690565b600260015414611267576002600155565b633ee5aeb560e01b5f5260045ffd5b60405163a9059cbb60e01b60208201526001600160a01b039290921660248301526044808301939093529181526112b29161074960648361100e565b565b5f546001600160a01b031633036112c757565b63118cdaa760e01b5f523360045260245ffd5b905f602091828151910182855af115610598575f513d61132957506001600160a01b0381163b155b6113095750565b635274afe760e01b5f9081526001600160a01b0391909116600452602490fd5b6001141561130256fea2646970667358221220f4e68c0b8ede453bfa86fc5ff4d39680879314ef17cee509cf300a63b3fa3c9964736f6c634300081e0033",
  "linkReferences": {},
  "deployedLinkReferences": {},
  "immutableReferences": {
    "30411": [
      {
        "length": 32,
        "start": 353
      },
      {
        "length": 32,
        "start": 902
      },
      {
        "length": 32,
        "start": 2403
      },
      {
        "length": 32,
        "start": 2962
      },
      {
        "length": 32,
        "start": 3348
      },
      {
        "length": 32,
        "start": 4416
      },
      {
        "length": 32,
        "start": 4537
      },
      {
        "length": 32,
        "start": 4626
      }
    ]
  },
  "inputSourceName": "project/contracts/Treasury.sol",
  "buildInfoId": "solc-0_8_30-53912771f68c89d1d8ffad4452b66ac349641e0c"
}